{
  "contractName": "AAVEInterestERC20",
  "abi": [
    {
      "inputs": [
        {
          "internalType": "address",
          "name": "_omnibridge",
          "type": "address"
        },
        {
          "internalType": "address",
          "name": "_owner",
          "type": "address"
        }
      ],
      "stateMutability": "nonpayable",
      "type": "constructor"
    },
    {
      "anonymous": false,
      "inputs": [
        {
          "indexed": false,
          "internalType": "address",
          "name": "token",
          "type": "address"
        },
        {
          "indexed": false,
          "internalType": "uint256",
          "name": "tokensAmount",
          "type": "uint256"
        },
        {
          "indexed": false,
          "internalType": "uint256",
          "name": "aTokensAmount",
          "type": "uint256"
        },
        {
          "indexed": false,
          "internalType": "uint256",
          "name": "investedAmount",
          "type": "uint256"
        }
      ],
      "name": "ForceDisable",
      "type": "event"
    },
    {
      "anonymous": false,
      "inputs": [
        {
          "indexed": true,
          "internalType": "address",
          "name": "token",
          "type": "address"
        },
        {
          "indexed": false,
          "internalType": "address",
          "name": "to",
          "type": "address"
        },
        {
          "indexed": false,
          "internalType": "uint256",
          "name": "value",
          "type": "uint256"
        }
      ],
      "name": "PaidInterest",
      "type": "event"
    },
    {
      "inputs": [
        {
          "internalType": "address",
          "name": "",
          "type": "address"
        }
      ],
      "name": "interestParams",
      "outputs": [
        {
          "internalType": "contract IAToken",
          "name": "aToken",
          "type": "address"
        },
        {
          "internalType": "uint96",
          "name": "dust",
          "type": "uint96"
        },
        {
          "internalType": "uint256",
          "name": "investedAmount",
          "type": "uint256"
        },
        {
          "internalType": "address",
          "name": "interestReceiver",
          "type": "address"
        },
        {
          "internalType": "uint256",
          "name": "minInterestPaid",
          "type": "uint256"
        }
      ],
      "stateMutability": "view",
      "type": "function"
    },
    {
      "inputs": [],
      "name": "mediator",
      "outputs": [
        {
          "internalType": "address",
          "name": "",
          "type": "address"
        }
      ],
      "stateMutability": "view",
      "type": "function"
    },
    {
      "inputs": [],
      "name": "owner",
      "outputs": [
        {
          "internalType": "address",
          "name": "",
          "type": "address"
        }
      ],
      "stateMutability": "view",
      "type": "function"
    },
    {
      "inputs": [
        {
          "internalType": "address",
          "name": "_newOwner",
          "type": "address"
        }
      ],
      "name": "transferOwnership",
      "outputs": [],
      "stateMutability": "nonpayable",
      "type": "function"
    },
    {
      "inputs": [],
      "name": "getModuleInterfacesVersion",
      "outputs": [
        {
          "internalType": "uint64",
          "name": "major",
          "type": "uint64"
        },
        {
          "internalType": "uint64",
          "name": "minor",
          "type": "uint64"
        },
        {
          "internalType": "uint64",
          "name": "patch",
          "type": "uint64"
        }
      ],
      "stateMutability": "pure",
      "type": "function"
    },
    {
      "inputs": [],
      "name": "lendingPool",
      "outputs": [
        {
          "internalType": "contract ILendingPool",
          "name": "",
          "type": "address"
        }
      ],
      "stateMutability": "pure",
      "type": "function"
    },
    {
      "inputs": [
        {
          "internalType": "address",
          "name": "_token",
          "type": "address"
        },
        {
          "internalType": "uint96",
          "name": "_dust",
          "type": "uint96"
        },
        {
          "internalType": "address",
          "name": "_interestReceiver",
          "type": "address"
        },
        {
          "internalType": "uint256",
          "name": "_minInterestPaid",
          "type": "uint256"
        }
      ],
      "name": "enableInterestToken",
      "outputs": [],
      "stateMutability": "nonpayable",
      "type": "function"
    },
    {
      "inputs": [
        {
          "internalType": "address",
          "name": "_token",
          "type": "address"
        }
      ],
      "name": "investedAmount",
      "outputs": [
        {
          "internalType": "uint256",
          "name": "",
          "type": "uint256"
        }
      ],
      "stateMutability": "view",
      "type": "function"
    },
    {
      "inputs": [
        {
          "internalType": "address",
          "name": "_token",
          "type": "address"
        }
      ],
      "name": "isInterestSupported",
      "outputs": [
        {
          "internalType": "bool",
          "name": "",
          "type": "bool"
        }
      ],
      "stateMutability": "view",
      "type": "function"
    },
    {
      "inputs": [
        {
          "internalType": "address",
          "name": "_token",
          "type": "address"
        },
        {
          "internalType": "uint256",
          "name": "_amount",
          "type": "uint256"
        }
      ],
      "name": "invest",
      "outputs": [],
      "stateMutability": "nonpayable",
      "type": "function"
    },
    {
      "inputs": [
        {
          "internalType": "address",
          "name": "_token",
          "type": "address"
        },
        {
          "internalType": "uint256",
          "name": "_amount",
          "type": "uint256"
        }
      ],
      "name": "withdraw",
      "outputs": [],
      "stateMutability": "nonpayable",
      "type": "function"
    },
    {
      "inputs": [
        {
          "internalType": "address",
          "name": "_token",
          "type": "address"
        }
      ],
      "name": "interestAmount",
      "outputs": [
        {
          "internalType": "uint256",
          "name": "",
          "type": "uint256"
        }
      ],
      "stateMutability": "view",
      "type": "function"
    },
    {
      "inputs": [
        {
          "internalType": "address",
          "name": "_token",
          "type": "address"
        }
      ],
      "name": "payInterest",
      "outputs": [],
      "stateMutability": "nonpayable",
      "type": "function"
    },
    {
      "inputs": [
        {
          "internalType": "address",
          "name": "_token",
          "type": "address"
        }
      ],
      "name": "forceDisable",
      "outputs": [],
      "stateMutability": "nonpayable",
      "type": "function"
    },
    {
      "inputs": [
        {
          "internalType": "address",
          "name": "_token",
          "type": "address"
        },
        {
          "internalType": "uint96",
          "name": "_dust",
          "type": "uint96"
        }
      ],
      "name": "setDust",
      "outputs": [],
      "stateMutability": "nonpayable",
      "type": "function"
    },
    {
      "inputs": [
        {
          "internalType": "address",
          "name": "_token",
          "type": "address"
        },
        {
          "internalType": "address",
          "name": "_receiver",
          "type": "address"
        }
      ],
      "name": "setInterestReceiver",
      "outputs": [],
      "stateMutability": "nonpayable",
      "type": "function"
    },
    {
      "inputs": [
        {
          "internalType": "address",
          "name": "_token",
          "type": "address"
        },
        {
          "internalType": "uint256",
          "name": "_minInterestPaid",
          "type": "uint256"
        }
      ],
      "name": "setMinInterestPaid",
      "outputs": [],
      "stateMutability": "nonpayable",
      "type": "function"
    }
  ],
  "bytecode": "0x608060405234801561001057600080fd5b506040516112ff3803806112ff8339818101604052604081101561003357600080fd5b508051602091820151600080546001600160a01b0319166001600160a01b0383161790559091829082906100709083906100a2811b610e4717901c565b61007957600080fd5b50600180546001600160a01b0319166001600160a01b0392909216919091179055506100de9050565b6000813f7fc5d2460186f7233c927e7db2dcc703c0e500b653ca82273b7bfad8045d85a4708181148015906100d657508115155b949350505050565b611212806100ed6000396000f3fe608060405234801561001057600080fd5b506004361061010b5760003560e01c8063a59a9973116100a2578063cff7744411610071578063cff7744414610344578063d007c6441461036a578063e6c7c4b514610390578063f2fde38b146103c5578063f3fef3a3146103eb5761010b565b8063a59a99731461029e578063b9b8c246146102a6578063bdd378a0146102d2578063c779c1c31461030c5761010b565b80638da5cb5b116100de5780638da5cb5b14610216578063904377ec1461021e57806395d1dab41461024c578063a36b85fd146102725761010b565b806316b813d014610110578063390848c2146101555780636d0501f6146101be57806381e1351f146101e2575b600080fd5b6101536004803603608081101561012657600080fd5b506001600160a01b0381358116916001600160601b03602082013516916040820135169060600135610417565b005b61017b6004803603602081101561016b57600080fd5b50356001600160a01b0316610696565b604080516001600160a01b0396871681526001600160601b0390951660208601528481019390935293166060830152608082019290925290519081900360a00190f35b6101c66106db565b604080516001600160a01b039092168252519081900360200190f35b6101ea6106ea565b6040805167ffffffffffffffff9485168152928416602084015292168183015290519081900360600190f35b6101c66106f3565b6101536004803603604081101561023457600080fd5b506001600160a01b0381358116916020013516610702565b6101536004803603602081101561026257600080fd5b50356001600160a01b031661074b565b6101536004803603604081101561028857600080fd5b506001600160a01b038135169060200135610a85565b6101c6610abb565b610153600480360360408110156102bc57600080fd5b506001600160a01b038135169060200135610ad3565b6102f8600480360360208110156102e857600080fd5b50356001600160a01b0316610b8f565b604080519115158252519081900360200190f35b6103326004803603602081101561032257600080fd5b50356001600160a01b0316610baf565b60408051918252519081900360200190f35b6103326004803603602081101561035a57600080fd5b50356001600160a01b0316610c89565b6101536004803603602081101561038057600080fd5b50356001600160a01b0316610ca7565b610153600480360360408110156103a657600080fd5b5080356001600160a01b031690602001356001600160601b0316610d03565b610153600480360360208110156103db57600080fd5b50356001600160a01b0316610d4f565b6101536004803603604081101561040157600080fd5b506001600160a01b038135169060200135610d88565b6000546001600160a01b0316331461042e57600080fd5b6000610438610abb565b6001600160a01b03166335ea6a75866040518263ffffffff1660e01b815260040180826001600160a01b0316815260200191505061018060405180830381600087803b15801561048757600080fd5b505af115801561049b573d6000803e3d6000fd5b505050506040513d601f19601f820116820180604052506101808110156104c157600080fd5b50600760200201519050846001600160a01b0316816001600160a01b031663b16a19de6040518163ffffffff1660e01b8152600401602060405180830381600087803b15801561051057600080fd5b505af1158015610524573d6000803e3d6000fd5b505050506040513d602081101561053a57600080fd5b50516001600160a01b03161461054f57600080fd5b6001600160a01b0385166000908152600260205260409020600101541561057557600080fd5b6040805160a0810182526001600160a01b0380841682526001600160601b03808816602080850191825260008587018181528a861660608801908152608088018b81528e881680855260029586905299909320975188549551909616600160a01b029587166001600160a01b031995861617871695909517875551600187015592519085018054919094169116179091555160039091015563095ea7b361061a610abb565b6000196040518363ffffffff1660e01b815260040180836001600160a01b0316815260200182815260200192505050602060405180830381600087803b15801561066357600080fd5b505af1158015610677573d6000803e3d6000fd5b505050506040513d602081101561068d57600080fd5b50505050505050565b600260208190526000918252604090912080546001820154928201546003909201546001600160a01b0380831694600160a01b9093046001600160601b031693169085565b6001546001600160a01b031681565b60016000809192565b6000546001600160a01b031681565b6000546001600160a01b0316331461071957600080fd5b6001600160a01b0391821660009081526002602081905260409091200180546001600160a01b03191691909216179055565b6000546001600160a01b0316331461076257600080fd5b6001600160a01b038082166000908152600260209081526040808320805482516370a0823160e01b81523060048201529251919516939284926370a082319260248083019392829003018186803b1580156107bc57600080fd5b505afa1580156107d0573d6000803e3d6000fd5b505050506040513d60208110156107e657600080fd5b505190506107f2610abb565b60015460408051631a4ca37b60e21b81526001600160a01b038881166004830152602482018690529283166044820152905192909116916369328dec916064808201926020929091908290030181600087803b15801561085157600080fd5b505af192505050801561087657506040513d602081101561087157600080fd5b505160015b610902576001546040805163a9059cbb60e01b81526001600160a01b0392831660048201526024810184905290519184169163a9059cbb916044808201926020929091908290030181600087803b1580156108d057600080fd5b505af11580156108e4573d6000803e3d6000fd5b505050506040513d60208110156108fa57600080fd5b506109089050565b50600090505b6000846001600160a01b03166370a08231306040518263ffffffff1660e01b815260040180826001600160a01b0316815260200191505060206040518083038186803b15801561095757600080fd5b505afa15801561096b573d6000803e3d6000fd5b505050506040513d602081101561098157600080fd5b50516001546040805163a9059cbb60e01b81526001600160a01b0392831660048201526024810184905290519293509087169163a9059cbb916044808201926020929091908290030181600087803b1580156109dc57600080fd5b505af11580156109f0573d6000803e3d6000fd5b505050506040513d6020811015610a0657600080fd5b50506001840154604080516001600160a01b0388168152602081018490528082018590526060810192909252517f5c7774bb42e44555047b11d64dfcd0c9e0882d656f3a9496954768ab0e1b06689181900360800190a1505060008083556001830181905560038301555060020180546001600160a01b031916905550565b6000546001600160a01b03163314610a9c57600080fd5b6001600160a01b03909116600090815260026020526040902060030155565b737d2768de32b0b80b7a3454c06bdac94a69ddc7a990565b6001546001600160a01b03163314610aea57600080fd5b6001600160a01b03821660009081526002602052604090206001810154610b119083610e83565b6001820155610b1e610abb565b6040805163e8eda9df60e01b81526001600160a01b03868116600483015260248201869052306044830152600060648301819052925193169263e8eda9df9260848084019391929182900301818387803b158015610b7b57600080fd5b505af115801561068d573d6000803e3d6000fd5b6001600160a01b0390811660009081526002602052604090205416151590565b6001600160a01b038181166000908152600260209081526040808320805482516370a0823160e01b815230600482015292519495919491811693600160a01b9091046001600160601b031692869285926370a082319260248082019391829003018186803b158015610c2057600080fd5b505afa158015610c34573d6000803e3d6000fd5b505050506040513d6020811015610c4a57600080fd5b50516001850154909150600090610c6a906001600160601b038516610e83565b9050808211610c7a576000610c7e565b8082035b979650505050505050565b6001600160a01b031660009081526002602052604090206001015490565b6001600160a01b038116600090815260026020526040812090610cc983610baf565b90508160030154811015610cdc57600080fd5b6002820154610cfe906001600160a01b031684610cf98185610ee4565b611084565b505050565b6000546001600160a01b03163314610d1a57600080fd5b6001600160a01b03918216600090815260026020526040902080546001600160601b03909216600160a01b0291909216179055565b6000546001600160a01b03163314610d6657600080fd5b600080546001600160a01b0319166001600160a01b0392909216919091179055565b6001546001600160a01b03163314610d9f57600080fd5b6001600160a01b038216600090815260026020526040812060018101549091610dd685838611610dcf5785610dd1565b835b610ee4565b9050818111610de757808203610dea565b60005b600180850191909155546040805163a9059cbb60e01b81526001600160a01b0392831660048201526024810184905290519187169163a9059cbb916044808201926020929091908290030181600087803b15801561066357600080fd5b6000813f7fc5d2460186f7233c927e7db2dcc703c0e500b653ca82273b7bfad8045d85a470818114801590610e7b57508115155b949350505050565b600082820183811015610edd576040805162461bcd60e51b815260206004820152601b60248201527f536166654d6174683a206164646974696f6e206f766572666c6f770000000000604482015290519081900360640190fd5b9392505050565b600080836001600160a01b03166370a08231306040518263ffffffff1660e01b815260040180826001600160a01b0316815260200191505060206040518083038186803b158015610f3457600080fd5b505afa158015610f48573d6000803e3d6000fd5b505050506040513d6020811015610f5e57600080fd5b50519050610f6a610abb565b6001600160a01b03166369328dec8585306040518463ffffffff1660e01b815260040180846001600160a01b03168152602001838152602001826001600160a01b031681526020019350505050602060405180830381600087803b158015610fd157600080fd5b505af1158015610fe5573d6000803e3d6000fd5b505050506040513d6020811015610ffb57600080fd5b5050604080516370a0823160e01b8152306004820152905160009183916001600160a01b038816916370a08231916024808301926020929190829003018186803b15801561104857600080fd5b505afa15801561105c573d6000803e3d6000fd5b505050506040513d602081101561107257600080fd5b505103905083811015610e7b57600080fd5b6001600160a01b03831661109757600080fd5b816001600160a01b031663a9059cbb84836040518363ffffffff1660e01b815260040180836001600160a01b0316815260200182815260200192505050602060405180830381600087803b1580156110ee57600080fd5b505af1158015611102573d6000803e3d6000fd5b505050506040513d602081101561111857600080fd5b50611124905083610e47565b1561119157826001600160a01b03166381e3f276836040518263ffffffff1660e01b815260040180826001600160a01b03168152602001915050600060405180830381600087803b15801561117857600080fd5b505af115801561118c573d6000803e3d6000fd5b505050505b604080516001600160a01b038581168252602082018490528251908516927f222348fe8b30f078a8a4da2f55f16d24d70bc40d3ec49d295d7ad1d11e666887928290030190a250505056fea26469706673582212202a0cdc5dfb3b0938a2bb05dc7852a162806e93bb9e639f0530b62680d10293e764736f6c63430007050033",
  "immutableReferences": {},
  "source": "pragma solidity 0.7.5;\n\nimport \"@openzeppelin/contracts/token/ERC20/IERC20.sol\";\nimport \"@openzeppelin/contracts/math/SafeMath.sol\";\nimport \"../../../interfaces/IAToken.sol\";\nimport \"../../../interfaces/IOwnable.sol\";\nimport \"../../../interfaces/IInterestReceiver.sol\";\nimport \"../../../interfaces/IInterestImplementation.sol\";\nimport \"../../../interfaces/ILendingPool.sol\";\nimport \"../MediatorOwnableModule.sol\";\n\n/**\n * @title AAVEInterestERC20\n * @dev This contract contains token-specific logic for investing ERC20 tokens into AAVE protocol.\n */\ncontract AAVEInterestERC20 is IInterestImplementation, MediatorOwnableModule {\n    using SafeMath for uint256;\n\n    event PaidInterest(address indexed token, address to, uint256 value);\n    event ForceDisable(address token, uint256 tokensAmount, uint256 aTokensAmount, uint256 investedAmount);\n\n    struct InterestParams {\n        IAToken aToken;\n        uint96 dust;\n        uint256 investedAmount;\n        address interestReceiver;\n        uint256 minInterestPaid;\n    }\n\n    mapping(address => InterestParams) public interestParams;\n\n    constructor(address _omnibridge, address _owner) MediatorOwnableModule(_omnibridge, _owner) {}\n\n    /**\n     * @dev Tells the module interface version that this contract supports.\n     * @return major value of the version\n     * @return minor value of the version\n     * @return patch value of the version\n     */\n    function getModuleInterfacesVersion()\n        external\n        pure\n        returns (\n            uint64 major,\n            uint64 minor,\n            uint64 patch\n        )\n    {\n        return (1, 0, 0);\n    }\n\n    /**\n     * @dev Tells the address of the LendingPool contract in the Ethereum Mainnet.\n     */\n    function lendingPool() public pure virtual returns (ILendingPool) {\n        return ILendingPool(0x7d2768dE32b0b80b7a3454c06BdAc94A69DDc7A9);\n    }\n\n    /**\n     * @dev Enables support for interest earning through a specific aToken.\n     * @param _token address of the token contract for which to enable interest.\n     * @param _dust small amount of underlying tokens that cannot be paid as an interest. Accounts for possible truncation errors.\n     * @param _interestReceiver address of the interest receiver for underlying token and associated COMP tokens.\n     * @param _minInterestPaid min amount of underlying tokens to be paid as an interest.\n     */\n    function enableInterestToken(\n        address _token,\n        uint96 _dust,\n        address _interestReceiver,\n        uint256 _minInterestPaid\n    ) external onlyOwner {\n        IAToken aToken = IAToken(lendingPool().getReserveData(_token)[7]);\n        require(aToken.UNDERLYING_ASSET_ADDRESS() == _token);\n\n        // disallow reinitialization of tokens that were already initialized and invested\n        require(interestParams[_token].investedAmount == 0);\n\n        interestParams[_token] = InterestParams(aToken, _dust, 0, _interestReceiver, _minInterestPaid);\n\n        IERC20(_token).approve(address(lendingPool()), uint256(-1));\n    }\n\n    /**\n     * @dev Tells the current amount of underlying tokens that was invested into the AAVE protocol.\n     * @param _token address of the underlying token.\n     * @return currently invested value.\n     */\n    function investedAmount(address _token) external view override returns (uint256) {\n        return interestParams[_token].investedAmount;\n    }\n\n    /**\n     * @dev Tells if interest earning is supported for the specific underlying token contract.\n     * @param _token address of the token contract.\n     * @return true, if interest earning is supported for the given token.\n     */\n    function isInterestSupported(address _token) external view override returns (bool) {\n        return address(interestParams[_token].aToken) != address(0);\n    }\n\n    /**\n     * @dev Invests the given amount of tokens to the AAVE protocol.\n     * Only Omnibridge contract is allowed to call this method.\n     * Converts _amount of TOKENs into aTOKENs.\n     * @param _token address of the invested token contract.\n     * @param _amount amount of tokens to invest.\n     */\n    function invest(address _token, uint256 _amount) external override onlyMediator {\n        InterestParams storage params = interestParams[_token];\n        params.investedAmount = params.investedAmount.add(_amount);\n        lendingPool().deposit(_token, _amount, address(this), 0);\n    }\n\n    /**\n     * @dev Withdraws at least the given amount of tokens from the AAVE protocol.\n     * Only Omnibridge contract is allowed to call this method.\n     * Converts aTOKENs into _amount of TOKENs.\n     * @param _token address of the invested token contract.\n     * @param _amount minimal amount of tokens to withdraw.\n     */\n    function withdraw(address _token, uint256 _amount) external override onlyMediator {\n        InterestParams storage params = interestParams[_token];\n        uint256 invested = params.investedAmount;\n        uint256 redeemed = _safeWithdraw(_token, _amount > invested ? invested : _amount);\n        params.investedAmount = redeemed > invested ? 0 : invested - redeemed;\n        IERC20(_token).transfer(mediator, redeemed);\n    }\n\n    /**\n     * @dev Tells the current accumulated interest on the invested tokens, that can be withdrawn and payed to the interest receiver.\n     * @param _token address of the invested token contract.\n     * @return amount of accumulated interest.\n     */\n    function interestAmount(address _token) public view returns (uint256) {\n        InterestParams storage params = interestParams[_token];\n        (IAToken aToken, uint96 dust) = (params.aToken, params.dust);\n        uint256 balance = aToken.balanceOf(address(this));\n        // small portion of tokens are reserved for possible truncation/round errors\n        uint256 reserved = params.investedAmount.add(dust);\n        return balance > reserved ? balance - reserved : 0;\n    }\n\n    /**\n     * @dev Pays collected interest for the underlying token.\n     * Anyone can call this function.\n     * Earned interest is withdrawn and transferred to the specified interest receiver account.\n     * @param _token address of the invested token contract in which interest should be paid.\n     */\n    function payInterest(address _token) external {\n        InterestParams storage params = interestParams[_token];\n        uint256 interest = interestAmount(_token);\n        require(interest >= params.minInterestPaid);\n        _transferInterest(params.interestReceiver, address(_token), _safeWithdraw(_token, interest));\n    }\n\n    /**\n     * @dev Last-resort function for returning assets to the Omnibridge contract in case of some failures in the logic.\n     * Disables this contract and transfers locked tokens back to the mediator.\n     * Only owner is allowed to call this method.\n     * @param _token address of the invested token contract that should be disabled.\n     */\n    function forceDisable(address _token) external onlyOwner {\n        InterestParams storage params = interestParams[_token];\n        IAToken aToken = params.aToken;\n\n        uint256 aTokenBalance = aToken.balanceOf(address(this));\n        // try to redeem all aTokens\n        try lendingPool().withdraw(_token, aTokenBalance, mediator) {\n            aTokenBalance = 0;\n        } catch {\n            aToken.transfer(mediator, aTokenBalance);\n        }\n\n        uint256 balance = IERC20(_token).balanceOf(address(this));\n        IERC20(_token).transfer(mediator, balance);\n\n        emit ForceDisable(_token, balance, aTokenBalance, params.investedAmount);\n\n        delete params.aToken;\n        delete params.dust;\n        delete params.investedAmount;\n        delete params.minInterestPaid;\n        delete params.interestReceiver;\n    }\n\n    /**\n     * @dev Updates dust parameter for the particular token.\n     * Only owner is allowed to call this method.\n     * @param _token address of the invested token contract.\n     * @param _dust new amount of underlying tokens that cannot be paid as an interest. Accounts for possible truncation errors.\n     */\n    function setDust(address _token, uint96 _dust) external onlyOwner {\n        interestParams[_token].dust = _dust;\n    }\n\n    /**\n     * @dev Updates address of the interest receiver. Can be any address, EOA or contract.\n     * Set to 0x00..00 to disable interest transfers.\n     * Only owner is allowed to call this method.\n     * @param _token address of the invested token contract.\n     * @param _receiver address of the interest receiver.\n     */\n    function setInterestReceiver(address _token, address _receiver) external onlyOwner {\n        interestParams[_token].interestReceiver = _receiver;\n    }\n\n    /**\n     * @dev Updates min interest amount that can be transferred in single call.\n     * Only owner is allowed to call this method.\n     * @param _token address of the invested token contract.\n     * @param _minInterestPaid new amount of TOKENS and can be transferred to the interest receiver in single operation.\n     */\n    function setMinInterestPaid(address _token, uint256 _minInterestPaid) external onlyOwner {\n        interestParams[_token].minInterestPaid = _minInterestPaid;\n    }\n\n    /**\n     * @dev Internal function for securely withdrawing assets from the underlying protocol.\n     * @param _token address of the invested token contract.\n     * @param _amount minimal amount of underlying tokens to withdraw from AAVE.\n     * @return amount of redeemed tokens, at least as much as was requested.\n     */\n    function _safeWithdraw(address _token, uint256 _amount) private returns (uint256) {\n        uint256 balance = IERC20(_token).balanceOf(address(this));\n\n        lendingPool().withdraw(_token, _amount, address(this));\n\n        uint256 redeemed = IERC20(_token).balanceOf(address(this)) - balance;\n\n        require(redeemed >= _amount);\n\n        return redeemed;\n    }\n\n    /**\n     * @dev Internal function transferring interest tokens to the interest receiver.\n     * Calls a callback on the receiver, interest receiver is a contract.\n     * @param _receiver address of the tokens receiver.\n     * @param _token address of the token contract to send.\n     * @param _amount amount of tokens to transfer.\n     */\n    function _transferInterest(\n        address _receiver,\n        address _token,\n        uint256 _amount\n    ) internal {\n        require(_receiver != address(0));\n\n        IERC20(_token).transfer(_receiver, _amount);\n\n        if (Address.isContract(_receiver)) {\n            IInterestReceiver(_receiver).onInterestReceived(_token);\n        }\n\n        emit PaidInterest(_token, _receiver, _amount);\n    }\n}\n",
  "sourcePath": "/Users/eabz/Documents/GitHub/tokenbridge/packages/omnibridge/contracts/upgradeable_contracts/modules/interest/AAVEInterestERC20.sol",
  "compiler": {
    "name": "solc",
    "version": "0.7.5+commit.eb77ed08.Emscripten.clang"
  },
  "schemaVersion": "3.4.3",
  "updatedAt": "2021-09-04T01:08:31.353Z",
  "devdoc": {
    "details": "This contract contains token-specific logic for investing ERC20 tokens into AAVE protocol.",
    "kind": "dev",
    "methods": {
      "enableInterestToken(address,uint96,address,uint256)": {
        "details": "Enables support for interest earning through a specific aToken.",
        "params": {
          "_dust": "small amount of underlying tokens that cannot be paid as an interest. Accounts for possible truncation errors.",
          "_interestReceiver": "address of the interest receiver for underlying token and associated COMP tokens.",
          "_minInterestPaid": "min amount of underlying tokens to be paid as an interest.",
          "_token": "address of the token contract for which to enable interest."
        }
      },
      "forceDisable(address)": {
        "details": "Last-resort function for returning assets to the Omnibridge contract in case of some failures in the logic. Disables this contract and transfers locked tokens back to the mediator. Only owner is allowed to call this method.",
        "params": {
          "_token": "address of the invested token contract that should be disabled."
        }
      },
      "getModuleInterfacesVersion()": {
        "details": "Tells the module interface version that this contract supports.",
        "returns": {
          "major": "value of the version",
          "minor": "value of the version",
          "patch": "value of the version"
        }
      },
      "interestAmount(address)": {
        "details": "Tells the current accumulated interest on the invested tokens, that can be withdrawn and payed to the interest receiver.",
        "params": {
          "_token": "address of the invested token contract."
        },
        "returns": {
          "_0": "amount of accumulated interest."
        }
      },
      "invest(address,uint256)": {
        "details": "Invests the given amount of tokens to the AAVE protocol. Only Omnibridge contract is allowed to call this method. Converts _amount of TOKENs into aTOKENs.",
        "params": {
          "_amount": "amount of tokens to invest.",
          "_token": "address of the invested token contract."
        }
      },
      "investedAmount(address)": {
        "details": "Tells the current amount of underlying tokens that was invested into the AAVE protocol.",
        "params": {
          "_token": "address of the underlying token."
        },
        "returns": {
          "_0": "currently invested value."
        }
      },
      "isInterestSupported(address)": {
        "details": "Tells if interest earning is supported for the specific underlying token contract.",
        "params": {
          "_token": "address of the token contract."
        },
        "returns": {
          "_0": "true, if interest earning is supported for the given token."
        }
      },
      "lendingPool()": {
        "details": "Tells the address of the LendingPool contract in the Ethereum Mainnet."
      },
      "payInterest(address)": {
        "details": "Pays collected interest for the underlying token. Anyone can call this function. Earned interest is withdrawn and transferred to the specified interest receiver account.",
        "params": {
          "_token": "address of the invested token contract in which interest should be paid."
        }
      },
      "setDust(address,uint96)": {
        "details": "Updates dust parameter for the particular token. Only owner is allowed to call this method.",
        "params": {
          "_dust": "new amount of underlying tokens that cannot be paid as an interest. Accounts for possible truncation errors.",
          "_token": "address of the invested token contract."
        }
      },
      "setInterestReceiver(address,address)": {
        "details": "Updates address of the interest receiver. Can be any address, EOA or contract. Set to 0x00..00 to disable interest transfers. Only owner is allowed to call this method.",
        "params": {
          "_receiver": "address of the interest receiver.",
          "_token": "address of the invested token contract."
        }
      },
      "setMinInterestPaid(address,uint256)": {
        "details": "Updates min interest amount that can be transferred in single call. Only owner is allowed to call this method.",
        "params": {
          "_minInterestPaid": "new amount of TOKENS and can be transferred to the interest receiver in single operation.",
          "_token": "address of the invested token contract."
        }
      },
      "transferOwnership(address)": {
        "details": "Changes the owner of this contract.",
        "params": {
          "_newOwner": "address of the new owner."
        }
      },
      "withdraw(address,uint256)": {
        "details": "Withdraws at least the given amount of tokens from the AAVE protocol. Only Omnibridge contract is allowed to call this method. Converts aTOKENs into _amount of TOKENs.",
        "params": {
          "_amount": "minimal amount of tokens to withdraw.",
          "_token": "address of the invested token contract."
        }
      }
    },
    "title": "AAVEInterestERC20",
    "version": 1
  },
  "userdoc": {
    "kind": "user",
    "methods": {},
    "version": 1
  }
}