{
  "contractName": "AMBMock",
  "abi": [
    {
      "inputs": [],
      "stateMutability": "nonpayable",
      "type": "constructor"
    },
    {
      "anonymous": false,
      "inputs": [
        {
          "indexed": true,
          "internalType": "bytes32",
          "name": "messageId",
          "type": "bytes32"
        },
        {
          "indexed": false,
          "internalType": "address",
          "name": "executor",
          "type": "address"
        },
        {
          "indexed": false,
          "internalType": "uint8",
          "name": "dataType",
          "type": "uint8"
        },
        {
          "indexed": false,
          "internalType": "bytes",
          "name": "data",
          "type": "bytes"
        },
        {
          "indexed": false,
          "internalType": "uint256",
          "name": "gas",
          "type": "uint256"
        }
      ],
      "name": "MockedEvent",
      "type": "event"
    },
    {
      "inputs": [
        {
          "internalType": "bytes32",
          "name": "",
          "type": "bytes32"
        }
      ],
      "name": "failedMessageDataHash",
      "outputs": [
        {
          "internalType": "bytes32",
          "name": "",
          "type": "bytes32"
        }
      ],
      "stateMutability": "view",
      "type": "function"
    },
    {
      "inputs": [
        {
          "internalType": "bytes32",
          "name": "",
          "type": "bytes32"
        }
      ],
      "name": "failedMessageReceiver",
      "outputs": [
        {
          "internalType": "address",
          "name": "",
          "type": "address"
        }
      ],
      "stateMutability": "view",
      "type": "function"
    },
    {
      "inputs": [
        {
          "internalType": "bytes32",
          "name": "",
          "type": "bytes32"
        }
      ],
      "name": "failedMessageSender",
      "outputs": [
        {
          "internalType": "address",
          "name": "",
          "type": "address"
        }
      ],
      "stateMutability": "view",
      "type": "function"
    },
    {
      "inputs": [],
      "name": "maxGasPerTx",
      "outputs": [
        {
          "internalType": "uint256",
          "name": "",
          "type": "uint256"
        }
      ],
      "stateMutability": "view",
      "type": "function"
    },
    {
      "inputs": [
        {
          "internalType": "bytes32",
          "name": "",
          "type": "bytes32"
        }
      ],
      "name": "messageCallStatus",
      "outputs": [
        {
          "internalType": "bool",
          "name": "",
          "type": "bool"
        }
      ],
      "stateMutability": "view",
      "type": "function"
    },
    {
      "inputs": [],
      "name": "messageId",
      "outputs": [
        {
          "internalType": "bytes32",
          "name": "",
          "type": "bytes32"
        }
      ],
      "stateMutability": "view",
      "type": "function"
    },
    {
      "inputs": [],
      "name": "messageSender",
      "outputs": [
        {
          "internalType": "address",
          "name": "",
          "type": "address"
        }
      ],
      "stateMutability": "view",
      "type": "function"
    },
    {
      "inputs": [],
      "name": "messageSourceChainId",
      "outputs": [
        {
          "internalType": "uint256",
          "name": "",
          "type": "uint256"
        }
      ],
      "stateMutability": "view",
      "type": "function"
    },
    {
      "inputs": [],
      "name": "nonce",
      "outputs": [
        {
          "internalType": "uint256",
          "name": "",
          "type": "uint256"
        }
      ],
      "stateMutability": "view",
      "type": "function"
    },
    {
      "inputs": [],
      "name": "transactionHash",
      "outputs": [
        {
          "internalType": "bytes32",
          "name": "",
          "type": "bytes32"
        }
      ],
      "stateMutability": "view",
      "type": "function"
    },
    {
      "inputs": [
        {
          "internalType": "address",
          "name": "_contract",
          "type": "address"
        },
        {
          "internalType": "address",
          "name": "_sender",
          "type": "address"
        },
        {
          "internalType": "bytes",
          "name": "_data",
          "type": "bytes"
        },
        {
          "internalType": "bytes32",
          "name": "_messageId",
          "type": "bytes32"
        },
        {
          "internalType": "uint256",
          "name": "_gas",
          "type": "uint256"
        }
      ],
      "name": "executeMessageCall",
      "outputs": [],
      "stateMutability": "nonpayable",
      "type": "function"
    },
    {
      "inputs": [
        {
          "internalType": "address",
          "name": "_contract",
          "type": "address"
        },
        {
          "internalType": "bytes",
          "name": "_data",
          "type": "bytes"
        },
        {
          "internalType": "uint256",
          "name": "_gas",
          "type": "uint256"
        }
      ],
      "name": "requireToPassMessage",
      "outputs": [
        {
          "internalType": "bytes32",
          "name": "",
          "type": "bytes32"
        }
      ],
      "stateMutability": "nonpayable",
      "type": "function"
    },
    {
      "inputs": [
        {
          "internalType": "address",
          "name": "_contract",
          "type": "address"
        },
        {
          "internalType": "bytes",
          "name": "_data",
          "type": "bytes"
        },
        {
          "internalType": "uint256",
          "name": "_gas",
          "type": "uint256"
        }
      ],
      "name": "requireToConfirmMessage",
      "outputs": [
        {
          "internalType": "bytes32",
          "name": "",
          "type": "bytes32"
        }
      ],
      "stateMutability": "nonpayable",
      "type": "function"
    },
    {
      "inputs": [],
      "name": "sourceChainId",
      "outputs": [
        {
          "internalType": "uint256",
          "name": "",
          "type": "uint256"
        }
      ],
      "stateMutability": "pure",
      "type": "function"
    }
  ],
  "bytecode": "0x60a060405234801561001057600080fd5b50620f42406080526080516106fc610032600039806105a252506106fc6000f3fe608060405234801561001057600080fd5b50600436106100ea5760003560e01c80639e307dff1161008c578063d67bdd2511610066578063d67bdd25146102c1578063dc8601b3146102c9578063e37c328914610349578063e5789d0314610366576100ea565b80639e307dff14610280578063affed0e014610288578063cb08a10c14610290576100ea565b80634a610b04116100c85780634a610b041461014a578063669f618b14610167578063942759631461016f57806394643f7114610200576100ea565b80630ac1c313146100ef5780631544298e146101095780633f9a8e7e14610111575b600080fd5b6100f761036e565b60408051918252519081900360200190f35b6100f7610374565b61012e6004803603602081101561012757600080fd5b503561037a565b604080516001600160a01b039092168252519081900360200190f35b61012e6004803603602081101561016057600080fd5b5035610395565b6100f76103b0565b6101fe600480360360a081101561018557600080fd5b6001600160a01b0382358116926020810135909116918101906060810160408201356401000000008111156101b957600080fd5b8201836020820111156101cb57600080fd5b803590602001918460018302840111640100000000831117156101ed57600080fd5b9193509150803590602001356103b6565b005b6100f76004803603606081101561021657600080fd5b6001600160a01b03823516919081019060408101602082013564010000000081111561024157600080fd5b82018360208201111561025357600080fd5b8035906020019184600183028401116401000000008311171561027557600080fd5b919350915035610535565b6100f761054e565b6100f7610554565b6102ad600480360360208110156102a657600080fd5b503561055a565b604080519115158252519081900360200190f35b61012e61056f565b6100f7600480360360608110156102df57600080fd5b6001600160a01b03823516919081019060408101602082013564010000000081111561030a57600080fd5b82018360208201111561031c57600080fd5b8035906020019184600183028401116401000000008311171561033e57600080fd5b91935091503561057e565b6100f76004803603602081101561035f57600080fd5b503561058e565b6100f76105a0565b60015481565b61053990565b6007602052600090815260409020546001600160a01b031681565b6006602052600090815260409020546001600160a01b031681565b60025481565b600080546001600160a01b0319166001600160a01b0387811691909117825560028490556001849055610539600455604051908816908390879087908083838082843760405192019450600093509091505080830381838787f1925050503d8060008114610440576040519150601f19603f3d011682016040523d82523d6000602084013e610445565b606091505b5050600080546001600160a01b0319168155600281905560018190556004819055848152600560205260409020805460ff191682151517905590508061052c57848460405180838380828437808301925050509250505060405180910390206008600085815260200190815260200160002081905550866007600085815260200190815260200160002060006101000a8154816001600160a01b0302191690836001600160a01b03160217905550856006600085815260200190815260200160002060006101000a8154816001600160a01b0302191690836001600160a01b031602179055505b50505050505050565b60006105458585858560806105c4565b95945050505050565b60045481565b60035481565b60056020526000908152604090205460ff1681565b6000546001600160a01b031681565b60006105458585858560006105c4565b60086020526000908152604090205481565b7f000000000000000000000000000000000000000000000000000000000000000081565b600254600090156105d457600080fd5b6040805161053960f01b6020808301919091523060601b6022830152825160168184030181526036830193849052805191012060038054600181019091556001600160a01b038a16845260ff861660568401526096830187905260806076840190815260b6840189905268010000000000000000600160e01b03909216939084176304488cd160e21b179283927f44298774af5271b33f7faafb310384d4f75f0fb6548b937d305c956fb075a282928c9289928d928d928d929060d601858580828437600083820152604051601f909101601f19169092018290039850909650505050505050a297965050505050505056fea26469706673582212209cf925227ea5ced25e855aa1aee44140b855f23900522ef0cc2c67eead60d85264736f6c63430007050033",
  "immutableReferences": {
    "1691": [
      {
        "length": 32,
        "start": 1442
      }
    ]
  },
  "source": "pragma solidity 0.7.5;\n\ncontract AMBMock {\n    event MockedEvent(bytes32 indexed messageId, address executor, uint8 dataType, bytes data, uint256 gas);\n\n    address public messageSender;\n    uint256 public immutable maxGasPerTx;\n    bytes32 public transactionHash;\n    bytes32 public messageId;\n    uint256 public nonce;\n    uint256 public messageSourceChainId;\n    mapping(bytes32 => bool) public messageCallStatus;\n    mapping(bytes32 => address) public failedMessageSender;\n    mapping(bytes32 => address) public failedMessageReceiver;\n    mapping(bytes32 => bytes32) public failedMessageDataHash;\n\n    constructor() {\n        maxGasPerTx = 1000000;\n    }\n\n    function executeMessageCall(\n        address _contract,\n        address _sender,\n        bytes calldata _data,\n        bytes32 _messageId,\n        uint256 _gas\n    ) external {\n        messageSender = _sender;\n        messageId = _messageId;\n        transactionHash = _messageId;\n        messageSourceChainId = 1337;\n        (bool status, ) = _contract.call{ gas: _gas }(_data);\n        messageSender = address(0);\n        messageId = bytes32(0);\n        transactionHash = bytes32(0);\n        messageSourceChainId = 0;\n\n        messageCallStatus[_messageId] = status;\n        if (!status) {\n            failedMessageDataHash[_messageId] = keccak256(_data);\n            failedMessageReceiver[_messageId] = _contract;\n            failedMessageSender[_messageId] = _sender;\n        }\n    }\n\n    function requireToPassMessage(\n        address _contract,\n        bytes calldata _data,\n        uint256 _gas\n    ) external returns (bytes32) {\n        return _sendMessage(_contract, _data, _gas, 0x00);\n    }\n\n    function requireToConfirmMessage(\n        address _contract,\n        bytes calldata _data,\n        uint256 _gas\n    ) external returns (bytes32) {\n        return _sendMessage(_contract, _data, _gas, 0x80);\n    }\n\n    function _sendMessage(\n        address _contract,\n        bytes calldata _data,\n        uint256 _gas,\n        uint256 _dataType\n    ) internal returns (bytes32) {\n        require(messageId == bytes32(0));\n        bytes32 bridgeId =\n            keccak256(abi.encodePacked(uint16(1337), address(this))) &\n                0x00000000ffffffffffffffffffffffffffffffffffffffff0000000000000000;\n\n        bytes32 _messageId = bytes32(uint256(0x11223344 << 224)) | bridgeId | bytes32(nonce);\n        nonce += 1;\n\n        emit MockedEvent(_messageId, _contract, uint8(_dataType), _data, _gas);\n        return _messageId;\n    }\n\n    function sourceChainId() external pure returns (uint256) {\n        return 1337;\n    }\n}\n",
  "sourcePath": "/Users/eabz/Documents/GitHub/tokenbridge/packages/omnibridge/contracts/mocks/AMBMock.sol",
  "compiler": {
    "name": "solc",
    "version": "0.7.5+commit.eb77ed08.Emscripten.clang"
  },
  "schemaVersion": "3.4.3",
  "updatedAt": "2021-09-04T01:08:31.159Z",
  "devdoc": {
    "kind": "dev",
    "methods": {},
    "version": 1
  },
  "userdoc": {
    "kind": "user",
    "methods": {},
    "version": 1
  }
}