{
  "contractName": "BridgedTokensRegistry",
  "abi": [
    {
      "anonymous": false,
      "inputs": [
        {
          "indexed": true,
          "internalType": "address",
          "name": "nativeToken",
          "type": "address"
        },
        {
          "indexed": true,
          "internalType": "address",
          "name": "bridgedToken",
          "type": "address"
        }
      ],
      "name": "NewTokenRegistered",
      "type": "event"
    },
    {
      "inputs": [
        {
          "internalType": "address",
          "name": "_nativeToken",
          "type": "address"
        }
      ],
      "name": "bridgedTokenAddress",
      "outputs": [
        {
          "internalType": "address",
          "name": "",
          "type": "address"
        }
      ],
      "stateMutability": "view",
      "type": "function"
    },
    {
      "inputs": [
        {
          "internalType": "address",
          "name": "_bridgedToken",
          "type": "address"
        }
      ],
      "name": "nativeTokenAddress",
      "outputs": [
        {
          "internalType": "address",
          "name": "",
          "type": "address"
        }
      ],
      "stateMutability": "view",
      "type": "function"
    }
  ],
  "bytecode": "0x608060405234801561001057600080fd5b506101b2806100206000396000f3fe608060405234801561001057600080fd5b50600436106100365760003560e01c80632d70061f1461003b57806361c04f841461007d575b600080fd5b6100616004803603602081101561005157600080fd5b50356001600160a01b03166100a3565b604080516001600160a01b039092168252519081900360200190f35b6100616004803603602081101561009357600080fd5b50356001600160a01b031661010e565b604080516f686f6d65546f6b656e4164647265737360801b60208083019190915260609390931b6bffffffffffffffffffffffff191660308201528151808203602401815260449091018252805190830120600090815260029092529020546001600160a01b031690565b6040805172666f726569676e546f6b656e4164647265737360681b60208083019190915260609390931b6bffffffffffffffffffffffff191660338201528151808203602701815260479091018252805190830120600090815260029092529020546001600160a01b03169056fea26469706673582212202583407a992a345e448f3ca068c60d0b1a6d3f3b89c2ab247bccbb62706b671864736f6c63430007050033",
  "immutableReferences": {},
  "source": "pragma solidity 0.7.5;\n\nimport \"../../../upgradeability/EternalStorage.sol\";\n\n/**\n * @title BridgedTokensRegistry\n * @dev Functionality for keeping track of registered bridged token pairs.\n */\ncontract BridgedTokensRegistry is EternalStorage {\n    event NewTokenRegistered(address indexed nativeToken, address indexed bridgedToken);\n\n    /**\n     * @dev Retrieves address of the bridged token contract associated with a specific native token contract on the other side.\n     * @param _nativeToken address of the native token contract on the other side.\n     * @return address of the deployed bridged token contract.\n     */\n    function bridgedTokenAddress(address _nativeToken) public view returns (address) {\n        return addressStorage[keccak256(abi.encodePacked(\"homeTokenAddress\", _nativeToken))];\n    }\n\n    /**\n     * @dev Retrieves address of the native token contract associated with a specific bridged token contract.\n     * @param _bridgedToken address of the created bridged token contract on this side.\n     * @return address of the native token contract on the other side of the bridge.\n     */\n    function nativeTokenAddress(address _bridgedToken) public view returns (address) {\n        return addressStorage[keccak256(abi.encodePacked(\"foreignTokenAddress\", _bridgedToken))];\n    }\n\n    /**\n     * @dev Internal function for updating a pair of addresses for the bridged token.\n     * @param _nativeToken address of the native token contract on the other side.\n     * @param _bridgedToken address of the created bridged token contract on this side.\n     */\n    function _setTokenAddressPair(address _nativeToken, address _bridgedToken) internal {\n        addressStorage[keccak256(abi.encodePacked(\"homeTokenAddress\", _nativeToken))] = _bridgedToken;\n        addressStorage[keccak256(abi.encodePacked(\"foreignTokenAddress\", _bridgedToken))] = _nativeToken;\n\n        emit NewTokenRegistered(_nativeToken, _bridgedToken);\n    }\n}\n",
  "sourcePath": "/Users/eabz/Documents/GitHub/tokenbridge/packages/omnibridge/contracts/upgradeable_contracts/components/bridged/BridgedTokensRegistry.sol",
  "compiler": {
    "name": "solc",
    "version": "0.7.5+commit.eb77ed08.Emscripten.clang"
  },
  "schemaVersion": "3.4.3",
  "updatedAt": "2021-09-04T01:08:31.295Z",
  "devdoc": {
    "details": "Functionality for keeping track of registered bridged token pairs.",
    "kind": "dev",
    "methods": {
      "bridgedTokenAddress(address)": {
        "details": "Retrieves address of the bridged token contract associated with a specific native token contract on the other side.",
        "params": {
          "_nativeToken": "address of the native token contract on the other side."
        },
        "returns": {
          "_0": "address of the deployed bridged token contract."
        }
      },
      "nativeTokenAddress(address)": {
        "details": "Retrieves address of the native token contract associated with a specific bridged token contract.",
        "params": {
          "_bridgedToken": "address of the created bridged token contract on this side."
        },
        "returns": {
          "_0": "address of the native token contract on the other side of the bridge."
        }
      }
    },
    "title": "BridgedTokensRegistry",
    "version": 1
  },
  "userdoc": {
    "kind": "user",
    "methods": {},
    "version": 1
  }
}