{
  "contractName": "CompoundInterestERC20Mock",
  "abi": [
    {
      "inputs": [
        {
          "internalType": "address",
          "name": "_omnibridge",
          "type": "address"
        },
        {
          "internalType": "address",
          "name": "_owner",
          "type": "address"
        },
        {
          "internalType": "uint256",
          "name": "_minCompPaid",
          "type": "uint256"
        },
        {
          "internalType": "address",
          "name": "_compReceiver",
          "type": "address"
        }
      ],
      "stateMutability": "nonpayable",
      "type": "constructor"
    },
    {
      "anonymous": false,
      "inputs": [
        {
          "indexed": false,
          "internalType": "address",
          "name": "token",
          "type": "address"
        },
        {
          "indexed": false,
          "internalType": "uint256",
          "name": "tokensAmount",
          "type": "uint256"
        },
        {
          "indexed": false,
          "internalType": "uint256",
          "name": "cTokensAmount",
          "type": "uint256"
        },
        {
          "indexed": false,
          "internalType": "uint256",
          "name": "investedAmount",
          "type": "uint256"
        }
      ],
      "name": "ForceDisable",
      "type": "event"
    },
    {
      "anonymous": false,
      "inputs": [
        {
          "indexed": true,
          "internalType": "address",
          "name": "token",
          "type": "address"
        },
        {
          "indexed": false,
          "internalType": "address",
          "name": "to",
          "type": "address"
        },
        {
          "indexed": false,
          "internalType": "uint256",
          "name": "value",
          "type": "uint256"
        }
      ],
      "name": "PaidInterest",
      "type": "event"
    },
    {
      "inputs": [
        {
          "internalType": "address[]",
          "name": "_markets",
          "type": "address[]"
        }
      ],
      "name": "claimCompAndPay",
      "outputs": [],
      "stateMutability": "nonpayable",
      "type": "function"
    },
    {
      "inputs": [
        {
          "internalType": "address[]",
          "name": "_markets",
          "type": "address[]"
        }
      ],
      "name": "compAmount",
      "outputs": [
        {
          "internalType": "uint256",
          "name": "",
          "type": "uint256"
        }
      ],
      "stateMutability": "nonpayable",
      "type": "function"
    },
    {
      "inputs": [],
      "name": "compReceiver",
      "outputs": [
        {
          "internalType": "address",
          "name": "",
          "type": "address"
        }
      ],
      "stateMutability": "view",
      "type": "function"
    },
    {
      "inputs": [
        {
          "internalType": "contract ICToken",
          "name": "_cToken",
          "type": "address"
        },
        {
          "internalType": "uint96",
          "name": "_dust",
          "type": "uint96"
        },
        {
          "internalType": "address",
          "name": "_interestReceiver",
          "type": "address"
        },
        {
          "internalType": "uint256",
          "name": "_minInterestPaid",
          "type": "uint256"
        }
      ],
      "name": "enableInterestToken",
      "outputs": [],
      "stateMutability": "nonpayable",
      "type": "function"
    },
    {
      "inputs": [
        {
          "internalType": "address",
          "name": "_token",
          "type": "address"
        }
      ],
      "name": "forceDisable",
      "outputs": [],
      "stateMutability": "nonpayable",
      "type": "function"
    },
    {
      "inputs": [],
      "name": "getModuleInterfacesVersion",
      "outputs": [
        {
          "internalType": "uint64",
          "name": "major",
          "type": "uint64"
        },
        {
          "internalType": "uint64",
          "name": "minor",
          "type": "uint64"
        },
        {
          "internalType": "uint64",
          "name": "patch",
          "type": "uint64"
        }
      ],
      "stateMutability": "pure",
      "type": "function"
    },
    {
      "inputs": [
        {
          "internalType": "address",
          "name": "_token",
          "type": "address"
        }
      ],
      "name": "interestAmount",
      "outputs": [
        {
          "internalType": "uint256",
          "name": "",
          "type": "uint256"
        }
      ],
      "stateMutability": "nonpayable",
      "type": "function"
    },
    {
      "inputs": [
        {
          "internalType": "address",
          "name": "",
          "type": "address"
        }
      ],
      "name": "interestParams",
      "outputs": [
        {
          "internalType": "contract ICToken",
          "name": "cToken",
          "type": "address"
        },
        {
          "internalType": "uint96",
          "name": "dust",
          "type": "uint96"
        },
        {
          "internalType": "uint256",
          "name": "investedAmount",
          "type": "uint256"
        },
        {
          "internalType": "address",
          "name": "interestReceiver",
          "type": "address"
        },
        {
          "internalType": "uint256",
          "name": "minInterestPaid",
          "type": "uint256"
        }
      ],
      "stateMutability": "view",
      "type": "function"
    },
    {
      "inputs": [
        {
          "internalType": "address",
          "name": "_token",
          "type": "address"
        },
        {
          "internalType": "uint256",
          "name": "_amount",
          "type": "uint256"
        }
      ],
      "name": "invest",
      "outputs": [],
      "stateMutability": "nonpayable",
      "type": "function"
    },
    {
      "inputs": [
        {
          "internalType": "address",
          "name": "_token",
          "type": "address"
        }
      ],
      "name": "investedAmount",
      "outputs": [
        {
          "internalType": "uint256",
          "name": "",
          "type": "uint256"
        }
      ],
      "stateMutability": "view",
      "type": "function"
    },
    {
      "inputs": [
        {
          "internalType": "address",
          "name": "_token",
          "type": "address"
        }
      ],
      "name": "isInterestSupported",
      "outputs": [
        {
          "internalType": "bool",
          "name": "",
          "type": "bool"
        }
      ],
      "stateMutability": "view",
      "type": "function"
    },
    {
      "inputs": [],
      "name": "mediator",
      "outputs": [
        {
          "internalType": "address",
          "name": "",
          "type": "address"
        }
      ],
      "stateMutability": "view",
      "type": "function"
    },
    {
      "inputs": [],
      "name": "minCompPaid",
      "outputs": [
        {
          "internalType": "uint256",
          "name": "",
          "type": "uint256"
        }
      ],
      "stateMutability": "view",
      "type": "function"
    },
    {
      "inputs": [],
      "name": "owner",
      "outputs": [
        {
          "internalType": "address",
          "name": "",
          "type": "address"
        }
      ],
      "stateMutability": "view",
      "type": "function"
    },
    {
      "inputs": [
        {
          "internalType": "address",
          "name": "_token",
          "type": "address"
        }
      ],
      "name": "payInterest",
      "outputs": [],
      "stateMutability": "nonpayable",
      "type": "function"
    },
    {
      "inputs": [
        {
          "internalType": "address",
          "name": "_receiver",
          "type": "address"
        }
      ],
      "name": "setCompReceiver",
      "outputs": [],
      "stateMutability": "nonpayable",
      "type": "function"
    },
    {
      "inputs": [
        {
          "internalType": "address",
          "name": "_token",
          "type": "address"
        },
        {
          "internalType": "uint96",
          "name": "_dust",
          "type": "uint96"
        }
      ],
      "name": "setDust",
      "outputs": [],
      "stateMutability": "nonpayable",
      "type": "function"
    },
    {
      "inputs": [
        {
          "internalType": "address",
          "name": "_token",
          "type": "address"
        },
        {
          "internalType": "address",
          "name": "_receiver",
          "type": "address"
        }
      ],
      "name": "setInterestReceiver",
      "outputs": [],
      "stateMutability": "nonpayable",
      "type": "function"
    },
    {
      "inputs": [
        {
          "internalType": "uint256",
          "name": "_minCompPaid",
          "type": "uint256"
        }
      ],
      "name": "setMinCompPaid",
      "outputs": [],
      "stateMutability": "nonpayable",
      "type": "function"
    },
    {
      "inputs": [
        {
          "internalType": "address",
          "name": "_token",
          "type": "address"
        },
        {
          "internalType": "uint256",
          "name": "_minInterestPaid",
          "type": "uint256"
        }
      ],
      "name": "setMinInterestPaid",
      "outputs": [],
      "stateMutability": "nonpayable",
      "type": "function"
    },
    {
      "inputs": [
        {
          "internalType": "address",
          "name": "_newOwner",
          "type": "address"
        }
      ],
      "name": "transferOwnership",
      "outputs": [],
      "stateMutability": "nonpayable",
      "type": "function"
    },
    {
      "inputs": [
        {
          "internalType": "address",
          "name": "_token",
          "type": "address"
        },
        {
          "internalType": "uint256",
          "name": "_amount",
          "type": "uint256"
        }
      ],
      "name": "withdraw",
      "outputs": [],
      "stateMutability": "nonpayable",
      "type": "function"
    },
    {
      "inputs": [],
      "name": "comptroller",
      "outputs": [
        {
          "internalType": "contract IComptroller",
          "name": "",
          "type": "address"
        }
      ],
      "stateMutability": "pure",
      "type": "function"
    },
    {
      "inputs": [],
      "name": "compToken",
      "outputs": [
        {
          "internalType": "contract IERC20",
          "name": "",
          "type": "address"
        }
      ],
      "stateMutability": "pure",
      "type": "function"
    }
  ],
  "bytecode": "0x608060405234801561001057600080fd5b5060405161166d38038061166d8339818101604052608081101561003357600080fd5b5080516020808301516040840151606090940151600080546001600160a01b0319166001600160a01b0384161790559293909290918490849084908490849084906100879083906100ce811b61118d17901c565b61009057600080fd5b50600180546001600160a01b03199081166001600160a01b03938416179091556003939093556004805490931691161790555061010a945050505050565b6000813f7fc5d2460186f7233c927e7db2dcc703c0e500b653ca82273b7bfad8045d85a47081811480159061010257508115155b949350505050565b611554806101196000396000f3fe608060405234801561001057600080fd5b50600436106101585760003560e01c806395d1dab4116100c3578063c91f08cb1161007c578063c91f08cb146104c4578063cff77444146104cc578063d007c644146104f2578063e6c7c4b514610518578063f2fde38b1461054d578063f3fef3a31461057357610158565b806395d1dab4146103de578063a36b85fd14610404578063a5a9abf114610430578063b9b8c24614610438578063bdd378a014610464578063c779c1c31461049e57610158565b80636605dfa7116101155780636605dfa71461033e5780636d0501f61461034657806381e1351f1461034e5780638da5cb5b146103825780638f87d6331461038a578063904377ec146103b057610158565b806316b813d01461015d578063390848c2146101a2578063470484eb1461020b5780634cad132d1461027b5780635c72a23f146102985780635fe3b5671461031a575b600080fd5b6101a06004803603608081101561017357600080fd5b506001600160a01b0381358116916001600160601b0360208201351691604082013516906060013561059f565b005b6101c8600480360360208110156101b857600080fd5b50356001600160a01b031661075e565b604080516001600160a01b0396871681526001600160601b0390951660208601528481019390935293166060830152608082019290925290519081900360a00190f35b6101a06004803603602081101561022157600080fd5b81019060208101813564010000000081111561023c57600080fd5b82018360208201111561024e57600080fd5b8035906020019184602083028401116401000000008311171561027057600080fd5b5090925090506107a3565b6101a06004803603602081101561029157600080fd5b50356107e3565b610308600480360360208110156102ae57600080fd5b8101906020810181356401000000008111156102c957600080fd5b8201836020820111156102db57600080fd5b803590602001918460208302840111640100000000831117156102fd57600080fd5b5090925090506107ff565b60408051918252519081900360200190f35b6103226109cb565b604080516001600160a01b039092168252519081900360200190f35b6103226109e3565b6103226109fb565b610356610a0a565b6040805167ffffffffffffffff9485168152928416602084015292168183015290519081900360600190f35b610322610a13565b6101a0600480360360208110156103a057600080fd5b50356001600160a01b0316610a22565b6101a0600480360360408110156103c657600080fd5b506001600160a01b0381358116916020013516610a5b565b6101a0600480360360208110156103f457600080fd5b50356001600160a01b0316610aa4565b6101a06004803603604081101561041a57600080fd5b506001600160a01b038135169060200135610dc9565b610308610dff565b6101a06004803603604081101561044e57600080fd5b506001600160a01b038135169060200135610e05565b61048a6004803603602081101561047a57600080fd5b50356001600160a01b0316610eca565b604080519115158252519081900360200190f35b610308600480360360208110156104b457600080fd5b50356001600160a01b0316610eea565b610322610fc5565b610308600480360360208110156104e257600080fd5b50356001600160a01b0316610fd4565b6101a06004803603602081101561050857600080fd5b50356001600160a01b0316610ff2565b6101a06004803603604081101561052e57600080fd5b5080356001600160a01b031690602001356001600160601b0316611049565b6101a06004803603602081101561056357600080fd5b50356001600160a01b0316611095565b6101a06004803603604081101561058957600080fd5b506001600160a01b0381351690602001356110ce565b6000546001600160a01b031633146105b657600080fd5b6000846001600160a01b0316636f307dc36040518163ffffffff1660e01b8152600401602060405180830381600087803b1580156105f357600080fd5b505af1158015610607573d6000803e3d6000fd5b505050506040513d602081101561061d57600080fd5b50516001600160a01b0381166000908152600260205260409020600101549091501561064857600080fd5b6040805160a0810182526001600160a01b038088168083526001600160601b03808916602080860191825260008688018181528b871660608901908152608089018c81528b891680855260028087528c86209b518c549851909916600160a01b02988b166001600160a01b0319988916178b16989098178b55925160018b0155905195890180549690981695909416949094179095559051600390950194909455845163095ea7b360e01b815260048101929092526000196024830152935163095ea7b39360448084019491938390030190829087803b15801561072b57600080fd5b505af115801561073f573d6000803e3d6000fd5b505050506040513d602081101561075557600080fd5b50505050505050565b600260208190526000918252604090912080546001820154928201546003909201546001600160a01b0380831694600160a01b9093046001600160601b031693169085565b60006107af83836107ff565b90506003548110156107c057600080fd5b6004546107de906001600160a01b03166107d86109e3565b836111c9565b505050565b6000546001600160a01b031633146107fa57600080fd5b600355565b6040805160018082528183019092526000916060919060208083019080368337019050509050308160008151811061083357fe5b60200260200101906001600160a01b031690816001600160a01b03168152505061085b6109cb565b6001600160a01b0316636810dfa6828686600060016040518663ffffffff1660e01b815260040180806020018060200185151581526020018415158152602001838103835288818151815260200191508051906020019060200280838360005b838110156108d35781810151838201526020016108bb565b505050509050018381038252878782818152602001925060200280828437600081840152601f19601f820116905080830192505050975050505050505050600060405180830381600087803b15801561092b57600080fd5b505af115801561093f573d6000803e3d6000fd5b5050505061094b6109e3565b6001600160a01b03166370a08231306040518263ffffffff1660e01b815260040180826001600160a01b0316815260200191505060206040518083038186803b15801561099757600080fd5b505afa1580156109ab573d6000803e3d6000fd5b505050506040513d60208110156109c157600080fd5b5051949350505050565b7385e855b22f01bdd33ee194490c7eb16b7edac01990565b736f51036ec66b08cbfdb7bd7fb7f40b184482d72490565b6001546001600160a01b031681565b60016000809192565b6000546001600160a01b031681565b6000546001600160a01b03163314610a3957600080fd5b600480546001600160a01b0319166001600160a01b0392909216919091179055565b6000546001600160a01b03163314610a7257600080fd5b6001600160a01b0391821660009081526002602081905260409091200180546001600160a01b03191691909216179055565b6000546001600160a01b03163314610abb57600080fd5b6001600160a01b038082166000908152600260209081526040808320805482516370a0823160e01b81523060048201529251919516939284926370a082319260248083019392829003018186803b158015610b1557600080fd5b505afa158015610b29573d6000803e3d6000fd5b505050506040513d6020811015610b3f57600080fd5b50516040805163db006a7560e01b81526004810183905290519192506000916001600160a01b0385169163db006a7591602480830192602092919082900301818787803b158015610b8f57600080fd5b505af1158015610ba3573d6000803e3d6000fd5b505050506040513d6020811015610bb957600080fd5b50511415610bc957506000610c4c565b6001546040805163a9059cbb60e01b81526001600160a01b0392831660048201526024810184905290519184169163a9059cbb916044808201926020929091908290030181600087803b158015610c1f57600080fd5b505af1158015610c33573d6000803e3d6000fd5b505050506040513d6020811015610c4957600080fd5b50505b6000846001600160a01b03166370a08231306040518263ffffffff1660e01b815260040180826001600160a01b0316815260200191505060206040518083038186803b158015610c9b57600080fd5b505afa158015610caf573d6000803e3d6000fd5b505050506040513d6020811015610cc557600080fd5b50516001546040805163a9059cbb60e01b81526001600160a01b0392831660048201526024810184905290519293509087169163a9059cbb916044808201926020929091908290030181600087803b158015610d2057600080fd5b505af1158015610d34573d6000803e3d6000fd5b505050506040513d6020811015610d4a57600080fd5b50506001840154604080516001600160a01b0388168152602081018490528082018590526060810192909252517f5c7774bb42e44555047b11d64dfcd0c9e0882d656f3a9496954768ab0e1b06689181900360800190a1505060008083556001830181905560038301555060020180546001600160a01b031916905550565b6000546001600160a01b03163314610de057600080fd5b6001600160a01b03909116600090815260026020526040902060030155565b60035481565b6001546001600160a01b03163314610e1c57600080fd5b6001600160a01b03821660009081526002602052604090206001810154610e439083611321565b600182015580546040805163140e25ad60e31b81526004810185905290516000926001600160a01b03169163a0712d6891602480830192602092919082900301818787803b158015610e9457600080fd5b505af1158015610ea8573d6000803e3d6000fd5b505050506040513d6020811015610ebe57600080fd5b5051146107de57600080fd5b6001600160a01b0390811660009081526002602052604090205416151590565b6001600160a01b03818116600090815260026020908152604080832080548251633af9e66960e01b815230600482015292519495919491811693600160a01b9091046001600160601b03169286928592633af9e669926024808201939182900301818787803b158015610f5c57600080fd5b505af1158015610f70573d6000803e3d6000fd5b505050506040513d6020811015610f8657600080fd5b50516001850154909150600090610fa6906001600160601b038516611321565b9050808211610fb6576000610fba565b8082035b979650505050505050565b6004546001600160a01b031681565b6001600160a01b031660009081526002602052604090206001015490565b6001600160a01b03811660009081526002602052604081209061101483610eea565b9050816003015481101561102757600080fd5b60028201546107de906001600160a01b0316846110448185611382565b6111c9565b6000546001600160a01b0316331461106057600080fd5b6001600160a01b03918216600090815260026020526040902080546001600160601b03909216600160a01b0291909216179055565b6000546001600160a01b031633146110ac57600080fd5b600080546001600160a01b0319166001600160a01b0392909216919091179055565b6001546001600160a01b031633146110e557600080fd5b6001600160a01b03821660009081526002602052604081206001810154909161111c858386116111155785611117565b835b611382565b905081811161112d57808203611130565b60005b600180850191909155546040805163a9059cbb60e01b81526001600160a01b0392831660048201526024810184905290519187169163a9059cbb916044808201926020929091908290030181600087803b15801561072b57600080fd5b6000813f7fc5d2460186f7233c927e7db2dcc703c0e500b653ca82273b7bfad8045d85a4708181148015906111c157508115155b949350505050565b6001600160a01b0383166111dc57600080fd5b816001600160a01b031663a9059cbb84836040518363ffffffff1660e01b815260040180836001600160a01b0316815260200182815260200192505050602060405180830381600087803b15801561123357600080fd5b505af1158015611247573d6000803e3d6000fd5b505050506040513d602081101561125d57600080fd5b5061126990508361118d565b156112d657826001600160a01b03166381e3f276836040518263ffffffff1660e01b815260040180826001600160a01b03168152602001915050600060405180830381600087803b1580156112bd57600080fd5b505af11580156112d1573d6000803e3d6000fd5b505050505b604080516001600160a01b038581168252602082018490528251908516927f222348fe8b30f078a8a4da2f55f16d24d70bc40d3ec49d295d7ad1d11e666887928290030190a2505050565b60008282018381101561137b576040805162461bcd60e51b815260206004820152601b60248201527f536166654d6174683a206164646974696f6e206f766572666c6f770000000000604482015290519081900360640190fd5b9392505050565b600080836001600160a01b03166370a08231306040518263ffffffff1660e01b815260040180826001600160a01b0316815260200191505060206040518083038186803b1580156113d257600080fd5b505afa1580156113e6573d6000803e3d6000fd5b505050506040513d60208110156113fc57600080fd5b50516001600160a01b03808616600090815260026020908152604080832054815163852a12e360e01b8152600481018a905291519596509294929093169263852a12e3926024808301939282900301818787803b15801561145c57600080fd5b505af1158015611470573d6000803e3d6000fd5b505050506040513d602081101561148657600080fd5b50511461149257600080fd5b600081856001600160a01b03166370a08231306040518263ffffffff1660e01b815260040180826001600160a01b0316815260200191505060206040518083038186803b1580156114e257600080fd5b505afa1580156114f6573d6000803e3d6000fd5b505050506040513d602081101561150c57600080fd5b5051039050838110156111c157600080fdfea264697066735822122035cdae6e73eb5f851a1bf6b5f53814ff89e6f80f9e507133d9b300fa5d2e064b64736f6c63430007050033",
  "immutableReferences": {},
  "source": "pragma solidity 0.7.5;\n\nimport \"../upgradeable_contracts/modules/interest/CompoundInterestERC20.sol\";\n\ncontract CompoundInterestERC20Mock is CompoundInterestERC20 {\n    constructor(\n        address _omnibridge,\n        address _owner,\n        uint256 _minCompPaid,\n        address _compReceiver\n    ) CompoundInterestERC20(_omnibridge, _owner, _minCompPaid, _compReceiver) {}\n\n    function comptroller() public pure override returns (IComptroller) {\n        return IComptroller(0x85e855b22F01BdD33eE194490c7eB16b7EdaC019);\n    }\n\n    function compToken() public pure override returns (IERC20) {\n        return IERC20(0x6f51036Ec66B08cBFdb7Bd7Fb7F40b184482d724);\n    }\n}\n",
  "sourcePath": "/Users/eabz/Documents/GitHub/tokenbridge/packages/omnibridge/contracts/mocks/CompoundInterestERC20Mock.sol",
  "compiler": {
    "name": "solc",
    "version": "0.7.5+commit.eb77ed08.Emscripten.clang"
  },
  "schemaVersion": "3.4.3",
  "updatedAt": "2021-09-04T01:08:31.164Z",
  "devdoc": {
    "kind": "dev",
    "methods": {
      "claimCompAndPay(address[])": {
        "details": "Claims Comp token received by supplying underlying tokens and transfers it to the associated COMP receiver.",
        "params": {
          "_markets": "cTokens addresses to claim COMP for."
        }
      },
      "compAmount(address[])": {
        "details": "Tells the amount of earned COMP tokens for supplying assets into the protocol that can be withdrawn. Intended to be called via eth_call to obtain the current accumulated value for COMP.",
        "returns": {
          "_0": "amount of accumulated COMP tokens across given markets."
        }
      },
      "compToken()": {
        "details": "Tells the address of the COMP token in the Ethereum Mainnet."
      },
      "comptroller()": {
        "details": "Tells the address of the Comptroller contract in the Ethereum Mainnet."
      },
      "enableInterestToken(address,uint96,address,uint256)": {
        "details": "Enables support for interest earning through specific cToken.",
        "params": {
          "_cToken": "address of the cToken contract. Underlying token address is derived from this contract.",
          "_dust": "small amount of underlying tokens that cannot be paid as an interest. Accounts for possible truncation errors.",
          "_interestReceiver": "address of the interest receiver for underlying token and associated COMP tokens.",
          "_minInterestPaid": "min amount of underlying tokens to be paid as an interest."
        }
      },
      "forceDisable(address)": {
        "details": "Last-resort function for returning assets to the Omnibridge contract in case of some failures in the logic. Disables this contract and transfers locked tokens back to the mediator. Only owner is allowed to call this method.",
        "params": {
          "_token": "address of the invested token contract that should be disabled."
        }
      },
      "getModuleInterfacesVersion()": {
        "details": "Tells the module interface version that this contract supports.",
        "returns": {
          "major": "value of the version",
          "minor": "value of the version",
          "patch": "value of the version"
        }
      },
      "interestAmount(address)": {
        "details": "Tells the current accumulated interest on the invested tokens, that can be withdrawn and payed to the interest receiver.",
        "params": {
          "_token": "address of the invested token contract."
        },
        "returns": {
          "_0": "amount of accumulated interest."
        }
      },
      "invest(address,uint256)": {
        "details": "Invests the given amount of tokens to the Compound protocol. Only Omnibridge contract is allowed to call this method. Converts _amount of TOKENs into X cTOKENs.",
        "params": {
          "_amount": "amount of tokens to invest.",
          "_token": "address of the invested token contract."
        }
      },
      "investedAmount(address)": {
        "details": "Tells the current amount of underlying tokens that was invested into the Compound protocol.",
        "params": {
          "_token": "address of the underlying token."
        },
        "returns": {
          "_0": "currently invested value."
        }
      },
      "isInterestSupported(address)": {
        "details": "Tells if interest earning is supported for the specific underlying token contract.",
        "params": {
          "_token": "address of the token contract."
        },
        "returns": {
          "_0": "true, if interest earning is supported for the given token."
        }
      },
      "payInterest(address)": {
        "details": "Pays collected interest for the underlying token. Anyone can call this function. Earned interest is withdrawn and transferred to the specified interest receiver account.",
        "params": {
          "_token": "address of the invested token contract in which interest should be paid."
        }
      },
      "setCompReceiver(address)": {
        "details": "Updates address of the accumulated COMP receiver. Can be any address, EOA or contract. Set to 0x00..00 to disable COMP claims and transfers. Only owner is allowed to call this method.",
        "params": {
          "_receiver": "address of the interest receiver."
        }
      },
      "setDust(address,uint96)": {
        "details": "Updates dust parameter for the particular token. Only owner is allowed to call this method.",
        "params": {
          "_dust": "new amount of underlying tokens that cannot be paid as an interest. Accounts for possible truncation errors.",
          "_token": "address of the invested token contract."
        }
      },
      "setInterestReceiver(address,address)": {
        "details": "Updates address of the interest receiver. Can be any address, EOA or contract. Set to 0x00..00 to disable interest transfers. Only owner is allowed to call this method.",
        "params": {
          "_receiver": "address of the interest receiver.",
          "_token": "address of the invested token contract."
        }
      },
      "setMinCompPaid(uint256)": {
        "details": "Updates min COMP amount that can be transferred in single call. Only owner is allowed to call this method.",
        "params": {
          "_minCompPaid": "new amount of COMP and can be transferred to the interest receiver in single operation."
        }
      },
      "setMinInterestPaid(address,uint256)": {
        "details": "Updates min interest amount that can be transferred in single call. Only owner is allowed to call this method.",
        "params": {
          "_minInterestPaid": "new amount of TOKENS and can be transferred to the interest receiver in single operation.",
          "_token": "address of the invested token contract."
        }
      },
      "transferOwnership(address)": {
        "details": "Changes the owner of this contract.",
        "params": {
          "_newOwner": "address of the new owner."
        }
      },
      "withdraw(address,uint256)": {
        "details": "Withdraws at least the given amount of tokens from the Compound protocol. Only Omnibridge contract is allowed to call this method. Converts X cTOKENs into _amount of TOKENs.",
        "params": {
          "_amount": "minimal amount of tokens to withdraw.",
          "_token": "address of the invested token contract."
        }
      }
    },
    "version": 1
  },
  "userdoc": {
    "kind": "user",
    "methods": {},
    "version": 1
  }
}