{
  "contractName": "CompoundInterestERC20",
  "abi": [
    {
      "inputs": [
        {
          "internalType": "address",
          "name": "_omnibridge",
          "type": "address"
        },
        {
          "internalType": "address",
          "name": "_owner",
          "type": "address"
        },
        {
          "internalType": "uint256",
          "name": "_minCompPaid",
          "type": "uint256"
        },
        {
          "internalType": "address",
          "name": "_compReceiver",
          "type": "address"
        }
      ],
      "stateMutability": "nonpayable",
      "type": "constructor"
    },
    {
      "anonymous": false,
      "inputs": [
        {
          "indexed": false,
          "internalType": "address",
          "name": "token",
          "type": "address"
        },
        {
          "indexed": false,
          "internalType": "uint256",
          "name": "tokensAmount",
          "type": "uint256"
        },
        {
          "indexed": false,
          "internalType": "uint256",
          "name": "cTokensAmount",
          "type": "uint256"
        },
        {
          "indexed": false,
          "internalType": "uint256",
          "name": "investedAmount",
          "type": "uint256"
        }
      ],
      "name": "ForceDisable",
      "type": "event"
    },
    {
      "anonymous": false,
      "inputs": [
        {
          "indexed": true,
          "internalType": "address",
          "name": "token",
          "type": "address"
        },
        {
          "indexed": false,
          "internalType": "address",
          "name": "to",
          "type": "address"
        },
        {
          "indexed": false,
          "internalType": "uint256",
          "name": "value",
          "type": "uint256"
        }
      ],
      "name": "PaidInterest",
      "type": "event"
    },
    {
      "inputs": [],
      "name": "compReceiver",
      "outputs": [
        {
          "internalType": "address",
          "name": "",
          "type": "address"
        }
      ],
      "stateMutability": "view",
      "type": "function"
    },
    {
      "inputs": [
        {
          "internalType": "address",
          "name": "",
          "type": "address"
        }
      ],
      "name": "interestParams",
      "outputs": [
        {
          "internalType": "contract ICToken",
          "name": "cToken",
          "type": "address"
        },
        {
          "internalType": "uint96",
          "name": "dust",
          "type": "uint96"
        },
        {
          "internalType": "uint256",
          "name": "investedAmount",
          "type": "uint256"
        },
        {
          "internalType": "address",
          "name": "interestReceiver",
          "type": "address"
        },
        {
          "internalType": "uint256",
          "name": "minInterestPaid",
          "type": "uint256"
        }
      ],
      "stateMutability": "view",
      "type": "function"
    },
    {
      "inputs": [],
      "name": "mediator",
      "outputs": [
        {
          "internalType": "address",
          "name": "",
          "type": "address"
        }
      ],
      "stateMutability": "view",
      "type": "function"
    },
    {
      "inputs": [],
      "name": "minCompPaid",
      "outputs": [
        {
          "internalType": "uint256",
          "name": "",
          "type": "uint256"
        }
      ],
      "stateMutability": "view",
      "type": "function"
    },
    {
      "inputs": [],
      "name": "owner",
      "outputs": [
        {
          "internalType": "address",
          "name": "",
          "type": "address"
        }
      ],
      "stateMutability": "view",
      "type": "function"
    },
    {
      "inputs": [
        {
          "internalType": "address",
          "name": "_newOwner",
          "type": "address"
        }
      ],
      "name": "transferOwnership",
      "outputs": [],
      "stateMutability": "nonpayable",
      "type": "function"
    },
    {
      "inputs": [],
      "name": "getModuleInterfacesVersion",
      "outputs": [
        {
          "internalType": "uint64",
          "name": "major",
          "type": "uint64"
        },
        {
          "internalType": "uint64",
          "name": "minor",
          "type": "uint64"
        },
        {
          "internalType": "uint64",
          "name": "patch",
          "type": "uint64"
        }
      ],
      "stateMutability": "pure",
      "type": "function"
    },
    {
      "inputs": [
        {
          "internalType": "contract ICToken",
          "name": "_cToken",
          "type": "address"
        },
        {
          "internalType": "uint96",
          "name": "_dust",
          "type": "uint96"
        },
        {
          "internalType": "address",
          "name": "_interestReceiver",
          "type": "address"
        },
        {
          "internalType": "uint256",
          "name": "_minInterestPaid",
          "type": "uint256"
        }
      ],
      "name": "enableInterestToken",
      "outputs": [],
      "stateMutability": "nonpayable",
      "type": "function"
    },
    {
      "inputs": [
        {
          "internalType": "address",
          "name": "_token",
          "type": "address"
        }
      ],
      "name": "investedAmount",
      "outputs": [
        {
          "internalType": "uint256",
          "name": "",
          "type": "uint256"
        }
      ],
      "stateMutability": "view",
      "type": "function"
    },
    {
      "inputs": [],
      "name": "compToken",
      "outputs": [
        {
          "internalType": "contract IERC20",
          "name": "",
          "type": "address"
        }
      ],
      "stateMutability": "pure",
      "type": "function"
    },
    {
      "inputs": [],
      "name": "comptroller",
      "outputs": [
        {
          "internalType": "contract IComptroller",
          "name": "",
          "type": "address"
        }
      ],
      "stateMutability": "pure",
      "type": "function"
    },
    {
      "inputs": [
        {
          "internalType": "address",
          "name": "_token",
          "type": "address"
        }
      ],
      "name": "isInterestSupported",
      "outputs": [
        {
          "internalType": "bool",
          "name": "",
          "type": "bool"
        }
      ],
      "stateMutability": "view",
      "type": "function"
    },
    {
      "inputs": [
        {
          "internalType": "address",
          "name": "_token",
          "type": "address"
        },
        {
          "internalType": "uint256",
          "name": "_amount",
          "type": "uint256"
        }
      ],
      "name": "invest",
      "outputs": [],
      "stateMutability": "nonpayable",
      "type": "function"
    },
    {
      "inputs": [
        {
          "internalType": "address",
          "name": "_token",
          "type": "address"
        },
        {
          "internalType": "uint256",
          "name": "_amount",
          "type": "uint256"
        }
      ],
      "name": "withdraw",
      "outputs": [],
      "stateMutability": "nonpayable",
      "type": "function"
    },
    {
      "inputs": [
        {
          "internalType": "address",
          "name": "_token",
          "type": "address"
        }
      ],
      "name": "interestAmount",
      "outputs": [
        {
          "internalType": "uint256",
          "name": "",
          "type": "uint256"
        }
      ],
      "stateMutability": "nonpayable",
      "type": "function"
    },
    {
      "inputs": [
        {
          "internalType": "address",
          "name": "_token",
          "type": "address"
        }
      ],
      "name": "payInterest",
      "outputs": [],
      "stateMutability": "nonpayable",
      "type": "function"
    },
    {
      "inputs": [
        {
          "internalType": "address[]",
          "name": "_markets",
          "type": "address[]"
        }
      ],
      "name": "compAmount",
      "outputs": [
        {
          "internalType": "uint256",
          "name": "",
          "type": "uint256"
        }
      ],
      "stateMutability": "nonpayable",
      "type": "function"
    },
    {
      "inputs": [
        {
          "internalType": "address[]",
          "name": "_markets",
          "type": "address[]"
        }
      ],
      "name": "claimCompAndPay",
      "outputs": [],
      "stateMutability": "nonpayable",
      "type": "function"
    },
    {
      "inputs": [
        {
          "internalType": "address",
          "name": "_token",
          "type": "address"
        }
      ],
      "name": "forceDisable",
      "outputs": [],
      "stateMutability": "nonpayable",
      "type": "function"
    },
    {
      "inputs": [
        {
          "internalType": "address",
          "name": "_token",
          "type": "address"
        },
        {
          "internalType": "uint96",
          "name": "_dust",
          "type": "uint96"
        }
      ],
      "name": "setDust",
      "outputs": [],
      "stateMutability": "nonpayable",
      "type": "function"
    },
    {
      "inputs": [
        {
          "internalType": "address",
          "name": "_token",
          "type": "address"
        },
        {
          "internalType": "address",
          "name": "_receiver",
          "type": "address"
        }
      ],
      "name": "setInterestReceiver",
      "outputs": [],
      "stateMutability": "nonpayable",
      "type": "function"
    },
    {
      "inputs": [
        {
          "internalType": "address",
          "name": "_token",
          "type": "address"
        },
        {
          "internalType": "uint256",
          "name": "_minInterestPaid",
          "type": "uint256"
        }
      ],
      "name": "setMinInterestPaid",
      "outputs": [],
      "stateMutability": "nonpayable",
      "type": "function"
    },
    {
      "inputs": [
        {
          "internalType": "uint256",
          "name": "_minCompPaid",
          "type": "uint256"
        }
      ],
      "name": "setMinCompPaid",
      "outputs": [],
      "stateMutability": "nonpayable",
      "type": "function"
    },
    {
      "inputs": [
        {
          "internalType": "address",
          "name": "_receiver",
          "type": "address"
        }
      ],
      "name": "setCompReceiver",
      "outputs": [],
      "stateMutability": "nonpayable",
      "type": "function"
    }
  ],
  "bytecode": "0x608060405234801561001057600080fd5b506040516116613803806116618339818101604052608081101561003357600080fd5b5080516020808301516040840151606090940151600080546001600160a01b0319166001600160a01b0384161790559293909290918490849061007f9083906100c2811b61118d17901c565b61008857600080fd5b50600180546001600160a01b03199081166001600160a01b0393841617909155600393909355600480549093169116179055506100fe9050565b6000813f7fc5d2460186f7233c927e7db2dcc703c0e500b653ca82273b7bfad8045d85a4708181148015906100f657508115155b949350505050565b6115548061010d6000396000f3fe608060405234801561001057600080fd5b50600436106101585760003560e01c806395d1dab4116100c3578063c91f08cb1161007c578063c91f08cb146104c4578063cff77444146104cc578063d007c644146104f2578063e6c7c4b514610518578063f2fde38b1461054d578063f3fef3a31461057357610158565b806395d1dab4146103de578063a36b85fd14610404578063a5a9abf114610430578063b9b8c24614610438578063bdd378a014610464578063c779c1c31461049e57610158565b80636605dfa7116101155780636605dfa71461033e5780636d0501f61461034657806381e1351f1461034e5780638da5cb5b146103825780638f87d6331461038a578063904377ec146103b057610158565b806316b813d01461015d578063390848c2146101a2578063470484eb1461020b5780634cad132d1461027b5780635c72a23f146102985780635fe3b5671461031a575b600080fd5b6101a06004803603608081101561017357600080fd5b506001600160a01b0381358116916001600160601b0360208201351691604082013516906060013561059f565b005b6101c8600480360360208110156101b857600080fd5b50356001600160a01b031661075e565b604080516001600160a01b0396871681526001600160601b0390951660208601528481019390935293166060830152608082019290925290519081900360a00190f35b6101a06004803603602081101561022157600080fd5b81019060208101813564010000000081111561023c57600080fd5b82018360208201111561024e57600080fd5b8035906020019184602083028401116401000000008311171561027057600080fd5b5090925090506107a3565b6101a06004803603602081101561029157600080fd5b50356107e3565b610308600480360360208110156102ae57600080fd5b8101906020810181356401000000008111156102c957600080fd5b8201836020820111156102db57600080fd5b803590602001918460208302840111640100000000831117156102fd57600080fd5b5090925090506107ff565b60408051918252519081900360200190f35b6103226109cb565b604080516001600160a01b039092168252519081900360200190f35b6103226109e3565b6103226109fb565b610356610a0a565b6040805167ffffffffffffffff9485168152928416602084015292168183015290519081900360600190f35b610322610a13565b6101a0600480360360208110156103a057600080fd5b50356001600160a01b0316610a22565b6101a0600480360360408110156103c657600080fd5b506001600160a01b0381358116916020013516610a5b565b6101a0600480360360208110156103f457600080fd5b50356001600160a01b0316610aa4565b6101a06004803603604081101561041a57600080fd5b506001600160a01b038135169060200135610dc9565b610308610dff565b6101a06004803603604081101561044e57600080fd5b506001600160a01b038135169060200135610e05565b61048a6004803603602081101561047a57600080fd5b50356001600160a01b0316610eca565b604080519115158252519081900360200190f35b610308600480360360208110156104b457600080fd5b50356001600160a01b0316610eea565b610322610fc5565b610308600480360360208110156104e257600080fd5b50356001600160a01b0316610fd4565b6101a06004803603602081101561050857600080fd5b50356001600160a01b0316610ff2565b6101a06004803603604081101561052e57600080fd5b5080356001600160a01b031690602001356001600160601b0316611049565b6101a06004803603602081101561056357600080fd5b50356001600160a01b0316611095565b6101a06004803603604081101561058957600080fd5b506001600160a01b0381351690602001356110ce565b6000546001600160a01b031633146105b657600080fd5b6000846001600160a01b0316636f307dc36040518163ffffffff1660e01b8152600401602060405180830381600087803b1580156105f357600080fd5b505af1158015610607573d6000803e3d6000fd5b505050506040513d602081101561061d57600080fd5b50516001600160a01b0381166000908152600260205260409020600101549091501561064857600080fd5b6040805160a0810182526001600160a01b038088168083526001600160601b03808916602080860191825260008688018181528b871660608901908152608089018c81528b891680855260028087528c86209b518c549851909916600160a01b02988b166001600160a01b0319988916178b16989098178b55925160018b0155905195890180549690981695909416949094179095559051600390950194909455845163095ea7b360e01b815260048101929092526000196024830152935163095ea7b39360448084019491938390030190829087803b15801561072b57600080fd5b505af115801561073f573d6000803e3d6000fd5b505050506040513d602081101561075557600080fd5b50505050505050565b600260208190526000918252604090912080546001820154928201546003909201546001600160a01b0380831694600160a01b9093046001600160601b031693169085565b60006107af83836107ff565b90506003548110156107c057600080fd5b6004546107de906001600160a01b03166107d86109e3565b836111c9565b505050565b6000546001600160a01b031633146107fa57600080fd5b600355565b6040805160018082528183019092526000916060919060208083019080368337019050509050308160008151811061083357fe5b60200260200101906001600160a01b031690816001600160a01b03168152505061085b6109cb565b6001600160a01b0316636810dfa6828686600060016040518663ffffffff1660e01b815260040180806020018060200185151581526020018415158152602001838103835288818151815260200191508051906020019060200280838360005b838110156108d35781810151838201526020016108bb565b505050509050018381038252878782818152602001925060200280828437600081840152601f19601f820116905080830192505050975050505050505050600060405180830381600087803b15801561092b57600080fd5b505af115801561093f573d6000803e3d6000fd5b5050505061094b6109e3565b6001600160a01b03166370a08231306040518263ffffffff1660e01b815260040180826001600160a01b0316815260200191505060206040518083038186803b15801561099757600080fd5b505afa1580156109ab573d6000803e3d6000fd5b505050506040513d60208110156109c157600080fd5b5051949350505050565b733d9819210a31b4961b30ef54be2aed79b9c9cd3b90565b73c00e94cb662c3520282e6f5717214004a7f2688890565b6001546001600160a01b031681565b60016000809192565b6000546001600160a01b031681565b6000546001600160a01b03163314610a3957600080fd5b600480546001600160a01b0319166001600160a01b0392909216919091179055565b6000546001600160a01b03163314610a7257600080fd5b6001600160a01b0391821660009081526002602081905260409091200180546001600160a01b03191691909216179055565b6000546001600160a01b03163314610abb57600080fd5b6001600160a01b038082166000908152600260209081526040808320805482516370a0823160e01b81523060048201529251919516939284926370a082319260248083019392829003018186803b158015610b1557600080fd5b505afa158015610b29573d6000803e3d6000fd5b505050506040513d6020811015610b3f57600080fd5b50516040805163db006a7560e01b81526004810183905290519192506000916001600160a01b0385169163db006a7591602480830192602092919082900301818787803b158015610b8f57600080fd5b505af1158015610ba3573d6000803e3d6000fd5b505050506040513d6020811015610bb957600080fd5b50511415610bc957506000610c4c565b6001546040805163a9059cbb60e01b81526001600160a01b0392831660048201526024810184905290519184169163a9059cbb916044808201926020929091908290030181600087803b158015610c1f57600080fd5b505af1158015610c33573d6000803e3d6000fd5b505050506040513d6020811015610c4957600080fd5b50505b6000846001600160a01b03166370a08231306040518263ffffffff1660e01b815260040180826001600160a01b0316815260200191505060206040518083038186803b158015610c9b57600080fd5b505afa158015610caf573d6000803e3d6000fd5b505050506040513d6020811015610cc557600080fd5b50516001546040805163a9059cbb60e01b81526001600160a01b0392831660048201526024810184905290519293509087169163a9059cbb916044808201926020929091908290030181600087803b158015610d2057600080fd5b505af1158015610d34573d6000803e3d6000fd5b505050506040513d6020811015610d4a57600080fd5b50506001840154604080516001600160a01b0388168152602081018490528082018590526060810192909252517f5c7774bb42e44555047b11d64dfcd0c9e0882d656f3a9496954768ab0e1b06689181900360800190a1505060008083556001830181905560038301555060020180546001600160a01b031916905550565b6000546001600160a01b03163314610de057600080fd5b6001600160a01b03909116600090815260026020526040902060030155565b60035481565b6001546001600160a01b03163314610e1c57600080fd5b6001600160a01b03821660009081526002602052604090206001810154610e439083611321565b600182015580546040805163140e25ad60e31b81526004810185905290516000926001600160a01b03169163a0712d6891602480830192602092919082900301818787803b158015610e9457600080fd5b505af1158015610ea8573d6000803e3d6000fd5b505050506040513d6020811015610ebe57600080fd5b5051146107de57600080fd5b6001600160a01b0390811660009081526002602052604090205416151590565b6001600160a01b03818116600090815260026020908152604080832080548251633af9e66960e01b815230600482015292519495919491811693600160a01b9091046001600160601b03169286928592633af9e669926024808201939182900301818787803b158015610f5c57600080fd5b505af1158015610f70573d6000803e3d6000fd5b505050506040513d6020811015610f8657600080fd5b50516001850154909150600090610fa6906001600160601b038516611321565b9050808211610fb6576000610fba565b8082035b979650505050505050565b6004546001600160a01b031681565b6001600160a01b031660009081526002602052604090206001015490565b6001600160a01b03811660009081526002602052604081209061101483610eea565b9050816003015481101561102757600080fd5b60028201546107de906001600160a01b0316846110448185611382565b6111c9565b6000546001600160a01b0316331461106057600080fd5b6001600160a01b03918216600090815260026020526040902080546001600160601b03909216600160a01b0291909216179055565b6000546001600160a01b031633146110ac57600080fd5b600080546001600160a01b0319166001600160a01b0392909216919091179055565b6001546001600160a01b031633146110e557600080fd5b6001600160a01b03821660009081526002602052604081206001810154909161111c858386116111155785611117565b835b611382565b905081811161112d57808203611130565b60005b600180850191909155546040805163a9059cbb60e01b81526001600160a01b0392831660048201526024810184905290519187169163a9059cbb916044808201926020929091908290030181600087803b15801561072b57600080fd5b6000813f7fc5d2460186f7233c927e7db2dcc703c0e500b653ca82273b7bfad8045d85a4708181148015906111c157508115155b949350505050565b6001600160a01b0383166111dc57600080fd5b816001600160a01b031663a9059cbb84836040518363ffffffff1660e01b815260040180836001600160a01b0316815260200182815260200192505050602060405180830381600087803b15801561123357600080fd5b505af1158015611247573d6000803e3d6000fd5b505050506040513d602081101561125d57600080fd5b5061126990508361118d565b156112d657826001600160a01b03166381e3f276836040518263ffffffff1660e01b815260040180826001600160a01b03168152602001915050600060405180830381600087803b1580156112bd57600080fd5b505af11580156112d1573d6000803e3d6000fd5b505050505b604080516001600160a01b038581168252602082018490528251908516927f222348fe8b30f078a8a4da2f55f16d24d70bc40d3ec49d295d7ad1d11e666887928290030190a2505050565b60008282018381101561137b576040805162461bcd60e51b815260206004820152601b60248201527f536166654d6174683a206164646974696f6e206f766572666c6f770000000000604482015290519081900360640190fd5b9392505050565b600080836001600160a01b03166370a08231306040518263ffffffff1660e01b815260040180826001600160a01b0316815260200191505060206040518083038186803b1580156113d257600080fd5b505afa1580156113e6573d6000803e3d6000fd5b505050506040513d60208110156113fc57600080fd5b50516001600160a01b03808616600090815260026020908152604080832054815163852a12e360e01b8152600481018a905291519596509294929093169263852a12e3926024808301939282900301818787803b15801561145c57600080fd5b505af1158015611470573d6000803e3d6000fd5b505050506040513d602081101561148657600080fd5b50511461149257600080fd5b600081856001600160a01b03166370a08231306040518263ffffffff1660e01b815260040180826001600160a01b0316815260200191505060206040518083038186803b1580156114e257600080fd5b505afa1580156114f6573d6000803e3d6000fd5b505050506040513d602081101561150c57600080fd5b5051039050838110156111c157600080fdfea26469706673582212202a5e64ff578527dee413b4c089b4a7e3164f82423d7b3f34b591852655cdc0a564736f6c63430007050033",
  "immutableReferences": {},
  "source": "pragma solidity 0.7.5;\n\nimport \"@openzeppelin/contracts/token/ERC20/IERC20.sol\";\nimport \"@openzeppelin/contracts/math/SafeMath.sol\";\nimport \"../../../interfaces/ICToken.sol\";\nimport \"../../../interfaces/IComptroller.sol\";\nimport \"../../../interfaces/IOwnable.sol\";\nimport \"../../../interfaces/IInterestReceiver.sol\";\nimport \"../../../interfaces/IInterestImplementation.sol\";\nimport \"../MediatorOwnableModule.sol\";\n\n/**\n * @title CompoundInterestERC20\n * @dev This contract contains token-specific logic for investing ERC20 tokens into Compound protocol.\n */\ncontract CompoundInterestERC20 is IInterestImplementation, MediatorOwnableModule {\n    using SafeMath for uint256;\n\n    event PaidInterest(address indexed token, address to, uint256 value);\n    event ForceDisable(address token, uint256 tokensAmount, uint256 cTokensAmount, uint256 investedAmount);\n\n    uint256 internal constant SUCCESS = 0;\n\n    struct InterestParams {\n        ICToken cToken;\n        uint96 dust;\n        uint256 investedAmount;\n        address interestReceiver;\n        uint256 minInterestPaid;\n    }\n\n    mapping(address => InterestParams) public interestParams;\n    uint256 public minCompPaid;\n    address public compReceiver;\n\n    constructor(\n        address _omnibridge,\n        address _owner,\n        uint256 _minCompPaid,\n        address _compReceiver\n    ) MediatorOwnableModule(_omnibridge, _owner) {\n        minCompPaid = _minCompPaid;\n        compReceiver = _compReceiver;\n    }\n\n    /**\n     * @dev Tells the module interface version that this contract supports.\n     * @return major value of the version\n     * @return minor value of the version\n     * @return patch value of the version\n     */\n    function getModuleInterfacesVersion()\n        external\n        pure\n        returns (\n            uint64 major,\n            uint64 minor,\n            uint64 patch\n        )\n    {\n        return (1, 0, 0);\n    }\n\n    /**\n     * @dev Enables support for interest earning through specific cToken.\n     * @param _cToken address of the cToken contract. Underlying token address is derived from this contract.\n     * @param _dust small amount of underlying tokens that cannot be paid as an interest. Accounts for possible truncation errors.\n     * @param _interestReceiver address of the interest receiver for underlying token and associated COMP tokens.\n     * @param _minInterestPaid min amount of underlying tokens to be paid as an interest.\n     */\n    function enableInterestToken(\n        ICToken _cToken,\n        uint96 _dust,\n        address _interestReceiver,\n        uint256 _minInterestPaid\n    ) external onlyOwner {\n        address token = _cToken.underlying();\n        // disallow reinitialization of tokens that were already initialized and invested\n        require(interestParams[token].investedAmount == 0);\n\n        interestParams[token] = InterestParams(_cToken, _dust, 0, _interestReceiver, _minInterestPaid);\n\n        IERC20(token).approve(address(_cToken), uint256(-1));\n    }\n\n    /**\n     * @dev Tells the current amount of underlying tokens that was invested into the Compound protocol.\n     * @param _token address of the underlying token.\n     * @return currently invested value.\n     */\n    function investedAmount(address _token) external view override returns (uint256) {\n        return interestParams[_token].investedAmount;\n    }\n\n    /**\n     * @dev Tells the address of the COMP token in the Ethereum Mainnet.\n     */\n    function compToken() public pure virtual returns (IERC20) {\n        return IERC20(0xc00e94Cb662C3520282E6f5717214004A7f26888);\n    }\n\n    /**\n     * @dev Tells the address of the Comptroller contract in the Ethereum Mainnet.\n     */\n    function comptroller() public pure virtual returns (IComptroller) {\n        return IComptroller(0x3d9819210A31b4961b30EF54bE2aeD79B9c9Cd3B);\n    }\n\n    /**\n     * @dev Tells if interest earning is supported for the specific underlying token contract.\n     * @param _token address of the token contract.\n     * @return true, if interest earning is supported for the given token.\n     */\n    function isInterestSupported(address _token) external view override returns (bool) {\n        return address(interestParams[_token].cToken) != address(0);\n    }\n\n    /**\n     * @dev Invests the given amount of tokens to the Compound protocol.\n     * Only Omnibridge contract is allowed to call this method.\n     * Converts _amount of TOKENs into X cTOKENs.\n     * @param _token address of the invested token contract.\n     * @param _amount amount of tokens to invest.\n     */\n    function invest(address _token, uint256 _amount) external override onlyMediator {\n        InterestParams storage params = interestParams[_token];\n        params.investedAmount = params.investedAmount.add(_amount);\n        require(params.cToken.mint(_amount) == SUCCESS);\n    }\n\n    /**\n     * @dev Withdraws at least the given amount of tokens from the Compound protocol.\n     * Only Omnibridge contract is allowed to call this method.\n     * Converts X cTOKENs into _amount of TOKENs.\n     * @param _token address of the invested token contract.\n     * @param _amount minimal amount of tokens to withdraw.\n     */\n    function withdraw(address _token, uint256 _amount) external override onlyMediator {\n        InterestParams storage params = interestParams[_token];\n        uint256 invested = params.investedAmount;\n        uint256 redeemed = _safeWithdraw(_token, _amount > invested ? invested : _amount);\n        params.investedAmount = redeemed > invested ? 0 : invested - redeemed;\n        IERC20(_token).transfer(mediator, redeemed);\n    }\n\n    /**\n     * @dev Tells the current accumulated interest on the invested tokens, that can be withdrawn and payed to the interest receiver.\n     * @param _token address of the invested token contract.\n     * @return amount of accumulated interest.\n     */\n    function interestAmount(address _token) public returns (uint256) {\n        InterestParams storage params = interestParams[_token];\n        (ICToken cToken, uint96 dust) = (params.cToken, params.dust);\n        uint256 balance = cToken.balanceOfUnderlying(address(this));\n        // small portion of tokens are reserved for possible truncation/round errors\n        uint256 reserved = params.investedAmount.add(dust);\n        return balance > reserved ? balance - reserved : 0;\n    }\n\n    /**\n     * @dev Pays collected interest for the underlying token.\n     * Anyone can call this function.\n     * Earned interest is withdrawn and transferred to the specified interest receiver account.\n     * @param _token address of the invested token contract in which interest should be paid.\n     */\n    function payInterest(address _token) external {\n        InterestParams storage params = interestParams[_token];\n        uint256 interest = interestAmount(_token);\n        require(interest >= params.minInterestPaid);\n        _transferInterest(params.interestReceiver, address(_token), _safeWithdraw(_token, interest));\n    }\n\n    /**\n     * @dev Tells the amount of earned COMP tokens for supplying assets into the protocol that can be withdrawn.\n     * Intended to be called via eth_call to obtain the current accumulated value for COMP.\n     * @return amount of accumulated COMP tokens across given markets.\n     */\n    function compAmount(address[] calldata _markets) public returns (uint256) {\n        address[] memory holders = new address[](1);\n        holders[0] = address(this);\n        comptroller().claimComp(holders, _markets, false, true);\n\n        return compToken().balanceOf(address(this));\n    }\n\n    /**\n     * @dev Claims Comp token received by supplying underlying tokens and transfers it to the associated COMP receiver.\n     * @param _markets cTokens addresses to claim COMP for.\n     */\n    function claimCompAndPay(address[] calldata _markets) external {\n        uint256 balance = compAmount(_markets);\n        require(balance >= minCompPaid);\n        _transferInterest(compReceiver, address(compToken()), balance);\n    }\n\n    /**\n     * @dev Last-resort function for returning assets to the Omnibridge contract in case of some failures in the logic.\n     * Disables this contract and transfers locked tokens back to the mediator.\n     * Only owner is allowed to call this method.\n     * @param _token address of the invested token contract that should be disabled.\n     */\n    function forceDisable(address _token) external onlyOwner {\n        InterestParams storage params = interestParams[_token];\n        ICToken cToken = params.cToken;\n\n        uint256 cTokenBalance = cToken.balanceOf(address(this));\n        // try to redeem all cTokens\n        if (cToken.redeem(cTokenBalance) == SUCCESS) {\n            cTokenBalance = 0;\n        } else {\n            // transfer cTokens as-is, if redeem has failed\n            cToken.transfer(mediator, cTokenBalance);\n        }\n\n        uint256 balance = IERC20(_token).balanceOf(address(this));\n        IERC20(_token).transfer(mediator, balance);\n\n        emit ForceDisable(_token, balance, cTokenBalance, params.investedAmount);\n\n        delete params.cToken;\n        delete params.dust;\n        delete params.investedAmount;\n        delete params.minInterestPaid;\n        delete params.interestReceiver;\n    }\n\n    /**\n     * @dev Updates dust parameter for the particular token.\n     * Only owner is allowed to call this method.\n     * @param _token address of the invested token contract.\n     * @param _dust new amount of underlying tokens that cannot be paid as an interest. Accounts for possible truncation errors.\n     */\n    function setDust(address _token, uint96 _dust) external onlyOwner {\n        interestParams[_token].dust = _dust;\n    }\n\n    /**\n     * @dev Updates address of the interest receiver. Can be any address, EOA or contract.\n     * Set to 0x00..00 to disable interest transfers.\n     * Only owner is allowed to call this method.\n     * @param _token address of the invested token contract.\n     * @param _receiver address of the interest receiver.\n     */\n    function setInterestReceiver(address _token, address _receiver) external onlyOwner {\n        interestParams[_token].interestReceiver = _receiver;\n    }\n\n    /**\n     * @dev Updates min interest amount that can be transferred in single call.\n     * Only owner is allowed to call this method.\n     * @param _token address of the invested token contract.\n     * @param _minInterestPaid new amount of TOKENS and can be transferred to the interest receiver in single operation.\n     */\n    function setMinInterestPaid(address _token, uint256 _minInterestPaid) external onlyOwner {\n        interestParams[_token].minInterestPaid = _minInterestPaid;\n    }\n\n    /**\n     * @dev Updates min COMP amount that can be transferred in single call.\n     * Only owner is allowed to call this method.\n     * @param _minCompPaid new amount of COMP and can be transferred to the interest receiver in single operation.\n     */\n    function setMinCompPaid(uint256 _minCompPaid) external onlyOwner {\n        minCompPaid = _minCompPaid;\n    }\n\n    /**\n     * @dev Updates address of the accumulated COMP receiver. Can be any address, EOA or contract.\n     * Set to 0x00..00 to disable COMP claims and transfers.\n     * Only owner is allowed to call this method.\n     * @param _receiver address of the interest receiver.\n     */\n    function setCompReceiver(address _receiver) external onlyOwner {\n        compReceiver = _receiver;\n    }\n\n    /**\n     * @dev Internal function for securely withdrawing assets from the underlying protocol.\n     * @param _token address of the invested token contract.\n     * @param _amount minimal amount of underlying tokens to withdraw from Compound.\n     * @return amount of redeemed tokens, at least as much as was requested.\n     */\n    function _safeWithdraw(address _token, uint256 _amount) private returns (uint256) {\n        uint256 balance = IERC20(_token).balanceOf(address(this));\n\n        require(interestParams[_token].cToken.redeemUnderlying(_amount) == SUCCESS);\n\n        uint256 redeemed = IERC20(_token).balanceOf(address(this)) - balance;\n\n        require(redeemed >= _amount);\n\n        return redeemed;\n    }\n\n    /**\n     * @dev Internal function transferring interest tokens to the interest receiver.\n     * Calls a callback on the receiver, interest receiver is a contract.\n     * @param _receiver address of the tokens receiver.\n     * @param _token address of the token contract to send.\n     * @param _amount amount of tokens to transfer.\n     */\n    function _transferInterest(\n        address _receiver,\n        address _token,\n        uint256 _amount\n    ) internal {\n        require(_receiver != address(0));\n\n        IERC20(_token).transfer(_receiver, _amount);\n\n        if (Address.isContract(_receiver)) {\n            IInterestReceiver(_receiver).onInterestReceived(_token);\n        }\n\n        emit PaidInterest(_token, _receiver, _amount);\n    }\n}\n",
  "sourcePath": "/Users/eabz/Documents/GitHub/tokenbridge/packages/omnibridge/contracts/upgradeable_contracts/modules/interest/CompoundInterestERC20.sol",
  "compiler": {
    "name": "solc",
    "version": "0.7.5+commit.eb77ed08.Emscripten.clang"
  },
  "schemaVersion": "3.4.3",
  "updatedAt": "2021-09-04T01:08:31.360Z",
  "devdoc": {
    "details": "This contract contains token-specific logic for investing ERC20 tokens into Compound protocol.",
    "kind": "dev",
    "methods": {
      "claimCompAndPay(address[])": {
        "details": "Claims Comp token received by supplying underlying tokens and transfers it to the associated COMP receiver.",
        "params": {
          "_markets": "cTokens addresses to claim COMP for."
        }
      },
      "compAmount(address[])": {
        "details": "Tells the amount of earned COMP tokens for supplying assets into the protocol that can be withdrawn. Intended to be called via eth_call to obtain the current accumulated value for COMP.",
        "returns": {
          "_0": "amount of accumulated COMP tokens across given markets."
        }
      },
      "compToken()": {
        "details": "Tells the address of the COMP token in the Ethereum Mainnet."
      },
      "comptroller()": {
        "details": "Tells the address of the Comptroller contract in the Ethereum Mainnet."
      },
      "enableInterestToken(address,uint96,address,uint256)": {
        "details": "Enables support for interest earning through specific cToken.",
        "params": {
          "_cToken": "address of the cToken contract. Underlying token address is derived from this contract.",
          "_dust": "small amount of underlying tokens that cannot be paid as an interest. Accounts for possible truncation errors.",
          "_interestReceiver": "address of the interest receiver for underlying token and associated COMP tokens.",
          "_minInterestPaid": "min amount of underlying tokens to be paid as an interest."
        }
      },
      "forceDisable(address)": {
        "details": "Last-resort function for returning assets to the Omnibridge contract in case of some failures in the logic. Disables this contract and transfers locked tokens back to the mediator. Only owner is allowed to call this method.",
        "params": {
          "_token": "address of the invested token contract that should be disabled."
        }
      },
      "getModuleInterfacesVersion()": {
        "details": "Tells the module interface version that this contract supports.",
        "returns": {
          "major": "value of the version",
          "minor": "value of the version",
          "patch": "value of the version"
        }
      },
      "interestAmount(address)": {
        "details": "Tells the current accumulated interest on the invested tokens, that can be withdrawn and payed to the interest receiver.",
        "params": {
          "_token": "address of the invested token contract."
        },
        "returns": {
          "_0": "amount of accumulated interest."
        }
      },
      "invest(address,uint256)": {
        "details": "Invests the given amount of tokens to the Compound protocol. Only Omnibridge contract is allowed to call this method. Converts _amount of TOKENs into X cTOKENs.",
        "params": {
          "_amount": "amount of tokens to invest.",
          "_token": "address of the invested token contract."
        }
      },
      "investedAmount(address)": {
        "details": "Tells the current amount of underlying tokens that was invested into the Compound protocol.",
        "params": {
          "_token": "address of the underlying token."
        },
        "returns": {
          "_0": "currently invested value."
        }
      },
      "isInterestSupported(address)": {
        "details": "Tells if interest earning is supported for the specific underlying token contract.",
        "params": {
          "_token": "address of the token contract."
        },
        "returns": {
          "_0": "true, if interest earning is supported for the given token."
        }
      },
      "payInterest(address)": {
        "details": "Pays collected interest for the underlying token. Anyone can call this function. Earned interest is withdrawn and transferred to the specified interest receiver account.",
        "params": {
          "_token": "address of the invested token contract in which interest should be paid."
        }
      },
      "setCompReceiver(address)": {
        "details": "Updates address of the accumulated COMP receiver. Can be any address, EOA or contract. Set to 0x00..00 to disable COMP claims and transfers. Only owner is allowed to call this method.",
        "params": {
          "_receiver": "address of the interest receiver."
        }
      },
      "setDust(address,uint96)": {
        "details": "Updates dust parameter for the particular token. Only owner is allowed to call this method.",
        "params": {
          "_dust": "new amount of underlying tokens that cannot be paid as an interest. Accounts for possible truncation errors.",
          "_token": "address of the invested token contract."
        }
      },
      "setInterestReceiver(address,address)": {
        "details": "Updates address of the interest receiver. Can be any address, EOA or contract. Set to 0x00..00 to disable interest transfers. Only owner is allowed to call this method.",
        "params": {
          "_receiver": "address of the interest receiver.",
          "_token": "address of the invested token contract."
        }
      },
      "setMinCompPaid(uint256)": {
        "details": "Updates min COMP amount that can be transferred in single call. Only owner is allowed to call this method.",
        "params": {
          "_minCompPaid": "new amount of COMP and can be transferred to the interest receiver in single operation."
        }
      },
      "setMinInterestPaid(address,uint256)": {
        "details": "Updates min interest amount that can be transferred in single call. Only owner is allowed to call this method.",
        "params": {
          "_minInterestPaid": "new amount of TOKENS and can be transferred to the interest receiver in single operation.",
          "_token": "address of the invested token contract."
        }
      },
      "transferOwnership(address)": {
        "details": "Changes the owner of this contract.",
        "params": {
          "_newOwner": "address of the new owner."
        }
      },
      "withdraw(address,uint256)": {
        "details": "Withdraws at least the given amount of tokens from the Compound protocol. Only Omnibridge contract is allowed to call this method. Converts X cTOKENs into _amount of TOKENs.",
        "params": {
          "_amount": "minimal amount of tokens to withdraw.",
          "_token": "address of the invested token contract."
        }
      }
    },
    "title": "CompoundInterestERC20",
    "version": 1
  },
  "userdoc": {
    "kind": "user",
    "methods": {},
    "version": 1
  }
}