{
  "contractName": "ForeignOmnibridge",
  "abi": [
    {
      "inputs": [
        {
          "internalType": "string",
          "name": "_suffix",
          "type": "string"
        }
      ],
      "stateMutability": "nonpayable",
      "type": "constructor"
    },
    {
      "anonymous": false,
      "inputs": [
        {
          "indexed": true,
          "internalType": "address",
          "name": "token",
          "type": "address"
        },
        {
          "indexed": false,
          "internalType": "uint256",
          "name": "newLimit",
          "type": "uint256"
        }
      ],
      "name": "DailyLimitChanged",
      "type": "event"
    },
    {
      "anonymous": false,
      "inputs": [
        {
          "indexed": true,
          "internalType": "address",
          "name": "token",
          "type": "address"
        },
        {
          "indexed": false,
          "internalType": "uint256",
          "name": "newLimit",
          "type": "uint256"
        }
      ],
      "name": "ExecutionDailyLimitChanged",
      "type": "event"
    },
    {
      "anonymous": false,
      "inputs": [
        {
          "indexed": true,
          "internalType": "bytes32",
          "name": "messageId",
          "type": "bytes32"
        },
        {
          "indexed": false,
          "internalType": "address",
          "name": "token",
          "type": "address"
        },
        {
          "indexed": false,
          "internalType": "address",
          "name": "recipient",
          "type": "address"
        },
        {
          "indexed": false,
          "internalType": "uint256",
          "name": "value",
          "type": "uint256"
        }
      ],
      "name": "FailedMessageFixed",
      "type": "event"
    },
    {
      "anonymous": false,
      "inputs": [
        {
          "indexed": true,
          "internalType": "address",
          "name": "nativeToken",
          "type": "address"
        },
        {
          "indexed": true,
          "internalType": "address",
          "name": "bridgedToken",
          "type": "address"
        }
      ],
      "name": "NewTokenRegistered",
      "type": "event"
    },
    {
      "anonymous": false,
      "inputs": [
        {
          "indexed": false,
          "internalType": "address",
          "name": "previousOwner",
          "type": "address"
        },
        {
          "indexed": false,
          "internalType": "address",
          "name": "newOwner",
          "type": "address"
        }
      ],
      "name": "OwnershipTransferred",
      "type": "event"
    },
    {
      "anonymous": false,
      "inputs": [
        {
          "indexed": true,
          "internalType": "address",
          "name": "token",
          "type": "address"
        },
        {
          "indexed": true,
          "internalType": "address",
          "name": "recipient",
          "type": "address"
        },
        {
          "indexed": false,
          "internalType": "uint256",
          "name": "value",
          "type": "uint256"
        },
        {
          "indexed": true,
          "internalType": "bytes32",
          "name": "messageId",
          "type": "bytes32"
        }
      ],
      "name": "TokensBridged",
      "type": "event"
    },
    {
      "anonymous": false,
      "inputs": [
        {
          "indexed": true,
          "internalType": "address",
          "name": "token",
          "type": "address"
        },
        {
          "indexed": true,
          "internalType": "address",
          "name": "sender",
          "type": "address"
        },
        {
          "indexed": false,
          "internalType": "uint256",
          "name": "value",
          "type": "uint256"
        },
        {
          "indexed": true,
          "internalType": "bytes32",
          "name": "messageId",
          "type": "bytes32"
        }
      ],
      "name": "TokensBridgingInitiated",
      "type": "event"
    },
    {
      "inputs": [],
      "name": "bridgeContract",
      "outputs": [
        {
          "internalType": "contract IAMB",
          "name": "",
          "type": "address"
        }
      ],
      "stateMutability": "view",
      "type": "function"
    },
    {
      "inputs": [
        {
          "internalType": "address",
          "name": "_nativeToken",
          "type": "address"
        }
      ],
      "name": "bridgedTokenAddress",
      "outputs": [
        {
          "internalType": "address",
          "name": "",
          "type": "address"
        }
      ],
      "stateMutability": "view",
      "type": "function"
    },
    {
      "inputs": [
        {
          "internalType": "address",
          "name": "_token",
          "type": "address"
        },
        {
          "internalType": "address",
          "name": "_to",
          "type": "address"
        }
      ],
      "name": "claimTokens",
      "outputs": [],
      "stateMutability": "nonpayable",
      "type": "function"
    },
    {
      "inputs": [
        {
          "internalType": "address",
          "name": "_bridgedToken",
          "type": "address"
        },
        {
          "internalType": "address",
          "name": "_token",
          "type": "address"
        },
        {
          "internalType": "address",
          "name": "_to",
          "type": "address"
        }
      ],
      "name": "claimTokensFromTokenContract",
      "outputs": [],
      "stateMutability": "nonpayable",
      "type": "function"
    },
    {
      "inputs": [
        {
          "internalType": "address",
          "name": "_token",
          "type": "address"
        }
      ],
      "name": "dailyLimit",
      "outputs": [
        {
          "internalType": "uint256",
          "name": "",
          "type": "uint256"
        }
      ],
      "stateMutability": "view",
      "type": "function"
    },
    {
      "inputs": [
        {
          "internalType": "address",
          "name": "_token",
          "type": "address"
        },
        {
          "internalType": "string",
          "name": "_name",
          "type": "string"
        },
        {
          "internalType": "string",
          "name": "_symbol",
          "type": "string"
        },
        {
          "internalType": "uint8",
          "name": "_decimals",
          "type": "uint8"
        },
        {
          "internalType": "address",
          "name": "_recipient",
          "type": "address"
        },
        {
          "internalType": "uint256",
          "name": "_value",
          "type": "uint256"
        }
      ],
      "name": "deployAndHandleBridgedTokens",
      "outputs": [],
      "stateMutability": "nonpayable",
      "type": "function"
    },
    {
      "inputs": [
        {
          "internalType": "address",
          "name": "_token",
          "type": "address"
        },
        {
          "internalType": "string",
          "name": "_name",
          "type": "string"
        },
        {
          "internalType": "string",
          "name": "_symbol",
          "type": "string"
        },
        {
          "internalType": "uint8",
          "name": "_decimals",
          "type": "uint8"
        },
        {
          "internalType": "address",
          "name": "_recipient",
          "type": "address"
        },
        {
          "internalType": "uint256",
          "name": "_value",
          "type": "uint256"
        },
        {
          "internalType": "bytes",
          "name": "_data",
          "type": "bytes"
        }
      ],
      "name": "deployAndHandleBridgedTokensAndCall",
      "outputs": [],
      "stateMutability": "nonpayable",
      "type": "function"
    },
    {
      "inputs": [
        {
          "internalType": "address",
          "name": "_token",
          "type": "address"
        }
      ],
      "name": "disableInterest",
      "outputs": [],
      "stateMutability": "nonpayable",
      "type": "function"
    },
    {
      "inputs": [
        {
          "internalType": "address",
          "name": "_token",
          "type": "address"
        }
      ],
      "name": "executionDailyLimit",
      "outputs": [
        {
          "internalType": "uint256",
          "name": "",
          "type": "uint256"
        }
      ],
      "stateMutability": "view",
      "type": "function"
    },
    {
      "inputs": [
        {
          "internalType": "address",
          "name": "_token",
          "type": "address"
        }
      ],
      "name": "executionMaxPerTx",
      "outputs": [
        {
          "internalType": "uint256",
          "name": "",
          "type": "uint256"
        }
      ],
      "stateMutability": "view",
      "type": "function"
    },
    {
      "inputs": [
        {
          "internalType": "bytes32",
          "name": "_messageId",
          "type": "bytes32"
        }
      ],
      "name": "fixFailedMessage",
      "outputs": [],
      "stateMutability": "nonpayable",
      "type": "function"
    },
    {
      "inputs": [
        {
          "internalType": "address",
          "name": "_token",
          "type": "address"
        },
        {
          "internalType": "address",
          "name": "_receiver",
          "type": "address"
        }
      ],
      "name": "fixMediatorBalance",
      "outputs": [],
      "stateMutability": "nonpayable",
      "type": "function"
    },
    {
      "inputs": [],
      "name": "getBridgeInterfacesVersion",
      "outputs": [
        {
          "internalType": "uint64",
          "name": "major",
          "type": "uint64"
        },
        {
          "internalType": "uint64",
          "name": "minor",
          "type": "uint64"
        },
        {
          "internalType": "uint64",
          "name": "patch",
          "type": "uint64"
        }
      ],
      "stateMutability": "pure",
      "type": "function"
    },
    {
      "inputs": [],
      "name": "getBridgeMode",
      "outputs": [
        {
          "internalType": "bytes4",
          "name": "_data",
          "type": "bytes4"
        }
      ],
      "stateMutability": "pure",
      "type": "function"
    },
    {
      "inputs": [],
      "name": "getCurrentDay",
      "outputs": [
        {
          "internalType": "uint256",
          "name": "",
          "type": "uint256"
        }
      ],
      "stateMutability": "view",
      "type": "function"
    },
    {
      "inputs": [
        {
          "internalType": "address",
          "name": "_token",
          "type": "address"
        },
        {
          "internalType": "address",
          "name": "_recipient",
          "type": "address"
        },
        {
          "internalType": "uint256",
          "name": "_value",
          "type": "uint256"
        }
      ],
      "name": "handleBridgedTokens",
      "outputs": [],
      "stateMutability": "nonpayable",
      "type": "function"
    },
    {
      "inputs": [
        {
          "internalType": "address",
          "name": "_token",
          "type": "address"
        },
        {
          "internalType": "address",
          "name": "_recipient",
          "type": "address"
        },
        {
          "internalType": "uint256",
          "name": "_value",
          "type": "uint256"
        },
        {
          "internalType": "bytes",
          "name": "_data",
          "type": "bytes"
        }
      ],
      "name": "handleBridgedTokensAndCall",
      "outputs": [],
      "stateMutability": "nonpayable",
      "type": "function"
    },
    {
      "inputs": [
        {
          "internalType": "address",
          "name": "_token",
          "type": "address"
        },
        {
          "internalType": "address",
          "name": "_recipient",
          "type": "address"
        },
        {
          "internalType": "uint256",
          "name": "_value",
          "type": "uint256"
        }
      ],
      "name": "handleNativeTokens",
      "outputs": [],
      "stateMutability": "nonpayable",
      "type": "function"
    },
    {
      "inputs": [
        {
          "internalType": "address",
          "name": "_token",
          "type": "address"
        },
        {
          "internalType": "address",
          "name": "_recipient",
          "type": "address"
        },
        {
          "internalType": "uint256",
          "name": "_value",
          "type": "uint256"
        },
        {
          "internalType": "bytes",
          "name": "_data",
          "type": "bytes"
        }
      ],
      "name": "handleNativeTokensAndCall",
      "outputs": [],
      "stateMutability": "nonpayable",
      "type": "function"
    },
    {
      "inputs": [
        {
          "internalType": "address",
          "name": "_token",
          "type": "address"
        },
        {
          "internalType": "address",
          "name": "_impl",
          "type": "address"
        },
        {
          "internalType": "uint256",
          "name": "_minCashThreshold",
          "type": "uint256"
        }
      ],
      "name": "initializeInterest",
      "outputs": [],
      "stateMutability": "nonpayable",
      "type": "function"
    },
    {
      "inputs": [
        {
          "internalType": "address",
          "name": "_token",
          "type": "address"
        }
      ],
      "name": "interestImplementation",
      "outputs": [
        {
          "internalType": "contract IInterestImplementation",
          "name": "",
          "type": "address"
        }
      ],
      "stateMutability": "view",
      "type": "function"
    },
    {
      "inputs": [
        {
          "internalType": "address",
          "name": "_token",
          "type": "address"
        }
      ],
      "name": "invest",
      "outputs": [],
      "stateMutability": "nonpayable",
      "type": "function"
    },
    {
      "inputs": [
        {
          "internalType": "address",
          "name": "_token",
          "type": "address"
        }
      ],
      "name": "isBridgedTokenDeployAcknowledged",
      "outputs": [
        {
          "internalType": "bool",
          "name": "",
          "type": "bool"
        }
      ],
      "stateMutability": "view",
      "type": "function"
    },
    {
      "inputs": [],
      "name": "isInitialized",
      "outputs": [
        {
          "internalType": "bool",
          "name": "",
          "type": "bool"
        }
      ],
      "stateMutability": "view",
      "type": "function"
    },
    {
      "inputs": [
        {
          "internalType": "address",
          "name": "_token",
          "type": "address"
        }
      ],
      "name": "isRegisteredAsNativeToken",
      "outputs": [
        {
          "internalType": "bool",
          "name": "",
          "type": "bool"
        }
      ],
      "stateMutability": "view",
      "type": "function"
    },
    {
      "inputs": [
        {
          "internalType": "address",
          "name": "_token",
          "type": "address"
        }
      ],
      "name": "isTokenRegistered",
      "outputs": [
        {
          "internalType": "bool",
          "name": "",
          "type": "bool"
        }
      ],
      "stateMutability": "view",
      "type": "function"
    },
    {
      "inputs": [
        {
          "internalType": "address",
          "name": "_token",
          "type": "address"
        }
      ],
      "name": "maxAvailablePerTx",
      "outputs": [
        {
          "internalType": "uint256",
          "name": "",
          "type": "uint256"
        }
      ],
      "stateMutability": "view",
      "type": "function"
    },
    {
      "inputs": [
        {
          "internalType": "address",
          "name": "_token",
          "type": "address"
        }
      ],
      "name": "maxPerTx",
      "outputs": [
        {
          "internalType": "uint256",
          "name": "",
          "type": "uint256"
        }
      ],
      "stateMutability": "view",
      "type": "function"
    },
    {
      "inputs": [
        {
          "internalType": "address",
          "name": "_token",
          "type": "address"
        }
      ],
      "name": "mediatorBalance",
      "outputs": [
        {
          "internalType": "uint256",
          "name": "",
          "type": "uint256"
        }
      ],
      "stateMutability": "view",
      "type": "function"
    },
    {
      "inputs": [],
      "name": "mediatorContractOnOtherSide",
      "outputs": [
        {
          "internalType": "address",
          "name": "",
          "type": "address"
        }
      ],
      "stateMutability": "view",
      "type": "function"
    },
    {
      "inputs": [
        {
          "internalType": "bytes32",
          "name": "_messageId",
          "type": "bytes32"
        }
      ],
      "name": "messageFixed",
      "outputs": [
        {
          "internalType": "bool",
          "name": "",
          "type": "bool"
        }
      ],
      "stateMutability": "view",
      "type": "function"
    },
    {
      "inputs": [
        {
          "internalType": "address",
          "name": "_token",
          "type": "address"
        }
      ],
      "name": "minCashThreshold",
      "outputs": [
        {
          "internalType": "uint256",
          "name": "",
          "type": "uint256"
        }
      ],
      "stateMutability": "view",
      "type": "function"
    },
    {
      "inputs": [
        {
          "internalType": "address",
          "name": "_token",
          "type": "address"
        }
      ],
      "name": "minPerTx",
      "outputs": [
        {
          "internalType": "uint256",
          "name": "",
          "type": "uint256"
        }
      ],
      "stateMutability": "view",
      "type": "function"
    },
    {
      "inputs": [
        {
          "internalType": "address",
          "name": "_bridgedToken",
          "type": "address"
        }
      ],
      "name": "nativeTokenAddress",
      "outputs": [
        {
          "internalType": "address",
          "name": "",
          "type": "address"
        }
      ],
      "stateMutability": "view",
      "type": "function"
    },
    {
      "inputs": [
        {
          "internalType": "address",
          "name": "_from",
          "type": "address"
        },
        {
          "internalType": "uint256",
          "name": "_value",
          "type": "uint256"
        },
        {
          "internalType": "bytes",
          "name": "_data",
          "type": "bytes"
        }
      ],
      "name": "onTokenTransfer",
      "outputs": [
        {
          "internalType": "bool",
          "name": "",
          "type": "bool"
        }
      ],
      "stateMutability": "nonpayable",
      "type": "function"
    },
    {
      "inputs": [],
      "name": "owner",
      "outputs": [
        {
          "internalType": "address",
          "name": "",
          "type": "address"
        }
      ],
      "stateMutability": "view",
      "type": "function"
    },
    {
      "inputs": [
        {
          "internalType": "contract IERC677",
          "name": "token",
          "type": "address"
        },
        {
          "internalType": "uint256",
          "name": "_value",
          "type": "uint256"
        }
      ],
      "name": "relayTokens",
      "outputs": [],
      "stateMutability": "nonpayable",
      "type": "function"
    },
    {
      "inputs": [
        {
          "internalType": "contract IERC677",
          "name": "token",
          "type": "address"
        },
        {
          "internalType": "address",
          "name": "_receiver",
          "type": "address"
        },
        {
          "internalType": "uint256",
          "name": "_value",
          "type": "uint256"
        }
      ],
      "name": "relayTokens",
      "outputs": [],
      "stateMutability": "nonpayable",
      "type": "function"
    },
    {
      "inputs": [
        {
          "internalType": "contract IERC677",
          "name": "token",
          "type": "address"
        },
        {
          "internalType": "address",
          "name": "_receiver",
          "type": "address"
        },
        {
          "internalType": "uint256",
          "name": "_value",
          "type": "uint256"
        },
        {
          "internalType": "bytes",
          "name": "_data",
          "type": "bytes"
        }
      ],
      "name": "relayTokensAndCall",
      "outputs": [],
      "stateMutability": "nonpayable",
      "type": "function"
    },
    {
      "inputs": [
        {
          "internalType": "bytes32",
          "name": "_messageId",
          "type": "bytes32"
        }
      ],
      "name": "requestFailedMessageFix",
      "outputs": [],
      "stateMutability": "nonpayable",
      "type": "function"
    },
    {
      "inputs": [],
      "name": "requestGasLimit",
      "outputs": [
        {
          "internalType": "uint256",
          "name": "",
          "type": "uint256"
        }
      ],
      "stateMutability": "view",
      "type": "function"
    },
    {
      "inputs": [
        {
          "internalType": "address",
          "name": "_bridgeContract",
          "type": "address"
        }
      ],
      "name": "setBridgeContract",
      "outputs": [],
      "stateMutability": "nonpayable",
      "type": "function"
    },
    {
      "inputs": [
        {
          "internalType": "address",
          "name": "_nativeToken",
          "type": "address"
        },
        {
          "internalType": "address",
          "name": "_bridgedToken",
          "type": "address"
        }
      ],
      "name": "setCustomTokenAddressPair",
      "outputs": [],
      "stateMutability": "nonpayable",
      "type": "function"
    },
    {
      "inputs": [
        {
          "internalType": "address",
          "name": "_token",
          "type": "address"
        },
        {
          "internalType": "uint256",
          "name": "_dailyLimit",
          "type": "uint256"
        }
      ],
      "name": "setDailyLimit",
      "outputs": [],
      "stateMutability": "nonpayable",
      "type": "function"
    },
    {
      "inputs": [
        {
          "internalType": "address",
          "name": "_token",
          "type": "address"
        },
        {
          "internalType": "uint256",
          "name": "_dailyLimit",
          "type": "uint256"
        }
      ],
      "name": "setExecutionDailyLimit",
      "outputs": [],
      "stateMutability": "nonpayable",
      "type": "function"
    },
    {
      "inputs": [
        {
          "internalType": "address",
          "name": "_token",
          "type": "address"
        },
        {
          "internalType": "uint256",
          "name": "_maxPerTx",
          "type": "uint256"
        }
      ],
      "name": "setExecutionMaxPerTx",
      "outputs": [],
      "stateMutability": "nonpayable",
      "type": "function"
    },
    {
      "inputs": [
        {
          "internalType": "address",
          "name": "_token",
          "type": "address"
        },
        {
          "internalType": "uint256",
          "name": "_maxPerTx",
          "type": "uint256"
        }
      ],
      "name": "setMaxPerTx",
      "outputs": [],
      "stateMutability": "nonpayable",
      "type": "function"
    },
    {
      "inputs": [
        {
          "internalType": "address",
          "name": "_mediatorContract",
          "type": "address"
        }
      ],
      "name": "setMediatorContractOnOtherSide",
      "outputs": [],
      "stateMutability": "nonpayable",
      "type": "function"
    },
    {
      "inputs": [
        {
          "internalType": "address",
          "name": "_token",
          "type": "address"
        },
        {
          "internalType": "uint256",
          "name": "_minCashThreshold",
          "type": "uint256"
        }
      ],
      "name": "setMinCashThreshold",
      "outputs": [],
      "stateMutability": "nonpayable",
      "type": "function"
    },
    {
      "inputs": [
        {
          "internalType": "address",
          "name": "_token",
          "type": "address"
        },
        {
          "internalType": "uint256",
          "name": "_minPerTx",
          "type": "uint256"
        }
      ],
      "name": "setMinPerTx",
      "outputs": [],
      "stateMutability": "nonpayable",
      "type": "function"
    },
    {
      "inputs": [
        {
          "internalType": "uint256",
          "name": "_gasLimit",
          "type": "uint256"
        }
      ],
      "name": "setRequestGasLimit",
      "outputs": [],
      "stateMutability": "nonpayable",
      "type": "function"
    },
    {
      "inputs": [
        {
          "internalType": "address",
          "name": "_tokenFactory",
          "type": "address"
        }
      ],
      "name": "setTokenFactory",
      "outputs": [],
      "stateMutability": "nonpayable",
      "type": "function"
    },
    {
      "inputs": [],
      "name": "tokenFactory",
      "outputs": [
        {
          "internalType": "contract TokenFactory",
          "name": "",
          "type": "address"
        }
      ],
      "stateMutability": "view",
      "type": "function"
    },
    {
      "inputs": [
        {
          "internalType": "address",
          "name": "_token",
          "type": "address"
        },
        {
          "internalType": "uint256",
          "name": "_day",
          "type": "uint256"
        }
      ],
      "name": "totalExecutedPerDay",
      "outputs": [
        {
          "internalType": "uint256",
          "name": "",
          "type": "uint256"
        }
      ],
      "stateMutability": "view",
      "type": "function"
    },
    {
      "inputs": [
        {
          "internalType": "address",
          "name": "_token",
          "type": "address"
        },
        {
          "internalType": "uint256",
          "name": "_day",
          "type": "uint256"
        }
      ],
      "name": "totalSpentPerDay",
      "outputs": [
        {
          "internalType": "uint256",
          "name": "",
          "type": "uint256"
        }
      ],
      "stateMutability": "view",
      "type": "function"
    },
    {
      "inputs": [
        {
          "internalType": "address",
          "name": "newOwner",
          "type": "address"
        }
      ],
      "name": "transferOwnership",
      "outputs": [],
      "stateMutability": "nonpayable",
      "type": "function"
    },
    {
      "inputs": [
        {
          "internalType": "address",
          "name": "_token",
          "type": "address"
        },
        {
          "internalType": "uint256",
          "name": "_amount",
          "type": "uint256"
        }
      ],
      "name": "withinExecutionLimit",
      "outputs": [
        {
          "internalType": "bool",
          "name": "",
          "type": "bool"
        }
      ],
      "stateMutability": "view",
      "type": "function"
    },
    {
      "inputs": [
        {
          "internalType": "address",
          "name": "_token",
          "type": "address"
        },
        {
          "internalType": "uint256",
          "name": "_amount",
          "type": "uint256"
        }
      ],
      "name": "withinLimit",
      "outputs": [
        {
          "internalType": "bool",
          "name": "",
          "type": "bool"
        }
      ],
      "stateMutability": "view",
      "type": "function"
    },
    {
      "inputs": [
        {
          "internalType": "address",
          "name": "_bridgeContract",
          "type": "address"
        },
        {
          "internalType": "address",
          "name": "_mediatorContract",
          "type": "address"
        },
        {
          "internalType": "uint256[3]",
          "name": "_dailyLimitMaxPerTxMinPerTxArray",
          "type": "uint256[3]"
        },
        {
          "internalType": "uint256[2]",
          "name": "_executionDailyLimitExecutionMaxPerTxArray",
          "type": "uint256[2]"
        },
        {
          "internalType": "uint256",
          "name": "_requestGasLimit",
          "type": "uint256"
        },
        {
          "internalType": "address",
          "name": "_owner",
          "type": "address"
        },
        {
          "internalType": "address",
          "name": "_tokenFactory",
          "type": "address"
        }
      ],
      "name": "initialize",
      "outputs": [
        {
          "internalType": "bool",
          "name": "",
          "type": "bool"
        }
      ],
      "stateMutability": "nonpayable",
      "type": "function"
    },
    {
      "inputs": [
        {
          "internalType": "address",
          "name": "_tokenFactory",
          "type": "address"
        }
      ],
      "name": "upgradeToReverseMode",
      "outputs": [],
      "stateMutability": "nonpayable",
      "type": "function"
    }
  ],
  "bytecode": "0x60c06040523480156200001157600080fd5b5060405162005af638038062005af6833981810160405260208110156200003757600080fd5b81019080805160405193929190846401000000008211156200005857600080fd5b9083019060208201858111156200006e57600080fd5b82516401000000008111828201881017156200008957600080fd5b82525081516020918201929091019080838360005b83811015620000b85781810151838201526020016200009e565b50505050905090810190601f168015620000e65780820380516001836020036101000a031916815260200191505b5060405250505080602081511115620000fe57600080fd5b602081015160a052516080525060805160a0516159c76200012f60003980614a6b525080614af052506159c76000f3fe608060405234801561001057600080fd5b50600436106103a45760003560e01c80637610722f116101e9578063be3b625b1161010f578063db6fff8c116100ad578063f2fde38b1161007c578063f2fde38b14611079578063f3b837911461109f578063f3f51415146110bc578063f50dace6146110e2576103a4565b8063db6fff8c14610fed578063e77772fe14611019578063ec47de2a14611021578063f2c54fe81461104d576103a4565b8063cd596583116100e9578063cd59658314610db7578063d0342acd14610dbf578063d522cfd714610ded578063d740548114610f29576103a4565b8063be3b625b14610cc5578063c2173d4314610ccd578063c534576114610cf3576103a4565b80639cb7595a11610187578063ab3a25d911610156578063ab3a25d914610c07578063ab4f5dc514610c33578063ad58bdd114610c69578063ae813e9f14610c9f576103a4565b80639cb7595a14610ac8578063a4b1c24314610afc578063a4b4b23314610b22578063a4c0ed3614610b4e576103a4565b8063867f7a4d116101c3578063867f7a4d146109d7578063871c076014610a9b5780638da5cb5b14610aa35780639a4a439514610aab576103a4565b80637610722f1461095f5780637837cf911461098557806385df73bd146109b1576103a4565b80632ae87cdd116102ce57806340f8dd861161026c57806361c04f841161023b57806361c04f84146108ad57806364696f97146108d357806369ffa08a1461090b5780636e5d6bea14610939576103a4565b806340f8dd861461081f578063437764df146108455780635726ff301461086a5780635933998214610890576103a4565b80632f73a9f8116102a85780632f73a9f8146107bd578063392e53cd146107e35780633a50bc87146107eb5780633e6968b614610817576103a4565b80632ae87cdd146106425780632c3500a6146107285780632d70061f1461077b576103a4565b8063107752381161034657806321d3ccb81161031557806321d3ccb81461059457806326aa101f146105ba578063272255bb146105e05780632803212f14610616576103a4565b806310775238146104d2578063125e4cfb1461051257806316ef191314610548578063194153d31461056e576103a4565b806303f9c7931161038257806303f9c7931461043b5780630950d515146104615780630b26cf661461047e5780630b71a4a7146104a4576103a4565b806301e4f53a146103a957806301fcc1d3146103d7578063032f693f14610403575b600080fd5b6103d5600480360360408110156103bf57600080fd5b506001600160a01b038135169060200135611108565b005b6103d5600480360360408110156103ed57600080fd5b506001600160a01b038135169060200135611147565b6104296004803603602081101561041957600080fd5b50356001600160a01b03166111e6565b60408051918252519081900360200190f35b6103d56004803603602081101561045157600080fd5b50356001600160a01b031661123e565b6103d56004803603602081101561047757600080fd5b50356113e5565b6103d56004803603602081101561049457600080fd5b50356001600160a01b031661148e565b6103d5600480360360408110156104ba57600080fd5b506001600160a01b03813581169160200135166114a2565b6104fe600480360360408110156104e857600080fd5b506001600160a01b038135169060200135611577565b604080519115158252519081900360200190f35b6103d56004803603606081101561052857600080fd5b506001600160a01b038135811691602081013590911690604001356115ea565b6104296004803603602081101561055e57600080fd5b50356001600160a01b0316611624565b6104296004803603602081101561058457600080fd5b50356001600160a01b0316611681565b6103d5600480360360208110156105aa57600080fd5b50356001600160a01b03166116dc565b6104fe600480360360208110156105d057600080fd5b50356001600160a01b03166116f1565b6103d5600480360360608110156105f657600080fd5b506001600160a01b03813581169160208101359091169060400135611704565b6103d56004803603604081101561062c57600080fd5b506001600160a01b038135169060200135611727565b6103d5600480360360c081101561065857600080fd5b6001600160a01b038235169190810190604081016020820135600160201b81111561068257600080fd5b82018360208201111561069457600080fd5b803590602001918460018302840111600160201b831117156106b557600080fd5b919390929091602081019035600160201b8111156106d257600080fd5b8201836020820111156106e457600080fd5b803590602001918460018302840111600160201b8311171561070557600080fd5b919350915060ff813516906001600160a01b0360208201351690604001356117f6565b6104fe600480360361014081101561073f57600080fd5b506001600160a01b0381358116916020810135821691604082019160a081019160e082013591610100810135821691610120909101351661181d565b6107a16004803603602081101561079157600080fd5b50356001600160a01b03166119f1565b604080516001600160a01b039092168252519081900360200190f35b6103d5600480360360208110156107d357600080fd5b50356001600160a01b0316611a57565b6104fe611a5f565b6104fe6004803603604081101561080157600080fd5b506001600160a01b038135169060200135611ab0565b610429611b06565b6104296004803603602081101561083557600080fd5b50356001600160a01b0316611b0f565b61084d611b6e565b604080516001600160e01b03199092168252519081900360200190f35b6104296004803603602081101561088057600080fd5b50356001600160a01b0316611b79565b6104fe600480360360208110156108a657600080fd5b5035611bd5565b6107a1600480360360208110156108c357600080fd5b50356001600160a01b0316611c28565b6103d5600480360360608110156108e957600080fd5b506001600160a01b038135811691602081013582169160409091013516611c91565b6103d56004803603604081101561092157600080fd5b506001600160a01b0381358116916020013516611d16565b6103d56004803603602081101561094f57600080fd5b50356001600160a01b0316611d4d565b6104296004803603602081101561097557600080fd5b50356001600160a01b0316611d5e565b6103d56004803603604081101561099b57600080fd5b506001600160a01b038135169060200135611db8565b6107a1600480360360208110156109c757600080fd5b50356001600160a01b0316611e90565b6103d5600480360360808110156109ed57600080fd5b6001600160a01b03823581169260208101359091169160408201359190810190608081016060820135600160201b811115610a2757600080fd5b820183602082011115610a3957600080fd5b803590602001918460018302840111600160201b83111715610a5a57600080fd5b91908080601f016020809104026020016040519081016040528093929190818152602001838380828437600092019190915250929550611eef945050505050565b6107a1611f19565b6107a1611f70565b6103d560048036036020811015610ac157600080fd5b5035611fc7565b610ad06121bc565b6040805167ffffffffffffffff9485168152928416602084015292168183015290519081900360600190f35b61042960048036036020811015610b1257600080fd5b50356001600160a01b03166121c7565b6103d560048036036040811015610b3857600080fd5b506001600160a01b03813516906020013561221b565b6104fe60048036036060811015610b6457600080fd5b6001600160a01b0382351691602081013591810190606081016040820135600160201b811115610b9357600080fd5b820183602082011115610ba557600080fd5b803590602001918460018302840111600160201b83111715610bc657600080fd5b91908080601f01602080910402602001604051908101604052809392919081815260200183838082843760009201919091525092955061222d945050505050565b61042960048036036040811015610c1d57600080fd5b506001600160a01b038135169060200135612294565b6103d560048036036060811015610c4957600080fd5b506001600160a01b038135811691602081013590911690604001356122fa565b6103d560048036036060811015610c7f57600080fd5b506001600160a01b03813581169160208101359091169060400135612334565b6104fe60048036036020811015610cb557600080fd5b50356001600160a01b0316612342565b61042961239b565b6104fe60048036036020811015610ce357600080fd5b50356001600160a01b03166123e9565b6103d560048036036080811015610d0957600080fd5b6001600160a01b03823581169260208101359091169160408201359190810190608081016060820135600160201b811115610d4357600080fd5b820183602082011115610d5557600080fd5b803590602001918460018302840111600160201b83111715610d7657600080fd5b91908080601f016020809104026020016040519081016040528093929190818152602001838380828437600092019190915250929550612416945050505050565b6107a1612456565b6103d560048036036040811015610dd557600080fd5b506001600160a01b03813581169160200135166124ad565b6103d5600480360360e0811015610e0357600080fd5b6001600160a01b038235169190810190604081016020820135600160201b811115610e2d57600080fd5b820183602082011115610e3f57600080fd5b803590602001918460018302840111600160201b83111715610e6057600080fd5b919390929091602081019035600160201b811115610e7d57600080fd5b820183602082011115610e8f57600080fd5b803590602001918460018302840111600160201b83111715610eb057600080fd5b9193909260ff833516926001600160a01b03602082013516926040820135929091608081019060600135600160201b811115610eeb57600080fd5b820183602082011115610efd57600080fd5b803590602001918460018302840111600160201b83111715610f1e57600080fd5b50909250905061256c565b6103d560048036036080811015610f3f57600080fd5b6001600160a01b03823581169260208101359091169160408201359190810190608081016060820135600160201b811115610f7957600080fd5b820183602082011115610f8b57600080fd5b803590602001918460018302840111600160201b83111715610fac57600080fd5b91908080601f0160208091040260200160405190810160405280939291908181526020018383808284376000920191909152509295506125e2945050505050565b6103d56004803603604081101561100357600080fd5b506001600160a01b0381351690602001356125ee565b6107a161268b565b6103d56004803603604081101561103757600080fd5b506001600160a01b0381351690602001356126e2565b6104296004803603604081101561106357600080fd5b506001600160a01b038135169060200135612783565b6103d56004803603602081101561108f57600080fd5b50356001600160a01b03166127ec565b6103d5600480360360208110156110b557600080fd5b50356127fd565b610429600480360360208110156110d257600080fd5b50356001600160a01b031661280e565b6103d5600480360360208110156110f857600080fd5b50356001600160a01b0316612864565b6111438233836000805b506040519080825280601f01601f19166020018201604052801561113d576020820181803683370190505b506128f0565b5050565b61114f612a51565b611158826116f1565b61116157600080fd5b8015806111805750600081118015611180575061117d82611b0f565b81105b61118957600080fd5b60408051700caf0cac6eae8d2dedc9ac2f0a0cae4a8f607b1b60208083019190915260609490941b6001600160601b0319166031820152815180820360250181526045909101825280519084012060009081529283905290912055565b60408051670dac2f0a0cae4a8f60c31b6020808301919091526001600160601b0319606085901b1660288301528251601c818403018152603c909201835281519181019190912060009081529081905220545b919050565b600061124982611e90565b905060006112d8826001600160a01b031663cff77444856040518263ffffffff1660e01b815260040180826001600160a01b0316815260200191505060206040518083038186803b15801561129d57600080fd5b505afa1580156112b1573d6000803e3d6000fd5b505050506040513d60208110156112c757600080fd5b50516112d285611681565b90612a78565b905060006112e584611b79565b90508082116112f357600080fd5b6040805163a9059cbb60e01b81526001600160a01b0385811660048301528385036024830181905292519087169163a9059cbb9160448083019260209291908290030181600087803b15801561134857600080fd5b505af115801561135c573d6000803e3d6000fd5b505050506040513d602081101561137257600080fd5b505060408051635cdc612360e11b81526001600160a01b0387811660048301526024820184905291519186169163b9b8c2469160448082019260009290919082900301818387803b1580156113c657600080fd5b505af11580156113da573d6000803e3d6000fd5b505050505050505050565b6113ed612ac1565b6113f681611bd5565b1561140057600080fd5b600061140b82612b6b565b9050600061141883612bc4565b9050600061142584612c21565b905061143084612c70565b61143b838383612cc9565b604080516001600160a01b03808616825284166020820152808201839052905185917f07b5483b8e4bd8ea240a474d5117738350e7d431e3668c48a97910b0b397796a919081900360600190a250505050565b611496612a51565b61149f81612cea565b50565b6114aa612a51565b6114b3816116f1565b156114bd57600080fd5b60006114c882611c28565b6001600160a01b0316146114db57600080fd5b60006114e6836119f1565b6001600160a01b0316146114f957600080fd5b61150e6001600160a01b038216306001612d66565b806001600160a01b03166342966c6860016040518263ffffffff1660e01b815260040180828152602001915050600060405180830381600087803b15801561155557600080fd5b505af1158015611569573d6000803e3d6000fd5b505050506111438282612df2565b6000806115958361158f8661158a611b06565b612294565b90612eed565b905060006115a3600061280e565b1180156115b85750806115b58561280e565b10155b80156115cc57506115c8846111e6565b8311155b80156115e057506115dc846121c7565b8310155b9150505b92915050565b6115f2612ac1565b60006115fd846119f1565b9050611608816116f1565b61161157600080fd5b61161e8160008585612f47565b50505050565b60408051700caf0cac6eae8d2dedc9ac2f0a0cae4a8f607b1b60208083019190915260609390931b6001600160601b0319166031820152815180820360250181526045909101825280519083012060009081529182905290205490565b604080516e6d65646961746f7242616c616e636560881b60208083019190915260609390931b6001600160601b031916602f820152815180820360230181526043909101825280519083012060009081529182905290205490565b3330146116e857600080fd5b61149f81612fe4565b6000806116fd836121c7565b1192915050565b61170c612ac1565b61171583613060565b6117228360018484612f47565b505050565b61172f612a51565b611738826116f1565b61174157600080fd5b61174a826111e6565b811180611755575080155b61175e57600080fd5b604080516919185a5b1e531a5b5a5d60b21b6020808301919091526001600160601b0319606086901b16602a8301528251601e818403018152603e83018085528151918301919091206000908152918290529083902084905583905290516001600160a01b038416917fca0b3dabefdbd8c72c0a9cf4a6e9d107da897abf036ef3f3f3b010cdd25941599190819003605e0190a25050565b6117fe612ac1565b600061180e89898989898961311c565b90506113da8160008585612f47565b60408051600481526024810182526020810180516001600160e01b03166337ef410160e11b1781529151815160009384936060933093919290918291908083835b6020831061187d5780518252601f19909201916020918201910161185e565b6001836020036101000a038019825116818451168082178552505050505050905001915050600060405180830381855afa9150503d80600081146118dd576040519150601f19603f3d011682016040523d82523d6000602084013e6118e2565b606091505b509150915081158061191e57508051602014801561191e575080806020019051602081101561191057600080fd5b50516001600160a01b031633145b8061192857503330145b61193157600080fd5b611939611a5f565b1561194357600080fd5b61194c8a612cea565b6119558961346a565b61198960008960038060200260405190810160405280929190826003602002808284376000920191909152506134d4915050565b6040805180820182526119b891600091908a906002908390839080828437600092019190915250613628915050565b6119c186613717565b6119ca85613778565b6119d384612fe4565b6119db613840565b6119e3611a5f565b9a9950505050505050505050565b604080516f686f6d65546f6b656e4164647265737360801b60208083019190915260609390931b6001600160601b03191660308201528151808203602401815260449091018252805190830120600090815260029092529020546001600160a01b031690565b6116e8612a51565b7f0a6f646cd611241d8073675e00d1a1ff700fbf1b53fcf473de56d1e6e4b714ba60005260046020527f078d888f9b66f3f8bfa10909e31f1e16240db73449f0500afdbbe3a70da457cc5460ff1690565b600080611ac88361158f86611ac3611b06565b612783565b90506000611ad66000611b0f565b118015611aeb575080611ae885611b0f565b10155b80156115e05750611afb84611624565b909211159392505050565b62015180420490565b6040805172195e1958dd5d1a5bdb91185a5b1e531a5b5a5d606a1b60208083019190915260609390931b6001600160601b0319166033820152815180820360270181526047909101825280519083012060009081529182905290205490565b6358a8b61360e11b90565b604080516f1b5a5b90d85cda151a1c995cda1bdb1960821b60208083019190915260609390931b6001600160601b0319166030820152815180820360240181526044909101825280519083012060009081529182905290205490565b604080516b1b595cdcd859d9519a5e195960a21b602080830191909152602c80830185905283518084039091018152604c909201835281519181019190912060009081526004909152205460ff16919050565b6040805172666f726569676e546f6b656e4164647265737360681b60208083019190915260609390931b6001600160601b03191660338201528151808203602701815260479091018252805190830120600090815260029092529020546001600160a01b031690565b611c99613897565b826001600160a01b03166369ffa08a83836040518363ffffffff1660e01b815260040180836001600160a01b03168152602001826001600160a01b0316815260200192505050600060405180830381600087803b158015611cf957600080fd5b505af1158015611d0d573d6000803e3d6000fd5b50505050505050565b611d1e613897565b6001600160a01b0382161580611d3a5750611d38826116f1565b155b611d4357600080fd5b6111438282613910565b611d55612a51565b61149f8161346a565b600080611d6a836111e6565b90506000611d778461280e565b90506000611d878561158a611b06565b90506000818311611d99576000611d9d565b8183035b9050808410611dac5780611dae565b835b9695505050505050565b611dc0612a51565b611dc9826116f1565b611dd257600080fd5b611ddb82611624565b811180611de6575080155b611def57600080fd5b6040805172195e1958dd5d1a5bdb91185a5b1e531a5b5a5d606a1b6020808301919091526001600160601b0319606086901b16603383015282516027818403018152604783018085528151918301919091206000908152918290529083902084905583905290516001600160a01b038416917f4c177b42dbe934b3abbc0208c11a42e46589983431616f1710ab19969c5ed62e919081900360670190a25050565b604080516b1a5b9d195c995cdd125b5c1b60a21b60208083019190915260609390931b6001600160601b031916602c8201528151808203840181529082018252805190830120600090815260029092529020546001600160a01b031690565b611ef7612ac1565b611f0084613060565b611f0d8460018585612f47565b61161e8385848461394a565b7f98aa806e31e94a687a31c65769cb99670064dd7f5a87526da075c5fb4eab988060005260026020527f0c1206883be66049a02d4937078367c00b3d71dd1a9465df969363c6ddeac96d546001600160a01b031690565b7f02016836a56b71f0d02689e69e326f4f4c1b9057164ef592671cf0d37c8040c060005260026020527fb7802e97e87ef2842a6cce7da7ffaeaedaa2f61a6a7870b23d9d01fc9b73712e546001600160a01b031690565b6000611fd1612456565b9050806001600160a01b031663cb08a10c836040518263ffffffff1660e01b81526004018082815260200191505060206040518083038186803b15801561201757600080fd5b505afa15801561202b573d6000803e3d6000fd5b505050506040513d602081101561204157600080fd5b50511561204d57600080fd5b306001600160a01b0316816001600160a01b0316633f9a8e7e846040518263ffffffff1660e01b81526004018082815260200191505060206040518083038186803b15801561209b57600080fd5b505afa1580156120af573d6000803e3d6000fd5b505050506040513d60208110156120c557600080fd5b50516001600160a01b0316146120da57600080fd5b6120e2611f19565b6001600160a01b0316816001600160a01b0316634a610b04846040518263ffffffff1660e01b81526004018082815260200191505060206040518083038186803b15801561212f57600080fd5b505afa158015612143573d6000803e3d6000fd5b505050506040513d602081101561215957600080fd5b50516001600160a01b03161461216e57600080fd5b6040805160248082018590528251808303909101815260449091019091526020810180516001600160e01b0316630950d51560e01b908117909152906121b5816001613ab7565b5050505050565b600360026000909192565b60408051670dad2dca0cae4a8f60c31b60208083019190915260609390931b6001600160601b03191660288201528151808203601c018152603c909101825280519083012060009081529182905290205490565b612223612a51565b6111438282613bc2565b6000612237613c1e565b61228a576040805160008152602081019091528251859060141161227a5761225e84613c43565b905060148451111561227a578351601319016014850190815291505b6122873387838886613c4a565b50505b5060019392505050565b604080516f746f74616c5370656e7450657244617960801b60208083019190915260609490941b6001600160601b031916603082015260448082019390935281518082039093018352606401815281519183019190912060009081529182905290205490565b612302612a51565b600061230d84611e90565b6001600160a01b03161461232057600080fd5b61232a8383613ce3565b6117228382613bc2565b611722838383600080611112565b604080516861636b4465706c6f7960b81b60208083019190915260609390931b6001600160601b03191660298201528151808203601d018152603d90910182528051908301206000908152600490925290205460ff1690565b7f2dfd6c9f781bb6bbb5369c114e949b69ebb440ef3d4dd6b2836225eb1dc3a2be60009081526020527f2de0d2cdc19d356cb53b5984f91bfd3b31fe0c678a0d190a6db39274bb34753f5490565b60006123f4826116f1565b80156115e45750600061240683611c28565b6001600160a01b03161492915050565b61241e612ac1565b6000612429856119f1565b9050612434816116f1565b61243d57600080fd5b61244a8160008686612f47565b6121b58482858561394a565b7f811bbb11e8899da471f0e69a3ed55090fc90215227fc5fb1cb0d6e962ea7b74f60005260026020527fb4ed64697d3ef8518241966f7c6f28b0d72f20f51198717d198d2d55076c593d546001600160a01b031690565b6124b5613897565b806001600160a01b0381166124c957600080fd5b6124d2836123e9565b6124db57600080fd5b60006124e684613de9565b9050600081116124f557600080fd5b600061250085611d5e565b90506000811161250f57600080fd5b8082111561251b578091505b61252d85612527611b06565b84613ee7565b6040805160008082526020820190925260609161254f91889088908790613f65565b9050600061255e826001613ab7565b9050611d0d818888876145e0565b612574612ac1565b60006125848b8b8b8b8b8b61311c565b90506125938160008787612f47565b6125d585828686868080601f01602080910402602001604051908101604052809392919081815260200183838082843760009201919091525061394a92505050565b5050505050505050505050565b61161e848484846128f0565b6125f6612a51565b6125ff826116f1565b61260857600080fd5b80158061262e5750612619826121c7565b8111801561262e575061262b8261280e565b81105b61263757600080fd5b60408051670dac2f0a0cae4a8f60c31b60208083019190915260609490941b6001600160601b03191660288201528151808203601c018152603c909101825280519084012060009081529283905290912055565b7f269c5905f777ee6391c7a361d17039a7d62f52ba9fffeb98c5ade342705731a360005260026020527f15c764a0cd4bb3d72a49abedd3d6793c3b93c0d57f43174a348b443be86f79c1546001600160a01b031690565b6126ea612a51565b6126f3826116f1565b6126fc57600080fd5b60008111801561271357506127108261280e565b81105b80156127265750612723826111e6565b81105b61272f57600080fd5b60408051670dad2dca0cae4a8f60c31b60208083019190915260609490941b6001600160601b03191660288201528151808203601c018152603c909101825280519084012060009081529283905290912055565b6040805172746f74616c457865637574656450657244617960681b60208083019190915260609490941b6001600160601b031916603382015260478082019390935281518082039093018352606701815281519183019190912060009081529182905290205490565b6127f4612a51565b61149f81613778565b612805612a51565b61149f81613717565b604080516919185a5b1e531a5b5a5d60b21b60208083019190915260609390931b6001600160601b031916602a8201528151808203601e018152603e909101825280519083012060009081529182905290205490565b61286c612a51565b61287581611e90565b6001600160a01b031663f3fef3a3826000196040518363ffffffff1660e01b815260040180836001600160a01b0316815260200182815260200192505050600060405180830381600087803b1580156128cd57600080fd5b505af11580156128e1573d6000803e3d6000fd5b5050505061149f816000613ce3565b6128f8613c1e565b1561290257600080fd5b6000846001600160a01b03166370a08231306040518263ffffffff1660e01b815260040180826001600160a01b0316815260200191505060206040518083038186803b15801561295157600080fd5b505afa158015612965573d6000803e3d6000fd5b505050506040513d602081101561297b57600080fd5b505190506129896001614650565b61299e6001600160a01b038616333086614674565b6129a86000614650565b6000612a2d82876001600160a01b03166370a08231306040518263ffffffff1660e01b815260040180826001600160a01b0316815260200191505060206040518083038186803b1580156129fb57600080fd5b505afa158015612a0f573d6000803e3d6000fd5b505050506040513d6020811015612a2557600080fd5b505190612a78565b905083811115612a3c57600080fd5b612a498633878487613c4a565b505050505050565b612a59611f70565b6001600160a01b0316336001600160a01b031614612a7657600080fd5b565b6000612aba83836040518060400160405280601e81526020017f536166654d6174683a207375627472616374696f6e206f766572666c6f7700008152506146ce565b9392505050565b6000612acb612456565b9050336001600160a01b03821614612ae257600080fd5b612aea611f19565b6001600160a01b0316816001600160a01b031663d67bdd256040518163ffffffff1660e01b815260040160206040518083038186803b158015612b2c57600080fd5b505afa158015612b40573d6000803e3d6000fd5b505050506040513d6020811015612b5657600080fd5b50516001600160a01b03161461149f57600080fd5b604080516b36b2b9b9b0b3b2aa37b5b2b760a11b602080830191909152602c80830185905283518084039091018152604c90920183528151918101919091206000908152600290915220546001600160a01b0316919050565b604080516f1b595cdcd859d9549958da5c1a595b9d60821b602080830191909152603080830185905283518084039091018152605090920183528151918101919091206000908152600290915220546001600160a01b0316919050565b604080516b6d65737361676556616c756560a01b602080830191909152602c80830185905283518084039091018152604c90920183528151918101919091206000908152908190522054919050565b604080516b1b595cdcd859d9519a5e195960a21b602080830191909152602c8083019490945282518083039094018452604c9091018252825192810192909220600090815260049092529020805460ff19166001179055565b6117226000612cd785611c28565b6001600160a01b03161484848485614765565b612cf381614938565b612cfc57600080fd5b7f811bbb11e8899da471f0e69a3ed55090fc90215227fc5fb1cb0d6e962ea7b74f60005260026020527fb4ed64697d3ef8518241966f7c6f28b0d72f20f51198717d198d2d55076c593d80546001600160a01b0319166001600160a01b0392909216919091179055565b826001600160a01b03166340c10f1983836040518363ffffffff1660e01b815260040180836001600160a01b0316815260200182815260200192505050602060405180830381600087803b158015612dbd57600080fd5b505af1158015612dd1573d6000803e3d6000fd5b505050506040513d6020811015612de757600080fd5b505161172257600080fd5b604080516f686f6d65546f6b656e4164647265737360801b6020808301919091526001600160601b0319606086811b82166030850152845160248186030181526044850186528051908401206000908152600280855286822080546001600160a01b03808b166001600160a01b0319928316811790935572666f726569676e546f6b656e4164647265737360681b60648a0152948a901b90951660778801528751606b818903018152608b909701808952875197870197909720835294529485208054909216908716908117909155909290917f78d063210f4fb6b4cc932390bb8045fa2465e51349590182dab8b9e84c57a6ee9190a35050565b600082820183811015612aba576040805162461bcd60e51b815260206004820152601b60248201527f536166654d6174683a206164646974696f6e206f766572666c6f770000000000604482015290519081900360640190fd5b612f4f613c1e565b15612f5957600080fd5b612f638482611ab0565b612f6c57600080fd5b612f7e84612f78611b06565b83614971565b612f8b8385848485614765565b612f936149f2565b826001600160a01b0316856001600160a01b03167f9afd47907e25028cdaca89d193518c302bbb128617d5a992c5abd45815526593846040518082815260200191505060405180910390a450505050565b612fed81614938565b612ff657600080fd5b7f269c5905f777ee6391c7a361d17039a7d62f52ba9fffeb98c5ade342705731a360005260026020527f15c764a0cd4bb3d72a49abedd3d6793c3b93c0d57f43174a348b443be86f79c180546001600160a01b0319166001600160a01b0392909216919091179055565b604080516861636b4465706c6f7960b81b6020808301919091526001600160601b0319606085901b1660298301528251601d818403018152603d909201835281519181019190912060009081526004909152205460ff1661149f57604080516861636b4465706c6f7960b81b6020808301919091526001600160601b0319606085901b1660298301528251601d818403018152603d90920183528151918101919091206000908152600490915220805460ff1916600117905550565b600080613128886119f1565b90506001600160a01b0381166133cf57606087878080601f01602080910402602001604051908101604052809392919081815260200183838082843760009201919091525050604080516020601f8b01819004810282018101909252898152939450606093925089915088908190840183828082843760009201919091525050845192935050501515806131bd575060008151115b6131c657600080fd5b81516131d4578091506131dd565b80516131dd5750805b6131e682614a65565b91506131f061268b565b6001600160a01b031663a39d6acf838388613209612456565b6001600160a01b0316631544298e6040518163ffffffff1660e01b815260040160206040518083038186803b15801561324157600080fd5b505afa158015613255573d6000803e3d6000fd5b505050506040513d602081101561326b57600080fd5b50516040516001600160e01b031960e087901b16815260ff831660448201526064810182905260806004820190815285516084830152855190918291602482019160a40190602089019080838360005b838110156132d35781810151838201526020016132bb565b50505050905090810190601f1680156133005780820380516001836020036101000a031916815260200191505b50838103825286518152865160209182019188019080838360005b8381101561333357818101518382015260200161331b565b50505050905090810190601f1680156133605780820380516001836020036101000a031916815260200191505b509650505050505050602060405180830381600087803b15801561338357600080fd5b505af1158015613397573d6000803e3d6000fd5b505050506040513d60208110156133ad57600080fd5b505192506133bb8a84612df2565b6133c8838660ff16614b1a565b505061345f565b6133d8816116f1565b61345f578260ff16816001600160a01b031663313ce5676040518163ffffffff1660e01b815260040160206040518083038186803b15801561341957600080fd5b505afa15801561342d573d6000803e3d6000fd5b505050506040513d602081101561344357600080fd5b505160ff161461345257600080fd5b61345f818460ff16614b1a565b979650505050505050565b7f98aa806e31e94a687a31c65769cb99670064dd7f5a87526da075c5fb4eab988060005260026020527f0c1206883be66049a02d4937078367c00b3d71dd1a9465df969363c6ddeac96d80546001600160a01b0319166001600160a01b0392909216919091179055565b6040810151158015906134ee575060408101516020820151115b80156134fe575060208101518151115b61350757600080fd5b8051604080516919185a5b1e531a5b5a5d60b21b602082810191909152606086901b6001600160601b031916602a83018190528351808403601e018152603e8401855280519083012060009081528083528481209590955581860151670dac2f0a0cae4a8f60c31b605e850152606684018290528451605a818603018152607a8501865280519084012086528583528486205583860151670dad2dca0cae4a8f60c31b609a85015260a28401919091528351609681850301815260b690930184528251928201929092208452839052908220556001600160a01b038316907fca0b3dabefdbd8c72c0a9cf4a6e9d107da897abf036ef3f3f3b010cdd25941599083905b60200201516040518082815260200191505060405180910390a25050565b805160208201511061363957600080fd5b80516040805172195e1958dd5d1a5bdb91185a5b1e531a5b5a5d606a1b602082810191909152606086901b6001600160601b031916603383018190528351808403602701815260478401855280519083012060009081528083528481209590955581860151700caf0cac6eae8d2dedc9ac2f0a0cae4a8f607b1b606785015260788401919091528351606c818503018152608c90930184528251928201929092208452839052908220556001600160a01b038316907f4c177b42dbe934b3abbc0208c11a42e46589983431616f1710ab19969c5ed62e90839061360a565b61371f614c9e565b81111561372b57600080fd5b7f2dfd6c9f781bb6bbb5369c114e949b69ebb440ef3d4dd6b2836225eb1dc3a2be60009081526020527f2de0d2cdc19d356cb53b5984f91bfd3b31fe0c678a0d190a6db39274bb34753f55565b6001600160a01b03811661378b57600080fd5b7f8be0079c531659141344cd1fd0a4f28419497f9722a3daafe3b4186f6b6457e06137b4611f70565b604080516001600160a01b03928316815291841660208301528051918290030190a17f02016836a56b71f0d02689e69e326f4f4c1b9057164ef592671cf0d37c8040c060005260026020527fb7802e97e87ef2842a6cce7da7ffaeaedaa2f61a6a7870b23d9d01fc9b73712e80546001600160a01b0319166001600160a01b0392909216919091179055565b7f0a6f646cd611241d8073675e00d1a1ff700fbf1b53fcf473de56d1e6e4b714ba60005260046020527f078d888f9b66f3f8bfa10909e31f1e16240db73449f0500afdbbe3a70da457cc805460ff19166001179055565b306001600160a01b0316636fde82026040518163ffffffff1660e01b815260040160206040518083038186803b1580156138d057600080fd5b505afa1580156138e4573d6000803e3d6000fd5b505050506040513d60208110156138fa57600080fd5b50516001600160a01b03163314612a7657600080fd5b806001600160a01b03811661392457600080fd5b6001600160a01b0383166139405761393b82614ce0565b611722565b6117228383614ceb565b61395384614938565b1561161e57836001600160a01b031663db7af85460e01b84848460405160240180846001600160a01b0316815260200183815260200180602001828103825283818151815260200191508051906020019080838360005b838110156139c25781810151838201526020016139aa565b50505050905090810190601f1680156139ef5780820380516001836020036101000a031916815260200191505b5060408051601f198184030181529181526020820180516001600160e01b03166001600160e01b031990991698909817885251815191979096508695509350915081905083835b60208310613a555780518252601f199092019160209182019101613a36565b6001836020036101000a0380198251168184511680821785525050505050509050019150506000604051808303816000865af19150503d8060008114611d0d576040519150601f19603f3d011682016040523d82523d6000602084013e611d0d565b6000613ac1612456565b6001600160a01b031663dc8601b3613ad7611f19565b85613ae061239b565b6040518463ffffffff1660e01b815260040180846001600160a01b0316815260200180602001838152602001828103825284818151815260200191508051906020019080838360005b83811015613b41578181015183820152602001613b29565b50505050905090810190601f168015613b6e5780820380516001836020036101000a031916815260200191505b50945050505050602060405180830381600087803b158015613b8f57600080fd5b505af1158015613ba3573d6000803e3d6000fd5b505050506040513d6020811015613bb957600080fd5b50519392505050565b604080516f1b5a5b90d85cda151a1c995cda1bdb1960821b60208083019190915260609490941b6001600160601b0319166030820152815180820360240181526044909101825280519084012060009081529283905290912055565b7f6168652c307c1e813ca11cfb3a601f1cf3b22452021a5052d8b05f1f1f8a3e925490565b6014015190565b6001600160a01b03831615801590613c7b5750613c65611f19565b6001600160a01b0316836001600160a01b031614155b613c8457600080fd5b613c8d856116f1565b613cad576000613c9c86614d78565b9050613cab868260ff16614b1a565b505b613cb78583611577565b613cc057600080fd5b613ccc85612527611b06565b606061254f613cda87611c28565b87868686613f65565b6001600160a01b0381161580613d6e5750806001600160a01b031663bdd378a0836040518263ffffffff1660e01b815260040180826001600160a01b0316815260200191505060206040518083038186803b158015613d4157600080fd5b505afa158015613d55573d6000803e3d6000fd5b505050506040513d6020811015613d6b57600080fd5b50515b613d7757600080fd5b604080516b1a5b9d195c995cdd125b5c1b60a21b60208083019190915260609490941b6001600160601b031916602c82015281518082038501815290820182528051908401206000908152600290935290912080546001600160a01b0319166001600160a01b03909216919091179055565b600080613df583611e90565b90506000613e0282614938565b613e0d576000613e87565b816001600160a01b031663cff77444856040518263ffffffff1660e01b815260040180826001600160a01b0316815260200191505060206040518083038186803b158015613e5a57600080fd5b505afa158015613e6e573d6000803e3d6000fd5b505050506040513d6020811015613e8457600080fd5b50515b9050613edf613e99826112d287611681565b604080516370a0823160e01b815230600482015290516001600160a01b038816916370a08231916024808301926020929190829003018186803b1580156129fb57600080fd5b949350505050565b613ef58161158f8585612294565b600080858560405160200180806f746f74616c5370656e7450657244617960801b815250601001836001600160a01b031660601b81526014018281526020019250505060405160208183030381529060405280519060200120815260200190815260200160002081905550505050565b606060008083511180613f8a57506000356001600160e01b03191663d740548160e01b145b90506001600160a01b03871661444557613fb086613fab8661158f8a611681565b614f46565b613fb986612342565b156140f6578061401757604080516001600160a01b0380891660248301528716604482015260648082018790528251808303909101815260849091019091526020810180516001600160e01b031663125e4cfb60e01b1790526140ee565b63c534576160e01b8686868660405160240180856001600160a01b03168152602001846001600160a01b0316815260200183815260200180602001828103825283818151815260200191508051906020019080838360005b8381101561408757818101518382015260200161406f565b50505050905090810190601f1680156140b45780820380516001836020036101000a031916815260200191505b5060408051601f198184030181529190526020810180516001600160e01b03166001600160e01b0319909916989098179097525050505050505b9150506145d7565b600061410187614d78565b9050606061410e88614fa1565b9050606061411b89615167565b905060008251118061412e575060008151115b61413757600080fd5b8361428a57632ae87cdd60e01b898383868c8c60405160240180876001600160a01b0316815260200180602001806020018660ff168152602001856001600160a01b03168152602001848152602001838103835288818151815260200191508051906020019080838360005b838110156141bb5781810151838201526020016141a3565b50505050905090810190601f1680156141e85780820380516001836020036101000a031916815260200191505b50838103825287518152875160209182019189019080838360005b8381101561421b578181015183820152602001614203565b50505050905090810190601f1680156142485780820380516001836020036101000a031916815260200191505b5060408051601f198184030181529190526020810180516001600160e01b03166001600160e01b0319909c169b909b17909a525061443a975050505050505050565b63d522cfd760e01b898383868c8c8c60405160240180886001600160a01b0316815260200180602001806020018760ff168152602001866001600160a01b031681526020018581526020018060200184810384528a818151815260200191508051906020019080838360005b8381101561430e5781810151838201526020016142f6565b50505050905090810190601f16801561433b5780820380516001836020036101000a031916815260200191505b5084810383528951815289516020918201918b019080838360005b8381101561436e578181015183820152602001614356565b50505050905090810190601f16801561439b5780820380516001836020036101000a031916815260200191505b50848103825285518152855160209182019187019080838360005b838110156143ce5781810151838201526020016143b6565b50505050905090810190601f1680156143fb5780820380516001836020036101000a031916815260200191505b5060408051601f198184030181529190526020810180516001600160e01b03166001600160e01b0319909e169d909d17909c5250505050505050505050505b9450505050506145d7565b856001600160a01b03166342966c68856040518263ffffffff1660e01b815260040180828152602001915050600060405180830381600087803b15801561448b57600080fd5b505af115801561449f573d6000803e3d6000fd5b50505050806144fc57604080516001600160a01b03808a1660248301528716604482015260648082018790528251808303909101815260849091019091526020810180516001600160e01b031663272255bb60e01b1790526145d3565b63867f7a4d60e01b8786868660405160240180856001600160a01b03168152602001846001600160a01b0316815260200183815260200180602001828103825283818151815260200191508051906020019080838360005b8381101561456c578181015183820152602001614554565b50505050905090810190601f1680156145995780820380516001836020036101000a031916815260200191505b5060408051601f198184030181529190526020810180516001600160e01b03166001600160e01b0319909916989098179097525050505050505b9150505b95945050505050565b6145ea848461529a565b6145f48483615306565b6145fe8482615376565b83826001600160a01b0316846001600160a01b03167f59a9a8027b9c87b961e254899821c9a276b5efc35d1f7409ea4f291470f1629a846040518082815260200191505060405180910390a450505050565b7f6168652c307c1e813ca11cfb3a601f1cf3b22452021a5052d8b05f1f1f8a3e9255565b604080516001600160a01b0380861660248301528416604482015260648082018490528251808303909101815260849091019091526020810180516001600160e01b03166323b872dd60e01b17905261161e9085906153c5565b6000818484111561475d5760405162461bcd60e51b81526004018080602001828103825283818151815260200191508051906020019080838360005b8381101561472257818101518382015260200161470a565b50505050905090810190601f16801561474f5780820380516001836020036101000a031916815260200191505b509250505060405180910390fd5b505050900390565b841561491a57600061477685611681565b90506001600160a01b038516730ae055097c6d159879521c384f1d2123d1f195e61480156147a357508281105b156147c1576147be6001600160a01b03861630838603612d66565b50815b60006147cc86611e90565b90506147d781614938565b156148f1576000614861826001600160a01b031663cff77444896040518263ffffffff1660e01b815260040180826001600160a01b0316815260200191505060206040518083038186803b15801561482e57600080fd5b505afa158015614842573d6000803e3d6000fd5b505050506040513d602081101561485857600080fd5b50518490612a78565b9050808511156148ef57816001600160a01b031663f3fef3a3886148906148878b611b79565b858a0390612eed565b6040518363ffffffff1660e01b815260040180836001600160a01b0316815260200182815260200192505050600060405180830381600087803b1580156148d657600080fd5b505af11580156148ea573d6000803e3d6000fd5b505050505b505b6148ff86613fab8486612a78565b6149136001600160a01b0387168686615476565b50506121b5565b6121b58383614928876154c8565b6001600160a01b03169190612d66565b6000813f7fc5d2460186f7233c927e7db2dcc703c0e500b653ca82273b7bfad8045d85a470818114801590613edf575050151592915050565b61497f8161158f8585612783565b6000808585604051602001808072746f74616c457865637574656450657244617960681b815250601301836001600160a01b031660601b81526014018281526020019250505060405160208183030381529060405280519060200120815260200190815260200160002081905550505050565b60006149fc612456565b6001600160a01b031663669f618b6040518163ffffffff1660e01b815260040160206040518083038186803b158015614a3457600080fd5b505afa158015614a48573d6000803e3d6000fd5b505050506040513d6020811015614a5e57600080fd5b5051905090565b606080827f00000000000000000000000000000000000000000000000000000000000000006040516020018083805190602001908083835b60208310614abc5780518252601f199092019160209182019101614a9d565b51815160209384036101000a60001901801990921691161790529201938452506040805180850381529390910190525093517f0000000000000000000000000000000000000000000000000000000000000000018452509192915050565b60006012821015614c0e5781601203600a0a90506000614b4482614b3e60006121c7565b906154cb565b90506000614b5683614b3e60006111e6565b90506000614b6884614b3e600061280e565b90506000614b7a85614b3e6000611624565b90506000614b8c86614b3e6000611b0f565b905084614bc25760019450848411614bc25760649350606491508383111580614bb55750818111155b15614bc257506127109150815b614be6886040518060600160405280868152602001878152602001888152506134d4565b614c0488604051806040016040528084815260200185815250613628565b5050505050611722565b60128203600a0a9050614c67836040518060600160405280614c3a85614c34600061280e565b9061550d565b8152602001614c4d85614c3460006111e6565b8152602001614c6085614c3460006121c7565b90526134d4565b611722836040518060400160405280614c8485614c346000611b0f565b8152602001614c9785614c346000611624565b9052613628565b6000614ca8612456565b6001600160a01b031663e5789d036040518163ffffffff1660e01b815260040160206040518083038186803b158015614a3457600080fd5b476111438282615566565b604080516370a0823160e01b8152306004820152905183916000916001600160a01b038416916370a08231916024808301926020929190829003018186803b158015614d3657600080fd5b505afa158015614d4a573d6000803e3d6000fd5b505050506040513d6020811015614d6057600080fd5b5051905061161e6001600160a01b0383168483615476565b60408051600481526024810182526020810180516001600160e01b031663313ce56760e01b1781529151815160009384936060936001600160a01b03881693919290918291908083835b60208310614de15780518252601f199092019160209182019101614dc2565b6001836020036101000a038019825116818451168082178552505050505050905001915050600060405180830381855afa9150503d8060008114614e41576040519150601f19603f3d011682016040523d82523d6000602084013e614e46565b606091505b509150915081614f275760408051600481526024810182526020810180516001600160e01b0316632e0f262560e01b178152915181516001600160a01b0388169382918083835b60208310614eac5780518252601f199092019160209182019101614e8d565b6001836020036101000a038019825116818451168082178552505050505050905001915050600060405180830381855afa9150503d8060008114614f0c576040519150601f19603f3d011682016040523d82523d6000602084013e614f11565b606091505b50909250905081614f2757600092505050611239565b808060200190516020811015614f3c57600080fd5b5051949350505050565b604080516e6d65646961746f7242616c616e636560881b60208083019190915260609490941b6001600160601b031916602f820152815180820360230181526043909101825280519084012060009081529283905290912055565b60408051600481526024810182526020810180516001600160e01b03166306fdde0360e01b1781529151815160609360009385936001600160a01b03881693919290918291908083835b6020831061500a5780518252601f199092019160209182019101614feb565b6001836020036101000a038019825116818451168082178552505050505050905001915050600060405180830381855afa9150503d806000811461506a576040519150601f19603f3d011682016040523d82523d6000602084013e61506f565b606091505b50915091508161515e5760408051600481526024810182526020810180516001600160e01b03166351fa6fbf60e11b178152915181516001600160a01b0388169382918083835b602083106150d55780518252601f1990920191602091820191016150b6565b6001836020036101000a038019825116818451168082178552505050505050905001915050600060405180830381855afa9150503d8060008114615135576040519150601f19603f3d011682016040523d82523d6000602084013e61513a565b606091505b5090925090508161515e576040518060200160405280600081525092505050611239565b613edf816155cb565b60408051600481526024810182526020810180516001600160e01b03166395d89b4160e01b1781529151815160609360009385936001600160a01b03881693919290918291908083835b602083106151d05780518252601f1990920191602091820191016151b1565b6001836020036101000a038019825116818451168082178552505050505050905001915050600060405180830381855afa9150503d8060008114615230576040519150601f19603f3d011682016040523d82523d6000602084013e615235565b606091505b50915091508161515e5760408051600481526024810182526020810180516001600160e01b0316631eedf1af60e31b178152915181516001600160a01b038816938291808383602083106150d55780518252601f1990920191602091820191016150b6565b604080516b36b2b9b9b0b3b2aa37b5b2b760a11b602080830191909152602c8083019590955282518083039095018552604c90910182528351938101939093206000908152600290935290912080546001600160a01b0319166001600160a01b03909216919091179055565b604080516f1b595cdcd859d9549958da5c1a595b9d60821b60208083019190915260308083019590955282518083039095018552605090910182528351938101939093206000908152600290935290912080546001600160a01b0319166001600160a01b03909216919091179055565b604080516b6d65737361676556616c756560a01b602080830191909152602c8083019590955282518083039095018552604c909101825283519381019390932060009081529283905290912055565b606061541a826040518060400160405280602081526020017f5361666545524332303a206c6f772d6c6576656c2063616c6c206661696c6564815250856001600160a01b03166157279092919063ffffffff16565b8051909150156117225780806020019051602081101561543957600080fd5b50516117225760405162461bcd60e51b815260040180806020018281038252602a815260200180615968602a913960400191505060405180910390fd5b604080516001600160a01b038416602482015260448082018490528251808303909101815260649091019091526020810180516001600160e01b031663a9059cbb60e01b1790526117229084906153c5565b90565b6000612aba83836040518060400160405280601a81526020017f536166654d6174683a206469766973696f6e206279207a65726f000000000000815250615736565b60008261551c575060006115e4565b8282028284828161552957fe5b0414612aba5760405162461bcd60e51b81526004018080602001828103825260218152602001806159476021913960400191505060405180910390fd5b6040516001600160a01b0383169082156108fc029083906000818181858888f1935050505061114357808260405161559d90615908565b6001600160a01b039091168152604051908190036020019082f090508015801561161e573d6000803e3d6000fd5b60606020825111156156a1578180602001905160208110156155ec57600080fd5b8101908080516040519392919084600160201b82111561560b57600080fd5b90830190602082018581111561562057600080fd5b8251600160201b81118282018810171561563957600080fd5b82525081516020918201929091019080838360005b8381101561566657818101518382015260200161564e565b50505050905090810190601f1680156156935780820380516001836020036101000a031916815260200191505b506040525050509050611239565b8151602014156157125760008280602001905160208110156156c257600080fd5b50516040805160208082528183019092529192506060919060208201818036833701905050905060008260208301525b82156157075760089290921b916001016156f2565b815291506112399050565b50604080516020810190915260008152611239565b6060613edf848460008561579b565b600081836157855760405162461bcd60e51b815260206004820181815283516024840152835190928392604490910191908501908083836000831561472257818101518382015260200161470a565b50600083858161579157fe5b0495945050505050565b60606157a685614938565b6157f7576040805162461bcd60e51b815260206004820152601d60248201527f416464726573733a2063616c6c20746f206e6f6e2d636f6e7472616374000000604482015290519081900360640190fd5b60006060866001600160a01b031685876040518082805190602001908083835b602083106158365780518252601f199092019160209182019101615817565b6001836020036101000a03801982511681845116808217855250505050505090500191505060006040518083038185875af1925050503d8060008114615898576040519150601f19603f3d011682016040523d82523d6000602084013e61589d565b606091505b509150915081156158b1579150613edf9050565b8051156158c15780518082602001fd5b60405162461bcd60e51b815260206004820181815286516024840152865187939192839260440191908501908083836000831561472257818101518382015260200161470a565b6032806159158339019056fe60806040526040516032380380603283398181016040526020811015602357600080fd5b50516001600160a01b038116fffe536166654d6174683a206d756c7469706c69636174696f6e206f766572666c6f775361666545524332303a204552433230206f7065726174696f6e20646964206e6f742073756363656564a2646970667358221220d55a07b8515502cfecbb909f7e5a7e9eb80f56205e631d2c6b8a310f1642900b64736f6c63430007050033",
  "immutableReferences": {
    "3416": [
      {
        "length": 32,
        "start": 19184
      }
    ],
    "3418": [
      {
        "length": 32,
        "start": 19051
      }
    ]
  },
  "source": "pragma solidity 0.7.5;\n\nimport \"./BasicOmnibridge.sol\";\nimport \"./components/common/GasLimitManager.sol\";\nimport \"./components/common/InterestConnector.sol\";\nimport \"../libraries/SafeMint.sol\";\n\n/**\n * @title ForeignOmnibridge\n * @dev Foreign side implementation for multi-token mediator intended to work on top of AMB bridge.\n * It is designed to be used as an implementation contract of EternalStorageProxy contract.\n */\ncontract ForeignOmnibridge is BasicOmnibridge, GasLimitManager, InterestConnector {\n    using SafeERC20 for IERC677;\n    using SafeMint for IBurnableMintableERC677Token;\n    using SafeMath for uint256;\n\n    constructor(string memory _suffix) BasicOmnibridge(_suffix) {}\n\n    /**\n     * @dev Stores the initial parameters of the mediator.\n     * @param _bridgeContract the address of the AMB bridge contract.\n     * @param _mediatorContract the address of the mediator contract on the other network.\n     * @param _dailyLimitMaxPerTxMinPerTxArray array with limit values for the assets to be bridged to the other network.\n     *   [ 0 = dailyLimit, 1 = maxPerTx, 2 = minPerTx ]\n     * @param _executionDailyLimitExecutionMaxPerTxArray array with limit values for the assets bridged from the other network.\n     *   [ 0 = executionDailyLimit, 1 = executionMaxPerTx ]\n     * @param _requestGasLimit the gas limit for the message execution.\n     * @param _owner address of the owner of the mediator contract.\n     * @param _tokenFactory address of the TokenFactory contract that will be used for the deployment of new tokens.\n     */\n    function initialize(\n        address _bridgeContract,\n        address _mediatorContract,\n        uint256[3] calldata _dailyLimitMaxPerTxMinPerTxArray, // [ 0 = _dailyLimit, 1 = _maxPerTx, 2 = _minPerTx ]\n        uint256[2] calldata _executionDailyLimitExecutionMaxPerTxArray, // [ 0 = _executionDailyLimit, 1 = _executionMaxPerTx ]\n        uint256 _requestGasLimit,\n        address _owner,\n        address _tokenFactory\n    ) external onlyRelevantSender returns (bool) {\n        require(!isInitialized());\n\n        _setBridgeContract(_bridgeContract);\n        _setMediatorContractOnOtherSide(_mediatorContract);\n        _setLimits(address(0), _dailyLimitMaxPerTxMinPerTxArray);\n        _setExecutionLimits(address(0), _executionDailyLimitExecutionMaxPerTxArray);\n        _setRequestGasLimit(_requestGasLimit);\n        _setOwner(_owner);\n        _setTokenFactory(_tokenFactory);\n\n        setInitialize();\n\n        return isInitialized();\n    }\n\n    /**\n     * One-time function to be used together with upgradeToAndCall method.\n     * Sets the token factory contract.\n     * @param _tokenFactory address of the deployed TokenFactory contract.\n     */\n    function upgradeToReverseMode(address _tokenFactory) external {\n        require(msg.sender == address(this));\n\n        _setTokenFactory(_tokenFactory);\n    }\n\n    /**\n     * @dev Handles the bridged tokens.\n     * Checks that the value is inside the execution limits and invokes the Mint or Unlock accordingly.\n     * @param _token token contract address on this side of the bridge.\n     * @param _isNative true, if given token is native to this chain and Unlock should be used.\n     * @param _recipient address that will receive the tokens.\n     * @param _value amount of tokens to be received.\n     */\n    function _handleTokens(\n        address _token,\n        bool _isNative,\n        address _recipient,\n        uint256 _value\n    ) internal override {\n        // prohibit withdrawal of tokens during other bridge operations (e.g. relayTokens)\n        // such reentrant withdrawal can lead to an incorrect balanceDiff calculation\n        require(!lock());\n\n        require(withinExecutionLimit(_token, _value));\n        addTotalExecutedPerDay(_token, getCurrentDay(), _value);\n\n        _releaseTokens(_isNative, _token, _recipient, _value, _value);\n\n        emit TokensBridged(_token, _recipient, _value, messageId());\n    }\n\n    /**\n     * @dev Executes action on deposit of bridged tokens\n     * @param _token address of the token contract\n     * @param _from address of tokens sender\n     * @param _receiver address of tokens receiver on the other side\n     * @param _value requested amount of bridged tokens\n     * @param _data additional transfer data to be used on the other side\n     */\n    function bridgeSpecificActionsOnTokenTransfer(\n        address _token,\n        address _from,\n        address _receiver,\n        uint256 _value,\n        bytes memory _data\n    ) internal virtual override {\n        require(_receiver != address(0) && _receiver != mediatorContractOnOtherSide());\n\n        // native unbridged token\n        if (!isTokenRegistered(_token)) {\n            uint8 decimals = TokenReader.readDecimals(_token);\n            _initializeTokenBridgeLimits(_token, decimals);\n        }\n\n        require(withinLimit(_token, _value));\n        addTotalSpentPerDay(_token, getCurrentDay(), _value);\n\n        bytes memory data = _prepareMessage(nativeTokenAddress(_token), _token, _receiver, _value, _data);\n        bytes32 _messageId = _passMessage(data, true);\n        _recordBridgeOperation(_messageId, _token, _from, _value);\n    }\n\n    /**\n     * Internal function for unlocking some amount of tokens.\n     * @param _isNative true, if token is native w.r.t. to this side of the bridge.\n     * @param _token address of the token contract.\n     * @param _recipient address of the tokens receiver.\n     * @param _value amount of tokens to unlock.\n     * @param _balanceChange amount of balance to subtract from the mediator balance.\n     */\n    function _releaseTokens(\n        bool _isNative,\n        address _token,\n        address _recipient,\n        uint256 _value,\n        uint256 _balanceChange\n    ) internal override {\n        if (_isNative) {\n            // There are two edge cases related to withdrawals on the foreign side of the bridge.\n            // 1) Minting of extra STAKE tokens, if supply on the Home side exceeds total bridge amount on the Foreign side.\n            // 2) Withdrawal of the invested tokens back from the Compound-like protocol, if currently available funds are insufficient.\n            // Most of the time, these cases do not intersect. However, in case STAKE tokens are also invested (e.g. via EasyStaking),\n            // the situation can be the following:\n            // - 20 STAKE are bridged through the OB. 15 STAKE of which are invested into EasyStaking, and 5 STAKE are locked directly on the bridge.\n            // - 5 STAKE are mistakenly locked on the bridge via regular transfer, they are not accounted in mediatorBalance(STAKE)\n            // - User requests withdrawal of 30 STAKE from the Home side.\n            // Correct sequence of actions should be the following:\n            // - Mint new STAKE tokens (value - mediatorBalance(STAKE) = 30 STAKE - 20 STAKE = 10 STAKE)\n            // - Set local variable balance to 30 STAKE\n            // - Withdraw all invested STAKE tokens (value - (balance - investedAmount(STAKE)) = 30 STAKE - (30 STAKE - 15 STAKE) = 15 STAKE)\n\n            uint256 balance = mediatorBalance(_token);\n            if (_token == address(0x0Ae055097C6d159879521C384F1D2123D1f195e6) && balance < _value) {\n                IBurnableMintableERC677Token(_token).safeMint(address(this), _value - balance);\n                balance = _value;\n            }\n\n            IInterestImplementation impl = interestImplementation(_token);\n            if (Address.isContract(address(impl))) {\n                uint256 availableBalance = balance.sub(impl.investedAmount(_token));\n                if (_value > availableBalance) {\n                    impl.withdraw(_token, (_value - availableBalance).add(minCashThreshold(_token)));\n                }\n            }\n\n            _setMediatorBalance(_token, balance.sub(_balanceChange));\n            IERC677(_token).safeTransfer(_recipient, _value);\n        } else {\n            _getMinterFor(_token).safeMint(_recipient, _value);\n        }\n    }\n\n    /**\n     * @dev Internal function for sending an AMB message to the mediator on the other side.\n     * @param _data data to be sent to the other side of the bridge.\n     * @param _useOracleLane always true, not used on this side of the bridge.\n     * @return id of the sent message.\n     */\n    function _passMessage(bytes memory _data, bool _useOracleLane) internal override returns (bytes32) {\n        (_useOracleLane);\n\n        return bridgeContract().requireToPassMessage(mediatorContractOnOtherSide(), _data, requestGasLimit());\n    }\n\n    /**\n     * @dev Internal function for counting excess balance which is not tracked within the bridge.\n     * Represents the amount of forced tokens on this contract.\n     * @param _token address of the token contract.\n     * @return amount of excess tokens.\n     */\n    function _unaccountedBalance(address _token) internal view override returns (uint256) {\n        IInterestImplementation impl = interestImplementation(_token);\n        uint256 invested = Address.isContract(address(impl)) ? impl.investedAmount(_token) : 0;\n        return IERC677(_token).balanceOf(address(this)).sub(mediatorBalance(_token).sub(invested));\n    }\n}\n",
  "sourcePath": "/Users/eabz/Documents/GitHub/tokenbridge/packages/omnibridge/contracts/upgradeable_contracts/ForeignOmnibridge.sol",
  "compiler": {
    "name": "solc",
    "version": "0.7.5+commit.eb77ed08.Emscripten.clang"
  },
  "schemaVersion": "3.4.3",
  "updatedAt": "2021-09-04T01:08:31.275Z",
  "devdoc": {
    "details": "Foreign side implementation for multi-token mediator intended to work on top of AMB bridge. It is designed to be used as an implementation contract of EternalStorageProxy contract.",
    "kind": "dev",
    "methods": {
      "bridgeContract()": {
        "details": "Get the AMB interface for the bridge contract address",
        "returns": {
          "_0": "AMB interface for the bridge contract address"
        }
      },
      "bridgedTokenAddress(address)": {
        "details": "Retrieves address of the bridged token contract associated with a specific native token contract on the other side.",
        "params": {
          "_nativeToken": "address of the native token contract on the other side."
        },
        "returns": {
          "_0": "address of the deployed bridged token contract."
        }
      },
      "claimTokens(address,address)": {
        "details": "Claims stuck tokens. Only unsupported tokens can be claimed. When dealing with already supported tokens, fixMediatorBalance can be used instead.",
        "params": {
          "_to": "address of tokens receiver",
          "_token": "address of claimed token, address(0) for native"
        }
      },
      "claimTokensFromTokenContract(address,address,address)": {
        "details": "Withdraws erc20 tokens or native coins from the bridged token contract. Only the proxy owner is allowed to call this method.",
        "params": {
          "_bridgedToken": "address of the bridged token contract.",
          "_to": "address of the tokens/coins receiver.",
          "_token": "address of the claimed token or address(0) for native coins."
        }
      },
      "dailyLimit(address)": {
        "details": "Retrieves current daily limit for a particular token contract.",
        "params": {
          "_token": "address of the token contract."
        },
        "returns": {
          "_0": "daily limit on tokens that can be sent through the bridge per day."
        }
      },
      "deployAndHandleBridgedTokens(address,string,string,uint8,address,uint256)": {
        "details": "Handles the bridged tokens for the first time, includes deployment of new TokenProxy contract. Checks that the value is inside the execution limits and invokes the Mint or Unlock accordingly.",
        "params": {
          "_decimals": "decimals of the bridge foreign token.",
          "_name": "name of the native token, name suffix will be appended, if empty, symbol will be used instead.",
          "_recipient": "address that will receive the tokens.",
          "_symbol": "symbol of the bridged token, if empty, name will be used instead.",
          "_token": "address of the native ERC20/ERC677 token on the other side.",
          "_value": "amount of tokens to be received."
        }
      },
      "deployAndHandleBridgedTokensAndCall(address,string,string,uint8,address,uint256,bytes)": {
        "details": "Handles the bridged tokens for the first time, includes deployment of new TokenProxy contract. Executes a callback on the receiver. Checks that the value is inside the execution limits and invokes the Mint accordingly.",
        "params": {
          "_data": "additional data passed from the other chain.",
          "_decimals": "decimals of the bridge foreign token.",
          "_name": "name of the native token, name suffix will be appended, if empty, symbol will be used instead.",
          "_recipient": "address that will receive the tokens.",
          "_symbol": "symbol of the bridged token, if empty, name will be used instead.",
          "_token": "address of the native ERC20/ERC677 token on the other side.",
          "_value": "amount of tokens to be received."
        }
      },
      "disableInterest(address)": {
        "details": "Disables interest for locked funds. Only owner can call this method. Prior to calling this function, consider to call payInterest and claimCompAndPay.",
        "params": {
          "_token": "of token to disable interest for."
        }
      },
      "executionDailyLimit(address)": {
        "details": "Retrieves current execution daily limit for a particular token contract.",
        "params": {
          "_token": "address of the token contract."
        },
        "returns": {
          "_0": "daily limit on tokens that can be received from the bridge on the other side per day."
        }
      },
      "executionMaxPerTx(address)": {
        "details": "Retrieves current maximum execution amount of tokens per one transfer for a particular token contract.",
        "params": {
          "_token": "address of the token contract."
        },
        "returns": {
          "_0": "maximum amount on tokens that can received from the bridge on the other side in one transaction."
        }
      },
      "fixFailedMessage(bytes32)": {
        "details": "Handles the request to fix transferred assets which bridged message execution failed on the other network. It uses the information stored by passMessage method when the assets were initially transferred",
        "params": {
          "_messageId": "id of the message which execution failed on the other network."
        }
      },
      "fixMediatorBalance(address,address)": {
        "details": "Allows to send to the other network the amount of locked tokens that can be forced into the contract without the invocation of the required methods. (e. g. regular transfer without a call to onTokenTransfer)",
        "params": {
          "_receiver": "the address that will receive the tokens on the other network.",
          "_token": "address of the token contract. Before calling this method, it must be carefully investigated how imbalance happened in order to avoid an attempt to steal the funds from a token with double addresses (e.g. TUSD is accessible at both 0x8dd5fbCe2F6a956C3022bA3663759011Dd51e73E and 0x0000000000085d4780B73119b644AE5ecd22b376)"
        }
      },
      "getBridgeInterfacesVersion()": {
        "details": "Tells the bridge interface version that this contract supports.",
        "returns": {
          "major": "value of the version",
          "minor": "value of the version",
          "patch": "value of the version"
        }
      },
      "getBridgeMode()": {
        "details": "Tells the bridge mode that this contract supports.",
        "returns": {
          "_data": "4 bytes representing the bridge mode"
        }
      },
      "getCurrentDay()": {
        "details": "Returns current day number.",
        "returns": {
          "_0": "day number."
        }
      },
      "handleBridgedTokens(address,address,uint256)": {
        "details": "Handles the bridged tokens for the already registered token pair. Checks that the value is inside the execution limits and invokes the Mint accordingly.",
        "params": {
          "_recipient": "address that will receive the tokens.",
          "_token": "address of the native ERC20/ERC677 token on the other side.",
          "_value": "amount of tokens to be received."
        }
      },
      "handleBridgedTokensAndCall(address,address,uint256,bytes)": {
        "details": "Handles the bridged tokens for the already registered token pair. Checks that the value is inside the execution limits and invokes the Unlock accordingly. Executes a callback on the receiver.",
        "params": {
          "_data": "additional transfer data passed from the other side.",
          "_recipient": "address that will receive the tokens.",
          "_token": "address of the native ERC20/ERC677 token on the other side.",
          "_value": "amount of tokens to be received."
        }
      },
      "handleNativeTokens(address,address,uint256)": {
        "details": "Handles the bridged tokens that are native to this chain. Checks that the value is inside the execution limits and invokes the Unlock accordingly.",
        "params": {
          "_recipient": "address that will receive the tokens.",
          "_token": "native ERC20 token.",
          "_value": "amount of tokens to be received."
        }
      },
      "handleNativeTokensAndCall(address,address,uint256,bytes)": {
        "details": "Handles the bridged tokens that are native to this chain. Checks that the value is inside the execution limits and invokes the Unlock accordingly. Executes a callback on the receiver.",
        "params": {
          "_data": "additional transfer data passed from the other side.",
          "_recipient": "address that will receive the tokens.",
          "_token": "native ERC20 token.",
          "_value": "amount of tokens to be received."
        }
      },
      "initialize(address,address,uint256[3],uint256[2],uint256,address,address)": {
        "details": "Stores the initial parameters of the mediator.",
        "params": {
          "_bridgeContract": "the address of the AMB bridge contract.",
          "_dailyLimitMaxPerTxMinPerTxArray": "array with limit values for the assets to be bridged to the other network.   [ 0 = dailyLimit, 1 = maxPerTx, 2 = minPerTx ]",
          "_executionDailyLimitExecutionMaxPerTxArray": "array with limit values for the assets bridged from the other network.   [ 0 = executionDailyLimit, 1 = executionMaxPerTx ]",
          "_mediatorContract": "the address of the mediator contract on the other network.",
          "_owner": "address of the owner of the mediator contract.",
          "_requestGasLimit": "the gas limit for the message execution.",
          "_tokenFactory": "address of the TokenFactory contract that will be used for the deployment of new tokens."
        }
      },
      "initializeInterest(address,address,uint256)": {
        "details": "Initializes interest receiving functionality for the particular locked token. Only owner can call this method.",
        "params": {
          "_impl": "address of the interest earning implementation contract.",
          "_minCashThreshold": "minimum amount of underlying tokens that are not invested.",
          "_token": "address of the token for interest earning."
        }
      },
      "interestImplementation(address)": {
        "details": "Tells address of the interest earning implementation for the specific token contract. If interest earning is disabled, will return 0x00..00. Can be an address of the deployed CompoundInterestERC20 contract.",
        "params": {
          "_token": "address of the locked token contract."
        },
        "returns": {
          "_0": "address of the implementation contract."
        }
      },
      "invest(address)": {
        "details": "Invests all excess tokens. Leaves only minCashThreshold in underlying tokens. Requires interest for the given token to be enabled first.",
        "params": {
          "_token": "address of the token contract considered."
        }
      },
      "isBridgedTokenDeployAcknowledged(address)": {
        "details": "Checks if for a given native token, the deployment of its bridged alternative was already acknowledged.",
        "params": {
          "_token": "address of native token contract."
        },
        "returns": {
          "_0": "true, if bridged token was already deployed."
        }
      },
      "isRegisteredAsNativeToken(address)": {
        "details": "Checks if a given token is a bridged token that is native to this side of the bridge.",
        "params": {
          "_token": "address of token contract."
        },
        "returns": {
          "_0": "message id of the send message."
        }
      },
      "isTokenRegistered(address)": {
        "details": "Checks if specified token was already bridged at least once.",
        "params": {
          "_token": "address of the token contract."
        },
        "returns": {
          "_0": "true, if token address is address(0) or token was already bridged."
        }
      },
      "maxAvailablePerTx(address)": {
        "details": "Retrieves maximum available bridge amount per one transaction taking into account maxPerTx() and dailyLimit() parameters.",
        "params": {
          "_token": "address of the token contract, or address(0) for the default limit."
        },
        "returns": {
          "_0": "minimum of maxPerTx parameter and remaining daily quota."
        }
      },
      "maxPerTx(address)": {
        "details": "Retrieves current maximum amount of tokens per one transfer for a particular token contract.",
        "params": {
          "_token": "address of the token contract."
        },
        "returns": {
          "_0": "maximum amount on tokens that can be sent through the bridge in one transfer."
        }
      },
      "mediatorBalance(address)": {
        "details": "Tells the expected token balance of the contract.",
        "params": {
          "_token": "address of token contract."
        },
        "returns": {
          "_0": "the current tracked token balance of the contract."
        }
      },
      "mediatorContractOnOtherSide()": {
        "details": "Tells the mediator contract address from the other network.",
        "returns": {
          "_0": "the address of the mediator contract."
        }
      },
      "messageFixed(bytes32)": {
        "details": "Tells if a message sent to the AMB bridge has been fixed.",
        "returns": {
          "_0": "bool indicating the status of the message."
        }
      },
      "minCashThreshold(address)": {
        "details": "Tells minimum amount of tokens that are not being invested.",
        "params": {
          "_token": "address of the invested token contract."
        },
        "returns": {
          "_0": "amount of tokens."
        }
      },
      "minPerTx(address)": {
        "details": "Retrieves current minimum amount of tokens per one transfer for a particular token contract.",
        "params": {
          "_token": "address of the token contract."
        },
        "returns": {
          "_0": "minimum amount on tokens that can be sent through the bridge in one transfer."
        }
      },
      "nativeTokenAddress(address)": {
        "details": "Retrieves address of the native token contract associated with a specific bridged token contract.",
        "params": {
          "_bridgedToken": "address of the created bridged token contract on this side."
        },
        "returns": {
          "_0": "address of the native token contract on the other side of the bridge."
        }
      },
      "onTokenTransfer(address,uint256,bytes)": {
        "details": "ERC677 transfer callback function.",
        "params": {
          "_data": "additional transfer data, can be used for passing alternative receiver address.",
          "_from": "address of tokens sender.",
          "_value": "amount of transferred tokens."
        }
      },
      "owner()": {
        "details": "Tells the address of the owner",
        "returns": {
          "_0": "the address of the owner"
        }
      },
      "relayTokens(address,address,uint256)": {
        "details": "Initiate the bridge operation for some amount of tokens from msg.sender. The user should first call Approve method of the ERC677 token.",
        "params": {
          "_receiver": "address that will receive the native tokens on the other network.",
          "_value": "amount of tokens to be transferred to the other network.",
          "token": "bridged token contract address."
        }
      },
      "relayTokens(address,uint256)": {
        "details": "Initiate the bridge operation for some amount of tokens from msg.sender to msg.sender on the other side. The user should first call Approve method of the ERC677 token.",
        "params": {
          "_value": "amount of tokens to be transferred to the other network.",
          "token": "bridged token contract address."
        }
      },
      "relayTokensAndCall(address,address,uint256,bytes)": {
        "details": "Initiate the bridge operation for some amount of tokens from msg.sender. The user should first call Approve method of the ERC677 token.",
        "params": {
          "_data": "additional transfer data to be used on the other side.",
          "_receiver": "address that will receive the native tokens on the other network.",
          "_value": "amount of tokens to be transferred to the other network.",
          "token": "bridged token contract address."
        }
      },
      "requestFailedMessageFix(bytes32)": {
        "details": "Method to be called when a bridged message execution failed. It will generate a new message requesting to fix/roll back the transferred assets on the other network.",
        "params": {
          "_messageId": "id of the message which execution failed."
        }
      },
      "requestGasLimit()": {
        "details": "Tells the default gas limit to be used in the message execution by the AMB bridge on the other network.",
        "returns": {
          "_0": "the gas limit for the message execution."
        }
      },
      "setBridgeContract(address)": {
        "details": "Sets the AMB bridge contract address. Only the owner can call this method.",
        "params": {
          "_bridgeContract": "the address of the bridge contract."
        }
      },
      "setCustomTokenAddressPair(address,address)": {
        "details": "Allows to pre-set the bridged token contract for not-yet bridged token. Only the owner can call this method.",
        "params": {
          "_bridgedToken": "address of the bridged token contract.",
          "_nativeToken": "address of the token contract on the other side that was not yet bridged."
        }
      },
      "setDailyLimit(address,uint256)": {
        "details": "Updates daily limit for the particular token. Only owner can call this method.",
        "params": {
          "_dailyLimit": "daily allowed amount of bridged tokens, should be greater than maxPerTx. 0 value is also allowed, will stop the bridge operations in outgoing direction.",
          "_token": "address of the token contract, or address(0) for configuring the efault limit."
        }
      },
      "setExecutionDailyLimit(address,uint256)": {
        "details": "Updates execution daily limit for the particular token. Only owner can call this method.",
        "params": {
          "_dailyLimit": "daily allowed amount of executed tokens, should be greater than executionMaxPerTx. 0 value is also allowed, will stop the bridge operations in incoming direction.",
          "_token": "address of the token contract, or address(0) for configuring the default limit."
        }
      },
      "setExecutionMaxPerTx(address,uint256)": {
        "details": "Updates execution maximum per transaction for the particular token. Only owner can call this method.",
        "params": {
          "_maxPerTx": "maximum amount of executed tokens per one transaction, should be less than executionDailyLimit. 0 value is also allowed, will stop the bridge operations in incoming direction.",
          "_token": "address of the token contract, or address(0) for configuring the default limit."
        }
      },
      "setMaxPerTx(address,uint256)": {
        "details": "Updates maximum per transaction for the particular token. Only owner can call this method.",
        "params": {
          "_maxPerTx": "maximum amount of tokens per one transaction, should be less than dailyLimit, greater than minPerTx. 0 value is also allowed, will stop the bridge operations in outgoing direction.",
          "_token": "address of the token contract, or address(0) for configuring the default limit."
        }
      },
      "setMediatorContractOnOtherSide(address)": {
        "details": "Sets the mediator contract address from the other network. Only the owner can call this method.",
        "params": {
          "_mediatorContract": "the address of the mediator contract."
        }
      },
      "setMinCashThreshold(address,uint256)": {
        "details": "Sets minimum amount of tokens that cannot be invested. Only owner can call this method.",
        "params": {
          "_minCashThreshold": "minimum amount of underlying tokens that are not invested.",
          "_token": "address of the token contract."
        }
      },
      "setMinPerTx(address,uint256)": {
        "details": "Updates minimum per transaction for the particular token. Only owner can call this method.",
        "params": {
          "_minPerTx": "minimum amount of tokens per one transaction, should be less than maxPerTx and dailyLimit.",
          "_token": "address of the token contract, or address(0) for configuring the default limit."
        }
      },
      "setRequestGasLimit(uint256)": {
        "details": "Sets the default gas limit to be used in the message execution by the AMB bridge on the other network. This value can't exceed the parameter maxGasPerTx defined on the AMB bridge. Only the owner can call this method.",
        "params": {
          "_gasLimit": "the gas limit for the message execution."
        }
      },
      "setTokenFactory(address)": {
        "details": "Updates an address of the used TokenFactory contract used for creating new tokens.",
        "params": {
          "_tokenFactory": "address of TokenFactory contract."
        }
      },
      "tokenFactory()": {
        "details": "Retrieves an address of the token factory contract.",
        "returns": {
          "_0": "address of the TokenFactory contract."
        }
      },
      "totalExecutedPerDay(address,uint256)": {
        "details": "Retrieves the total executed amount for particular token during specific day.",
        "params": {
          "_day": "day number for which spent amount if requested.",
          "_token": "address of the token contract."
        },
        "returns": {
          "_0": "amount of tokens received from the bridge from the other side."
        }
      },
      "totalSpentPerDay(address,uint256)": {
        "details": "Retrieves the total spent amount for particular token during specific day.",
        "params": {
          "_day": "day number for which spent amount if requested.",
          "_token": "address of the token contract."
        },
        "returns": {
          "_0": "amount of tokens sent through the bridge to the other side."
        }
      },
      "transferOwnership(address)": {
        "details": "Allows the current owner to transfer control of the contract to a newOwner.",
        "params": {
          "newOwner": "the address to transfer ownership to."
        }
      },
      "upgradeToReverseMode(address)": {
        "params": {
          "_tokenFactory": "address of the deployed TokenFactory contract."
        }
      },
      "withinExecutionLimit(address,uint256)": {
        "details": "Checks that bridged amount of tokens conforms to the configured execution limits.",
        "params": {
          "_amount": "amount of bridge tokens.",
          "_token": "address of the token contract."
        },
        "returns": {
          "_0": "true, if specified amount can be processed and executed."
        }
      },
      "withinLimit(address,uint256)": {
        "details": "Checks that bridged amount of tokens conforms to the configured limits.",
        "params": {
          "_amount": "amount of bridge tokens.",
          "_token": "address of the token contract."
        },
        "returns": {
          "_0": "true, if specified amount can be bridged."
        }
      }
    },
    "title": "ForeignOmnibridge",
    "version": 1
  },
  "userdoc": {
    "kind": "user",
    "methods": {
      "upgradeToReverseMode(address)": {
        "notice": "One-time function to be used together with upgradeToAndCall method. Sets the token factory contract."
      }
    },
    "version": 1
  }
}