{
  "contractName": "HomeOmnibridge",
  "abi": [
    {
      "inputs": [
        {
          "internalType": "string",
          "name": "_suffix",
          "type": "string"
        }
      ],
      "stateMutability": "nonpayable",
      "type": "constructor"
    },
    {
      "anonymous": false,
      "inputs": [
        {
          "indexed": true,
          "internalType": "address",
          "name": "token",
          "type": "address"
        },
        {
          "indexed": false,
          "internalType": "uint256",
          "name": "newLimit",
          "type": "uint256"
        }
      ],
      "name": "DailyLimitChanged",
      "type": "event"
    },
    {
      "anonymous": false,
      "inputs": [
        {
          "indexed": true,
          "internalType": "address",
          "name": "token",
          "type": "address"
        },
        {
          "indexed": false,
          "internalType": "uint256",
          "name": "newLimit",
          "type": "uint256"
        }
      ],
      "name": "ExecutionDailyLimitChanged",
      "type": "event"
    },
    {
      "anonymous": false,
      "inputs": [
        {
          "indexed": true,
          "internalType": "bytes32",
          "name": "messageId",
          "type": "bytes32"
        },
        {
          "indexed": false,
          "internalType": "address",
          "name": "token",
          "type": "address"
        },
        {
          "indexed": false,
          "internalType": "address",
          "name": "recipient",
          "type": "address"
        },
        {
          "indexed": false,
          "internalType": "uint256",
          "name": "value",
          "type": "uint256"
        }
      ],
      "name": "FailedMessageFixed",
      "type": "event"
    },
    {
      "anonymous": false,
      "inputs": [
        {
          "indexed": false,
          "internalType": "uint256",
          "name": "fee",
          "type": "uint256"
        },
        {
          "indexed": true,
          "internalType": "address",
          "name": "token",
          "type": "address"
        },
        {
          "indexed": true,
          "internalType": "bytes32",
          "name": "messageId",
          "type": "bytes32"
        }
      ],
      "name": "FeeDistributed",
      "type": "event"
    },
    {
      "anonymous": false,
      "inputs": [
        {
          "indexed": true,
          "internalType": "address",
          "name": "token",
          "type": "address"
        },
        {
          "indexed": false,
          "internalType": "uint256",
          "name": "fee",
          "type": "uint256"
        }
      ],
      "name": "FeeDistributionFailed",
      "type": "event"
    },
    {
      "anonymous": false,
      "inputs": [
        {
          "indexed": true,
          "internalType": "address",
          "name": "nativeToken",
          "type": "address"
        },
        {
          "indexed": true,
          "internalType": "address",
          "name": "bridgedToken",
          "type": "address"
        }
      ],
      "name": "NewTokenRegistered",
      "type": "event"
    },
    {
      "anonymous": false,
      "inputs": [
        {
          "indexed": false,
          "internalType": "address",
          "name": "previousOwner",
          "type": "address"
        },
        {
          "indexed": false,
          "internalType": "address",
          "name": "newOwner",
          "type": "address"
        }
      ],
      "name": "OwnershipTransferred",
      "type": "event"
    },
    {
      "anonymous": false,
      "inputs": [
        {
          "indexed": true,
          "internalType": "address",
          "name": "token",
          "type": "address"
        },
        {
          "indexed": true,
          "internalType": "address",
          "name": "recipient",
          "type": "address"
        },
        {
          "indexed": false,
          "internalType": "uint256",
          "name": "value",
          "type": "uint256"
        },
        {
          "indexed": true,
          "internalType": "bytes32",
          "name": "messageId",
          "type": "bytes32"
        }
      ],
      "name": "TokensBridged",
      "type": "event"
    },
    {
      "anonymous": false,
      "inputs": [
        {
          "indexed": true,
          "internalType": "address",
          "name": "token",
          "type": "address"
        },
        {
          "indexed": true,
          "internalType": "address",
          "name": "sender",
          "type": "address"
        },
        {
          "indexed": false,
          "internalType": "uint256",
          "name": "value",
          "type": "uint256"
        },
        {
          "indexed": true,
          "internalType": "bytes32",
          "name": "messageId",
          "type": "bytes32"
        }
      ],
      "name": "TokensBridgingInitiated",
      "type": "event"
    },
    {
      "inputs": [],
      "name": "bridgeContract",
      "outputs": [
        {
          "internalType": "contract IAMB",
          "name": "",
          "type": "address"
        }
      ],
      "stateMutability": "view",
      "type": "function"
    },
    {
      "inputs": [
        {
          "internalType": "address",
          "name": "_nativeToken",
          "type": "address"
        }
      ],
      "name": "bridgedTokenAddress",
      "outputs": [
        {
          "internalType": "address",
          "name": "",
          "type": "address"
        }
      ],
      "stateMutability": "view",
      "type": "function"
    },
    {
      "inputs": [
        {
          "internalType": "address",
          "name": "_token",
          "type": "address"
        },
        {
          "internalType": "address",
          "name": "_to",
          "type": "address"
        }
      ],
      "name": "claimTokens",
      "outputs": [],
      "stateMutability": "nonpayable",
      "type": "function"
    },
    {
      "inputs": [
        {
          "internalType": "address",
          "name": "_bridgedToken",
          "type": "address"
        },
        {
          "internalType": "address",
          "name": "_token",
          "type": "address"
        },
        {
          "internalType": "address",
          "name": "_to",
          "type": "address"
        }
      ],
      "name": "claimTokensFromTokenContract",
      "outputs": [],
      "stateMutability": "nonpayable",
      "type": "function"
    },
    {
      "inputs": [
        {
          "internalType": "address",
          "name": "_token",
          "type": "address"
        }
      ],
      "name": "dailyLimit",
      "outputs": [
        {
          "internalType": "uint256",
          "name": "",
          "type": "uint256"
        }
      ],
      "stateMutability": "view",
      "type": "function"
    },
    {
      "inputs": [
        {
          "internalType": "address",
          "name": "_token",
          "type": "address"
        },
        {
          "internalType": "string",
          "name": "_name",
          "type": "string"
        },
        {
          "internalType": "string",
          "name": "_symbol",
          "type": "string"
        },
        {
          "internalType": "uint8",
          "name": "_decimals",
          "type": "uint8"
        },
        {
          "internalType": "address",
          "name": "_recipient",
          "type": "address"
        },
        {
          "internalType": "uint256",
          "name": "_value",
          "type": "uint256"
        }
      ],
      "name": "deployAndHandleBridgedTokens",
      "outputs": [],
      "stateMutability": "nonpayable",
      "type": "function"
    },
    {
      "inputs": [
        {
          "internalType": "address",
          "name": "_token",
          "type": "address"
        },
        {
          "internalType": "string",
          "name": "_name",
          "type": "string"
        },
        {
          "internalType": "string",
          "name": "_symbol",
          "type": "string"
        },
        {
          "internalType": "uint8",
          "name": "_decimals",
          "type": "uint8"
        },
        {
          "internalType": "address",
          "name": "_recipient",
          "type": "address"
        },
        {
          "internalType": "uint256",
          "name": "_value",
          "type": "uint256"
        },
        {
          "internalType": "bytes",
          "name": "_data",
          "type": "bytes"
        }
      ],
      "name": "deployAndHandleBridgedTokensAndCall",
      "outputs": [],
      "stateMutability": "nonpayable",
      "type": "function"
    },
    {
      "inputs": [
        {
          "internalType": "address",
          "name": "_token",
          "type": "address"
        }
      ],
      "name": "executionDailyLimit",
      "outputs": [
        {
          "internalType": "uint256",
          "name": "",
          "type": "uint256"
        }
      ],
      "stateMutability": "view",
      "type": "function"
    },
    {
      "inputs": [
        {
          "internalType": "address",
          "name": "_token",
          "type": "address"
        }
      ],
      "name": "executionMaxPerTx",
      "outputs": [
        {
          "internalType": "uint256",
          "name": "",
          "type": "uint256"
        }
      ],
      "stateMutability": "view",
      "type": "function"
    },
    {
      "inputs": [],
      "name": "feeManager",
      "outputs": [
        {
          "internalType": "contract OmnibridgeFeeManager",
          "name": "",
          "type": "address"
        }
      ],
      "stateMutability": "view",
      "type": "function"
    },
    {
      "inputs": [
        {
          "internalType": "bytes32",
          "name": "_messageId",
          "type": "bytes32"
        }
      ],
      "name": "fixFailedMessage",
      "outputs": [],
      "stateMutability": "nonpayable",
      "type": "function"
    },
    {
      "inputs": [
        {
          "internalType": "address",
          "name": "_token",
          "type": "address"
        },
        {
          "internalType": "address",
          "name": "_receiver",
          "type": "address"
        }
      ],
      "name": "fixMediatorBalance",
      "outputs": [],
      "stateMutability": "nonpayable",
      "type": "function"
    },
    {
      "inputs": [],
      "name": "forwardingRulesManager",
      "outputs": [
        {
          "internalType": "contract MultiTokenForwardingRulesManager",
          "name": "",
          "type": "address"
        }
      ],
      "stateMutability": "view",
      "type": "function"
    },
    {
      "inputs": [],
      "name": "gasLimitManager",
      "outputs": [
        {
          "internalType": "contract SelectorTokenGasLimitManager",
          "name": "",
          "type": "address"
        }
      ],
      "stateMutability": "view",
      "type": "function"
    },
    {
      "inputs": [],
      "name": "getBridgeInterfacesVersion",
      "outputs": [
        {
          "internalType": "uint64",
          "name": "major",
          "type": "uint64"
        },
        {
          "internalType": "uint64",
          "name": "minor",
          "type": "uint64"
        },
        {
          "internalType": "uint64",
          "name": "patch",
          "type": "uint64"
        }
      ],
      "stateMutability": "pure",
      "type": "function"
    },
    {
      "inputs": [],
      "name": "getBridgeMode",
      "outputs": [
        {
          "internalType": "bytes4",
          "name": "_data",
          "type": "bytes4"
        }
      ],
      "stateMutability": "pure",
      "type": "function"
    },
    {
      "inputs": [],
      "name": "getCurrentDay",
      "outputs": [
        {
          "internalType": "uint256",
          "name": "",
          "type": "uint256"
        }
      ],
      "stateMutability": "view",
      "type": "function"
    },
    {
      "inputs": [
        {
          "internalType": "address",
          "name": "_token",
          "type": "address"
        },
        {
          "internalType": "address",
          "name": "_recipient",
          "type": "address"
        },
        {
          "internalType": "uint256",
          "name": "_value",
          "type": "uint256"
        }
      ],
      "name": "handleBridgedTokens",
      "outputs": [],
      "stateMutability": "nonpayable",
      "type": "function"
    },
    {
      "inputs": [
        {
          "internalType": "address",
          "name": "_token",
          "type": "address"
        },
        {
          "internalType": "address",
          "name": "_recipient",
          "type": "address"
        },
        {
          "internalType": "uint256",
          "name": "_value",
          "type": "uint256"
        },
        {
          "internalType": "bytes",
          "name": "_data",
          "type": "bytes"
        }
      ],
      "name": "handleBridgedTokensAndCall",
      "outputs": [],
      "stateMutability": "nonpayable",
      "type": "function"
    },
    {
      "inputs": [
        {
          "internalType": "address",
          "name": "_token",
          "type": "address"
        },
        {
          "internalType": "address",
          "name": "_recipient",
          "type": "address"
        },
        {
          "internalType": "uint256",
          "name": "_value",
          "type": "uint256"
        }
      ],
      "name": "handleNativeTokens",
      "outputs": [],
      "stateMutability": "nonpayable",
      "type": "function"
    },
    {
      "inputs": [
        {
          "internalType": "address",
          "name": "_token",
          "type": "address"
        },
        {
          "internalType": "address",
          "name": "_recipient",
          "type": "address"
        },
        {
          "internalType": "uint256",
          "name": "_value",
          "type": "uint256"
        },
        {
          "internalType": "bytes",
          "name": "_data",
          "type": "bytes"
        }
      ],
      "name": "handleNativeTokensAndCall",
      "outputs": [],
      "stateMutability": "nonpayable",
      "type": "function"
    },
    {
      "inputs": [
        {
          "internalType": "address",
          "name": "_token",
          "type": "address"
        }
      ],
      "name": "isBridgedTokenDeployAcknowledged",
      "outputs": [
        {
          "internalType": "bool",
          "name": "",
          "type": "bool"
        }
      ],
      "stateMutability": "view",
      "type": "function"
    },
    {
      "inputs": [],
      "name": "isInitialized",
      "outputs": [
        {
          "internalType": "bool",
          "name": "",
          "type": "bool"
        }
      ],
      "stateMutability": "view",
      "type": "function"
    },
    {
      "inputs": [
        {
          "internalType": "address",
          "name": "_token",
          "type": "address"
        }
      ],
      "name": "isRegisteredAsNativeToken",
      "outputs": [
        {
          "internalType": "bool",
          "name": "",
          "type": "bool"
        }
      ],
      "stateMutability": "view",
      "type": "function"
    },
    {
      "inputs": [
        {
          "internalType": "address",
          "name": "_token",
          "type": "address"
        }
      ],
      "name": "isTokenRegistered",
      "outputs": [
        {
          "internalType": "bool",
          "name": "",
          "type": "bool"
        }
      ],
      "stateMutability": "view",
      "type": "function"
    },
    {
      "inputs": [
        {
          "internalType": "address",
          "name": "_token",
          "type": "address"
        }
      ],
      "name": "maxAvailablePerTx",
      "outputs": [
        {
          "internalType": "uint256",
          "name": "",
          "type": "uint256"
        }
      ],
      "stateMutability": "view",
      "type": "function"
    },
    {
      "inputs": [
        {
          "internalType": "address",
          "name": "_token",
          "type": "address"
        }
      ],
      "name": "maxPerTx",
      "outputs": [
        {
          "internalType": "uint256",
          "name": "",
          "type": "uint256"
        }
      ],
      "stateMutability": "view",
      "type": "function"
    },
    {
      "inputs": [
        {
          "internalType": "address",
          "name": "_token",
          "type": "address"
        }
      ],
      "name": "mediatorBalance",
      "outputs": [
        {
          "internalType": "uint256",
          "name": "",
          "type": "uint256"
        }
      ],
      "stateMutability": "view",
      "type": "function"
    },
    {
      "inputs": [],
      "name": "mediatorContractOnOtherSide",
      "outputs": [
        {
          "internalType": "address",
          "name": "",
          "type": "address"
        }
      ],
      "stateMutability": "view",
      "type": "function"
    },
    {
      "inputs": [
        {
          "internalType": "bytes32",
          "name": "_messageId",
          "type": "bytes32"
        }
      ],
      "name": "messageFixed",
      "outputs": [
        {
          "internalType": "bool",
          "name": "",
          "type": "bool"
        }
      ],
      "stateMutability": "view",
      "type": "function"
    },
    {
      "inputs": [
        {
          "internalType": "address",
          "name": "_token",
          "type": "address"
        }
      ],
      "name": "minPerTx",
      "outputs": [
        {
          "internalType": "uint256",
          "name": "",
          "type": "uint256"
        }
      ],
      "stateMutability": "view",
      "type": "function"
    },
    {
      "inputs": [
        {
          "internalType": "address",
          "name": "_bridgedToken",
          "type": "address"
        }
      ],
      "name": "nativeTokenAddress",
      "outputs": [
        {
          "internalType": "address",
          "name": "",
          "type": "address"
        }
      ],
      "stateMutability": "view",
      "type": "function"
    },
    {
      "inputs": [
        {
          "internalType": "address",
          "name": "_from",
          "type": "address"
        },
        {
          "internalType": "uint256",
          "name": "_value",
          "type": "uint256"
        },
        {
          "internalType": "bytes",
          "name": "_data",
          "type": "bytes"
        }
      ],
      "name": "onTokenTransfer",
      "outputs": [
        {
          "internalType": "bool",
          "name": "",
          "type": "bool"
        }
      ],
      "stateMutability": "nonpayable",
      "type": "function"
    },
    {
      "inputs": [],
      "name": "owner",
      "outputs": [
        {
          "internalType": "address",
          "name": "",
          "type": "address"
        }
      ],
      "stateMutability": "view",
      "type": "function"
    },
    {
      "inputs": [
        {
          "internalType": "contract IERC677",
          "name": "token",
          "type": "address"
        },
        {
          "internalType": "uint256",
          "name": "_value",
          "type": "uint256"
        }
      ],
      "name": "relayTokens",
      "outputs": [],
      "stateMutability": "nonpayable",
      "type": "function"
    },
    {
      "inputs": [
        {
          "internalType": "contract IERC677",
          "name": "token",
          "type": "address"
        },
        {
          "internalType": "address",
          "name": "_receiver",
          "type": "address"
        },
        {
          "internalType": "uint256",
          "name": "_value",
          "type": "uint256"
        }
      ],
      "name": "relayTokens",
      "outputs": [],
      "stateMutability": "nonpayable",
      "type": "function"
    },
    {
      "inputs": [
        {
          "internalType": "contract IERC677",
          "name": "token",
          "type": "address"
        },
        {
          "internalType": "address",
          "name": "_receiver",
          "type": "address"
        },
        {
          "internalType": "uint256",
          "name": "_value",
          "type": "uint256"
        },
        {
          "internalType": "bytes",
          "name": "_data",
          "type": "bytes"
        }
      ],
      "name": "relayTokensAndCall",
      "outputs": [],
      "stateMutability": "nonpayable",
      "type": "function"
    },
    {
      "inputs": [
        {
          "internalType": "bytes32",
          "name": "_messageId",
          "type": "bytes32"
        }
      ],
      "name": "requestFailedMessageFix",
      "outputs": [],
      "stateMutability": "nonpayable",
      "type": "function"
    },
    {
      "inputs": [
        {
          "internalType": "address",
          "name": "_bridgeContract",
          "type": "address"
        }
      ],
      "name": "setBridgeContract",
      "outputs": [],
      "stateMutability": "nonpayable",
      "type": "function"
    },
    {
      "inputs": [
        {
          "internalType": "address",
          "name": "_nativeToken",
          "type": "address"
        },
        {
          "internalType": "address",
          "name": "_bridgedToken",
          "type": "address"
        }
      ],
      "name": "setCustomTokenAddressPair",
      "outputs": [],
      "stateMutability": "nonpayable",
      "type": "function"
    },
    {
      "inputs": [
        {
          "internalType": "address",
          "name": "_token",
          "type": "address"
        },
        {
          "internalType": "uint256",
          "name": "_dailyLimit",
          "type": "uint256"
        }
      ],
      "name": "setDailyLimit",
      "outputs": [],
      "stateMutability": "nonpayable",
      "type": "function"
    },
    {
      "inputs": [
        {
          "internalType": "address",
          "name": "_token",
          "type": "address"
        },
        {
          "internalType": "uint256",
          "name": "_dailyLimit",
          "type": "uint256"
        }
      ],
      "name": "setExecutionDailyLimit",
      "outputs": [],
      "stateMutability": "nonpayable",
      "type": "function"
    },
    {
      "inputs": [
        {
          "internalType": "address",
          "name": "_token",
          "type": "address"
        },
        {
          "internalType": "uint256",
          "name": "_maxPerTx",
          "type": "uint256"
        }
      ],
      "name": "setExecutionMaxPerTx",
      "outputs": [],
      "stateMutability": "nonpayable",
      "type": "function"
    },
    {
      "inputs": [
        {
          "internalType": "address",
          "name": "_feeManager",
          "type": "address"
        }
      ],
      "name": "setFeeManager",
      "outputs": [],
      "stateMutability": "nonpayable",
      "type": "function"
    },
    {
      "inputs": [
        {
          "internalType": "address",
          "name": "_manager",
          "type": "address"
        }
      ],
      "name": "setForwardingRulesManager",
      "outputs": [],
      "stateMutability": "nonpayable",
      "type": "function"
    },
    {
      "inputs": [
        {
          "internalType": "address",
          "name": "_manager",
          "type": "address"
        }
      ],
      "name": "setGasLimitManager",
      "outputs": [],
      "stateMutability": "nonpayable",
      "type": "function"
    },
    {
      "inputs": [
        {
          "internalType": "address",
          "name": "_token",
          "type": "address"
        },
        {
          "internalType": "uint256",
          "name": "_maxPerTx",
          "type": "uint256"
        }
      ],
      "name": "setMaxPerTx",
      "outputs": [],
      "stateMutability": "nonpayable",
      "type": "function"
    },
    {
      "inputs": [
        {
          "internalType": "address",
          "name": "_mediatorContract",
          "type": "address"
        }
      ],
      "name": "setMediatorContractOnOtherSide",
      "outputs": [],
      "stateMutability": "nonpayable",
      "type": "function"
    },
    {
      "inputs": [
        {
          "internalType": "address",
          "name": "_token",
          "type": "address"
        },
        {
          "internalType": "uint256",
          "name": "_minPerTx",
          "type": "uint256"
        }
      ],
      "name": "setMinPerTx",
      "outputs": [],
      "stateMutability": "nonpayable",
      "type": "function"
    },
    {
      "inputs": [
        {
          "internalType": "address",
          "name": "_tokenFactory",
          "type": "address"
        }
      ],
      "name": "setTokenFactory",
      "outputs": [],
      "stateMutability": "nonpayable",
      "type": "function"
    },
    {
      "inputs": [],
      "name": "tokenFactory",
      "outputs": [
        {
          "internalType": "contract TokenFactory",
          "name": "",
          "type": "address"
        }
      ],
      "stateMutability": "view",
      "type": "function"
    },
    {
      "inputs": [
        {
          "internalType": "address",
          "name": "_token",
          "type": "address"
        },
        {
          "internalType": "uint256",
          "name": "_day",
          "type": "uint256"
        }
      ],
      "name": "totalExecutedPerDay",
      "outputs": [
        {
          "internalType": "uint256",
          "name": "",
          "type": "uint256"
        }
      ],
      "stateMutability": "view",
      "type": "function"
    },
    {
      "inputs": [
        {
          "internalType": "address",
          "name": "_token",
          "type": "address"
        },
        {
          "internalType": "uint256",
          "name": "_day",
          "type": "uint256"
        }
      ],
      "name": "totalSpentPerDay",
      "outputs": [
        {
          "internalType": "uint256",
          "name": "",
          "type": "uint256"
        }
      ],
      "stateMutability": "view",
      "type": "function"
    },
    {
      "inputs": [
        {
          "internalType": "address",
          "name": "newOwner",
          "type": "address"
        }
      ],
      "name": "transferOwnership",
      "outputs": [],
      "stateMutability": "nonpayable",
      "type": "function"
    },
    {
      "inputs": [
        {
          "internalType": "address",
          "name": "_token",
          "type": "address"
        },
        {
          "internalType": "uint256",
          "name": "_amount",
          "type": "uint256"
        }
      ],
      "name": "withinExecutionLimit",
      "outputs": [
        {
          "internalType": "bool",
          "name": "",
          "type": "bool"
        }
      ],
      "stateMutability": "view",
      "type": "function"
    },
    {
      "inputs": [
        {
          "internalType": "address",
          "name": "_token",
          "type": "address"
        },
        {
          "internalType": "uint256",
          "name": "_amount",
          "type": "uint256"
        }
      ],
      "name": "withinLimit",
      "outputs": [
        {
          "internalType": "bool",
          "name": "",
          "type": "bool"
        }
      ],
      "stateMutability": "view",
      "type": "function"
    },
    {
      "inputs": [
        {
          "internalType": "address",
          "name": "_bridgeContract",
          "type": "address"
        },
        {
          "internalType": "address",
          "name": "_mediatorContract",
          "type": "address"
        },
        {
          "internalType": "uint256[3]",
          "name": "_dailyLimitMaxPerTxMinPerTxArray",
          "type": "uint256[3]"
        },
        {
          "internalType": "uint256[2]",
          "name": "_executionDailyLimitExecutionMaxPerTxArray",
          "type": "uint256[2]"
        },
        {
          "internalType": "address",
          "name": "_gasLimitManager",
          "type": "address"
        },
        {
          "internalType": "address",
          "name": "_owner",
          "type": "address"
        },
        {
          "internalType": "address",
          "name": "_tokenFactory",
          "type": "address"
        },
        {
          "internalType": "address",
          "name": "_feeManager",
          "type": "address"
        },
        {
          "internalType": "address",
          "name": "_forwardingRulesManager",
          "type": "address"
        }
      ],
      "name": "initialize",
      "outputs": [
        {
          "internalType": "bool",
          "name": "",
          "type": "bool"
        }
      ],
      "stateMutability": "nonpayable",
      "type": "function"
    },
    {
      "inputs": [
        {
          "internalType": "address",
          "name": "_tokenFactory",
          "type": "address"
        },
        {
          "internalType": "address",
          "name": "_forwardingRulesManager",
          "type": "address"
        },
        {
          "internalType": "address",
          "name": "_gasLimitManager",
          "type": "address"
        },
        {
          "internalType": "uint256",
          "name": "_dailyLimit",
          "type": "uint256"
        }
      ],
      "name": "upgradeToReverseMode",
      "outputs": [],
      "stateMutability": "nonpayable",
      "type": "function"
    },
    {
      "inputs": [
        {
          "internalType": "address",
          "name": "_foreignToken",
          "type": "address"
        }
      ],
      "name": "homeTokenAddress",
      "outputs": [
        {
          "internalType": "address",
          "name": "",
          "type": "address"
        }
      ],
      "stateMutability": "view",
      "type": "function"
    },
    {
      "inputs": [
        {
          "internalType": "address",
          "name": "_homeToken",
          "type": "address"
        }
      ],
      "name": "foreignTokenAddress",
      "outputs": [
        {
          "internalType": "address",
          "name": "",
          "type": "address"
        }
      ],
      "stateMutability": "view",
      "type": "function"
    }
  ],
  "bytecode": "0x60c06040523480156200001157600080fd5b5060405162005ef038038062005ef0833981810160405260208110156200003757600080fd5b81019080805160405193929190846401000000008211156200005857600080fd5b9083019060208201858111156200006e57600080fd5b82516401000000008111828201881017156200008957600080fd5b82525081516020918201929091019080838360005b83811015620000b85781810151838201526020016200009e565b50505050905090810190601f168015620000e65780820380516001836020036101000a031916815260200191505b5060405250505080602081511115620000fe57600080fd5b602081015160a052516080525060805160a051615dc16200012f60003980614bea525080614c6f5250615dc16000f3fe608060405234801561001057600080fd5b50600436106103a45760003560e01c80636e5d6bea116101e9578063c2173d431161010f578063d7405481116100ad578063ec47de2a1161007c578063ec47de2a14611045578063f2c54fe814611071578063f2fde38b1461109d578063f3f51415146110c3576103a4565b8063d740548114610f27578063db6fff8c14610feb578063dfbe4ae014611017578063e77772fe1461103d576103a4565b8063cd596583116100e9578063cd59658314610dad578063d0342acd14610db5578063d0fb020314610de3578063d522cfd714610deb576103a4565b8063c2173d4314610cbb578063c534576114610ce1578063c722b1be14610da5576103a4565b80639a4a439511610187578063a4c0ed3611610156578063a4c0ed3614610b7a578063ab3a25d914610c33578063ad58bdd114610c5f578063ae813e9f14610c95576103a4565b80639a4a439514610afb5780639cb7595a14610b185780639d4051ae14610b4c578063a4b1c24314610b54576103a4565b8063867f7a4d116101c3578063867f7a4d14610a01578063871c076014610ac55780638da5cb5b14610acd57806390ad84a814610ad5576103a4565b80636e5d6bea146109895780637610722f146109af5780637837cf91146109d5576103a4565b80632f73a9f8116102ce578063472d35b91161026c578063613fa2f21161023b578063613fa2f2146108d757806361c04f84146108fd57806364696f971461092357806369ffa08a1461095b576103a4565b8063472d35b91461083257806347ac7d6a14610858578063593399821461087e578063613f1e4e1461089b576103a4565b80633da98c8b116102a85780633da98c8b146107785780633e6968b6146107df57806340f8dd86146107e7578063437764df1461080d576103a4565b80632f73a9f81461071e578063392e53cd146107445780633a50bc871461074c576103a4565b8063125e4cfb11610346578063272255bb11610315578063272255bb146105945780632803212f146105ca5780632ae87cdd146105f65780632d70061f146106dc576103a4565b8063125e4cfb146104ec57806316ef191314610522578063194153d31461054857806326aa101f1461056e576103a4565b80630950d515116103825780630950d5151461043b5780630b26cf66146104585780630b71a4a71461047e57806310775238146104ac576103a4565b806301e4f53a146103a957806301fcc1d3146103d7578063032f693f14610403575b600080fd5b6103d5600480360360408110156103bf57600080fd5b506001600160a01b0381351690602001356110e9565b005b6103d5600480360360408110156103ed57600080fd5b506001600160a01b038135169060200135611128565b6104296004803603602081101561041957600080fd5b50356001600160a01b03166111c7565b60408051918252519081900360200190f35b6103d56004803603602081101561045157600080fd5b503561121f565b6103d56004803603602081101561046e57600080fd5b50356001600160a01b03166112c8565b6103d56004803603604081101561049457600080fd5b506001600160a01b03813581169160200135166112dc565b6104d8600480360360408110156104c257600080fd5b506001600160a01b0381351690602001356113b1565b604080519115158252519081900360200190f35b6103d56004803603606081101561050257600080fd5b506001600160a01b03813581169160208101359091169060400135611424565b6104296004803603602081101561053857600080fd5b50356001600160a01b031661145e565b6104296004803603602081101561055e57600080fd5b50356001600160a01b03166114bb565b6104d86004803603602081101561058457600080fd5b50356001600160a01b0316611516565b6103d5600480360360608110156105aa57600080fd5b506001600160a01b03813581169160208101359091169060400135611529565b6103d5600480360360408110156105e057600080fd5b506001600160a01b03813516906020013561154c565b6103d5600480360360c081101561060c57600080fd5b6001600160a01b038235169190810190604081016020820135600160201b81111561063657600080fd5b82018360208201111561064857600080fd5b803590602001918460018302840111600160201b8311171561066957600080fd5b919390929091602081019035600160201b81111561068657600080fd5b82018360208201111561069857600080fd5b803590602001918460018302840111600160201b831117156106b957600080fd5b919350915060ff813516906001600160a01b03602082013516906040013561161b565b610702600480360360208110156106f257600080fd5b50356001600160a01b031661164d565b604080516001600160a01b039092168252519081900360200190f35b6103d56004803603602081101561073457600080fd5b50356001600160a01b03166116b3565b6104d86116c4565b6104d86004803603604081101561076257600080fd5b506001600160a01b038135169060200135611715565b6104d8600480360361018081101561078f57600080fd5b506001600160a01b0381358116916020810135821691604082019160a081019160e0820135811691610100810135821691610120820135811691610140810135821691610160909101351661176b565b610429611953565b610429600480360360208110156107fd57600080fd5b50356001600160a01b031661195c565b6108156119bb565b604080516001600160e01b03199092168252519081900360200190f35b6103d56004803603602081101561084857600080fd5b50356001600160a01b03166119c6565b6107026004803603602081101561086e57600080fd5b50356001600160a01b03166119d7565b6104d86004803603602081101561089457600080fd5b50356119e2565b6103d5600480360360808110156108b157600080fd5b506001600160a01b03813581169160208101358216916040820135169060600135611a35565b6103d5600480360360208110156108ed57600080fd5b50356001600160a01b0316611adc565b6107026004803603602081101561091357600080fd5b50356001600160a01b0316611aed565b6103d56004803603606081101561093957600080fd5b506001600160a01b038135811691602081013582169160409091013516611b56565b6103d56004803603604081101561097157600080fd5b506001600160a01b0381358116916020013516611bdb565b6103d56004803603602081101561099f57600080fd5b50356001600160a01b0316611c12565b610429600480360360208110156109c557600080fd5b50356001600160a01b0316611c23565b6103d5600480360360408110156109eb57600080fd5b506001600160a01b038135169060200135611c7d565b6103d560048036036080811015610a1757600080fd5b6001600160a01b03823581169260208101359091169160408201359190810190608081016060820135600160201b811115610a5157600080fd5b820183602082011115610a6357600080fd5b803590602001918460018302840111600160201b83111715610a8457600080fd5b91908080601f016020809104026020016040519081016040528093929190818152602001838380828437600092019190915250929550611d55945050505050565b610702611d7f565b610702611dd6565b6103d560048036036020811015610aeb57600080fd5b50356001600160a01b0316611e2d565b6103d560048036036020811015610b1157600080fd5b5035611e3e565b610b20612033565b6040805167ffffffffffffffff9485168152928416602084015292168183015290519081900360600190f35b61070261203e565b61042960048036036020811015610b6a57600080fd5b50356001600160a01b0316612095565b6104d860048036036060811015610b9057600080fd5b6001600160a01b0382351691602081013591810190606081016040820135600160201b811115610bbf57600080fd5b820183602082011115610bd157600080fd5b803590602001918460018302840111600160201b83111715610bf257600080fd5b91908080601f0160208091040260200160405190810160405280939291908181526020018383808284376000920191909152509295506120e9945050505050565b61042960048036036040811015610c4957600080fd5b506001600160a01b038135169060200135612150565b6103d560048036036060811015610c7557600080fd5b506001600160a01b038135811691602081013590911690604001356121b6565b6104d860048036036020811015610cab57600080fd5b50356001600160a01b03166121c4565b6104d860048036036020811015610cd157600080fd5b50356001600160a01b031661221d565b6103d560048036036080811015610cf757600080fd5b6001600160a01b03823581169260208101359091169160408201359190810190608081016060820135600160201b811115610d3157600080fd5b820183602082011115610d4357600080fd5b803590602001918460018302840111600160201b83111715610d6457600080fd5b91908080601f01602080910402602001604051908101604052809392919081815260200183838082843760009201919091525092955061224a945050505050565b61070261228a565b6107026122e1565b6103d560048036036040811015610dcb57600080fd5b506001600160a01b0381358116916020013516612338565b6107026123f7565b6103d5600480360360e0811015610e0157600080fd5b6001600160a01b038235169190810190604081016020820135600160201b811115610e2b57600080fd5b820183602082011115610e3d57600080fd5b803590602001918460018302840111600160201b83111715610e5e57600080fd5b919390929091602081019035600160201b811115610e7b57600080fd5b820183602082011115610e8d57600080fd5b803590602001918460018302840111600160201b83111715610eae57600080fd5b9193909260ff833516926001600160a01b03602082013516926040820135929091608081019060600135600160201b811115610ee957600080fd5b820183602082011115610efb57600080fd5b803590602001918460018302840111600160201b83111715610f1c57600080fd5b50909250905061244e565b6103d560048036036080811015610f3d57600080fd5b6001600160a01b03823581169260208101359091169160408201359190810190608081016060820135600160201b811115610f7757600080fd5b820183602082011115610f8957600080fd5b803590602001918460018302840111600160201b83111715610faa57600080fd5b91908080601f0160208091040260200160405190810160405280939291908181526020018383808284376000920191909152509295506124c4945050505050565b6103d56004803603604081101561100157600080fd5b506001600160a01b0381351690602001356124d0565b6107026004803603602081101561102d57600080fd5b50356001600160a01b031661256d565b610702612578565b6103d56004803603604081101561105b57600080fd5b506001600160a01b0381351690602001356125cf565b6104296004803603604081101561108757600080fd5b506001600160a01b038135169060200135612670565b6103d5600480360360208110156110b357600080fd5b50356001600160a01b03166126d9565b610429600480360360208110156110d957600080fd5b50356001600160a01b03166126ea565b6111248233836000805b506040519080825280601f01601f19166020018201604052801561111e576020820181803683370190505b50612740565b5050565b6111306128a1565b61113982611516565b61114257600080fd5b8015806111615750600081118015611161575061115e8261195c565b81105b61116a57600080fd5b60408051700caf0cac6eae8d2dedc9ac2f0a0cae4a8f607b1b60208083019190915260609490941b6001600160601b0319166031820152815180820360250181526045909101825280519084012060009081529283905290912055565b60408051670dac2f0a0cae4a8f60c31b6020808301919091526001600160601b0319606085901b1660288301528251601c818403018152603c909201835281519181019190912060009081529081905220545b919050565b6112276128c8565b611230816119e2565b1561123a57600080fd5b600061124582612972565b90506000611252836129cb565b9050600061125f84612a28565b905061126a84612a77565b611275838383612ad0565b604080516001600160a01b03808616825284166020820152808201839052905185917f07b5483b8e4bd8ea240a474d5117738350e7d431e3668c48a97910b0b397796a919081900360600190a250505050565b6112d06128a1565b6112d981612af1565b50565b6112e46128a1565b6112ed81611516565b156112f757600080fd5b600061130282611aed565b6001600160a01b03161461131557600080fd5b60006113208361164d565b6001600160a01b03161461133357600080fd5b6113486001600160a01b038216306001612b6d565b806001600160a01b03166342966c6860016040518263ffffffff1660e01b815260040180828152602001915050600060405180830381600087803b15801561138f57600080fd5b505af11580156113a3573d6000803e3d6000fd5b505050506111248282612bf9565b6000806113cf836113c9866113c4611953565b612150565b90612cf4565b905060006113dd60006126ea565b1180156113f25750806113ef856126ea565b10155b80156114065750611402846111c7565b8311155b801561141a575061141684612095565b8310155b9150505b92915050565b61142c6128c8565b60006114378461164d565b905061144281611516565b61144b57600080fd5b6114588160008585612d55565b50505050565b60408051700caf0cac6eae8d2dedc9ac2f0a0cae4a8f607b1b60208083019190915260609390931b6001600160601b0319166031820152815180820360250181526045909101825280519083012060009081529182905290205490565b604080516e6d65646961746f7242616c616e636560881b60208083019190915260609390931b6001600160601b031916602f820152815180820360230181526043909101825280519083012060009081529182905290205490565b60008061152283612095565b1192915050565b6115316128c8565b61153a83612e7f565b6115478360018484612d55565b505050565b6115546128a1565b61155d82611516565b61156657600080fd5b61156f826111c7565b81118061157a575080155b61158357600080fd5b604080516919185a5b1e531a5b5a5d60b21b6020808301919091526001600160601b0319606086901b16602a8301528251601e818403018152603e83018085528151918301919091206000908152918290529083902084905583905290516001600160a01b038416917fca0b3dabefdbd8c72c0a9cf4a6e9d107da897abf036ef3f3f3b010cdd25941599190819003605e0190a25050565b6116236128c8565b6000611633898989898989612f3b565b90506116428160008585612d55565b505050505050505050565b604080516f686f6d65546f6b656e4164647265737360801b60208083019190915260609390931b6001600160601b03191660308201528151808203602401815260449091018252805190830120600090815260029092529020546001600160a01b031690565b6116bb6128a1565b6112d981613289565b7f0a6f646cd611241d8073675e00d1a1ff700fbf1b53fcf473de56d1e6e4b714ba60005260046020527f078d888f9b66f3f8bfa10909e31f1e16240db73449f0500afdbbe3a70da457cc5460ff1690565b60008061172d836113c986611728611953565b612670565b9050600061173b600061195c565b11801561175057508061174d8561195c565b10155b801561141a57506117608461145e565b909211159392505050565b60408051600481526024810182526020810180516001600160e01b03166337ef410160e11b1781529151815160009384936060933093919290918291908083835b602083106117cb5780518252601f1990920191602091820191016117ac565b6001836020036101000a038019825116818451168082178552505050505050905001915050600060405180830381855afa9150503d806000811461182b576040519150601f19603f3d011682016040523d82523d6000602084013e611830565b606091505b509150915081158061186c57508051602014801561186c575080806020019051602081101561185e57600080fd5b50516001600160a01b031633145b8061187657503330145b61187f57600080fd5b6118876116c4565b1561189157600080fd5b61189a8c612af1565b6118a38b613305565b6118d760008b600380602002604051908101604052809291908260036020028082843760009201919091525061336f915050565b60408051808201825261190691600091908c9060029083908390808284376000920191909152506134c3915050565b61190f886135b2565b6119188761363f565b61192186613289565b61192a85613707565b61193384613794565b61193b613821565b6119436116c4565b9c9b505050505050505050505050565b62015180420490565b6040805172195e1958dd5d1a5bdb91185a5b1e531a5b5a5d606a1b60208083019190915260609390931b6001600160601b0319166033820152815180820360270181526047909101825280519083012060009081529182905290205490565b6358a8b61360e11b90565b6119ce6128a1565b6112d981613707565b600061141e82611aed565b604080516b1b595cdcd859d9519a5e195960a21b602080830191909152602c80830185905283518084039091018152604c909201835281519181019190912060009081526004909152205460ff16919050565b333014611a4157600080fd5b611a4a84613289565b611a5383613794565b611a5c826135b2565b604080516919185a5b1e531a5b5a5d60b21b6020808301919091526000602a83018190528351601e818503018152603e84018086528151918401919091208252918190528381208590559084905291517fca0b3dabefdbd8c72c0a9cf4a6e9d107da897abf036ef3f3f3b010cdd259415991819003605e0190a250505050565b611ae46128a1565b6112d9816135b2565b6040805172666f726569676e546f6b656e4164647265737360681b60208083019190915260609390931b6001600160601b03191660338201528151808203602701815260479091018252805190830120600090815260029092529020546001600160a01b031690565b611b5e613878565b826001600160a01b03166369ffa08a83836040518363ffffffff1660e01b815260040180836001600160a01b03168152602001826001600160a01b0316815260200192505050600060405180830381600087803b158015611bbe57600080fd5b505af1158015611bd2573d6000803e3d6000fd5b50505050505050565b611be3613878565b6001600160a01b0382161580611bff5750611bfd82611516565b155b611c0857600080fd5b61112482826138f1565b611c1a6128a1565b6112d981613305565b600080611c2f836111c7565b90506000611c3c846126ea565b90506000611c4c856113c4611953565b90506000818311611c5e576000611c62565b8183035b9050808410611c715780611c73565b835b9695505050505050565b611c856128a1565b611c8e82611516565b611c9757600080fd5b611ca08261145e565b811180611cab575080155b611cb457600080fd5b6040805172195e1958dd5d1a5bdb91185a5b1e531a5b5a5d606a1b6020808301919091526001600160601b0319606086901b16603383015282516027818403018152604783018085528151918301919091206000908152918290529083902084905583905290516001600160a01b038416917f4c177b42dbe934b3abbc0208c11a42e46589983431616f1710ab19969c5ed62e919081900360670190a25050565b611d5d6128c8565b611d6684612e7f565b611d738460018585612d55565b6114588385848461392b565b7f98aa806e31e94a687a31c65769cb99670064dd7f5a87526da075c5fb4eab988060005260026020527f0c1206883be66049a02d4937078367c00b3d71dd1a9465df969363c6ddeac96d546001600160a01b031690565b7f02016836a56b71f0d02689e69e326f4f4c1b9057164ef592671cf0d37c8040c060005260026020527fb7802e97e87ef2842a6cce7da7ffaeaedaa2f61a6a7870b23d9d01fc9b73712e546001600160a01b031690565b611e356128a1565b6112d981613794565b6000611e486122e1565b9050806001600160a01b031663cb08a10c836040518263ffffffff1660e01b81526004018082815260200191505060206040518083038186803b158015611e8e57600080fd5b505afa158015611ea2573d6000803e3d6000fd5b505050506040513d6020811015611eb857600080fd5b505115611ec457600080fd5b306001600160a01b0316816001600160a01b0316633f9a8e7e846040518263ffffffff1660e01b81526004018082815260200191505060206040518083038186803b158015611f1257600080fd5b505afa158015611f26573d6000803e3d6000fd5b505050506040513d6020811015611f3c57600080fd5b50516001600160a01b031614611f5157600080fd5b611f59611d7f565b6001600160a01b0316816001600160a01b0316634a610b04846040518263ffffffff1660e01b81526004018082815260200191505060206040518083038186803b158015611fa657600080fd5b505afa158015611fba573d6000803e3d6000fd5b505050506040513d6020811015611fd057600080fd5b50516001600160a01b031614611fe557600080fd5b6040805160248082018590528251808303909101815260449091019091526020810180516001600160e01b0316630950d51560e01b9081179091529061202c816001613a98565b5050505050565b600360026000909192565b7f5f5bc4e0b888be22a35f2166061a04607296c26861006b9b8e089a172696a82260005260026020527f60072fd9ffad01d76b1d1421ce17a3613dc06795e4b113745995ad1d84a52121546001600160a01b031690565b60408051670dad2dca0cae4a8f60c31b60208083019190915260609390931b6001600160601b03191660288201528151808203601c018152603c909101825280519083012060009081529182905290205490565b60006120f3613cac565b61214657604080516000815260208101909152825185906014116121365761211a84613cd1565b9050601484511115612136578351601319016014850190815291505b6121433387838886613cd8565b50505b5060019392505050565b604080516f746f74616c5370656e7450657244617960801b60208083019190915260609490941b6001600160601b031916603082015260448082019390935281518082039093018352606401815281519183019190912060009081529182905290205490565b6115478383836000806110f3565b604080516861636b4465706c6f7960b81b60208083019190915260609390931b6001600160601b03191660298201528151808203601d018152603d90910182528051908301206000908152600490925290205460ff1690565b600061222882611516565b801561141e5750600061223a83611aed565b6001600160a01b03161492915050565b6122526128c8565b600061225d8561164d565b905061226881611516565b61227157600080fd5b61227e8160008686612d55565b61202c8482858561392b565b7f5f86f226cd489cc09187d5f5e0adfb94308af0d4ceac482dd8a8adea9d80daf460005260026020527fab9e97adef29adb9492a44df89badb4a706f8f35202918df21ca61ed056c4868546001600160a01b031690565b7f811bbb11e8899da471f0e69a3ed55090fc90215227fc5fb1cb0d6e962ea7b74f60005260026020527fb4ed64697d3ef8518241966f7c6f28b0d72f20f51198717d198d2d55076c593d546001600160a01b031690565b612340613878565b806001600160a01b03811661235457600080fd5b61235d8361221d565b61236657600080fd5b600061237184613e38565b90506000811161238057600080fd5b600061238b85611c23565b90506000811161239a57600080fd5b808211156123a6578091505b6123b8856123b2611953565b84613e8c565b604080516000808252602082019092526060916123da91889088908790613f0a565b905060006123e9826001613a98565b9050611bd281888887614585565b7f779a349c5bee7817f04c960f525ee3e2f2516078c38c68a3149787976ee837e560005260026020527fc155b21a14c4592b97825e495fbe0d2705fb46420018cac5bfa7a09c43fae517546001600160a01b031690565b6124566128c8565b60006124668b8b8b8b8b8b612f3b565b90506124758160008787612d55565b6124b785828686868080601f01602080910402602001604051908101604052809392919081815260200183838082843760009201919091525061392b92505050565b5050505050505050505050565b61145884848484612740565b6124d86128a1565b6124e182611516565b6124ea57600080fd5b80158061251057506124fb82612095565b81118015612510575061250d826126ea565b81105b61251957600080fd5b60408051670dac2f0a0cae4a8f60c31b60208083019190915260609490941b6001600160601b03191660288201528151808203601c018152603c909101825280519084012060009081529283905290912055565b600061141e8261164d565b7f269c5905f777ee6391c7a361d17039a7d62f52ba9fffeb98c5ade342705731a360005260026020527f15c764a0cd4bb3d72a49abedd3d6793c3b93c0d57f43174a348b443be86f79c1546001600160a01b031690565b6125d76128a1565b6125e082611516565b6125e957600080fd5b60008111801561260057506125fd826126ea565b81105b80156126135750612610826111c7565b81105b61261c57600080fd5b60408051670dad2dca0cae4a8f60c31b60208083019190915260609490941b6001600160601b03191660288201528151808203601c018152603c909101825280519084012060009081529283905290912055565b6040805172746f74616c457865637574656450657244617960681b60208083019190915260609490941b6001600160601b031916603382015260478082019390935281518082039093018352606701815281519183019190912060009081529182905290205490565b6126e16128a1565b6112d98161363f565b604080516919185a5b1e531a5b5a5d60b21b60208083019190915260609390931b6001600160601b031916602a8201528151808203601e018152603e909101825280519083012060009081529182905290205490565b612748613cac565b1561275257600080fd5b6000846001600160a01b03166370a08231306040518263ffffffff1660e01b815260040180826001600160a01b0316815260200191505060206040518083038186803b1580156127a157600080fd5b505afa1580156127b5573d6000803e3d6000fd5b505050506040513d60208110156127cb57600080fd5b505190506127d960016145f5565b6127ee6001600160a01b038616333086614619565b6127f860006145f5565b600061287d82876001600160a01b03166370a08231306040518263ffffffff1660e01b815260040180826001600160a01b0316815260200191505060206040518083038186803b15801561284b57600080fd5b505afa15801561285f573d6000803e3d6000fd5b505050506040513d602081101561287557600080fd5b505190614673565b90508381111561288c57600080fd5b6128998633878487613cd8565b505050505050565b6128a9611dd6565b6001600160a01b0316336001600160a01b0316146128c657600080fd5b565b60006128d26122e1565b9050336001600160a01b038216146128e957600080fd5b6128f1611d7f565b6001600160a01b0316816001600160a01b031663d67bdd256040518163ffffffff1660e01b815260040160206040518083038186803b15801561293357600080fd5b505afa158015612947573d6000803e3d6000fd5b505050506040513d602081101561295d57600080fd5b50516001600160a01b0316146112d957600080fd5b604080516b36b2b9b9b0b3b2aa37b5b2b760a11b602080830191909152602c80830185905283518084039091018152604c90920183528151918101919091206000908152600290915220546001600160a01b0316919050565b604080516f1b595cdcd859d9549958da5c1a595b9d60821b602080830191909152603080830185905283518084039091018152605090920183528151918101919091206000908152600290915220546001600160a01b0316919050565b604080516b6d65737361676556616c756560a01b602080830191909152602c80830185905283518084039091018152604c90920183528151918101919091206000908152908190522054919050565b604080516b1b595cdcd859d9519a5e195960a21b602080830191909152602c8083019490945282518083039094018452604c9091018252825192810192909220600090815260049092529020805460ff19166001179055565b6115476000612ade85611aed565b6001600160a01b031614848484856146b5565b612afa81614709565b612b0357600080fd5b7f811bbb11e8899da471f0e69a3ed55090fc90215227fc5fb1cb0d6e962ea7b74f60005260026020527fb4ed64697d3ef8518241966f7c6f28b0d72f20f51198717d198d2d55076c593d80546001600160a01b0319166001600160a01b0392909216919091179055565b826001600160a01b03166340c10f1983836040518363ffffffff1660e01b815260040180836001600160a01b0316815260200182815260200192505050602060405180830381600087803b158015612bc457600080fd5b505af1158015612bd8573d6000803e3d6000fd5b505050506040513d6020811015612bee57600080fd5b505161154757600080fd5b604080516f686f6d65546f6b656e4164647265737360801b6020808301919091526001600160601b0319606086811b82166030850152845160248186030181526044850186528051908401206000908152600280855286822080546001600160a01b03808b166001600160a01b0319928316811790935572666f726569676e546f6b656e4164647265737360681b60648a0152948a901b90951660778801528751606b818903018152608b909701808952875197870197909720835294529485208054909216908716908117909155909290917f78d063210f4fb6b4cc932390bb8045fa2465e51349590182dab8b9e84c57a6ee9190a35050565b600082820183811015612d4e576040805162461bcd60e51b815260206004820152601b60248201527f536166654d6174683a206164646974696f6e206f766572666c6f770000000000604482015290519081900360640190fd5b9392505050565b612d5d613cac565b15612d6757600080fd5b612d718482611715565b612d7a57600080fd5b612d8c84612d86611953565b83614745565b806000612dbc7f03be2b2875cb41e0e77355e802a16769bb8dfcf825061cde185c73bf94f12625868389866147c6565b90506000612dc8614b71565b90508115612e1d5760408051838152905182916001600160a01b038a16917fd560a522f77cfb4924d6fe51be1615e540a48a8931c48fe0349c7f47ebabe7479181900360200190a3612e1a8383614673565b92505b612e2a86888786886146b5565b80856001600160a01b0316886001600160a01b03167f9afd47907e25028cdaca89d193518c302bbb128617d5a992c5abd45815526593866040518082815260200191505060405180910390a450505050505050565b604080516861636b4465706c6f7960b81b6020808301919091526001600160601b0319606085901b1660298301528251601d818403018152603d909201835281519181019190912060009081526004909152205460ff166112d957604080516861636b4465706c6f7960b81b6020808301919091526001600160601b0319606085901b1660298301528251601d818403018152603d90920183528151918101919091206000908152600490915220805460ff1916600117905550565b600080612f478861164d565b90506001600160a01b0381166131ee57606087878080601f01602080910402602001604051908101604052809392919081815260200183838082843760009201919091525050604080516020601f8b0181900481028201810190925289815293945060609392508991508890819084018382808284376000920191909152505084519293505050151580612fdc575060008151115b612fe557600080fd5b8151612ff357809150612ffc565b8051612ffc5750805b61300582614be4565b915061300f612578565b6001600160a01b031663a39d6acf8383886130286122e1565b6001600160a01b0316631544298e6040518163ffffffff1660e01b815260040160206040518083038186803b15801561306057600080fd5b505afa158015613074573d6000803e3d6000fd5b505050506040513d602081101561308a57600080fd5b50516040516001600160e01b031960e087901b16815260ff831660448201526064810182905260806004820190815285516084830152855190918291602482019160a40190602089019080838360005b838110156130f25781810151838201526020016130da565b50505050905090810190601f16801561311f5780820380516001836020036101000a031916815260200191505b50838103825286518152865160209182019188019080838360005b8381101561315257818101518382015260200161313a565b50505050905090810190601f16801561317f5780820380516001836020036101000a031916815260200191505b509650505050505050602060405180830381600087803b1580156131a257600080fd5b505af11580156131b6573d6000803e3d6000fd5b505050506040513d60208110156131cc57600080fd5b505192506131da8a84612bf9565b6131e7838660ff16614c99565b505061327e565b6131f781611516565b61327e578260ff16816001600160a01b031663313ce5676040518163ffffffff1660e01b815260040160206040518083038186803b15801561323857600080fd5b505afa15801561324c573d6000803e3d6000fd5b505050506040513d602081101561326257600080fd5b505160ff161461327157600080fd5b61327e818460ff16614c99565b979650505050505050565b61329281614709565b61329b57600080fd5b7f269c5905f777ee6391c7a361d17039a7d62f52ba9fffeb98c5ade342705731a360005260026020527f15c764a0cd4bb3d72a49abedd3d6793c3b93c0d57f43174a348b443be86f79c180546001600160a01b0319166001600160a01b0392909216919091179055565b7f98aa806e31e94a687a31c65769cb99670064dd7f5a87526da075c5fb4eab988060005260026020527f0c1206883be66049a02d4937078367c00b3d71dd1a9465df969363c6ddeac96d80546001600160a01b0319166001600160a01b0392909216919091179055565b604081015115801590613389575060408101516020820151115b8015613399575060208101518151115b6133a257600080fd5b8051604080516919185a5b1e531a5b5a5d60b21b602082810191909152606086901b6001600160601b031916602a83018190528351808403601e018152603e8401855280519083012060009081528083528481209590955581860151670dac2f0a0cae4a8f60c31b605e850152606684018290528451605a818603018152607a8501865280519084012086528583528486205583860151670dad2dca0cae4a8f60c31b609a85015260a28401919091528351609681850301815260b690930184528251928201929092208452839052908220556001600160a01b038316907fca0b3dabefdbd8c72c0a9cf4a6e9d107da897abf036ef3f3f3b010cdd25941599083905b60200201516040518082815260200191505060405180910390a25050565b80516020820151106134d457600080fd5b80516040805172195e1958dd5d1a5bdb91185a5b1e531a5b5a5d606a1b602082810191909152606086901b6001600160601b031916603383018190528351808403602701815260478401855280519083012060009081528083528481209590955581860151700caf0cac6eae8d2dedc9ac2f0a0cae4a8f607b1b606785015260788401919091528351606c818503018152608c90930184528251928201929092208452839052908220556001600160a01b038316907f4c177b42dbe934b3abbc0208c11a42e46589983431616f1710ab19969c5ed62e9083906134a5565b6001600160a01b03811615806135cc57506135cc81614709565b6135d557600080fd5b7f5f5bc4e0b888be22a35f2166061a04607296c26861006b9b8e089a172696a82260005260026020527f60072fd9ffad01d76b1d1421ce17a3613dc06795e4b113745995ad1d84a5212180546001600160a01b0319166001600160a01b0392909216919091179055565b6001600160a01b03811661365257600080fd5b7f8be0079c531659141344cd1fd0a4f28419497f9722a3daafe3b4186f6b6457e061367b611dd6565b604080516001600160a01b03928316815291841660208301528051918290030190a17f02016836a56b71f0d02689e69e326f4f4c1b9057164ef592671cf0d37c8040c060005260026020527fb7802e97e87ef2842a6cce7da7ffaeaedaa2f61a6a7870b23d9d01fc9b73712e80546001600160a01b0319166001600160a01b0392909216919091179055565b6001600160a01b0381161580613721575061372181614709565b61372a57600080fd5b7f779a349c5bee7817f04c960f525ee3e2f2516078c38c68a3149787976ee837e560005260026020527fc155b21a14c4592b97825e495fbe0d2705fb46420018cac5bfa7a09c43fae51780546001600160a01b0319166001600160a01b0392909216919091179055565b6001600160a01b03811615806137ae57506137ae81614709565b6137b757600080fd5b7f5f86f226cd489cc09187d5f5e0adfb94308af0d4ceac482dd8a8adea9d80daf460005260026020527fab9e97adef29adb9492a44df89badb4a706f8f35202918df21ca61ed056c486880546001600160a01b0319166001600160a01b0392909216919091179055565b7f0a6f646cd611241d8073675e00d1a1ff700fbf1b53fcf473de56d1e6e4b714ba60005260046020527f078d888f9b66f3f8bfa10909e31f1e16240db73449f0500afdbbe3a70da457cc805460ff19166001179055565b306001600160a01b0316636fde82026040518163ffffffff1660e01b815260040160206040518083038186803b1580156138b157600080fd5b505afa1580156138c5573d6000803e3d6000fd5b505050506040513d60208110156138db57600080fd5b50516001600160a01b031633146128c657600080fd5b806001600160a01b03811661390557600080fd5b6001600160a01b0383166139215761391c82614e1d565b611547565b6115478383614e28565b61393484614709565b1561145857836001600160a01b031663db7af85460e01b84848460405160240180846001600160a01b0316815260200183815260200180602001828103825283818151815260200191508051906020019080838360005b838110156139a357818101518382015260200161398b565b50505050905090810190601f1680156139d05780820380516001836020036101000a031916815260200191505b5060408051601f198184030181529181526020820180516001600160e01b03166001600160e01b031990991698909817885251815191979096508695509350915081905083835b60208310613a365780518252601f199092019160209182019101613a17565b6001836020036101000a0380198251168184511680821785525050505050509050019150506000604051808303816000865af19150503d8060008114611bd2576040519150601f19603f3d011682016040523d82523d6000602084013e611bd2565b600080613aa3611d7f565b90506000613ab085614eb5565b90506000613abc6122e1565b905084613bb557806001600160a01b03166394643f718488856040518463ffffffff1660e01b815260040180846001600160a01b0316815260200180602001838152602001828103825284818151815260200191508051906020019080838360005b83811015613b36578181015183820152602001613b1e565b50505050905090810190601f168015613b635780820380516001836020036101000a031916815260200191505b50945050505050602060405180830381600087803b158015613b8457600080fd5b505af1158015613b98573d6000803e3d6000fd5b505050506040513d6020811015613bae57600080fd5b5051611c73565b806001600160a01b031663dc8601b38488856040518463ffffffff1660e01b815260040180846001600160a01b0316815260200180602001838152602001828103825284818151815260200191508051906020019080838360005b83811015613c28578181015183820152602001613c10565b50505050905090810190601f168015613c555780820380516001836020036101000a031916815260200191505b50945050505050602060405180830381600087803b158015613c7657600080fd5b505af1158015613c8a573d6000803e3d6000fd5b505050506040513d6020811015613ca057600080fd5b50519695505050505050565b7f6168652c307c1e813ca11cfb3a601f1cf3b22452021a5052d8b05f1f1f8a3e925490565b6014015190565b6001600160a01b03831615801590613d095750613cf3611d7f565b6001600160a01b0316836001600160a01b031614155b613d1257600080fd5b613d1b85611516565b613d3b576000613d2a86614fe9565b9050613d39868260ff16614c99565b505b613d4585836113b1565b613d4e57600080fd5b613d5a856123b2611953565b6000613d6586611aed565b90506000613da07f741ede137d0537e88e0ea0ff25b1f22d837903dbbee8980b4a06e8523247ee266001600160a01b03841615888a886147c6565b90506000613dae8583614673565b90506060613dbf848a898589613f0a565b90506000613dd782613dd28c8c8c6151b7565b613a98565b9050613de5818b8b86614585565b8315613e2c5760408051858152905182916001600160a01b038d16917fd560a522f77cfb4924d6fe51be1615e540a48a8931c48fe0349c7f47ebabe7479181900360200190a35b50505050505050505050565b600061141e613e46836114bb565b604080516370a0823160e01b815230600482015290516001600160a01b038616916370a08231916024808301926020929190829003018186803b15801561284b57600080fd5b613e9a816113c98585612150565b600080858560405160200180806f746f74616c5370656e7450657244617960801b815250601001836001600160a01b031660601b81526014018281526020019250505060405160208183030381529060405280519060200120815260200190815260200160002081905550505050565b606060008083511180613f2f57506000356001600160e01b03191663d740548160e01b145b90506001600160a01b0387166143ea57613f5586613f50866113c98a6114bb565b615266565b613f5e866121c4565b1561409b5780613fbc57604080516001600160a01b0380891660248301528716604482015260648082018790528251808303909101815260849091019091526020810180516001600160e01b031663125e4cfb60e01b179052614093565b63c534576160e01b8686868660405160240180856001600160a01b03168152602001846001600160a01b0316815260200183815260200180602001828103825283818151815260200191508051906020019080838360005b8381101561402c578181015183820152602001614014565b50505050905090810190601f1680156140595780820380516001836020036101000a031916815260200191505b5060408051601f198184030181529190526020810180516001600160e01b03166001600160e01b0319909916989098179097525050505050505b91505061457c565b60006140a687614fe9565b905060606140b3886152c1565b905060606140c089615487565b90506000825111806140d3575060008151115b6140dc57600080fd5b8361422f57632ae87cdd60e01b898383868c8c60405160240180876001600160a01b0316815260200180602001806020018660ff168152602001856001600160a01b03168152602001848152602001838103835288818151815260200191508051906020019080838360005b83811015614160578181015183820152602001614148565b50505050905090810190601f16801561418d5780820380516001836020036101000a031916815260200191505b50838103825287518152875160209182019189019080838360005b838110156141c05781810151838201526020016141a8565b50505050905090810190601f1680156141ed5780820380516001836020036101000a031916815260200191505b5060408051601f198184030181529190526020810180516001600160e01b03166001600160e01b0319909c169b909b17909a52506143df975050505050505050565b63d522cfd760e01b898383868c8c8c60405160240180886001600160a01b0316815260200180602001806020018760ff168152602001866001600160a01b031681526020018581526020018060200184810384528a818151815260200191508051906020019080838360005b838110156142b357818101518382015260200161429b565b50505050905090810190601f1680156142e05780820380516001836020036101000a031916815260200191505b5084810383528951815289516020918201918b019080838360005b838110156143135781810151838201526020016142fb565b50505050905090810190601f1680156143405780820380516001836020036101000a031916815260200191505b50848103825285518152855160209182019187019080838360005b8381101561437357818101518382015260200161435b565b50505050905090810190601f1680156143a05780820380516001836020036101000a031916815260200191505b5060408051601f198184030181529190526020810180516001600160e01b03166001600160e01b0319909e169d909d17909c5250505050505050505050505b94505050505061457c565b856001600160a01b03166342966c68856040518263ffffffff1660e01b815260040180828152602001915050600060405180830381600087803b15801561443057600080fd5b505af1158015614444573d6000803e3d6000fd5b50505050806144a157604080516001600160a01b03808a1660248301528716604482015260648082018790528251808303909101815260849091019091526020810180516001600160e01b031663272255bb60e01b179052614578565b63867f7a4d60e01b8786868660405160240180856001600160a01b03168152602001846001600160a01b0316815260200183815260200180602001828103825283818151815260200191508051906020019080838360005b838110156145115781810151838201526020016144f9565b50505050905090810190601f16801561453e5780820380516001836020036101000a031916815260200191505b5060408051601f198184030181529190526020810180516001600160e01b03166001600160e01b0319909916989098179097525050505050505b9150505b95945050505050565b61458f84846155ba565b6145998483615626565b6145a38482615696565b83826001600160a01b0316846001600160a01b03167f59a9a8027b9c87b961e254899821c9a276b5efc35d1f7409ea4f291470f1629a846040518082815260200191505060405180910390a450505050565b7f6168652c307c1e813ca11cfb3a601f1cf3b22452021a5052d8b05f1f1f8a3e9255565b604080516001600160a01b0380861660248301528416604482015260648082018490528251808303909101815260849091019091526020810180516001600160e01b03166323b872dd60e01b1790526114589085906156e5565b6000612d4e83836040518060400160405280601e81526020017f536166654d6174683a207375627472616374696f6e206f766572666c6f770000815250615796565b84156146eb576146cf6001600160a01b038516848461582d565b6146e684613f50836146e0886114bb565b90614673565b61202c565b61202c83836146f98761587f565b6001600160a01b03169190612b6d565b6000813f7fc5d2460186f7233c927e7db2dcc703c0e500b653ca82273b7bfad8045d85a47081811480159061473d57508115155b949350505050565b614753816113c98585612670565b6000808585604051602001808072746f74616c457865637574656450657244617960681b815250601301836001600160a01b031660601b81526014018281526020019250505060405160208183030381529060405280519060200120815260200190815260200160002081905550505050565b6000806147d16123f7565b90506001600160a01b03811615614b64577f741ede137d0537e88e0ea0ff25b1f22d837903dbbee8980b4a06e8523247ee26871480156148865750806001600160a01b031663071664c5866040518263ffffffff1660e01b815260040180826001600160a01b0316815260200191505060206040518083038186803b15801561485957600080fd5b505afa15801561486d573d6000803e3d6000fd5b505050506040513d602081101561488357600080fd5b50515b1561489557600091505061457c565b6000816001600160a01b031663710c60138987876040518463ffffffff1660e01b815260040180848152602001836001600160a01b03168152602001828152602001935050505060206040518083038186803b1580156148f457600080fd5b505afa158015614908573d6000803e3d6000fd5b505050506040513d602081101561491e57600080fd5b505190508015614b5b577f741ede137d0537e88e0ea0ff25b1f22d837903dbbee8980b4a06e8523247ee26881415614969576149646001600160a01b038616838361582d565b614af3565b60008761497d576340c10f1960e01b614986565b63a9059cbb60e01b5b604080516001600160a01b038681166024830152604480830187905283518084039091018152606490920183526020820180516001600160e01b03166001600160e01b0319861617815292518251949550600094606094928c16939282918083835b60208310614a075780518252601f1990920191602091820191016149e8565b6001836020036101000a0380198251168184511680821785525050505050509050019150506000604051808303816000865af19150503d8060008114614a69576040519150601f19603f3d011682016040523d82523d6000602084013e614a6e565b606091505b509150915081614ac5576040805185815290516001600160a01b038a16917fb8842ee9d1603ef0f5620c01feb6cf2e7921091eba728cbce562041a86ee109a919081900360200190a260009550505050505061457c565b80511580614ae65750808060200190516020811015614ae357600080fd5b50515b614aef57600080fd5b5050505b816001600160a01b0316634e281a7b866040518263ffffffff1660e01b815260040180826001600160a01b03168152602001915050600060405180830381600087803b158015614b4257600080fd5b505af1158015614b56573d6000803e3d6000fd5b505050505b915061457c9050565b5060009695505050505050565b6000614b7b6122e1565b6001600160a01b031663669f618b6040518163ffffffff1660e01b815260040160206040518083038186803b158015614bb357600080fd5b505afa158015614bc7573d6000803e3d6000fd5b505050506040513d6020811015614bdd57600080fd5b5051905090565b606080827f00000000000000000000000000000000000000000000000000000000000000006040516020018083805190602001908083835b60208310614c3b5780518252601f199092019160209182019101614c1c565b51815160209384036101000a60001901801990921691161790529201938452506040805180850381529390910190525093517f0000000000000000000000000000000000000000000000000000000000000000018452509192915050565b60006012821015614d8d5781601203600a0a90506000614cc382614cbd6000612095565b906158c5565b90506000614cd583614cbd60006111c7565b90506000614ce784614cbd60006126ea565b90506000614cf985614cbd600061145e565b90506000614d0b86614cbd600061195c565b905084614d415760019450848411614d415760649350606491508383111580614d345750818111155b15614d4157506127109150815b614d658860405180606001604052808681526020018781526020018881525061336f565b614d83886040518060400160405280848152602001858152506134c3565b5050505050611547565b60128203600a0a9050614de6836040518060600160405280614db985614db360006126ea565b90615907565b8152602001614dcc85614db360006111c7565b8152602001614ddf85614db36000612095565b905261336f565b611547836040518060400160405280614e0385614db3600061195c565b8152602001614e1685614db3600061145e565b90526134c3565b476111248282615960565b604080516370a0823160e01b8152306004820152905183916000916001600160a01b038416916370a08231916024808301926020929190829003018186803b158015614e7357600080fd5b505afa158015614e87573d6000803e3d6000fd5b505050506040513d6020811015614e9d57600080fd5b505190506114586001600160a01b038316848361582d565b600080614ec061203e565b90506001600160a01b038116614f4557614ed86122e1565b6001600160a01b031663e5789d036040518163ffffffff1660e01b815260040160206040518083038186803b158015614f1057600080fd5b505afa158015614f24573d6000803e3d6000fd5b505050506040513d6020811015614f3a57600080fd5b5051915061121a9050565b60405163fb47201960e01b81526020600482018181528551602484015285516001600160a01b0385169363fb4720199388939283926044019185019080838360005b83811015614f9f578181015183820152602001614f87565b50505050905090810190601f168015614fcc5780820380516001836020036101000a031916815260200191505b509250505060206040518083038186803b158015614f1057600080fd5b60408051600481526024810182526020810180516001600160e01b031663313ce56760e01b1781529151815160009384936060936001600160a01b03881693919290918291908083835b602083106150525780518252601f199092019160209182019101615033565b6001836020036101000a038019825116818451168082178552505050505050905001915050600060405180830381855afa9150503d80600081146150b2576040519150601f19603f3d011682016040523d82523d6000602084013e6150b7565b606091505b5091509150816151985760408051600481526024810182526020810180516001600160e01b0316632e0f262560e01b178152915181516001600160a01b0388169382918083835b6020831061511d5780518252601f1990920191602091820191016150fe565b6001836020036101000a038019825116818451168082178552505050505050905001915050600060405180830381855afa9150503d806000811461517d576040519150601f19603f3d011682016040523d82523d6000602084013e615182565b606091505b509092509050816151985760009250505061121a565b8080602001905160208110156151ad57600080fd5b5051949350505050565b6000806151c261228a565b90506001600160a01b038116158061457c57506040805163f7baa04960e01b81526001600160a01b03878116600483015286811660248301528581166044830152915160009284169163f7baa049916064808301926020929190829003018186803b15801561523057600080fd5b505afa158015615244573d6000803e3d6000fd5b505050506040513d602081101561525a57600080fd5b50511395945050505050565b604080516e6d65646961746f7242616c616e636560881b60208083019190915260609490941b6001600160601b031916602f820152815180820360230181526043909101825280519084012060009081529283905290912055565b60408051600481526024810182526020810180516001600160e01b03166306fdde0360e01b1781529151815160609360009385936001600160a01b03881693919290918291908083835b6020831061532a5780518252601f19909201916020918201910161530b565b6001836020036101000a038019825116818451168082178552505050505050905001915050600060405180830381855afa9150503d806000811461538a576040519150601f19603f3d011682016040523d82523d6000602084013e61538f565b606091505b50915091508161547e5760408051600481526024810182526020810180516001600160e01b03166351fa6fbf60e11b178152915181516001600160a01b0388169382918083835b602083106153f55780518252601f1990920191602091820191016153d6565b6001836020036101000a038019825116818451168082178552505050505050905001915050600060405180830381855afa9150503d8060008114615455576040519150601f19603f3d011682016040523d82523d6000602084013e61545a565b606091505b5090925090508161547e57604051806020016040528060008152509250505061121a565b61473d816159c5565b60408051600481526024810182526020810180516001600160e01b03166395d89b4160e01b1781529151815160609360009385936001600160a01b03881693919290918291908083835b602083106154f05780518252601f1990920191602091820191016154d1565b6001836020036101000a038019825116818451168082178552505050505050905001915050600060405180830381855afa9150503d8060008114615550576040519150601f19603f3d011682016040523d82523d6000602084013e615555565b606091505b50915091508161547e5760408051600481526024810182526020810180516001600160e01b0316631eedf1af60e31b178152915181516001600160a01b038816938291808383602083106153f55780518252601f1990920191602091820191016153d6565b604080516b36b2b9b9b0b3b2aa37b5b2b760a11b602080830191909152602c8083019590955282518083039095018552604c90910182528351938101939093206000908152600290935290912080546001600160a01b0319166001600160a01b03909216919091179055565b604080516f1b595cdcd859d9549958da5c1a595b9d60821b60208083019190915260308083019590955282518083039095018552605090910182528351938101939093206000908152600290935290912080546001600160a01b0319166001600160a01b03909216919091179055565b604080516b6d65737361676556616c756560a01b602080830191909152602c8083019590955282518083039095018552604c909101825283519381019390932060009081529283905290912055565b606061573a826040518060400160405280602081526020017f5361666545524332303a206c6f772d6c6576656c2063616c6c206661696c6564815250856001600160a01b0316615b219092919063ffffffff16565b8051909150156115475780806020019051602081101561575957600080fd5b50516115475760405162461bcd60e51b815260040180806020018281038252602a815260200180615d62602a913960400191505060405180910390fd5b600081848411156158255760405162461bcd60e51b81526004018080602001828103825283818151815260200191508051906020019080838360005b838110156157ea5781810151838201526020016157d2565b50505050905090810190601f1680156158175780820380516001836020036101000a031916815260200191505b509250505060405180910390fd5b505050900390565b604080516001600160a01b038416602482015260448082018490528251808303909101815260649091019091526020810180516001600160e01b031663a9059cbb60e01b1790526115479084906156e5565b60006001600160a01b03821673b7d311e2eb55f2f68a9440da38e7989210b9a05e14156158c1575073b7d311e2eb55f2f68a9440da38e7989210b9a05e61121a565b5090565b6000612d4e83836040518060400160405280601a81526020017f536166654d6174683a206469766973696f6e206279207a65726f000000000000815250615b30565b6000826159165750600061141e565b8282028284828161592357fe5b0414612d4e5760405162461bcd60e51b8152600401808060200182810382526021815260200180615d416021913960400191505060405180910390fd5b6040516001600160a01b0383169082156108fc029083906000818181858888f1935050505061112457808260405161599790615d02565b6001600160a01b039091168152604051908190036020019082f0905080158015611458573d6000803e3d6000fd5b6060602082511115615a9b578180602001905160208110156159e657600080fd5b8101908080516040519392919084600160201b821115615a0557600080fd5b908301906020820185811115615a1a57600080fd5b8251600160201b811182820188101715615a3357600080fd5b82525081516020918201929091019080838360005b83811015615a60578181015183820152602001615a48565b50505050905090810190601f168015615a8d5780820380516001836020036101000a031916815260200191505b50604052505050905061121a565b815160201415615b0c576000828060200190516020811015615abc57600080fd5b50516040805160208082528183019092529192506060919060208201818036833701905050905060008260208301525b8215615b015760089290921b91600101615aec565b8152915061121a9050565b5060408051602081019091526000815261121a565b606061473d8484600085615b95565b60008183615b7f5760405162461bcd60e51b81526020600482018181528351602484015283519092839260449091019190850190808383600083156157ea5781810151838201526020016157d2565b506000838581615b8b57fe5b0495945050505050565b6060615ba085614709565b615bf1576040805162461bcd60e51b815260206004820152601d60248201527f416464726573733a2063616c6c20746f206e6f6e2d636f6e7472616374000000604482015290519081900360640190fd5b60006060866001600160a01b031685876040518082805190602001908083835b60208310615c305780518252601f199092019160209182019101615c11565b6001836020036101000a03801982511681845116808217855250505050505090500191505060006040518083038185875af1925050503d8060008114615c92576040519150601f19603f3d011682016040523d82523d6000602084013e615c97565b606091505b50915091508115615cab57915061473d9050565b805115615cbb5780518082602001fd5b60405162461bcd60e51b81526020600482018181528651602484015286518793919283926044019190850190808383600083156157ea5781810151838201526020016157d2565b603280615d0f8339019056fe60806040526040516032380380603283398181016040526020811015602357600080fd5b50516001600160a01b038116fffe536166654d6174683a206d756c7469706c69636174696f6e206f766572666c6f775361666545524332303a204552433230206f7065726174696f6e20646964206e6f742073756363656564a2646970667358221220e32bc9a91a1547f4d42f795d701e3b42de4d23ea6d6eff61c225816041c571e464736f6c63430007050033",
  "immutableReferences": {
    "3416": [
      {
        "length": 32,
        "start": 19567
      }
    ],
    "3418": [
      {
        "length": 32,
        "start": 19434
      }
    ]
  },
  "source": "pragma solidity 0.7.5;\n\nimport \"./BasicOmnibridge.sol\";\nimport \"./modules/forwarding_rules/MultiTokenForwardingRulesConnector.sol\";\nimport \"./modules/fee_manager/OmnibridgeFeeManagerConnector.sol\";\nimport \"./modules/gas_limit/SelectorTokenGasLimitConnector.sol\";\n\n/**\n * @title HomeOmnibridge\n * @dev Home side implementation for multi-token mediator intended to work on top of AMB bridge.\n * It is designed to be used as an implementation contract of EternalStorageProxy contract.\n */\ncontract HomeOmnibridge is\n    BasicOmnibridge,\n    SelectorTokenGasLimitConnector,\n    OmnibridgeFeeManagerConnector,\n    MultiTokenForwardingRulesConnector\n{\n    using SafeMath for uint256;\n    using SafeERC20 for IERC677;\n\n    constructor(string memory _suffix) BasicOmnibridge(_suffix) {}\n\n    /**\n     * @dev Stores the initial parameters of the mediator.\n     * @param _bridgeContract the address of the AMB bridge contract.\n     * @param _mediatorContract the address of the mediator contract on the other network.\n     * @param _dailyLimitMaxPerTxMinPerTxArray array with limit values for the assets to be bridged to the other network.\n     *   [ 0 = dailyLimit, 1 = maxPerTx, 2 = minPerTx ]\n     * @param _executionDailyLimitExecutionMaxPerTxArray array with limit values for the assets bridged from the other network.\n     *   [ 0 = executionDailyLimit, 1 = executionMaxPerTx ]\n     * @param _gasLimitManager the gas limit manager contract address.\n     * @param _owner address of the owner of the mediator contract.\n     * @param _tokenFactory address of the TokenFactory contract that will be used for the deployment of new tokens.\n     * @param _feeManager address of the OmnibridgeFeeManager contract that will be used for fee distribution.\n     * @param _forwardingRulesManager address of the MultiTokenForwardingRulesManager contract that will be used for managing lane permissions.\n     */\n    function initialize(\n        address _bridgeContract,\n        address _mediatorContract,\n        uint256[3] calldata _dailyLimitMaxPerTxMinPerTxArray, // [ 0 = _dailyLimit, 1 = _maxPerTx, 2 = _minPerTx ]\n        uint256[2] calldata _executionDailyLimitExecutionMaxPerTxArray, // [ 0 = _executionDailyLimit, 1 = _executionMaxPerTx ]\n        address _gasLimitManager,\n        address _owner,\n        address _tokenFactory,\n        address _feeManager,\n        address _forwardingRulesManager\n    ) external onlyRelevantSender returns (bool) {\n        require(!isInitialized());\n\n        _setBridgeContract(_bridgeContract);\n        _setMediatorContractOnOtherSide(_mediatorContract);\n        _setLimits(address(0), _dailyLimitMaxPerTxMinPerTxArray);\n        _setExecutionLimits(address(0), _executionDailyLimitExecutionMaxPerTxArray);\n        _setGasLimitManager(_gasLimitManager);\n        _setOwner(_owner);\n        _setTokenFactory(_tokenFactory);\n        _setFeeManager(_feeManager);\n        _setForwardingRulesManager(_forwardingRulesManager);\n\n        setInitialize();\n\n        return isInitialized();\n    }\n\n    /**\n     * One-time function to be used together with upgradeToAndCall method.\n     * Sets the token factory contract. Resumes token bridging in the home to foreign direction.\n     * @param _tokenFactory address of the deployed TokenFactory contract.\n     * @param _forwardingRulesManager address of the deployed MultiTokenForwardingRulesManager contract.\n     * @param _gasLimitManager address of the deployed SelectorTokenGasLimitManager contract.\n     * @param _dailyLimit default daily limits used before stopping the bridge operation.\n     */\n    function upgradeToReverseMode(\n        address _tokenFactory,\n        address _forwardingRulesManager,\n        address _gasLimitManager,\n        uint256 _dailyLimit\n    ) external {\n        require(msg.sender == address(this));\n\n        _setTokenFactory(_tokenFactory);\n        _setForwardingRulesManager(_forwardingRulesManager);\n        _setGasLimitManager(_gasLimitManager);\n\n        uintStorage[keccak256(abi.encodePacked(\"dailyLimit\", address(0)))] = _dailyLimit;\n        emit DailyLimitChanged(address(0), _dailyLimit);\n    }\n\n    /**\n     * @dev Alias for bridgedTokenAddress for interface compatibility with the prior version of the Home mediator.\n     * @param _foreignToken address of the native token contract on the other side.\n     * @return address of the deployed bridged token contract.\n     */\n    function homeTokenAddress(address _foreignToken) public view returns (address) {\n        return bridgedTokenAddress(_foreignToken);\n    }\n\n    /**\n     * @dev Alias for nativeTokenAddress for interface compatibility with the prior version of the Home mediator.\n     * @param _homeToken address of the created bridged token contract on this side.\n     * @return address of the native token contract on the other side of the bridge.\n     */\n    function foreignTokenAddress(address _homeToken) public view returns (address) {\n        return nativeTokenAddress(_homeToken);\n    }\n\n    /**\n     * @dev Handles the bridged tokens.\n     * Checks that the value is inside the execution limits and invokes the Mint or Unlock accordingly.\n     * @param _token token contract address on this side of the bridge.\n     * @param _isNative true, if given token is native to this chain and Unlock should be used.\n     * @param _recipient address that will receive the tokens.\n     * @param _value amount of tokens to be received.\n     */\n    function _handleTokens(\n        address _token,\n        bool _isNative,\n        address _recipient,\n        uint256 _value\n    ) internal override {\n        // prohibit withdrawal of tokens during other bridge operations (e.g. relayTokens)\n        // such reentrant withdrawal can lead to an incorrect balanceDiff calculation\n        require(!lock());\n\n        require(withinExecutionLimit(_token, _value));\n        addTotalExecutedPerDay(_token, getCurrentDay(), _value);\n\n        uint256 valueToBridge = _value;\n        uint256 fee = _distributeFee(FOREIGN_TO_HOME_FEE, _isNative, address(0), _token, valueToBridge);\n        bytes32 _messageId = messageId();\n        if (fee > 0) {\n            emit FeeDistributed(fee, _token, _messageId);\n            valueToBridge = valueToBridge.sub(fee);\n        }\n\n        _releaseTokens(_isNative, _token, _recipient, valueToBridge, _value);\n\n        emit TokensBridged(_token, _recipient, valueToBridge, _messageId);\n    }\n\n    /**\n     * @dev Executes action on deposit of bridged tokens\n     * @param _token address of the token contract\n     * @param _from address of tokens sender\n     * @param _receiver address of tokens receiver on the other side\n     * @param _value requested amount of bridged tokens\n     * @param _data additional transfer data to be used on the other side\n     */\n    function bridgeSpecificActionsOnTokenTransfer(\n        address _token,\n        address _from,\n        address _receiver,\n        uint256 _value,\n        bytes memory _data\n    ) internal override {\n        require(_receiver != address(0) && _receiver != mediatorContractOnOtherSide());\n\n        // native unbridged token\n        if (!isTokenRegistered(_token)) {\n            uint8 decimals = TokenReader.readDecimals(_token);\n            _initializeTokenBridgeLimits(_token, decimals);\n        }\n\n        require(withinLimit(_token, _value));\n        addTotalSpentPerDay(_token, getCurrentDay(), _value);\n\n        address nativeToken = nativeTokenAddress(_token);\n        uint256 fee = _distributeFee(HOME_TO_FOREIGN_FEE, nativeToken == address(0), _from, _token, _value);\n        uint256 valueToBridge = _value.sub(fee);\n\n        bytes memory data = _prepareMessage(nativeToken, _token, _receiver, valueToBridge, _data);\n\n        // Address of the home token is used here for determining lane permissions.\n        bytes32 _messageId = _passMessage(data, _isOracleDrivenLaneAllowed(_token, _from, _receiver));\n        _recordBridgeOperation(_messageId, _token, _from, valueToBridge);\n        if (fee > 0) {\n            emit FeeDistributed(fee, _token, _messageId);\n        }\n    }\n\n    /**\n     * @dev Internal function for sending an AMB message to the mediator on the other side.\n     * @param _data data to be sent to the other side of the bridge.\n     * @param _useOracleLane true, if the message should be sent to the oracle driven lane.\n     * @return id of the sent message.\n     */\n    function _passMessage(bytes memory _data, bool _useOracleLane) internal override returns (bytes32) {\n        address executor = mediatorContractOnOtherSide();\n        uint256 gasLimit = _chooseRequestGasLimit(_data);\n        IAMB bridge = bridgeContract();\n\n        return\n            _useOracleLane\n                ? bridge.requireToPassMessage(executor, _data, gasLimit)\n                : bridge.requireToConfirmMessage(executor, _data, gasLimit);\n    }\n\n    /**\n     * @dev Internal function for getting minter proxy address.\n     * Returns the token address itself, expect for the case with bridged STAKE token.\n     * For bridged STAKE token, returns the hardcoded TokenMinter contract address.\n     * @param _token address of the token to mint.\n     * @return address of the minter contract that should be used for calling mint(address,uint256)\n     */\n    function _getMinterFor(address _token)\n        internal\n        pure\n        override(BasicOmnibridge, OmnibridgeFeeManagerConnector)\n        returns (IBurnableMintableERC677Token)\n    {\n        // It is possible to hardcode different token minter contracts here during compile time.\n        // For example, the dedicated TokenMinter (0x857DD07866C1e19eb2CDFceF7aE655cE7f9E560d) is used for\n        // bridged STAKE token (0xb7D311E2Eb55F2f68a9440da38e7989210b9A05e).\n        if (_token == address(0xb7D311E2Eb55F2f68a9440da38e7989210b9A05e)) {\n            // hardcoded address of the TokenMinter address\n            return IBurnableMintableERC677Token(0xb7D311E2Eb55F2f68a9440da38e7989210b9A05e);\n        }\n        return IBurnableMintableERC677Token(_token);\n    }\n}\n",
  "sourcePath": "/Users/eabz/Documents/GitHub/tokenbridge/packages/omnibridge/contracts/upgradeable_contracts/HomeOmnibridge.sol",
  "compiler": {
    "name": "solc",
    "version": "0.7.5+commit.eb77ed08.Emscripten.clang"
  },
  "schemaVersion": "3.4.3",
  "updatedAt": "2021-09-04T01:08:31.282Z",
  "devdoc": {
    "details": "Home side implementation for multi-token mediator intended to work on top of AMB bridge. It is designed to be used as an implementation contract of EternalStorageProxy contract.",
    "kind": "dev",
    "methods": {
      "bridgeContract()": {
        "details": "Get the AMB interface for the bridge contract address",
        "returns": {
          "_0": "AMB interface for the bridge contract address"
        }
      },
      "bridgedTokenAddress(address)": {
        "details": "Retrieves address of the bridged token contract associated with a specific native token contract on the other side.",
        "params": {
          "_nativeToken": "address of the native token contract on the other side."
        },
        "returns": {
          "_0": "address of the deployed bridged token contract."
        }
      },
      "claimTokens(address,address)": {
        "details": "Claims stuck tokens. Only unsupported tokens can be claimed. When dealing with already supported tokens, fixMediatorBalance can be used instead.",
        "params": {
          "_to": "address of tokens receiver",
          "_token": "address of claimed token, address(0) for native"
        }
      },
      "claimTokensFromTokenContract(address,address,address)": {
        "details": "Withdraws erc20 tokens or native coins from the bridged token contract. Only the proxy owner is allowed to call this method.",
        "params": {
          "_bridgedToken": "address of the bridged token contract.",
          "_to": "address of the tokens/coins receiver.",
          "_token": "address of the claimed token or address(0) for native coins."
        }
      },
      "dailyLimit(address)": {
        "details": "Retrieves current daily limit for a particular token contract.",
        "params": {
          "_token": "address of the token contract."
        },
        "returns": {
          "_0": "daily limit on tokens that can be sent through the bridge per day."
        }
      },
      "deployAndHandleBridgedTokens(address,string,string,uint8,address,uint256)": {
        "details": "Handles the bridged tokens for the first time, includes deployment of new TokenProxy contract. Checks that the value is inside the execution limits and invokes the Mint or Unlock accordingly.",
        "params": {
          "_decimals": "decimals of the bridge foreign token.",
          "_name": "name of the native token, name suffix will be appended, if empty, symbol will be used instead.",
          "_recipient": "address that will receive the tokens.",
          "_symbol": "symbol of the bridged token, if empty, name will be used instead.",
          "_token": "address of the native ERC20/ERC677 token on the other side.",
          "_value": "amount of tokens to be received."
        }
      },
      "deployAndHandleBridgedTokensAndCall(address,string,string,uint8,address,uint256,bytes)": {
        "details": "Handles the bridged tokens for the first time, includes deployment of new TokenProxy contract. Executes a callback on the receiver. Checks that the value is inside the execution limits and invokes the Mint accordingly.",
        "params": {
          "_data": "additional data passed from the other chain.",
          "_decimals": "decimals of the bridge foreign token.",
          "_name": "name of the native token, name suffix will be appended, if empty, symbol will be used instead.",
          "_recipient": "address that will receive the tokens.",
          "_symbol": "symbol of the bridged token, if empty, name will be used instead.",
          "_token": "address of the native ERC20/ERC677 token on the other side.",
          "_value": "amount of tokens to be received."
        }
      },
      "executionDailyLimit(address)": {
        "details": "Retrieves current execution daily limit for a particular token contract.",
        "params": {
          "_token": "address of the token contract."
        },
        "returns": {
          "_0": "daily limit on tokens that can be received from the bridge on the other side per day."
        }
      },
      "executionMaxPerTx(address)": {
        "details": "Retrieves current maximum execution amount of tokens per one transfer for a particular token contract.",
        "params": {
          "_token": "address of the token contract."
        },
        "returns": {
          "_0": "maximum amount on tokens that can received from the bridge on the other side in one transaction."
        }
      },
      "feeManager()": {
        "details": "Retrieves an address of the fee manager contract.",
        "returns": {
          "_0": "address of the fee manager contract."
        }
      },
      "fixFailedMessage(bytes32)": {
        "details": "Handles the request to fix transferred assets which bridged message execution failed on the other network. It uses the information stored by passMessage method when the assets were initially transferred",
        "params": {
          "_messageId": "id of the message which execution failed on the other network."
        }
      },
      "fixMediatorBalance(address,address)": {
        "details": "Allows to send to the other network the amount of locked tokens that can be forced into the contract without the invocation of the required methods. (e. g. regular transfer without a call to onTokenTransfer)",
        "params": {
          "_receiver": "the address that will receive the tokens on the other network.",
          "_token": "address of the token contract. Before calling this method, it must be carefully investigated how imbalance happened in order to avoid an attempt to steal the funds from a token with double addresses (e.g. TUSD is accessible at both 0x8dd5fbCe2F6a956C3022bA3663759011Dd51e73E and 0x0000000000085d4780B73119b644AE5ecd22b376)"
        }
      },
      "foreignTokenAddress(address)": {
        "details": "Alias for nativeTokenAddress for interface compatibility with the prior version of the Home mediator.",
        "params": {
          "_homeToken": "address of the created bridged token contract on this side."
        },
        "returns": {
          "_0": "address of the native token contract on the other side of the bridge."
        }
      },
      "forwardingRulesManager()": {
        "details": "Retrieves an address of the forwarding rules manager contract.",
        "returns": {
          "_0": "address of the forwarding rules manager contract."
        }
      },
      "gasLimitManager()": {
        "details": "Retrieves an address of the gas limit manager contract.",
        "returns": {
          "_0": "address of the gas limit manager contract."
        }
      },
      "getBridgeInterfacesVersion()": {
        "details": "Tells the bridge interface version that this contract supports.",
        "returns": {
          "major": "value of the version",
          "minor": "value of the version",
          "patch": "value of the version"
        }
      },
      "getBridgeMode()": {
        "details": "Tells the bridge mode that this contract supports.",
        "returns": {
          "_data": "4 bytes representing the bridge mode"
        }
      },
      "getCurrentDay()": {
        "details": "Returns current day number.",
        "returns": {
          "_0": "day number."
        }
      },
      "handleBridgedTokens(address,address,uint256)": {
        "details": "Handles the bridged tokens for the already registered token pair. Checks that the value is inside the execution limits and invokes the Mint accordingly.",
        "params": {
          "_recipient": "address that will receive the tokens.",
          "_token": "address of the native ERC20/ERC677 token on the other side.",
          "_value": "amount of tokens to be received."
        }
      },
      "handleBridgedTokensAndCall(address,address,uint256,bytes)": {
        "details": "Handles the bridged tokens for the already registered token pair. Checks that the value is inside the execution limits and invokes the Unlock accordingly. Executes a callback on the receiver.",
        "params": {
          "_data": "additional transfer data passed from the other side.",
          "_recipient": "address that will receive the tokens.",
          "_token": "address of the native ERC20/ERC677 token on the other side.",
          "_value": "amount of tokens to be received."
        }
      },
      "handleNativeTokens(address,address,uint256)": {
        "details": "Handles the bridged tokens that are native to this chain. Checks that the value is inside the execution limits and invokes the Unlock accordingly.",
        "params": {
          "_recipient": "address that will receive the tokens.",
          "_token": "native ERC20 token.",
          "_value": "amount of tokens to be received."
        }
      },
      "handleNativeTokensAndCall(address,address,uint256,bytes)": {
        "details": "Handles the bridged tokens that are native to this chain. Checks that the value is inside the execution limits and invokes the Unlock accordingly. Executes a callback on the receiver.",
        "params": {
          "_data": "additional transfer data passed from the other side.",
          "_recipient": "address that will receive the tokens.",
          "_token": "native ERC20 token.",
          "_value": "amount of tokens to be received."
        }
      },
      "homeTokenAddress(address)": {
        "details": "Alias for bridgedTokenAddress for interface compatibility with the prior version of the Home mediator.",
        "params": {
          "_foreignToken": "address of the native token contract on the other side."
        },
        "returns": {
          "_0": "address of the deployed bridged token contract."
        }
      },
      "initialize(address,address,uint256[3],uint256[2],address,address,address,address,address)": {
        "details": "Stores the initial parameters of the mediator.",
        "params": {
          "_bridgeContract": "the address of the AMB bridge contract.",
          "_dailyLimitMaxPerTxMinPerTxArray": "array with limit values for the assets to be bridged to the other network.   [ 0 = dailyLimit, 1 = maxPerTx, 2 = minPerTx ]",
          "_executionDailyLimitExecutionMaxPerTxArray": "array with limit values for the assets bridged from the other network.   [ 0 = executionDailyLimit, 1 = executionMaxPerTx ]",
          "_feeManager": "address of the OmnibridgeFeeManager contract that will be used for fee distribution.",
          "_forwardingRulesManager": "address of the MultiTokenForwardingRulesManager contract that will be used for managing lane permissions.",
          "_gasLimitManager": "the gas limit manager contract address.",
          "_mediatorContract": "the address of the mediator contract on the other network.",
          "_owner": "address of the owner of the mediator contract.",
          "_tokenFactory": "address of the TokenFactory contract that will be used for the deployment of new tokens."
        }
      },
      "isBridgedTokenDeployAcknowledged(address)": {
        "details": "Checks if for a given native token, the deployment of its bridged alternative was already acknowledged.",
        "params": {
          "_token": "address of native token contract."
        },
        "returns": {
          "_0": "true, if bridged token was already deployed."
        }
      },
      "isRegisteredAsNativeToken(address)": {
        "details": "Checks if a given token is a bridged token that is native to this side of the bridge.",
        "params": {
          "_token": "address of token contract."
        },
        "returns": {
          "_0": "message id of the send message."
        }
      },
      "isTokenRegistered(address)": {
        "details": "Checks if specified token was already bridged at least once.",
        "params": {
          "_token": "address of the token contract."
        },
        "returns": {
          "_0": "true, if token address is address(0) or token was already bridged."
        }
      },
      "maxAvailablePerTx(address)": {
        "details": "Retrieves maximum available bridge amount per one transaction taking into account maxPerTx() and dailyLimit() parameters.",
        "params": {
          "_token": "address of the token contract, or address(0) for the default limit."
        },
        "returns": {
          "_0": "minimum of maxPerTx parameter and remaining daily quota."
        }
      },
      "maxPerTx(address)": {
        "details": "Retrieves current maximum amount of tokens per one transfer for a particular token contract.",
        "params": {
          "_token": "address of the token contract."
        },
        "returns": {
          "_0": "maximum amount on tokens that can be sent through the bridge in one transfer."
        }
      },
      "mediatorBalance(address)": {
        "details": "Tells the expected token balance of the contract.",
        "params": {
          "_token": "address of token contract."
        },
        "returns": {
          "_0": "the current tracked token balance of the contract."
        }
      },
      "mediatorContractOnOtherSide()": {
        "details": "Tells the mediator contract address from the other network.",
        "returns": {
          "_0": "the address of the mediator contract."
        }
      },
      "messageFixed(bytes32)": {
        "details": "Tells if a message sent to the AMB bridge has been fixed.",
        "returns": {
          "_0": "bool indicating the status of the message."
        }
      },
      "minPerTx(address)": {
        "details": "Retrieves current minimum amount of tokens per one transfer for a particular token contract.",
        "params": {
          "_token": "address of the token contract."
        },
        "returns": {
          "_0": "minimum amount on tokens that can be sent through the bridge in one transfer."
        }
      },
      "nativeTokenAddress(address)": {
        "details": "Retrieves address of the native token contract associated with a specific bridged token contract.",
        "params": {
          "_bridgedToken": "address of the created bridged token contract on this side."
        },
        "returns": {
          "_0": "address of the native token contract on the other side of the bridge."
        }
      },
      "onTokenTransfer(address,uint256,bytes)": {
        "details": "ERC677 transfer callback function.",
        "params": {
          "_data": "additional transfer data, can be used for passing alternative receiver address.",
          "_from": "address of tokens sender.",
          "_value": "amount of transferred tokens."
        }
      },
      "owner()": {
        "details": "Tells the address of the owner",
        "returns": {
          "_0": "the address of the owner"
        }
      },
      "relayTokens(address,address,uint256)": {
        "details": "Initiate the bridge operation for some amount of tokens from msg.sender. The user should first call Approve method of the ERC677 token.",
        "params": {
          "_receiver": "address that will receive the native tokens on the other network.",
          "_value": "amount of tokens to be transferred to the other network.",
          "token": "bridged token contract address."
        }
      },
      "relayTokens(address,uint256)": {
        "details": "Initiate the bridge operation for some amount of tokens from msg.sender to msg.sender on the other side. The user should first call Approve method of the ERC677 token.",
        "params": {
          "_value": "amount of tokens to be transferred to the other network.",
          "token": "bridged token contract address."
        }
      },
      "relayTokensAndCall(address,address,uint256,bytes)": {
        "details": "Initiate the bridge operation for some amount of tokens from msg.sender. The user should first call Approve method of the ERC677 token.",
        "params": {
          "_data": "additional transfer data to be used on the other side.",
          "_receiver": "address that will receive the native tokens on the other network.",
          "_value": "amount of tokens to be transferred to the other network.",
          "token": "bridged token contract address."
        }
      },
      "requestFailedMessageFix(bytes32)": {
        "details": "Method to be called when a bridged message execution failed. It will generate a new message requesting to fix/roll back the transferred assets on the other network.",
        "params": {
          "_messageId": "id of the message which execution failed."
        }
      },
      "setBridgeContract(address)": {
        "details": "Sets the AMB bridge contract address. Only the owner can call this method.",
        "params": {
          "_bridgeContract": "the address of the bridge contract."
        }
      },
      "setCustomTokenAddressPair(address,address)": {
        "details": "Allows to pre-set the bridged token contract for not-yet bridged token. Only the owner can call this method.",
        "params": {
          "_bridgedToken": "address of the bridged token contract.",
          "_nativeToken": "address of the token contract on the other side that was not yet bridged."
        }
      },
      "setDailyLimit(address,uint256)": {
        "details": "Updates daily limit for the particular token. Only owner can call this method.",
        "params": {
          "_dailyLimit": "daily allowed amount of bridged tokens, should be greater than maxPerTx. 0 value is also allowed, will stop the bridge operations in outgoing direction.",
          "_token": "address of the token contract, or address(0) for configuring the efault limit."
        }
      },
      "setExecutionDailyLimit(address,uint256)": {
        "details": "Updates execution daily limit for the particular token. Only owner can call this method.",
        "params": {
          "_dailyLimit": "daily allowed amount of executed tokens, should be greater than executionMaxPerTx. 0 value is also allowed, will stop the bridge operations in incoming direction.",
          "_token": "address of the token contract, or address(0) for configuring the default limit."
        }
      },
      "setExecutionMaxPerTx(address,uint256)": {
        "details": "Updates execution maximum per transaction for the particular token. Only owner can call this method.",
        "params": {
          "_maxPerTx": "maximum amount of executed tokens per one transaction, should be less than executionDailyLimit. 0 value is also allowed, will stop the bridge operations in incoming direction.",
          "_token": "address of the token contract, or address(0) for configuring the default limit."
        }
      },
      "setFeeManager(address)": {
        "details": "Updates an address of the used fee manager contract used for calculating and distributing fees.",
        "params": {
          "_feeManager": "address of fee manager contract."
        }
      },
      "setForwardingRulesManager(address)": {
        "details": "Updates an address of the used forwarding rules manager contract.",
        "params": {
          "_manager": "address of forwarding rules manager contract."
        }
      },
      "setGasLimitManager(address)": {
        "details": "Updates an address of the used gas limit manager contract.",
        "params": {
          "_manager": "address of gas limit manager contract."
        }
      },
      "setMaxPerTx(address,uint256)": {
        "details": "Updates maximum per transaction for the particular token. Only owner can call this method.",
        "params": {
          "_maxPerTx": "maximum amount of tokens per one transaction, should be less than dailyLimit, greater than minPerTx. 0 value is also allowed, will stop the bridge operations in outgoing direction.",
          "_token": "address of the token contract, or address(0) for configuring the default limit."
        }
      },
      "setMediatorContractOnOtherSide(address)": {
        "details": "Sets the mediator contract address from the other network. Only the owner can call this method.",
        "params": {
          "_mediatorContract": "the address of the mediator contract."
        }
      },
      "setMinPerTx(address,uint256)": {
        "details": "Updates minimum per transaction for the particular token. Only owner can call this method.",
        "params": {
          "_minPerTx": "minimum amount of tokens per one transaction, should be less than maxPerTx and dailyLimit.",
          "_token": "address of the token contract, or address(0) for configuring the default limit."
        }
      },
      "setTokenFactory(address)": {
        "details": "Updates an address of the used TokenFactory contract used for creating new tokens.",
        "params": {
          "_tokenFactory": "address of TokenFactory contract."
        }
      },
      "tokenFactory()": {
        "details": "Retrieves an address of the token factory contract.",
        "returns": {
          "_0": "address of the TokenFactory contract."
        }
      },
      "totalExecutedPerDay(address,uint256)": {
        "details": "Retrieves the total executed amount for particular token during specific day.",
        "params": {
          "_day": "day number for which spent amount if requested.",
          "_token": "address of the token contract."
        },
        "returns": {
          "_0": "amount of tokens received from the bridge from the other side."
        }
      },
      "totalSpentPerDay(address,uint256)": {
        "details": "Retrieves the total spent amount for particular token during specific day.",
        "params": {
          "_day": "day number for which spent amount if requested.",
          "_token": "address of the token contract."
        },
        "returns": {
          "_0": "amount of tokens sent through the bridge to the other side."
        }
      },
      "transferOwnership(address)": {
        "details": "Allows the current owner to transfer control of the contract to a newOwner.",
        "params": {
          "newOwner": "the address to transfer ownership to."
        }
      },
      "upgradeToReverseMode(address,address,address,uint256)": {
        "params": {
          "_dailyLimit": "default daily limits used before stopping the bridge operation.",
          "_forwardingRulesManager": "address of the deployed MultiTokenForwardingRulesManager contract.",
          "_gasLimitManager": "address of the deployed SelectorTokenGasLimitManager contract.",
          "_tokenFactory": "address of the deployed TokenFactory contract."
        }
      },
      "withinExecutionLimit(address,uint256)": {
        "details": "Checks that bridged amount of tokens conforms to the configured execution limits.",
        "params": {
          "_amount": "amount of bridge tokens.",
          "_token": "address of the token contract."
        },
        "returns": {
          "_0": "true, if specified amount can be processed and executed."
        }
      },
      "withinLimit(address,uint256)": {
        "details": "Checks that bridged amount of tokens conforms to the configured limits.",
        "params": {
          "_amount": "amount of bridge tokens.",
          "_token": "address of the token contract."
        },
        "returns": {
          "_0": "true, if specified amount can be bridged."
        }
      }
    },
    "title": "HomeOmnibridge",
    "version": 1
  },
  "userdoc": {
    "kind": "user",
    "methods": {
      "upgradeToReverseMode(address,address,address,uint256)": {
        "notice": "One-time function to be used together with upgradeToAndCall method. Sets the token factory contract. Resumes token bridging in the home to foreign direction."
      }
    },
    "version": 1
  }
}