{
  "contractName": "Initializable",
  "abi": [
    {
      "inputs": [],
      "name": "isInitialized",
      "outputs": [
        {
          "internalType": "bool",
          "name": "",
          "type": "bool"
        }
      ],
      "stateMutability": "view",
      "type": "function"
    }
  ],
  "bytecode": "0x6080604052348015600f57600080fd5b5060ce8061001e6000396000f3fe6080604052348015600f57600080fd5b506004361060285760003560e01c8063392e53cd14602d575b600080fd5b60336047565b604080519115158252519081900360200190f35b7f0a6f646cd611241d8073675e00d1a1ff700fbf1b53fcf473de56d1e6e4b714ba60005260046020527f078d888f9b66f3f8bfa10909e31f1e16240db73449f0500afdbbe3a70da457cc5460ff169056fea264697066735822122068d16c5ee54a8b4b31579fd0daf5565d167802de5412a5b6c90d548191945dc264736f6c63430007050033",
  "immutableReferences": {},
  "source": "pragma solidity 0.7.5;\n\nimport \"../upgradeability/EternalStorage.sol\";\n\ncontract Initializable is EternalStorage {\n    bytes32 internal constant INITIALIZED = 0x0a6f646cd611241d8073675e00d1a1ff700fbf1b53fcf473de56d1e6e4b714ba; // keccak256(abi.encodePacked(\"isInitialized\"))\n\n    function setInitialize() internal {\n        boolStorage[INITIALIZED] = true;\n    }\n\n    function isInitialized() public view returns (bool) {\n        return boolStorage[INITIALIZED];\n    }\n}\n",
  "sourcePath": "/Users/eabz/Documents/GitHub/tokenbridge/packages/omnibridge/contracts/upgradeable_contracts/Initializable.sol",
  "compiler": {
    "name": "solc",
    "version": "0.7.5+commit.eb77ed08.Emscripten.clang"
  },
  "schemaVersion": "3.4.3",
  "updatedAt": "2021-09-04T01:08:31.290Z",
  "devdoc": {
    "kind": "dev",
    "methods": {},
    "version": 1
  },
  "userdoc": {
    "kind": "user",
    "methods": {},
    "version": 1
  }
}