{
  "contractName": "InterestConnector",
  "abi": [
    {
      "anonymous": false,
      "inputs": [
        {
          "indexed": false,
          "internalType": "address",
          "name": "previousOwner",
          "type": "address"
        },
        {
          "indexed": false,
          "internalType": "address",
          "name": "newOwner",
          "type": "address"
        }
      ],
      "name": "OwnershipTransferred",
      "type": "event"
    },
    {
      "inputs": [
        {
          "internalType": "address",
          "name": "_token",
          "type": "address"
        }
      ],
      "name": "mediatorBalance",
      "outputs": [
        {
          "internalType": "uint256",
          "name": "",
          "type": "uint256"
        }
      ],
      "stateMutability": "view",
      "type": "function"
    },
    {
      "inputs": [],
      "name": "owner",
      "outputs": [
        {
          "internalType": "address",
          "name": "",
          "type": "address"
        }
      ],
      "stateMutability": "view",
      "type": "function"
    },
    {
      "inputs": [
        {
          "internalType": "address",
          "name": "newOwner",
          "type": "address"
        }
      ],
      "name": "transferOwnership",
      "outputs": [],
      "stateMutability": "nonpayable",
      "type": "function"
    },
    {
      "inputs": [
        {
          "internalType": "address",
          "name": "_token",
          "type": "address"
        }
      ],
      "name": "interestImplementation",
      "outputs": [
        {
          "internalType": "contract IInterestImplementation",
          "name": "",
          "type": "address"
        }
      ],
      "stateMutability": "view",
      "type": "function"
    },
    {
      "inputs": [
        {
          "internalType": "address",
          "name": "_token",
          "type": "address"
        },
        {
          "internalType": "address",
          "name": "_impl",
          "type": "address"
        },
        {
          "internalType": "uint256",
          "name": "_minCashThreshold",
          "type": "uint256"
        }
      ],
      "name": "initializeInterest",
      "outputs": [],
      "stateMutability": "nonpayable",
      "type": "function"
    },
    {
      "inputs": [
        {
          "internalType": "address",
          "name": "_token",
          "type": "address"
        },
        {
          "internalType": "uint256",
          "name": "_minCashThreshold",
          "type": "uint256"
        }
      ],
      "name": "setMinCashThreshold",
      "outputs": [],
      "stateMutability": "nonpayable",
      "type": "function"
    },
    {
      "inputs": [
        {
          "internalType": "address",
          "name": "_token",
          "type": "address"
        }
      ],
      "name": "minCashThreshold",
      "outputs": [
        {
          "internalType": "uint256",
          "name": "",
          "type": "uint256"
        }
      ],
      "stateMutability": "view",
      "type": "function"
    },
    {
      "inputs": [
        {
          "internalType": "address",
          "name": "_token",
          "type": "address"
        }
      ],
      "name": "disableInterest",
      "outputs": [],
      "stateMutability": "nonpayable",
      "type": "function"
    },
    {
      "inputs": [
        {
          "internalType": "address",
          "name": "_token",
          "type": "address"
        }
      ],
      "name": "invest",
      "outputs": [],
      "stateMutability": "nonpayable",
      "type": "function"
    }
  ],
  "bytecode": "0x608060405234801561001057600080fd5b50610986806100206000396000f3fe608060405234801561001057600080fd5b50600436106100935760003560e01c80638da5cb5b116100665780638da5cb5b14610160578063a4b4b23314610168578063ab4f5dc514610194578063f2fde38b146101ca578063f50dace6146101f057610093565b806303f9c79314610098578063194153d3146100c05780635726ff30146100f857806385df73bd1461011e575b600080fd5b6100be600480360360208110156100ae57600080fd5b50356001600160a01b0316610216565b005b6100e6600480360360208110156100d657600080fd5b50356001600160a01b03166103bd565b60408051918252519081900360200190f35b6100e66004803603602081101561010e57600080fd5b50356001600160a01b0316610418565b6101446004803603602081101561013457600080fd5b50356001600160a01b0316610474565b604080516001600160a01b039092168252519081900360200190f35b6101446104d3565b6100be6004803603604081101561017e57600080fd5b506001600160a01b03813516906020013561052a565b6100be600480360360608110156101aa57600080fd5b506001600160a01b03813581169160208101359091169060400135610540565b6100be600480360360208110156101e057600080fd5b50356001600160a01b031661057f565b6100be6004803603602081101561020657600080fd5b50356001600160a01b0316610593565b600061022182610474565b905060006102b0826001600160a01b031663cff77444856040518263ffffffff1660e01b815260040180826001600160a01b0316815260200191505060206040518083038186803b15801561027557600080fd5b505afa158015610289573d6000803e3d6000fd5b505050506040513d602081101561029f57600080fd5b50516102aa856103bd565b9061061f565b905060006102bd84610418565b90508082116102cb57600080fd5b6040805163a9059cbb60e01b81526001600160a01b0385811660048301528385036024830181905292519087169163a9059cbb9160448083019260209291908290030181600087803b15801561032057600080fd5b505af1158015610334573d6000803e3d6000fd5b505050506040513d602081101561034a57600080fd5b505060408051635cdc612360e11b81526001600160a01b0387811660048301526024820184905291519186169163b9b8c2469160448082019260009290919082900301818387803b15801561039e57600080fd5b505af11580156103b2573d6000803e3d6000fd5b505050505050505050565b604080516e6d65646961746f7242616c616e636560881b60208083019190915260609390931b6001600160601b031916602f820152815180820360230181526043909101825280519083012060009081529182905290205490565b604080516f1b5a5b90d85cda151a1c995cda1bdb1960821b60208083019190915260609390931b6001600160601b0319166030820152815180820360240181526044909101825280519083012060009081529182905290205490565b604080516b1a5b9d195c995cdd125b5c1b60a21b60208083019190915260609390931b6001600160601b031916602c8201528151808203840181529082018252805190830120600090815260029092529020546001600160a01b031690565b7f02016836a56b71f0d02689e69e326f4f4c1b9057164ef592671cf0d37c8040c060005260026020527fb7802e97e87ef2842a6cce7da7ffaeaedaa2f61a6a7870b23d9d01fc9b73712e546001600160a01b031690565b610532610668565b61053c828261068f565b5050565b610548610668565b600061055384610474565b6001600160a01b03161461056657600080fd5b61057083836106eb565b61057a838261068f565b505050565b610587610668565b610590816107f1565b50565b61059b610668565b6105a481610474565b6001600160a01b031663f3fef3a3826000196040518363ffffffff1660e01b815260040180836001600160a01b0316815260200182815260200192505050600060405180830381600087803b1580156105fc57600080fd5b505af1158015610610573d6000803e3d6000fd5b505050506105908160006106eb565b600061066183836040518060400160405280601e81526020017f536166654d6174683a207375627472616374696f6e206f766572666c6f7700008152506108b9565b9392505050565b6106706104d3565b6001600160a01b0316336001600160a01b03161461068d57600080fd5b565b604080516f1b5a5b90d85cda151a1c995cda1bdb1960821b60208083019190915260609490941b6001600160601b0319166030820152815180820360240181526044909101825280519084012060009081529283905290912055565b6001600160a01b03811615806107765750806001600160a01b031663bdd378a0836040518263ffffffff1660e01b815260040180826001600160a01b0316815260200191505060206040518083038186803b15801561074957600080fd5b505afa15801561075d573d6000803e3d6000fd5b505050506040513d602081101561077357600080fd5b50515b61077f57600080fd5b604080516b1a5b9d195c995cdd125b5c1b60a21b60208083019190915260609490941b6001600160601b031916602c82015281518082038501815290820182528051908401206000908152600290935290912080546001600160a01b0319166001600160a01b03909216919091179055565b6001600160a01b03811661080457600080fd5b7f8be0079c531659141344cd1fd0a4f28419497f9722a3daafe3b4186f6b6457e061082d6104d3565b604080516001600160a01b03928316815291841660208301528051918290030190a17f02016836a56b71f0d02689e69e326f4f4c1b9057164ef592671cf0d37c8040c060005260026020527fb7802e97e87ef2842a6cce7da7ffaeaedaa2f61a6a7870b23d9d01fc9b73712e80546001600160a01b0319166001600160a01b0392909216919091179055565b600081848411156109485760405162461bcd60e51b81526004018080602001828103825283818151815260200191508051906020019080838360005b8381101561090d5781810151838201526020016108f5565b50505050905090810190601f16801561093a5780820380516001836020036101000a031916815260200191505b509250505060405180910390fd5b50505090039056fea264697066735822122062f01fd77335779f238942a6548af95005b4d2615ca0e3ea01ac2d3e83ec89b164736f6c63430007050033",
  "immutableReferences": {},
  "source": "pragma solidity 0.7.5;\n\nimport \"@openzeppelin/contracts/utils/Address.sol\";\nimport \"@openzeppelin/contracts/math/SafeMath.sol\";\nimport \"../../Ownable.sol\";\nimport \"../../../interfaces/IInterestReceiver.sol\";\nimport \"../../../interfaces/IInterestImplementation.sol\";\nimport \"../native/MediatorBalanceStorage.sol\";\n\n/**\n * @title InterestConnector\n * @dev This contract gives an abstract way of receiving interest on locked tokens.\n */\ncontract InterestConnector is Ownable, MediatorBalanceStorage {\n    using SafeMath for uint256;\n\n    /**\n     * @dev Tells address of the interest earning implementation for the specific token contract.\n     * If interest earning is disabled, will return 0x00..00.\n     * Can be an address of the deployed CompoundInterestERC20 contract.\n     * @param _token address of the locked token contract.\n     * @return address of the implementation contract.\n     */\n    function interestImplementation(address _token) public view returns (IInterestImplementation) {\n        return IInterestImplementation(addressStorage[keccak256(abi.encodePacked(\"interestImpl\", _token))]);\n    }\n\n    /**\n     * @dev Initializes interest receiving functionality for the particular locked token.\n     * Only owner can call this method.\n     * @param _token address of the token for interest earning.\n     * @param _impl address of the interest earning implementation contract.\n     * @param _minCashThreshold minimum amount of underlying tokens that are not invested.\n     */\n    function initializeInterest(\n        address _token,\n        address _impl,\n        uint256 _minCashThreshold\n    ) external onlyOwner {\n        require(address(interestImplementation(_token)) == address(0));\n        _setInterestImplementation(_token, _impl);\n        _setMinCashThreshold(_token, _minCashThreshold);\n    }\n\n    /**\n     * @dev Sets minimum amount of tokens that cannot be invested.\n     * Only owner can call this method.\n     * @param _token address of the token contract.\n     * @param _minCashThreshold minimum amount of underlying tokens that are not invested.\n     */\n    function setMinCashThreshold(address _token, uint256 _minCashThreshold) external onlyOwner {\n        _setMinCashThreshold(_token, _minCashThreshold);\n    }\n\n    /**\n     * @dev Tells minimum amount of tokens that are not being invested.\n     * @param _token address of the invested token contract.\n     * @return amount of tokens.\n     */\n    function minCashThreshold(address _token) public view returns (uint256) {\n        return uintStorage[keccak256(abi.encodePacked(\"minCashThreshold\", _token))];\n    }\n\n    /**\n     * @dev Disables interest for locked funds.\n     * Only owner can call this method.\n     * Prior to calling this function, consider to call payInterest and claimCompAndPay.\n     * @param _token of token to disable interest for.\n     */\n    function disableInterest(address _token) external onlyOwner {\n        interestImplementation(_token).withdraw(_token, uint256(-1));\n        _setInterestImplementation(_token, address(0));\n    }\n\n    /**\n     * @dev Invests all excess tokens. Leaves only minCashThreshold in underlying tokens.\n     * Requires interest for the given token to be enabled first.\n     * @param _token address of the token contract considered.\n     */\n    function invest(address _token) external {\n        IInterestImplementation impl = interestImplementation(_token);\n        // less than _token.balanceOf(this), since it does not take into account mistakenly locked tokens that should be processed via fixMediatorBalance.\n        uint256 balance = mediatorBalance(_token).sub(impl.investedAmount(_token));\n        uint256 minCash = minCashThreshold(_token);\n\n        require(balance > minCash);\n        uint256 amount = balance - minCash;\n\n        IERC20(_token).transfer(address(impl), amount);\n        impl.invest(_token, amount);\n    }\n\n    /**\n     * @dev Internal function for setting interest earning implementation contract for some token.\n     * Also acts as an interest enabled flag.\n     * @param _token address of the token contract.\n     * @param _impl address of the implementation contract.\n     */\n    function _setInterestImplementation(address _token, address _impl) internal {\n        require(_impl == address(0) || IInterestImplementation(_impl).isInterestSupported(_token));\n        addressStorage[keccak256(abi.encodePacked(\"interestImpl\", _token))] = _impl;\n    }\n\n    /**\n     * @dev Internal function for setting minimum amount of tokens that cannot be invested.\n     * @param _token address of the token contract.\n     * @param _minCashThreshold minimum amount of underlying tokens that are not invested.\n     */\n    function _setMinCashThreshold(address _token, uint256 _minCashThreshold) internal {\n        uintStorage[keccak256(abi.encodePacked(\"minCashThreshold\", _token))] = _minCashThreshold;\n    }\n}\n",
  "sourcePath": "/Users/eabz/Documents/GitHub/tokenbridge/packages/omnibridge/contracts/upgradeable_contracts/components/common/InterestConnector.sol",
  "compiler": {
    "name": "solc",
    "version": "0.7.5+commit.eb77ed08.Emscripten.clang"
  },
  "schemaVersion": "3.4.3",
  "updatedAt": "2021-09-04T01:08:31.302Z",
  "devdoc": {
    "details": "This contract gives an abstract way of receiving interest on locked tokens.",
    "kind": "dev",
    "methods": {
      "disableInterest(address)": {
        "details": "Disables interest for locked funds. Only owner can call this method. Prior to calling this function, consider to call payInterest and claimCompAndPay.",
        "params": {
          "_token": "of token to disable interest for."
        }
      },
      "initializeInterest(address,address,uint256)": {
        "details": "Initializes interest receiving functionality for the particular locked token. Only owner can call this method.",
        "params": {
          "_impl": "address of the interest earning implementation contract.",
          "_minCashThreshold": "minimum amount of underlying tokens that are not invested.",
          "_token": "address of the token for interest earning."
        }
      },
      "interestImplementation(address)": {
        "details": "Tells address of the interest earning implementation for the specific token contract. If interest earning is disabled, will return 0x00..00. Can be an address of the deployed CompoundInterestERC20 contract.",
        "params": {
          "_token": "address of the locked token contract."
        },
        "returns": {
          "_0": "address of the implementation contract."
        }
      },
      "invest(address)": {
        "details": "Invests all excess tokens. Leaves only minCashThreshold in underlying tokens. Requires interest for the given token to be enabled first.",
        "params": {
          "_token": "address of the token contract considered."
        }
      },
      "mediatorBalance(address)": {
        "details": "Tells the expected token balance of the contract.",
        "params": {
          "_token": "address of token contract."
        },
        "returns": {
          "_0": "the current tracked token balance of the contract."
        }
      },
      "minCashThreshold(address)": {
        "details": "Tells minimum amount of tokens that are not being invested.",
        "params": {
          "_token": "address of the invested token contract."
        },
        "returns": {
          "_0": "amount of tokens."
        }
      },
      "owner()": {
        "details": "Tells the address of the owner",
        "returns": {
          "_0": "the address of the owner"
        }
      },
      "setMinCashThreshold(address,uint256)": {
        "details": "Sets minimum amount of tokens that cannot be invested. Only owner can call this method.",
        "params": {
          "_minCashThreshold": "minimum amount of underlying tokens that are not invested.",
          "_token": "address of the token contract."
        }
      },
      "transferOwnership(address)": {
        "details": "Allows the current owner to transfer control of the contract to a newOwner.",
        "params": {
          "newOwner": "the address to transfer ownership to."
        }
      }
    },
    "title": "InterestConnector",
    "version": 1
  },
  "userdoc": {
    "kind": "user",
    "methods": {},
    "version": 1
  }
}