{
  "contractName": "MediatorBalanceStorage",
  "abi": [
    {
      "inputs": [
        {
          "internalType": "address",
          "name": "_token",
          "type": "address"
        }
      ],
      "name": "mediatorBalance",
      "outputs": [
        {
          "internalType": "uint256",
          "name": "",
          "type": "uint256"
        }
      ],
      "stateMutability": "view",
      "type": "function"
    }
  ],
  "bytecode": "0x6080604052348015600f57600080fd5b5060f88061001e6000396000f3fe6080604052348015600f57600080fd5b506004361060285760003560e01c8063194153d314602d575b600080fd5b605060048036036020811015604157600080fd5b50356001600160a01b03166062565b60408051918252519081900360200190f35b604080516e6d65646961746f7242616c616e636560881b60208083019190915260609390931b6bffffffffffffffffffffffff1916602f82015281518082036023018152604390910182528051908301206000908152918290529020549056fea264697066735822122022dd470a446c57bda1e75435b0be7db268fbb403121584087cbf53e340a3ec7764736f6c63430007050033",
  "immutableReferences": {},
  "source": "pragma solidity 0.7.5;\n\nimport \"@openzeppelin/contracts/math/SafeMath.sol\";\nimport \"../../../upgradeability/EternalStorage.sol\";\n\n/**\n * @title MediatorBalanceStorage\n * @dev Functionality for storing expected mediator balance for native tokens.\n */\ncontract MediatorBalanceStorage is EternalStorage {\n    /**\n     * @dev Tells the expected token balance of the contract.\n     * @param _token address of token contract.\n     * @return the current tracked token balance of the contract.\n     */\n    function mediatorBalance(address _token) public view returns (uint256) {\n        return uintStorage[keccak256(abi.encodePacked(\"mediatorBalance\", _token))];\n    }\n\n    /**\n     * @dev Updates expected token balance of the contract.\n     * @param _token address of token contract.\n     * @param _balance the new token balance of the contract.\n     */\n    function _setMediatorBalance(address _token, uint256 _balance) internal {\n        uintStorage[keccak256(abi.encodePacked(\"mediatorBalance\", _token))] = _balance;\n    }\n}\n",
  "sourcePath": "/Users/eabz/Documents/GitHub/tokenbridge/packages/omnibridge/contracts/upgradeable_contracts/components/native/MediatorBalanceStorage.sol",
  "compiler": {
    "name": "solc",
    "version": "0.7.5+commit.eb77ed08.Emscripten.clang"
  },
  "schemaVersion": "3.4.3",
  "updatedAt": "2021-09-04T01:08:31.322Z",
  "devdoc": {
    "details": "Functionality for storing expected mediator balance for native tokens.",
    "kind": "dev",
    "methods": {
      "mediatorBalance(address)": {
        "details": "Tells the expected token balance of the contract.",
        "params": {
          "_token": "address of token contract."
        },
        "returns": {
          "_0": "the current tracked token balance of the contract."
        }
      }
    },
    "title": "MediatorBalanceStorage",
    "version": 1
  },
  "userdoc": {
    "kind": "user",
    "methods": {},
    "version": 1
  }
}