{
  "contractName": "MediatorOwnableModule",
  "abi": [
    {
      "inputs": [
        {
          "internalType": "address",
          "name": "_mediator",
          "type": "address"
        },
        {
          "internalType": "address",
          "name": "_owner",
          "type": "address"
        }
      ],
      "stateMutability": "nonpayable",
      "type": "constructor"
    },
    {
      "inputs": [],
      "name": "mediator",
      "outputs": [
        {
          "internalType": "address",
          "name": "",
          "type": "address"
        }
      ],
      "stateMutability": "view",
      "type": "function"
    },
    {
      "inputs": [],
      "name": "owner",
      "outputs": [
        {
          "internalType": "address",
          "name": "",
          "type": "address"
        }
      ],
      "stateMutability": "view",
      "type": "function"
    },
    {
      "inputs": [
        {
          "internalType": "address",
          "name": "_newOwner",
          "type": "address"
        }
      ],
      "name": "transferOwnership",
      "outputs": [],
      "stateMutability": "nonpayable",
      "type": "function"
    }
  ],
  "bytecode": "0x608060405234801561001057600080fd5b506040516102493803806102498339818101604052604081101561003357600080fd5b508051602091820151600080546001600160a01b0319166001600160a01b038316179055909161006c90839061009b811b6100f117901c565b61007557600080fd5b50600180546001600160a01b0319166001600160a01b03929092169190911790556100d7565b6000813f7fc5d2460186f7233c927e7db2dcc703c0e500b653ca82273b7bfad8045d85a4708181148015906100cf57508115155b949350505050565b610163806100e66000396000f3fe608060405234801561001057600080fd5b50600436106100415760003560e01c80636d0501f6146100465780638da5cb5b1461006a578063f2fde38b14610072575b600080fd5b61004e61009a565b604080516001600160a01b039092168252519081900360200190f35b61004e6100a9565b6100986004803603602081101561008857600080fd5b50356001600160a01b03166100b8565b005b6001546001600160a01b031681565b6000546001600160a01b031681565b6000546001600160a01b031633146100cf57600080fd5b600080546001600160a01b0319166001600160a01b0392909216919091179055565b6000813f7fc5d2460186f7233c927e7db2dcc703c0e500b653ca82273b7bfad8045d85a47081811480159061012557508115155b94935050505056fea2646970667358221220f6a9978217ae8e46a5188a8f4d0de826eb9ca62a0fb50602a243c35edf13869d64736f6c63430007050033",
  "immutableReferences": {},
  "source": "pragma solidity 0.7.5;\n\nimport \"@openzeppelin/contracts/utils/Address.sol\";\nimport \"./OwnableModule.sol\";\n\n/**\n * @title MediatorOwnableModule\n * @dev Common functionality for non-upgradeable Omnibridge extension module.\n */\ncontract MediatorOwnableModule is OwnableModule {\n    address public mediator;\n\n    /**\n     * @dev Initializes this contract.\n     * @param _mediator address of the deployed Omnibridge extension for which this module is deployed.\n     * @param _owner address of the owner that is allowed to perform additional actions on the particular module.\n     */\n    constructor(address _mediator, address _owner) OwnableModule(_owner) {\n        require(Address.isContract(_mediator));\n        mediator = _mediator;\n    }\n\n    /**\n     * @dev Throws if sender is not the Omnibridge extension.\n     */\n    modifier onlyMediator {\n        require(msg.sender == mediator);\n        _;\n    }\n}\n",
  "sourcePath": "/Users/eabz/Documents/GitHub/tokenbridge/packages/omnibridge/contracts/upgradeable_contracts/modules/MediatorOwnableModule.sol",
  "compiler": {
    "name": "solc",
    "version": "0.7.5+commit.eb77ed08.Emscripten.clang"
  },
  "schemaVersion": "3.4.3",
  "updatedAt": "2021-09-04T01:08:31.323Z",
  "devdoc": {
    "details": "Common functionality for non-upgradeable Omnibridge extension module.",
    "kind": "dev",
    "methods": {
      "constructor": {
        "details": "Initializes this contract.",
        "params": {
          "_mediator": "address of the deployed Omnibridge extension for which this module is deployed.",
          "_owner": "address of the owner that is allowed to perform additional actions on the particular module."
        }
      },
      "transferOwnership(address)": {
        "details": "Changes the owner of this contract.",
        "params": {
          "_newOwner": "address of the new owner."
        }
      }
    },
    "title": "MediatorOwnableModule",
    "version": 1
  },
  "userdoc": {
    "kind": "user",
    "methods": {},
    "version": 1
  }
}