{
  "contractName": "MultiTokenForwardingRulesConnector",
  "abi": [
    {
      "anonymous": false,
      "inputs": [
        {
          "indexed": false,
          "internalType": "address",
          "name": "previousOwner",
          "type": "address"
        },
        {
          "indexed": false,
          "internalType": "address",
          "name": "newOwner",
          "type": "address"
        }
      ],
      "name": "OwnershipTransferred",
      "type": "event"
    },
    {
      "inputs": [],
      "name": "owner",
      "outputs": [
        {
          "internalType": "address",
          "name": "",
          "type": "address"
        }
      ],
      "stateMutability": "view",
      "type": "function"
    },
    {
      "inputs": [
        {
          "internalType": "address",
          "name": "newOwner",
          "type": "address"
        }
      ],
      "name": "transferOwnership",
      "outputs": [],
      "stateMutability": "nonpayable",
      "type": "function"
    },
    {
      "inputs": [
        {
          "internalType": "address",
          "name": "_manager",
          "type": "address"
        }
      ],
      "name": "setForwardingRulesManager",
      "outputs": [],
      "stateMutability": "nonpayable",
      "type": "function"
    },
    {
      "inputs": [],
      "name": "forwardingRulesManager",
      "outputs": [
        {
          "internalType": "contract MultiTokenForwardingRulesManager",
          "name": "",
          "type": "address"
        }
      ],
      "stateMutability": "view",
      "type": "function"
    }
  ],
  "bytecode": "0x608060405234801561001057600080fd5b5061038c806100206000396000f3fe608060405234801561001057600080fd5b506004361061004c5760003560e01c80638da5cb5b1461005157806390ad84a814610075578063c722b1be1461009d578063f2fde38b146100a5575b600080fd5b6100596100cb565b604080516001600160a01b039092168252519081900360200190f35b61009b6004803603602081101561008b57600080fd5b50356001600160a01b0316610122565b005b610059610136565b61009b600480360360208110156100bb57600080fd5b50356001600160a01b031661018d565b7f02016836a56b71f0d02689e69e326f4f4c1b9057164ef592671cf0d37c8040c060005260026020527fb7802e97e87ef2842a6cce7da7ffaeaedaa2f61a6a7870b23d9d01fc9b73712e546001600160a01b031690565b61012a61019e565b610133816101c5565b50565b7f5f86f226cd489cc09187d5f5e0adfb94308af0d4ceac482dd8a8adea9d80daf460005260026020527fab9e97adef29adb9492a44df89badb4a706f8f35202918df21ca61ed056c4868546001600160a01b031690565b61019561019e565b61013381610252565b6101a66100cb565b6001600160a01b0316336001600160a01b0316146101c357600080fd5b565b6001600160a01b03811615806101df57506101df8161031a565b6101e857600080fd5b7f5f86f226cd489cc09187d5f5e0adfb94308af0d4ceac482dd8a8adea9d80daf460005260026020527fab9e97adef29adb9492a44df89badb4a706f8f35202918df21ca61ed056c486880546001600160a01b0319166001600160a01b0392909216919091179055565b6001600160a01b03811661026557600080fd5b7f8be0079c531659141344cd1fd0a4f28419497f9722a3daafe3b4186f6b6457e061028e6100cb565b604080516001600160a01b03928316815291841660208301528051918290030190a17f02016836a56b71f0d02689e69e326f4f4c1b9057164ef592671cf0d37c8040c060005260026020527fb7802e97e87ef2842a6cce7da7ffaeaedaa2f61a6a7870b23d9d01fc9b73712e80546001600160a01b0319166001600160a01b0392909216919091179055565b6000813f7fc5d2460186f7233c927e7db2dcc703c0e500b653ca82273b7bfad8045d85a47081811480159061034e57508115155b94935050505056fea264697066735822122088975b72127f84cd64bb95620f7dbf1224b2ea5aab01c09f7f7a7fec6c20756364736f6c63430007050033",
  "immutableReferences": {},
  "source": "pragma solidity 0.7.5;\n\nimport \"@openzeppelin/contracts/utils/Address.sol\";\nimport \"../../Ownable.sol\";\nimport \"./MultiTokenForwardingRulesManager.sol\";\n\n/**\n * @title MultiTokenForwardingRulesConnector\n * @dev Connectivity functionality that is required for using forwarding rules manager.\n */\ncontract MultiTokenForwardingRulesConnector is Ownable {\n    bytes32 internal constant FORWARDING_RULES_MANAGER_CONTRACT =\n        0x5f86f226cd489cc09187d5f5e0adfb94308af0d4ceac482dd8a8adea9d80daf4; // keccak256(abi.encodePacked(\"forwardingRulesManagerContract\"))\n\n    /**\n     * @dev Updates an address of the used forwarding rules manager contract.\n     * @param _manager address of forwarding rules manager contract.\n     */\n    function setForwardingRulesManager(address _manager) external onlyOwner {\n        _setForwardingRulesManager(_manager);\n    }\n\n    /**\n     * @dev Retrieves an address of the forwarding rules manager contract.\n     * @return address of the forwarding rules manager contract.\n     */\n    function forwardingRulesManager() public view returns (MultiTokenForwardingRulesManager) {\n        return MultiTokenForwardingRulesManager(addressStorage[FORWARDING_RULES_MANAGER_CONTRACT]);\n    }\n\n    /**\n     * @dev Internal function for updating an address of the used forwarding rules manager contract.\n     * @param _manager address of forwarding rules manager contract.\n     */\n    function _setForwardingRulesManager(address _manager) internal {\n        require(_manager == address(0) || Address.isContract(_manager));\n        addressStorage[FORWARDING_RULES_MANAGER_CONTRACT] = _manager;\n    }\n\n    /**\n     * @dev Checks if bridge operation is allowed to use oracle driven lane.\n     * @param _token address of the token contract on the foreign side of the bridge.\n     * @param _sender address of the tokens sender on the home side of the bridge.\n     * @param _receiver address of the tokens receiver on the foreign side of the bridge.\n     * @return true, if message can be forwarded to the oracle-driven lane.\n     */\n    function _isOracleDrivenLaneAllowed(\n        address _token,\n        address _sender,\n        address _receiver\n    ) internal view returns (bool) {\n        MultiTokenForwardingRulesManager manager = forwardingRulesManager();\n        // If the manager is defined the default behavior is to use manual lane\n        return address(manager) == address(0) || manager.destinationLane(_token, _sender, _receiver) > 0;\n    }\n}\n",
  "sourcePath": "/Users/eabz/Documents/GitHub/tokenbridge/packages/omnibridge/contracts/upgradeable_contracts/modules/forwarding_rules/MultiTokenForwardingRulesConnector.sol",
  "compiler": {
    "name": "solc",
    "version": "0.7.5+commit.eb77ed08.Emscripten.clang"
  },
  "schemaVersion": "3.4.3",
  "updatedAt": "2021-09-04T01:08:31.340Z",
  "devdoc": {
    "details": "Connectivity functionality that is required for using forwarding rules manager.",
    "kind": "dev",
    "methods": {
      "forwardingRulesManager()": {
        "details": "Retrieves an address of the forwarding rules manager contract.",
        "returns": {
          "_0": "address of the forwarding rules manager contract."
        }
      },
      "owner()": {
        "details": "Tells the address of the owner",
        "returns": {
          "_0": "the address of the owner"
        }
      },
      "setForwardingRulesManager(address)": {
        "details": "Updates an address of the used forwarding rules manager contract.",
        "params": {
          "_manager": "address of forwarding rules manager contract."
        }
      },
      "transferOwnership(address)": {
        "details": "Allows the current owner to transfer control of the contract to a newOwner.",
        "params": {
          "newOwner": "the address to transfer ownership to."
        }
      }
    },
    "title": "MultiTokenForwardingRulesConnector",
    "version": 1
  },
  "userdoc": {
    "kind": "user",
    "methods": {},
    "version": 1
  }
}