{
  "contractName": "MultiTokenForwardingRulesManager",
  "abi": [
    {
      "inputs": [
        {
          "internalType": "address",
          "name": "_owner",
          "type": "address"
        }
      ],
      "stateMutability": "nonpayable",
      "type": "constructor"
    },
    {
      "anonymous": false,
      "inputs": [
        {
          "indexed": false,
          "internalType": "address",
          "name": "token",
          "type": "address"
        },
        {
          "indexed": false,
          "internalType": "address",
          "name": "sender",
          "type": "address"
        },
        {
          "indexed": false,
          "internalType": "address",
          "name": "receiver",
          "type": "address"
        },
        {
          "indexed": false,
          "internalType": "int256",
          "name": "lane",
          "type": "int256"
        }
      ],
      "name": "ForwardingRuleUpdated",
      "type": "event"
    },
    {
      "inputs": [
        {
          "internalType": "address",
          "name": "",
          "type": "address"
        },
        {
          "internalType": "address",
          "name": "",
          "type": "address"
        },
        {
          "internalType": "address",
          "name": "",
          "type": "address"
        }
      ],
      "name": "forwardingRule",
      "outputs": [
        {
          "internalType": "int256",
          "name": "",
          "type": "int256"
        }
      ],
      "stateMutability": "view",
      "type": "function"
    },
    {
      "inputs": [],
      "name": "owner",
      "outputs": [
        {
          "internalType": "address",
          "name": "",
          "type": "address"
        }
      ],
      "stateMutability": "view",
      "type": "function"
    },
    {
      "inputs": [
        {
          "internalType": "address",
          "name": "_newOwner",
          "type": "address"
        }
      ],
      "name": "transferOwnership",
      "outputs": [],
      "stateMutability": "nonpayable",
      "type": "function"
    },
    {
      "inputs": [],
      "name": "getModuleInterfacesVersion",
      "outputs": [
        {
          "internalType": "uint64",
          "name": "major",
          "type": "uint64"
        },
        {
          "internalType": "uint64",
          "name": "minor",
          "type": "uint64"
        },
        {
          "internalType": "uint64",
          "name": "patch",
          "type": "uint64"
        }
      ],
      "stateMutability": "pure",
      "type": "function"
    },
    {
      "inputs": [
        {
          "internalType": "address",
          "name": "_token",
          "type": "address"
        },
        {
          "internalType": "address",
          "name": "_sender",
          "type": "address"
        },
        {
          "internalType": "address",
          "name": "_receiver",
          "type": "address"
        }
      ],
      "name": "destinationLane",
      "outputs": [
        {
          "internalType": "int256",
          "name": "",
          "type": "int256"
        }
      ],
      "stateMutability": "view",
      "type": "function"
    },
    {
      "inputs": [
        {
          "internalType": "address",
          "name": "_token",
          "type": "address"
        },
        {
          "internalType": "bool",
          "name": "_enable",
          "type": "bool"
        }
      ],
      "name": "setTokenForwardingRule",
      "outputs": [],
      "stateMutability": "nonpayable",
      "type": "function"
    },
    {
      "inputs": [
        {
          "internalType": "address",
          "name": "_token",
          "type": "address"
        },
        {
          "internalType": "address",
          "name": "_sender",
          "type": "address"
        },
        {
          "internalType": "bool",
          "name": "_enable",
          "type": "bool"
        }
      ],
      "name": "setSenderExceptionForTokenForwardingRule",
      "outputs": [],
      "stateMutability": "nonpayable",
      "type": "function"
    },
    {
      "inputs": [
        {
          "internalType": "address",
          "name": "_token",
          "type": "address"
        },
        {
          "internalType": "address",
          "name": "_receiver",
          "type": "address"
        },
        {
          "internalType": "bool",
          "name": "_enable",
          "type": "bool"
        }
      ],
      "name": "setReceiverExceptionForTokenForwardingRule",
      "outputs": [],
      "stateMutability": "nonpayable",
      "type": "function"
    },
    {
      "inputs": [
        {
          "internalType": "address",
          "name": "_sender",
          "type": "address"
        },
        {
          "internalType": "bool",
          "name": "_enable",
          "type": "bool"
        }
      ],
      "name": "setSenderForwardingRule",
      "outputs": [],
      "stateMutability": "nonpayable",
      "type": "function"
    },
    {
      "inputs": [
        {
          "internalType": "address",
          "name": "_receiver",
          "type": "address"
        },
        {
          "internalType": "bool",
          "name": "_enable",
          "type": "bool"
        }
      ],
      "name": "setReceiverForwardingRule",
      "outputs": [],
      "stateMutability": "nonpayable",
      "type": "function"
    }
  ],
  "bytecode": "0x608060405234801561001057600080fd5b506040516106ce3803806106ce8339818101604052602081101561003357600080fd5b5051600080546001600160a01b039092166001600160a01b0319909216919091179055610669806100656000396000f3fe608060405234801561001057600080fd5b506004361061009e5760003560e01c80638da5cb5b116100665780638da5cb5b146101ad5780638efeb22d146101d1578063c98cb30e14610209578063f2fde38b14610241578063f7baa049146102675761009e565b806324d05aa2146100a35780634721ff79146100d35780637060ed891461010157806381e1351f1461014b578063878236191461017f575b600080fd5b6100d1600480360360408110156100b957600080fd5b506001600160a01b038135169060200135151561029f565b005b6100d1600480360360408110156100e957600080fd5b506001600160a01b03813516906020013515156102da565b6101396004803603606081101561011757600080fd5b506001600160a01b038135811691602081013582169160409091013516610309565b60408051918252519081900360200190f35b61015361032c565b6040805167ffffffffffffffff9485168152928416602084015292168183015290519081900360600190f35b6100d16004803603604081101561019557600080fd5b506001600160a01b0381351690602001351515610335565b6101b561036b565b604080516001600160a01b039092168252519081900360200190f35b6100d1600480360360608110156101e757600080fd5b506001600160a01b03813581169160208101359091169060400135151561037a565b6100d16004803603606081101561021f57600080fd5b506001600160a01b0381358116916020810135909116906040013515156103cc565b6100d16004803603602081101561025757600080fd5b50356001600160a01b0316610411565b6101396004803603606081101561027d57600080fd5b506001600160a01b03813581169160208101358216916040909101351661044a565b6001600160a01b0382811614156102b557600080fd5b6102d6826001600160a01b0380846102ce5760006102d1565b60015b610598565b5050565b6001600160a01b0382811614156102f057600080fd5b6102d66001600160a01b038084846102ce5760006102d1565b600160209081526000938452604080852082529284528284209052825290205481565b60016000809192565b6001600160a01b03828116141561034b57600080fd5b6102d66001600160a01b03836001600160a01b03846102ce5760006102d1565b6000546001600160a01b031681565b6001600160a01b03838116141561039057600080fd5b6001600160a01b0382811614156103a657600080fd5b6103c783836001600160a01b03846103bf5760006102d1565b600019610598565b505050565b6001600160a01b0383811614156103e257600080fd5b6001600160a01b0382811614156103f857600080fd5b6103c7836001600160a01b0384846103bf5760006102d1565b6000546001600160a01b0316331461042857600080fd5b600080546001600160a01b0319166001600160a01b0392909216919091179055565b6001600160a01b038084166000908152600160209081526040808320938352928152828220905290812054818082131561050257506001600160a01b03808616600090815260016020908152604080832088851684528252808320938352929052205480156104bc5791506105919050565b506001600160a01b03808616600090815260016020908152604080832084845282528083209387168352929052205480156104fa5791506105919050565b509050610591565b506001600160a01b0384811660009081527f73df27e0fa8bbb6c6a588f907379871e0f69a2bae64ea632056f6dabc259f36260209081526040808320938352929052205480156105555791506105919050565b5050506001600160a01b03811660009081527f4233c29e78663f7ecc2ce2bfaada6ca8a0d1dac6601afb2e1235b6fe26bb589e60205260409020545b9392505050565b6000546001600160a01b031633146105af57600080fd5b6001600160a01b03808516600081815260016020908152604080832088861680855290835281842095881680855295835292819020869055805193845290830191909152818101929092526060810183905290517fa999f8c73447a5021a8e358783df77bbe2c90529cadb1fb1ef8f30cd9f9d8c939181900360800190a15050505056fea2646970667358221220dda4f5b96f003ea396731f83bcdff7cd4d40faafb7076cd5671a5918616bb47364736f6c63430007050033",
  "immutableReferences": {},
  "source": "pragma solidity 0.7.5;\n\nimport \"../OwnableModule.sol\";\n\n/**\n * @title MultiTokenForwardingRulesManager\n * @dev Multi token mediator functionality for managing destination AMB lanes permissions.\n */\ncontract MultiTokenForwardingRulesManager is OwnableModule {\n    address internal constant ANY_ADDRESS = 0xFFfFfFffFFfffFFfFFfFFFFFffFFFffffFfFFFfF;\n\n    // Forwarding rules mapping\n    // token => sender => receiver => destination lane\n    mapping(address => mapping(address => mapping(address => int256))) public forwardingRule;\n\n    event ForwardingRuleUpdated(address token, address sender, address receiver, int256 lane);\n\n    constructor(address _owner) OwnableModule(_owner) {}\n\n    /**\n     * @dev Tells the module interface version that this contract supports.\n     * @return major value of the version\n     * @return minor value of the version\n     * @return patch value of the version\n     */\n    function getModuleInterfacesVersion()\n        external\n        pure\n        returns (\n            uint64 major,\n            uint64 minor,\n            uint64 patch\n        )\n    {\n        return (1, 0, 0);\n    }\n\n    /**\n     * @dev Tells the destination lane for a particular bridge operation by checking several wildcard forwarding rules.\n     * @param _token address of the token contract on the foreign side of the bridge.\n     * @param _sender address of the tokens sender on the home side of the bridge.\n     * @param _receiver address of the tokens receiver on the foreign side of the bridge.\n     * @return destination lane identifier, where the message should be forwarded to.\n     *  1 - oracle-driven-lane should be used.\n     *  0 - default behaviour should be applied.\n     * -1 - manual lane should be used.\n     */\n    function destinationLane(\n        address _token,\n        address _sender,\n        address _receiver\n    ) public view returns (int256) {\n        int256 defaultLane = forwardingRule[_token][ANY_ADDRESS][ANY_ADDRESS]; // specific token for all senders and receivers\n        int256 lane;\n        if (defaultLane > 0) {\n            lane = forwardingRule[_token][_sender][ANY_ADDRESS]; // specific token for specific sender\n            if (lane != 0) return lane;\n            lane = forwardingRule[_token][ANY_ADDRESS][_receiver]; // specific token for specific receiver\n            if (lane != 0) return lane;\n            return defaultLane;\n        }\n        lane = forwardingRule[ANY_ADDRESS][_sender][ANY_ADDRESS]; // all tokens for specific sender\n        if (lane != 0) return lane;\n        return forwardingRule[ANY_ADDRESS][ANY_ADDRESS][_receiver]; // all tokens for specific receiver\n    }\n\n    /**\n     * Updates the forwarding rule for bridging specific token.\n     * Only owner can call this method.\n     * @param _token address of the token contract on the foreign side.\n     * @param _enable true, if bridge operations for a given token should be forwarded to the oracle-driven lane.\n     */\n    function setTokenForwardingRule(address _token, bool _enable) external {\n        require(_token != ANY_ADDRESS);\n        _setForwardingRule(_token, ANY_ADDRESS, ANY_ADDRESS, _enable ? int256(1) : int256(0));\n    }\n\n    /**\n     * Allows a particular address to send bridge requests to the manual lane for a particular token.\n     * Only owner can call this method.\n     * @param _token address of the token contract on the foreign side.\n     * @param _sender address of the tokens sender on the home side of the bridge.\n     * @param _enable true, if bridge operations for a given token and sender should be forwarded to the manual lane.\n     */\n    function setSenderExceptionForTokenForwardingRule(\n        address _token,\n        address _sender,\n        bool _enable\n    ) external {\n        require(_token != ANY_ADDRESS);\n        require(_sender != ANY_ADDRESS);\n        _setForwardingRule(_token, _sender, ANY_ADDRESS, _enable ? int256(-1) : int256(0));\n    }\n\n    /**\n     * Allows a particular address to receive bridged tokens from the manual lane for a particular token.\n     * Only owner can call this method.\n     * @param _token address of the token contract on the foreign side.\n     * @param _receiver address of the tokens receiver on the foreign side of the bridge.\n     * @param _enable true, if bridge operations for a given token and receiver should be forwarded to the manual lane.\n     */\n    function setReceiverExceptionForTokenForwardingRule(\n        address _token,\n        address _receiver,\n        bool _enable\n    ) external {\n        require(_token != ANY_ADDRESS);\n        require(_receiver != ANY_ADDRESS);\n        _setForwardingRule(_token, ANY_ADDRESS, _receiver, _enable ? int256(-1) : int256(0));\n    }\n\n    /**\n     * Updates the forwarding rule for the specific sender.\n     * Only owner can call this method.\n     * @param _sender address of the tokens sender on the home side.\n     * @param _enable true, if all bridge operations from a given sender should be forwarded to the oracle-driven lane.\n     */\n    function setSenderForwardingRule(address _sender, bool _enable) external {\n        require(_sender != ANY_ADDRESS);\n        _setForwardingRule(ANY_ADDRESS, _sender, ANY_ADDRESS, _enable ? int256(1) : int256(0));\n    }\n\n    /**\n     * Updates the forwarding rule for the specific receiver.\n     * Only owner can call this method.\n     * @param _receiver address of the tokens receiver on the foreign side.\n     * @param _enable true, if all bridge operations to a given receiver should be forwarded to the oracle-driven lane.\n     */\n    function setReceiverForwardingRule(address _receiver, bool _enable) external {\n        require(_receiver != ANY_ADDRESS);\n        _setForwardingRule(ANY_ADDRESS, ANY_ADDRESS, _receiver, _enable ? int256(1) : int256(0));\n    }\n\n    /**\n     * @dev Internal function for updating the preferred destination lane for the specific wildcard pattern.\n     * Only owner can call this method.\n     * Examples:\n     *   _setForwardingRule(tokenA, ANY_ADDRESS, ANY_ADDRESS, -1) - forward all operations on tokenA to the manual lane\n     *   _setForwardingRule(tokenA, Alice, ANY_ADDRESS, 1) - allow Alice to use the oracle-driven lane for bridging tokenA\n     *   _setForwardingRule(tokenA, ANY_ADDRESS, Bob, 1) - forward all tokenA bridge operations, where Bob is the receiver, to the oracle-driven lane\n     *   _setForwardingRule(ANY_ADDRESS, Mallory, ANY_ADDRESS, -1) - forward all bridge operations from Mallory to the manual lane\n     * @param _token address of the token contract on the foreign side of the bridge.\n     * @param _sender address of the tokens sender on the home side of the bridge.\n     * @param _receiver address of the tokens receiver on the foreign side of the bridge.\n     * @param _lane preferred destination lane for the particular sender.\n     *  1 - forward to the oracle-driven lane.\n     *  0 - behaviour is unset, proceed by checking other less-specific rules.\n     * -1 - manual lane should be used.\n     */\n    function _setForwardingRule(\n        address _token,\n        address _sender,\n        address _receiver,\n        int256 _lane\n    ) internal onlyOwner {\n        forwardingRule[_token][_sender][_receiver] = _lane;\n\n        emit ForwardingRuleUpdated(_token, _sender, _receiver, _lane);\n    }\n}\n",
  "sourcePath": "/Users/eabz/Documents/GitHub/tokenbridge/packages/omnibridge/contracts/upgradeable_contracts/modules/forwarding_rules/MultiTokenForwardingRulesManager.sol",
  "compiler": {
    "name": "solc",
    "version": "0.7.5+commit.eb77ed08.Emscripten.clang"
  },
  "schemaVersion": "3.4.3",
  "updatedAt": "2021-09-04T01:08:31.342Z",
  "devdoc": {
    "details": "Multi token mediator functionality for managing destination AMB lanes permissions.",
    "kind": "dev",
    "methods": {
      "destinationLane(address,address,address)": {
        "details": "Tells the destination lane for a particular bridge operation by checking several wildcard forwarding rules.",
        "params": {
          "_receiver": "address of the tokens receiver on the foreign side of the bridge.",
          "_sender": "address of the tokens sender on the home side of the bridge.",
          "_token": "address of the token contract on the foreign side of the bridge."
        },
        "returns": {
          "_0": "destination lane identifier, where the message should be forwarded to.  1 - oracle-driven-lane should be used.  0 - default behaviour should be applied. -1 - manual lane should be used."
        }
      },
      "getModuleInterfacesVersion()": {
        "details": "Tells the module interface version that this contract supports.",
        "returns": {
          "major": "value of the version",
          "minor": "value of the version",
          "patch": "value of the version"
        }
      },
      "setReceiverExceptionForTokenForwardingRule(address,address,bool)": {
        "params": {
          "_enable": "true, if bridge operations for a given token and receiver should be forwarded to the manual lane.",
          "_receiver": "address of the tokens receiver on the foreign side of the bridge.",
          "_token": "address of the token contract on the foreign side."
        }
      },
      "setReceiverForwardingRule(address,bool)": {
        "params": {
          "_enable": "true, if all bridge operations to a given receiver should be forwarded to the oracle-driven lane.",
          "_receiver": "address of the tokens receiver on the foreign side."
        }
      },
      "setSenderExceptionForTokenForwardingRule(address,address,bool)": {
        "params": {
          "_enable": "true, if bridge operations for a given token and sender should be forwarded to the manual lane.",
          "_sender": "address of the tokens sender on the home side of the bridge.",
          "_token": "address of the token contract on the foreign side."
        }
      },
      "setSenderForwardingRule(address,bool)": {
        "params": {
          "_enable": "true, if all bridge operations from a given sender should be forwarded to the oracle-driven lane.",
          "_sender": "address of the tokens sender on the home side."
        }
      },
      "setTokenForwardingRule(address,bool)": {
        "params": {
          "_enable": "true, if bridge operations for a given token should be forwarded to the oracle-driven lane.",
          "_token": "address of the token contract on the foreign side."
        }
      },
      "transferOwnership(address)": {
        "details": "Changes the owner of this contract.",
        "params": {
          "_newOwner": "address of the new owner."
        }
      }
    },
    "title": "MultiTokenForwardingRulesManager",
    "version": 1
  },
  "userdoc": {
    "kind": "user",
    "methods": {
      "setReceiverExceptionForTokenForwardingRule(address,address,bool)": {
        "notice": "Allows a particular address to receive bridged tokens from the manual lane for a particular token. Only owner can call this method."
      },
      "setReceiverForwardingRule(address,bool)": {
        "notice": "Updates the forwarding rule for the specific receiver. Only owner can call this method."
      },
      "setSenderExceptionForTokenForwardingRule(address,address,bool)": {
        "notice": "Allows a particular address to send bridge requests to the manual lane for a particular token. Only owner can call this method."
      },
      "setSenderForwardingRule(address,bool)": {
        "notice": "Updates the forwarding rule for the specific sender. Only owner can call this method."
      },
      "setTokenForwardingRule(address,bool)": {
        "notice": "Updates the forwarding rule for bridging specific token. Only owner can call this method."
      }
    },
    "version": 1
  }
}