{
  "contractName": "NativeTokensRegistry",
  "abi": [
    {
      "inputs": [
        {
          "internalType": "address",
          "name": "_token",
          "type": "address"
        }
      ],
      "name": "isBridgedTokenDeployAcknowledged",
      "outputs": [
        {
          "internalType": "bool",
          "name": "",
          "type": "bool"
        }
      ],
      "stateMutability": "view",
      "type": "function"
    }
  ],
  "bytecode": "0x6080604052348015600f57600080fd5b5060f88061001e6000396000f3fe6080604052348015600f57600080fd5b506004361060285760003560e01c8063ae813e9f14602d575b600080fd5b605060048036036020811015604157600080fd5b50356001600160a01b03166064565b604080519115158252519081900360200190f35b604080516861636b4465706c6f7960b81b60208083019190915260609390931b6bffffffffffffffffffffffff191660298201528151808203601d018152603d90910182528051908301206000908152600490925290205460ff169056fea264697066735822122059420759058ab13222c85c34d29e4525a6149b5615111bda386317cda231eefd64736f6c63430007050033",
  "immutableReferences": {},
  "source": "pragma solidity 0.7.5;\n\nimport \"../../../upgradeability/EternalStorage.sol\";\n\n/**\n * @title NativeTokensRegistry\n * @dev Functionality for keeping track of registered native tokens.\n */\ncontract NativeTokensRegistry is EternalStorage {\n    /**\n     * @dev Checks if for a given native token, the deployment of its bridged alternative was already acknowledged.\n     * @param _token address of native token contract.\n     * @return true, if bridged token was already deployed.\n     */\n    function isBridgedTokenDeployAcknowledged(address _token) public view returns (bool) {\n        return boolStorage[keccak256(abi.encodePacked(\"ackDeploy\", _token))];\n    }\n\n    /**\n     * @dev Acknowledges the deployment of bridged token contract on the other side.\n     * @param _token address of native token contract.\n     */\n    function _ackBridgedTokenDeploy(address _token) internal {\n        if (!boolStorage[keccak256(abi.encodePacked(\"ackDeploy\", _token))]) {\n            boolStorage[keccak256(abi.encodePacked(\"ackDeploy\", _token))] = true;\n        }\n    }\n}\n",
  "sourcePath": "/Users/eabz/Documents/GitHub/tokenbridge/packages/omnibridge/contracts/upgradeable_contracts/components/native/NativeTokensRegistry.sol",
  "compiler": {
    "name": "solc",
    "version": "0.7.5+commit.eb77ed08.Emscripten.clang"
  },
  "schemaVersion": "3.4.3",
  "updatedAt": "2021-09-04T01:08:31.322Z",
  "devdoc": {
    "details": "Functionality for keeping track of registered native tokens.",
    "kind": "dev",
    "methods": {
      "isBridgedTokenDeployAcknowledged(address)": {
        "details": "Checks if for a given native token, the deployment of its bridged alternative was already acknowledged.",
        "params": {
          "_token": "address of native token contract."
        },
        "returns": {
          "_0": "true, if bridged token was already deployed."
        }
      }
    },
    "title": "NativeTokensRegistry",
    "version": 1
  },
  "userdoc": {
    "kind": "user",
    "methods": {},
    "version": 1
  }
}