{
  "contractName": "OmnibridgeFeeManager",
  "abi": [
    {
      "inputs": [
        {
          "internalType": "address",
          "name": "_mediator",
          "type": "address"
        },
        {
          "internalType": "address",
          "name": "_owner",
          "type": "address"
        },
        {
          "internalType": "address[]",
          "name": "_rewardAddresses",
          "type": "address[]"
        },
        {
          "internalType": "uint256[2]",
          "name": "_fees",
          "type": "uint256[2]"
        }
      ],
      "stateMutability": "nonpayable",
      "type": "constructor"
    },
    {
      "anonymous": false,
      "inputs": [
        {
          "indexed": false,
          "internalType": "bytes32",
          "name": "feeType",
          "type": "bytes32"
        },
        {
          "indexed": true,
          "internalType": "address",
          "name": "token",
          "type": "address"
        },
        {
          "indexed": false,
          "internalType": "uint256",
          "name": "fee",
          "type": "uint256"
        }
      ],
      "name": "FeeUpdated",
      "type": "event"
    },
    {
      "inputs": [],
      "name": "FOREIGN_TO_HOME_FEE",
      "outputs": [
        {
          "internalType": "bytes32",
          "name": "",
          "type": "bytes32"
        }
      ],
      "stateMutability": "view",
      "type": "function"
    },
    {
      "inputs": [],
      "name": "HOME_TO_FOREIGN_FEE",
      "outputs": [
        {
          "internalType": "bytes32",
          "name": "",
          "type": "bytes32"
        }
      ],
      "stateMutability": "view",
      "type": "function"
    },
    {
      "inputs": [],
      "name": "mediator",
      "outputs": [
        {
          "internalType": "address",
          "name": "",
          "type": "address"
        }
      ],
      "stateMutability": "view",
      "type": "function"
    },
    {
      "inputs": [],
      "name": "owner",
      "outputs": [
        {
          "internalType": "address",
          "name": "",
          "type": "address"
        }
      ],
      "stateMutability": "view",
      "type": "function"
    },
    {
      "inputs": [
        {
          "internalType": "address",
          "name": "_newOwner",
          "type": "address"
        }
      ],
      "name": "transferOwnership",
      "outputs": [],
      "stateMutability": "nonpayable",
      "type": "function"
    },
    {
      "inputs": [],
      "name": "getModuleInterfacesVersion",
      "outputs": [
        {
          "internalType": "uint64",
          "name": "major",
          "type": "uint64"
        },
        {
          "internalType": "uint64",
          "name": "minor",
          "type": "uint64"
        },
        {
          "internalType": "uint64",
          "name": "patch",
          "type": "uint64"
        }
      ],
      "stateMutability": "pure",
      "type": "function"
    },
    {
      "inputs": [
        {
          "internalType": "bytes32",
          "name": "_feeType",
          "type": "bytes32"
        },
        {
          "internalType": "address",
          "name": "_token",
          "type": "address"
        },
        {
          "internalType": "uint256",
          "name": "_fee",
          "type": "uint256"
        }
      ],
      "name": "setFee",
      "outputs": [],
      "stateMutability": "nonpayable",
      "type": "function"
    },
    {
      "inputs": [
        {
          "internalType": "bytes32",
          "name": "_feeType",
          "type": "bytes32"
        },
        {
          "internalType": "address",
          "name": "_token",
          "type": "address"
        }
      ],
      "name": "getFee",
      "outputs": [
        {
          "internalType": "uint256",
          "name": "",
          "type": "uint256"
        }
      ],
      "stateMutability": "view",
      "type": "function"
    },
    {
      "inputs": [
        {
          "internalType": "bytes32",
          "name": "_feeType",
          "type": "bytes32"
        },
        {
          "internalType": "address",
          "name": "_token",
          "type": "address"
        },
        {
          "internalType": "uint256",
          "name": "_value",
          "type": "uint256"
        }
      ],
      "name": "calculateFee",
      "outputs": [
        {
          "internalType": "uint256",
          "name": "",
          "type": "uint256"
        }
      ],
      "stateMutability": "view",
      "type": "function"
    },
    {
      "inputs": [
        {
          "internalType": "address",
          "name": "_addr",
          "type": "address"
        }
      ],
      "name": "addRewardAddress",
      "outputs": [],
      "stateMutability": "nonpayable",
      "type": "function"
    },
    {
      "inputs": [
        {
          "internalType": "address",
          "name": "_addr",
          "type": "address"
        }
      ],
      "name": "removeRewardAddress",
      "outputs": [],
      "stateMutability": "nonpayable",
      "type": "function"
    },
    {
      "inputs": [],
      "name": "rewardAddressCount",
      "outputs": [
        {
          "internalType": "uint256",
          "name": "",
          "type": "uint256"
        }
      ],
      "stateMutability": "view",
      "type": "function"
    },
    {
      "inputs": [],
      "name": "rewardAddressList",
      "outputs": [
        {
          "internalType": "address[]",
          "name": "",
          "type": "address[]"
        }
      ],
      "stateMutability": "view",
      "type": "function"
    },
    {
      "inputs": [
        {
          "internalType": "address",
          "name": "_addr",
          "type": "address"
        }
      ],
      "name": "isRewardAddress",
      "outputs": [
        {
          "internalType": "bool",
          "name": "",
          "type": "bool"
        }
      ],
      "stateMutability": "view",
      "type": "function"
    },
    {
      "inputs": [
        {
          "internalType": "address",
          "name": "_token",
          "type": "address"
        }
      ],
      "name": "distributeFee",
      "outputs": [],
      "stateMutability": "nonpayable",
      "type": "function"
    }
  ],
  "bytecode": "0x60806040523480156200001157600080fd5b506040516200135338038062001353833981810160405260a08110156200003757600080fd5b815160208301516040808501805191519395929483019291846401000000008211156200006357600080fd5b9083019060208201858111156200007957600080fd5b82518660208202830111640100000000821117156200009757600080fd5b82525081516020918201928201910280838360005b83811015620000c6578181015183820152602001620000ac565b505050509190910160405250600080546001600160a01b0319166001600160a01b0387161790556020908101925085915084906200010f90839062000273811b6200092817901c565b6200011957600080fd5b50600180546001600160a01b0319166001600160a01b03929092169190911790558151603210156200014a57600080fd5b6200017f7f741ede137d0537e88e0ea0ff25b1f22d837903dbbee8980b4a06e8523247ee26600083815b6020020151620002b0565b620001af7f03be2b2875cb41e0e77355e802a16769bb8dfcf825061cde185c73bf94f12625600083600162000174565b60005b82518110156200025257620001e1838281518110620001cd57fe5b60200260200101516200032e60201b60201c565b620001eb57600080fd5b60005b8181101562000248578382815181106200020457fe5b60200260200101516001600160a01b03168482815181106200022257fe5b60200260200101516001600160a01b031614156200023f57600080fd5b600101620001ee565b50600101620001b2565b508151620002689060039060208501906200035d565b5050505050620003de565b6000813f7fc5d2460186f7233c927e7db2dcc703c0e500b653ca82273b7bfad8045d85a470818114801590620002a857508115155b949350505050565b80670de0b6b3a76400008110620002c657600080fd5b60008481526002602090815260408083206001600160a01b03871680855290835292819020600186019055805187815291820185905280517fb8ff7722579ab646299f4f7d3ec42f3aaa482cce1e47d6041e8ca971600455309281900390910190a250505050565b60006001600160a01b038216158015906200035757506001546001600160a01b03838116911614155b92915050565b828054828255906000526020600020908101928215620003b5579160200282015b82811115620003b557825182546001600160a01b0319166001600160a01b039091161782556020909201916001909101906200037e565b50620003c3929150620003c7565b5090565b5b80821115620003c35760008155600101620003c8565b610f6580620003ee6000396000f3fe608060405234801561001057600080fd5b50600436106100f55760003560e01c806371e9a8b211610097578063e9d6c05911610066578063e9d6c059146102b2578063f2fde38b1461030a578063f3ce14c214610330578063fab1909114610338576100f5565b806371e9a8b21461024857806381e1351f146102505780638da5cb5b14610284578063b4be506e1461028c576100f5565b80634e281a7b116100d35780634e281a7b1461018e57806368400963146101b45780636d0501f6146101f2578063710c601314610216576100f5565b8063071664c5146100fa57806310b8075b146101345780634b1a75821461015c575b600080fd5b6101206004803603602081101561011057600080fd5b50356001600160a01b0316610340565b604080519115158252519081900360200190f35b61015a6004803603602081101561014a57600080fd5b50356001600160a01b031661039d565b005b61015a6004803603606081101561017257600080fd5b508035906001600160a01b0360208201351690604001356104c7565b61015a600480360360208110156101a457600080fd5b50356001600160a01b0316610546565b6101e0600480360360408110156101ca57600080fd5b50803590602001356001600160a01b031661067e565b60408051918252519081900360200190f35b6101fa610734565b604080516001600160a01b039092168252519081900360200190f35b6101e06004803603606081101561022c57600080fd5b508035906001600160a01b036020820135169060400135610743565b6101e061078a565b610258610790565b6040805167ffffffffffffffff9485168152928416602084015292168183015290519081900360600190f35b6101fa610799565b61015a600480360360208110156102a257600080fd5b50356001600160a01b03166107a8565b6102ba610845565b60408051602080825283518183015283519192839290830191858101910280838360005b838110156102f65781810151838201526020016102de565b505050509050019250505060405180910390f35b61015a6004803603602081101561032057600080fd5b50356001600160a01b03166108a7565b6101e06108e0565b6101e0610904565b6000805b60035481101561039257826001600160a01b03166003828154811061036557fe5b6000918252602090912001546001600160a01b0316141561038a576001915050610398565b600101610344565b50600090505b919050565b6000546001600160a01b031633146103b457600080fd5b60035460005b818110156104be57826001600160a01b0316600382815481106103d957fe5b6000918252602090912001546001600160a01b031614156104b6576003600183038154811061040457fe5b600091825260209091200154600380546001600160a01b03909216918390811061042a57fe5b9060005260206000200160006101000a8154816001600160a01b0302191690836001600160a01b031602179055506003600183038154811061046857fe5b600091825260209091200180546001600160a01b0319169055600380548061048c57fe5b600082815260209020810160001990810180546001600160a01b0319169055019055506104c49050565b6001016103ba565b50600080fd5b50565b827f741ede137d0537e88e0ea0ff25b1f22d837903dbbee8980b4a06e8523247ee2681148061051557507f03be2b2875cb41e0e77355e802a16769bb8dfcf825061cde185c73bf94f1262581145b61051e57600080fd5b6000546001600160a01b0316331461053557600080fd5b610540848484610964565b50505050565b6001546001600160a01b0316331461055d57600080fd5b600354604080516370a0823160e01b815230600482015290516000916001600160a01b038516916370a0823191602480820192602092909190829003018186803b1580156105aa57600080fd5b505afa1580156105be573d6000803e3d6000fd5b505050506040513d60208110156105d457600080fd5b5051905060006105e482846109e1565b90506000806105fd6105f68487610a2c565b8590610a85565b905080156106115761060e85610ac7565b91505b60005b858110156106755783821580159061062b57508184145b1561063d5761063a8184610ae4565b90505b61066c6003838154811061064d57fe5b6000918252602090912001546001600160a01b038a8116911683610b3e565b50600101610614565b50505050505050565b6000827f741ede137d0537e88e0ea0ff25b1f22d837903dbbee8980b4a06e8523247ee268114806106ce57507f03be2b2875cb41e0e77355e802a16769bb8dfcf825061cde185c73bf94f1262581145b6106d757600080fd5b60008481526002602090815260408083206001600160a01b0387168452909152902054801561070b5760001901915061072d565b5060008481526002602090815260408083208380529091529020546000190191505b5092915050565b6001546001600160a01b031681565b60035460009061075557506000610783565b6000610761858561067e565b905061077f670de0b6b3a76400006107798584610a2c565b906109e1565b9150505b9392505050565b60035490565b60016000809192565b6000546001600160a01b031681565b6000546001600160a01b031633146107bf57600080fd5b6107c881610b95565b6107d157600080fd5b6107da81610340565b156107e457600080fd5b6003546032116107f357600080fd5b600380546001810182556000919091527fc2575a0e9e593c00f959f8c92f12db2869c3395a3b0502d05e2516446f71f85b0180546001600160a01b0319166001600160a01b0392909216919091179055565b6060600380548060200260200160405190810160405280929190818152602001828054801561089d57602002820191906000526020600020905b81546001600160a01b0316815260019091019060200180831161087f575b5050505050905090565b6000546001600160a01b031633146108be57600080fd5b600080546001600160a01b0319166001600160a01b0392909216919091179055565b7f03be2b2875cb41e0e77355e802a16769bb8dfcf825061cde185c73bf94f1262581565b7f741ede137d0537e88e0ea0ff25b1f22d837903dbbee8980b4a06e8523247ee2681565b6000813f7fc5d2460186f7233c927e7db2dcc703c0e500b653ca82273b7bfad8045d85a47081811480159061095c57508115155b949350505050565b80670de0b6b3a7640000811061097957600080fd5b60008481526002602090815260408083206001600160a01b03871680855290835292819020600186019055805187815291820185905280517fb8ff7722579ab646299f4f7d3ec42f3aaa482cce1e47d6041e8ca971600455309281900390910190a250505050565b6000610a2383836040518060400160405280601a81526020017f536166654d6174683a206469766973696f6e206279207a65726f000000000000815250610bc0565b90505b92915050565b600082610a3b57506000610a26565b82820282848281610a4857fe5b0414610a235760405162461bcd60e51b8152600401808060200182810382526021815260200180610ee56021913960400191505060405180910390fd5b6000610a2383836040518060400160405280601e81526020017f536166654d6174683a207375627472616374696f6e206f766572666c6f770000815250610c62565b600081610ad5436001610a85565b4081610add57fe5b0692915050565b600082820183811015610a23576040805162461bcd60e51b815260206004820152601b60248201527f536166654d6174683a206164646974696f6e206f766572666c6f770000000000604482015290519081900360640190fd5b604080516001600160a01b038416602482015260448082018490528251808303909101815260649091019091526020810180516001600160e01b031663a9059cbb60e01b179052610b90908490610cbc565b505050565b60006001600160a01b03821615801590610a265750506001546001600160a01b039081169116141590565b60008183610c4c5760405162461bcd60e51b81526004018080602001828103825283818151815260200191508051906020019080838360005b83811015610c11578181015183820152602001610bf9565b50505050905090810190601f168015610c3e5780820380516001836020036101000a031916815260200191505b509250505060405180910390fd5b506000838581610c5857fe5b0495945050505050565b60008184841115610cb45760405162461bcd60e51b8152602060048201818152835160248401528351909283926044909101919085019080838360008315610c11578181015183820152602001610bf9565b505050900390565b6060610d11826040518060400160405280602081526020017f5361666545524332303a206c6f772d6c6576656c2063616c6c206661696c6564815250856001600160a01b0316610d6d9092919063ffffffff16565b805190915015610b9057808060200190516020811015610d3057600080fd5b5051610b905760405162461bcd60e51b815260040180806020018281038252602a815260200180610f06602a913960400191505060405180910390fd5b606061095c84846000856060610d8285610928565b610dd3576040805162461bcd60e51b815260206004820152601d60248201527f416464726573733a2063616c6c20746f206e6f6e2d636f6e7472616374000000604482015290519081900360640190fd5b60006060866001600160a01b031685876040518082805190602001908083835b60208310610e125780518252601f199092019160209182019101610df3565b6001836020036101000a03801982511681845116808217855250505050505090500191505060006040518083038185875af1925050503d8060008114610e74576040519150601f19603f3d011682016040523d82523d6000602084013e610e79565b606091505b50915091508115610e8d57915061095c9050565b805115610e9d5780518082602001fd5b60405162461bcd60e51b8152602060048201818152865160248401528651879391928392604401919085019080838360008315610c11578181015183820152602001610bf956fe536166654d6174683a206d756c7469706c69636174696f6e206f766572666c6f775361666545524332303a204552433230206f7065726174696f6e20646964206e6f742073756363656564a26469706673582212208d6181eb7b4c0386ee45fc2d4330f19dd15c8fd3677e080cc563dadefdb2e64364736f6c63430007050033",
  "immutableReferences": {},
  "source": "pragma solidity 0.7.5;\n\nimport \"@openzeppelin/contracts/math/SafeMath.sol\";\nimport \"@openzeppelin/contracts/token/ERC20/IERC20.sol\";\nimport \"@openzeppelin/contracts/token/ERC20/SafeERC20.sol\";\nimport \"../MediatorOwnableModule.sol\";\n\n/**\n * @title OmnibridgeFeeManager\n * @dev Implements the logic to distribute fees from the Omnibridge mediator contract operations.\n * The fees are distributed in the form of ERC20/ERC677 tokens to the list of reward addresses.\n */\ncontract OmnibridgeFeeManager is MediatorOwnableModule {\n    using SafeMath for uint256;\n    using SafeERC20 for IERC20;\n\n    // This is not a real fee value but a relative value used to calculate the fee percentage.\n    // 1 ether = 100% of the value.\n    uint256 internal constant MAX_FEE = 1 ether;\n    uint256 internal constant MAX_REWARD_ACCOUNTS = 50;\n\n    bytes32 public constant HOME_TO_FOREIGN_FEE = 0x741ede137d0537e88e0ea0ff25b1f22d837903dbbee8980b4a06e8523247ee26; // keccak256(abi.encodePacked(\"homeToForeignFee\"))\n    bytes32 public constant FOREIGN_TO_HOME_FEE = 0x03be2b2875cb41e0e77355e802a16769bb8dfcf825061cde185c73bf94f12625; // keccak256(abi.encodePacked(\"foreignToHomeFee\"))\n\n    // mapping feeType => token address => fee percentage\n    mapping(bytes32 => mapping(address => uint256)) internal fees;\n    address[] internal rewardAddresses;\n\n    event FeeUpdated(bytes32 feeType, address indexed token, uint256 fee);\n\n    /**\n     * @dev Stores the initial parameters of the fee manager.\n     * @param _mediator address of the mediator contract used together with this fee manager.\n     * @param _owner address of the contract owner.\n     * @param _rewardAddresses list of unique initial reward addresses, between whom fees will be distributed\n     * @param _fees array with initial fees for both bridge directions.\n     *   [ 0 = homeToForeignFee, 1 = foreignToHomeFee ]\n     */\n    constructor(\n        address _mediator,\n        address _owner,\n        address[] memory _rewardAddresses,\n        uint256[2] memory _fees\n    ) MediatorOwnableModule(_mediator, _owner) {\n        require(_rewardAddresses.length <= MAX_REWARD_ACCOUNTS);\n        _setFee(HOME_TO_FOREIGN_FEE, address(0), _fees[0]);\n        _setFee(FOREIGN_TO_HOME_FEE, address(0), _fees[1]);\n\n        for (uint256 i = 0; i < _rewardAddresses.length; i++) {\n            require(_isValidAddress(_rewardAddresses[i]));\n            for (uint256 j = 0; j < i; j++) {\n                require(_rewardAddresses[j] != _rewardAddresses[i]);\n            }\n        }\n        rewardAddresses = _rewardAddresses;\n    }\n\n    /**\n     * @dev Tells the module interface version that this contract supports.\n     * @return major value of the version\n     * @return minor value of the version\n     * @return patch value of the version\n     */\n    function getModuleInterfacesVersion()\n        external\n        pure\n        returns (\n            uint64 major,\n            uint64 minor,\n            uint64 patch\n        )\n    {\n        return (1, 0, 0);\n    }\n\n    /**\n     * @dev Throws if given fee amount is invalid.\n     */\n    modifier validFee(uint256 _fee) {\n        require(_fee < MAX_FEE);\n        /* solcov ignore next */\n        _;\n    }\n\n    /**\n     * @dev Throws if given fee type is unknown.\n     */\n    modifier validFeeType(bytes32 _feeType) {\n        require(_feeType == HOME_TO_FOREIGN_FEE || _feeType == FOREIGN_TO_HOME_FEE);\n        /* solcov ignore next */\n        _;\n    }\n\n    /**\n     * @dev Updates the value for the particular fee type.\n     * Only the owner can call this method.\n     * @param _feeType type of the updated fee, can be one of [HOME_TO_FOREIGN_FEE, FOREIGN_TO_HOME_FEE].\n     * @param _token address of the token contract for which fee should apply, 0x00..00 describes the initial fee for newly created tokens.\n     * @param _fee new fee value, in percentage (1 ether == 10**18 == 100%).\n     */\n    function setFee(\n        bytes32 _feeType,\n        address _token,\n        uint256 _fee\n    ) external validFeeType(_feeType) onlyOwner {\n        _setFee(_feeType, _token, _fee);\n    }\n\n    /**\n     * @dev Retrieves the value for the particular fee type.\n     * @param _feeType type of the updated fee, can be one of [HOME_TO_FOREIGN_FEE, FOREIGN_TO_HOME_FEE].\n     * @param _token address of the token contract for which fee should apply, 0x00..00 describes the initial fee for newly created tokens.\n     * @return fee value associated with the requested fee type.\n     */\n    function getFee(bytes32 _feeType, address _token) public view validFeeType(_feeType) returns (uint256) {\n        // use token-specific fee if one is registered\n        uint256 _tokenFee = fees[_feeType][_token];\n        if (_tokenFee > 0) {\n            return _tokenFee - 1;\n        }\n        // use default fee otherwise\n        return fees[_feeType][address(0)] - 1;\n    }\n\n    /**\n     * @dev Calculates the amount of fee to pay for the value of the particular fee type.\n     * @param _feeType type of the updated fee, can be one of [HOME_TO_FOREIGN_FEE, FOREIGN_TO_HOME_FEE].\n     * @param _token address of the token contract for which fee should apply, 0x00..00 describes the initial fee for newly created tokens.\n     * @param _value bridged value, for which fee should be evaluated.\n     * @return amount of fee to be subtracted from the transferred value.\n     */\n    function calculateFee(\n        bytes32 _feeType,\n        address _token,\n        uint256 _value\n    ) public view returns (uint256) {\n        if (rewardAddresses.length == 0) {\n            return 0;\n        }\n        uint256 _fee = getFee(_feeType, _token);\n        return _value.mul(_fee).div(MAX_FEE);\n    }\n\n    /**\n     * @dev Adds a new address to the list of accounts to receive rewards for the operations.\n     * Only the owner can call this method.\n     * @param _addr new reward address.\n     */\n    function addRewardAddress(address _addr) external onlyOwner {\n        require(_isValidAddress(_addr));\n        require(!isRewardAddress(_addr));\n        require(rewardAddresses.length < MAX_REWARD_ACCOUNTS);\n        rewardAddresses.push(_addr);\n    }\n\n    /**\n     * @dev Removes an address from the list of accounts to receive rewards for the operations.\n     * Only the owner can call this method.\n     * finds the element, swaps it with the last element, and then deletes it;\n     * @param _addr to be removed.\n     * return boolean whether the element was found and deleted\n     */\n    function removeRewardAddress(address _addr) external onlyOwner {\n        uint256 numOfAccounts = rewardAddresses.length;\n        for (uint256 i = 0; i < numOfAccounts; i++) {\n            if (rewardAddresses[i] == _addr) {\n                rewardAddresses[i] = rewardAddresses[numOfAccounts - 1];\n                delete rewardAddresses[numOfAccounts - 1];\n                rewardAddresses.pop();\n                return;\n            }\n        }\n        // If account is not found and removed, the transactions is reverted\n        revert();\n    }\n\n    /**\n     * @dev Tells the number of registered reward receivers.\n     * @return amount of addresses.\n     */\n    function rewardAddressCount() external view returns (uint256) {\n        return rewardAddresses.length;\n    }\n\n    /**\n     * @dev Tells the list of registered reward receivers.\n     * @return list with all registered reward receivers.\n     */\n    function rewardAddressList() external view returns (address[] memory) {\n        return rewardAddresses;\n    }\n\n    /**\n     * @dev Tells if a given address is part of the reward address list.\n     * @param _addr address to check if it is part of the list.\n     * @return true if the given address is in the list\n     */\n    function isRewardAddress(address _addr) public view returns (bool) {\n        for (uint256 i = 0; i < rewardAddresses.length; i++) {\n            if (rewardAddresses[i] == _addr) {\n                return true;\n            }\n        }\n        return false;\n    }\n\n    /**\n     * @dev Distributes the fee proportionally between registered reward addresses.\n     * @param _token address of the token contract for which fee should be distributed.\n     */\n    function distributeFee(address _token) external onlyMediator {\n        uint256 numOfAccounts = rewardAddresses.length;\n        uint256 fee = IERC20(_token).balanceOf(address(this));\n        uint256 feePerAccount = fee.div(numOfAccounts);\n        uint256 randomAccountIndex;\n        uint256 diff = fee.sub(feePerAccount.mul(numOfAccounts));\n        if (diff > 0) {\n            randomAccountIndex = random(numOfAccounts);\n        }\n\n        for (uint256 i = 0; i < numOfAccounts; i++) {\n            uint256 feeToDistribute = feePerAccount;\n            if (diff > 0 && randomAccountIndex == i) {\n                feeToDistribute = feeToDistribute.add(diff);\n            }\n            IERC20(_token).safeTransfer(rewardAddresses[i], feeToDistribute);\n        }\n    }\n\n    /**\n     * @dev Calculates a random number based on the block number.\n     * @param _count the max value for the random number.\n     * @return a number between 0 and _count.\n     */\n    function random(uint256 _count) internal view returns (uint256) {\n        return uint256(blockhash(block.number.sub(1))) % _count;\n    }\n\n    /**\n     * @dev Internal function for updating the fee value for the given fee type.\n     * @param _feeType type of the updated fee, can be one of [HOME_TO_FOREIGN_FEE, FOREIGN_TO_HOME_FEE].\n     * @param _token address of the token contract for which fee should apply, 0x00..00 describes the initial fee for newly created tokens.\n     * @param _fee new fee value, in percentage (1 ether == 10**18 == 100%).\n     */\n    function _setFee(\n        bytes32 _feeType,\n        address _token,\n        uint256 _fee\n    ) internal validFee(_fee) {\n        fees[_feeType][_token] = 1 + _fee;\n        emit FeeUpdated(_feeType, _token, _fee);\n    }\n\n    /**\n     * @dev Checks if a given address can be a reward receiver.\n     * @param _addr address of the proposed reward receiver.\n     * @return true, if address is valid.\n     */\n    function _isValidAddress(address _addr) internal view returns (bool) {\n        return _addr != address(0) && _addr != address(mediator);\n    }\n}\n",
  "sourcePath": "/Users/eabz/Documents/GitHub/tokenbridge/packages/omnibridge/contracts/upgradeable_contracts/modules/fee_manager/OmnibridgeFeeManager.sol",
  "compiler": {
    "name": "solc",
    "version": "0.7.5+commit.eb77ed08.Emscripten.clang"
  },
  "schemaVersion": "3.4.3",
  "updatedAt": "2021-09-04T01:08:31.330Z",
  "devdoc": {
    "details": "Implements the logic to distribute fees from the Omnibridge mediator contract operations. The fees are distributed in the form of ERC20/ERC677 tokens to the list of reward addresses.",
    "kind": "dev",
    "methods": {
      "addRewardAddress(address)": {
        "details": "Adds a new address to the list of accounts to receive rewards for the operations. Only the owner can call this method.",
        "params": {
          "_addr": "new reward address."
        }
      },
      "calculateFee(bytes32,address,uint256)": {
        "details": "Calculates the amount of fee to pay for the value of the particular fee type.",
        "params": {
          "_feeType": "type of the updated fee, can be one of [HOME_TO_FOREIGN_FEE, FOREIGN_TO_HOME_FEE].",
          "_token": "address of the token contract for which fee should apply, 0x00..00 describes the initial fee for newly created tokens.",
          "_value": "bridged value, for which fee should be evaluated."
        },
        "returns": {
          "_0": "amount of fee to be subtracted from the transferred value."
        }
      },
      "constructor": {
        "details": "Stores the initial parameters of the fee manager.",
        "params": {
          "_fees": "array with initial fees for both bridge directions.   [ 0 = homeToForeignFee, 1 = foreignToHomeFee ]",
          "_mediator": "address of the mediator contract used together with this fee manager.",
          "_owner": "address of the contract owner.",
          "_rewardAddresses": "list of unique initial reward addresses, between whom fees will be distributed"
        }
      },
      "distributeFee(address)": {
        "details": "Distributes the fee proportionally between registered reward addresses.",
        "params": {
          "_token": "address of the token contract for which fee should be distributed."
        }
      },
      "getFee(bytes32,address)": {
        "details": "Retrieves the value for the particular fee type.",
        "params": {
          "_feeType": "type of the updated fee, can be one of [HOME_TO_FOREIGN_FEE, FOREIGN_TO_HOME_FEE].",
          "_token": "address of the token contract for which fee should apply, 0x00..00 describes the initial fee for newly created tokens."
        },
        "returns": {
          "_0": "fee value associated with the requested fee type."
        }
      },
      "getModuleInterfacesVersion()": {
        "details": "Tells the module interface version that this contract supports.",
        "returns": {
          "major": "value of the version",
          "minor": "value of the version",
          "patch": "value of the version"
        }
      },
      "isRewardAddress(address)": {
        "details": "Tells if a given address is part of the reward address list.",
        "params": {
          "_addr": "address to check if it is part of the list."
        },
        "returns": {
          "_0": "true if the given address is in the list"
        }
      },
      "removeRewardAddress(address)": {
        "details": "Removes an address from the list of accounts to receive rewards for the operations. Only the owner can call this method. finds the element, swaps it with the last element, and then deletes it;",
        "params": {
          "_addr": "to be removed. return boolean whether the element was found and deleted"
        }
      },
      "rewardAddressCount()": {
        "details": "Tells the number of registered reward receivers.",
        "returns": {
          "_0": "amount of addresses."
        }
      },
      "rewardAddressList()": {
        "details": "Tells the list of registered reward receivers.",
        "returns": {
          "_0": "list with all registered reward receivers."
        }
      },
      "setFee(bytes32,address,uint256)": {
        "details": "Updates the value for the particular fee type. Only the owner can call this method.",
        "params": {
          "_fee": "new fee value, in percentage (1 ether == 10**18 == 100%).",
          "_feeType": "type of the updated fee, can be one of [HOME_TO_FOREIGN_FEE, FOREIGN_TO_HOME_FEE].",
          "_token": "address of the token contract for which fee should apply, 0x00..00 describes the initial fee for newly created tokens."
        }
      },
      "transferOwnership(address)": {
        "details": "Changes the owner of this contract.",
        "params": {
          "_newOwner": "address of the new owner."
        }
      }
    },
    "title": "OmnibridgeFeeManager",
    "version": 1
  },
  "userdoc": {
    "kind": "user",
    "methods": {},
    "version": 1
  }
}