{
  "contractName": "OmnibridgeInfo",
  "abi": [
    {
      "anonymous": false,
      "inputs": [
        {
          "indexed": true,
          "internalType": "address",
          "name": "token",
          "type": "address"
        },
        {
          "indexed": true,
          "internalType": "address",
          "name": "recipient",
          "type": "address"
        },
        {
          "indexed": false,
          "internalType": "uint256",
          "name": "value",
          "type": "uint256"
        },
        {
          "indexed": true,
          "internalType": "bytes32",
          "name": "messageId",
          "type": "bytes32"
        }
      ],
      "name": "TokensBridged",
      "type": "event"
    },
    {
      "anonymous": false,
      "inputs": [
        {
          "indexed": true,
          "internalType": "address",
          "name": "token",
          "type": "address"
        },
        {
          "indexed": true,
          "internalType": "address",
          "name": "sender",
          "type": "address"
        },
        {
          "indexed": false,
          "internalType": "uint256",
          "name": "value",
          "type": "uint256"
        },
        {
          "indexed": true,
          "internalType": "bytes32",
          "name": "messageId",
          "type": "bytes32"
        }
      ],
      "name": "TokensBridgingInitiated",
      "type": "event"
    },
    {
      "inputs": [],
      "name": "getBridgeInterfacesVersion",
      "outputs": [
        {
          "internalType": "uint64",
          "name": "major",
          "type": "uint64"
        },
        {
          "internalType": "uint64",
          "name": "minor",
          "type": "uint64"
        },
        {
          "internalType": "uint64",
          "name": "patch",
          "type": "uint64"
        }
      ],
      "stateMutability": "pure",
      "type": "function"
    },
    {
      "inputs": [],
      "name": "getBridgeMode",
      "outputs": [
        {
          "internalType": "bytes4",
          "name": "_data",
          "type": "bytes4"
        }
      ],
      "stateMutability": "pure",
      "type": "function"
    }
  ],
  "bytecode": "0x608060405234801561001057600080fd5b5060d88061001f6000396000f3fe6080604052348015600f57600080fd5b506004361060325760003560e01c8063437764df1460375780639cb7595a14605a575b600080fd5b603d608c565b604080516001600160e01b03199092168252519081900360200190f35b60606097565b6040805167ffffffffffffffff9485168152928416602084015292168183015290519081900360600190f35b6358a8b61360e11b90565b60036002600090919256fea26469706673582212205b1065786383faaa8e60b42003e22c2660da7a155466a55c1f97110cc7a1391264736f6c63430007050033",
  "immutableReferences": {},
  "source": "pragma solidity 0.7.5;\n\nimport \"../../VersionableBridge.sol\";\n\n/**\n * @title OmnibridgeInfo\n * @dev Functionality for versioning Omnibridge mediator.\n */\ncontract OmnibridgeInfo is VersionableBridge {\n    event TokensBridgingInitiated(\n        address indexed token,\n        address indexed sender,\n        uint256 value,\n        bytes32 indexed messageId\n    );\n    event TokensBridged(address indexed token, address indexed recipient, uint256 value, bytes32 indexed messageId);\n\n    /**\n     * @dev Tells the bridge interface version that this contract supports.\n     * @return major value of the version\n     * @return minor value of the version\n     * @return patch value of the version\n     */\n    function getBridgeInterfacesVersion()\n        external\n        pure\n        override\n        returns (\n            uint64 major,\n            uint64 minor,\n            uint64 patch\n        )\n    {\n        return (3, 2, 0);\n    }\n\n    /**\n     * @dev Tells the bridge mode that this contract supports.\n     * @return _data 4 bytes representing the bridge mode\n     */\n    function getBridgeMode() external pure override returns (bytes4 _data) {\n        return 0xb1516c26; // bytes4(keccak256(abi.encodePacked(\"multi-erc-to-erc-amb\")))\n    }\n}\n",
  "sourcePath": "/Users/eabz/Documents/GitHub/tokenbridge/packages/omnibridge/contracts/upgradeable_contracts/components/common/OmnibridgeInfo.sol",
  "compiler": {
    "name": "solc",
    "version": "0.7.5+commit.eb77ed08.Emscripten.clang"
  },
  "schemaVersion": "3.4.3",
  "updatedAt": "2021-09-04T01:08:31.305Z",
  "devdoc": {
    "details": "Functionality for versioning Omnibridge mediator.",
    "kind": "dev",
    "methods": {
      "getBridgeInterfacesVersion()": {
        "details": "Tells the bridge interface version that this contract supports.",
        "returns": {
          "major": "value of the version",
          "minor": "value of the version",
          "patch": "value of the version"
        }
      },
      "getBridgeMode()": {
        "details": "Tells the bridge mode that this contract supports.",
        "returns": {
          "_data": "4 bytes representing the bridge mode"
        }
      }
    },
    "title": "OmnibridgeInfo",
    "version": 1
  },
  "userdoc": {
    "kind": "user",
    "methods": {},
    "version": 1
  }
}