{
  "contractName": "OwnedUpgradeabilityProxy",
  "abi": [
    {
      "inputs": [],
      "stateMutability": "nonpayable",
      "type": "constructor"
    },
    {
      "anonymous": false,
      "inputs": [
        {
          "indexed": false,
          "internalType": "address",
          "name": "previousOwner",
          "type": "address"
        },
        {
          "indexed": false,
          "internalType": "address",
          "name": "newOwner",
          "type": "address"
        }
      ],
      "name": "ProxyOwnershipTransferred",
      "type": "event"
    },
    {
      "anonymous": false,
      "inputs": [
        {
          "indexed": false,
          "internalType": "uint256",
          "name": "version",
          "type": "uint256"
        },
        {
          "indexed": true,
          "internalType": "address",
          "name": "implementation",
          "type": "address"
        }
      ],
      "name": "Upgraded",
      "type": "event"
    },
    {
      "stateMutability": "payable",
      "type": "fallback"
    },
    {
      "inputs": [],
      "name": "implementation",
      "outputs": [
        {
          "internalType": "address",
          "name": "",
          "type": "address"
        }
      ],
      "stateMutability": "view",
      "type": "function"
    },
    {
      "inputs": [],
      "name": "upgradeabilityOwner",
      "outputs": [
        {
          "internalType": "address",
          "name": "",
          "type": "address"
        }
      ],
      "stateMutability": "view",
      "type": "function"
    },
    {
      "inputs": [],
      "name": "version",
      "outputs": [
        {
          "internalType": "uint256",
          "name": "",
          "type": "uint256"
        }
      ],
      "stateMutability": "view",
      "type": "function"
    },
    {
      "inputs": [
        {
          "internalType": "address",
          "name": "newOwner",
          "type": "address"
        }
      ],
      "name": "transferProxyOwnership",
      "outputs": [],
      "stateMutability": "nonpayable",
      "type": "function"
    },
    {
      "inputs": [
        {
          "internalType": "uint256",
          "name": "version",
          "type": "uint256"
        },
        {
          "internalType": "address",
          "name": "implementation",
          "type": "address"
        }
      ],
      "name": "upgradeTo",
      "outputs": [],
      "stateMutability": "nonpayable",
      "type": "function"
    },
    {
      "inputs": [
        {
          "internalType": "uint256",
          "name": "version",
          "type": "uint256"
        },
        {
          "internalType": "address",
          "name": "implementation",
          "type": "address"
        },
        {
          "internalType": "bytes",
          "name": "data",
          "type": "bytes"
        }
      ],
      "name": "upgradeToAndCall",
      "outputs": [],
      "stateMutability": "payable",
      "type": "function"
    }
  ],
  "bytecode": "0x608060405234801561001057600080fd5b5061001a3361001f565b610041565b600080546001600160a01b0319166001600160a01b0392909216919091179055565b6104c6806100506000396000f3fe6080604052600436106100555760003560e01c80633ad06d161461009e57806354fd4d50146100d95780635c60da1b146101005780636fde820214610131578063a9c45fcb14610146578063f1739cae146101cb575b600061005f6101fe565b90506001600160a01b03811661007457600080fd5b60405136600082376000803683855af43d82016040523d6000833e80801561009a573d83f35b3d83fd5b3480156100aa57600080fd5b506100d7600480360360408110156100c157600080fd5b50803590602001356001600160a01b031661020d565b005b3480156100e557600080fd5b506100ee610240565b60408051918252519081900360200190f35b34801561010c57600080fd5b506101156101fe565b604080516001600160a01b039092168252519081900360200190f35b34801561013d57600080fd5b50610115610246565b6100d76004803603606081101561015c57600080fd5b8135916001600160a01b036020820135169181019060608101604082013564010000000081111561018c57600080fd5b82018360208201111561019e57600080fd5b803590602001918460018302840111640100000000831117156101c057600080fd5b509092509050610255565b3480156101d757600080fd5b506100d7600480360360208110156101ee57600080fd5b50356001600160a01b03166102fe565b600061020861038d565b905090565b610215610246565b6001600160a01b0316336001600160a01b03161461023257600080fd5b61023c828261039c565b5050565b60015490565b6000546001600160a01b031690565b61025d610246565b6001600160a01b0316336001600160a01b03161461027a57600080fd5b610284848461020d565b6000306001600160a01b0316348484604051808383808284376040519201945060009350909150508083038185875af1925050503d80600081146102e4576040519150601f19603f3d011682016040523d82523d6000602084013e6102e9565b606091505b50509050806102f757600080fd5b5050505050565b610306610246565b6001600160a01b0316336001600160a01b03161461032357600080fd5b6001600160a01b03811661033657600080fd5b7f5a3e66efaa1e445ebd894728a69d6959842ea1e97bd79b892797106e270efcd961035f610246565b604080516001600160a01b03928316815291841660208301528051918290030190a161038a81610432565b50565b6002546001600160a01b031690565b6002546001600160a01b03828116911614156103b757600080fd5b6103c081610454565b6103c957600080fd5b60015482116103d757600080fd5b6001829055600280546001600160a01b0383166001600160a01b031990911681179091556040805184815290517f4289d6195cf3c2d2174adf98d0e19d4d2d08887995b99cb7b100e7ffe795820e9181900360200190a25050565b600080546001600160a01b0319166001600160a01b0392909216919091179055565b6000813f7fc5d2460186f7233c927e7db2dcc703c0e500b653ca82273b7bfad8045d85a47081811480159061048857508115155b94935050505056fea2646970667358221220485c2f088a986c3e9af6d589a66b3ddefcdbc3ff02c69d9fecbd8667238a616564736f6c63430007050033",
  "immutableReferences": {},
  "source": "pragma solidity 0.7.5;\n\nimport \"./UpgradeabilityProxy.sol\";\nimport \"./UpgradeabilityOwnerStorage.sol\";\n\n/**\n * @title OwnedUpgradeabilityProxy\n * @dev This contract combines an upgradeability proxy with basic authorization control functionalities\n */\ncontract OwnedUpgradeabilityProxy is UpgradeabilityOwnerStorage, UpgradeabilityProxy {\n    /**\n     * @dev Event to show ownership has been transferred\n     * @param previousOwner representing the address of the previous owner\n     * @param newOwner representing the address of the new owner\n     */\n    event ProxyOwnershipTransferred(address previousOwner, address newOwner);\n\n    /**\n     * @dev the constructor sets the original owner of the contract to the sender account.\n     */\n    constructor() {\n        setUpgradeabilityOwner(msg.sender);\n    }\n\n    /**\n     * @dev Throws if called by any account other than the owner.\n     */\n    modifier onlyUpgradeabilityOwner() {\n        require(msg.sender == upgradeabilityOwner());\n        _;\n    }\n\n    /**\n     * @dev Allows the current owner to transfer control of the contract to a newOwner.\n     * @param newOwner The address to transfer ownership to.\n     */\n    function transferProxyOwnership(address newOwner) external onlyUpgradeabilityOwner {\n        require(newOwner != address(0));\n        emit ProxyOwnershipTransferred(upgradeabilityOwner(), newOwner);\n        setUpgradeabilityOwner(newOwner);\n    }\n\n    /**\n     * @dev Allows the upgradeability owner to upgrade the current version of the proxy.\n     * @param version representing the version name of the new implementation to be set.\n     * @param implementation representing the address of the new implementation to be set.\n     */\n    function upgradeTo(uint256 version, address implementation) public onlyUpgradeabilityOwner {\n        _upgradeTo(version, implementation);\n    }\n\n    /**\n     * @dev Allows the upgradeability owner to upgrade the current version of the proxy and call the new implementation\n     * to initialize whatever is needed through a low level call.\n     * @param version representing the version name of the new implementation to be set.\n     * @param implementation representing the address of the new implementation to be set.\n     * @param data represents the msg.data to be sent in the low level call. This parameter may include the function\n     * signature of the implementation to be called with the needed payload\n     */\n    function upgradeToAndCall(\n        uint256 version,\n        address implementation,\n        bytes calldata data\n    ) external payable onlyUpgradeabilityOwner {\n        upgradeTo(version, implementation);\n        // solhint-disable-next-line avoid-call-value\n        (bool status, ) = address(this).call{ value: msg.value }(data);\n        require(status);\n    }\n}\n",
  "sourcePath": "/Users/eabz/Documents/GitHub/tokenbridge/packages/omnibridge/contracts/upgradeability/OwnedUpgradeabilityProxy.sol",
  "compiler": {
    "name": "solc",
    "version": "0.7.5+commit.eb77ed08.Emscripten.clang"
  },
  "schemaVersion": "3.4.3",
  "updatedAt": "2021-09-04T01:08:31.252Z",
  "devdoc": {
    "details": "This contract combines an upgradeability proxy with basic authorization control functionalities",
    "events": {
      "ProxyOwnershipTransferred(address,address)": {
        "details": "Event to show ownership has been transferred",
        "params": {
          "newOwner": "representing the address of the new owner",
          "previousOwner": "representing the address of the previous owner"
        }
      }
    },
    "kind": "dev",
    "methods": {
      "constructor": {
        "details": "the constructor sets the original owner of the contract to the sender account."
      },
      "implementation()": {
        "details": "Tells the address of the current implementation",
        "returns": {
          "_0": "address of the current implementation"
        }
      },
      "transferProxyOwnership(address)": {
        "details": "Allows the current owner to transfer control of the contract to a newOwner.",
        "params": {
          "newOwner": "The address to transfer ownership to."
        }
      },
      "upgradeTo(uint256,address)": {
        "details": "Allows the upgradeability owner to upgrade the current version of the proxy.",
        "params": {
          "implementation": "representing the address of the new implementation to be set.",
          "version": "representing the version name of the new implementation to be set."
        }
      },
      "upgradeToAndCall(uint256,address,bytes)": {
        "details": "Allows the upgradeability owner to upgrade the current version of the proxy and call the new implementation to initialize whatever is needed through a low level call.",
        "params": {
          "data": "represents the msg.data to be sent in the low level call. This parameter may include the function signature of the implementation to be called with the needed payload",
          "implementation": "representing the address of the new implementation to be set.",
          "version": "representing the version name of the new implementation to be set."
        }
      },
      "upgradeabilityOwner()": {
        "details": "Tells the address of the owner",
        "returns": {
          "_0": "the address of the owner"
        }
      },
      "version()": {
        "details": "Tells the version name of the current implementation",
        "returns": {
          "_0": "uint256 representing the name of the current version"
        }
      }
    },
    "title": "OwnedUpgradeabilityProxy",
    "version": 1
  },
  "userdoc": {
    "kind": "user",
    "methods": {},
    "version": 1
  }
}