{
  "contractName": "SelectorTokenGasLimitManager",
  "abi": [
    {
      "inputs": [
        {
          "internalType": "contract IAMB",
          "name": "_bridge",
          "type": "address"
        },
        {
          "internalType": "address",
          "name": "_owner",
          "type": "address"
        },
        {
          "internalType": "uint256",
          "name": "_gasLimit",
          "type": "uint256"
        }
      ],
      "stateMutability": "nonpayable",
      "type": "constructor"
    },
    {
      "inputs": [],
      "name": "bridge",
      "outputs": [
        {
          "internalType": "contract IAMB",
          "name": "",
          "type": "address"
        }
      ],
      "stateMutability": "view",
      "type": "function"
    },
    {
      "inputs": [],
      "name": "owner",
      "outputs": [
        {
          "internalType": "address",
          "name": "",
          "type": "address"
        }
      ],
      "stateMutability": "view",
      "type": "function"
    },
    {
      "inputs": [
        {
          "internalType": "address",
          "name": "_newOwner",
          "type": "address"
        }
      ],
      "name": "transferOwnership",
      "outputs": [],
      "stateMutability": "nonpayable",
      "type": "function"
    },
    {
      "inputs": [],
      "name": "getModuleInterfacesVersion",
      "outputs": [
        {
          "internalType": "uint64",
          "name": "major",
          "type": "uint64"
        },
        {
          "internalType": "uint64",
          "name": "minor",
          "type": "uint64"
        },
        {
          "internalType": "uint64",
          "name": "patch",
          "type": "uint64"
        }
      ],
      "stateMutability": "pure",
      "type": "function"
    },
    {
      "inputs": [
        {
          "internalType": "bytes4",
          "name": "_selector",
          "type": "bytes4"
        },
        {
          "internalType": "uint256",
          "name": "_gasLimit",
          "type": "uint256"
        }
      ],
      "name": "setRequestGasLimit",
      "outputs": [],
      "stateMutability": "nonpayable",
      "type": "function"
    },
    {
      "inputs": [
        {
          "internalType": "bytes4",
          "name": "_selector",
          "type": "bytes4"
        },
        {
          "internalType": "address",
          "name": "_token",
          "type": "address"
        },
        {
          "internalType": "uint256",
          "name": "_gasLimit",
          "type": "uint256"
        }
      ],
      "name": "setRequestGasLimit",
      "outputs": [],
      "stateMutability": "nonpayable",
      "type": "function"
    },
    {
      "inputs": [
        {
          "internalType": "uint256",
          "name": "_gasLimit",
          "type": "uint256"
        }
      ],
      "name": "setRequestGasLimit",
      "outputs": [],
      "stateMutability": "nonpayable",
      "type": "function"
    },
    {
      "inputs": [
        {
          "internalType": "bytes4",
          "name": "_selector",
          "type": "bytes4"
        },
        {
          "internalType": "address",
          "name": "_token",
          "type": "address"
        }
      ],
      "name": "requestGasLimit",
      "outputs": [
        {
          "internalType": "uint256",
          "name": "",
          "type": "uint256"
        }
      ],
      "stateMutability": "view",
      "type": "function"
    },
    {
      "inputs": [],
      "name": "requestGasLimit",
      "outputs": [
        {
          "internalType": "uint256",
          "name": "",
          "type": "uint256"
        }
      ],
      "stateMutability": "view",
      "type": "function"
    },
    {
      "inputs": [
        {
          "internalType": "bytes4",
          "name": "_selector",
          "type": "bytes4"
        }
      ],
      "name": "requestGasLimit",
      "outputs": [
        {
          "internalType": "uint256",
          "name": "",
          "type": "uint256"
        }
      ],
      "stateMutability": "view",
      "type": "function"
    },
    {
      "inputs": [
        {
          "internalType": "bytes",
          "name": "_data",
          "type": "bytes"
        }
      ],
      "name": "requestGasLimit",
      "outputs": [
        {
          "internalType": "uint256",
          "name": "",
          "type": "uint256"
        }
      ],
      "stateMutability": "view",
      "type": "function"
    },
    {
      "inputs": [
        {
          "internalType": "uint256[]",
          "name": "_gasLimits",
          "type": "uint256[]"
        }
      ],
      "name": "setCommonRequestGasLimits",
      "outputs": [],
      "stateMutability": "nonpayable",
      "type": "function"
    },
    {
      "inputs": [
        {
          "internalType": "address",
          "name": "_token",
          "type": "address"
        },
        {
          "internalType": "uint256[]",
          "name": "_gasLimits",
          "type": "uint256[]"
        }
      ],
      "name": "setBridgedTokenRequestGasLimits",
      "outputs": [],
      "stateMutability": "nonpayable",
      "type": "function"
    },
    {
      "inputs": [
        {
          "internalType": "address",
          "name": "_token",
          "type": "address"
        },
        {
          "internalType": "uint256[]",
          "name": "_gasLimits",
          "type": "uint256[]"
        }
      ],
      "name": "setNativeTokenRequestGasLimits",
      "outputs": [],
      "stateMutability": "nonpayable",
      "type": "function"
    }
  ],
  "bytecode": "0x60a060405234801561001057600080fd5b506040516112143803806112148339818101604052606081101561003357600080fd5b508051602080830151604093840151600080546001600160a01b0319166001600160a01b0380851691909117909155855163e5789d0360e01b815295519495929491939086169263e5789d039260048083019392829003018186803b15801561009b57600080fd5b505afa1580156100af573d6000803e3d6000fd5b505050506040513d60208110156100c557600080fd5b50518111156100d357600080fd5b606083901b6001600160601b031916608052600155506001600160a01b03166110ed610127600039806104ad52806108915280610a945280610b6c5280610e435280610e7f5280610faf52506110ed6000f3fe608060405234801561001057600080fd5b50600436106100ea5760003560e01c8063e3e994171161008c578063f2fde38b11610066578063f2fde38b14610374578063f34220281461039a578063f3b83791146103c1578063fb472019146103de576100ea565b8063e3e99417146102b2578063e78cea9214610330578063ec84fd5e14610338576100ea565b80638da5cb5b116100c85780638da5cb5b1461021157806396a8254e14610235578063be3b625b1461027d578063d313107314610285576100ea565b806334bc2d09146100ef57806337dab8171461015f57806381e1351f146101dd575b600080fd5b61015d6004803603602081101561010557600080fd5b810190602081018135600160201b81111561011f57600080fd5b82018360208201111561013157600080fd5b803590602001918460208302840111600160201b8311171561015257600080fd5b509092509050610482565b005b61015d6004803603604081101561017557600080fd5b6001600160a01b038235169190810190604081016020820135600160201b81111561019f57600080fd5b8201836020820111156101b157600080fd5b803590602001918460208302840111600160201b831117156101d257600080fd5b509092509050610866565b6101e5610a28565b6040805167ffffffffffffffff9485168152928416602084015292168183015290519081900360600190f35b610219610a31565b604080516001600160a01b039092168252519081900360200190f35b61026b6004803603604081101561024b57600080fd5b5080356001600160e01b03191690602001356001600160a01b0316610a40565b60408051918252519081900360200190f35b61026b610a74565b61015d6004803603604081101561029b57600080fd5b506001600160e01b03198135169060200135610a7a565b61015d600480360360408110156102c857600080fd5b6001600160a01b038235169190810190604081016020820135600160201b8111156102f257600080fd5b82018360208201111561030457600080fd5b803590602001918460208302840111600160201b8311171561032557600080fd5b509092509050610b41565b610219610e41565b61015d6004803603606081101561034e57600080fd5b506001600160e01b0319813516906001600160a01b036020820135169060400135610e65565b61015d6004803603602081101561038a57600080fd5b50356001600160a01b0316610f40565b61026b600480360360208110156103b057600080fd5b50356001600160e01b031916610f79565b61015d600480360360208110156103d757600080fd5b5035610f95565b61026b600480360360208110156103f457600080fd5b810190602081018135600160201b81111561040e57600080fd5b82018360208201111561042057600080fd5b803590602001918460018302840111600160201b8311171561044157600080fd5b91908080601f016020809104026020016040519081016040528093929190818152602001838380828437600092019190915250929550611044945050505050565b6000546001600160a01b0316331461049957600080fd5b600782828083146104a957600080fd5b60007f00000000000000000000000000000000000000000000000000000000000000006001600160a01b031663e5789d036040518163ffffffff1660e01b815260040160206040518083038186803b15801561050457600080fd5b505afa158015610518573d6000803e3d6000fd5b505050506040513d602081101561052e57600080fd5b5051905060005b84811015610564578184848381811061054a57fe5b90506020020135111561055c57600080fd5b600101610535565b508585600081811061057257fe5b905060200201358686600181811061058657fe5b90506020020135101561059857600080fd5b858560028181106105a557fe5b90506020020135868660038181106105b957fe5b9050602002013510156105cb57600080fd5b858560048181106105d857fe5b90506020020135868660058181106105ec57fe5b9050602002013510156105fe57600080fd5b8585600281811061060b57fe5b905060200201358686600081811061061f57fe5b90506020020135101561063157600080fd5b8585600381811061063e57fe5b905060200201358686600181811061065257fe5b90506020020135101561066457600080fd5b8585600081811061067157fe5b632ae87cdd60e01b600052600260209081520291909101357f62a9500d3c776e557907e8c4e9d229aaa1558a8f5506186f14b6b6033c73dc915550858560018181106106b957fe5b63d522cfd760e01b6000526002602081815290910292909201357f0fe9c952e0abfeacd2a15c8b2e9c86d4ce396bb3b22aa6a92bb05dcb330a72fc55508690869081811061070357fe5b63125e4cfb60e01b600052600260209081520291909101357f9b596a45ce3292dcc0ae4d526137f44a04d3591c7e20f340f6cb69893f71938d55508585600381811061074b57fe5b63c534576160e01b600052600260209081520291909101357fdecaf0d4210f056c5b5d45994395b1bb92499eaabced50a3f14e30dcb91eb6dc55508585600481811061079357fe5b63272255bb60e01b600052600260209081520291909101357f68f7a009dfc6477288240a635717ee1756983e0e7b020ce91b8ea7ca26abfd1e5550858560058181106107db57fe5b63867f7a4d60e01b600052600260209081520291909101357ffb5f3b053b454d2891c72f995506a0635691ad8230af03a191d1a48e30b02e7d55508585600681811061082357fe5b630950d51560e01b600052600260209081520291909101357f2fbb309585be3644e71d446e7606807d2350a396c50abf9fd40aa383758edea55550505050505050565b6000546001600160a01b0316331461087d57600080fd5b6002828280831461088d57600080fd5b60007f00000000000000000000000000000000000000000000000000000000000000006001600160a01b031663e5789d036040518163ffffffff1660e01b815260040160206040518083038186803b1580156108e857600080fd5b505afa1580156108fc573d6000803e3d6000fd5b505050506040513d602081101561091257600080fd5b5051905060005b84811015610948578184848381811061092e57fe5b90506020020135111561094057600080fd5b600101610919565b508585600081811061095657fe5b905060200201358686600181811061096a57fe5b90506020020135101561097c57600080fd5b8585600081811061098957fe5b6001600160a01b038a1660009081527e9b08b2dd6ebca17ba38eec3968d43de116b034e4c6180c63321ca2a69a13ac602090815260409091209102929092013590915550858560018181106109da57fe5b6001600160a01b0390991660009081527fdc3367de4ae318686fa43fedfab309e4583980e6e10c84c9fe6b1d85489c1585602090815260409091209902919091013590975550505050505050565b60016000809192565b6000546001600160a01b031681565b6001600160e01b0319821660009081526003602090815260408083206001600160a01b038516845290915290205492915050565b60015490565b6000546001600160a01b03163314610a9157600080fd5b807f00000000000000000000000000000000000000000000000000000000000000006001600160a01b031663e5789d036040518163ffffffff1660e01b815260040160206040518083038186803b158015610aeb57600080fd5b505afa158015610aff573d6000803e3d6000fd5b505050506040513d6020811015610b1557600080fd5b5051811115610b2357600080fd5b506001600160e01b0319909116600090815260026020526040902055565b6000546001600160a01b03163314610b5857600080fd5b60048282808314610b6857600080fd5b60007f00000000000000000000000000000000000000000000000000000000000000006001600160a01b031663e5789d036040518163ffffffff1660e01b815260040160206040518083038186803b158015610bc357600080fd5b505afa158015610bd7573d6000803e3d6000fd5b505050506040513d6020811015610bed57600080fd5b5051905060005b84811015610c235781848483818110610c0957fe5b905060200201351115610c1b57600080fd5b600101610bf4565b5085856000818110610c3157fe5b9050602002013586866001818110610c4557fe5b905060200201351015610c5757600080fd5b85856002818110610c6457fe5b9050602002013586866003818110610c7857fe5b905060200201351015610c8a57600080fd5b85856002818110610c9757fe5b9050602002013586866000818110610cab57fe5b905060200201351015610cbd57600080fd5b85856003818110610cca57fe5b9050602002013586866001818110610cde57fe5b905060200201351015610cf057600080fd5b85856000818110610cfd57fe5b6001600160a01b038a1660009081527ff82d3bc3eb326524ec784f499048e99f7d728f97e7a2f692a8a1bb3c85cafd4560209081526040909120910292909201359091555085856001818110610d4f57fe5b6001600160a01b038a1660009081527f7b7fe953d4abfebb3e47c7c30a925fd8b1071924bc736814c55193623d57cedd60209081526040909120910292909201359091555085856002818110610da157fe5b6001600160a01b038a1660009081527f2175433c11e201b5af00c87b33933460257bfa1f2d0bd31e7b9110a2c40526c360209081526040909120910292909201359091555085856003818110610df357fe5b6001600160a01b0390991660009081527f42dbfff0ae36ef1d4a902ec7e6d03352c7913fbcf13711cb82731a9e7ca8ffd6602090815260409091209902919091013590975550505050505050565b7f000000000000000000000000000000000000000000000000000000000000000081565b6000546001600160a01b03163314610e7c57600080fd5b807f00000000000000000000000000000000000000000000000000000000000000006001600160a01b031663e5789d036040518163ffffffff1660e01b815260040160206040518083038186803b158015610ed657600080fd5b505afa158015610eea573d6000803e3d6000fd5b505050506040513d6020811015610f0057600080fd5b5051811115610f0e57600080fd5b506001600160e01b031990921660009081526003602090815260408083206001600160a01b0390941683529290522055565b6000546001600160a01b03163314610f5757600080fd5b600080546001600160a01b0319166001600160a01b0392909216919091179055565b6001600160e01b03191660009081526002602052604090205490565b6000546001600160a01b03163314610fac57600080fd5b807f00000000000000000000000000000000000000000000000000000000000000006001600160a01b031663e5789d036040518163ffffffff1660e01b815260040160206040518083038186803b15801561100657600080fd5b505afa15801561101a573d6000803e3d6000fd5b505050506040513d602081101561103057600080fd5b505181111561103e57600080fd5b50600155565b6004810151602482015160e09190911b6001600160e01b0319811660009081526003602090815260408083206001600160a01b0386168452909152812054909290806110af57506001600160e01b03198216600090815260026020526040902054806110af57506001545b94935050505056fea2646970667358221220cfcbdb23dfa6b2d80c7fbd765a635f41f3d3b1e87d3b584e70d16f6c1c12212e64736f6c63430007050033",
  "immutableReferences": {
    "9587": [
      {
        "length": 32,
        "start": 1197
      },
      {
        "length": 32,
        "start": 2193
      },
      {
        "length": 32,
        "start": 2708
      },
      {
        "length": 32,
        "start": 2924
      },
      {
        "length": 32,
        "start": 3651
      },
      {
        "length": 32,
        "start": 3711
      },
      {
        "length": 32,
        "start": 4015
      }
    ]
  },
  "source": "pragma solidity 0.7.5;\n\nimport \"../../../interfaces/IAMB.sol\";\nimport \"../OwnableModule.sol\";\nimport \"../../BasicOmnibridge.sol\";\n\n/**\n * @title SelectorTokenGasLimitManager\n * @dev Multi token mediator functionality for managing request gas limits.\n */\ncontract SelectorTokenGasLimitManager is OwnableModule {\n    IAMB public immutable bridge;\n\n    uint256 internal defaultGasLimit;\n    mapping(bytes4 => uint256) internal selectorGasLimit;\n    mapping(bytes4 => mapping(address => uint256)) internal selectorTokenGasLimit;\n\n    constructor(\n        IAMB _bridge,\n        address _owner,\n        uint256 _gasLimit\n    ) OwnableModule(_owner) {\n        require(_gasLimit <= _bridge.maxGasPerTx());\n        bridge = _bridge;\n        defaultGasLimit = _gasLimit;\n    }\n\n    /**\n     * @dev Tells the module interface version that this contract supports.\n     * @return major value of the version\n     * @return minor value of the version\n     * @return patch value of the version\n     */\n    function getModuleInterfacesVersion()\n        external\n        pure\n        returns (\n            uint64 major,\n            uint64 minor,\n            uint64 patch\n        )\n    {\n        return (1, 0, 0);\n    }\n\n    /**\n     * @dev Throws if provided gas limit is greater then the maximum allowed gas limit in the AMB contract.\n     * @param _gasLimit gas limit value to check.\n     */\n    modifier validGasLimit(uint256 _gasLimit) {\n        require(_gasLimit <= bridge.maxGasPerTx());\n        _;\n    }\n\n    /**\n     * @dev Throws if one of the provided gas limits is greater then the maximum allowed gas limit in the AMB contract.\n     * @param _length expected length of the _gasLimits array.\n     * @param _gasLimits array of gas limit values to check, should contain exactly _length elements.\n     */\n    modifier validGasLimits(uint256 _length, uint256[] calldata _gasLimits) {\n        require(_gasLimits.length == _length);\n        uint256 maxGasLimit = bridge.maxGasPerTx();\n        for (uint256 i = 0; i < _length; i++) {\n            require(_gasLimits[i] <= maxGasLimit);\n        }\n        _;\n    }\n\n    /**\n     * @dev Sets the default gas limit to be used in the message execution by the AMB bridge on the other network.\n     * This value can't exceed the parameter maxGasPerTx defined on the AMB bridge.\n     * Only the owner can call this method.\n     * @param _gasLimit the gas limit for the message execution.\n     */\n    function setRequestGasLimit(uint256 _gasLimit) external onlyOwner validGasLimit(_gasLimit) {\n        defaultGasLimit = _gasLimit;\n    }\n\n    /**\n     * @dev Sets the selector-specific gas limit to be used in the message execution by the AMB bridge on the other network.\n     * This value can't exceed the parameter maxGasPerTx defined on the AMB bridge.\n     * Only the owner can call this method.\n     * @param _selector method selector of the outgoing message payload.\n     * @param _gasLimit the gas limit for the message execution.\n     */\n    function setRequestGasLimit(bytes4 _selector, uint256 _gasLimit) external onlyOwner validGasLimit(_gasLimit) {\n        selectorGasLimit[_selector] = _gasLimit;\n    }\n\n    /**\n     * @dev Sets the token-specific gas limit to be used in the message execution by the AMB bridge on the other network.\n     * This value can't exceed the parameter maxGasPerTx defined on the AMB bridge.\n     * Only the owner can call this method.\n     * @param _selector method selector of the outgoing message payload.\n     * @param _token address of the native token that is used in the first argument of handleBridgedTokens/handleNativeTokens.\n     * @param _gasLimit the gas limit for the message execution.\n     */\n    function setRequestGasLimit(\n        bytes4 _selector,\n        address _token,\n        uint256 _gasLimit\n    ) external onlyOwner validGasLimit(_gasLimit) {\n        selectorTokenGasLimit[_selector][_token] = _gasLimit;\n    }\n\n    /**\n     * @dev Tells the default gas limit to be used in the message execution by the AMB bridge on the other network.\n     * @return the gas limit for the message execution.\n     */\n    function requestGasLimit() public view returns (uint256) {\n        return defaultGasLimit;\n    }\n\n    /**\n     * @dev Tells the selector-specific gas limit to be used in the message execution by the AMB bridge on the other network.\n     * @param _selector method selector for the passed message.\n     * @return the gas limit for the message execution.\n     */\n    function requestGasLimit(bytes4 _selector) public view returns (uint256) {\n        return selectorGasLimit[_selector];\n    }\n\n    /**\n     * @dev Tells the token-specific gas limit to be used in the message execution by the AMB bridge on the other network.\n     * @param _selector method selector for the passed message.\n     * @param _token address of the native token that is used in the first argument of handleBridgedTokens/handleNativeTokens.\n     * @return the gas limit for the message execution.\n     */\n    function requestGasLimit(bytes4 _selector, address _token) public view returns (uint256) {\n        return selectorTokenGasLimit[_selector][_token];\n    }\n\n    /**\n     * @dev Tells the gas limit to use for the message execution by the AMB bridge on the other network.\n     * @param _data calldata to be used on the other side of the bridge, when execution a message.\n     * @return the gas limit for the message execution.\n     */\n    function requestGasLimit(bytes memory _data) external view returns (uint256) {\n        bytes4 selector;\n        address token;\n        assembly {\n            // first 4 bytes of _data contain the selector of the function to be called on the other side of the bridge.\n            // mload(add(_data, 4)) loads selector to the 28-31 bytes of the word.\n            // shl(28 * 8, x) then used to correct the padding of the selector, putting it to 0-3 bytes of the word.\n            selector := shl(224, mload(add(_data, 4)))\n            // handleBridgedTokens/handleNativeTokens/... passes bridged token address as the first parameter.\n            // it is located in the 4-35 bytes of the calldata.\n            // 36 = bytes length padding (32) + selector length (4)\n            token := mload(add(_data, 36))\n        }\n        uint256 gasLimit = selectorTokenGasLimit[selector][token];\n        if (gasLimit == 0) {\n            gasLimit = selectorGasLimit[selector];\n            if (gasLimit == 0) {\n                gasLimit = defaultGasLimit;\n            }\n        }\n        return gasLimit;\n    }\n\n    /**\n     * @dev Sets the default values for different Omnibridge selectors.\n     * @param _gasLimits array with 7 gas limits for the following selectors of the outgoing messages:\n     * - deployAndHandleBridgedTokens, deployAndHandleBridgedTokensAndCall\n     * - handleBridgedTokens, handleBridgedTokensAndCall\n     * - handleNativeTokens, handleNativeTokensAndCall\n     * - fixFailedMessage\n     * Only the owner can call this method.\n     */\n    function setCommonRequestGasLimits(uint256[] calldata _gasLimits) external onlyOwner validGasLimits(7, _gasLimits) {\n        require(_gasLimits[1] >= _gasLimits[0]);\n        require(_gasLimits[3] >= _gasLimits[2]);\n        require(_gasLimits[5] >= _gasLimits[4]);\n        require(_gasLimits[0] >= _gasLimits[2]);\n        require(_gasLimits[1] >= _gasLimits[3]);\n        selectorGasLimit[BasicOmnibridge.deployAndHandleBridgedTokens.selector] = _gasLimits[0];\n        selectorGasLimit[BasicOmnibridge.deployAndHandleBridgedTokensAndCall.selector] = _gasLimits[1];\n        selectorGasLimit[BasicOmnibridge.handleBridgedTokens.selector] = _gasLimits[2];\n        selectorGasLimit[BasicOmnibridge.handleBridgedTokensAndCall.selector] = _gasLimits[3];\n        selectorGasLimit[BasicOmnibridge.handleNativeTokens.selector] = _gasLimits[4];\n        selectorGasLimit[BasicOmnibridge.handleNativeTokensAndCall.selector] = _gasLimits[5];\n        selectorGasLimit[FailedMessagesProcessor.fixFailedMessage.selector] = _gasLimits[6];\n    }\n\n    /**\n     * @dev Sets the request gas limits for some specific token bridged from Foreign side of the bridge.\n     * @param _token address of the native token contract on the Foreign side.\n     * @param _gasLimits array with 2 gas limits for the following selectors of the outgoing messages:\n     * - handleNativeTokens, handleNativeTokensAndCall\n     * Only the owner can call this method.\n     */\n    function setBridgedTokenRequestGasLimits(address _token, uint256[] calldata _gasLimits)\n        external\n        onlyOwner\n        validGasLimits(2, _gasLimits)\n    {\n        require(_gasLimits[1] >= _gasLimits[0]);\n        selectorTokenGasLimit[BasicOmnibridge.handleNativeTokens.selector][_token] = _gasLimits[0];\n        selectorTokenGasLimit[BasicOmnibridge.handleNativeTokensAndCall.selector][_token] = _gasLimits[1];\n    }\n\n    /**\n     * @dev Sets the request gas limits for some specific token native to the Home side of the bridge.\n     * @param _token address of the native token contract on the Home side.\n     * @param _gasLimits array with 4 gas limits for the following selectors of the outgoing messages:\n     * - deployAndHandleBridgedTokens, deployAndHandleBridgedTokensAndCall\n     * - handleBridgedTokens, handleBridgedTokensAndCall\n     * Only the owner can call this method.\n     */\n    function setNativeTokenRequestGasLimits(address _token, uint256[] calldata _gasLimits)\n        external\n        onlyOwner\n        validGasLimits(4, _gasLimits)\n    {\n        require(_gasLimits[1] >= _gasLimits[0]);\n        require(_gasLimits[3] >= _gasLimits[2]);\n        require(_gasLimits[0] >= _gasLimits[2]);\n        require(_gasLimits[1] >= _gasLimits[3]);\n        selectorTokenGasLimit[BasicOmnibridge.deployAndHandleBridgedTokens.selector][_token] = _gasLimits[0];\n        selectorTokenGasLimit[BasicOmnibridge.deployAndHandleBridgedTokensAndCall.selector][_token] = _gasLimits[1];\n        selectorTokenGasLimit[BasicOmnibridge.handleBridgedTokens.selector][_token] = _gasLimits[2];\n        selectorTokenGasLimit[BasicOmnibridge.handleBridgedTokensAndCall.selector][_token] = _gasLimits[3];\n    }\n}\n",
  "sourcePath": "/Users/eabz/Documents/GitHub/tokenbridge/packages/omnibridge/contracts/upgradeable_contracts/modules/gas_limit/SelectorTokenGasLimitManager.sol",
  "compiler": {
    "name": "solc",
    "version": "0.7.5+commit.eb77ed08.Emscripten.clang"
  },
  "schemaVersion": "3.4.3",
  "updatedAt": "2021-09-04T01:08:31.347Z",
  "devdoc": {
    "details": "Multi token mediator functionality for managing request gas limits.",
    "kind": "dev",
    "methods": {
      "getModuleInterfacesVersion()": {
        "details": "Tells the module interface version that this contract supports.",
        "returns": {
          "major": "value of the version",
          "minor": "value of the version",
          "patch": "value of the version"
        }
      },
      "requestGasLimit()": {
        "details": "Tells the default gas limit to be used in the message execution by the AMB bridge on the other network.",
        "returns": {
          "_0": "the gas limit for the message execution."
        }
      },
      "requestGasLimit(bytes)": {
        "details": "Tells the gas limit to use for the message execution by the AMB bridge on the other network.",
        "params": {
          "_data": "calldata to be used on the other side of the bridge, when execution a message."
        },
        "returns": {
          "_0": "the gas limit for the message execution."
        }
      },
      "requestGasLimit(bytes4)": {
        "details": "Tells the selector-specific gas limit to be used in the message execution by the AMB bridge on the other network.",
        "params": {
          "_selector": "method selector for the passed message."
        },
        "returns": {
          "_0": "the gas limit for the message execution."
        }
      },
      "requestGasLimit(bytes4,address)": {
        "details": "Tells the token-specific gas limit to be used in the message execution by the AMB bridge on the other network.",
        "params": {
          "_selector": "method selector for the passed message.",
          "_token": "address of the native token that is used in the first argument of handleBridgedTokens/handleNativeTokens."
        },
        "returns": {
          "_0": "the gas limit for the message execution."
        }
      },
      "setBridgedTokenRequestGasLimits(address,uint256[])": {
        "details": "Sets the request gas limits for some specific token bridged from Foreign side of the bridge.",
        "params": {
          "_gasLimits": "array with 2 gas limits for the following selectors of the outgoing messages: - handleNativeTokens, handleNativeTokensAndCall Only the owner can call this method.",
          "_token": "address of the native token contract on the Foreign side."
        }
      },
      "setCommonRequestGasLimits(uint256[])": {
        "details": "Sets the default values for different Omnibridge selectors.",
        "params": {
          "_gasLimits": "array with 7 gas limits for the following selectors of the outgoing messages: - deployAndHandleBridgedTokens, deployAndHandleBridgedTokensAndCall - handleBridgedTokens, handleBridgedTokensAndCall - handleNativeTokens, handleNativeTokensAndCall - fixFailedMessage Only the owner can call this method."
        }
      },
      "setNativeTokenRequestGasLimits(address,uint256[])": {
        "details": "Sets the request gas limits for some specific token native to the Home side of the bridge.",
        "params": {
          "_gasLimits": "array with 4 gas limits for the following selectors of the outgoing messages: - deployAndHandleBridgedTokens, deployAndHandleBridgedTokensAndCall - handleBridgedTokens, handleBridgedTokensAndCall Only the owner can call this method.",
          "_token": "address of the native token contract on the Home side."
        }
      },
      "setRequestGasLimit(bytes4,address,uint256)": {
        "details": "Sets the token-specific gas limit to be used in the message execution by the AMB bridge on the other network. This value can't exceed the parameter maxGasPerTx defined on the AMB bridge. Only the owner can call this method.",
        "params": {
          "_gasLimit": "the gas limit for the message execution.",
          "_selector": "method selector of the outgoing message payload.",
          "_token": "address of the native token that is used in the first argument of handleBridgedTokens/handleNativeTokens."
        }
      },
      "setRequestGasLimit(bytes4,uint256)": {
        "details": "Sets the selector-specific gas limit to be used in the message execution by the AMB bridge on the other network. This value can't exceed the parameter maxGasPerTx defined on the AMB bridge. Only the owner can call this method.",
        "params": {
          "_gasLimit": "the gas limit for the message execution.",
          "_selector": "method selector of the outgoing message payload."
        }
      },
      "setRequestGasLimit(uint256)": {
        "details": "Sets the default gas limit to be used in the message execution by the AMB bridge on the other network. This value can't exceed the parameter maxGasPerTx defined on the AMB bridge. Only the owner can call this method.",
        "params": {
          "_gasLimit": "the gas limit for the message execution."
        }
      },
      "transferOwnership(address)": {
        "details": "Changes the owner of this contract.",
        "params": {
          "_newOwner": "address of the new owner."
        }
      }
    },
    "title": "SelectorTokenGasLimitManager",
    "version": 1
  },
  "userdoc": {
    "kind": "user",
    "methods": {},
    "version": 1
  }
}