{
  "contractName": "TokenReceiver",
  "abi": [
    {
      "inputs": [],
      "name": "data",
      "outputs": [
        {
          "internalType": "bytes",
          "name": "",
          "type": "bytes"
        }
      ],
      "stateMutability": "view",
      "type": "function"
    },
    {
      "inputs": [],
      "name": "from",
      "outputs": [
        {
          "internalType": "address",
          "name": "",
          "type": "address"
        }
      ],
      "stateMutability": "view",
      "type": "function"
    },
    {
      "inputs": [],
      "name": "token",
      "outputs": [
        {
          "internalType": "address",
          "name": "",
          "type": "address"
        }
      ],
      "stateMutability": "view",
      "type": "function"
    },
    {
      "inputs": [],
      "name": "value",
      "outputs": [
        {
          "internalType": "uint256",
          "name": "",
          "type": "uint256"
        }
      ],
      "stateMutability": "view",
      "type": "function"
    },
    {
      "inputs": [
        {
          "internalType": "address",
          "name": "_token",
          "type": "address"
        },
        {
          "internalType": "uint256",
          "name": "_value",
          "type": "uint256"
        },
        {
          "internalType": "bytes",
          "name": "_data",
          "type": "bytes"
        }
      ],
      "name": "onTokenBridged",
      "outputs": [],
      "stateMutability": "nonpayable",
      "type": "function"
    }
  ],
  "bytecode": "0x608060405234801561001057600080fd5b506103ac806100206000396000f3fe608060405234801561001057600080fd5b50600436106100575760003560e01c80633fa4f2451461005c57806373d4a13a14610076578063d5ce3389146100f3578063db7af85414610117578063fc0c546a146101d4575b600080fd5b6100646101dc565b60408051918252519081900360200190f35b61007e6101e2565b6040805160208082528351818301528351919283929083019185019080838360005b838110156100b85781810151838201526020016100a0565b50505050905090810190601f1680156100e55780820380516001836020036101000a031916815260200191505b509250505060405180910390f35b6100fb610270565b604080516001600160a01b039092168252519081900360200190f35b6101d26004803603606081101561012d57600080fd5b6001600160a01b038235169160208101359181019060608101604082013564010000000081111561015d57600080fd5b82018360208201111561016f57600080fd5b8035906020019184600183028401116401000000008311171561019157600080fd5b91908080601f01602080910402602001604051908101604052809392919081815260200183838082843760009201919091525092955061027f945050505050565b005b6100fb6102c6565b60025481565b6003805460408051602060026001851615610100026000190190941693909304601f810184900484028201840190925281815292918301828280156102685780601f1061023d57610100808354040283529160200191610268565b820191906000526020600020905b81548152906001019060200180831161024b57829003601f168201915b505050505081565b6001546001600160a01b031681565b600080546001600160a01b0385166001600160a01b0319918216179091556001805490911633179055600282905580516102c09060039060208401906102d5565b50505050565b6000546001600160a01b031681565b828054600181600116156101000203166002900490600052602060002090601f01602090048101928261030b5760008555610351565b82601f1061032457805160ff1916838001178555610351565b82800160010185558215610351579182015b82811115610351578251825591602001919060010190610336565b5061035d929150610361565b5090565b5b8082111561035d576000815560010161036256fea264697066735822122021d68148468d8258351a21f32f7e537879ddaaa7b6aebb846c5cd88fb5db970064736f6c63430007050033",
  "immutableReferences": {},
  "source": "pragma solidity 0.7.5;\n\nimport \"../interfaces/IERC20Receiver.sol\";\n\ncontract TokenReceiver is IERC20Receiver {\n    address public token;\n    address public from;\n    uint256 public value;\n    bytes public data;\n\n    function onTokenBridged(\n        address _token,\n        uint256 _value,\n        bytes memory _data\n    ) external override {\n        token = _token;\n        from = msg.sender;\n        value = _value;\n        data = _data;\n    }\n}\n",
  "sourcePath": "/Users/eabz/Documents/GitHub/tokenbridge/packages/omnibridge/contracts/mocks/TokenReceiver.sol",
  "compiler": {
    "name": "solc",
    "version": "0.7.5+commit.eb77ed08.Emscripten.clang"
  },
  "schemaVersion": "3.4.3",
  "updatedAt": "2021-09-04T01:08:31.246Z",
  "devdoc": {
    "kind": "dev",
    "methods": {},
    "version": 1
  },
  "userdoc": {
    "kind": "user",
    "methods": {},
    "version": 1
  }
}