{
  "contractName": "TokenFactory",
  "abi": [
    {
      "inputs": [
        {
          "internalType": "address",
          "name": "_owner",
          "type": "address"
        },
        {
          "internalType": "address",
          "name": "_tokenImage",
          "type": "address"
        }
      ],
      "stateMutability": "nonpayable",
      "type": "constructor"
    },
    {
      "inputs": [],
      "name": "owner",
      "outputs": [
        {
          "internalType": "address",
          "name": "",
          "type": "address"
        }
      ],
      "stateMutability": "view",
      "type": "function"
    },
    {
      "inputs": [],
      "name": "tokenImage",
      "outputs": [
        {
          "internalType": "address",
          "name": "",
          "type": "address"
        }
      ],
      "stateMutability": "view",
      "type": "function"
    },
    {
      "inputs": [
        {
          "internalType": "address",
          "name": "_newOwner",
          "type": "address"
        }
      ],
      "name": "transferOwnership",
      "outputs": [],
      "stateMutability": "nonpayable",
      "type": "function"
    },
    {
      "inputs": [],
      "name": "getModuleInterfacesVersion",
      "outputs": [
        {
          "internalType": "uint64",
          "name": "major",
          "type": "uint64"
        },
        {
          "internalType": "uint64",
          "name": "minor",
          "type": "uint64"
        },
        {
          "internalType": "uint64",
          "name": "patch",
          "type": "uint64"
        }
      ],
      "stateMutability": "pure",
      "type": "function"
    },
    {
      "inputs": [
        {
          "internalType": "address",
          "name": "_tokenImage",
          "type": "address"
        }
      ],
      "name": "setTokenImage",
      "outputs": [],
      "stateMutability": "nonpayable",
      "type": "function"
    },
    {
      "inputs": [
        {
          "internalType": "string",
          "name": "_name",
          "type": "string"
        },
        {
          "internalType": "string",
          "name": "_symbol",
          "type": "string"
        },
        {
          "internalType": "uint8",
          "name": "_decimals",
          "type": "uint8"
        },
        {
          "internalType": "uint256",
          "name": "_chainId",
          "type": "uint256"
        }
      ],
      "name": "deploy",
      "outputs": [
        {
          "internalType": "address",
          "name": "",
          "type": "address"
        }
      ],
      "stateMutability": "nonpayable",
      "type": "function"
    }
  ],
  "bytecode": "0x608060405234801561001057600080fd5b50604051610a38380380610a388339818101604052604081101561003357600080fd5b508051602090910151600080546001600160a01b039384166001600160a01b031991821617909155600180549390921692169190911790556109be8061007a6000396000f3fe608060405234801561001057600080fd5b50600436106100625760003560e01c80631fa2195f1461006757806381e1351f1461008f5780638da5cb5b146100c3578063a39d6acf146100e7578063c1aef4f2146101b2578063f2fde38b146101ba575b600080fd5b61008d6004803603602081101561007d57600080fd5b50356001600160a01b03166101e0565b005b61009761022b565b6040805167ffffffffffffffff9485168152928416602084015292168183015290519081900360600190f35b6100cb610234565b604080516001600160a01b039092168252519081900360200190f35b6100cb600480360360808110156100fd57600080fd5b81019060208101813564010000000081111561011857600080fd5b82018360208201111561012a57600080fd5b8035906020019184600183028401116401000000008311171561014c57600080fd5b91939092909160208101903564010000000081111561016a57600080fd5b82018360208201111561017c57600080fd5b8035906020019184600183028401116401000000008311171561019e57600080fd5b919350915060ff8135169060200135610243565b6100cb61031b565b61008d600480360360208110156101d057600080fd5b50356001600160a01b031661032a565b6000546001600160a01b031633146101f757600080fd5b61020081610363565b61020957600080fd5b600180546001600160a01b0319166001600160a01b0392909216919091179055565b60016000809192565b6000546001600160a01b031681565b6000600160009054906101000a90046001600160a01b03168787878787873360405161026e9061039f565b6001600160a01b03808a16825260ff8516606083015260808201849052821660a082015260c0602082018181529082018890526040820160e083018a8a80828437600083820152601f01601f1916909101848103835288815260200190508888808284376000838201819052604051601f909201601f19169093018190039d509b50909950505050505050505050f08015801561030f573d6000803e3d6000fd5b50979650505050505050565b6001546001600160a01b031681565b6000546001600160a01b0316331461034157600080fd5b600080546001600160a01b0319166001600160a01b0392909216919091179055565b6000813f7fc5d2460186f7233c927e7db2dcc703c0e500b653ca82273b7bfad8045d85a47081811480159061039757508115155b949350505050565b6105dc806103ad8339019056fe608060405234801561001057600080fd5b506040516105dc3803806105dc833981810160405260c081101561003357600080fd5b81516020830180516040519294929383019291908464010000000082111561005a57600080fd5b90830190602082018581111561006f57600080fd5b825164010000000081118282018810171561008957600080fd5b82525081516020918201929091019080838360005b838110156100b657818101518382015260200161009e565b50505050905090810190601f1680156100e35780820380516001836020036101000a031916815260200191505b506040526020018051604051939291908464010000000082111561010657600080fd5b90830190602082018581111561011b57600080fd5b825164010000000081118282018810171561013557600080fd5b82525081516020918201929091019080838360005b8381101561016257818101518382015260200161014a565b50505050905090810190601f16801561018f5780820380516001836020036101000a031916815260200191505b50604081815260208301518382015160609485015163054fd4d560e41b8552925191965094509092916001600160a01b038916916354fd4d5091600480820192600092909190829003018186803b1580156101e957600080fd5b505afa1580156101fd573d6000803e3d6000fd5b505050506040513d6000823e601f3d908101601f19168201604052602081101561022657600080fd5b810190808051604051939291908464010000000082111561024657600080fd5b90830190602082018581111561025b57600080fd5b825164010000000081118282018810171561027557600080fd5b82525081516020918201929091019080838360005b838110156102a257818101518382015260200161028a565b50505050905090810190601f1680156102cf5780820380516001836020036101000a031916815260200191505b506040525050507f360894a13ba1a3210667c828492db98dca3e2076cc3735a920a3ca505d382bbc88905586519091506103109060009060208901906103e4565b5084516103249060019060208801906103e4565b506002805460ff90951660ff1990951694909417909355600680546001600160a01b039092166001600160a01b03199283168117909155600780549092161790558351602094850120825192850192909220604080517f8b73c3c69bb8fe3d512ecc4cf759cc79239f7b179b0ffacaa9a75d522b39400f8188015280820194909452606084019190915260808301919091523060a0808401919091528151808403909101815260c090920190528051920191909120600855506104859050565b828054600181600116156101000203166002900490600052602060002090601f01602090048101928261041a5760008555610460565b82601f1061043357805160ff1916838001178555610460565b82800160010185558215610460579182015b82811115610460578251825591602001919060010190610445565b5061046c929150610470565b5090565b5b8082111561046c5760008155600101610471565b610148806104946000396000f3fe6080604052600436106100295760003560e01c80632f95b6aa146100725780635c60da1b146100b3575b60006100336100e4565b90506001600160a01b03811661004857600080fd5b60405136600082376000803683855af43d82016040523d6000833e80801561006e573d83f35b3d83fd5b34801561007e57600080fd5b50610087610109565b6040805167ffffffffffffffff9485168152928416602084015292168183015290519081900360600190f35b3480156100bf57600080fd5b506100c86100e4565b604080516001600160a01b039092168252519081900360200190f35b7f360894a13ba1a3210667c828492db98dca3e2076cc3735a920a3ca505d382bbc5490565b6001600080919256fea26469706673582212204f89e9cdbf9f0d5cd13f9b60910414773fb53fce975f656e0cbfcb075b94111c64736f6c63430007050033a2646970667358221220e87294fa3e5d53b13ff78a61e15ed7364d0faa4cccd568e5fd2bf1629423fa5c64736f6c63430007050033",
  "immutableReferences": {},
  "source": "pragma solidity 0.7.5;\n\nimport \"./TokenProxy.sol\";\nimport \"../OwnableModule.sol\";\n\n/**\n * @title TokenFactory\n * @dev Factory contract for deployment of new TokenProxy contracts.\n */\ncontract TokenFactory is OwnableModule {\n    address public tokenImage;\n\n    /**\n     * @dev Initializes this contract\n     * @param _owner of this factory contract.\n     * @param _tokenImage address of the token image contract that should be used for creation of new tokens.\n     */\n    constructor(address _owner, address _tokenImage) OwnableModule(_owner) {\n        tokenImage = _tokenImage;\n    }\n\n    /**\n     * @dev Tells the module interface version that this contract supports.\n     * @return major value of the version\n     * @return minor value of the version\n     * @return patch value of the version\n     */\n    function getModuleInterfacesVersion()\n        external\n        pure\n        returns (\n            uint64 major,\n            uint64 minor,\n            uint64 patch\n        )\n    {\n        return (1, 0, 0);\n    }\n\n    /**\n     * @dev Updates the address of the used token image contract.\n     * Only owner can call this method.\n     * @param _tokenImage address of the new token image used for further deployments.\n     */\n    function setTokenImage(address _tokenImage) external onlyOwner {\n        require(Address.isContract(_tokenImage));\n        tokenImage = _tokenImage;\n    }\n\n    /**\n     * @dev Deploys a new TokenProxy contract, using saved token image contract as a template.\n     * @param _name deployed token name.\n     * @param _symbol deployed token symbol.\n     * @param _decimals deployed token decimals.\n     * @param _chainId chain id of the current environment.\n     * @return address of a newly created contract.\n     */\n    function deploy(\n        string calldata _name,\n        string calldata _symbol,\n        uint8 _decimals,\n        uint256 _chainId\n    ) external returns (address) {\n        return address(new TokenProxy(tokenImage, _name, _symbol, _decimals, _chainId, msg.sender));\n    }\n}\n",
  "sourcePath": "/Users/eabz/Documents/GitHub/tokenbridge/packages/omnibridge/contracts/upgradeable_contracts/modules/factory/TokenFactory.sol",
  "compiler": {
    "name": "solc",
    "version": "0.7.5+commit.eb77ed08.Emscripten.clang"
  },
  "schemaVersion": "3.4.3",
  "updatedAt": "2021-09-04T01:08:31.325Z",
  "devdoc": {
    "details": "Factory contract for deployment of new TokenProxy contracts.",
    "kind": "dev",
    "methods": {
      "constructor": {
        "details": "Initializes this contract",
        "params": {
          "_owner": "of this factory contract.",
          "_tokenImage": "address of the token image contract that should be used for creation of new tokens."
        }
      },
      "deploy(string,string,uint8,uint256)": {
        "details": "Deploys a new TokenProxy contract, using saved token image contract as a template.",
        "params": {
          "_chainId": "chain id of the current environment.",
          "_decimals": "deployed token decimals.",
          "_name": "deployed token name.",
          "_symbol": "deployed token symbol."
        },
        "returns": {
          "_0": "address of a newly created contract."
        }
      },
      "getModuleInterfacesVersion()": {
        "details": "Tells the module interface version that this contract supports.",
        "returns": {
          "major": "value of the version",
          "minor": "value of the version",
          "patch": "value of the version"
        }
      },
      "setTokenImage(address)": {
        "details": "Updates the address of the used token image contract. Only owner can call this method.",
        "params": {
          "_tokenImage": "address of the new token image used for further deployments."
        }
      },
      "transferOwnership(address)": {
        "details": "Changes the owner of this contract.",
        "params": {
          "_newOwner": "address of the new owner."
        }
      }
    },
    "title": "TokenFactory",
    "version": 1
  },
  "userdoc": {
    "kind": "user",
    "methods": {},
    "version": 1
  }
}