{
  "contractName": "TokensBridgeLimits",
  "abi": [
    {
      "anonymous": false,
      "inputs": [
        {
          "indexed": true,
          "internalType": "address",
          "name": "token",
          "type": "address"
        },
        {
          "indexed": false,
          "internalType": "uint256",
          "name": "newLimit",
          "type": "uint256"
        }
      ],
      "name": "DailyLimitChanged",
      "type": "event"
    },
    {
      "anonymous": false,
      "inputs": [
        {
          "indexed": true,
          "internalType": "address",
          "name": "token",
          "type": "address"
        },
        {
          "indexed": false,
          "internalType": "uint256",
          "name": "newLimit",
          "type": "uint256"
        }
      ],
      "name": "ExecutionDailyLimitChanged",
      "type": "event"
    },
    {
      "anonymous": false,
      "inputs": [
        {
          "indexed": false,
          "internalType": "address",
          "name": "previousOwner",
          "type": "address"
        },
        {
          "indexed": false,
          "internalType": "address",
          "name": "newOwner",
          "type": "address"
        }
      ],
      "name": "OwnershipTransferred",
      "type": "event"
    },
    {
      "inputs": [],
      "name": "owner",
      "outputs": [
        {
          "internalType": "address",
          "name": "",
          "type": "address"
        }
      ],
      "stateMutability": "view",
      "type": "function"
    },
    {
      "inputs": [
        {
          "internalType": "address",
          "name": "newOwner",
          "type": "address"
        }
      ],
      "name": "transferOwnership",
      "outputs": [],
      "stateMutability": "nonpayable",
      "type": "function"
    },
    {
      "inputs": [
        {
          "internalType": "address",
          "name": "_token",
          "type": "address"
        }
      ],
      "name": "isTokenRegistered",
      "outputs": [
        {
          "internalType": "bool",
          "name": "",
          "type": "bool"
        }
      ],
      "stateMutability": "view",
      "type": "function"
    },
    {
      "inputs": [
        {
          "internalType": "address",
          "name": "_token",
          "type": "address"
        },
        {
          "internalType": "uint256",
          "name": "_day",
          "type": "uint256"
        }
      ],
      "name": "totalSpentPerDay",
      "outputs": [
        {
          "internalType": "uint256",
          "name": "",
          "type": "uint256"
        }
      ],
      "stateMutability": "view",
      "type": "function"
    },
    {
      "inputs": [
        {
          "internalType": "address",
          "name": "_token",
          "type": "address"
        },
        {
          "internalType": "uint256",
          "name": "_day",
          "type": "uint256"
        }
      ],
      "name": "totalExecutedPerDay",
      "outputs": [
        {
          "internalType": "uint256",
          "name": "",
          "type": "uint256"
        }
      ],
      "stateMutability": "view",
      "type": "function"
    },
    {
      "inputs": [
        {
          "internalType": "address",
          "name": "_token",
          "type": "address"
        }
      ],
      "name": "dailyLimit",
      "outputs": [
        {
          "internalType": "uint256",
          "name": "",
          "type": "uint256"
        }
      ],
      "stateMutability": "view",
      "type": "function"
    },
    {
      "inputs": [
        {
          "internalType": "address",
          "name": "_token",
          "type": "address"
        }
      ],
      "name": "executionDailyLimit",
      "outputs": [
        {
          "internalType": "uint256",
          "name": "",
          "type": "uint256"
        }
      ],
      "stateMutability": "view",
      "type": "function"
    },
    {
      "inputs": [
        {
          "internalType": "address",
          "name": "_token",
          "type": "address"
        }
      ],
      "name": "maxPerTx",
      "outputs": [
        {
          "internalType": "uint256",
          "name": "",
          "type": "uint256"
        }
      ],
      "stateMutability": "view",
      "type": "function"
    },
    {
      "inputs": [
        {
          "internalType": "address",
          "name": "_token",
          "type": "address"
        }
      ],
      "name": "executionMaxPerTx",
      "outputs": [
        {
          "internalType": "uint256",
          "name": "",
          "type": "uint256"
        }
      ],
      "stateMutability": "view",
      "type": "function"
    },
    {
      "inputs": [
        {
          "internalType": "address",
          "name": "_token",
          "type": "address"
        }
      ],
      "name": "minPerTx",
      "outputs": [
        {
          "internalType": "uint256",
          "name": "",
          "type": "uint256"
        }
      ],
      "stateMutability": "view",
      "type": "function"
    },
    {
      "inputs": [
        {
          "internalType": "address",
          "name": "_token",
          "type": "address"
        },
        {
          "internalType": "uint256",
          "name": "_amount",
          "type": "uint256"
        }
      ],
      "name": "withinLimit",
      "outputs": [
        {
          "internalType": "bool",
          "name": "",
          "type": "bool"
        }
      ],
      "stateMutability": "view",
      "type": "function"
    },
    {
      "inputs": [
        {
          "internalType": "address",
          "name": "_token",
          "type": "address"
        },
        {
          "internalType": "uint256",
          "name": "_amount",
          "type": "uint256"
        }
      ],
      "name": "withinExecutionLimit",
      "outputs": [
        {
          "internalType": "bool",
          "name": "",
          "type": "bool"
        }
      ],
      "stateMutability": "view",
      "type": "function"
    },
    {
      "inputs": [],
      "name": "getCurrentDay",
      "outputs": [
        {
          "internalType": "uint256",
          "name": "",
          "type": "uint256"
        }
      ],
      "stateMutability": "view",
      "type": "function"
    },
    {
      "inputs": [
        {
          "internalType": "address",
          "name": "_token",
          "type": "address"
        },
        {
          "internalType": "uint256",
          "name": "_dailyLimit",
          "type": "uint256"
        }
      ],
      "name": "setDailyLimit",
      "outputs": [],
      "stateMutability": "nonpayable",
      "type": "function"
    },
    {
      "inputs": [
        {
          "internalType": "address",
          "name": "_token",
          "type": "address"
        },
        {
          "internalType": "uint256",
          "name": "_dailyLimit",
          "type": "uint256"
        }
      ],
      "name": "setExecutionDailyLimit",
      "outputs": [],
      "stateMutability": "nonpayable",
      "type": "function"
    },
    {
      "inputs": [
        {
          "internalType": "address",
          "name": "_token",
          "type": "address"
        },
        {
          "internalType": "uint256",
          "name": "_maxPerTx",
          "type": "uint256"
        }
      ],
      "name": "setExecutionMaxPerTx",
      "outputs": [],
      "stateMutability": "nonpayable",
      "type": "function"
    },
    {
      "inputs": [
        {
          "internalType": "address",
          "name": "_token",
          "type": "address"
        },
        {
          "internalType": "uint256",
          "name": "_maxPerTx",
          "type": "uint256"
        }
      ],
      "name": "setMaxPerTx",
      "outputs": [],
      "stateMutability": "nonpayable",
      "type": "function"
    },
    {
      "inputs": [
        {
          "internalType": "address",
          "name": "_token",
          "type": "address"
        },
        {
          "internalType": "uint256",
          "name": "_minPerTx",
          "type": "uint256"
        }
      ],
      "name": "setMinPerTx",
      "outputs": [],
      "stateMutability": "nonpayable",
      "type": "function"
    },
    {
      "inputs": [
        {
          "internalType": "address",
          "name": "_token",
          "type": "address"
        }
      ],
      "name": "maxAvailablePerTx",
      "outputs": [
        {
          "internalType": "uint256",
          "name": "",
          "type": "uint256"
        }
      ],
      "stateMutability": "view",
      "type": "function"
    }
  ],
  "bytecode": "0x608060405234801561001057600080fd5b50610d71806100206000396000f3fe608060405234801561001057600080fd5b50600436106101215760003560e01c80637610722f116100ad578063db6fff8c11610071578063db6fff8c14610366578063ec47de2a14610392578063f2c54fe8146103be578063f2fde38b146103ea578063f3f514151461041057610121565b80637610722f1461029e5780637837cf91146102c45780638da5cb5b146102f0578063a4b1c24314610314578063ab3a25d91461033a57610121565b806326aa101f116100f457806326aa101f146101f25780632803212f146102185780633a50bc87146102445780633e6968b61461027057806340f8dd861461027857610121565b806301fcc1d314610126578063032f693f14610154578063107752381461018c57806316ef1913146101cc575b600080fd5b6101526004803603604081101561013c57600080fd5b506001600160a01b038135169060200135610436565b005b61017a6004803603602081101561016a57600080fd5b50356001600160a01b03166104d5565b60408051918252519081900360200190f35b6101b8600480360360408110156101a257600080fd5b506001600160a01b038135169060200135610529565b604080519115158252519081900360200190f35b61017a600480360360208110156101e257600080fd5b50356001600160a01b031661059a565b6101b86004803603602081101561020857600080fd5b50356001600160a01b03166105f7565b6101526004803603604081101561022e57600080fd5b506001600160a01b03813516906020013561060a565b6101b86004803603604081101561025a57600080fd5b506001600160a01b0381351690602001356106d9565b61017a61072f565b61017a6004803603602081101561028e57600080fd5b50356001600160a01b0316610738565b61017a600480360360208110156102b457600080fd5b50356001600160a01b0316610797565b610152600480360360408110156102da57600080fd5b506001600160a01b0381351690602001356107f1565b6102f86108c9565b604080516001600160a01b039092168252519081900360200190f35b61017a6004803603602081101561032a57600080fd5b50356001600160a01b0316610920565b61017a6004803603604081101561035057600080fd5b506001600160a01b038135169060200135610974565b6101526004803603604081101561037c57600080fd5b506001600160a01b0381351690602001356109da565b610152600480360360408110156103a857600080fd5b506001600160a01b038135169060200135610a77565b61017a600480360360408110156103d457600080fd5b506001600160a01b038135169060200135610b18565b6101526004803603602081101561040057600080fd5b50356001600160a01b0316610b81565b61017a6004803603602081101561042657600080fd5b50356001600160a01b0316610b95565b61043e610beb565b610447826105f7565b61045057600080fd5b80158061046f575060008111801561046f575061046c82610738565b81105b61047857600080fd5b60408051700caf0cac6eae8d2dedc9ac2f0a0cae4a8f607b1b60208083019190915260609490941b6001600160601b0319166031820152815180820360250181526045909101825280519084012060009081529283905290912055565b60408051670dac2f0a0cae4a8f60c31b60208083019190915260609390931b6001600160601b03191660288201528151808203601c018152603c909101825280519083012060009081529182905290205490565b600080610547836105418661053c61072f565b610974565b90610c12565b905060006105556000610b95565b11801561056a57508061056785610b95565b10155b801561057e575061057a846104d5565b8311155b8015610592575061058e84610920565b8310155b949350505050565b60408051700caf0cac6eae8d2dedc9ac2f0a0cae4a8f607b1b60208083019190915260609390931b6001600160601b0319166031820152815180820360250181526045909101825280519083012060009081529182905290205490565b60008061060383610920565b1192915050565b610612610beb565b61061b826105f7565b61062457600080fd5b61062d826104d5565b811180610638575080155b61064157600080fd5b604080516919185a5b1e531a5b5a5d60b21b6020808301919091526001600160601b0319606086901b16602a8301528251601e818403018152603e83018085528151918301919091206000908152918290529083902084905583905290516001600160a01b038416917fca0b3dabefdbd8c72c0a9cf4a6e9d107da897abf036ef3f3f3b010cdd25941599190819003605e0190a25050565b6000806106f183610541866106ec61072f565b610b18565b905060006106ff6000610738565b11801561071457508061071185610738565b10155b801561059257506107248461059a565b909211159392505050565b62015180420490565b6040805172195e1958dd5d1a5bdb91185a5b1e531a5b5a5d606a1b60208083019190915260609390931b6001600160601b0319166033820152815180820360270181526047909101825280519083012060009081529182905290205490565b6000806107a3836104d5565b905060006107b084610b95565b905060006107c08561053c61072f565b905060008183116107d25760006107d6565b8183035b90508084106107e557806107e7565b835b9695505050505050565b6107f9610beb565b610802826105f7565b61080b57600080fd5b6108148261059a565b81118061081f575080155b61082857600080fd5b6040805172195e1958dd5d1a5bdb91185a5b1e531a5b5a5d606a1b6020808301919091526001600160601b0319606086901b16603383015282516027818403018152604783018085528151918301919091206000908152918290529083902084905583905290516001600160a01b038416917f4c177b42dbe934b3abbc0208c11a42e46589983431616f1710ab19969c5ed62e919081900360670190a25050565b7f02016836a56b71f0d02689e69e326f4f4c1b9057164ef592671cf0d37c8040c060005260026020527fb7802e97e87ef2842a6cce7da7ffaeaedaa2f61a6a7870b23d9d01fc9b73712e546001600160a01b031690565b60408051670dad2dca0cae4a8f60c31b60208083019190915260609390931b6001600160601b03191660288201528151808203601c018152603c909101825280519083012060009081529182905290205490565b604080516f746f74616c5370656e7450657244617960801b60208083019190915260609490941b6001600160601b031916603082015260448082019390935281518082039093018352606401815281519183019190912060009081529182905290205490565b6109e2610beb565b6109eb826105f7565b6109f457600080fd5b801580610a1a5750610a0582610920565b81118015610a1a5750610a1782610b95565b81105b610a2357600080fd5b60408051670dac2f0a0cae4a8f60c31b60208083019190915260609490941b6001600160601b03191660288201528151808203601c018152603c909101825280519084012060009081529283905290912055565b610a7f610beb565b610a88826105f7565b610a9157600080fd5b600081118015610aa85750610aa582610b95565b81105b8015610abb5750610ab8826104d5565b81105b610ac457600080fd5b60408051670dad2dca0cae4a8f60c31b60208083019190915260609490941b6001600160601b03191660288201528151808203601c018152603c909101825280519084012060009081529283905290912055565b6040805172746f74616c457865637574656450657244617960681b60208083019190915260609490941b6001600160601b031916603382015260478082019390935281518082039093018352606701815281519183019190912060009081529182905290205490565b610b89610beb565b610b9281610c73565b50565b604080516919185a5b1e531a5b5a5d60b21b60208083019190915260609390931b6001600160601b031916602a8201528151808203601e018152603e909101825280519083012060009081529182905290205490565b610bf36108c9565b6001600160a01b0316336001600160a01b031614610c1057600080fd5b565b600082820183811015610c6c576040805162461bcd60e51b815260206004820152601b60248201527f536166654d6174683a206164646974696f6e206f766572666c6f770000000000604482015290519081900360640190fd5b9392505050565b6001600160a01b038116610c8657600080fd5b7f8be0079c531659141344cd1fd0a4f28419497f9722a3daafe3b4186f6b6457e0610caf6108c9565b604080516001600160a01b03928316815291841660208301528051918290030190a17f02016836a56b71f0d02689e69e326f4f4c1b9057164ef592671cf0d37c8040c060005260026020527fb7802e97e87ef2842a6cce7da7ffaeaedaa2f61a6a7870b23d9d01fc9b73712e80546001600160a01b0319166001600160a01b039290921691909117905556fea2646970667358221220d0838f651ac46bf5db76c6fe97d4a51292e13f36dd86ce1acfc2baf7bbab29b364736f6c63430007050033",
  "immutableReferences": {},
  "source": "pragma solidity 0.7.5;\n\nimport \"@openzeppelin/contracts/math/SafeMath.sol\";\nimport \"../../../upgradeability/EternalStorage.sol\";\nimport \"../../Ownable.sol\";\n\n/**\n * @title TokensBridgeLimits\n * @dev Functionality for keeping track of bridging limits for multiple tokens.\n */\ncontract TokensBridgeLimits is EternalStorage, Ownable {\n    using SafeMath for uint256;\n\n    // token == 0x00..00 represents default limits (assuming decimals == 18) for all newly created tokens\n    event DailyLimitChanged(address indexed token, uint256 newLimit);\n    event ExecutionDailyLimitChanged(address indexed token, uint256 newLimit);\n\n    /**\n     * @dev Checks if specified token was already bridged at least once.\n     * @param _token address of the token contract.\n     * @return true, if token address is address(0) or token was already bridged.\n     */\n    function isTokenRegistered(address _token) public view returns (bool) {\n        return minPerTx(_token) > 0;\n    }\n\n    /**\n     * @dev Retrieves the total spent amount for particular token during specific day.\n     * @param _token address of the token contract.\n     * @param _day day number for which spent amount if requested.\n     * @return amount of tokens sent through the bridge to the other side.\n     */\n    function totalSpentPerDay(address _token, uint256 _day) public view returns (uint256) {\n        return uintStorage[keccak256(abi.encodePacked(\"totalSpentPerDay\", _token, _day))];\n    }\n\n    /**\n     * @dev Retrieves the total executed amount for particular token during specific day.\n     * @param _token address of the token contract.\n     * @param _day day number for which spent amount if requested.\n     * @return amount of tokens received from the bridge from the other side.\n     */\n    function totalExecutedPerDay(address _token, uint256 _day) public view returns (uint256) {\n        return uintStorage[keccak256(abi.encodePacked(\"totalExecutedPerDay\", _token, _day))];\n    }\n\n    /**\n     * @dev Retrieves current daily limit for a particular token contract.\n     * @param _token address of the token contract.\n     * @return daily limit on tokens that can be sent through the bridge per day.\n     */\n    function dailyLimit(address _token) public view returns (uint256) {\n        return uintStorage[keccak256(abi.encodePacked(\"dailyLimit\", _token))];\n    }\n\n    /**\n     * @dev Retrieves current execution daily limit for a particular token contract.\n     * @param _token address of the token contract.\n     * @return daily limit on tokens that can be received from the bridge on the other side per day.\n     */\n    function executionDailyLimit(address _token) public view returns (uint256) {\n        return uintStorage[keccak256(abi.encodePacked(\"executionDailyLimit\", _token))];\n    }\n\n    /**\n     * @dev Retrieves current maximum amount of tokens per one transfer for a particular token contract.\n     * @param _token address of the token contract.\n     * @return maximum amount on tokens that can be sent through the bridge in one transfer.\n     */\n    function maxPerTx(address _token) public view returns (uint256) {\n        return uintStorage[keccak256(abi.encodePacked(\"maxPerTx\", _token))];\n    }\n\n    /**\n     * @dev Retrieves current maximum execution amount of tokens per one transfer for a particular token contract.\n     * @param _token address of the token contract.\n     * @return maximum amount on tokens that can received from the bridge on the other side in one transaction.\n     */\n    function executionMaxPerTx(address _token) public view returns (uint256) {\n        return uintStorage[keccak256(abi.encodePacked(\"executionMaxPerTx\", _token))];\n    }\n\n    /**\n     * @dev Retrieves current minimum amount of tokens per one transfer for a particular token contract.\n     * @param _token address of the token contract.\n     * @return minimum amount on tokens that can be sent through the bridge in one transfer.\n     */\n    function minPerTx(address _token) public view returns (uint256) {\n        return uintStorage[keccak256(abi.encodePacked(\"minPerTx\", _token))];\n    }\n\n    /**\n     * @dev Checks that bridged amount of tokens conforms to the configured limits.\n     * @param _token address of the token contract.\n     * @param _amount amount of bridge tokens.\n     * @return true, if specified amount can be bridged.\n     */\n    function withinLimit(address _token, uint256 _amount) public view returns (bool) {\n        uint256 nextLimit = totalSpentPerDay(_token, getCurrentDay()).add(_amount);\n        return\n            dailyLimit(address(0)) > 0 &&\n            dailyLimit(_token) >= nextLimit &&\n            _amount <= maxPerTx(_token) &&\n            _amount >= minPerTx(_token);\n    }\n\n    /**\n     * @dev Checks that bridged amount of tokens conforms to the configured execution limits.\n     * @param _token address of the token contract.\n     * @param _amount amount of bridge tokens.\n     * @return true, if specified amount can be processed and executed.\n     */\n    function withinExecutionLimit(address _token, uint256 _amount) public view returns (bool) {\n        uint256 nextLimit = totalExecutedPerDay(_token, getCurrentDay()).add(_amount);\n        return\n            executionDailyLimit(address(0)) > 0 &&\n            executionDailyLimit(_token) >= nextLimit &&\n            _amount <= executionMaxPerTx(_token);\n    }\n\n    /**\n     * @dev Returns current day number.\n     * @return day number.\n     */\n    function getCurrentDay() public view returns (uint256) {\n        // solhint-disable-next-line not-rely-on-time\n        return block.timestamp / 1 days;\n    }\n\n    /**\n     * @dev Updates daily limit for the particular token. Only owner can call this method.\n     * @param _token address of the token contract, or address(0) for configuring the efault limit.\n     * @param _dailyLimit daily allowed amount of bridged tokens, should be greater than maxPerTx.\n     * 0 value is also allowed, will stop the bridge operations in outgoing direction.\n     */\n    function setDailyLimit(address _token, uint256 _dailyLimit) external onlyOwner {\n        require(isTokenRegistered(_token));\n        require(_dailyLimit > maxPerTx(_token) || _dailyLimit == 0);\n        uintStorage[keccak256(abi.encodePacked(\"dailyLimit\", _token))] = _dailyLimit;\n        emit DailyLimitChanged(_token, _dailyLimit);\n    }\n\n    /**\n     * @dev Updates execution daily limit for the particular token. Only owner can call this method.\n     * @param _token address of the token contract, or address(0) for configuring the default limit.\n     * @param _dailyLimit daily allowed amount of executed tokens, should be greater than executionMaxPerTx.\n     * 0 value is also allowed, will stop the bridge operations in incoming direction.\n     */\n    function setExecutionDailyLimit(address _token, uint256 _dailyLimit) external onlyOwner {\n        require(isTokenRegistered(_token));\n        require(_dailyLimit > executionMaxPerTx(_token) || _dailyLimit == 0);\n        uintStorage[keccak256(abi.encodePacked(\"executionDailyLimit\", _token))] = _dailyLimit;\n        emit ExecutionDailyLimitChanged(_token, _dailyLimit);\n    }\n\n    /**\n     * @dev Updates execution maximum per transaction for the particular token. Only owner can call this method.\n     * @param _token address of the token contract, or address(0) for configuring the default limit.\n     * @param _maxPerTx maximum amount of executed tokens per one transaction, should be less than executionDailyLimit.\n     * 0 value is also allowed, will stop the bridge operations in incoming direction.\n     */\n    function setExecutionMaxPerTx(address _token, uint256 _maxPerTx) external onlyOwner {\n        require(isTokenRegistered(_token));\n        require(_maxPerTx == 0 || (_maxPerTx > 0 && _maxPerTx < executionDailyLimit(_token)));\n        uintStorage[keccak256(abi.encodePacked(\"executionMaxPerTx\", _token))] = _maxPerTx;\n    }\n\n    /**\n     * @dev Updates maximum per transaction for the particular token. Only owner can call this method.\n     * @param _token address of the token contract, or address(0) for configuring the default limit.\n     * @param _maxPerTx maximum amount of tokens per one transaction, should be less than dailyLimit, greater than minPerTx.\n     * 0 value is also allowed, will stop the bridge operations in outgoing direction.\n     */\n    function setMaxPerTx(address _token, uint256 _maxPerTx) external onlyOwner {\n        require(isTokenRegistered(_token));\n        require(_maxPerTx == 0 || (_maxPerTx > minPerTx(_token) && _maxPerTx < dailyLimit(_token)));\n        uintStorage[keccak256(abi.encodePacked(\"maxPerTx\", _token))] = _maxPerTx;\n    }\n\n    /**\n     * @dev Updates minimum per transaction for the particular token. Only owner can call this method.\n     * @param _token address of the token contract, or address(0) for configuring the default limit.\n     * @param _minPerTx minimum amount of tokens per one transaction, should be less than maxPerTx and dailyLimit.\n     */\n    function setMinPerTx(address _token, uint256 _minPerTx) external onlyOwner {\n        require(isTokenRegistered(_token));\n        require(_minPerTx > 0 && _minPerTx < dailyLimit(_token) && _minPerTx < maxPerTx(_token));\n        uintStorage[keccak256(abi.encodePacked(\"minPerTx\", _token))] = _minPerTx;\n    }\n\n    /**\n     * @dev Retrieves maximum available bridge amount per one transaction taking into account maxPerTx() and dailyLimit() parameters.\n     * @param _token address of the token contract, or address(0) for the default limit.\n     * @return minimum of maxPerTx parameter and remaining daily quota.\n     */\n    function maxAvailablePerTx(address _token) public view returns (uint256) {\n        uint256 _maxPerTx = maxPerTx(_token);\n        uint256 _dailyLimit = dailyLimit(_token);\n        uint256 _spent = totalSpentPerDay(_token, getCurrentDay());\n        uint256 _remainingOutOfDaily = _dailyLimit > _spent ? _dailyLimit - _spent : 0;\n        return _maxPerTx < _remainingOutOfDaily ? _maxPerTx : _remainingOutOfDaily;\n    }\n\n    /**\n     * @dev Internal function for adding spent amount for some token.\n     * @param _token address of the token contract.\n     * @param _day day number, when tokens are processed.\n     * @param _value amount of bridge tokens.\n     */\n    function addTotalSpentPerDay(\n        address _token,\n        uint256 _day,\n        uint256 _value\n    ) internal {\n        uintStorage[keccak256(abi.encodePacked(\"totalSpentPerDay\", _token, _day))] = totalSpentPerDay(_token, _day).add(\n            _value\n        );\n    }\n\n    /**\n     * @dev Internal function for adding executed amount for some token.\n     * @param _token address of the token contract.\n     * @param _day day number, when tokens are processed.\n     * @param _value amount of bridge tokens.\n     */\n    function addTotalExecutedPerDay(\n        address _token,\n        uint256 _day,\n        uint256 _value\n    ) internal {\n        uintStorage[keccak256(abi.encodePacked(\"totalExecutedPerDay\", _token, _day))] = totalExecutedPerDay(\n            _token,\n            _day\n        )\n            .add(_value);\n    }\n\n    /**\n     * @dev Internal function for initializing limits for some token.\n     * @param _token address of the token contract.\n     * @param _limits [ 0 = dailyLimit, 1 = maxPerTx, 2 = minPerTx ].\n     */\n    function _setLimits(address _token, uint256[3] memory _limits) internal {\n        require(\n            _limits[2] > 0 && // minPerTx > 0\n                _limits[1] > _limits[2] && // maxPerTx > minPerTx\n                _limits[0] > _limits[1] // dailyLimit > maxPerTx\n        );\n\n        uintStorage[keccak256(abi.encodePacked(\"dailyLimit\", _token))] = _limits[0];\n        uintStorage[keccak256(abi.encodePacked(\"maxPerTx\", _token))] = _limits[1];\n        uintStorage[keccak256(abi.encodePacked(\"minPerTx\", _token))] = _limits[2];\n\n        emit DailyLimitChanged(_token, _limits[0]);\n    }\n\n    /**\n     * @dev Internal function for initializing execution limits for some token.\n     * @param _token address of the token contract.\n     * @param _limits [ 0 = executionDailyLimit, 1 = executionMaxPerTx ].\n     */\n    function _setExecutionLimits(address _token, uint256[2] memory _limits) internal {\n        require(_limits[1] < _limits[0]); // foreignMaxPerTx < foreignDailyLimit\n\n        uintStorage[keccak256(abi.encodePacked(\"executionDailyLimit\", _token))] = _limits[0];\n        uintStorage[keccak256(abi.encodePacked(\"executionMaxPerTx\", _token))] = _limits[1];\n\n        emit ExecutionDailyLimitChanged(_token, _limits[0]);\n    }\n\n    /**\n     * @dev Internal function for initializing limits for some token relative to its decimals parameter.\n     * @param _token address of the token contract.\n     * @param _decimals token decimals parameter.\n     */\n    function _initializeTokenBridgeLimits(address _token, uint256 _decimals) internal {\n        uint256 factor;\n        if (_decimals < 18) {\n            factor = 10**(18 - _decimals);\n\n            uint256 _minPerTx = minPerTx(address(0)).div(factor);\n            uint256 _maxPerTx = maxPerTx(address(0)).div(factor);\n            uint256 _dailyLimit = dailyLimit(address(0)).div(factor);\n            uint256 _executionMaxPerTx = executionMaxPerTx(address(0)).div(factor);\n            uint256 _executionDailyLimit = executionDailyLimit(address(0)).div(factor);\n\n            // such situation can happen when calculated limits relative to the token decimals are too low\n            // e.g. minPerTx(address(0)) == 10 ** 14, _decimals == 3. _minPerTx happens to be 0, which is not allowed.\n            // in this case, limits are raised to the default values\n            if (_minPerTx == 0) {\n                // Numbers 1, 100, 10000 are chosen in a semi-random way,\n                // so that any token with small decimals can still be bridged in some amounts.\n                // It is possible to override limits for the particular token later if needed.\n                _minPerTx = 1;\n                if (_maxPerTx <= _minPerTx) {\n                    _maxPerTx = 100;\n                    _executionMaxPerTx = 100;\n                    if (_dailyLimit <= _maxPerTx || _executionDailyLimit <= _executionMaxPerTx) {\n                        _dailyLimit = 10000;\n                        _executionDailyLimit = 10000;\n                    }\n                }\n            }\n            _setLimits(_token, [_dailyLimit, _maxPerTx, _minPerTx]);\n            _setExecutionLimits(_token, [_executionDailyLimit, _executionMaxPerTx]);\n        } else {\n            factor = 10**(_decimals - 18);\n            _setLimits(\n                _token,\n                [dailyLimit(address(0)).mul(factor), maxPerTx(address(0)).mul(factor), minPerTx(address(0)).mul(factor)]\n            );\n            _setExecutionLimits(\n                _token,\n                [executionDailyLimit(address(0)).mul(factor), executionMaxPerTx(address(0)).mul(factor)]\n            );\n        }\n    }\n}\n",
  "sourcePath": "/Users/eabz/Documents/GitHub/tokenbridge/packages/omnibridge/contracts/upgradeable_contracts/components/common/TokensBridgeLimits.sol",
  "compiler": {
    "name": "solc",
    "version": "0.7.5+commit.eb77ed08.Emscripten.clang"
  },
  "schemaVersion": "3.4.3",
  "updatedAt": "2021-09-04T01:08:31.306Z",
  "devdoc": {
    "details": "Functionality for keeping track of bridging limits for multiple tokens.",
    "kind": "dev",
    "methods": {
      "dailyLimit(address)": {
        "details": "Retrieves current daily limit for a particular token contract.",
        "params": {
          "_token": "address of the token contract."
        },
        "returns": {
          "_0": "daily limit on tokens that can be sent through the bridge per day."
        }
      },
      "executionDailyLimit(address)": {
        "details": "Retrieves current execution daily limit for a particular token contract.",
        "params": {
          "_token": "address of the token contract."
        },
        "returns": {
          "_0": "daily limit on tokens that can be received from the bridge on the other side per day."
        }
      },
      "executionMaxPerTx(address)": {
        "details": "Retrieves current maximum execution amount of tokens per one transfer for a particular token contract.",
        "params": {
          "_token": "address of the token contract."
        },
        "returns": {
          "_0": "maximum amount on tokens that can received from the bridge on the other side in one transaction."
        }
      },
      "getCurrentDay()": {
        "details": "Returns current day number.",
        "returns": {
          "_0": "day number."
        }
      },
      "isTokenRegistered(address)": {
        "details": "Checks if specified token was already bridged at least once.",
        "params": {
          "_token": "address of the token contract."
        },
        "returns": {
          "_0": "true, if token address is address(0) or token was already bridged."
        }
      },
      "maxAvailablePerTx(address)": {
        "details": "Retrieves maximum available bridge amount per one transaction taking into account maxPerTx() and dailyLimit() parameters.",
        "params": {
          "_token": "address of the token contract, or address(0) for the default limit."
        },
        "returns": {
          "_0": "minimum of maxPerTx parameter and remaining daily quota."
        }
      },
      "maxPerTx(address)": {
        "details": "Retrieves current maximum amount of tokens per one transfer for a particular token contract.",
        "params": {
          "_token": "address of the token contract."
        },
        "returns": {
          "_0": "maximum amount on tokens that can be sent through the bridge in one transfer."
        }
      },
      "minPerTx(address)": {
        "details": "Retrieves current minimum amount of tokens per one transfer for a particular token contract.",
        "params": {
          "_token": "address of the token contract."
        },
        "returns": {
          "_0": "minimum amount on tokens that can be sent through the bridge in one transfer."
        }
      },
      "owner()": {
        "details": "Tells the address of the owner",
        "returns": {
          "_0": "the address of the owner"
        }
      },
      "setDailyLimit(address,uint256)": {
        "details": "Updates daily limit for the particular token. Only owner can call this method.",
        "params": {
          "_dailyLimit": "daily allowed amount of bridged tokens, should be greater than maxPerTx. 0 value is also allowed, will stop the bridge operations in outgoing direction.",
          "_token": "address of the token contract, or address(0) for configuring the efault limit."
        }
      },
      "setExecutionDailyLimit(address,uint256)": {
        "details": "Updates execution daily limit for the particular token. Only owner can call this method.",
        "params": {
          "_dailyLimit": "daily allowed amount of executed tokens, should be greater than executionMaxPerTx. 0 value is also allowed, will stop the bridge operations in incoming direction.",
          "_token": "address of the token contract, or address(0) for configuring the default limit."
        }
      },
      "setExecutionMaxPerTx(address,uint256)": {
        "details": "Updates execution maximum per transaction for the particular token. Only owner can call this method.",
        "params": {
          "_maxPerTx": "maximum amount of executed tokens per one transaction, should be less than executionDailyLimit. 0 value is also allowed, will stop the bridge operations in incoming direction.",
          "_token": "address of the token contract, or address(0) for configuring the default limit."
        }
      },
      "setMaxPerTx(address,uint256)": {
        "details": "Updates maximum per transaction for the particular token. Only owner can call this method.",
        "params": {
          "_maxPerTx": "maximum amount of tokens per one transaction, should be less than dailyLimit, greater than minPerTx. 0 value is also allowed, will stop the bridge operations in outgoing direction.",
          "_token": "address of the token contract, or address(0) for configuring the default limit."
        }
      },
      "setMinPerTx(address,uint256)": {
        "details": "Updates minimum per transaction for the particular token. Only owner can call this method.",
        "params": {
          "_minPerTx": "minimum amount of tokens per one transaction, should be less than maxPerTx and dailyLimit.",
          "_token": "address of the token contract, or address(0) for configuring the default limit."
        }
      },
      "totalExecutedPerDay(address,uint256)": {
        "details": "Retrieves the total executed amount for particular token during specific day.",
        "params": {
          "_day": "day number for which spent amount if requested.",
          "_token": "address of the token contract."
        },
        "returns": {
          "_0": "amount of tokens received from the bridge from the other side."
        }
      },
      "totalSpentPerDay(address,uint256)": {
        "details": "Retrieves the total spent amount for particular token during specific day.",
        "params": {
          "_day": "day number for which spent amount if requested.",
          "_token": "address of the token contract."
        },
        "returns": {
          "_0": "amount of tokens sent through the bridge to the other side."
        }
      },
      "transferOwnership(address)": {
        "details": "Allows the current owner to transfer control of the contract to a newOwner.",
        "params": {
          "newOwner": "the address to transfer ownership to."
        }
      },
      "withinExecutionLimit(address,uint256)": {
        "details": "Checks that bridged amount of tokens conforms to the configured execution limits.",
        "params": {
          "_amount": "amount of bridge tokens.",
          "_token": "address of the token contract."
        },
        "returns": {
          "_0": "true, if specified amount can be processed and executed."
        }
      },
      "withinLimit(address,uint256)": {
        "details": "Checks that bridged amount of tokens conforms to the configured limits.",
        "params": {
          "_amount": "amount of bridge tokens.",
          "_token": "address of the token contract."
        },
        "returns": {
          "_0": "true, if specified amount can be bridged."
        }
      }
    },
    "title": "TokensBridgeLimits",
    "version": 1
  },
  "userdoc": {
    "kind": "user",
    "methods": {},
    "version": 1
  }
}