{
  "contractName": "TokenFactoryConnector",
  "abi": [
    {
      "anonymous": false,
      "inputs": [
        {
          "indexed": false,
          "internalType": "address",
          "name": "previousOwner",
          "type": "address"
        },
        {
          "indexed": false,
          "internalType": "address",
          "name": "newOwner",
          "type": "address"
        }
      ],
      "name": "OwnershipTransferred",
      "type": "event"
    },
    {
      "inputs": [],
      "name": "owner",
      "outputs": [
        {
          "internalType": "address",
          "name": "",
          "type": "address"
        }
      ],
      "stateMutability": "view",
      "type": "function"
    },
    {
      "inputs": [
        {
          "internalType": "address",
          "name": "newOwner",
          "type": "address"
        }
      ],
      "name": "transferOwnership",
      "outputs": [],
      "stateMutability": "nonpayable",
      "type": "function"
    },
    {
      "inputs": [
        {
          "internalType": "address",
          "name": "_tokenFactory",
          "type": "address"
        }
      ],
      "name": "setTokenFactory",
      "outputs": [],
      "stateMutability": "nonpayable",
      "type": "function"
    },
    {
      "inputs": [],
      "name": "tokenFactory",
      "outputs": [
        {
          "internalType": "contract TokenFactory",
          "name": "",
          "type": "address"
        }
      ],
      "stateMutability": "view",
      "type": "function"
    }
  ],
  "bytecode": "0x608060405234801561001057600080fd5b5061037b806100206000396000f3fe608060405234801561001057600080fd5b506004361061004c5760003560e01c80632f73a9f8146100515780638da5cb5b14610079578063e77772fe1461009d578063f2fde38b146100a5575b600080fd5b6100776004803603602081101561006757600080fd5b50356001600160a01b03166100cb565b005b6100816100df565b604080516001600160a01b039092168252519081900360200190f35b610081610136565b610077600480360360208110156100bb57600080fd5b50356001600160a01b031661018d565b6100d361019e565b6100dc816101c5565b50565b7f02016836a56b71f0d02689e69e326f4f4c1b9057164ef592671cf0d37c8040c060005260026020527fb7802e97e87ef2842a6cce7da7ffaeaedaa2f61a6a7870b23d9d01fc9b73712e546001600160a01b031690565b7f269c5905f777ee6391c7a361d17039a7d62f52ba9fffeb98c5ade342705731a360005260026020527f15c764a0cd4bb3d72a49abedd3d6793c3b93c0d57f43174a348b443be86f79c1546001600160a01b031690565b61019561019e565b6100dc81610241565b6101a66100df565b6001600160a01b0316336001600160a01b0316146101c357600080fd5b565b6101ce81610309565b6101d757600080fd5b7f269c5905f777ee6391c7a361d17039a7d62f52ba9fffeb98c5ade342705731a360005260026020527f15c764a0cd4bb3d72a49abedd3d6793c3b93c0d57f43174a348b443be86f79c180546001600160a01b0319166001600160a01b0392909216919091179055565b6001600160a01b03811661025457600080fd5b7f8be0079c531659141344cd1fd0a4f28419497f9722a3daafe3b4186f6b6457e061027d6100df565b604080516001600160a01b03928316815291841660208301528051918290030190a17f02016836a56b71f0d02689e69e326f4f4c1b9057164ef592671cf0d37c8040c060005260026020527fb7802e97e87ef2842a6cce7da7ffaeaedaa2f61a6a7870b23d9d01fc9b73712e80546001600160a01b0319166001600160a01b0392909216919091179055565b6000813f7fc5d2460186f7233c927e7db2dcc703c0e500b653ca82273b7bfad8045d85a47081811480159061033d57508115155b94935050505056fea2646970667358221220f4e29e9ffe2802293f5082425617b0707843c9895ba1358a50aef1fa5fe843dd64736f6c63430007050033",
  "immutableReferences": {},
  "source": "pragma solidity 0.7.5;\n\nimport \"@openzeppelin/contracts/utils/Address.sol\";\nimport \"../../Ownable.sol\";\nimport \"./TokenFactory.sol\";\n\n/**\n * @title TokenFactoryConnector\n * @dev Connectivity functionality for working with TokenFactory contract.\n */\ncontract TokenFactoryConnector is Ownable {\n    bytes32 internal constant TOKEN_FACTORY_CONTRACT =\n        0x269c5905f777ee6391c7a361d17039a7d62f52ba9fffeb98c5ade342705731a3; // keccak256(abi.encodePacked(\"tokenFactoryContract\"))\n\n    /**\n     * @dev Updates an address of the used TokenFactory contract used for creating new tokens.\n     * @param _tokenFactory address of TokenFactory contract.\n     */\n    function setTokenFactory(address _tokenFactory) external onlyOwner {\n        _setTokenFactory(_tokenFactory);\n    }\n\n    /**\n     * @dev Retrieves an address of the token factory contract.\n     * @return address of the TokenFactory contract.\n     */\n    function tokenFactory() public view returns (TokenFactory) {\n        return TokenFactory(addressStorage[TOKEN_FACTORY_CONTRACT]);\n    }\n\n    /**\n     * @dev Internal function for updating an address of the token factory contract.\n     * @param _tokenFactory address of the deployed TokenFactory contract.\n     */\n    function _setTokenFactory(address _tokenFactory) internal {\n        require(Address.isContract(_tokenFactory));\n        addressStorage[TOKEN_FACTORY_CONTRACT] = _tokenFactory;\n    }\n}\n",
  "sourcePath": "/Users/eabz/Documents/GitHub/tokenbridge/packages/omnibridge/contracts/upgradeable_contracts/modules/factory/TokenFactoryConnector.sol",
  "compiler": {
    "name": "solc",
    "version": "0.7.5+commit.eb77ed08.Emscripten.clang"
  },
  "schemaVersion": "3.4.3",
  "updatedAt": "2021-09-04T01:08:31.326Z",
  "devdoc": {
    "details": "Connectivity functionality for working with TokenFactory contract.",
    "kind": "dev",
    "methods": {
      "owner()": {
        "details": "Tells the address of the owner",
        "returns": {
          "_0": "the address of the owner"
        }
      },
      "setTokenFactory(address)": {
        "details": "Updates an address of the used TokenFactory contract used for creating new tokens.",
        "params": {
          "_tokenFactory": "address of TokenFactory contract."
        }
      },
      "tokenFactory()": {
        "details": "Retrieves an address of the token factory contract.",
        "returns": {
          "_0": "address of the TokenFactory contract."
        }
      },
      "transferOwnership(address)": {
        "details": "Allows the current owner to transfer control of the contract to a newOwner.",
        "params": {
          "newOwner": "the address to transfer ownership to."
        }
      }
    },
    "title": "TokenFactoryConnector",
    "version": 1
  },
  "userdoc": {
    "kind": "user",
    "methods": {},
    "version": 1
  }
}