{
  "contractName": "Token2",
  "abi": [
    {
      "inputs": [],
      "name": "NAME",
      "outputs": [
        {
          "internalType": "string",
          "name": "",
          "type": "string"
        }
      ],
      "stateMutability": "pure",
      "type": "function"
    },
    {
      "inputs": [],
      "name": "SYMBOL",
      "outputs": [
        {
          "internalType": "string",
          "name": "",
          "type": "string"
        }
      ],
      "stateMutability": "pure",
      "type": "function"
    },
    {
      "inputs": [],
      "name": "DECIMALS",
      "outputs": [
        {
          "internalType": "uint8",
          "name": "",
          "type": "uint8"
        }
      ],
      "stateMutability": "pure",
      "type": "function"
    }
  ],
  "bytecode": "0x608060405234801561001057600080fd5b50610160806100206000396000f3fe608060405234801561001057600080fd5b50600436106100415760003560e01c80632e0f262514610046578063a3f4df7e14610064578063f76f8d78146100e1575b600080fd5b61004e6100e9565b6040805160ff9092168252519081900360200190f35b61006c6100ee565b6040805160208082528351818301528351919283929083019185019080838360005b838110156100a657818101518382015260200161008e565b50505050905090810190601f1680156100d35780820380516001836020036101000a031916815260200191505b509250505060405180910390f35b61006c61010d565b601290565b6040805180820190915260058152642a37b5b2b760d91b602082015290565b6040805180820190915260038152622a25a760e91b60208201529056fea26469706673582212207e6ddca5020afe3463c6fe1d6e8ac319a579be210c8a7757045dae9cf52351df64736f6c63430007050033",
  "immutableReferences": {},
  "source": "/* solhint-disable */\npragma solidity 0.7.5;\n\nimport \"../libraries/TokenReader.sol\";\n\ncontract Token1 {\n    function name() external pure returns (string memory) {\n        return \"Token\";\n    }\n\n    function symbol() external pure returns (string memory) {\n        return \"TKN\";\n    }\n\n    function decimals() external pure returns (uint8) {\n        return 18;\n    }\n}\n\ncontract Token2 {\n    function NAME() external pure returns (string memory) {\n        return \"Token\";\n    }\n\n    function SYMBOL() external pure returns (string memory) {\n        return \"TKN\";\n    }\n\n    function DECIMALS() external pure returns (uint8) {\n        return 18;\n    }\n}\n\ncontract Token3 {\n    function name() external pure returns (bytes32) {\n        return bytes32(\"Token\");\n    }\n\n    function symbol() external pure returns (bytes32) {\n        return bytes32(\"TKN\");\n    }\n\n    function decimals() external pure returns (uint256) {\n        return 9;\n    }\n}\n\ncontract Token4 {\n    function NAME() external pure returns (bytes32) {\n        return bytes32(\"Token\");\n    }\n\n    function SYMBOL() external pure returns (bytes32) {\n        return bytes32(\"TKN\");\n    }\n}\n\ncontract Token5 {\n    function name() external pure returns (bytes32) {\n        return bytes32(\"0123456789abcdef0123456789abcdef\");\n    }\n\n    function SYMBOL() external pure returns (bytes32) {\n        return bytes32(\"0123456789abcdef0123456789abcdef\");\n    }\n}\n\ncontract Token6 {\n    function NAME() external pure returns (string memory) {\n        return \"0123456789abcdef0123456789abcdefX\";\n    }\n\n    function symbol() external pure returns (string memory) {\n        return \"0123456789abcdef0123456789abcdefY\";\n    }\n}\n\ncontract Token7 {\n    function symbol() external pure returns (string memory) {\n        return \"\";\n    }\n\n    function decimals() external pure returns (uint8) {\n        return 0;\n    }\n}\n\ncontract Token8 {\n    fallback() external {\n        revert(\"Error message\");\n    }\n}\n\ncontract TokenReaderTest {\n    function test1() external {\n        address token = address(new Token1());\n\n        require(keccak256(abi.encodePacked(TokenReader.readName(token))) == keccak256(\"Token\"));\n        require(keccak256(abi.encodePacked(TokenReader.readSymbol(token))) == keccak256(\"TKN\"));\n        require(TokenReader.readDecimals(token) == 18);\n    }\n\n    function test2() external {\n        address token = address(new Token2());\n\n        require(keccak256(abi.encodePacked(TokenReader.readName(token))) == keccak256(\"Token\"));\n        require(keccak256(abi.encodePacked(TokenReader.readSymbol(token))) == keccak256(\"TKN\"));\n        require(TokenReader.readDecimals(token) == 18);\n    }\n\n    function test3() external {\n        address token = address(new Token3());\n\n        require(keccak256(abi.encodePacked(TokenReader.readName(token))) == keccak256(\"Token\"));\n        require(keccak256(abi.encodePacked(TokenReader.readSymbol(token))) == keccak256(\"TKN\"));\n        require(TokenReader.readDecimals(token) == 9);\n    }\n\n    function test4() external {\n        address token = address(new Token4());\n\n        require(keccak256(abi.encodePacked(TokenReader.readName(token))) == keccak256(\"Token\"));\n        require(keccak256(abi.encodePacked(TokenReader.readSymbol(token))) == keccak256(\"TKN\"));\n        require(TokenReader.readDecimals(token) == 0);\n    }\n\n    function test5() external {\n        address token = address(new Token5());\n\n        require(keccak256(abi.encodePacked(TokenReader.readName(token))) == keccak256(\"0123456789abcdef0123456789abcdef\"));\n        require(keccak256(abi.encodePacked(TokenReader.readSymbol(token))) == keccak256(\"0123456789abcdef0123456789abcdef\"));\n        require(TokenReader.readDecimals(token) == 0);\n    }\n\n    function test6() external {\n        address token = address(new Token6());\n\n        require(keccak256(abi.encodePacked(TokenReader.readName(token))) == keccak256(\"0123456789abcdef0123456789abcdefX\"));\n        require(keccak256(abi.encodePacked(TokenReader.readSymbol(token))) == keccak256(\"0123456789abcdef0123456789abcdefY\"));\n        require(TokenReader.readDecimals(token) == 0);\n    }\n\n    function test7() external {\n        address token = address(new Token7());\n\n        require(keccak256(abi.encodePacked(TokenReader.readName(token))) == keccak256(\"\"));\n        require(keccak256(abi.encodePacked(TokenReader.readSymbol(token))) == keccak256(\"\"));\n        require(TokenReader.readDecimals(token) == 0);\n    }\n\n    function test8() external {\n        address token = address(new Token8());\n\n        require(keccak256(abi.encodePacked(TokenReader.readName(token))) == keccak256(\"\"));\n        require(keccak256(abi.encodePacked(TokenReader.readSymbol(token))) == keccak256(\"\"));\n        require(TokenReader.readDecimals(token) == 0);\n    }\n}\n/* solhint-enable */\n",
  "sourcePath": "/Users/eabz/Documents/GitHub/tokenbridge/packages/omnibridge/contracts/mocks/TokenReaderTest.sol",
  "compiler": {
    "name": "solc",
    "version": "0.7.5+commit.eb77ed08.Emscripten.clang"
  },
  "schemaVersion": "3.4.3",
  "updatedAt": "2021-09-04T01:08:31.176Z",
  "devdoc": {
    "kind": "dev",
    "methods": {},
    "version": 1
  },
  "userdoc": {
    "kind": "user",
    "methods": {},
    "version": 1
  }
}