{
  "contractName": "TokenReaderTest",
  "abi": [
    {
      "inputs": [],
      "name": "test1",
      "outputs": [],
      "stateMutability": "nonpayable",
      "type": "function"
    },
    {
      "inputs": [],
      "name": "test2",
      "outputs": [],
      "stateMutability": "nonpayable",
      "type": "function"
    },
    {
      "inputs": [],
      "name": "test3",
      "outputs": [],
      "stateMutability": "nonpayable",
      "type": "function"
    },
    {
      "inputs": [],
      "name": "test4",
      "outputs": [],
      "stateMutability": "nonpayable",
      "type": "function"
    },
    {
      "inputs": [],
      "name": "test5",
      "outputs": [],
      "stateMutability": "nonpayable",
      "type": "function"
    },
    {
      "inputs": [],
      "name": "test6",
      "outputs": [],
      "stateMutability": "nonpayable",
      "type": "function"
    },
    {
      "inputs": [],
      "name": "test7",
      "outputs": [],
      "stateMutability": "nonpayable",
      "type": "function"
    },
    {
      "inputs": [],
      "name": "test8",
      "outputs": [],
      "stateMutability": "nonpayable",
      "type": "function"
    }
  ],
  "bytecode": "0x608060405234801561001057600080fd5b506117fd806100206000396000f3fe608060405234801561001057600080fd5b50600436106100885760003560e01c80636b59084d1161005b5780636b59084d146100af5780636f3babc4146100b75780638f0d282d146100bf578063c38f6f0b146100c757610088565b80630a8e8e011461008d5780631ad7be821461009757806366e41cb71461009f57806366e84d62146100a7575b600080fd5b6100956100cf565b005b610095610259565b6100956103de565b610095610565565b61009561065d565b61009561066b565b610095610763565b61009561085b565b60006040516100dd90610e98565b604051809103906000f0801580156100f9573d6000803e3d6000fd5b5090507f1317f51c845ce3bfb7c268e5337a825f12f3d0af9584c2bbfbf4e64e314eaf7361012682610869565b6040516020018082805190602001908083835b602083106101585780518252601f199092019160209182019101610139565b6001836020036101000a038019825116818451168082178552505050505050905001915050604051602081830303815290604052805190602001201461019d57600080fd5b7f9ee187a325c80a9ca820b4f297a58770bf5a85fede3756f8e7e9d14ff37d7b666101c782610a39565b6040516020018082805190602001908083835b602083106101f95780518252601f1990920191602091820191016101da565b6001836020036101000a038019825116818451168082178552505050505050905001915050604051602081830303815290604052805190602001201461023e57600080fd5b61024781610b6c565b60ff1660091461025657600080fd5b50565b600060405161026790610ea4565b604051809103906000f080158015610283573d6000803e3d6000fd5b5090507f9a57067ee21cfc99ac55dbc3bc5e6f9461dbd7ffc60b79a12f3e93c9c987f0cf6102b082610869565b6040516020018082805190602001908083835b602083106102e25780518252601f1990920191602091820191016102c3565b6001836020036101000a038019825116818451168082178552505050505050905001915050604051602081830303815290604052805190602001201461032757600080fd5b7f9a57067ee21cfc99ac55dbc3bc5e6f9461dbd7ffc60b79a12f3e93c9c987f0cf61035182610a39565b6040516020018082805190602001908083835b602083106103835780518252601f199092019160209182019101610364565b6001836020036101000a03801982511681845116808217855250505050505090500191505060405160208183030381529060405280519060200120146103c857600080fd5b6103d181610b6c565b60ff161561025657600080fd5b60006040516103ec90610eb0565b604051809103906000f080158015610408573d6000803e3d6000fd5b5090507f1317f51c845ce3bfb7c268e5337a825f12f3d0af9584c2bbfbf4e64e314eaf7361043582610869565b6040516020018082805190602001908083835b602083106104675780518252601f199092019160209182019101610448565b6001836020036101000a03801982511681845116808217855250505050505090500191505060405160208183030381529060405280519060200120146104ac57600080fd5b7f9ee187a325c80a9ca820b4f297a58770bf5a85fede3756f8e7e9d14ff37d7b666104d682610a39565b6040516020018082805190602001908083835b602083106105085780518252601f1990920191602091820191016104e9565b6001836020036101000a038019825116818451168082178552505050505050905001915050604051602081830303815290604052805190602001201461054d57600080fd5b61055681610b6c565b60ff1660121461025657600080fd5b600060405161057390610ebd565b604051809103906000f08015801561058f573d6000803e3d6000fd5b5090507fc5d2460186f7233c927e7db2dcc703c0e500b653ca82273b7bfad8045d85a4706105bc82610869565b6040516020018082805190602001908083835b602083106105ee5780518252601f1990920191602091820191016105cf565b6001836020036101000a038019825116818451168082178552505050505050905001915050604051602081830303815290604052805190602001201461063357600080fd5b7fc5d2460186f7233c927e7db2dcc703c0e500b653ca82273b7bfad8045d85a47061035182610a39565b60006040516103ec90610eca565b600060405161067990610ed7565b604051809103906000f080158015610695573d6000803e3d6000fd5b5090507f632deb027e6129de23bec180687cb363abb5ccdf80f587fb417e471464cf3f1b6106c282610869565b6040516020018082805190602001908083835b602083106106f45780518252601f1990920191602091820191016106d5565b6001836020036101000a038019825116818451168082178552505050505050905001915050604051602081830303815290604052805190602001201461073957600080fd5b7fb1dcbbcde4f65f2bc854ed6844aa5ed52897586781db9e5f17f178d91aa75ce861035182610a39565b600060405161077190610ee4565b604051809103906000f08015801561078d573d6000803e3d6000fd5b5090507f1317f51c845ce3bfb7c268e5337a825f12f3d0af9584c2bbfbf4e64e314eaf736107ba82610869565b6040516020018082805190602001908083835b602083106107ec5780518252601f1990920191602091820191016107cd565b6001836020036101000a038019825116818451168082178552505050505050905001915050604051602081830303815290604052805190602001201461083157600080fd5b7f9ee187a325c80a9ca820b4f297a58770bf5a85fede3756f8e7e9d14ff37d7b6661035182610a39565b600060405161057390610ef0565b60408051600481526024810182526020810180516001600160e01b03166306fdde0360e01b1781529151815160609360009385936001600160a01b03881693919290918291908083835b602083106108d25780518252601f1990920191602091820191016108b3565b6001836020036101000a038019825116818451168082178552505050505050905001915050600060405180830381855afa9150503d8060008114610932576040519150601f19603f3d011682016040523d82523d6000602084013e610937565b606091505b509150915081610a265760408051600481526024810182526020810180516001600160e01b03166351fa6fbf60e11b178152915181516001600160a01b0388169382918083835b6020831061099d5780518252601f19909201916020918201910161097e565b6001836020036101000a038019825116818451168082178552505050505050905001915050600060405180830381855afa9150503d80600081146109fd576040519150601f19603f3d011682016040523d82523d6000602084013e610a02565b606091505b50909250905081610a26576040518060200160405280600081525092505050610a34565b610a2f81610d3a565b925050505b919050565b60408051600481526024810182526020810180516001600160e01b03166395d89b4160e01b1781529151815160609360009385936001600160a01b03881693919290918291908083835b60208310610aa25780518252601f199092019160209182019101610a83565b6001836020036101000a038019825116818451168082178552505050505050905001915050600060405180830381855afa9150503d8060008114610b02576040519150601f19603f3d011682016040523d82523d6000602084013e610b07565b606091505b509150915081610a265760408051600481526024810182526020810180516001600160e01b0316631eedf1af60e31b178152915181516001600160a01b0388169382918083836020831061099d5780518252601f19909201916020918201910161097e565b60408051600481526024810182526020810180516001600160e01b031663313ce56760e01b1781529151815160009384936060936001600160a01b03881693919290918291908083835b60208310610bd55780518252601f199092019160209182019101610bb6565b6001836020036101000a038019825116818451168082178552505050505050905001915050600060405180830381855afa9150503d8060008114610c35576040519150601f19603f3d011682016040523d82523d6000602084013e610c3a565b606091505b509150915081610d1b5760408051600481526024810182526020810180516001600160e01b0316632e0f262560e01b178152915181516001600160a01b0388169382918083835b60208310610ca05780518252601f199092019160209182019101610c81565b6001836020036101000a038019825116818451168082178552505050505050905001915050600060405180830381855afa9150503d8060008114610d00576040519150601f19603f3d011682016040523d82523d6000602084013e610d05565b606091505b50909250905081610d1b57600092505050610a34565b808060200190516020811015610d3057600080fd5b5051949350505050565b6060602082511115610e1257818060200190516020811015610d5b57600080fd5b8101908080516040519392919084640100000000821115610d7b57600080fd5b908301906020820185811115610d9057600080fd5b8251640100000000811182820188101715610daa57600080fd5b82525081516020918201929091019080838360005b83811015610dd7578181015183820152602001610dbf565b50505050905090810190601f168015610e045780820380516001836020036101000a031916815260200191505b506040525050509050610a34565b815160201415610e83576000828060200190516020811015610e3357600080fd5b50516040805160208082528183019092529192506060919060208201818036833701905050905060008260208301525b8215610e785760089290921b91600101610e63565b81529150610a349050565b50604080516020810190915260008152610a34565b60d580610efd83390190565b60c780610fd283390190565b6101808061109983390190565b6101388061121983390190565b6101808061135183390190565b610198806114d183390190565b60bf8061166983390190565b60a0806117288339019056fe608060405234801561001057600080fd5b5060b68061001f6000396000f3fe6080604052348015600f57600080fd5b5060043610603c5760003560e01c806306fdde03146041578063313ce56714605957806395d89b4114605f575b600080fd5b60476065565b60408051918252519081900360200190f35b60476071565b60476076565b642a37b5b2b760d91b90565b600990565b622a25a760e91b9056fea26469706673582212208dca14b9e891f542fd6cb45642ec6abe4f040214649e9d60b353d9aa236c5d5764736f6c634300070500336080604052348015600f57600080fd5b5060a98061001e6000396000f3fe6080604052348015600f57600080fd5b506004361060325760003560e01c806306fdde03146037578063f76f8d78146037575b600080fd5b603d604f565b60408051918252519081900360200190f35b7f30313233343536373839616263646566303132333435363738396162636465669056fea2646970667358221220c84960ccaeea33a41dfe521bc67bc5f7c47c36b6754014866ef5a7e9d8c297d564736f6c63430007050033608060405234801561001057600080fd5b50610160806100206000396000f3fe608060405234801561001057600080fd5b50600436106100415760003560e01c80632e0f262514610046578063a3f4df7e14610064578063f76f8d78146100e1575b600080fd5b61004e6100e9565b6040805160ff9092168252519081900360200190f35b61006c6100ee565b6040805160208082528351818301528351919283929083019185019080838360005b838110156100a657818101518382015260200161008e565b50505050905090810190601f1680156100d35780820380516001836020036101000a031916815260200191505b509250505060405180910390f35b61006c61010d565b601290565b6040805180820190915260058152642a37b5b2b760d91b602082015290565b6040805180820190915260038152622a25a760e91b60208201529056fea26469706673582212207e6ddca5020afe3463c6fe1d6e8ac319a579be210c8a7757045dae9cf52351df64736f6c63430007050033608060405234801561001057600080fd5b50610118806100206000396000f3fe6080604052348015600f57600080fd5b506004361060325760003560e01c8063313ce56714603757806395d89b41146053575b600080fd5b603d60cb565b6040805160ff9092168252519081900360200190f35b605960d0565b6040805160208082528351818301528351919283929083019185019080838360005b838110156091578181015183820152602001607b565b50505050905090810190601f16801560bd5780820380516001836020036101000a031916815260200191505b509250505060405180910390f35b600090565b6040805160208101909152600081529056fea2646970667358221220d4df050331f981fb2184d2ea39b2caec3e64b53f59f7903932940899348a611964736f6c63430007050033608060405234801561001057600080fd5b50610160806100206000396000f3fe608060405234801561001057600080fd5b50600436106100415760003560e01c806306fdde0314610046578063313ce567146100c357806395d89b41146100e1575b600080fd5b61004e6100e9565b6040805160208082528351818301528351919283929083019185019080838360005b83811015610088578181015183820152602001610070565b50505050905090810190601f1680156100b55780820380516001836020036101000a031916815260200191505b509250505060405180910390f35b6100cb610108565b6040805160ff9092168252519081900360200190f35b61004e61010d565b6040805180820190915260058152642a37b5b2b760d91b602082015290565b601290565b6040805180820190915260038152622a25a760e91b60208201529056fea26469706673582212204c5a5beef1f510bf97e968d4c81077b6dbbdbefa6a94acd10b236cd2bc53a96264736f6c63430007050033608060405234801561001057600080fd5b50610178806100206000396000f3fe608060405234801561001057600080fd5b50600436106100365760003560e01c806395d89b411461003b578063a3f4df7e146100b8575b600080fd5b6100436100c0565b6040805160208082528351818301528351919283929083019185019080838360005b8381101561007d578181015183820152602001610065565b50505050905090810190601f1680156100aa5780820380516001836020036101000a031916815260200191505b509250505060405180910390f35b6100436100e0565b606060405180606001604052806021815260200161012260219139905090565b60606040518060600160405280602181526020016101016021913990509056fe303132333435363738396162636465663031323334353637383961626364656658303132333435363738396162636465663031323334353637383961626364656659a2646970667358221220b45b3b2c1120709060120fec0f02c52d030d5d3c84e35ec55afac08dd160a66064736f6c634300070500336080604052348015600f57600080fd5b5060a18061001e6000396000f3fe6080604052348015600f57600080fd5b506004361060325760003560e01c8063a3f4df7e146037578063f76f8d7814604f575b600080fd5b603d6055565b60408051918252519081900360200190f35b603d6061565b642a37b5b2b760d91b90565b622a25a760e91b9056fea2646970667358221220ce0c43c7b00a89123021dec8b95434c359bcb5915b6ab0c82d7e47ba59bfd27964736f6c634300070500336080604052348015600f57600080fd5b50608380601d6000396000f3fe6080604052348015600f57600080fd5b506040805162461bcd60e51b815260206004820152600d60248201526c4572726f72206d65737361676560981b604482015290519081900360640190fdfea2646970667358221220d7f72b7617b49565b9b99026b0f298968ef89ce0f1d03028e461fe93ed40fe2e64736f6c63430007050033a26469706673582212208accb6fcfd572031c1c556b7d631bf877ccaacd6dac611d1b916ae0c17908f3164736f6c63430007050033",
  "immutableReferences": {},
  "source": "/* solhint-disable */\npragma solidity 0.7.5;\n\nimport \"../libraries/TokenReader.sol\";\n\ncontract Token1 {\n    function name() external pure returns (string memory) {\n        return \"Token\";\n    }\n\n    function symbol() external pure returns (string memory) {\n        return \"TKN\";\n    }\n\n    function decimals() external pure returns (uint8) {\n        return 18;\n    }\n}\n\ncontract Token2 {\n    function NAME() external pure returns (string memory) {\n        return \"Token\";\n    }\n\n    function SYMBOL() external pure returns (string memory) {\n        return \"TKN\";\n    }\n\n    function DECIMALS() external pure returns (uint8) {\n        return 18;\n    }\n}\n\ncontract Token3 {\n    function name() external pure returns (bytes32) {\n        return bytes32(\"Token\");\n    }\n\n    function symbol() external pure returns (bytes32) {\n        return bytes32(\"TKN\");\n    }\n\n    function decimals() external pure returns (uint256) {\n        return 9;\n    }\n}\n\ncontract Token4 {\n    function NAME() external pure returns (bytes32) {\n        return bytes32(\"Token\");\n    }\n\n    function SYMBOL() external pure returns (bytes32) {\n        return bytes32(\"TKN\");\n    }\n}\n\ncontract Token5 {\n    function name() external pure returns (bytes32) {\n        return bytes32(\"0123456789abcdef0123456789abcdef\");\n    }\n\n    function SYMBOL() external pure returns (bytes32) {\n        return bytes32(\"0123456789abcdef0123456789abcdef\");\n    }\n}\n\ncontract Token6 {\n    function NAME() external pure returns (string memory) {\n        return \"0123456789abcdef0123456789abcdefX\";\n    }\n\n    function symbol() external pure returns (string memory) {\n        return \"0123456789abcdef0123456789abcdefY\";\n    }\n}\n\ncontract Token7 {\n    function symbol() external pure returns (string memory) {\n        return \"\";\n    }\n\n    function decimals() external pure returns (uint8) {\n        return 0;\n    }\n}\n\ncontract Token8 {\n    fallback() external {\n        revert(\"Error message\");\n    }\n}\n\ncontract TokenReaderTest {\n    function test1() external {\n        address token = address(new Token1());\n\n        require(keccak256(abi.encodePacked(TokenReader.readName(token))) == keccak256(\"Token\"));\n        require(keccak256(abi.encodePacked(TokenReader.readSymbol(token))) == keccak256(\"TKN\"));\n        require(TokenReader.readDecimals(token) == 18);\n    }\n\n    function test2() external {\n        address token = address(new Token2());\n\n        require(keccak256(abi.encodePacked(TokenReader.readName(token))) == keccak256(\"Token\"));\n        require(keccak256(abi.encodePacked(TokenReader.readSymbol(token))) == keccak256(\"TKN\"));\n        require(TokenReader.readDecimals(token) == 18);\n    }\n\n    function test3() external {\n        address token = address(new Token3());\n\n        require(keccak256(abi.encodePacked(TokenReader.readName(token))) == keccak256(\"Token\"));\n        require(keccak256(abi.encodePacked(TokenReader.readSymbol(token))) == keccak256(\"TKN\"));\n        require(TokenReader.readDecimals(token) == 9);\n    }\n\n    function test4() external {\n        address token = address(new Token4());\n\n        require(keccak256(abi.encodePacked(TokenReader.readName(token))) == keccak256(\"Token\"));\n        require(keccak256(abi.encodePacked(TokenReader.readSymbol(token))) == keccak256(\"TKN\"));\n        require(TokenReader.readDecimals(token) == 0);\n    }\n\n    function test5() external {\n        address token = address(new Token5());\n\n        require(keccak256(abi.encodePacked(TokenReader.readName(token))) == keccak256(\"0123456789abcdef0123456789abcdef\"));\n        require(keccak256(abi.encodePacked(TokenReader.readSymbol(token))) == keccak256(\"0123456789abcdef0123456789abcdef\"));\n        require(TokenReader.readDecimals(token) == 0);\n    }\n\n    function test6() external {\n        address token = address(new Token6());\n\n        require(keccak256(abi.encodePacked(TokenReader.readName(token))) == keccak256(\"0123456789abcdef0123456789abcdefX\"));\n        require(keccak256(abi.encodePacked(TokenReader.readSymbol(token))) == keccak256(\"0123456789abcdef0123456789abcdefY\"));\n        require(TokenReader.readDecimals(token) == 0);\n    }\n\n    function test7() external {\n        address token = address(new Token7());\n\n        require(keccak256(abi.encodePacked(TokenReader.readName(token))) == keccak256(\"\"));\n        require(keccak256(abi.encodePacked(TokenReader.readSymbol(token))) == keccak256(\"\"));\n        require(TokenReader.readDecimals(token) == 0);\n    }\n\n    function test8() external {\n        address token = address(new Token8());\n\n        require(keccak256(abi.encodePacked(TokenReader.readName(token))) == keccak256(\"\"));\n        require(keccak256(abi.encodePacked(TokenReader.readSymbol(token))) == keccak256(\"\"));\n        require(TokenReader.readDecimals(token) == 0);\n    }\n}\n/* solhint-enable */\n",
  "sourcePath": "/Users/eabz/Documents/GitHub/tokenbridge/packages/omnibridge/contracts/mocks/TokenReaderTest.sol",
  "compiler": {
    "name": "solc",
    "version": "0.7.5+commit.eb77ed08.Emscripten.clang"
  },
  "schemaVersion": "3.4.3",
  "updatedAt": "2021-09-04T01:08:31.239Z",
  "devdoc": {
    "kind": "dev",
    "methods": {},
    "version": 1
  },
  "userdoc": {
    "kind": "user",
    "methods": {},
    "version": 1
  }
}