{
  "contractName": "UpgradeabilityStorage",
  "abi": [
    {
      "inputs": [],
      "name": "version",
      "outputs": [
        {
          "internalType": "uint256",
          "name": "",
          "type": "uint256"
        }
      ],
      "stateMutability": "view",
      "type": "function"
    },
    {
      "inputs": [],
      "name": "implementation",
      "outputs": [
        {
          "internalType": "address",
          "name": "",
          "type": "address"
        }
      ],
      "stateMutability": "view",
      "type": "function"
    }
  ],
  "bytecode": "0x608060405234801561001057600080fd5b5060bc8061001f6000396000f3fe6080604052348015600f57600080fd5b506004361060325760003560e01c806354fd4d501460375780635c60da1b14604f575b600080fd5b603d6071565b60408051918252519081900360200190f35b60556077565b604080516001600160a01b039092168252519081900360200190f35b60005490565b6001546001600160a01b03169056fea2646970667358221220d4a7a99780cbe1ff051d9cb57cb102e1e10672cc93e34c3c00bc2e58b890d34264736f6c63430007050033",
  "immutableReferences": {},
  "source": "pragma solidity 0.7.5;\n\n/**\n * @title UpgradeabilityStorage\n * @dev This contract holds all the necessary state variables to support the upgrade functionality\n */\ncontract UpgradeabilityStorage {\n    // Version name of the current implementation\n    uint256 internal _version;\n\n    // Address of the current implementation\n    address internal _implementation;\n\n    /**\n     * @dev Tells the version name of the current implementation\n     * @return uint256 representing the name of the current version\n     */\n    function version() external view returns (uint256) {\n        return _version;\n    }\n\n    /**\n     * @dev Tells the address of the current implementation\n     * @return address of the current implementation\n     */\n    function implementation() public view virtual returns (address) {\n        return _implementation;\n    }\n}\n",
  "sourcePath": "/Users/eabz/Documents/GitHub/tokenbridge/packages/omnibridge/contracts/upgradeability/UpgradeabilityStorage.sol",
  "compiler": {
    "name": "solc",
    "version": "0.7.5+commit.eb77ed08.Emscripten.clang"
  },
  "schemaVersion": "3.4.3",
  "updatedAt": "2021-09-04T01:08:31.256Z",
  "devdoc": {
    "details": "This contract holds all the necessary state variables to support the upgrade functionality",
    "kind": "dev",
    "methods": {
      "implementation()": {
        "details": "Tells the address of the current implementation",
        "returns": {
          "_0": "address of the current implementation"
        }
      },
      "version()": {
        "details": "Tells the version name of the current implementation",
        "returns": {
          "_0": "uint256 representing the name of the current version"
        }
      }
    },
    "title": "UpgradeabilityStorage",
    "version": 1
  },
  "userdoc": {
    "kind": "user",
    "methods": {},
    "version": 1
  }
}