{
  "contractName": "UpgradeabilityOwnerStorage",
  "abi": [
    {
      "inputs": [],
      "name": "upgradeabilityOwner",
      "outputs": [
        {
          "internalType": "address",
          "name": "",
          "type": "address"
        }
      ],
      "stateMutability": "view",
      "type": "function"
    }
  ],
  "bytecode": "0x6080604052348015600f57600080fd5b5060948061001e6000396000f3fe6080604052348015600f57600080fd5b506004361060285760003560e01c80636fde820214602d575b600080fd5b6033604f565b604080516001600160a01b039092168252519081900360200190f35b6000546001600160a01b03169056fea2646970667358221220bcada82ff1f977aa9e1b1e9de2c87a50f25b7423e455ded793ac42f989f4970364736f6c63430007050033",
  "immutableReferences": {},
  "source": "pragma solidity 0.7.5;\n\n/**\n * @title UpgradeabilityOwnerStorage\n * @dev This contract keeps track of the upgradeability owner\n */\ncontract UpgradeabilityOwnerStorage {\n    // Owner of the contract\n    address internal _upgradeabilityOwner;\n\n    /**\n     * @dev Tells the address of the owner\n     * @return the address of the owner\n     */\n    function upgradeabilityOwner() public view returns (address) {\n        return _upgradeabilityOwner;\n    }\n\n    /**\n     * @dev Sets the address of the owner\n     */\n    function setUpgradeabilityOwner(address newUpgradeabilityOwner) internal {\n        _upgradeabilityOwner = newUpgradeabilityOwner;\n    }\n}\n",
  "sourcePath": "/Users/eabz/Documents/GitHub/tokenbridge/packages/omnibridge/contracts/upgradeability/UpgradeabilityOwnerStorage.sol",
  "compiler": {
    "name": "solc",
    "version": "0.7.5+commit.eb77ed08.Emscripten.clang"
  },
  "schemaVersion": "3.4.3",
  "updatedAt": "2021-09-04T01:08:31.255Z",
  "devdoc": {
    "details": "This contract keeps track of the upgradeability owner",
    "kind": "dev",
    "methods": {
      "upgradeabilityOwner()": {
        "details": "Tells the address of the owner",
        "returns": {
          "_0": "the address of the owner"
        }
      }
    },
    "title": "UpgradeabilityOwnerStorage",
    "version": 1
  },
  "userdoc": {
    "kind": "user",
    "methods": {},
    "version": 1
  }
}