{
  "contractName": "UpgradeabilityProxy",
  "abi": [
    {
      "anonymous": false,
      "inputs": [
        {
          "indexed": false,
          "internalType": "uint256",
          "name": "version",
          "type": "uint256"
        },
        {
          "indexed": true,
          "internalType": "address",
          "name": "implementation",
          "type": "address"
        }
      ],
      "name": "Upgraded",
      "type": "event"
    },
    {
      "stateMutability": "payable",
      "type": "fallback"
    },
    {
      "inputs": [],
      "name": "version",
      "outputs": [
        {
          "internalType": "uint256",
          "name": "",
          "type": "uint256"
        }
      ],
      "stateMutability": "view",
      "type": "function"
    },
    {
      "inputs": [],
      "name": "implementation",
      "outputs": [
        {
          "internalType": "address",
          "name": "",
          "type": "address"
        }
      ],
      "stateMutability": "view",
      "type": "function"
    }
  ],
  "bytecode": "0x608060405234801561001057600080fd5b50610115806100206000396000f3fe60806040526004361060265760003560e01c806354fd4d5014606b5780635c60da1b14608f575b6000602e60bd565b90506001600160a01b038116604257600080fd5b60405136600082376000803683855af43d82016040523d6000833e8080156067573d83f35b3d83fd5b348015607657600080fd5b50607d60ca565b60408051918252519081900360200190f35b348015609a57600080fd5b5060a160bd565b604080516001600160a01b039092168252519081900360200190f35b600060c560d0565b905090565b60005490565b6001546001600160a01b03169056fea2646970667358221220355d574bd65c3e92f9e43dd6ee394d8422ddf6a19a1f8d66e3597353b6d898c464736f6c63430007050033",
  "immutableReferences": {},
  "source": "pragma solidity 0.7.5;\n\nimport \"@openzeppelin/contracts/utils/Address.sol\";\nimport \"./Proxy.sol\";\nimport \"./UpgradeabilityStorage.sol\";\n\n/**\n * @title UpgradeabilityProxy\n * @dev This contract represents a proxy where the implementation address to which it will delegate can be upgraded\n */\ncontract UpgradeabilityProxy is Proxy, UpgradeabilityStorage {\n    /**\n     * @dev This event will be emitted every time the implementation gets upgraded\n     * @param version representing the version name of the upgraded implementation\n     * @param implementation representing the address of the upgraded implementation\n     */\n    event Upgraded(uint256 version, address indexed implementation);\n\n    /**\n     * @dev Tells the address of the current implementation\n     * @return address of the current implementation\n     */\n    function implementation() public view override(Proxy, UpgradeabilityStorage) returns (address) {\n        return UpgradeabilityStorage.implementation();\n    }\n\n    /**\n     * @dev Upgrades the implementation address\n     * @param version representing the version name of the new implementation to be set\n     * @param implementation representing the address of the new implementation to be set\n     */\n    function _upgradeTo(uint256 version, address implementation) internal {\n        require(_implementation != implementation);\n\n        // This additional check verifies that provided implementation is at least a contract\n        require(Address.isContract(implementation));\n\n        // This additional check guarantees that new version will be at least greater than the previous one,\n        // so it is impossible to reuse old versions, or use the last version twice\n        require(version > _version);\n\n        _version = version;\n        _implementation = implementation;\n        emit Upgraded(version, implementation);\n    }\n}\n",
  "sourcePath": "/Users/eabz/Documents/GitHub/tokenbridge/packages/omnibridge/contracts/upgradeability/UpgradeabilityProxy.sol",
  "compiler": {
    "name": "solc",
    "version": "0.7.5+commit.eb77ed08.Emscripten.clang"
  },
  "schemaVersion": "3.4.3",
  "updatedAt": "2021-09-04T01:08:31.255Z",
  "devdoc": {
    "details": "This contract represents a proxy where the implementation address to which it will delegate can be upgraded",
    "events": {
      "Upgraded(uint256,address)": {
        "details": "This event will be emitted every time the implementation gets upgraded",
        "params": {
          "implementation": "representing the address of the upgraded implementation",
          "version": "representing the version name of the upgraded implementation"
        }
      }
    },
    "kind": "dev",
    "methods": {
      "implementation()": {
        "details": "Tells the address of the current implementation",
        "returns": {
          "_0": "address of the current implementation"
        }
      },
      "version()": {
        "details": "Tells the version name of the current implementation",
        "returns": {
          "_0": "uint256 representing the name of the current version"
        }
      }
    },
    "title": "UpgradeabilityProxy",
    "version": 1
  },
  "userdoc": {
    "kind": "user",
    "methods": {},
    "version": 1
  }
}