{
  "contractName": "WETHOmnibridgeRouter",
  "abi": [
    {
      "inputs": [
        {
          "internalType": "contract IOmnibridge",
          "name": "_bridge",
          "type": "address"
        },
        {
          "internalType": "contract IWETH",
          "name": "_weth",
          "type": "address"
        },
        {
          "internalType": "address",
          "name": "_owner",
          "type": "address"
        }
      ],
      "stateMutability": "nonpayable",
      "type": "constructor"
    },
    {
      "inputs": [],
      "name": "WETH",
      "outputs": [
        {
          "internalType": "contract IWETH",
          "name": "",
          "type": "address"
        }
      ],
      "stateMutability": "view",
      "type": "function"
    },
    {
      "inputs": [],
      "name": "bridge",
      "outputs": [
        {
          "internalType": "contract IOmnibridge",
          "name": "",
          "type": "address"
        }
      ],
      "stateMutability": "view",
      "type": "function"
    },
    {
      "inputs": [],
      "name": "owner",
      "outputs": [
        {
          "internalType": "address",
          "name": "",
          "type": "address"
        }
      ],
      "stateMutability": "view",
      "type": "function"
    },
    {
      "inputs": [
        {
          "internalType": "address",
          "name": "_newOwner",
          "type": "address"
        }
      ],
      "name": "transferOwnership",
      "outputs": [],
      "stateMutability": "nonpayable",
      "type": "function"
    },
    {
      "stateMutability": "payable",
      "type": "receive"
    },
    {
      "inputs": [],
      "name": "wrapAndRelayTokens",
      "outputs": [],
      "stateMutability": "payable",
      "type": "function"
    },
    {
      "inputs": [
        {
          "internalType": "address",
          "name": "_receiver",
          "type": "address"
        }
      ],
      "name": "wrapAndRelayTokens",
      "outputs": [],
      "stateMutability": "payable",
      "type": "function"
    },
    {
      "inputs": [
        {
          "internalType": "address",
          "name": "_token",
          "type": "address"
        },
        {
          "internalType": "uint256",
          "name": "_value",
          "type": "uint256"
        },
        {
          "internalType": "bytes",
          "name": "_data",
          "type": "bytes"
        }
      ],
      "name": "onTokenBridged",
      "outputs": [],
      "stateMutability": "nonpayable",
      "type": "function"
    },
    {
      "inputs": [
        {
          "internalType": "address",
          "name": "_token",
          "type": "address"
        },
        {
          "internalType": "address",
          "name": "_to",
          "type": "address"
        }
      ],
      "name": "claimTokens",
      "outputs": [],
      "stateMutability": "nonpayable",
      "type": "function"
    }
  ],
  "bytecode": "0x60c060405234801561001057600080fd5b50604051610b90380380610b908339818101604052606081101561003357600080fd5b5080516020820151604092830151600080546001600160a01b038084166001600160a01b03199092169190911782556001600160601b0319606086811b821660805285901b1660a052855163095ea7b360e01b81528186166004820152600019602482015295519495939492939085169263095ea7b39260448084019391929182900301818387803b1580156100c857600080fd5b505af11580156100dc573d6000803e3d6000fd5b5050505050505060805160601c60a05160601c610a6261012e60003980608f52806102c052806102e45280610365528061045752806104fa52508061032b52806103fa52806104cb5250610a626000f3fe60806040526004361061007f5760003560e01c8063db7af8541161004e578063db7af85414610149578063e78cea9214610211578063f2fde38b14610226578063f52cbf0e14610259576100bb565b806301a754ff146100c057806369ffa08a146100c85780638da5cb5b14610103578063ad5c464814610134576100bb565b366100bb57336001600160a01b037f000000000000000000000000000000000000000000000000000000000000000016146100b957600080fd5b005b600080fd5b6100b961027f565b3480156100d457600080fd5b506100b9600480360360408110156100eb57600080fd5b506001600160a01b038135811691602001351661028a565b34801561010f57600080fd5b506101186102af565b604080516001600160a01b039092168252519081900360200190f35b34801561014057600080fd5b506101186102be565b34801561015557600080fd5b506100b96004803603606081101561016c57600080fd5b6001600160a01b038235169160208101359181019060608101604082013564010000000081111561019c57600080fd5b8201836020820111156101ae57600080fd5b803590602001918460018302840111640100000000831117156101d057600080fd5b91908080601f0160208091040260200160405190810160405280939291908181526020018383808284376000920191909152509295506102e2945050505050565b34801561021d57600080fd5b506101186103f8565b34801561023257600080fd5b506100b96004803603602081101561024957600080fd5b50356001600160a01b031661041c565b6100b96004803603602081101561026f57600080fd5b50356001600160a01b0316610455565b61028833610455565b565b6000546001600160a01b031633146102a157600080fd5b6102ab828261058c565b5050565b6000546001600160a01b031681565b7f000000000000000000000000000000000000000000000000000000000000000081565b7f00000000000000000000000000000000000000000000000000000000000000006001600160a01b0316836001600160a01b03161461032057600080fd5b336001600160a01b037f0000000000000000000000000000000000000000000000000000000000000000161461035557600080fd5b805160141461036357600080fd5b7f00000000000000000000000000000000000000000000000000000000000000006001600160a01b0316632e1a7d4d836040518263ffffffff1660e01b815260040180828152602001915050600060405180830381600087803b1580156103c957600080fd5b505af11580156103dd573d6000803e3d6000fd5b505050506103f36103ed826105c6565b836105cd565b505050565b7f000000000000000000000000000000000000000000000000000000000000000081565b6000546001600160a01b0316331461043357600080fd5b600080546001600160a01b0319166001600160a01b0392909216919091179055565b7f00000000000000000000000000000000000000000000000000000000000000006001600160a01b031663d0e30db0346040518263ffffffff1660e01b81526004016000604051808303818588803b1580156104b057600080fd5b505af11580156104c4573d6000803e3d6000fd5b50505050507f00000000000000000000000000000000000000000000000000000000000000006001600160a01b031663ad58bdd17f000000000000000000000000000000000000000000000000000000000000000083346040518463ffffffff1660e01b815260040180846001600160a01b03168152602001836001600160a01b031681526020018281526020019350505050600060405180830381600087803b15801561057157600080fd5b505af1158015610585573d6000803e3d6000fd5b5050505050565b806001600160a01b0381166105a057600080fd5b6001600160a01b0383166105bc576105b782610638565b6103f3565b6103f38383610643565b6014015190565b6040516001600160a01b0383169082156108fc029083906000818181858888f193505050506102ab578082604051610604906109c4565b6001600160a01b039091168152604051908190036020019082f0905080158015610632573d6000803e3d6000fd5b50505050565b476102ab82826105cd565b604080516370a0823160e01b8152306004820152905183916000916001600160a01b038416916370a08231916024808301926020929190829003018186803b15801561068e57600080fd5b505afa1580156106a2573d6000803e3d6000fd5b505050506040513d60208110156106b857600080fd5b505190506106326001600160a01b0383168483604080516001600160a01b038416602482015260448082018490528251808303909101815260649091019091526020810180516001600160e01b031663a9059cbb60e01b1790526103f3908490606061076d826040518060400160405280602081526020017f5361666545524332303a206c6f772d6c6576656c2063616c6c206661696c6564815250856001600160a01b03166107c99092919063ffffffff16565b8051909150156103f35780806020019051602081101561078c57600080fd5b50516103f35760405162461bcd60e51b815260040180806020018281038252602a815260200180610a03602a913960400191505060405180910390fd5b60606107d884846000856107e0565b949350505050565b60606107eb8561098b565b61083c576040805162461bcd60e51b815260206004820152601d60248201527f416464726573733a2063616c6c20746f206e6f6e2d636f6e7472616374000000604482015290519081900360640190fd5b60006060866001600160a01b031685876040518082805190602001908083835b6020831061087b5780518252601f19909201916020918201910161085c565b6001836020036101000a03801982511681845116808217855250505050505090500191505060006040518083038185875af1925050503d80600081146108dd576040519150601f19603f3d011682016040523d82523d6000602084013e6108e2565b606091505b509150915081156108f65791506107d89050565b8051156109065780518082602001fd5b8360405162461bcd60e51b81526004018080602001828103825283818151815260200191508051906020019080838360005b83811015610950578181015183820152602001610938565b50505050905090810190601f16801561097d5780820380516001836020036101000a031916815260200191505b509250505060405180910390fd5b6000813f7fc5d2460186f7233c927e7db2dcc703c0e500b653ca82273b7bfad8045d85a4708181148015906107d8575050151592915050565b6032806109d18339019056fe60806040526040516032380380603283398181016040526020811015602357600080fd5b50516001600160a01b038116fffe5361666545524332303a204552433230206f7065726174696f6e20646964206e6f742073756363656564a2646970667358221220758057b5f979332b162b85b9ff2e26e4e0a5db560a62d8fb6bdbfb032f0767ca64736f6c63430007050033",
  "immutableReferences": {
    "705": [
      {
        "length": 32,
        "start": 811
      },
      {
        "length": 32,
        "start": 1018
      },
      {
        "length": 32,
        "start": 1227
      }
    ],
    "707": [
      {
        "length": 32,
        "start": 143
      },
      {
        "length": 32,
        "start": 704
      },
      {
        "length": 32,
        "start": 740
      },
      {
        "length": 32,
        "start": 869
      },
      {
        "length": 32,
        "start": 1111
      },
      {
        "length": 32,
        "start": 1274
      }
    ]
  },
  "source": "pragma solidity 0.7.5;\n\nimport \"../interfaces/IOmnibridge.sol\";\nimport \"../interfaces/IWETH.sol\";\nimport \"../libraries/AddressHelper.sol\";\nimport \"../libraries/Bytes.sol\";\nimport \"../upgradeable_contracts/modules/OwnableModule.sol\";\nimport \"../upgradeable_contracts/Claimable.sol\";\n\n/**\n * @title WETHOmnibridgeRouter\n * @dev Omnibridge extension for processing native and wrapped native assets.\n * Intended to work with WETH/WBNB/WXDAI tokens, see:\n *   https://etherscan.io/address/0xc02aaa39b223fe8d0a0e5c4f27ead9083c756cc2\n *   https://bscscan.com/address/0xbb4CdB9CBd36B01bD1cBaEBF2De08d9173bc095c\n *   https://blockscout.com/poa/xdai/address/0xe91D153E0b41518A2Ce8Dd3D7944Fa863463a97d\n */\ncontract WETHOmnibridgeRouter is OwnableModule, Claimable {\n    IOmnibridge public immutable bridge;\n    IWETH public immutable WETH;\n\n    /**\n     * @dev Initializes this contract.\n     * @param _bridge address of the HomeOmnibridge/ForeignOmnibridge contract.\n     * @param _weth address of the WETH token used for wrapping/unwrapping native coins (e.g. WETH/WBNB/WXDAI).\n     * @param _owner address of the contract owner.\n     */\n    constructor(\n        IOmnibridge _bridge,\n        IWETH _weth,\n        address _owner\n    ) OwnableModule(_owner) {\n        bridge = _bridge;\n        WETH = _weth;\n        _weth.approve(address(_bridge), uint256(-1));\n    }\n\n    /**\n     * @dev Wraps native assets and relays wrapped ERC20 tokens to the other chain.\n     * Call msg.sender will receive assets on the other side of the bridge.\n     */\n    function wrapAndRelayTokens() external payable {\n        wrapAndRelayTokens(msg.sender);\n    }\n\n    /**\n     * @dev Wraps native assets and relays wrapped ERC20 tokens to the other chain.\n     * @param _receiver bridged assets receiver on the other side of the bridge.\n     */\n    function wrapAndRelayTokens(address _receiver) public payable {\n        WETH.deposit{ value: msg.value }();\n        bridge.relayTokens(address(WETH), _receiver, msg.value);\n    }\n\n    /**\n     * @dev Bridged callback function used for unwrapping received tokens.\n     * Can only be called by the associated Omnibridge contract.\n     * @param _token bridged token contract address, should be WETH.\n     * @param _value amount of bridged/received tokens.\n     * @param _data extra data passed alongside with relayTokensAndCall on the other side of the bridge.\n     * Should contain coins receiver address.\n     */\n    function onTokenBridged(\n        address _token,\n        uint256 _value,\n        bytes memory _data\n    ) external {\n        require(_token == address(WETH));\n        require(msg.sender == address(bridge));\n        require(_data.length == 20);\n\n        WETH.withdraw(_value);\n\n        AddressHelper.safeSendValue(payable(Bytes.bytesToAddress(_data)), _value);\n    }\n\n    /**\n     * @dev Claims stuck coins/tokens.\n     * Only contract owner can call this method.\n     * @param _token address of claimed token contract, address(0) for native coins.\n     * @param _to address of tokens receiver\n     */\n    function claimTokens(address _token, address _to) external onlyOwner {\n        claimValues(_token, _to);\n    }\n\n    /**\n     * @dev Ether receive function.\n     * Should be only called from the WETH contract when withdrawing native coins. Will revert otherwise.\n     */\n    receive() external payable {\n        require(msg.sender == address(WETH));\n    }\n}\n",
  "sourcePath": "/Users/eabz/Documents/GitHub/tokenbridge/packages/omnibridge/contracts/helpers/WETHOmnibridgeRouter.sol",
  "compiler": {
    "name": "solc",
    "version": "0.7.5+commit.eb77ed08.Emscripten.clang"
  },
  "schemaVersion": "3.4.3",
  "updatedAt": "2021-09-04T01:08:31.123Z",
  "devdoc": {
    "details": "Omnibridge extension for processing native and wrapped native assets. Intended to work with WETH/WBNB/WXDAI tokens, see:   https://etherscan.io/address/0xc02aaa39b223fe8d0a0e5c4f27ead9083c756cc2   https://bscscan.com/address/0xbb4CdB9CBd36B01bD1cBaEBF2De08d9173bc095c   https://blockscout.com/poa/xdai/address/0xe91D153E0b41518A2Ce8Dd3D7944Fa863463a97d",
    "kind": "dev",
    "methods": {
      "claimTokens(address,address)": {
        "details": "Claims stuck coins/tokens. Only contract owner can call this method.",
        "params": {
          "_to": "address of tokens receiver",
          "_token": "address of claimed token contract, address(0) for native coins."
        }
      },
      "constructor": {
        "details": "Initializes this contract.",
        "params": {
          "_bridge": "address of the HomeOmnibridge/ForeignOmnibridge contract.",
          "_owner": "address of the contract owner.",
          "_weth": "address of the WETH token used for wrapping/unwrapping native coins (e.g. WETH/WBNB/WXDAI)."
        }
      },
      "onTokenBridged(address,uint256,bytes)": {
        "details": "Bridged callback function used for unwrapping received tokens. Can only be called by the associated Omnibridge contract.",
        "params": {
          "_data": "extra data passed alongside with relayTokensAndCall on the other side of the bridge. Should contain coins receiver address.",
          "_token": "bridged token contract address, should be WETH.",
          "_value": "amount of bridged/received tokens."
        }
      },
      "transferOwnership(address)": {
        "details": "Changes the owner of this contract.",
        "params": {
          "_newOwner": "address of the new owner."
        }
      },
      "wrapAndRelayTokens()": {
        "details": "Wraps native assets and relays wrapped ERC20 tokens to the other chain. Call msg.sender will receive assets on the other side of the bridge."
      },
      "wrapAndRelayTokens(address)": {
        "details": "Wraps native assets and relays wrapped ERC20 tokens to the other chain.",
        "params": {
          "_receiver": "bridged assets receiver on the other side of the bridge."
        }
      }
    },
    "title": "WETHOmnibridgeRouter",
    "version": 1
  },
  "userdoc": {
    "kind": "user",
    "methods": {},
    "version": 1
  }
}