{
  "contractName": "BaseBridgeValidators",
  "abi": [
    {
      "constant": true,
      "inputs": [],
      "name": "isInitialized",
      "outputs": [
        {
          "name": "",
          "type": "bool"
        }
      ],
      "payable": false,
      "stateMutability": "view",
      "type": "function"
    },
    {
      "constant": true,
      "inputs": [],
      "name": "owner",
      "outputs": [
        {
          "name": "",
          "type": "address"
        }
      ],
      "payable": false,
      "stateMutability": "view",
      "type": "function"
    },
    {
      "constant": true,
      "inputs": [],
      "name": "deployedAtBlock",
      "outputs": [
        {
          "name": "",
          "type": "uint256"
        }
      ],
      "payable": false,
      "stateMutability": "view",
      "type": "function"
    },
    {
      "constant": true,
      "inputs": [],
      "name": "F_ADDR",
      "outputs": [
        {
          "name": "",
          "type": "address"
        }
      ],
      "payable": false,
      "stateMutability": "view",
      "type": "function"
    },
    {
      "constant": false,
      "inputs": [
        {
          "name": "newOwner",
          "type": "address"
        }
      ],
      "name": "transferOwnership",
      "outputs": [],
      "payable": false,
      "stateMutability": "nonpayable",
      "type": "function"
    },
    {
      "anonymous": false,
      "inputs": [
        {
          "indexed": true,
          "name": "validator",
          "type": "address"
        }
      ],
      "name": "ValidatorAdded",
      "type": "event"
    },
    {
      "anonymous": false,
      "inputs": [
        {
          "indexed": true,
          "name": "validator",
          "type": "address"
        }
      ],
      "name": "ValidatorRemoved",
      "type": "event"
    },
    {
      "anonymous": false,
      "inputs": [
        {
          "indexed": false,
          "name": "requiredSignatures",
          "type": "uint256"
        }
      ],
      "name": "RequiredSignaturesChanged",
      "type": "event"
    },
    {
      "anonymous": false,
      "inputs": [
        {
          "indexed": false,
          "name": "previousOwner",
          "type": "address"
        },
        {
          "indexed": false,
          "name": "newOwner",
          "type": "address"
        }
      ],
      "name": "OwnershipTransferred",
      "type": "event"
    },
    {
      "constant": false,
      "inputs": [
        {
          "name": "_requiredSignatures",
          "type": "uint256"
        }
      ],
      "name": "setRequiredSignatures",
      "outputs": [],
      "payable": false,
      "stateMutability": "nonpayable",
      "type": "function"
    },
    {
      "constant": true,
      "inputs": [],
      "name": "getBridgeValidatorsInterfacesVersion",
      "outputs": [
        {
          "name": "major",
          "type": "uint64"
        },
        {
          "name": "minor",
          "type": "uint64"
        },
        {
          "name": "patch",
          "type": "uint64"
        }
      ],
      "payable": false,
      "stateMutability": "pure",
      "type": "function"
    },
    {
      "constant": true,
      "inputs": [],
      "name": "validatorList",
      "outputs": [
        {
          "name": "",
          "type": "address[]"
        }
      ],
      "payable": false,
      "stateMutability": "view",
      "type": "function"
    },
    {
      "constant": true,
      "inputs": [],
      "name": "requiredSignatures",
      "outputs": [
        {
          "name": "",
          "type": "uint256"
        }
      ],
      "payable": false,
      "stateMutability": "view",
      "type": "function"
    },
    {
      "constant": true,
      "inputs": [],
      "name": "validatorCount",
      "outputs": [
        {
          "name": "",
          "type": "uint256"
        }
      ],
      "payable": false,
      "stateMutability": "view",
      "type": "function"
    },
    {
      "constant": true,
      "inputs": [
        {
          "name": "_validator",
          "type": "address"
        }
      ],
      "name": "isValidator",
      "outputs": [
        {
          "name": "",
          "type": "bool"
        }
      ],
      "payable": false,
      "stateMutability": "view",
      "type": "function"
    },
    {
      "constant": true,
      "inputs": [
        {
          "name": "_address",
          "type": "address"
        }
      ],
      "name": "getNextValidator",
      "outputs": [
        {
          "name": "",
          "type": "address"
        }
      ],
      "payable": false,
      "stateMutability": "view",
      "type": "function"
    },
    {
      "constant": true,
      "inputs": [
        {
          "name": "_validator",
          "type": "address"
        }
      ],
      "name": "isValidatorDuty",
      "outputs": [
        {
          "name": "",
          "type": "bool"
        }
      ],
      "payable": false,
      "stateMutability": "view",
      "type": "function"
    }
  ],
  "bytecode": "0x608060405234801561001057600080fd5b506108f3806100206000396000f3006080604052600436106100c45763ffffffff7c01000000000000000000000000000000000000000000000000000000006000350416630f43a67781146100c95780632bda4eee146100f0578063392e53cd146101315780635890ef791461015a5780637d2b9cc0146101bf5780638d068043146101d95780638d37052c146101ee5780638da5cb5b1461022b5780638e4ec60a146102405780639a454b9914610261578063c794c76914610276578063f2fde38b1461028b578063facd743b146102ac575b600080fd5b3480156100d557600080fd5b506100de6102cd565b60408051918252519081900360200190f35b3480156100fc57600080fd5b5061010561031b565b6040805167ffffffffffffffff9485168152928416602084015292168183015290519081900360600190f35b34801561013d57600080fd5b50610146610326565b604080519115158252519081900360200190f35b34801561016657600080fd5b5061016f610377565b60408051602080825283518183015283519192839290830191858101910280838360005b838110156101ab578181015183820152602001610193565b505050509050019250505060405180910390f35b3480156101cb57600080fd5b506101d7600435610445565b005b3480156101e557600080fd5b506100de610507565b3480156101fa57600080fd5b5061020f600160a060020a0360043516610555565b60408051600160a060020a039092168252519081900360200190f35b34801561023757600080fd5b5061020f61063d565b34801561024c57600080fd5b50610146600160a060020a0360043516610694565b34801561026d57600080fd5b506100de61073c565b34801561028257600080fd5b5061020f61078a565b34801561029757600080fd5b506101d7600160a060020a0360043516610795565b3480156102b857600080fd5b50610146600160a060020a03600435166107bd565b7f8656d603d9f985c3483946a92789d52202f49736384ba131cb92f62c4c1aa08260009081526020527f95d17efd9f452ee83a125e41a6180e225f2e2ff7d47d2c1f6cd9b2e14a207ba15490565b600260036000909192565b7f0a6f646cd611241d8073675e00d1a1ff700fbf1b53fcf473de56d1e6e4b714ba60005260046020527f078d888f9b66f3f8bfa10909e31f1e16240db73449f0500afdbbe3a70da457cc5460ff1690565b6060806000806103856102cd565b6040519080825280602002602001820160405280156103ae578160200160208202803883390190505b509250600091506103c5600160a060020a03610555565b9050600160a060020a03811615156103dc57600080fd5b600160a060020a038181161461043d578083838151811015156103fb57fe5b600160a060020a0390921660209283029091019091015261041b81610555565b6001909201919050600160a060020a038116151561043857600080fd5b6103dc565b509092915050565b61044d61063d565b600160a060020a0316331461046157600080fd5b8061046a6102cd565b101561047557600080fd5b80151561048157600080fd5b7fd18ea17c351d6834a0e568067fb71804d2a588d5e26d60f792b1c724b1bd53b1600090815260209081527f8a247e09a5673bd4d93a4e76d8fb9553523aa0d77f51f3d576e7421f5295b9bc8290556040805183815290517f10dbc913050d3180c3b99f7da91fd514af7cbc9c1bb59a0da5d2bc38f0cf395a929181900390910190a150565b7fd18ea17c351d6834a0e568067fb71804d2a588d5e26d60f792b1c724b1bd53b160009081526020527f8a247e09a5673bd4d93a4e76d8fb9553523aa0d77f51f3d576e7421f5295b9bc5490565b6000600260008360405160200180807f76616c696461746f72734c697374000000000000000000000000000000000000815250600e0182600160a060020a0316600160a060020a03166c010000000000000000000000000281526014019150506040516020818303038152906040526040518082805190602001908083835b602083106105f35780518252601f1990920191602091820191016105d4565b51815160209384036101000a6000190180199092169116179052604080519290940182900390912086528501959095529290920160002054600160a060020a031695945050505050565b7f02016836a56b71f0d02689e69e326f4f4c1b9057164ef592671cf0d37c8040c060005260026020527fb7802e97e87ef2842a6cce7da7ffaeaedaa2f61a6a7870b23d9d01fc9b73712e54600160a060020a031690565b600080806106a8600160a060020a03610555565b9050600160a060020a03811615156106bf57600080fd5b600160a060020a03818116146107305783600160a060020a031681600160a060020a0316141561070557816106f26102cd565b438115156106fc57fe5b06149250610735565b61070e81610555565b6001909201919050600160a060020a038116151561072b57600080fd5b6106bf565b600092505b5050919050565b7fb120ceec05576ad0c710bc6e85f1768535e27554458f05dcbb5c65b8c7a749b060009081526020527fe66bef0282a446f9848e2903380099bb6e431483ee78778868f33b4a154c818b5490565b600160a060020a0381565b61079d61063d565b600160a060020a031633146107b157600080fd5b6107ba816107f0565b50565b6000600160a060020a03828116148015906107ea575060006107de83610555565b600160a060020a031614155b92915050565b600160a060020a038116151561080557600080fd5b7f8be0079c531659141344cd1fd0a4f28419497f9722a3daafe3b4186f6b6457e061082e61063d565b60408051600160a060020a03928316815291841660208301528051918290030190a17f02016836a56b71f0d02689e69e326f4f4c1b9057164ef592671cf0d37c8040c060005260026020527fb7802e97e87ef2842a6cce7da7ffaeaedaa2f61a6a7870b23d9d01fc9b73712e805473ffffffffffffffffffffffffffffffffffffffff1916600160a060020a03929092169190911790555600a165627a7a7230582006a5827bf6964c61c3e7321770387c4abbb1a9f030f5c2f8bc8f06b692ad103a0029",
  "source": "pragma solidity 0.4.24;\n\nimport \"./Ownable.sol\";\nimport \"openzeppelin-solidity/contracts/math/SafeMath.sol\";\nimport \"./InitializableBridge.sol\";\n\ncontract BaseBridgeValidators is InitializableBridge, Ownable {\n    using SafeMath for uint256;\n\n    address public constant F_ADDR = 0xFFfFfFffFFfffFFfFFfFFFFFffFFFffffFfFFFfF;\n    uint256 internal constant MAX_VALIDATORS = 50;\n    bytes32 internal constant REQUIRED_SIGNATURES = 0xd18ea17c351d6834a0e568067fb71804d2a588d5e26d60f792b1c724b1bd53b1; // keccak256(abi.encodePacked(\"requiredSignatures\"))\n    bytes32 internal constant VALIDATOR_COUNT = 0x8656d603d9f985c3483946a92789d52202f49736384ba131cb92f62c4c1aa082; // keccak256(abi.encodePacked(\"validatorCount\"))\n\n    event ValidatorAdded(address indexed validator);\n    event ValidatorRemoved(address indexed validator);\n    event RequiredSignaturesChanged(uint256 requiredSignatures);\n\n    function setRequiredSignatures(uint256 _requiredSignatures) external onlyOwner {\n        require(validatorCount() >= _requiredSignatures);\n        require(_requiredSignatures != 0);\n        uintStorage[REQUIRED_SIGNATURES] = _requiredSignatures;\n        emit RequiredSignaturesChanged(_requiredSignatures);\n    }\n\n    function getBridgeValidatorsInterfacesVersion() external pure returns (uint64 major, uint64 minor, uint64 patch) {\n        return (2, 3, 0);\n    }\n\n    function validatorList() external view returns (address[]) {\n        address[] memory list = new address[](validatorCount());\n        uint256 counter = 0;\n        address nextValidator = getNextValidator(F_ADDR);\n        require(nextValidator != address(0));\n\n        while (nextValidator != F_ADDR) {\n            list[counter] = nextValidator;\n            nextValidator = getNextValidator(nextValidator);\n            counter++;\n\n            require(nextValidator != address(0));\n        }\n\n        return list;\n    }\n\n    function _addValidator(address _validator) internal {\n        require(_validator != address(0) && _validator != F_ADDR);\n        require(!isValidator(_validator));\n\n        address firstValidator = getNextValidator(F_ADDR);\n        require(firstValidator != address(0));\n        setNextValidator(_validator, firstValidator);\n        setNextValidator(F_ADDR, _validator);\n        setValidatorCount(validatorCount().add(1));\n    }\n\n    function _removeValidator(address _validator) internal {\n        require(validatorCount() > requiredSignatures());\n        require(isValidator(_validator));\n        address validatorsNext = getNextValidator(_validator);\n        address index = F_ADDR;\n        address next = getNextValidator(index);\n        require(next != address(0));\n\n        while (next != _validator) {\n            index = next;\n            next = getNextValidator(index);\n\n            require(next != F_ADDR && next != address(0));\n        }\n\n        setNextValidator(index, validatorsNext);\n        deleteItemFromAddressStorage(\"validatorsList\", _validator);\n        setValidatorCount(validatorCount().sub(1));\n    }\n\n    function requiredSignatures() public view returns (uint256) {\n        return uintStorage[REQUIRED_SIGNATURES];\n    }\n\n    function validatorCount() public view returns (uint256) {\n        return uintStorage[VALIDATOR_COUNT];\n    }\n\n    function isValidator(address _validator) public view returns (bool) {\n        return _validator != F_ADDR && getNextValidator(_validator) != address(0);\n    }\n\n    function getNextValidator(address _address) public view returns (address) {\n        return addressStorage[keccak256(abi.encodePacked(\"validatorsList\", _address))];\n    }\n\n    function deleteItemFromAddressStorage(string _mapName, address _address) internal {\n        delete addressStorage[keccak256(abi.encodePacked(_mapName, _address))];\n    }\n\n    function setValidatorCount(uint256 _validatorCount) internal {\n        require(_validatorCount <= MAX_VALIDATORS);\n        uintStorage[VALIDATOR_COUNT] = _validatorCount;\n    }\n\n    function setNextValidator(address _prevValidator, address _validator) internal {\n        addressStorage[keccak256(abi.encodePacked(\"validatorsList\", _prevValidator))] = _validator;\n    }\n\n    function isValidatorDuty(address _validator) external view returns (bool) {\n        uint256 counter = 0;\n        address next = getNextValidator(F_ADDR);\n        require(next != address(0));\n\n        while (next != F_ADDR) {\n            if (next == _validator) {\n                return (block.number % validatorCount() == counter);\n            }\n\n            next = getNextValidator(next);\n            counter++;\n\n            require(next != address(0));\n        }\n\n        return false;\n    }\n}\n",
  "sourcePath": "/Users/eabz/Documents/GitHub/tokenbridge/packages/poanetwork/contracts/upgradeable_contracts/BaseBridgeValidators.sol",
  "compiler": {
    "name": "solc",
    "version": "0.4.24+commit.e67f0147.Emscripten.clang"
  },
  "schemaVersion": "3.4.3",
  "updatedAt": "2021-09-04T01:08:19.257Z",
  "devdoc": {
    "methods": {
      "owner()": {
        "details": "Tells the address of the owner",
        "return": "the address of the owner"
      },
      "transferOwnership(address)": {
        "details": "Allows the current owner to transfer control of the contract to a newOwner.",
        "params": {
          "newOwner": "the address to transfer ownership to."
        }
      }
    }
  },
  "userdoc": {
    "methods": {}
  }
}