{
  "contractName": "BasicAMBMediator",
  "abi": [
    {
      "constant": true,
      "inputs": [],
      "name": "owner",
      "outputs": [
        {
          "name": "",
          "type": "address"
        }
      ],
      "payable": false,
      "stateMutability": "view",
      "type": "function"
    },
    {
      "constant": false,
      "inputs": [
        {
          "name": "newOwner",
          "type": "address"
        }
      ],
      "name": "transferOwnership",
      "outputs": [],
      "payable": false,
      "stateMutability": "nonpayable",
      "type": "function"
    },
    {
      "anonymous": false,
      "inputs": [
        {
          "indexed": false,
          "name": "previousOwner",
          "type": "address"
        },
        {
          "indexed": false,
          "name": "newOwner",
          "type": "address"
        }
      ],
      "name": "OwnershipTransferred",
      "type": "event"
    },
    {
      "constant": false,
      "inputs": [
        {
          "name": "_bridgeContract",
          "type": "address"
        }
      ],
      "name": "setBridgeContract",
      "outputs": [],
      "payable": false,
      "stateMutability": "nonpayable",
      "type": "function"
    },
    {
      "constant": false,
      "inputs": [
        {
          "name": "_mediatorContract",
          "type": "address"
        }
      ],
      "name": "setMediatorContractOnOtherSide",
      "outputs": [],
      "payable": false,
      "stateMutability": "nonpayable",
      "type": "function"
    },
    {
      "constant": false,
      "inputs": [
        {
          "name": "_requestGasLimit",
          "type": "uint256"
        }
      ],
      "name": "setRequestGasLimit",
      "outputs": [],
      "payable": false,
      "stateMutability": "nonpayable",
      "type": "function"
    },
    {
      "constant": true,
      "inputs": [],
      "name": "bridgeContract",
      "outputs": [
        {
          "name": "",
          "type": "address"
        }
      ],
      "payable": false,
      "stateMutability": "view",
      "type": "function"
    },
    {
      "constant": true,
      "inputs": [],
      "name": "mediatorContractOnOtherSide",
      "outputs": [
        {
          "name": "",
          "type": "address"
        }
      ],
      "payable": false,
      "stateMutability": "view",
      "type": "function"
    },
    {
      "constant": true,
      "inputs": [],
      "name": "requestGasLimit",
      "outputs": [
        {
          "name": "",
          "type": "uint256"
        }
      ],
      "payable": false,
      "stateMutability": "view",
      "type": "function"
    }
  ],
  "bytecode": "0x608060405234801561001057600080fd5b5061067a806100206000396000f30060806040526004361061008d5763ffffffff7c01000000000000000000000000000000000000000000000000000000006000350416630b26cf6681146100925780636e5d6bea146100b5578063871c0760146100d65780638da5cb5b14610107578063be3b625b1461011c578063cd59658314610143578063f2fde38b14610158578063f3b8379114610179575b600080fd5b34801561009e57600080fd5b506100b3600160a060020a0360043516610191565b005b3480156100c157600080fd5b506100b3600160a060020a03600435166101b9565b3480156100e257600080fd5b506100eb6101de565b60408051600160a060020a039092168252519081900360200190f35b34801561011357600080fd5b506100eb610235565b34801561012857600080fd5b5061013161028c565b60408051918252519081900360200190f35b34801561014f57600080fd5b506100eb6102da565b34801561016457600080fd5b506100b3600160a060020a0360043516610331565b34801561018557600080fd5b506100b3600435610356565b610199610235565b600160a060020a031633146101ad57600080fd5b6101b68161037b565b50565b6101c1610235565b600160a060020a031633146101d557600080fd5b6101b681610406565b7f98aa806e31e94a687a31c65769cb99670064dd7f5a87526da075c5fb4eab988060005260026020527f0c1206883be66049a02d4937078367c00b3d71dd1a9465df969363c6ddeac96d54600160a060020a031690565b7f02016836a56b71f0d02689e69e326f4f4c1b9057164ef592671cf0d37c8040c060005260026020527fb7802e97e87ef2842a6cce7da7ffaeaedaa2f61a6a7870b23d9d01fc9b73712e54600160a060020a031690565b7f2dfd6c9f781bb6bbb5369c114e949b69ebb440ef3d4dd6b2836225eb1dc3a2be60009081526020527f2de0d2cdc19d356cb53b5984f91bfd3b31fe0c678a0d190a6db39274bb34753f5490565b7f811bbb11e8899da471f0e69a3ed55090fc90215227fc5fb1cb0d6e962ea7b74f60005260026020527fb4ed64697d3ef8518241966f7c6f28b0d72f20f51198717d198d2d55076c593d54600160a060020a031690565b610339610235565b600160a060020a0316331461034d57600080fd5b6101b68161047d565b61035e610235565b600160a060020a0316331461037257600080fd5b6101b681610554565b610384816105b5565b151561038f57600080fd5b7f811bbb11e8899da471f0e69a3ed55090fc90215227fc5fb1cb0d6e962ea7b74f60005260026020527fb4ed64697d3ef8518241966f7c6f28b0d72f20f51198717d198d2d55076c593d805473ffffffffffffffffffffffffffffffffffffffff1916600160a060020a0392909216919091179055565b7f98aa806e31e94a687a31c65769cb99670064dd7f5a87526da075c5fb4eab988060005260026020527f0c1206883be66049a02d4937078367c00b3d71dd1a9465df969363c6ddeac96d805473ffffffffffffffffffffffffffffffffffffffff1916600160a060020a0392909216919091179055565b600160a060020a038116151561049257600080fd5b7f8be0079c531659141344cd1fd0a4f28419497f9722a3daafe3b4186f6b6457e06104bb610235565b60408051600160a060020a03928316815291841660208301528051918290030190a17f02016836a56b71f0d02689e69e326f4f4c1b9057164ef592671cf0d37c8040c060005260026020527fb7802e97e87ef2842a6cce7da7ffaeaedaa2f61a6a7870b23d9d01fc9b73712e805473ffffffffffffffffffffffffffffffffffffffff1916600160a060020a0392909216919091179055565b61055c6105bd565b81111561056857600080fd5b7f2dfd6c9f781bb6bbb5369c114e949b69ebb440ef3d4dd6b2836225eb1dc3a2be60009081526020527f2de0d2cdc19d356cb53b5984f91bfd3b31fe0c678a0d190a6db39274bb34753f55565b6000903b1190565b60006105c76102da565b600160a060020a031663e5789d036040518163ffffffff167c0100000000000000000000000000000000000000000000000000000000028152600401602060405180830381600087803b15801561061d57600080fd5b505af1158015610631573d6000803e3d6000fd5b505050506040513d602081101561064757600080fd5b50519050905600a165627a7a723058204dfd072368e7eea684318e5f114dee9c9634fa906f051e0d04ce967c9d257d190029",
  "source": "pragma solidity 0.4.24;\n\nimport \"./Ownable.sol\";\nimport \"../interfaces/IAMB.sol\";\nimport \"../libraries/Bytes.sol\";\nimport \"openzeppelin-solidity/contracts/AddressUtils.sol\";\n\n/**\n* @title BasicAMBMediator\n* @dev Basic storage and methods needed by mediators to interact with AMB bridge.\n*/\ncontract BasicAMBMediator is Ownable {\n    bytes32 internal constant BRIDGE_CONTRACT = 0x811bbb11e8899da471f0e69a3ed55090fc90215227fc5fb1cb0d6e962ea7b74f; // keccak256(abi.encodePacked(\"bridgeContract\"))\n    bytes32 internal constant MEDIATOR_CONTRACT = 0x98aa806e31e94a687a31c65769cb99670064dd7f5a87526da075c5fb4eab9880; // keccak256(abi.encodePacked(\"mediatorContract\"))\n    bytes32 internal constant REQUEST_GAS_LIMIT = 0x2dfd6c9f781bb6bbb5369c114e949b69ebb440ef3d4dd6b2836225eb1dc3a2be; // keccak256(abi.encodePacked(\"requestGasLimit\"))\n\n    /**\n    * @dev Throws if caller on the other side is not an associated mediator.\n    */\n    modifier onlyMediator {\n        require(msg.sender == address(bridgeContract()));\n        require(messageSender() == mediatorContractOnOtherSide());\n        _;\n    }\n\n    /**\n    * @dev Sets the AMB bridge contract address. Only the owner can call this method.\n    * @param _bridgeContract the address of the bridge contract.\n    */\n    function setBridgeContract(address _bridgeContract) external onlyOwner {\n        _setBridgeContract(_bridgeContract);\n    }\n\n    /**\n    * @dev Sets the mediator contract address from the other network. Only the owner can call this method.\n    * @param _mediatorContract the address of the mediator contract.\n    */\n    function setMediatorContractOnOtherSide(address _mediatorContract) external onlyOwner {\n        _setMediatorContractOnOtherSide(_mediatorContract);\n    }\n\n    /**\n    * @dev Sets the gas limit to be used in the message execution by the AMB bridge on the other network.\n    * This value can't exceed the parameter maxGasPerTx defined on the AMB bridge.\n    * Only the owner can call this method.\n    * @param _requestGasLimit the gas limit for the message execution.\n    */\n    function setRequestGasLimit(uint256 _requestGasLimit) external onlyOwner {\n        _setRequestGasLimit(_requestGasLimit);\n    }\n\n    /**\n    * @dev Get the AMB interface for the bridge contract address\n    * @return AMB interface for the bridge contract address\n    */\n    function bridgeContract() public view returns (IAMB) {\n        return IAMB(addressStorage[BRIDGE_CONTRACT]);\n    }\n\n    /**\n    * @dev Tells the mediator contract address from the other network.\n    * @return the address of the mediator contract.\n    */\n    function mediatorContractOnOtherSide() public view returns (address) {\n        return addressStorage[MEDIATOR_CONTRACT];\n    }\n\n    /**\n    * @dev Tells the gas limit to be used in the message execution by the AMB bridge on the other network.\n    * @return the gas limit for the message execution.\n    */\n    function requestGasLimit() public view returns (uint256) {\n        return uintStorage[REQUEST_GAS_LIMIT];\n    }\n\n    /**\n    * @dev Stores a valid AMB bridge contract address.\n    * @param _bridgeContract the address of the bridge contract.\n    */\n    function _setBridgeContract(address _bridgeContract) internal {\n        require(AddressUtils.isContract(_bridgeContract));\n        addressStorage[BRIDGE_CONTRACT] = _bridgeContract;\n    }\n\n    /**\n    * @dev Stores the mediator contract address from the other network.\n    * @param _mediatorContract the address of the mediator contract.\n    */\n    function _setMediatorContractOnOtherSide(address _mediatorContract) internal {\n        addressStorage[MEDIATOR_CONTRACT] = _mediatorContract;\n    }\n\n    /**\n    * @dev Stores the gas limit to be used in the message execution by the AMB bridge on the other network.\n    * @param _requestGasLimit the gas limit for the message execution.\n    */\n    function _setRequestGasLimit(uint256 _requestGasLimit) internal {\n        require(_requestGasLimit <= maxGasPerTx());\n        uintStorage[REQUEST_GAS_LIMIT] = _requestGasLimit;\n    }\n\n    /**\n    * @dev Tells the address that generated the message on the other network that is currently being executed by\n    * the AMB bridge.\n    * @return the address of the message sender.\n    */\n    function messageSender() internal view returns (address) {\n        return bridgeContract().messageSender();\n    }\n\n    /**\n    * @dev Tells the id of the message originated on the other network.\n    * @return the id of the message originated on the other network.\n    */\n    function messageId() internal view returns (bytes32) {\n        return bridgeContract().messageId();\n    }\n\n    /**\n    * @dev Tells the maximum gas limit that a message can use on its execution by the AMB bridge on the other network.\n    * @return the maximum gas limit value.\n    */\n    function maxGasPerTx() internal view returns (uint256) {\n        return bridgeContract().maxGasPerTx();\n    }\n}\n",
  "sourcePath": "/Users/eabz/Documents/GitHub/tokenbridge/packages/poanetwork/contracts/upgradeable_contracts/BasicAMBMediator.sol",
  "compiler": {
    "name": "solc",
    "version": "0.4.24+commit.e67f0147.Emscripten.clang"
  },
  "schemaVersion": "3.4.3",
  "updatedAt": "2021-09-04T01:08:19.266Z",
  "devdoc": {
    "methods": {
      "bridgeContract()": {
        "details": "Get the AMB interface for the bridge contract address",
        "return": "AMB interface for the bridge contract address"
      },
      "mediatorContractOnOtherSide()": {
        "details": "Tells the mediator contract address from the other network.",
        "return": "the address of the mediator contract."
      },
      "owner()": {
        "details": "Tells the address of the owner",
        "return": "the address of the owner"
      },
      "requestGasLimit()": {
        "details": "Tells the gas limit to be used in the message execution by the AMB bridge on the other network.",
        "return": "the gas limit for the message execution."
      },
      "setBridgeContract(address)": {
        "details": "Sets the AMB bridge contract address. Only the owner can call this method.",
        "params": {
          "_bridgeContract": "the address of the bridge contract."
        }
      },
      "setMediatorContractOnOtherSide(address)": {
        "details": "Sets the mediator contract address from the other network. Only the owner can call this method.",
        "params": {
          "_mediatorContract": "the address of the mediator contract."
        }
      },
      "setRequestGasLimit(uint256)": {
        "details": "Sets the gas limit to be used in the message execution by the AMB bridge on the other network. This value can't exceed the parameter maxGasPerTx defined on the AMB bridge. Only the owner can call this method.",
        "params": {
          "_requestGasLimit": "the gas limit for the message execution."
        }
      },
      "transferOwnership(address)": {
        "details": "Allows the current owner to transfer control of the contract to a newOwner.",
        "params": {
          "newOwner": "the address to transfer ownership to."
        }
      }
    },
    "title": "BasicAMBMediator"
  },
  "userdoc": {
    "methods": {}
  }
}