{
  "contractName": "BasicAMB",
  "abi": [
    {
      "constant": true,
      "inputs": [],
      "name": "isInitialized",
      "outputs": [
        {
          "name": "",
          "type": "bool"
        }
      ],
      "payable": false,
      "stateMutability": "view",
      "type": "function"
    },
    {
      "constant": true,
      "inputs": [],
      "name": "requiredBlockConfirmations",
      "outputs": [
        {
          "name": "",
          "type": "uint256"
        }
      ],
      "payable": false,
      "stateMutability": "view",
      "type": "function"
    },
    {
      "constant": true,
      "inputs": [],
      "name": "requiredSignatures",
      "outputs": [
        {
          "name": "",
          "type": "uint256"
        }
      ],
      "payable": false,
      "stateMutability": "view",
      "type": "function"
    },
    {
      "constant": true,
      "inputs": [],
      "name": "owner",
      "outputs": [
        {
          "name": "",
          "type": "address"
        }
      ],
      "payable": false,
      "stateMutability": "view",
      "type": "function"
    },
    {
      "constant": true,
      "inputs": [],
      "name": "validatorContract",
      "outputs": [
        {
          "name": "",
          "type": "address"
        }
      ],
      "payable": false,
      "stateMutability": "view",
      "type": "function"
    },
    {
      "constant": true,
      "inputs": [],
      "name": "deployedAtBlock",
      "outputs": [
        {
          "name": "",
          "type": "uint256"
        }
      ],
      "payable": false,
      "stateMutability": "view",
      "type": "function"
    },
    {
      "constant": true,
      "inputs": [],
      "name": "getBridgeInterfacesVersion",
      "outputs": [
        {
          "name": "major",
          "type": "uint64"
        },
        {
          "name": "minor",
          "type": "uint64"
        },
        {
          "name": "patch",
          "type": "uint64"
        }
      ],
      "payable": false,
      "stateMutability": "pure",
      "type": "function"
    },
    {
      "constant": false,
      "inputs": [
        {
          "name": "_blockConfirmations",
          "type": "uint256"
        }
      ],
      "name": "setRequiredBlockConfirmations",
      "outputs": [],
      "payable": false,
      "stateMutability": "nonpayable",
      "type": "function"
    },
    {
      "constant": false,
      "inputs": [
        {
          "name": "_gasPrice",
          "type": "uint256"
        }
      ],
      "name": "setGasPrice",
      "outputs": [],
      "payable": false,
      "stateMutability": "nonpayable",
      "type": "function"
    },
    {
      "constant": true,
      "inputs": [],
      "name": "decimalShift",
      "outputs": [
        {
          "name": "",
          "type": "int256"
        }
      ],
      "payable": false,
      "stateMutability": "view",
      "type": "function"
    },
    {
      "constant": false,
      "inputs": [
        {
          "name": "newOwner",
          "type": "address"
        }
      ],
      "name": "transferOwnership",
      "outputs": [],
      "payable": false,
      "stateMutability": "nonpayable",
      "type": "function"
    },
    {
      "constant": true,
      "inputs": [],
      "name": "gasPrice",
      "outputs": [
        {
          "name": "",
          "type": "uint256"
        }
      ],
      "payable": false,
      "stateMutability": "view",
      "type": "function"
    },
    {
      "anonymous": false,
      "inputs": [
        {
          "indexed": false,
          "name": "gasPrice",
          "type": "uint256"
        }
      ],
      "name": "GasPriceChanged",
      "type": "event"
    },
    {
      "anonymous": false,
      "inputs": [
        {
          "indexed": false,
          "name": "requiredBlockConfirmations",
          "type": "uint256"
        }
      ],
      "name": "RequiredBlockConfirmationChanged",
      "type": "event"
    },
    {
      "anonymous": false,
      "inputs": [
        {
          "indexed": false,
          "name": "previousOwner",
          "type": "address"
        },
        {
          "indexed": false,
          "name": "newOwner",
          "type": "address"
        }
      ],
      "name": "OwnershipTransferred",
      "type": "event"
    },
    {
      "constant": false,
      "inputs": [
        {
          "name": "_sourceChainId",
          "type": "uint256"
        },
        {
          "name": "_destinationChainId",
          "type": "uint256"
        },
        {
          "name": "_validatorContract",
          "type": "address"
        },
        {
          "name": "_maxGasPerTx",
          "type": "uint256"
        },
        {
          "name": "_gasPrice",
          "type": "uint256"
        },
        {
          "name": "_requiredBlockConfirmations",
          "type": "uint256"
        },
        {
          "name": "_owner",
          "type": "address"
        }
      ],
      "name": "initialize",
      "outputs": [
        {
          "name": "",
          "type": "bool"
        }
      ],
      "payable": false,
      "stateMutability": "nonpayable",
      "type": "function"
    },
    {
      "constant": true,
      "inputs": [],
      "name": "getBridgeMode",
      "outputs": [
        {
          "name": "_data",
          "type": "bytes4"
        }
      ],
      "payable": false,
      "stateMutability": "pure",
      "type": "function"
    },
    {
      "constant": true,
      "inputs": [],
      "name": "maxGasPerTx",
      "outputs": [
        {
          "name": "",
          "type": "uint256"
        }
      ],
      "payable": false,
      "stateMutability": "view",
      "type": "function"
    },
    {
      "constant": false,
      "inputs": [
        {
          "name": "_maxGasPerTx",
          "type": "uint256"
        }
      ],
      "name": "setMaxGasPerTx",
      "outputs": [],
      "payable": false,
      "stateMutability": "nonpayable",
      "type": "function"
    },
    {
      "constant": true,
      "inputs": [],
      "name": "sourceChainId",
      "outputs": [
        {
          "name": "",
          "type": "uint256"
        }
      ],
      "payable": false,
      "stateMutability": "view",
      "type": "function"
    },
    {
      "constant": true,
      "inputs": [],
      "name": "destinationChainId",
      "outputs": [
        {
          "name": "",
          "type": "uint256"
        }
      ],
      "payable": false,
      "stateMutability": "view",
      "type": "function"
    },
    {
      "constant": false,
      "inputs": [
        {
          "name": "_sourceChainId",
          "type": "uint256"
        },
        {
          "name": "_destinationChainId",
          "type": "uint256"
        }
      ],
      "name": "setChainIds",
      "outputs": [],
      "payable": false,
      "stateMutability": "nonpayable",
      "type": "function"
    },
    {
      "constant": false,
      "inputs": [
        {
          "name": "_enable",
          "type": "bool"
        }
      ],
      "name": "setAllowReentrantRequests",
      "outputs": [],
      "payable": false,
      "stateMutability": "nonpayable",
      "type": "function"
    },
    {
      "constant": true,
      "inputs": [],
      "name": "allowReentrantRequests",
      "outputs": [
        {
          "name": "",
          "type": "bool"
        }
      ],
      "payable": false,
      "stateMutability": "view",
      "type": "function"
    }
  ],
  "bytecode": "0x608060405234801561001057600080fd5b50610f7e806100206000396000f3006080604052600436106101035763ffffffff60e060020a6000350416631544298e811461010857806325fbf4ee1461012f578063392e53cd1461017c5780633f0a9f6514610191578063437764df146101a6578063467ad35a146101f05780634d4cb7a21461020d5780637bac29c7146102225780638d0680431461023a5780638da5cb5b1461024f57806399439089146102805780639a454b99146102955780639cb7595a146102aa578063acf5c689146102eb578063b075061114610303578063bf1fe42014610318578063c2231ad214610330578063dae5f0fd1461034a578063e5789d031461035f578063f2fde38b14610374578063fe173b9714610395575b600080fd5b34801561011457600080fd5b5061011d6103aa565b60408051918252519081900360200190f35b34801561013b57600080fd5b50610168600435602435600160a060020a03604435811690606435906084359060a4359060c435166103f8565b604080519115158252519081900360200190f35b34801561018857600080fd5b5061016861066c565b34801561019d57600080fd5b5061011d6106bd565b3480156101b257600080fd5b506101bb61070b565b604080517fffffffff000000000000000000000000000000000000000000000000000000009092168252519081900360200190f35b3480156101fc57600080fd5b5061020b60043560243561072f565b005b34801561021957600080fd5b50610168610759565b34801561022e57600080fd5b5061020b6004356107aa565b34801561024657600080fd5b5061011d610813565b34801561025b57600080fd5b5061026461088b565b60408051600160a060020a039092168252519081900360200190f35b34801561028c57600080fd5b506102646108e2565b3480156102a157600080fd5b5061011d610939565b3480156102b657600080fd5b506102bf610987565b6040805167ffffffffffffffff9485168152928416602084015292168183015290519081900360600190f35b3480156102f757600080fd5b5061020b600435610992565b34801561030f57600080fd5b5061011d6109ba565b34801561032457600080fd5b5061020b600435610a08565b34801561033c57600080fd5b5061020b6004351515610a2d565b34801561035657600080fd5b5061011d610aa4565b34801561036b57600080fd5b5061011d610af2565b34801561038057600080fd5b5061020b600160a060020a0360043516610b40565b3480156103a157600080fd5b5061011d610b65565b7f67d6f42a1ed69c62022f2d160ddc6f2f0acd37ad1db0c24f4702d7d3343a4add60009081526020527ff6c66672b1a9fe5622677597b0da8fd180a2c85696efbcf7fe4b1e0f4f0f61085490565b60408051600481526024810182526020810180517bffffffffffffffffffffffffffffffffffffffffffffffffffffffff167f6fde8202000000000000000000000000000000000000000000000000000000001781529151815160009330939291829190808383895b83811015610479578181015183820152602001610461565b50505050905090810190601f1680156104a65780820380516001836020036101000a031916815260200191505b509150506000604051808303816000865af19150501580610538575030600160a060020a0316636fde82026040518163ffffffff1660e060020a028152600401602060405180830381600087803b15801561050057600080fd5b505af1158015610514573d6000803e3d6000fd5b505050506040513d602081101561052a57600080fd5b5051600160a060020a031633145b8061054257503330145b151561054d57600080fd5b61055561066c565b1561055f57600080fd5b61056886610bb3565b151561057357600080fd5b61057d8888610bbb565b7fab54f3fbbe62c59b7876a9bf9bd5e0c22dbae93f4d8ee0438f7ce62b198eb0e0805473ffffffffffffffffffffffffffffffffffffffff1916600160a060020a03881617905560006020819052437fe66bef0282a446f9848e2903380099bb6e431483ee78778868f33b4a154c818b557f2670ecc91ec356e32067fd27b36614132d727b84a1e03e08f412a4f2cf07597490527f3d7fe2ee9790702383ef0118b516833ef2542132d3ca4ac6c77f62f1230fa61085905561063e84610d0b565b61064783610d91565b61065082610e24565b610658610efb565b61066061066c565b98975050505050505050565b7f0a6f646cd611241d8073675e00d1a1ff700fbf1b53fcf473de56d1e6e4b714ba60005260046020527f078d888f9b66f3f8bfa10909e31f1e16240db73449f0500afdbbe3a70da457cc5460ff1690565b7f916daedf6915000ff68ced2f0b6773fe6f2582237f92c3c95bb4d7940723007160009081526020527fd2ea0feb732edb0ffe32efd33a6b9d24d46b16eb34a4d07ce256537b6f131e425490565b7f2544fbb90000000000000000000000000000000000000000000000000000000090565b61073761088b565b600160a060020a0316331461074b57600080fd5b6107558282610bbb565b5050565b7fffa3a5a0e192028fc343362a39c5688e5a60819a4dc5ab3ee70c25bc25b78dd660005260046020527f265a43ea29ede07170a30cb6d77d0ab5810eee752b72432f7be348bde74aa08f5460ff1690565b6107b261088b565b600160a060020a031633146107c657600080fd5b7f2670ecc91ec356e32067fd27b36614132d727b84a1e03e08f412a4f2cf07597460009081526020527f3d7fe2ee9790702383ef0118b516833ef2542132d3ca4ac6c77f62f1230fa61055565b600061081d6108e2565b600160a060020a0316638d0680436040518163ffffffff1660e060020a028152600401602060405180830381600087803b15801561085a57600080fd5b505af115801561086e573d6000803e3d6000fd5b505050506040513d602081101561088457600080fd5b5051905090565b7f02016836a56b71f0d02689e69e326f4f4c1b9057164ef592671cf0d37c8040c060005260026020527fb7802e97e87ef2842a6cce7da7ffaeaedaa2f61a6a7870b23d9d01fc9b73712e54600160a060020a031690565b7f5a74bb7e202fb8e4bf311841c7d64ec19df195fee77d7e7ae749b27921b6ddfe60005260026020527fab54f3fbbe62c59b7876a9bf9bd5e0c22dbae93f4d8ee0438f7ce62b198eb0e054600160a060020a031690565b7fb120ceec05576ad0c710bc6e85f1768535e27554458f05dcbb5c65b8c7a749b060009081526020527fe66bef0282a446f9848e2903380099bb6e431483ee78778868f33b4a154c818b5490565b600660016000909192565b61099a61088b565b600160a060020a031633146109ae57600080fd5b6109b781610d91565b50565b7fbbd454018e72a3f6c02bbd785bacc49e46292744f3f6761276723823aa33232060009081526020527f242329173dfc316001df0a0c3d5a8f58a7ffb1a8b7d99c268303b9a741bacdf95490565b610a1061088b565b600160a060020a03163314610a2457600080fd5b6109b781610d0b565b610a3561088b565b600160a060020a03163314610a4957600080fd5b7fffa3a5a0e192028fc343362a39c5688e5a60819a4dc5ab3ee70c25bc25b78dd660005260046020527f265a43ea29ede07170a30cb6d77d0ab5810eee752b72432f7be348bde74aa08f805460ff1916911515919091179055565b7f1e8ecaafaddea96ed9ac6d2642dcdfe1bebe58a930b1085842d8fc122b371ee560009081526020527fd5c78dd9468716ca9bb96be25d56436811b20aab3523a9904b12deef1cab239d5490565b7f2670ecc91ec356e32067fd27b36614132d727b84a1e03e08f412a4f2cf07597460009081526020527f3d7fe2ee9790702383ef0118b516833ef2542132d3ca4ac6c77f62f1230fa6105490565b610b4861088b565b600160a060020a03163314610b5c57600080fd5b6109b781610e24565b7f55b3774520b5993024893d303890baa4e84b1244a43c60034d1ced2d3cf2b04b60009081526020527ff7d5eefab3776d7f0450bd0193564bcb4f832ce313ff2836c450fc63a4b944195490565b6000903b1190565b600080600080600086118015610bd15750600085115b1515610bdc57600080fd5b85851415610be957600080fd5b506000925082915060ff905060015b831580610c03575082155b15610c4b5783158015610c17575085828716145b15610c20578093505b82158015610c2f575084828616145b15610c38578092505b6101009190910260ff1790600101610bf8565b5050600060208190527ff6c66672b1a9fe5622677597b0da8fd180a2c85696efbcf7fe4b1e0f4f0f6108949094557f2f30286a16f86ee067618e1a246990e40c07b7749418a6dd3133f9cfb7e814cc919091557f242329173dfc316001df0a0c3d5a8f58a7ffb1a8b7d99c268303b9a741bacdf9919091557ffb792ae4ad11102b93f26a51b3749c2b3667f8b561566a4806d49896928115949091527f7b62b32ff48350e85ce95b571fde6f8b1096bc44a26db769ad6d0b3a26bf1c6d55565b7f55b3774520b5993024893d303890baa4e84b1244a43c60034d1ced2d3cf2b04b600090815260209081527ff7d5eefab3776d7f0450bd0193564bcb4f832ce313ff2836c450fc63a4b944198290556040805183815290517f52264b89e0fceafb26e79fd49ef8a366eb6297483bf4035b027f0c99a7ad512e929181900390910190a150565b60008111610d9e57600080fd5b7f916daedf6915000ff68ced2f0b6773fe6f2582237f92c3c95bb4d79407230071600090815260209081527fd2ea0feb732edb0ffe32efd33a6b9d24d46b16eb34a4d07ce256537b6f131e428290556040805183815290517f4fb76205cd57c896b21511d2114137d8e901b4ccd659e1a0f97d6306795264fb929181900390910190a150565b600160a060020a0381161515610e3957600080fd5b7f8be0079c531659141344cd1fd0a4f28419497f9722a3daafe3b4186f6b6457e0610e6261088b565b60408051600160a060020a03928316815291841660208301528051918290030190a17f02016836a56b71f0d02689e69e326f4f4c1b9057164ef592671cf0d37c8040c060005260026020527fb7802e97e87ef2842a6cce7da7ffaeaedaa2f61a6a7870b23d9d01fc9b73712e805473ffffffffffffffffffffffffffffffffffffffff1916600160a060020a0392909216919091179055565b7f0a6f646cd611241d8073675e00d1a1ff700fbf1b53fcf473de56d1e6e4b714ba60005260046020527f078d888f9b66f3f8bfa10909e31f1e16240db73449f0500afdbbe3a70da457cc805460ff191660011790555600a165627a7a723058207bb10a2c1e9176ed637be19ca5dc601f94621df8ddfb7a2bc6cba7cc99f91a110029",
  "source": "pragma solidity 0.4.24;\n\nimport \"../BasicBridge.sol\";\nimport \"./VersionableAMB.sol\";\n\ncontract BasicAMB is BasicBridge, VersionableAMB {\n    bytes32 internal constant MAX_GAS_PER_TX = 0x2670ecc91ec356e32067fd27b36614132d727b84a1e03e08f412a4f2cf075974; // keccak256(abi.encodePacked(\"maxGasPerTx\"))\n    bytes32 internal constant NONCE = 0x7ab1577440dd7bedf920cb6de2f9fc6bf7ba98c78c85a3fa1f8311aac95e1759; // keccak256(abi.encodePacked(\"nonce\"))\n    bytes32 internal constant SOURCE_CHAIN_ID = 0x67d6f42a1ed69c62022f2d160ddc6f2f0acd37ad1db0c24f4702d7d3343a4add; // keccak256(abi.encodePacked(\"sourceChainId\"))\n    bytes32 internal constant SOURCE_CHAIN_ID_LENGTH = 0xe504ae1fd6471eea80f18b8532a61a9bb91fba4f5b837f80a1cfb6752350af44; // keccak256(abi.encodePacked(\"sourceChainIdLength\"))\n    bytes32 internal constant DESTINATION_CHAIN_ID = 0xbbd454018e72a3f6c02bbd785bacc49e46292744f3f6761276723823aa332320; // keccak256(abi.encodePacked(\"destinationChainId\"))\n    bytes32 internal constant DESTINATION_CHAIN_ID_LENGTH = 0xfb792ae4ad11102b93f26a51b3749c2b3667f8b561566a4806d4989692811594; // keccak256(abi.encodePacked(\"destinationChainIdLength\"))\n    bytes32 internal constant ALLOW_REENTRANT_REQUESTS = 0xffa3a5a0e192028fc343362a39c5688e5a60819a4dc5ab3ee70c25bc25b78dd6; // keccak256(abi.encodePacked(\"allowReentrantRequests\"))\n\n    /**\n     * Initializes AMB contract\n     * @param _sourceChainId chain id of a network where this contract is deployed\n     * @param _destinationChainId chain id of a network where all outgoing messages are directed\n     * @param _validatorContract address of the validators contract\n     * @param _maxGasPerTx maximum amount of gas per one message execution\n     * @param _gasPrice default gas price used by oracles for sending transactions in this network\n     * @param _requiredBlockConfirmations number of block confirmations oracle will wait before processing passed messages\n     * @param _owner address of new bridge owner\n     */\n    function initialize(\n        uint256 _sourceChainId,\n        uint256 _destinationChainId,\n        address _validatorContract,\n        uint256 _maxGasPerTx,\n        uint256 _gasPrice,\n        uint256 _requiredBlockConfirmations,\n        address _owner\n    ) external onlyRelevantSender returns (bool) {\n        require(!isInitialized());\n        require(AddressUtils.isContract(_validatorContract));\n\n        _setChainIds(_sourceChainId, _destinationChainId);\n        addressStorage[VALIDATOR_CONTRACT] = _validatorContract;\n        uintStorage[DEPLOYED_AT_BLOCK] = block.number;\n        uintStorage[MAX_GAS_PER_TX] = _maxGasPerTx;\n        _setGasPrice(_gasPrice);\n        _setRequiredBlockConfirmations(_requiredBlockConfirmations);\n        _setOwner(_owner);\n        setInitialize();\n\n        return isInitialized();\n    }\n\n    function getBridgeMode() external pure returns (bytes4 _data) {\n        return 0x2544fbb9; // bytes4(keccak256(abi.encodePacked(\"arbitrary-message-bridge-core\")))\n    }\n\n    function maxGasPerTx() public view returns (uint256) {\n        return uintStorage[MAX_GAS_PER_TX];\n    }\n\n    function setMaxGasPerTx(uint256 _maxGasPerTx) external onlyOwner {\n        uintStorage[MAX_GAS_PER_TX] = _maxGasPerTx;\n    }\n\n    /**\n     * Internal function for retrieving chain id for the source network\n     * @return chain id for the current network\n     */\n    function sourceChainId() public view returns (uint256) {\n        return uintStorage[SOURCE_CHAIN_ID];\n    }\n\n    /**\n     * Internal function for retrieving chain id for the destination network\n     * @return chain id for the destination network\n     */\n    function destinationChainId() public view returns (uint256) {\n        return uintStorage[DESTINATION_CHAIN_ID];\n    }\n\n    /**\n     * Updates chain ids of used networks\n     * @param _sourceChainId chain id for current network\n     * @param _destinationChainId chain id for opposite network\n     */\n    function setChainIds(uint256 _sourceChainId, uint256 _destinationChainId) external onlyOwner {\n        _setChainIds(_sourceChainId, _destinationChainId);\n    }\n\n    /**\n     * Sets the flag to allow passing new AMB requests in the opposite direction,\n     * while other AMB message is being processed.\n     * Only owner can call this method.\n     * @param _enable true, if reentrant requests are allowed.\n     */\n    function setAllowReentrantRequests(bool _enable) external onlyOwner {\n        boolStorage[ALLOW_REENTRANT_REQUESTS] = _enable;\n    }\n\n    /**\n     * Tells if passing reentrant requests is allowed.\n     * @return true, if reentrant requests are allowed.\n     */\n    function allowReentrantRequests() public view returns (bool) {\n        return boolStorage[ALLOW_REENTRANT_REQUESTS];\n    }\n\n    /**\n     * Internal function for retrieving current nonce value\n     * @return nonce value\n     */\n    function _nonce() internal view returns (uint64) {\n        return uint64(uintStorage[NONCE]);\n    }\n\n    /**\n     * Internal function for updating nonce value\n     * @param _nonce new nonce value\n     */\n    function _setNonce(uint64 _nonce) internal {\n        uintStorage[NONCE] = uint256(_nonce);\n    }\n\n    /**\n     * Internal function for updating chain ids of used networks\n     * @param _sourceChainId chain id for current network\n     * @param _destinationChainId chain id for opposite network\n     */\n    function _setChainIds(uint256 _sourceChainId, uint256 _destinationChainId) internal {\n        require(_sourceChainId > 0 && _destinationChainId > 0);\n        require(_sourceChainId != _destinationChainId);\n\n        // Length fields are needed further when encoding the message.\n        // Chain ids are compressed, so that leading zero bytes are not preserved.\n        // In order to save some gas during calls to MessageDelivery.c,\n        // lengths of chain ids are precalculated and being saved in the storage.\n        uint256 sourceChainIdLength = 0;\n        uint256 destinationChainIdLength = 0;\n        uint256 mask = 0xff;\n\n        for (uint256 i = 1; sourceChainIdLength == 0 || destinationChainIdLength == 0; i++) {\n            if (sourceChainIdLength == 0 && _sourceChainId & mask == _sourceChainId) {\n                sourceChainIdLength = i;\n            }\n            if (destinationChainIdLength == 0 && _destinationChainId & mask == _destinationChainId) {\n                destinationChainIdLength = i;\n            }\n            mask = (mask << 8) | 0xff;\n        }\n\n        uintStorage[SOURCE_CHAIN_ID] = _sourceChainId;\n        uintStorage[SOURCE_CHAIN_ID_LENGTH] = sourceChainIdLength;\n        uintStorage[DESTINATION_CHAIN_ID] = _destinationChainId;\n        uintStorage[DESTINATION_CHAIN_ID_LENGTH] = destinationChainIdLength;\n    }\n\n    /**\n     * Internal function for retrieving chain id length for the source network\n     * @return chain id for the current network\n     */\n    function _sourceChainIdLength() internal view returns (uint256) {\n        return uintStorage[SOURCE_CHAIN_ID_LENGTH];\n    }\n\n    /**\n     * Internal function for retrieving chain id length for the destination network\n     * @return chain id for the destination network\n     */\n    function _destinationChainIdLength() internal view returns (uint256) {\n        return uintStorage[DESTINATION_CHAIN_ID_LENGTH];\n    }\n\n    /**\n     * Internal function for validating version of the received message\n     * @param _messageId id of the received message\n     */\n    function _isMessageVersionValid(bytes32 _messageId) internal returns (bool) {\n        return\n            _messageId & 0xffffffff00000000000000000000000000000000000000000000000000000000 == MESSAGE_PACKING_VERSION;\n    }\n\n    /**\n     * Internal function for validating destination chain id of the received message\n     * @param _chainId destination chain id of the received message\n     */\n    function _isDestinationChainIdValid(uint256 _chainId) internal returns (bool res) {\n        return _chainId == sourceChainId();\n    }\n}\n",
  "sourcePath": "/Users/eabz/Documents/GitHub/tokenbridge/packages/poanetwork/contracts/upgradeable_contracts/arbitrary_message/BasicAMB.sol",
  "compiler": {
    "name": "solc",
    "version": "0.4.24+commit.e67f0147.Emscripten.clang"
  },
  "schemaVersion": "3.4.3",
  "updatedAt": "2021-09-04T01:08:19.337Z",
  "devdoc": {
    "methods": {
      "allowReentrantRequests()": {
        "return": "true, if reentrant requests are allowed."
      },
      "decimalShift()": {
        "details": "Returns the value of foreign-to-home decimal shift.",
        "return": "decimal shift."
      },
      "destinationChainId()": {
        "return": "chain id for the destination network"
      },
      "getBridgeInterfacesVersion()": {
        "return": "(major, minor, patch) version triple"
      },
      "initialize(uint256,uint256,address,uint256,uint256,uint256,address)": {
        "params": {
          "_destinationChainId": "chain id of a network where all outgoing messages are directed",
          "_gasPrice": "default gas price used by oracles for sending transactions in this network",
          "_maxGasPerTx": "maximum amount of gas per one message execution",
          "_owner": "address of new bridge owner",
          "_requiredBlockConfirmations": "number of block confirmations oracle will wait before processing passed messages",
          "_sourceChainId": "chain id of a network where this contract is deployed",
          "_validatorContract": "address of the validators contract"
        }
      },
      "owner()": {
        "details": "Tells the address of the owner",
        "return": "the address of the owner"
      },
      "setAllowReentrantRequests(bool)": {
        "params": {
          "_enable": "true, if reentrant requests are allowed."
        }
      },
      "setChainIds(uint256,uint256)": {
        "params": {
          "_destinationChainId": "chain id for opposite network",
          "_sourceChainId": "chain id for current network"
        }
      },
      "setGasPrice(uint256)": {
        "details": "Public setter for fallback gas price value. Only bridge owner can call this method.",
        "params": {
          "_gasPrice": "new value for the gas price."
        }
      },
      "sourceChainId()": {
        "return": "chain id for the current network"
      },
      "transferOwnership(address)": {
        "details": "Allows the current owner to transfer control of the contract to a newOwner.",
        "params": {
          "newOwner": "the address to transfer ownership to."
        }
      }
    }
  },
  "userdoc": {
    "methods": {
      "allowReentrantRequests()": {
        "notice": "Tells if passing reentrant requests is allowed."
      },
      "destinationChainId()": {
        "notice": "Internal function for retrieving chain id for the destination network"
      },
      "getBridgeInterfacesVersion()": {
        "notice": "Returns currently used bridge version"
      },
      "initialize(uint256,uint256,address,uint256,uint256,uint256,address)": {
        "notice": "Initializes AMB contract"
      },
      "setAllowReentrantRequests(bool)": {
        "notice": "Sets the flag to allow passing new AMB requests in the opposite direction, while other AMB message is being processed. Only owner can call this method."
      },
      "setChainIds(uint256,uint256)": {
        "notice": "Updates chain ids of used networks"
      },
      "sourceChainId()": {
        "notice": "Internal function for retrieving chain id for the source network"
      }
    }
  }
}