{
  "contractName": "BlockRewardMock",
  "abi": [
    {
      "constant": true,
      "inputs": [],
      "name": "mintedCoins",
      "outputs": [
        {
          "name": "",
          "type": "uint256"
        }
      ],
      "payable": false,
      "stateMutability": "view",
      "type": "function"
    },
    {
      "constant": true,
      "inputs": [
        {
          "name": "",
          "type": "uint256"
        }
      ],
      "name": "validatorRewardList",
      "outputs": [
        {
          "name": "",
          "type": "uint256"
        }
      ],
      "payable": false,
      "stateMutability": "view",
      "type": "function"
    },
    {
      "constant": true,
      "inputs": [],
      "name": "feeAmount",
      "outputs": [
        {
          "name": "",
          "type": "uint256"
        }
      ],
      "payable": false,
      "stateMutability": "view",
      "type": "function"
    },
    {
      "constant": true,
      "inputs": [
        {
          "name": "",
          "type": "uint256"
        }
      ],
      "name": "validatorList",
      "outputs": [
        {
          "name": "",
          "type": "address"
        }
      ],
      "payable": false,
      "stateMutability": "view",
      "type": "function"
    },
    {
      "constant": true,
      "inputs": [],
      "name": "bridgeTokenReward",
      "outputs": [
        {
          "name": "",
          "type": "uint256"
        }
      ],
      "payable": false,
      "stateMutability": "view",
      "type": "function"
    },
    {
      "constant": true,
      "inputs": [],
      "name": "token",
      "outputs": [
        {
          "name": "",
          "type": "address"
        }
      ],
      "payable": false,
      "stateMutability": "view",
      "type": "function"
    },
    {
      "payable": true,
      "stateMutability": "payable",
      "type": "fallback"
    },
    {
      "anonymous": false,
      "inputs": [
        {
          "indexed": false,
          "name": "amount",
          "type": "uint256"
        },
        {
          "indexed": false,
          "name": "cumulativeAmount",
          "type": "uint256"
        },
        {
          "indexed": true,
          "name": "bridge",
          "type": "address"
        }
      ],
      "name": "BridgeTokenRewardAdded",
      "type": "event"
    },
    {
      "constant": false,
      "inputs": [
        {
          "name": "_amount",
          "type": "uint256"
        },
        {
          "name": "_receiver",
          "type": "address"
        }
      ],
      "name": "addExtraReceiver",
      "outputs": [],
      "payable": false,
      "stateMutability": "nonpayable",
      "type": "function"
    },
    {
      "constant": true,
      "inputs": [],
      "name": "mintedTotally",
      "outputs": [
        {
          "name": "",
          "type": "uint256"
        }
      ],
      "payable": false,
      "stateMutability": "view",
      "type": "function"
    },
    {
      "constant": true,
      "inputs": [
        {
          "name": "_bridge",
          "type": "address"
        }
      ],
      "name": "mintedTotallyByBridge",
      "outputs": [
        {
          "name": "",
          "type": "uint256"
        }
      ],
      "payable": false,
      "stateMutability": "view",
      "type": "function"
    },
    {
      "constant": false,
      "inputs": [
        {
          "name": "_amount",
          "type": "uint256"
        },
        {
          "name": "_bridge",
          "type": "address"
        }
      ],
      "name": "addMintedTotallyByBridge",
      "outputs": [],
      "payable": false,
      "stateMutability": "nonpayable",
      "type": "function"
    },
    {
      "constant": false,
      "inputs": [
        {
          "name": "_initialValidators",
          "type": "address[]"
        }
      ],
      "name": "setValidatorsRewards",
      "outputs": [],
      "payable": false,
      "stateMutability": "nonpayable",
      "type": "function"
    },
    {
      "constant": false,
      "inputs": [
        {
          "name": "_token",
          "type": "address"
        }
      ],
      "name": "setToken",
      "outputs": [],
      "payable": false,
      "stateMutability": "nonpayable",
      "type": "function"
    },
    {
      "constant": false,
      "inputs": [
        {
          "name": "_amount",
          "type": "uint256"
        }
      ],
      "name": "addBridgeNativeRewardReceivers",
      "outputs": [],
      "payable": false,
      "stateMutability": "nonpayable",
      "type": "function"
    },
    {
      "constant": false,
      "inputs": [
        {
          "name": "_amount",
          "type": "uint256"
        }
      ],
      "name": "addBridgeTokenRewardReceivers",
      "outputs": [],
      "payable": false,
      "stateMutability": "nonpayable",
      "type": "function"
    },
    {
      "constant": true,
      "inputs": [
        {
          "name": "_count",
          "type": "uint256"
        }
      ],
      "name": "random",
      "outputs": [
        {
          "name": "",
          "type": "uint256"
        }
      ],
      "payable": false,
      "stateMutability": "view",
      "type": "function"
    },
    {
      "constant": true,
      "inputs": [],
      "name": "blockRewardContractId",
      "outputs": [
        {
          "name": "",
          "type": "bytes4"
        }
      ],
      "payable": false,
      "stateMutability": "pure",
      "type": "function"
    }
  ],
  "bytecode": "0x608060405260006002556000600355600060065534801561001f57600080fd5b50610b928061002f6000396000f3006080604052600436106100e55763ffffffff7c0100000000000000000000000000000000000000000000000000000000600035041663144fa6d781146100e75780631db021c014610108578063222fafb21461012f57806328214f7d146101475780632ee57f8d1461015f57806345c651ed146101a9578063553a5c85146101c957806362178478146101de57806369e15404146101f6578063aa9fa2741461020b578063b048e0561461022f578063b4a523e814610263578063b863bd3714610284578063d2f240a81461029c578063faaf3aff146102c0578063fc0c546a146102d5575b005b3480156100f357600080fd5b506100e5600160a060020a03600435166102ea565b34801561011457600080fd5b5061011d610319565b60408051918252519081900360200190f35b34801561013b57600080fd5b506100e560043561031f565b34801561015357600080fd5b5061011d600435610471565b34801561016b57600080fd5b50610174610490565b604080517fffffffff000000000000000000000000000000000000000000000000000000009092168252519081900360200190f35b3480156101b557600080fd5b506100e560048035602481019101356104c6565b3480156101d557600080fd5b5061011d6104d7565b3480156101ea57600080fd5b506100e56004356104dd565b34801561020257600080fd5b5061011d61071c565b34801561021757600080fd5b506100e5600435600160a060020a0360243516610722565b34801561023b57600080fd5b50610247600435610806565b60408051600160a060020a039092168252519081900360200190f35b34801561026f57600080fd5b5061011d600160a060020a036004351661082e565b34801561029057600080fd5b5061011d6004356108f1565b3480156102a857600080fd5b506100e5600435600160a060020a0360243516610916565b3480156102cc57600080fd5b5061011d6109f0565b3480156102e157600080fd5b506102476109f6565b6005805473ffffffffffffffffffffffffffffffffffffffff1916600160a060020a0392909216919091179055565b60025481565b600381905560008054819081908190819061034190879063ffffffff610a0516565b6000549095506103699061035c90879063ffffffff610a1c16565b879063ffffffff610a4516565b9250600083111561038357600054610380906108f1565b93505b600091505b6000548210156104695750836000831180156103a357508184145b156103bb576103b8818463ffffffff610a5716565b90505b30600160a060020a031663aa9fa274826000858154811015156103da57fe5b6000918252602082200154604080517c010000000000000000000000000000000000000000000000000000000063ffffffff87160281526004810194909452600160a060020a0390911660248401525160448084019382900301818387803b15801561044557600080fd5b505af1158015610459573d6000803e3d6000fd5b5050600190930192506103889050565b505050505050565b600180548290811061047f57fe5b600091825260209091200154905081565b604080517f626c6f636b5265776172640000000000000000000000000000000000000000008152905190819003600b0190205b90565b6104d260008383610a64565b505050565b60025490565b6000808080808515156104ef57600080fd5b60005460408051828152602080840282010190915290801561051b578160200160208202803883390190505b50805161053091600191602090910190610ad4565b50600386905560005461054a90879063ffffffff610a0516565b6000549095506105659061035c90879063ffffffff610a1c16565b9250600083111561057f5760005461057c906108f1565b93505b600091505b6000548210156105de57508360008311801561059f57508184145b156105b7576105b4818463ffffffff610a5716565b90505b806001838154811015156105c757fe5b600091825260209091200155600190910190610584565b6006546105f1908763ffffffff610a5716565b6006819055604080518881526020810192909252805133927f412edf02d82089ccd9d6158ca78bb761a19c8f63a840cff791e4ad472bcaa0ac92908290030190a26005546040805160248082018a905282518083039091018152604490910182526020810180517bffffffffffffffffffffffffffffffffffffffffffffffffffffffff167f91c0aabf0000000000000000000000000000000000000000000000000000000017815291518151600160a060020a03909416939192909182919080838360005b838110156106cf5781810151838201526020016106b7565b50505050905090810190601f1680156106fc5780820380516001836020036101000a031916815260200191505b509150506000604051808303816000865af1915050151561046957600080fd5b60035481565b6000821161072f57600080fd5b600160a060020a038116151561074457600080fd5b600254610757908363ffffffff610a5716565b600255604080517fd2f240a8000000000000000000000000000000000000000000000000000000008152600481018490523360248201529051309163d2f240a891604480830192600092919082900301818387803b1580156107b857600080fd5b505af11580156107cc573d6000803e3d6000fd5b5050604051600160a060020a038416925084156108fc02915084906000818181858888f193505050501580156104d2573d6000803e3d6000fd5b600080548290811061081457fe5b600091825260209091200154600160a060020a0316905081565b604080517f6d696e746564546f74616c6c7942794272696467650000000000000000000000602080830191909152600160a060020a0384168284015282518083038401815260609092019283905281516000936004938593909282918401908083835b602083106108b05780518252601f199092019160209182019101610891565b51815160209384036101000a600019018019909216911617905260408051929094018290039091208652850195909552929092016000205495945050505050565b60008161090543600163ffffffff610a4516565b4081151561090f57fe5b0692915050565b604080517f6d696e746564546f74616c6c7942794272696467650000000000000000000000602080830191909152600160a060020a038416828401528251808303840181526060909201928390528151600093918291908401908083835b602083106109935780518252601f199092019160209182019101610974565b51815160209384036101000a6000190180199092169116179052604080519290940182900390912060008181526004909252929020549194506109dc9350909150859050610a57565b600091825260046020526040909120555050565b60065481565b600554600160a060020a031681565b60008183811515610a1257fe5b0490505b92915050565b6000821515610a2d57506000610a16565b50818102818382811515610a3d57fe5b0414610a1657fe5b600082821115610a5157fe5b50900390565b81810182811015610a1657fe5b828054828255906000526020600020908101928215610ac4579160200282015b82811115610ac457815473ffffffffffffffffffffffffffffffffffffffff1916600160a060020a03843516178255602090920191600190910190610a84565b50610ad0929150610b1b565b5090565b828054828255906000526020600020908101928215610b0f579160200282015b82811115610b0f578251825591602001919060010190610af4565b50610ad0929150610b4c565b6104c391905b80821115610ad057805473ffffffffffffffffffffffffffffffffffffffff19168155600101610b21565b6104c391905b80821115610ad05760008155600101610b525600a165627a7a7230582037187d38eae4a7d92bc34d053a2654d823bae7bbe212945d871879f3b0a982ff0029",
  "source": "pragma solidity 0.4.24;\n\nimport \"../interfaces/IBlockReward.sol\";\nimport \"openzeppelin-solidity/contracts/math/SafeMath.sol\";\n\ncontract BlockRewardMock {\n    using SafeMath for uint256;\n\n    event BridgeTokenRewardAdded(uint256 amount, uint256 cumulativeAmount, address indexed bridge);\n\n    address[] public validatorList;\n    uint256[] public validatorRewardList;\n    uint256 public mintedCoins = 0;\n    uint256 public feeAmount = 0;\n    mapping(bytes32 => uint256) internal uintStorage;\n    bytes32 internal constant MINTED_TOTALLY_BY_BRIDGE = \"mintedTotallyByBridge\";\n    bytes4 internal constant MINT_REWARD = 0x91c0aabf; // mintReward(uint256)\n    address public token;\n    uint256 public bridgeTokenReward = 0;\n\n    function() external payable {\n        // solhint-disable-previous-line no-empty-blocks\n    }\n\n    function addExtraReceiver(uint256 _amount, address _receiver) external {\n        require(_amount > 0);\n        require(_receiver != address(0));\n        mintedCoins = mintedCoins.add(_amount);\n        this.addMintedTotallyByBridge(_amount, msg.sender);\n        _receiver.transfer(_amount);\n    }\n\n    function mintedTotally() public view returns (uint256) {\n        return mintedCoins;\n    }\n\n    function mintedTotallyByBridge(address _bridge) public view returns (uint256) {\n        return uintStorage[keccak256(abi.encode(MINTED_TOTALLY_BY_BRIDGE, _bridge))];\n    }\n\n    function addMintedTotallyByBridge(uint256 _amount, address _bridge) external {\n        bytes32 hash = keccak256(abi.encode(MINTED_TOTALLY_BY_BRIDGE, _bridge));\n        uintStorage[hash] = uintStorage[hash].add(_amount);\n    }\n\n    function setValidatorsRewards(address[] _initialValidators) external {\n        validatorList = _initialValidators;\n    }\n\n    function setToken(address _token) external {\n        token = _token;\n    }\n\n    function addBridgeNativeRewardReceivers(uint256 _amount) external {\n        feeAmount = _amount;\n        uint256 feePerValidator = _amount.div(validatorList.length);\n\n        uint256 randomValidatorIndex;\n        uint256 diff = _amount.sub(feePerValidator.mul(validatorList.length));\n        if (diff > 0) {\n            randomValidatorIndex = random(validatorList.length);\n        }\n\n        for (uint256 i = 0; i < validatorList.length; i++) {\n            uint256 feeToDistribute = feePerValidator;\n            if (diff > 0 && randomValidatorIndex == i) {\n                feeToDistribute = feeToDistribute.add(diff);\n            }\n            this.addExtraReceiver(feeToDistribute, validatorList[i]);\n        }\n    }\n\n    function addBridgeTokenRewardReceivers(uint256 _amount) external {\n        require(_amount != 0);\n        validatorRewardList = new uint256[](validatorList.length);\n        feeAmount = _amount;\n        uint256 feePerValidator = _amount.div(validatorList.length);\n\n        uint256 randomValidatorIndex;\n        uint256 diff = _amount.sub(feePerValidator.mul(validatorList.length));\n        if (diff > 0) {\n            randomValidatorIndex = random(validatorList.length);\n        }\n\n        for (uint256 i = 0; i < validatorList.length; i++) {\n            uint256 feeToDistribute = feePerValidator;\n            if (diff > 0 && randomValidatorIndex == i) {\n                feeToDistribute = feeToDistribute.add(diff);\n            }\n            validatorRewardList[i] = feeToDistribute;\n        }\n\n        bridgeTokenReward = bridgeTokenReward.add(_amount);\n        emit BridgeTokenRewardAdded(_amount, bridgeTokenReward, msg.sender);\n        require(token.call(abi.encodeWithSelector(MINT_REWARD, _amount)));\n    }\n\n    function random(uint256 _count) public view returns (uint256) {\n        return uint256(blockhash(block.number.sub(1))) % _count;\n    }\n\n    function blockRewardContractId() public pure returns (bytes4) {\n        return bytes4(keccak256(\"blockReward\"));\n    }\n}\n",
  "sourcePath": "/Users/eabz/Documents/GitHub/tokenbridge/packages/poanetwork/contracts/mocks/BlockRewardMock.sol",
  "compiler": {
    "name": "solc",
    "version": "0.4.24+commit.e67f0147.Emscripten.clang"
  },
  "schemaVersion": "3.4.3",
  "updatedAt": "2021-09-04T01:08:19.211Z",
  "devdoc": {
    "methods": {}
  },
  "userdoc": {
    "methods": {}
  }
}