{
  "contractName": "DecimalShiftBridge",
  "abi": [
    {
      "constant": true,
      "inputs": [],
      "name": "decimalShift",
      "outputs": [
        {
          "name": "",
          "type": "int256"
        }
      ],
      "payable": false,
      "stateMutability": "view",
      "type": "function"
    }
  ],
  "bytecode": "0x6080604052348015600f57600080fd5b5060e18061001e6000396000f300608060405260043610603e5763ffffffff7c0100000000000000000000000000000000000000000000000000000000600035041663dae5f0fd81146043575b600080fd5b348015604e57600080fd5b5060556067565b60408051918252519081900360200190f35b7f1e8ecaafaddea96ed9ac6d2642dcdfe1bebe58a930b1085842d8fc122b371ee560009081526020527fd5c78dd9468716ca9bb96be25d56436811b20aab3523a9904b12deef1cab239d54905600a165627a7a723058207c82ce41388702fbe16eb690d3c9b44df853fbc8a3a5224809901dbd7333d8640029",
  "source": "pragma solidity 0.4.24;\n\nimport \"../upgradeability/EternalStorage.sol\";\nimport \"openzeppelin-solidity/contracts/math/SafeMath.sol\";\n\ncontract DecimalShiftBridge is EternalStorage {\n    using SafeMath for uint256;\n\n    bytes32 internal constant DECIMAL_SHIFT = 0x1e8ecaafaddea96ed9ac6d2642dcdfe1bebe58a930b1085842d8fc122b371ee5; // keccak256(abi.encodePacked(\"decimalShift\"))\n\n    /**\n    * @dev Internal function for setting the decimal shift for bridge operations.\n    * Decimal shift can be positive, negative, or equal to zero.\n    * It has the following meaning: N tokens in the foreign chain are equivalent to N * pow(10, shift) tokens on the home side.\n    * @param _shift new value of decimal shift.\n    */\n    function _setDecimalShift(int256 _shift) internal {\n        // since 1 wei * 10**77 > 2**255, it does not make any sense to use higher values\n        require(_shift > -77 && _shift < 77);\n        uintStorage[DECIMAL_SHIFT] = uint256(_shift);\n    }\n\n    /**\n    * @dev Returns the value of foreign-to-home decimal shift.\n    * @return decimal shift.\n    */\n    function decimalShift() public view returns (int256) {\n        return int256(uintStorage[DECIMAL_SHIFT]);\n    }\n\n    /**\n    * @dev Converts the amount of home tokens into the equivalent amount of foreign tokens.\n    * @param _value amount of home tokens.\n    * @return equivalent amount of foreign tokens.\n    */\n    function _unshiftValue(uint256 _value) internal view returns (uint256) {\n        return _shiftUint(_value, -decimalShift());\n    }\n\n    /**\n    * @dev Converts the amount of foreign tokens into the equivalent amount of home tokens.\n    * @param _value amount of foreign tokens.\n    * @return equivalent amount of home tokens.\n    */\n    function _shiftValue(uint256 _value) internal view returns (uint256) {\n        return _shiftUint(_value, decimalShift());\n    }\n\n    /**\n    * @dev Calculates _value * pow(10, _shift).\n    * @param _value amount of tokens.\n    * @param _shift decimal shift to apply.\n    * @return shifted value.\n    */\n    function _shiftUint(uint256 _value, int256 _shift) private pure returns (uint256) {\n        if (_shift == 0) {\n            return _value;\n        }\n        if (_shift > 0) {\n            return _value.mul(10**uint256(_shift));\n        }\n        return _value.div(10**uint256(-_shift));\n    }\n}\n",
  "sourcePath": "/Users/eabz/Documents/GitHub/tokenbridge/packages/poanetwork/contracts/upgradeable_contracts/DecimalShiftBridge.sol",
  "compiler": {
    "name": "solc",
    "version": "0.4.24+commit.e67f0147.Emscripten.clang"
  },
  "schemaVersion": "3.4.3",
  "updatedAt": "2021-09-04T01:08:19.290Z",
  "devdoc": {
    "methods": {
      "decimalShift()": {
        "details": "Returns the value of foreign-to-home decimal shift.",
        "return": "decimal shift."
      }
    }
  },
  "userdoc": {
    "methods": {}
  }
}