{
  "contractName": "ERC677BridgeTokenRewardable",
  "abi": [
    {
      "constant": false,
      "inputs": [
        {
          "name": "_bridge",
          "type": "address"
        }
      ],
      "name": "removeBridge",
      "outputs": [],
      "payable": false,
      "stateMutability": "nonpayable",
      "type": "function"
    },
    {
      "constant": true,
      "inputs": [],
      "name": "mintingFinished",
      "outputs": [
        {
          "name": "",
          "type": "bool"
        }
      ],
      "payable": false,
      "stateMutability": "view",
      "type": "function"
    },
    {
      "constant": true,
      "inputs": [],
      "name": "name",
      "outputs": [
        {
          "name": "",
          "type": "string"
        }
      ],
      "payable": false,
      "stateMutability": "view",
      "type": "function"
    },
    {
      "constant": false,
      "inputs": [
        {
          "name": "_to",
          "type": "address"
        },
        {
          "name": "_value",
          "type": "uint256"
        }
      ],
      "name": "approve",
      "outputs": [
        {
          "name": "result",
          "type": "bool"
        }
      ],
      "payable": false,
      "stateMutability": "nonpayable",
      "type": "function"
    },
    {
      "constant": false,
      "inputs": [
        {
          "name": "",
          "type": "address"
        }
      ],
      "name": "setBridgeContract",
      "outputs": [],
      "payable": false,
      "stateMutability": "nonpayable",
      "type": "function"
    },
    {
      "constant": true,
      "inputs": [],
      "name": "totalSupply",
      "outputs": [
        {
          "name": "",
          "type": "uint256"
        }
      ],
      "payable": false,
      "stateMutability": "view",
      "type": "function"
    },
    {
      "constant": true,
      "inputs": [],
      "name": "PERMIT_TYPEHASH",
      "outputs": [
        {
          "name": "",
          "type": "bytes32"
        }
      ],
      "payable": false,
      "stateMutability": "view",
      "type": "function"
    },
    {
      "constant": true,
      "inputs": [],
      "name": "decimals",
      "outputs": [
        {
          "name": "",
          "type": "uint8"
        }
      ],
      "payable": false,
      "stateMutability": "view",
      "type": "function"
    },
    {
      "constant": true,
      "inputs": [],
      "name": "DOMAIN_SEPARATOR",
      "outputs": [
        {
          "name": "",
          "type": "bytes32"
        }
      ],
      "payable": false,
      "stateMutability": "view",
      "type": "function"
    },
    {
      "constant": false,
      "inputs": [
        {
          "name": "_to",
          "type": "address"
        },
        {
          "name": "_addedValue",
          "type": "uint256"
        }
      ],
      "name": "increaseAllowance",
      "outputs": [
        {
          "name": "result",
          "type": "bool"
        }
      ],
      "payable": false,
      "stateMutability": "nonpayable",
      "type": "function"
    },
    {
      "constant": false,
      "inputs": [
        {
          "name": "_to",
          "type": "address"
        },
        {
          "name": "_value",
          "type": "uint256"
        },
        {
          "name": "_data",
          "type": "bytes"
        }
      ],
      "name": "transferAndCall",
      "outputs": [
        {
          "name": "",
          "type": "bool"
        }
      ],
      "payable": false,
      "stateMutability": "nonpayable",
      "type": "function"
    },
    {
      "constant": false,
      "inputs": [
        {
          "name": "_to",
          "type": "address"
        },
        {
          "name": "_amount",
          "type": "uint256"
        }
      ],
      "name": "mint",
      "outputs": [
        {
          "name": "",
          "type": "bool"
        }
      ],
      "payable": false,
      "stateMutability": "nonpayable",
      "type": "function"
    },
    {
      "constant": false,
      "inputs": [
        {
          "name": "_value",
          "type": "uint256"
        }
      ],
      "name": "burn",
      "outputs": [],
      "payable": false,
      "stateMutability": "nonpayable",
      "type": "function"
    },
    {
      "constant": true,
      "inputs": [
        {
          "name": "",
          "type": "address"
        }
      ],
      "name": "bridgePointers",
      "outputs": [
        {
          "name": "",
          "type": "address"
        }
      ],
      "payable": false,
      "stateMutability": "view",
      "type": "function"
    },
    {
      "constant": true,
      "inputs": [],
      "name": "version",
      "outputs": [
        {
          "name": "",
          "type": "string"
        }
      ],
      "payable": false,
      "stateMutability": "view",
      "type": "function"
    },
    {
      "constant": true,
      "inputs": [],
      "name": "blockRewardContract",
      "outputs": [
        {
          "name": "",
          "type": "address"
        }
      ],
      "payable": false,
      "stateMutability": "view",
      "type": "function"
    },
    {
      "constant": false,
      "inputs": [
        {
          "name": "_spender",
          "type": "address"
        },
        {
          "name": "_subtractedValue",
          "type": "uint256"
        }
      ],
      "name": "decreaseApproval",
      "outputs": [
        {
          "name": "",
          "type": "bool"
        }
      ],
      "payable": false,
      "stateMutability": "nonpayable",
      "type": "function"
    },
    {
      "constant": false,
      "inputs": [
        {
          "name": "_token",
          "type": "address"
        },
        {
          "name": "_to",
          "type": "address"
        }
      ],
      "name": "claimTokens",
      "outputs": [],
      "payable": false,
      "stateMutability": "nonpayable",
      "type": "function"
    },
    {
      "constant": true,
      "inputs": [
        {
          "name": "_owner",
          "type": "address"
        }
      ],
      "name": "balanceOf",
      "outputs": [
        {
          "name": "",
          "type": "uint256"
        }
      ],
      "payable": false,
      "stateMutability": "view",
      "type": "function"
    },
    {
      "constant": false,
      "inputs": [],
      "name": "renounceOwnership",
      "outputs": [],
      "payable": false,
      "stateMutability": "nonpayable",
      "type": "function"
    },
    {
      "constant": true,
      "inputs": [
        {
          "name": "_address",
          "type": "address"
        }
      ],
      "name": "isBridge",
      "outputs": [
        {
          "name": "",
          "type": "bool"
        }
      ],
      "payable": false,
      "stateMutability": "view",
      "type": "function"
    },
    {
      "constant": false,
      "inputs": [],
      "name": "finishMinting",
      "outputs": [
        {
          "name": "",
          "type": "bool"
        }
      ],
      "payable": false,
      "stateMutability": "nonpayable",
      "type": "function"
    },
    {
      "constant": true,
      "inputs": [
        {
          "name": "",
          "type": "address"
        }
      ],
      "name": "nonces",
      "outputs": [
        {
          "name": "",
          "type": "uint256"
        }
      ],
      "payable": false,
      "stateMutability": "view",
      "type": "function"
    },
    {
      "constant": true,
      "inputs": [],
      "name": "getTokenInterfacesVersion",
      "outputs": [
        {
          "name": "major",
          "type": "uint64"
        },
        {
          "name": "minor",
          "type": "uint64"
        },
        {
          "name": "patch",
          "type": "uint64"
        }
      ],
      "payable": false,
      "stateMutability": "pure",
      "type": "function"
    },
    {
      "constant": true,
      "inputs": [],
      "name": "owner",
      "outputs": [
        {
          "name": "",
          "type": "address"
        }
      ],
      "payable": false,
      "stateMutability": "view",
      "type": "function"
    },
    {
      "constant": false,
      "inputs": [
        {
          "name": "_holder",
          "type": "address"
        },
        {
          "name": "_spender",
          "type": "address"
        },
        {
          "name": "_nonce",
          "type": "uint256"
        },
        {
          "name": "_expiry",
          "type": "uint256"
        },
        {
          "name": "_allowed",
          "type": "bool"
        },
        {
          "name": "_v",
          "type": "uint8"
        },
        {
          "name": "_r",
          "type": "bytes32"
        },
        {
          "name": "_s",
          "type": "bytes32"
        }
      ],
      "name": "permit",
      "outputs": [],
      "payable": false,
      "stateMutability": "nonpayable",
      "type": "function"
    },
    {
      "constant": true,
      "inputs": [],
      "name": "symbol",
      "outputs": [
        {
          "name": "",
          "type": "string"
        }
      ],
      "payable": false,
      "stateMutability": "view",
      "type": "function"
    },
    {
      "constant": false,
      "inputs": [
        {
          "name": "_bridge",
          "type": "address"
        }
      ],
      "name": "addBridge",
      "outputs": [],
      "payable": false,
      "stateMutability": "nonpayable",
      "type": "function"
    },
    {
      "constant": true,
      "inputs": [],
      "name": "bridgeList",
      "outputs": [
        {
          "name": "",
          "type": "address[]"
        }
      ],
      "payable": false,
      "stateMutability": "view",
      "type": "function"
    },
    {
      "constant": false,
      "inputs": [
        {
          "name": "spender",
          "type": "address"
        },
        {
          "name": "subtractedValue",
          "type": "uint256"
        }
      ],
      "name": "decreaseAllowance",
      "outputs": [
        {
          "name": "",
          "type": "bool"
        }
      ],
      "payable": false,
      "stateMutability": "nonpayable",
      "type": "function"
    },
    {
      "constant": false,
      "inputs": [
        {
          "name": "_to",
          "type": "address"
        },
        {
          "name": "_amount",
          "type": "uint256"
        }
      ],
      "name": "push",
      "outputs": [],
      "payable": false,
      "stateMutability": "nonpayable",
      "type": "function"
    },
    {
      "constant": false,
      "inputs": [
        {
          "name": "_from",
          "type": "address"
        },
        {
          "name": "_to",
          "type": "address"
        },
        {
          "name": "_amount",
          "type": "uint256"
        }
      ],
      "name": "move",
      "outputs": [],
      "payable": false,
      "stateMutability": "nonpayable",
      "type": "function"
    },
    {
      "constant": true,
      "inputs": [],
      "name": "PERMIT_TYPEHASH_LEGACY",
      "outputs": [
        {
          "name": "",
          "type": "bytes32"
        }
      ],
      "payable": false,
      "stateMutability": "view",
      "type": "function"
    },
    {
      "constant": true,
      "inputs": [],
      "name": "F_ADDR",
      "outputs": [
        {
          "name": "",
          "type": "address"
        }
      ],
      "payable": false,
      "stateMutability": "view",
      "type": "function"
    },
    {
      "constant": true,
      "inputs": [],
      "name": "bridgeContract",
      "outputs": [
        {
          "name": "",
          "type": "address"
        }
      ],
      "payable": false,
      "stateMutability": "view",
      "type": "function"
    },
    {
      "constant": false,
      "inputs": [
        {
          "name": "_holder",
          "type": "address"
        },
        {
          "name": "_spender",
          "type": "address"
        },
        {
          "name": "_value",
          "type": "uint256"
        },
        {
          "name": "_deadline",
          "type": "uint256"
        },
        {
          "name": "_v",
          "type": "uint8"
        },
        {
          "name": "_r",
          "type": "bytes32"
        },
        {
          "name": "_s",
          "type": "bytes32"
        }
      ],
      "name": "permit",
      "outputs": [],
      "payable": false,
      "stateMutability": "nonpayable",
      "type": "function"
    },
    {
      "constant": false,
      "inputs": [
        {
          "name": "_spender",
          "type": "address"
        },
        {
          "name": "_addedValue",
          "type": "uint256"
        }
      ],
      "name": "increaseApproval",
      "outputs": [
        {
          "name": "",
          "type": "bool"
        }
      ],
      "payable": false,
      "stateMutability": "nonpayable",
      "type": "function"
    },
    {
      "constant": true,
      "inputs": [
        {
          "name": "_owner",
          "type": "address"
        },
        {
          "name": "_spender",
          "type": "address"
        }
      ],
      "name": "allowance",
      "outputs": [
        {
          "name": "",
          "type": "uint256"
        }
      ],
      "payable": false,
      "stateMutability": "view",
      "type": "function"
    },
    {
      "constant": true,
      "inputs": [],
      "name": "stakingContract",
      "outputs": [
        {
          "name": "",
          "type": "address"
        }
      ],
      "payable": false,
      "stateMutability": "view",
      "type": "function"
    },
    {
      "constant": false,
      "inputs": [
        {
          "name": "_from",
          "type": "address"
        },
        {
          "name": "_amount",
          "type": "uint256"
        }
      ],
      "name": "pull",
      "outputs": [],
      "payable": false,
      "stateMutability": "nonpayable",
      "type": "function"
    },
    {
      "constant": false,
      "inputs": [
        {
          "name": "_newOwner",
          "type": "address"
        }
      ],
      "name": "transferOwnership",
      "outputs": [],
      "payable": false,
      "stateMutability": "nonpayable",
      "type": "function"
    },
    {
      "constant": true,
      "inputs": [],
      "name": "bridgeCount",
      "outputs": [
        {
          "name": "",
          "type": "uint256"
        }
      ],
      "payable": false,
      "stateMutability": "view",
      "type": "function"
    },
    {
      "constant": true,
      "inputs": [
        {
          "name": "",
          "type": "address"
        },
        {
          "name": "",
          "type": "address"
        }
      ],
      "name": "expirations",
      "outputs": [
        {
          "name": "",
          "type": "uint256"
        }
      ],
      "payable": false,
      "stateMutability": "view",
      "type": "function"
    },
    {
      "inputs": [
        {
          "name": "_name",
          "type": "string"
        },
        {
          "name": "_symbol",
          "type": "string"
        },
        {
          "name": "_decimals",
          "type": "uint8"
        },
        {
          "name": "_chainId",
          "type": "uint256"
        }
      ],
      "payable": false,
      "stateMutability": "nonpayable",
      "type": "constructor"
    },
    {
      "anonymous": false,
      "inputs": [
        {
          "indexed": true,
          "name": "bridge",
          "type": "address"
        }
      ],
      "name": "BridgeAdded",
      "type": "event"
    },
    {
      "anonymous": false,
      "inputs": [
        {
          "indexed": true,
          "name": "bridge",
          "type": "address"
        }
      ],
      "name": "BridgeRemoved",
      "type": "event"
    },
    {
      "anonymous": false,
      "inputs": [
        {
          "indexed": true,
          "name": "to",
          "type": "address"
        },
        {
          "indexed": false,
          "name": "amount",
          "type": "uint256"
        }
      ],
      "name": "Mint",
      "type": "event"
    },
    {
      "anonymous": false,
      "inputs": [],
      "name": "MintFinished",
      "type": "event"
    },
    {
      "anonymous": false,
      "inputs": [
        {
          "indexed": true,
          "name": "previousOwner",
          "type": "address"
        }
      ],
      "name": "OwnershipRenounced",
      "type": "event"
    },
    {
      "anonymous": false,
      "inputs": [
        {
          "indexed": true,
          "name": "previousOwner",
          "type": "address"
        },
        {
          "indexed": true,
          "name": "newOwner",
          "type": "address"
        }
      ],
      "name": "OwnershipTransferred",
      "type": "event"
    },
    {
      "anonymous": false,
      "inputs": [
        {
          "indexed": true,
          "name": "burner",
          "type": "address"
        },
        {
          "indexed": false,
          "name": "value",
          "type": "uint256"
        }
      ],
      "name": "Burn",
      "type": "event"
    },
    {
      "anonymous": false,
      "inputs": [
        {
          "indexed": true,
          "name": "from",
          "type": "address"
        },
        {
          "indexed": true,
          "name": "to",
          "type": "address"
        },
        {
          "indexed": false,
          "name": "value",
          "type": "uint256"
        },
        {
          "indexed": false,
          "name": "data",
          "type": "bytes"
        }
      ],
      "name": "Transfer",
      "type": "event"
    },
    {
      "anonymous": false,
      "inputs": [
        {
          "indexed": true,
          "name": "owner",
          "type": "address"
        },
        {
          "indexed": true,
          "name": "spender",
          "type": "address"
        },
        {
          "indexed": false,
          "name": "value",
          "type": "uint256"
        }
      ],
      "name": "Approval",
      "type": "event"
    },
    {
      "anonymous": false,
      "inputs": [
        {
          "indexed": true,
          "name": "from",
          "type": "address"
        },
        {
          "indexed": true,
          "name": "to",
          "type": "address"
        },
        {
          "indexed": false,
          "name": "value",
          "type": "uint256"
        }
      ],
      "name": "Transfer",
      "type": "event"
    },
    {
      "constant": false,
      "inputs": [
        {
          "name": "_blockRewardContract",
          "type": "address"
        }
      ],
      "name": "setBlockRewardContract",
      "outputs": [],
      "payable": false,
      "stateMutability": "nonpayable",
      "type": "function"
    },
    {
      "constant": false,
      "inputs": [
        {
          "name": "_stakingContract",
          "type": "address"
        }
      ],
      "name": "setStakingContract",
      "outputs": [],
      "payable": false,
      "stateMutability": "nonpayable",
      "type": "function"
    },
    {
      "constant": false,
      "inputs": [
        {
          "name": "_amount",
          "type": "uint256"
        }
      ],
      "name": "mintReward",
      "outputs": [],
      "payable": false,
      "stateMutability": "nonpayable",
      "type": "function"
    },
    {
      "constant": false,
      "inputs": [
        {
          "name": "_staker",
          "type": "address"
        },
        {
          "name": "_amount",
          "type": "uint256"
        }
      ],
      "name": "stake",
      "outputs": [],
      "payable": false,
      "stateMutability": "nonpayable",
      "type": "function"
    },
    {
      "constant": false,
      "inputs": [
        {
          "name": "_to",
          "type": "address"
        },
        {
          "name": "_value",
          "type": "uint256"
        }
      ],
      "name": "transfer",
      "outputs": [
        {
          "name": "",
          "type": "bool"
        }
      ],
      "payable": false,
      "stateMutability": "nonpayable",
      "type": "function"
    },
    {
      "constant": false,
      "inputs": [
        {
          "name": "_from",
          "type": "address"
        },
        {
          "name": "_to",
          "type": "address"
        },
        {
          "name": "_value",
          "type": "uint256"
        }
      ],
      "name": "transferFrom",
      "outputs": [
        {
          "name": "",
          "type": "bool"
        }
      ],
      "payable": false,
      "stateMutability": "nonpayable",
      "type": "function"
    }
  ],
  "bytecode": "0x60806040526006805460a060020a60ff02191690553480156200002157600080fd5b5060405162002a7438038062002a74833981016040908152815160208084015192840151606085015192850180519095949094019390929185918591859185918591859185918591859185918591849184918491620000869160009186019062000329565b5081516200009c90600190602085019062000329565b506002805460ff90921660ff19909216919091179055505060068054600160a060020a03191633179055505050801515620000d657600080fd5b60405180807f454950373132446f6d61696e28737472696e67206e616d652c737472696e672081526020017f76657273696f6e2c75696e7432353620636861696e49642c616464726573732081526020017f766572696679696e67436f6e747261637429000000000000000000000000000081525060520190506040518091039020846040518082805190602001908083835b602083106200018a5780518252601f19909201916020918201910162000169565b51815160209384036101000a600019018019909216911617905260408051929094018290038220828501855260018084527f3100000000000000000000000000000000000000000000000000000000000000928401928352945190965091945090928392508083835b60208310620002145780518252601f199092019160209182019101620001f3565b51815160209384036101000a6000190180199092169116179052604080519290940182900382208282019890985281840196909652606081019690965250608085018690523060a0808701919091528151808703909101815260c09095019081905284519093849350850191508083835b60208310620002a65780518252601f19909201916020918201910162000285565b51815160209384036101000a600019018019909216911617905260405191909301819003902060085550600160a060020a036000819052600b9091527fbd0a91c9f9d084bad1a56f4df6c4c08bf6a3c9ff457e1c2f0ccbc02ffda9d3b18054600160a060020a031916909117905550620003ce9c50505050505050505050505050565b828054600181600116156101000203166002900490600052602060002090601f016020900481019282601f106200036c57805160ff19168380011785556200039c565b828001600101855582156200039c579182015b828111156200039c5782518255916020019190600101906200037f565b50620003aa929150620003ae565b5090565b620003cb91905b80821115620003aa5760008155600101620003b5565b90565b61269680620003de6000396000f3006080604052600436106102375763ffffffff60e060020a60003504166304df017d811461023c57806305d2035b1461025f57806306fdde0314610288578063095ea7b3146103125780630b26cf661461033657806318160ddd1461035757806323b872dd1461037e57806327a3e16b146103a857806330adf81f146103c9578063313ce567146103de5780633644e51514610409578063395093511461041e5780634000aea01461044257806340c10f191461047357806342966c68146104975780634bcb88bc146104af57806354fd4d50146104ec57806356b54bae14610501578063661884631461051657806369ffa08a1461053a57806370a0823114610561578063715018a614610582578063726600ce146105975780637d64bcb4146105b85780637ecebe00146105cd578063859ba28c146105ee5780638da5cb5b1461062f5780638fcbaf0c1461064457806391c0aabf1461068257806395d89b411461069a5780639712fdf8146106af5780639da38e2f146106d05780639dd373b914610735578063a457c2d714610756578063a9059cbb1461077a578063adc9772e1461079e578063b753a98c146107c2578063bb35783b146107e6578063c6a1dedf14610810578063c794c76914610825578063cd5965831461083a578063d505accf1461084f578063d73dd62314610888578063dd62ed3e146108ac578063ee99205c146108d3578063f2d5d56b146108e8578063f2fde38b1461090c578063fbb2a53f1461092d578063ff9e884d14610942575b600080fd5b34801561024857600080fd5b5061025d600160a060020a0360043516610969565b005b34801561026b57600080fd5b50610274610ad5565b604080519115158252519081900360200190f35b34801561029457600080fd5b5061029d610af6565b6040805160208082528351818301528351919283929083019185019080838360005b838110156102d75781810151838201526020016102bf565b50505050905090810190601f1680156103045780820380516001836020036101000a031916815260200191505b509250505060405180910390f35b34801561031e57600080fd5b50610274600160a060020a0360043516602435610b84565b34801561034257600080fd5b5061025d600160a060020a0360043516610237565b34801561036357600080fd5b5061036c610b9a565b60408051918252519081900360200190f35b34801561038a57600080fd5b50610274600160a060020a0360043581169060243516604435610ba0565b3480156103b457600080fd5b5061025d600160a060020a0360043516610bec565b3480156103d557600080fd5b5061036c610c46565b3480156103ea57600080fd5b506103f3610c6a565b6040805160ff9092168252519081900360200190f35b34801561041557600080fd5b5061036c610c73565b34801561042a57600080fd5b50610274600160a060020a0360043516602435610c79565b34801561044e57600080fd5b5061027460048035600160a060020a0316906024803591604435918201910135610cba565b34801561047f57600080fd5b50610274600160a060020a0360043516602435610dcb565b3480156104a357600080fd5b5061025d600435610ed6565b3480156104bb57600080fd5b506104d0600160a060020a0360043516610ee3565b60408051600160a060020a039092168252519081900360200190f35b3480156104f857600080fd5b5061029d610efe565b34801561050d57600080fd5b506104d0610f35565b34801561052257600080fd5b50610274600160a060020a0360043516602435610f44565b34801561054657600080fd5b5061025d600160a060020a0360043581169060243516611021565b34801561056d57600080fd5b5061036c600160a060020a0360043516611046565b34801561058e57600080fd5b5061025d611061565b3480156105a357600080fd5b50610274600160a060020a0360043516611078565b3480156105c457600080fd5b506102746110b2565b3480156105d957600080fd5b5061036c600160a060020a03600435166110b9565b3480156105fa57600080fd5b506106036110cb565b6040805167ffffffffffffffff9485168152928416602084015292168183015290519081900360600190f35b34801561063b57600080fd5b506104d06110d6565b34801561065057600080fd5b5061025d600160a060020a0360043581169060243516604435606435608435151560ff60a4351660c43560e4356110e5565b34801561068e57600080fd5b5061025d600435611223565b3480156106a657600080fd5b5061029d61131d565b3480156106bb57600080fd5b5061025d600160a060020a0360043516611377565b3480156106dc57600080fd5b506106e5611497565b60408051602080825283518183015283519192839290830191858101910280838360005b83811015610721578181015183820152602001610709565b505050509050019250505060405180910390f35b34801561074157600080fd5b5061025d600160a060020a036004351661156c565b34801561076257600080fd5b50610274600160a060020a03600435166024356115d9565b34801561078657600080fd5b50610274600160a060020a03600435166024356115ec565b3480156107aa57600080fd5b5061025d600160a060020a036004351660243561162f565b3480156107ce57600080fd5b5061025d600160a060020a03600435166024356116f8565b3480156107f257600080fd5b5061025d600160a060020a0360043581169060243516604435611708565b34801561081c57600080fd5b5061036c611719565b34801561083157600080fd5b506104d061173d565b34801561084657600080fd5b506104d06110b2565b34801561085b57600080fd5b5061025d600160a060020a036004358116906024351660443560643560ff6084351660a43560c435611748565b34801561089457600080fd5b50610274600160a060020a0360043516602435611824565b3480156108b857600080fd5b5061036c600160a060020a03600435811690602435166118ab565b3480156108df57600080fd5b506104d06118d6565b3480156108f457600080fd5b5061025d600160a060020a03600435166024356118e5565b34801561091857600080fd5b5061025d600160a060020a03600435166118f0565b34801561093957600080fd5b5061036c611910565b34801561094e57600080fd5b5061036c600160a060020a0360043581169060243516611916565b60065460009081908190600160a060020a0316331461098757600080fd5b61099084611078565b151561099b57600080fd5b505050600160a060020a038082166000908152600b60205260408120549082905260008051602061260b83398151915254908216919081168015156109df57600080fd5b600160a060020a0381811690851614610a3a57600160a060020a038082166000908152600b6020526040902054919250908116908114801590610a2a5750600160a060020a03811615155b1515610a3557600080fd5b6109df565b600160a060020a038083166000908152600b6020526040808220805484881673ffffffffffffffffffffffffffffffffffffffff19918216179091559287168252902080549091169055600c54610a9890600163ffffffff61193316565b600c55604051600160a060020a038516907f5d9d5034656cb3ebfb0655057cd7f9b4077a9b42ff42ce223cbac5bc586d212690600090a250505050565b60065474010000000000000000000000000000000000000000900460ff1681565b6000805460408051602060026001851615610100026000190190941693909304601f81018490048402820184019092528181529291830182828015610b7c5780601f10610b5157610100808354040283529160200191610b7c565b820191906000526020600020905b815481529060010190602001808311610b5f57829003601f168201915b505050505081565b6000610b91338484611945565b50600192915050565b60045490565b600d54600090600160a060020a0384811691161415610bbe57600080fd5b600e54600160a060020a0384811691161415610bd957600080fd5b610be4848484611987565b949350505050565b600654600160a060020a03163314610c0357600080fd5b610c0c81611b4f565b1515610c1757600080fd5b600d805473ffffffffffffffffffffffffffffffffffffffff1916600160a060020a0392909216919091179055565b7f6e71edae12b1b97f4d1f60370fef10105fa2faae0126114a169c64845d6126c981565b60025460ff1681565b60085481565b336000818152600560209081526040808320600160a060020a03871684529091528120549091610b91918590610cb5908663ffffffff611b5716565b611945565b600084600160a060020a03811615801590610cde5750600160a060020a0381163014155b1515610ce957600080fd5b610cf38686611b64565b1515610cfe57600080fd5b85600160a060020a031633600160a060020a03167fe19260aff97b920c7df27010903aeb9c8d2be5d310a2c67824cf3f15396e4c16878787604051808481526020018060200182810382528484828181526020019250808284376040519201829003965090945050505050a3610d7386611b4f565b15610dbf57610db433878787878080601f01602080910402602001604051908101604052809392919081815260200183838082843750611b70945050505050565b1515610dbf57600080fd5b50600195945050505050565b600654600090600160a060020a03163314610de557600080fd5b60065474010000000000000000000000000000000000000000900460ff1615610e0d57600080fd5b600454610e20908363ffffffff611b5716565b600455600160a060020a038316600090815260036020526040902054610e4c908363ffffffff611b5716565b600160a060020a038416600081815260036020908152604091829020939093558051858152905191927f0f6798a560793a54c3bcfe86a93cde1e73087d944c0ea20544137d412139688592918290030190a2604080518381529051600160a060020a0385169160009160008051602061262b8339815191529181900360200190a350600192915050565b610ee03382611ced565b50565b600b60205260009081526040902054600160a060020a031681565b60408051808201909152600181527f3100000000000000000000000000000000000000000000000000000000000000602082015281565b600d54600160a060020a031681565b336000908152600560209081526040808320600160a060020a0386168452909152812054808310610f9857336000908152600560209081526040808320600160a060020a0388168452909152812055610fcd565b610fa8818463ffffffff61193316565b336000908152600560209081526040808320600160a060020a03891684529091529020555b336000818152600560209081526040808320600160a060020a03891680855290835292819020548151908152905192939260008051602061264b833981519152929181900390910190a35060019392505050565b600654600160a060020a0316331461103857600080fd5b6110428282611ddc565b5050565b600160a060020a031660009081526003602052604090205490565b600654600160a060020a0316331461023757600080fd5b6000600160a060020a03828116148015906110ac5750600160a060020a038281166000908152600b60205260409020541615155b92915050565b6000806000fd5b60096020526000908152604090205481565b600260056000909192565b600654600160a060020a031681565b6000808615806110f55750864211155b151561110057600080fd5b604080517fea2aa0a1be11a07ed86d755c93467f4f82362b452371d1ba94d1715123511acb6020820152600160a060020a03808d16828401528b166060820152608081018a905260a0810189905287151560c0808301919091528251808303909101815260e090910190915261117590611e1a565b915061118382868686611f21565b600160a060020a038b811691161461119a57600080fd5b600160a060020a038a16600090815260096020526040902080546001810190915588146111c657600080fd5b856111d25760006111d6565b6000195b9050856111e45760006111e6565b865b600160a060020a03808c166000908152600a60209081526040808320938e16835292905220556112178a8a83612123565b50505050505050505050565b600d54600090600160a060020a0316331461123d57600080fd5b81151561124957611042565b50600d54600454600160a060020a039091169061126c908363ffffffff611b5716565b600455600160a060020a038116600090815260036020526040902054611298908363ffffffff611b5716565b600160a060020a038216600081815260036020908152604091829020939093558051858152905191927f0f6798a560793a54c3bcfe86a93cde1e73087d944c0ea20544137d412139688592918290030190a2604080518381529051600160a060020a0383169160009160008051602061262b8339815191529181900360200190a35050565b60018054604080516020600284861615610100026000190190941693909304601f81018490048402820184019092528181529291830182828015610b7c5780601f10610b5157610100808354040283529160200191610b7c565b600654600090600160a060020a0316331461139157600080fd5b600c546032116113a057600080fd5b6113a982611b4f565b15156113b457600080fd5b6113bd82611078565b156113c757600080fd5b50600160a060020a036000819052600b60205260008051602061260b83398151915254168015156113f757600080fd5b600b60205260008051602061260b833981519152805473ffffffffffffffffffffffffffffffffffffffff19908116600160a060020a038581169182179093556000908152604090208054909116918316919091179055600c5461145c906001611b57565b600c55604051600160a060020a038316907f3cda433c5679ae4c6a5dea50840e222a42cba3695e4663de4366be899348422190600090a25050565b606080600080600c546040519080825280602002602001820160405280156114c9578160200160208202803883390190505b50600160a060020a036000818152600b60205260008051602061260b83398151915254929550935016905080151561150057600080fd5b600160a060020a03818116146115645780838381518110151561151f57fe5b600160a060020a0392831660209182029092018101919091529181166000908152600b909252604090912054600192909201911680151561155f57600080fd5b611500565b509092915050565b600654600160a060020a0316331461158357600080fd5b61158c81611b4f565b151561159757600080fd5b6115a081611046565b156115aa57600080fd5b600e805473ffffffffffffffffffffffffffffffffffffffff1916600160a060020a0392909216919091179055565b60006115e58383610f44565b9392505050565b600d54600090600160a060020a038481169116141561160a57600080fd5b600e54600160a060020a038481169116141561162557600080fd5b6115e5838361227e565b600e54600160a060020a0316331461164657600080fd5b600160a060020a03821660009081526003602052604090205461166f908263ffffffff61193316565b600160a060020a0380841660009081526003602052604080822093909355600e54909116815220546116a7908263ffffffff611b5716565b600e8054600160a060020a0390811660009081526003602090815260409182902094909455915482518581529251908216939186169260008051602061262b83398151915292908290030190a35050565b611703338383610ba0565b505050565b611713838383610ba0565b50505050565b7fea2aa0a1be11a07ed86d755c93467f4f82362b452371d1ba94d1715123511acb81565b600160a060020a0381565b6000804286101561175857600080fd5b600160a060020a03808a1660008181526009602090815260409182902080546001810190915582517f6e71edae12b1b97f4d1f60370fef10105fa2faae0126114a169c64845d6126c99281019290925281830193909352928b166060840152608083018a905260a0830182905260c08084018a90528151808503909101815260e0909301905292506117e990611e1a565b90506117f781868686611f21565b600160a060020a038a811691161461180e57600080fd5b611819898989611945565b505050505050505050565b336000908152600560209081526040808320600160a060020a0386168452909152812054611858908363ffffffff611b5716565b336000818152600560209081526040808320600160a060020a03891680855290835292819020859055805194855251919360008051602061264b833981519152929081900390910190a350600192915050565b600160a060020a03918216600090815260056020908152604080832093909416825291909152205490565b600e54600160a060020a031681565b611703823383610ba0565b600654600160a060020a0316331461190757600080fd5b610ee0816122a0565b600c5481565b600a60209081526000928352604080842090915290825290205481565b60008282111561193f57fe5b50900390565b611950838383612123565b60001981141561170357600160a060020a038084166000908152600a60209081526040808320938616835292905290812055505050565b600080600160a060020a038516151561199f57600080fd5b600160a060020a03841615156119b457600080fd5b600160a060020a0385166000908152600360205260409020546119dd908463ffffffff61193316565b600160a060020a038087166000908152600360205260408082209390935590861681522054611a12908463ffffffff611b5716565b600160a060020a03808616600081815260036020908152604091829020949094558051878152905191939289169260008051602061262b83398151915292918290030190a3600160a060020a0385163314611b3957611a7185336118ab565b90506000198114611adb57611a8c818463ffffffff61193316565b600160a060020a03861660008181526005602090815260408083203380855290835292819020859055805194855251919360008051602061264b833981519152929081900390910190a3611b39565b600160a060020a0385166000908152600a602090815260408083203384529091529020541580611b2e5750600160a060020a0385166000908152600a602090815260408083203384529091529020544211155b1515611b3957600080fd5b611b4485858561231e565b506001949350505050565b6000903b1190565b818101828110156110ac57fe5b60006115e58383612355565b600083600160a060020a031663a4c0ed3660e060020a028685856040516024018084600160a060020a0316600160a060020a0316815260200183815260200180602001828103825283818151815260200191508051906020019080838360005b83811015611be8578181015183820152602001611bd0565b50505050905090810190601f168015611c155780820380516001836020036101000a031916815260200191505b5060408051601f198184030181529181526020820180517bffffffffffffffffffffffffffffffffffffffffffffffffffffffff167fffffffff00000000000000000000000000000000000000000000000000000000909916989098178852518151919790965086955093509150819050838360005b83811015611ca3578181015183820152602001611c8b565b50505050905090810190601f168015611cd05780820380516001836020036101000a031916815260200191505b509150506000604051808303816000865af1979650505050505050565b600160a060020a038216600090815260036020526040902054811115611d1257600080fd5b600160a060020a038216600090815260036020526040902054611d3b908263ffffffff61193316565b600160a060020a038316600090815260036020526040902055600454611d67908263ffffffff61193316565b600455604080518281529051600160a060020a038416917fcc16f5dbb4873280815c1ee09dbd06736cffcc184412cf7a71a0fdb75d397ca5919081900360200190a2604080518281529051600091600160a060020a0385169160008051602061262b8339815191529181900360200190a35050565b80600160a060020a0381161515611df257600080fd5b600160a060020a0383161515611e1057611e0b82612424565b611703565b6117038383612430565b6000600854826040518082805190602001908083835b60208310611e4f5780518252601f199092019160209182019101611e30565b51815160209384036101000a6000190180199092169116179052604080519290940182900382207f190100000000000000000000000000000000000000000000000000000000000083830152602283019790975260428083019790975283518083039097018752606290910192839052855192945084935085019190508083835b60208310611eef5780518252601f199092019160209182019101611ed0565b5181516020939093036101000a6000190180199091169216919091179052604051920182900390912095945050505050565b6000808460ff16601b1480611f3957508460ff16601c145b1515611fb5576040805160e560020a62461bcd02815260206004820152602260248201527f45434453413a20696e76616c6964207369676e6174757265202776272076616c60448201527f7565000000000000000000000000000000000000000000000000000000000000606482015290519081900360840190fd5b7f7fffffffffffffffffffffffffffffff5d576e7357a4501ddfe92f46681b20a0831115612053576040805160e560020a62461bcd02815260206004820152602260248201527f45434453413a20696e76616c6964207369676e6174757265202773272076616c60448201527f7565000000000000000000000000000000000000000000000000000000000000606482015290519081900360840190fd5b60408051600080825260208083018085528a905260ff8916838501526060830188905260808301879052925160019360a0808501949193601f19840193928390039091019190865af11580156120ad573d6000803e3d6000fd5b5050604051601f190151915050600160a060020a038116151561211a576040805160e560020a62461bcd02815260206004820152601860248201527f45434453413a20696e76616c6964207369676e61747572650000000000000000604482015290519081900360640190fd5b95945050505050565b600160a060020a03831615156121a8576040805160e560020a62461bcd028152602060048201526024808201527f45524332303a20617070726f76652066726f6d20746865207a65726f2061646460448201527f7265737300000000000000000000000000000000000000000000000000000000606482015290519081900360840190fd5b600160a060020a038216151561222e576040805160e560020a62461bcd02815260206004820152602260248201527f45524332303a20617070726f766520746f20746865207a65726f20616464726560448201527f7373000000000000000000000000000000000000000000000000000000000000606482015290519081900360840190fd5b600160a060020a038084166000818152600560209081526040808320948716808452948252918290208590558151858152915160008051602061264b8339815191529281900390910190a3505050565b600061228a8383611b64565b151561229557600080fd5b610b9133848461231e565b600160a060020a03811615156122b557600080fd5b600654604051600160a060020a038084169216907f8be0079c531659141344cd1fd0a4f28419497f9722a3daafe3b4186f6b6457e090600090a36006805473ffffffffffffffffffffffffffffffffffffffff1916600160a060020a0392909216919091179055565b61232782611078565b156117035760408051600081526020810190915261234a90849084908490611b70565b151561170357600080fd5b3360009081526003602052604081205482111561237157600080fd5b600160a060020a038316151561238657600080fd5b336000908152600360205260409020546123a6908363ffffffff61193316565b3360009081526003602052604080822092909255600160a060020a038516815220546123d8908363ffffffff611b5716565b600160a060020a03841660008181526003602090815260409182902093909355805185815290519192339260008051602061262b8339815191529281900390910190a350600192915050565b303161104282826124dd565b604080517f70a0823100000000000000000000000000000000000000000000000000000000815230600482015290518391600091600160a060020a038416916370a0823191602480830192602092919082900301818787803b15801561249557600080fd5b505af11580156124a9573d6000803e3d6000fd5b505050506040513d60208110156124bf57600080fd5b50519050611713600160a060020a038516848363ffffffff61254516565b604051600160a060020a0383169082156108fc029083906000818181858888f1935050505015156110425780826125126125da565b600160a060020a039091168152604051908190036020019082f08015801561253e573d6000803e3d6000fd5b5050505050565b82600160a060020a031663a9059cbb83836040518363ffffffff1660e060020a0281526004018083600160a060020a0316600160a060020a0316815260200182815260200192505050600060405180830381600087803b1580156125a857600080fd5b505af11580156125bc573d6000803e3d6000fd5b505050503d156117035760206000803e600051151561170357600080fd5b6040516021806125ea833901905600608060405260405160208060218339810160405251600160a060020a038116ff00bd0a91c9f9d084bad1a56f4df6c4c08bf6a3c9ff457e1c2f0ccbc02ffda9d3b1ddf252ad1be2c89b69c2b068fc378daa952ba7f163c4a11628f55a4df523b3ef8c5be1e5ebec7d5bd14f71427d1e84f3dd0314c0f7b2291e5b200ac8c7c3b925a165627a7a723058200ee980fa646bfc8abd98737ca8f3bed33e34a2ba9dca20d7368c146312caef7c0029",
  "source": "pragma solidity 0.4.24;\n\nimport \"./ERC677MultiBridgeToken.sol\";\n\ncontract ERC677BridgeTokenRewardable is ERC677MultiBridgeToken {\n    address public blockRewardContract;\n    address public stakingContract;\n\n    constructor(string _name, string _symbol, uint8 _decimals, uint256 _chainId)\n        public\n        ERC677MultiBridgeToken(_name, _symbol, _decimals, _chainId)\n    {\n        // solhint-disable-previous-line no-empty-blocks\n    }\n\n    /**\n     * @dev Updates the address of the used block reward contract.\n     * Only the token owner can call this method. \n     * Even though this function is inteded only for the initialization purpose,\n     * it is still possible to change the already used block reward contract.\n     * In this case users of the old contract won't lose their accumulated rewards,\n     * they can proceed with the withdrawal by calling the old block reward contract directly.\n     * @param _blockRewardContract address of the new block reward contract.\n     */\n    function setBlockRewardContract(address _blockRewardContract) external onlyOwner {\n        require(AddressUtils.isContract(_blockRewardContract));\n        blockRewardContract = _blockRewardContract;\n    }\n\n    /**\n     * @dev Updates the address of the used staking contract.\n     * Only the token owner can call this method. \n     * Even though this function is inteded only for the initialization purpose,\n     * it is still possible to change the already used staking contract.\n     * In this case users of the old staking contract won't lose their tokens,\n     * they can proceed with the withdrawal by calling the old staking contract directly.\n     * @param _stakingContract address of the new staking contract.\n     */\n    function setStakingContract(address _stakingContract) external onlyOwner {\n        require(AddressUtils.isContract(_stakingContract));\n        require(balanceOf(_stakingContract) == 0);\n        stakingContract = _stakingContract;\n    }\n\n    modifier onlyBlockRewardContract() {\n        require(msg.sender == blockRewardContract);\n        /* solcov ignore next */\n        _;\n    }\n\n    modifier onlyStakingContract() {\n        require(msg.sender == stakingContract);\n        /* solcov ignore next */\n        _;\n    }\n\n    function mintReward(uint256 _amount) external onlyBlockRewardContract {\n        if (_amount == 0) return;\n        // Mint `_amount` for the BlockReward contract\n        address to = blockRewardContract;\n        totalSupply_ = totalSupply_.add(_amount);\n        balances[to] = balances[to].add(_amount);\n        emit Mint(to, _amount);\n        emit Transfer(address(0), to, _amount);\n    }\n\n    function stake(address _staker, uint256 _amount) external onlyStakingContract {\n        // Transfer `_amount` from `_staker` to `stakingContract`\n        balances[_staker] = balances[_staker].sub(_amount);\n        balances[stakingContract] = balances[stakingContract].add(_amount);\n        emit Transfer(_staker, stakingContract, _amount);\n    }\n\n    function transfer(address _to, uint256 _value) public returns (bool) {\n        require(_to != blockRewardContract);\n        require(_to != stakingContract);\n        return super.transfer(_to, _value);\n    }\n\n    function transferFrom(address _from, address _to, uint256 _value) public returns (bool) {\n        require(_to != blockRewardContract);\n        require(_to != stakingContract);\n        return super.transferFrom(_from, _to, _value);\n    }\n\n}\n",
  "sourcePath": "/Users/eabz/Documents/GitHub/tokenbridge/packages/poanetwork/contracts/ERC677BridgeTokenRewardable.sol",
  "compiler": {
    "name": "solc",
    "version": "0.4.24+commit.e67f0147.Emscripten.clang"
  },
  "schemaVersion": "3.4.3",
  "updatedAt": "2021-09-04T01:08:19.152Z",
  "devdoc": {
    "methods": {
      "addBridge(address)": {
        "details": "Adds one more bridge contract into the list",
        "params": {
          "_bridge": "bridge contract address"
        }
      },
      "allowance(address,address)": {
        "details": "Function to check the amount of tokens that an owner allowed to a spender.",
        "params": {
          "_owner": "address The address which owns the funds.",
          "_spender": "address The address which will spend the funds."
        },
        "return": "A uint256 specifying the amount of tokens still available for the spender."
      },
      "approve(address,uint256)": {
        "details": "Approve the passed address to spend the specified amount of tokens on behalf of msg.sender.",
        "params": {
          "_to": "The address which will spend the funds.",
          "_value": "The amount of tokens to be spent."
        }
      },
      "balanceOf(address)": {
        "details": "Gets the balance of the specified address.",
        "params": {
          "_owner": "The address to query the the balance of."
        },
        "return": "An uint256 representing the amount owned by the passed address."
      },
      "bridgeContract()": {
        "details": "Removes unused getter from ERC677BridgeToken contract"
      },
      "bridgeList()": {
        "details": "Returns all recorded bridge contract addresses",
        "return": "address[] bridge contract addresses"
      },
      "burn(uint256)": {
        "details": "Burns a specific amount of tokens.",
        "params": {
          "_value": "The amount of token to be burned."
        }
      },
      "claimTokens(address,address)": {
        "details": "Withdraws the erc20 tokens or native coins from this contract.",
        "params": {
          "_to": "address of the tokens/coins receiver.",
          "_token": "address of the claimed token or address(0) for native coins."
        }
      },
      "decreaseApproval(address,uint256)": {
        "details": "Decrease the amount of tokens that an owner allowed to a spender. approve should be called when allowed[_spender] == 0. To decrement allowed value is better to use this function to avoid 2 calls (and wait until the first transaction is mined) From MonolithDAO Token.sol",
        "params": {
          "_spender": "The address which will spend the funds.",
          "_subtractedValue": "The amount of tokens to decrease the allowance by."
        }
      },
      "increaseAllowance(address,uint256)": {
        "details": "Atomically increases the allowance granted to spender by the caller.",
        "params": {
          "_addedValue": "The amount of tokens to increase the allowance by.",
          "_to": "The address which will spend the funds."
        }
      },
      "increaseApproval(address,uint256)": {
        "details": "Increase the amount of tokens that an owner allowed to a spender. approve should be called when allowed[_spender] == 0. To increment allowed value is better to use this function to avoid 2 calls (and wait until the first transaction is mined) From MonolithDAO Token.sol",
        "params": {
          "_addedValue": "The amount of tokens to increase the allowance by.",
          "_spender": "The address which will spend the funds."
        }
      },
      "isBridge(address)": {
        "details": "Checks if given address is included into bridge contracts list",
        "params": {
          "_address": "bridge contract address"
        },
        "return": "bool true, if given address is a known bridge contract "
      },
      "mint(address,uint256)": {
        "details": "Function to mint tokens",
        "params": {
          "_amount": "The amount of tokens to mint.",
          "_to": "The address that will receive the minted tokens."
        },
        "return": "A boolean that indicates if the operation was successful."
      },
      "move(address,address,uint256)": {
        "details": "An alias for `transferFrom` function.",
        "params": {
          "_amount": "The value to transfer.",
          "_from": "The address of the sender.",
          "_to": "The address of the recipient."
        }
      },
      "permit(address,address,uint256,uint256,bool,uint8,bytes32,bytes32)": {
        "details": "Allows to spend holder's unlimited amount by the specified spender. The function can be called by anyone, but requires having allowance parameters signed by the holder according to EIP712.",
        "params": {
          "_allowed": "True to enable unlimited allowance for the spender by the holder. False to disable.",
          "_expiry": "The allowance expiration date (unix timestamp in UTC). Can be zero for no expiration. Forced to zero if `_allowed` is `false`. Note that timestamps are not precise, malicious miner/validator can manipulate them to some extend. Assume that there can be a 900 seconds time delta between the desired timestamp and the actual expiration.",
          "_holder": "The holder's address.",
          "_nonce": "The nonce taken from `nonces(_holder)` public getter.",
          "_r": "The first 32 bytes of signature (ECDSA component).",
          "_s": "The second 32 bytes of signature (ECDSA component).",
          "_spender": "The spender's address.",
          "_v": "A final byte of signature (ECDSA component)."
        }
      },
      "permit(address,address,uint256,uint256,uint8,bytes32,bytes32)": {
        "details": "Allows to spend holder's unlimited amount by the specified spender according to EIP2612. The function can be called by anyone, but requires having allowance parameters signed by the holder according to EIP712.",
        "params": {
          "_deadline": "The deadline timestamp to call the permit function. Must be a timestamp in the future. Note that timestamps are not precise, malicious miner/validator can manipulate them to some extend. Assume that there can be a 900 seconds time delta between the desired timestamp and the actual expiration.",
          "_holder": "The holder's address.",
          "_r": "The first 32 bytes of signature (ECDSA component).",
          "_s": "The second 32 bytes of signature (ECDSA component).",
          "_spender": "The spender's address.",
          "_v": "A final byte of signature (ECDSA component).",
          "_value": "Allowance value to set as a result of the call."
        }
      },
      "pull(address,uint256)": {
        "details": "Makes a request to transfer the specified amount from the specified address to the caller's address.",
        "params": {
          "_amount": "The value to transfer.",
          "_from": "The address of the holder."
        }
      },
      "push(address,uint256)": {
        "details": "An alias for `transfer` function.",
        "params": {
          "_amount": "The value to transfer.",
          "_to": "The address of the recipient."
        }
      },
      "removeBridge(address)": {
        "details": "Removes one existing bridge contract from the list",
        "params": {
          "_bridge": "bridge contract address"
        }
      },
      "setBlockRewardContract(address)": {
        "details": "Updates the address of the used block reward contract. Only the token owner can call this method.  Even though this function is inteded only for the initialization purpose, it is still possible to change the already used block reward contract. In this case users of the old contract won't lose their accumulated rewards, they can proceed with the withdrawal by calling the old block reward contract directly.",
        "params": {
          "_blockRewardContract": "address of the new block reward contract."
        }
      },
      "setBridgeContract(address)": {
        "details": "Removes unused function from ERC677BridgeToken contract"
      },
      "setStakingContract(address)": {
        "details": "Updates the address of the used staking contract. Only the token owner can call this method.  Even though this function is inteded only for the initialization purpose, it is still possible to change the already used staking contract. In this case users of the old staking contract won't lose their tokens, they can proceed with the withdrawal by calling the old staking contract directly.",
        "params": {
          "_stakingContract": "address of the new staking contract."
        }
      },
      "totalSupply()": {
        "details": "Total number of tokens in existence"
      },
      "transferOwnership(address)": {
        "details": "Allows the current owner to transfer control of the contract to a newOwner.",
        "params": {
          "_newOwner": "The address to transfer ownership to."
        }
      }
    }
  },
  "userdoc": {
    "methods": {}
  }
}