{
  "contractName": "ForeignBridgeErcToNativeMock",
  "abi": [
    {
      "constant": false,
      "inputs": [
        {
          "name": "_receiver",
          "type": "address"
        },
        {
          "name": "_amount",
          "type": "uint256"
        }
      ],
      "name": "relayTokens",
      "outputs": [],
      "payable": false,
      "stateMutability": "nonpayable",
      "type": "function"
    },
    {
      "constant": false,
      "inputs": [
        {
          "name": "_token",
          "type": "address"
        }
      ],
      "name": "invest",
      "outputs": [],
      "payable": false,
      "stateMutability": "nonpayable",
      "type": "function"
    },
    {
      "constant": true,
      "inputs": [],
      "name": "erc20token",
      "outputs": [
        {
          "name": "",
          "type": "address"
        }
      ],
      "payable": false,
      "stateMutability": "view",
      "type": "function"
    },
    {
      "constant": false,
      "inputs": [
        {
          "name": "message",
          "type": "bytes"
        },
        {
          "name": "signatures",
          "type": "bytes"
        },
        {
          "name": "maxTokensFee",
          "type": "uint256"
        }
      ],
      "name": "executeSignaturesGSN",
      "outputs": [],
      "payable": false,
      "stateMutability": "nonpayable",
      "type": "function"
    },
    {
      "constant": true,
      "inputs": [
        {
          "name": "_txHash",
          "type": "bytes32"
        }
      ],
      "name": "relayedMessages",
      "outputs": [
        {
          "name": "",
          "type": "bool"
        }
      ],
      "payable": false,
      "stateMutability": "view",
      "type": "function"
    },
    {
      "constant": true,
      "inputs": [
        {
          "name": "_day",
          "type": "uint256"
        }
      ],
      "name": "totalSpentPerDay",
      "outputs": [
        {
          "name": "",
          "type": "uint256"
        }
      ],
      "payable": false,
      "stateMutability": "view",
      "type": "function"
    },
    {
      "constant": true,
      "inputs": [],
      "name": "isInitialized",
      "outputs": [
        {
          "name": "",
          "type": "bool"
        }
      ],
      "payable": false,
      "stateMutability": "view",
      "type": "function"
    },
    {
      "constant": false,
      "inputs": [
        {
          "name": "_dailyLimit",
          "type": "uint256"
        }
      ],
      "name": "setExecutionDailyLimit",
      "outputs": [],
      "payable": false,
      "stateMutability": "nonpayable",
      "type": "function"
    },
    {
      "constant": true,
      "inputs": [],
      "name": "getCurrentDay",
      "outputs": [
        {
          "name": "",
          "type": "uint256"
        }
      ],
      "payable": false,
      "stateMutability": "view",
      "type": "function"
    },
    {
      "constant": true,
      "inputs": [],
      "name": "requiredBlockConfirmations",
      "outputs": [
        {
          "name": "",
          "type": "uint256"
        }
      ],
      "payable": false,
      "stateMutability": "view",
      "type": "function"
    },
    {
      "constant": false,
      "inputs": [
        {
          "name": "message",
          "type": "bytes"
        },
        {
          "name": "signatures",
          "type": "bytes"
        }
      ],
      "name": "executeSignatures",
      "outputs": [],
      "payable": false,
      "stateMutability": "nonpayable",
      "type": "function"
    },
    {
      "constant": true,
      "inputs": [],
      "name": "getBridgeMode",
      "outputs": [
        {
          "name": "_data",
          "type": "bytes4"
        }
      ],
      "payable": false,
      "stateMutability": "pure",
      "type": "function"
    },
    {
      "constant": true,
      "inputs": [],
      "name": "executionDailyLimit",
      "outputs": [
        {
          "name": "",
          "type": "uint256"
        }
      ],
      "payable": false,
      "stateMutability": "view",
      "type": "function"
    },
    {
      "constant": true,
      "inputs": [
        {
          "name": "_token",
          "type": "address"
        }
      ],
      "name": "minInterestPaid",
      "outputs": [
        {
          "name": "",
          "type": "uint256"
        }
      ],
      "payable": false,
      "stateMutability": "view",
      "type": "function"
    },
    {
      "constant": true,
      "inputs": [],
      "name": "versionRecipient",
      "outputs": [
        {
          "name": "",
          "type": "string"
        }
      ],
      "payable": false,
      "stateMutability": "view",
      "type": "function"
    },
    {
      "constant": true,
      "inputs": [
        {
          "name": "_day",
          "type": "uint256"
        }
      ],
      "name": "totalExecutedPerDay",
      "outputs": [
        {
          "name": "",
          "type": "uint256"
        }
      ],
      "payable": false,
      "stateMutability": "view",
      "type": "function"
    },
    {
      "constant": true,
      "inputs": [
        {
          "name": "_token",
          "type": "address"
        }
      ],
      "name": "minCashThreshold",
      "outputs": [
        {
          "name": "",
          "type": "uint256"
        }
      ],
      "payable": false,
      "stateMutability": "view",
      "type": "function"
    },
    {
      "constant": true,
      "inputs": [
        {
          "name": "forwarder",
          "type": "address"
        }
      ],
      "name": "isTrustedForwarder",
      "outputs": [
        {
          "name": "",
          "type": "bool"
        }
      ],
      "payable": false,
      "stateMutability": "view",
      "type": "function"
    },
    {
      "constant": true,
      "inputs": [],
      "name": "dailyLimit",
      "outputs": [
        {
          "name": "",
          "type": "uint256"
        }
      ],
      "payable": false,
      "stateMutability": "view",
      "type": "function"
    },
    {
      "constant": false,
      "inputs": [
        {
          "name": "_token",
          "type": "address"
        },
        {
          "name": "_to",
          "type": "address"
        }
      ],
      "name": "claimTokens",
      "outputs": [],
      "payable": false,
      "stateMutability": "nonpayable",
      "type": "function"
    },
    {
      "constant": false,
      "inputs": [
        {
          "name": "_validatorContract",
          "type": "address"
        },
        {
          "name": "_erc20token",
          "type": "address"
        },
        {
          "name": "_requiredBlockConfirmations",
          "type": "uint256"
        },
        {
          "name": "_gasPrice",
          "type": "uint256"
        },
        {
          "name": "_dailyLimitMaxPerTxMinPerTxArray",
          "type": "uint256[3]"
        },
        {
          "name": "_homeDailyLimitHomeMaxPerTxArray",
          "type": "uint256[2]"
        },
        {
          "name": "_owner",
          "type": "address"
        },
        {
          "name": "_decimalShift",
          "type": "int256"
        },
        {
          "name": "_bridgeOnOtherSide",
          "type": "address"
        }
      ],
      "name": "initialize",
      "outputs": [
        {
          "name": "",
          "type": "bool"
        }
      ],
      "payable": false,
      "stateMutability": "nonpayable",
      "type": "function"
    },
    {
      "constant": false,
      "inputs": [],
      "name": "investDai",
      "outputs": [],
      "payable": false,
      "stateMutability": "nonpayable",
      "type": "function"
    },
    {
      "constant": false,
      "inputs": [],
      "name": "claimCompAndPay",
      "outputs": [],
      "payable": false,
      "stateMutability": "nonpayable",
      "type": "function"
    },
    {
      "constant": false,
      "inputs": [
        {
          "name": "_paymaster",
          "type": "address"
        }
      ],
      "name": "setPayMaster",
      "outputs": [],
      "payable": false,
      "stateMutability": "nonpayable",
      "type": "function"
    },
    {
      "constant": true,
      "inputs": [
        {
          "name": "_amount",
          "type": "uint256"
        }
      ],
      "name": "withinExecutionLimit",
      "outputs": [
        {
          "name": "",
          "type": "bool"
        }
      ],
      "payable": false,
      "stateMutability": "view",
      "type": "function"
    },
    {
      "constant": true,
      "inputs": [],
      "name": "executionMaxPerTx",
      "outputs": [
        {
          "name": "",
          "type": "uint256"
        }
      ],
      "payable": false,
      "stateMutability": "view",
      "type": "function"
    },
    {
      "constant": false,
      "inputs": [
        {
          "name": "_interestReceiver",
          "type": "address"
        }
      ],
      "name": "upgradeTo530",
      "outputs": [],
      "payable": false,
      "stateMutability": "nonpayable",
      "type": "function"
    },
    {
      "constant": true,
      "inputs": [],
      "name": "requiredSignatures",
      "outputs": [
        {
          "name": "",
          "type": "uint256"
        }
      ],
      "payable": false,
      "stateMutability": "view",
      "type": "function"
    },
    {
      "constant": true,
      "inputs": [],
      "name": "owner",
      "outputs": [
        {
          "name": "",
          "type": "address"
        }
      ],
      "payable": false,
      "stateMutability": "view",
      "type": "function"
    },
    {
      "constant": false,
      "inputs": [
        {
          "name": "_token",
          "type": "address"
        },
        {
          "name": "_receiver",
          "type": "address"
        }
      ],
      "name": "setInterestReceiver",
      "outputs": [],
      "payable": false,
      "stateMutability": "nonpayable",
      "type": "function"
    },
    {
      "constant": true,
      "inputs": [],
      "name": "maxAvailablePerTx",
      "outputs": [
        {
          "name": "",
          "type": "uint256"
        }
      ],
      "payable": false,
      "stateMutability": "view",
      "type": "function"
    },
    {
      "constant": true,
      "inputs": [],
      "name": "validatorContract",
      "outputs": [
        {
          "name": "",
          "type": "address"
        }
      ],
      "payable": false,
      "stateMutability": "view",
      "type": "function"
    },
    {
      "constant": true,
      "inputs": [],
      "name": "deployedAtBlock",
      "outputs": [
        {
          "name": "",
          "type": "uint256"
        }
      ],
      "payable": false,
      "stateMutability": "view",
      "type": "function"
    },
    {
      "constant": true,
      "inputs": [],
      "name": "getBridgeInterfacesVersion",
      "outputs": [
        {
          "name": "major",
          "type": "uint64"
        },
        {
          "name": "minor",
          "type": "uint64"
        },
        {
          "name": "patch",
          "type": "uint64"
        }
      ],
      "payable": false,
      "stateMutability": "pure",
      "type": "function"
    },
    {
      "constant": false,
      "inputs": [
        {
          "name": "_minPerTx",
          "type": "uint256"
        }
      ],
      "name": "setMinPerTx",
      "outputs": [],
      "payable": false,
      "stateMutability": "nonpayable",
      "type": "function"
    },
    {
      "constant": false,
      "inputs": [
        {
          "name": "_token",
          "type": "address"
        },
        {
          "name": "_minInterestPaid",
          "type": "uint256"
        }
      ],
      "name": "setMinInterestPaid",
      "outputs": [],
      "payable": false,
      "stateMutability": "nonpayable",
      "type": "function"
    },
    {
      "constant": false,
      "inputs": [
        {
          "name": "_token",
          "type": "address"
        },
        {
          "name": "_minCashThreshold",
          "type": "uint256"
        }
      ],
      "name": "setMinCashThreshold",
      "outputs": [],
      "payable": false,
      "stateMutability": "nonpayable",
      "type": "function"
    },
    {
      "constant": true,
      "inputs": [
        {
          "name": "_token",
          "type": "address"
        }
      ],
      "name": "interestReceiver",
      "outputs": [
        {
          "name": "",
          "type": "address"
        }
      ],
      "payable": false,
      "stateMutability": "view",
      "type": "function"
    },
    {
      "constant": false,
      "inputs": [
        {
          "name": "_blockConfirmations",
          "type": "uint256"
        }
      ],
      "name": "setRequiredBlockConfirmations",
      "outputs": [],
      "payable": false,
      "stateMutability": "nonpayable",
      "type": "function"
    },
    {
      "constant": false,
      "inputs": [
        {
          "name": "_dailyLimit",
          "type": "uint256"
        }
      ],
      "name": "setDailyLimit",
      "outputs": [],
      "payable": false,
      "stateMutability": "nonpayable",
      "type": "function"
    },
    {
      "constant": false,
      "inputs": [
        {
          "name": "_gasPrice",
          "type": "uint256"
        }
      ],
      "name": "setGasPrice",
      "outputs": [],
      "payable": false,
      "stateMutability": "nonpayable",
      "type": "function"
    },
    {
      "constant": false,
      "inputs": [
        {
          "name": "_maxPerTx",
          "type": "uint256"
        }
      ],
      "name": "setMaxPerTx",
      "outputs": [],
      "payable": false,
      "stateMutability": "nonpayable",
      "type": "function"
    },
    {
      "constant": true,
      "inputs": [
        {
          "name": "_token",
          "type": "address"
        }
      ],
      "name": "interestAmount",
      "outputs": [
        {
          "name": "",
          "type": "uint256"
        }
      ],
      "payable": false,
      "stateMutability": "view",
      "type": "function"
    },
    {
      "constant": false,
      "inputs": [
        {
          "name": "_token",
          "type": "address"
        },
        {
          "name": "_minCashThreshold",
          "type": "uint256"
        },
        {
          "name": "_minInterestPaid",
          "type": "uint256"
        },
        {
          "name": "_interestReceiver",
          "type": "address"
        }
      ],
      "name": "initializeInterest",
      "outputs": [],
      "payable": false,
      "stateMutability": "nonpayable",
      "type": "function"
    },
    {
      "constant": true,
      "inputs": [],
      "name": "getTrustedForwarder",
      "outputs": [
        {
          "name": "",
          "type": "address"
        }
      ],
      "payable": false,
      "stateMutability": "view",
      "type": "function"
    },
    {
      "constant": true,
      "inputs": [
        {
          "name": "_token",
          "type": "address"
        }
      ],
      "name": "investedAmount",
      "outputs": [
        {
          "name": "",
          "type": "uint256"
        }
      ],
      "payable": false,
      "stateMutability": "view",
      "type": "function"
    },
    {
      "constant": false,
      "inputs": [
        {
          "name": "_token",
          "type": "address"
        }
      ],
      "name": "payInterest",
      "outputs": [],
      "payable": false,
      "stateMutability": "nonpayable",
      "type": "function"
    },
    {
      "constant": true,
      "inputs": [
        {
          "name": "_token",
          "type": "address"
        }
      ],
      "name": "isInterestEnabled",
      "outputs": [
        {
          "name": "",
          "type": "bool"
        }
      ],
      "payable": false,
      "stateMutability": "view",
      "type": "function"
    },
    {
      "constant": false,
      "inputs": [
        {
          "name": "_trustedForwarder",
          "type": "address"
        }
      ],
      "name": "setTrustedForwarder",
      "outputs": [],
      "payable": false,
      "stateMutability": "nonpayable",
      "type": "function"
    },
    {
      "constant": true,
      "inputs": [],
      "name": "decimalShift",
      "outputs": [
        {
          "name": "",
          "type": "int256"
        }
      ],
      "payable": false,
      "stateMutability": "view",
      "type": "function"
    },
    {
      "constant": true,
      "inputs": [],
      "name": "minPerTx",
      "outputs": [
        {
          "name": "",
          "type": "uint256"
        }
      ],
      "payable": false,
      "stateMutability": "view",
      "type": "function"
    },
    {
      "constant": true,
      "inputs": [
        {
          "name": "_amount",
          "type": "uint256"
        }
      ],
      "name": "withinLimit",
      "outputs": [
        {
          "name": "",
          "type": "bool"
        }
      ],
      "payable": false,
      "stateMutability": "view",
      "type": "function"
    },
    {
      "constant": false,
      "inputs": [
        {
          "name": "_maxPerTx",
          "type": "uint256"
        }
      ],
      "name": "setExecutionMaxPerTx",
      "outputs": [],
      "payable": false,
      "stateMutability": "nonpayable",
      "type": "function"
    },
    {
      "constant": false,
      "inputs": [
        {
          "name": "newOwner",
          "type": "address"
        }
      ],
      "name": "transferOwnership",
      "outputs": [],
      "payable": false,
      "stateMutability": "nonpayable",
      "type": "function"
    },
    {
      "constant": false,
      "inputs": [
        {
          "name": "_token",
          "type": "address"
        }
      ],
      "name": "disableInterest",
      "outputs": [],
      "payable": false,
      "stateMutability": "nonpayable",
      "type": "function"
    },
    {
      "constant": true,
      "inputs": [],
      "name": "maxPerTx",
      "outputs": [
        {
          "name": "",
          "type": "uint256"
        }
      ],
      "payable": false,
      "stateMutability": "view",
      "type": "function"
    },
    {
      "constant": true,
      "inputs": [],
      "name": "gasPrice",
      "outputs": [
        {
          "name": "",
          "type": "uint256"
        }
      ],
      "payable": false,
      "stateMutability": "view",
      "type": "function"
    },
    {
      "anonymous": false,
      "inputs": [
        {
          "indexed": true,
          "name": "token",
          "type": "address"
        },
        {
          "indexed": false,
          "name": "to",
          "type": "address"
        },
        {
          "indexed": false,
          "name": "value",
          "type": "uint256"
        }
      ],
      "name": "PaidInterest",
      "type": "event"
    },
    {
      "anonymous": false,
      "inputs": [
        {
          "indexed": false,
          "name": "recipient",
          "type": "address"
        },
        {
          "indexed": false,
          "name": "value",
          "type": "uint256"
        },
        {
          "indexed": false,
          "name": "transactionHash",
          "type": "bytes32"
        }
      ],
      "name": "RelayedMessage",
      "type": "event"
    },
    {
      "anonymous": false,
      "inputs": [
        {
          "indexed": false,
          "name": "recipient",
          "type": "address"
        },
        {
          "indexed": false,
          "name": "value",
          "type": "uint256"
        }
      ],
      "name": "UserRequestForAffirmation",
      "type": "event"
    },
    {
      "anonymous": false,
      "inputs": [
        {
          "indexed": false,
          "name": "newLimit",
          "type": "uint256"
        }
      ],
      "name": "DailyLimitChanged",
      "type": "event"
    },
    {
      "anonymous": false,
      "inputs": [
        {
          "indexed": false,
          "name": "newLimit",
          "type": "uint256"
        }
      ],
      "name": "ExecutionDailyLimitChanged",
      "type": "event"
    },
    {
      "anonymous": false,
      "inputs": [
        {
          "indexed": false,
          "name": "gasPrice",
          "type": "uint256"
        }
      ],
      "name": "GasPriceChanged",
      "type": "event"
    },
    {
      "anonymous": false,
      "inputs": [
        {
          "indexed": false,
          "name": "requiredBlockConfirmations",
          "type": "uint256"
        }
      ],
      "name": "RequiredBlockConfirmationChanged",
      "type": "event"
    },
    {
      "anonymous": false,
      "inputs": [
        {
          "indexed": false,
          "name": "previousOwner",
          "type": "address"
        },
        {
          "indexed": false,
          "name": "newOwner",
          "type": "address"
        }
      ],
      "name": "OwnershipTransferred",
      "type": "event"
    },
    {
      "constant": true,
      "inputs": [],
      "name": "daiToken",
      "outputs": [
        {
          "name": "",
          "type": "address"
        }
      ],
      "payable": false,
      "stateMutability": "pure",
      "type": "function"
    },
    {
      "constant": true,
      "inputs": [],
      "name": "cDaiToken",
      "outputs": [
        {
          "name": "",
          "type": "address"
        }
      ],
      "payable": false,
      "stateMutability": "pure",
      "type": "function"
    },
    {
      "constant": true,
      "inputs": [],
      "name": "comptroller",
      "outputs": [
        {
          "name": "",
          "type": "address"
        }
      ],
      "payable": false,
      "stateMutability": "pure",
      "type": "function"
    },
    {
      "constant": true,
      "inputs": [],
      "name": "compToken",
      "outputs": [
        {
          "name": "",
          "type": "address"
        }
      ],
      "payable": false,
      "stateMutability": "pure",
      "type": "function"
    }
  ],
  "bytecode": "0x608060405234801561001057600080fd5b506145e8806100206000396000f3006080604052600436106102bb5763ffffffff60e060020a60003504166301e4f53a81146102c057806303f9c793146102e65780631dcea427146103075780631e86b2911461033857806321d800ec146103675780632bd0bb0514610393578063392e53cd146103bd5780633dd95d1b146103d25780633e6968b6146103ea5780633f0a9f65146103ff5780633f7658fd14610414578063437764df1461044057806343b37dd31461048a5780634774f5631461049f578063486ff0cd146104c05780634fb3fef71461054a5780635726ff3014610562578063572b6c05146105835780635fe3b567146105a45780636605dfa7146105b957806367eeba0c146105ce57806369ffa08a146105e35780636da8b9961461060a57806374948c5214610652578063840b6b9b1461066757806384fe8ab21461067c578063879ce6761461069d5780638aa1949a146106b55780638c85c780146106ca5780638d068043146106eb5780638da5cb5b14610700578063904377ec1461071557806395e54a171461073c57806399439089146107515780639a454b99146107665780639cb7595a1461077b578063a2a6ca27146107bc578063a36b85fd146107d4578063a4b4b233146107f8578063a83bb2361461081c578063acf5c6891461083d578063b20d30a914610855578063ba266b131461086d578063be22f54614610882578063bf1fe42014610897578063c6f6f216146108af578063c779c1c3146108c7578063cd0fc033146108e8578063ce1b815f14610917578063cff774441461092c578063d007c6441461094d578063d2ef86601461096e578063da7422281461098f578063dae5f0fd146109b0578063df25f3f0146109c5578063ea9f4968146109da578063f20151e1146109f2578063f2fde38b14610a0a578063f50dace614610a2b578063f968adbe14610a4c578063fe173b9714610a61575b600080fd5b3480156102cc57600080fd5b506102e4600160a060020a0360043516602435610a76565b005b3480156102f257600080fd5b506102e4600160a060020a0360043516610be0565b34801561031357600080fd5b5061031c610c54565b60408051600160a060020a039092168252519081900360200190f35b34801561034457600080fd5b506102e46024600480358281019290820135918135918201910135604435610cab565b34801561037357600080fd5b5061037f600435610ecd565b604080519115158252519081900360200190f35b34801561039f57600080fd5b506103ab600435610f96565b60408051918252519081900360200190f35b3480156103c957600080fd5b5061037f611053565b3480156103de57600080fd5b506102e46004356110a4565b3480156103f657600080fd5b506103ab611164565b34801561040b57600080fd5b506103ab61116d565b34801561042057600080fd5b506102e460246004803582810192908201359181359182019101356111bb565b34801561044c57600080fd5b50610455611329565b604080517fffffffff000000000000000000000000000000000000000000000000000000009092168252519081900360200190f35b34801561049657600080fd5b506103ab61134d565b3480156104ab57600080fd5b506103ab600160a060020a036004351661139b565b3480156104cc57600080fd5b506104d561142e565b6040805160208082528351818301528351919283929083019185019080838360005b8381101561050f5781810151838201526020016104f7565b50505050905090810190601f16801561053c5780820380516001836020036101000a031916815260200191505b509250505060405180910390f35b34801561055657600080fd5b506103ab600435611465565b34801561056e57600080fd5b506103ab600160a060020a03600435166114e0565b34801561058f57600080fd5b5061037f600160a060020a0360043516611573565b3480156105b057600080fd5b5061031c6115ab565b3480156105c557600080fd5b5061031c6115c3565b3480156105da57600080fd5b506103ab6115db565b3480156105ef57600080fd5b506102e4600160a060020a0360043581169060243516611629565b34801561061657600080fd5b5061037f600160a060020a03600435811690602435811690604435906064359060849060e490610124358116906101443590610164351661174d565b34801561065e57600080fd5b506102e4611a18565b34801561067357600080fd5b506102e4611a2a565b34801561068857600080fd5b506102e4600160a060020a0360043516611c08565b3480156106a957600080fd5b5061037f600435611c8e565b3480156106c157600080fd5b506103ab611ccc565b3480156106d657600080fd5b506102e4600160a060020a0360043516611d1a565b3480156106f757600080fd5b506103ab611d9e565b34801561070c57600080fd5b5061031c611e16565b34801561072157600080fd5b506102e4600160a060020a0360043581169060243516611e6d565b34801561074857600080fd5b506103ab611e97565b34801561075d57600080fd5b5061031c611ef1565b34801561077257600080fd5b506103ab611f48565b34801561078757600080fd5b50610790611f96565b6040805167ffffffffffffffff9485168152928416602084015292168183015290519081900360600190f35b3480156107c857600080fd5b506102e4600435611fa0565b3480156107e057600080fd5b506102e4600160a060020a036004351660243561203c565b34801561080457600080fd5b506102e4600160a060020a0360043516602435612062565b34801561082857600080fd5b5061031c600160a060020a0360043516612088565b34801561084957600080fd5b506102e4600435612167565b34801561086157600080fd5b506102e460043561218f565b34801561087957600080fd5b5061031c61224f565b34801561088e57600080fd5b5061031c612267565b3480156108a357600080fd5b506102e460043561227f565b3480156108bb57600080fd5b506102e46004356122a4565b3480156108d357600080fd5b506103ab600160a060020a036004351661233c565b3480156108f457600080fd5b506102e4600160a060020a03600435811690602435906044359060643516612400565b34801561092357600080fd5b5061031c61246c565b34801561093857600080fd5b506103ab600160a060020a036004351661249f565b34801561095957600080fd5b506102e4600160a060020a0360043516612532565b34801561097a57600080fd5b5061037f600160a060020a0360043516612580565b34801561099b57600080fd5b506102e4600160a060020a0360043516612614565b3480156109bc57600080fd5b506103ab612676565b3480156109d157600080fd5b506103ab6126c4565b3480156109e657600080fd5b5061037f600435612712565b3480156109fe57600080fd5b506102e460043561275d565b348015610a1657600080fd5b506102e4600160a060020a03600435166127d9565b348015610a3757600080fd5b506102e4600160a060020a03600435166127fe565b348015610a5857600080fd5b506103ab612831565b348015610a6d57600080fd5b506103ab61287f565b610a7e6128cd565b600160a060020a0383811691161415610a9657600080fd5b600160a060020a0382161515610aab57600080fd5b600160a060020a038216301415610ac157600080fd5b60008111610ace57600080fd5b610ad781612712565b1515610ae257600080fd5b610af3610aed611164565b82612924565b610afb610c54565b604080517f23b872dd000000000000000000000000000000000000000000000000000000008152336004820152306024820152604481018490529051600160a060020a0392909216916323b872dd916064808201926020929091908290030181600087803b158015610b6c57600080fd5b505af1158015610b80573d6000803e3d6000fd5b505050506040513d6020811015610b9657600080fd5b505060408051600160a060020a03841681526020810183905281517f1d491a427d1f8cc0d447496f300fac39f7306122481d8e663451eb268274146b929181900390910190a15050565b600080600083610bef81612580565b1515610bfa57600080fd5b610c03856129ed565b9350610c0e856114e0565b9250828411610c1c57600080fd5b8284039150610c4385610c3e84610c328961249f565b9063ffffffff612a8316565b612a96565b610c4d8583612b28565b5050505050565b7f15d63b18dbc21bf4438b7972d80076747e1d93c4f87552fe498c90cbde51665e60005260026020527f70dfdbaec92bfd068fb9a67f8c22440e995abe75330f5b6b79a478c9bc8ccbd154600160a060020a031690565b60008051602061457d8339815191526000908152600260205260008051602061459d83398151915254819081908190600160a060020a03163314610d5057604080517f08c379a000000000000000000000000000000000000000000000000000000000815260206004820152601160248201527f696e76616c696420666f72776172646572000000000000000000000000000000604482015290519081900360640190fd5b610dc289898080601f0160208091040260200160405190810160405280939291908181526020018383808284375050604080516020601f8f018190048102820181019092528d815294508d93508c9250829150840183828082843750610dbb9450611ef19350505050565b6000612c4e565b610dfb89898080601f01602080910402602001604051908101604052809392919081815260200183838082843750612ed8945050505050565b92965090945092509050610e0e83611c8e565b15610eb75782851115610e2057600080fd5b600160a060020a0381163014610e3557600080fd5b610e3e82610ecd565b15610e4857600080fd5b610e53826001612f13565b610e5e848487612fe5565b1515610e6957600080fd5b60408051600160a060020a03861681526020810185905280820184905290517f4ab7d581336d92edbea22636a613e8e76c99ac7f91137c1523db38dbfb3bf3299181900360600190a1610ec2565b610ec28484846102bb565b505050505050505050565b6000600460008360405160200180807f72656c617965644d657373616765730000000000000000000000000000000000815250600f0182600019166000191681526020019150506040516020818303038152906040526040518082805190602001908083835b60208310610f525780518252601f199092019160209182019101610f33565b51815160209384036101000a600019018019909216911617905260408051929094018290039091208652850195909552929092016000205460ff1695945050505050565b60008060008360405160200180807f746f74616c5370656e74506572446179000000000000000000000000000000008152506010018281526020019150506040516020818303038152906040526040518082805190602001908083835b602083106110125780518252601f199092019160209182019101610ff3565b51815160209384036101000a600019018019909216911617905260408051929094018290039091208652850195909552929092016000205495945050505050565b7f0a6f646cd611241d8073675e00d1a1ff700fbf1b53fcf473de56d1e6e4b714ba60005260046020527f078d888f9b66f3f8bfa10909e31f1e16240db73449f0500afdbbe3a70da457cc5460ff1690565b6110ac611e16565b600160a060020a031633146110c057600080fd5b6110c8611ccc565b8111806110d3575080155b15156110de57600080fd5b7f21dbcab260e413c20dc13c28b7db95e2b423d1135f42bb8b7d5214a92270d237600090815260209081527fadd938dbd083a16bae12238cd914fca0afc7a30edb55b1cd5c7f1823f1b0e4218290556040805183815290517f9bebf928b90863f24cc31f726a3a7545efd409f1dcf552301b1ee3710da70d3b929181900390910190a150565b62015180420490565b7f916daedf6915000ff68ced2f0b6773fe6f2582237f92c3c95bb4d7940723007160009081526020527fd2ea0feb732edb0ffe32efd33a6b9d24d46b16eb34a4d07ce256537b6f131e425490565b60008060008061122c88888080601f0160208091040260200160405190810160405280939291908181526020018383808284375050604080516020601f8e018190048102820181019092528c815294508c93508b9250829150840183828082843750610dbb9450611ef19350505050565b61126588888080601f01602080910402602001604051908101604052809392919081815260200183838082843750612ed8945050505050565b9296509094509250905061127883611c8e565b1561131457600160a060020a038116301461129257600080fd5b61129b82610ecd565b156112a557600080fd5b6112b0826001612f13565b6112bb8484846131c7565b15156112c657600080fd5b60408051600160a060020a03861681526020810185905280820184905290517f4ab7d581336d92edbea22636a613e8e76c99ac7f91137c1523db38dbfb3bf3299181900360600190a161131f565b61131f8484846102bb565b5050505050505050565b7f18762d460000000000000000000000000000000000000000000000000000000090565b7f21dbcab260e413c20dc13c28b7db95e2b423d1135f42bb8b7d5214a92270d23760009081526020527fadd938dbd083a16bae12238cd914fca0afc7a30edb55b1cd5c7f1823f1b0e4215490565b60008060008360405160200180807f6d696e496e746572657374506169640000000000000000000000000000000000815250600f0182600160a060020a0316600160a060020a0316606060020a028152601401915050604051602081830303815290604052604051808280519060200190808383602083106110125780518252601f199092019160209182019101610ff3565b60408051808201909152600581527f312e302e31000000000000000000000000000000000000000000000000000000602082015290565b60008060008360405160200180807f746f74616c457865637574656450657244617900000000000000000000000000815250601301828152602001915050604051602081830303815290604052604051808280519060200190808383602083106110125780518252601f199092019160209182019101610ff3565b60008060008360405160200180807f6d696e436173685468726573686f6c640000000000000000000000000000000081525060100182600160a060020a0316600160a060020a0316606060020a028152601401915050604051602081830303815290604052604051808280519060200190808383602083106110125780518252601f199092019160209182019101610ff3565b60008051602061457d833981519152600052600260205260008051602061459d83398151915254600160a060020a0390811691161490565b7385e855b22f01bdd33ee194490c7eb16b7edac01990565b736f51036ec66b08cbfdb7bd7fb7f40b184482d72490565b7f4a6a899679f26b73530d8cf1001e83b6f7702e04b6fdb98f3c62dc7e47e041a560009081526020527f1ab29a5cca988aee50edccdd61c5bcaa7ad4b29a03b7ee50f298ceccfe14cc4e5490565b600030600160a060020a0316636fde82026040518163ffffffff1660e060020a028152600401602060405180830381600087803b15801561166957600080fd5b505af115801561167d573d6000803e3d6000fd5b505050506040513d602081101561169357600080fd5b5051600160a060020a031633146116a957600080fd5b6116b1610c54565b9050600160a060020a0383811690821614156116cc57600080fd5b6116d461224f565b600160a060020a031683600160a060020a03161415806116fa57506116f881612580565b155b151561170557600080fd5b61170d6115c3565b600160a060020a031683600160a060020a0316141580611733575061173181612580565b155b151561173e57600080fd5b6117488383613295565b505050565b60408051600481526024810182526020810180517bffffffffffffffffffffffffffffffffffffffffffffffffffffffff167f6fde8202000000000000000000000000000000000000000000000000000000001781529151815160009330939291829190808383895b838110156117ce5781810151838201526020016117b6565b50505050905090810190601f1680156117fb5780820380516001836020036101000a031916815260200191505b509150506000604051808303816000865af1915050158061188d575030600160a060020a0316636fde82026040518163ffffffff1660e060020a028152600401602060405180830381600087803b15801561185557600080fd5b505af1158015611869573d6000803e3d6000fd5b505050506040513d602081101561187f57600080fd5b5051600160a060020a031633145b8061189757503330145b15156118a257600080fd5b6118aa611053565b156118b457600080fd5b6118bd8a6132d3565b15156118c857600080fd5b7f5a74bb7e202fb8e4bf311841c7d64ec19df195fee77d7e7ae749b27921b6ddfe60005260026020527fab54f3fbbe62c59b7876a9bf9bd5e0c22dbae93f4d8ee0438f7ce62b198eb0e08054600160a060020a031916600160a060020a038c16179055611934896132db565b7fb120ceec05576ad0c710bc6e85f1768535e27554458f05dcbb5c65b8c7a749b06000908152602052437fe66bef0282a446f9848e2903380099bb6e431483ee78778868f33b4a154c818b5561198988613359565b611992876133ec565b6040805160608181019092526119ba9188906003908390839080828437506134029350505050565b6040805180820182526119df91879060029083908390808284375061355f9350505050565b6119e883613634565b6119f18461369d565b6119fa82613767565b611a026137e6565b611a0a611053565b9a9950505050505050505050565b611a28611a23612267565b610be0565b565b60408051600180825281830190925260609182916000918291906020808301908038833901905050935030846000815181101515611a6457fe5b600160a060020a0392909216602092830291909101820152604080516001808252818301909252918281019080388339019050509250611aa261224f565b836000815181101515611ab157fe5b600160a060020a03909216602092830290910190910152611ad06115ab565b600160a060020a0316636810dfa68585600060016040518563ffffffff1660e060020a0281526004018080602001806020018515151515815260200184151515158152602001838103835287818151815260200191508051906020019060200280838360005b83811015611b4e578181015183820152602001611b36565b50505050905001838103825286818151815260200191508051906020019060200280838360005b83811015611b8d578181015183820152602001611b75565b505050509050019650505050505050600060405180830381600087803b158015611bb657600080fd5b505af1158015611bca573d6000803e3d6000fd5b50505050611bd66115c3565b9150611be1826129ed565b9050611bec8261139b565b811015611bf857600080fd5b611c02828261383d565b50505050565b611c10611e16565b600160a060020a03163314611c2457600080fd5b7ffefcc139ed357999ed60c6a013947328d52e7d9751e93fd0274a2bfae5cbcb1260005260026020527ff215aff72f0a1a7d74fcd807336e100b80bbb56cdfb43843ade07ecf211a979f8054600160a060020a031916600160a060020a0392909216919091179055565b600080611ca583610c32611ca0611164565b611465565b905080611cb061134d565b10158015611cc55750611cc1611ccc565b8311155b9392505050565b7fc0ed44c192c86d1cc1ba51340b032c2766b4a2b0041031de13c46dd7104888d560009081526020527ff8e983ee86e5e377e9e34c9131b266382c3f04113d20de077f9e12663c7a646b5490565b600080333014611d2957600080fd5b611d31612267565b9150611d3b6115c3565b9050611d488260016139bc565b611d5c8269d3c21bcecceda1000000613a4f565b611d6f82683635c9adc5dea00000613ae1565b611d798284613b73565b611d8b81670de0b6b3a7640000613ae1565b611d958184613b73565b61174882610be0565b6000611da8611ef1565b600160a060020a0316638d0680436040518163ffffffff1660e060020a028152600401602060405180830381600087803b158015611de557600080fd5b505af1158015611df9573d6000803e3d6000fd5b505050506040513d6020811015611e0f57600080fd5b5051905090565b7f02016836a56b71f0d02689e69e326f4f4c1b9057164ef592671cf0d37c8040c060005260026020527fb7802e97e87ef2842a6cce7da7ffaeaedaa2f61a6a7870b23d9d01fc9b73712e54600160a060020a031690565b611e75611e16565b600160a060020a03163314611e8957600080fd5b611e938282613b73565b5050565b6000806000806000611ea7612831565b9350611eb16115db565b9250611ec3611ebe611164565b610f96565b9150818311611ed3576000611ed7565b8183035b9050808410611ee65780611ee8565b835b94505050505090565b7f5a74bb7e202fb8e4bf311841c7d64ec19df195fee77d7e7ae749b27921b6ddfe60005260026020527fab54f3fbbe62c59b7876a9bf9bd5e0c22dbae93f4d8ee0438f7ce62b198eb0e054600160a060020a031690565b7fb120ceec05576ad0c710bc6e85f1768535e27554458f05dcbb5c65b8c7a749b060009081526020527fe66bef0282a446f9848e2903380099bb6e431483ee78778868f33b4a154c818b5490565b6006600080909192565b611fa8611e16565b600160a060020a03163314611fbc57600080fd5b600081118015611fd25750611fcf6115db565b81105b8015611fe45750611fe1612831565b81105b1515611fef57600080fd5b7fbbb088c505d18e049d114c7c91f11724e69c55ad6c5397e2b929e68b41fa05d160009081526020527f8df5c48c6b6e11d97548adc824ba0c99103ec09830fa5d53a179984085e6eaa055565b612044611e16565b600160a060020a0316331461205857600080fd5b611e938282613ae1565b61206a611e16565b600160a060020a0316331461207e57600080fd5b611e938282613a4f565b6000600260008360405160200180807f696e74657265737452656365697665720000000000000000000000000000000081525060100182600160a060020a0316600160a060020a0316606060020a0281526014019150506040516020818303038152906040526040518082805190602001908083835b6020831061211d5780518252601f1990920191602091820191016120fe565b51815160209384036101000a6000190180199092169116179052604080519290940182900390912086528501959095529290920160002054600160a060020a031695945050505050565b61216f611e16565b600160a060020a0316331461218357600080fd5b61218c81613359565b50565b612197611e16565b600160a060020a031633146121ab57600080fd5b6121b3612831565b8111806121be575080155b15156121c957600080fd5b7f4a6a899679f26b73530d8cf1001e83b6f7702e04b6fdb98f3c62dc7e47e041a5600090815260209081527f1ab29a5cca988aee50edccdd61c5bcaa7ad4b29a03b7ee50f298ceccfe14cc4e8290556040805183815290517fad4123ae17c414d9c6d2fec478b402e6b01856cc250fd01fbfd252fda0089d3c929181900390910190a150565b73615cba17ee82de39162bb87dba9bcfd6e8bcf29890565b730a4dbaf9656fd88a32d087101ee8bf399f4bd55f90565b612287611e16565b600160a060020a0316331461229b57600080fd5b61218c816133ec565b6122ac611e16565b600160a060020a031633146122c057600080fd5b8015806122e457506122d06126c4565b811180156122e457506122e16115db565b81105b15156122ef57600080fd5b7f0f8803acad17c63ee38bf2de71e1888bc7a079a6f73658e274b08018bea4e29c60009081526020527f9de0f81379b4d8e60fe509315d071b56e7b732abaf193e74e0d15808b0951d0955565b600080600061234961224f565b600160a060020a0316633af9e669306040518263ffffffff1660e060020a0281526004018082600160a060020a0316600160a060020a03168152602001915050602060405180830381600087803b1580156123a357600080fd5b505af11580156123b7573d6000803e3d6000fd5b505050506040513d60208110156123cd57600080fd5b505191506123da8461249f565b670de0b6b3a76400000190508082116123f45760006123f8565b8082035b949350505050565b612408611e16565b600160a060020a0316331461241c57600080fd5b61242584613c7a565b151561243057600080fd5b61243984612580565b1561244357600080fd5b61244e8460016139bc565b6124588484613a4f565b6124628483613ae1565b611c028482613b73565b60008051602061457d833981519152600052600260205260008051602061459d83398151915254600160a060020a031690565b60008060008360405160200180807f696e766573746564416d6f756e74000000000000000000000000000000000000815250600e0182600160a060020a0316600160a060020a0316606060020a028152601401915050604051602081830303815290604052604051808280519060200190808383602083106110125780518252601f199092019160209182019101610ff3565b6000808261253f81612580565b151561254a57600080fd5b6125538461233c565b925061255e8461139b565b83101561256a57600080fd5b6125748484613c9f565b9150611c02848361383d565b6000600460008360405160200180807f696e746572657374456e61626c65640000000000000000000000000000000000815250600f0182600160a060020a0316600160a060020a0316606060020a02815260140191505060405160208183030381529060405260405180828051906020019080838360208310610f525780518252601f199092019160209182019101610f33565b61261c611e16565b600160a060020a0316331461263057600080fd5b60008051602061457d833981519152600052600260205260008051602061459d8339815191528054600160a060020a031916600160a060020a0392909216919091179055565b7f1e8ecaafaddea96ed9ac6d2642dcdfe1bebe58a930b1085842d8fc122b371ee560009081526020527fd5c78dd9468716ca9bb96be25d56436811b20aab3523a9904b12deef1cab239d5490565b7fbbb088c505d18e049d114c7c91f11724e69c55ad6c5397e2b929e68b41fa05d160009081526020527f8df5c48c6b6e11d97548adc824ba0c99103ec09830fa5d53a179984085e6eaa05490565b60008061272483610c32611ebe611164565b90508061272f6115db565b101580156127445750612740612831565b8311155b8015611cc557506127536126c4565b9092101592915050565b612765611e16565b600160a060020a0316331461277957600080fd5b61278161134d565b811061278c57600080fd5b7fc0ed44c192c86d1cc1ba51340b032c2766b4a2b0041031de13c46dd7104888d560009081526020527ff8e983ee86e5e377e9e34c9131b266382c3f04113d20de077f9e12663c7a646b55565b6127e1611e16565b600160a060020a031633146127f557600080fd5b61218c8161369d565b612806611e16565b600160a060020a0316331461281a57600080fd5b61282681600019613cdf565b61218c8160006139bc565b7f0f8803acad17c63ee38bf2de71e1888bc7a079a6f73658e274b08018bea4e29c60009081526020527f9de0f81379b4d8e60fe509315d071b56e7b732abaf193e74e0d15808b0951d095490565b7f55b3774520b5993024893d303890baa4e84b1244a43c60034d1ced2d3cf2b04b60009081526020527ff7d5eefab3776d7f0450bd0193564bcb4f832ce313ff2836c450fc63a4b944195490565b7f71483949fe7a14d16644d63320f24d10cf1d60abecc30cc677a340e82b699dd260005260026020527f21ffdf150a5d180f96d98d16f50e7b4dd63e2a067adc8386cf5af55dcecd8dd954600160a060020a031690565b61293181610c3284610f96565b6000808460405160200180807f746f74616c5370656e74506572446179000000000000000000000000000000008152506010018281526020019150506040516020818303038152906040526040518082805190602001908083835b602083106129ab5780518252601f19909201916020918201910161298c565b51815160209384036101000a60001901801990921691161790526040805192909401829003909120865285019590955292909201600020939093555050505050565b604080517f70a082310000000000000000000000000000000000000000000000000000000081523060048201529051600091600160a060020a038416916370a082319160248082019260209290919082900301818787803b158015612a5157600080fd5b505af1158015612a65573d6000803e3d6000fd5b505050506040513d6020811015612a7b57600080fd5b505192915050565b81810182811015612a9057fe5b92915050565b806000808460405160200180807f696e766573746564416d6f756e74000000000000000000000000000000000000815250600e0182600160a060020a0316600160a060020a0316606060020a028152601401915050604051602081830303815290604052604051808280519060200190808383602083106129ab5780518252601f19909201916020918201910161298c565b612b30612267565b600160a060020a031663095ea7b3612b4661224f565b836040518363ffffffff1660e060020a0281526004018083600160a060020a0316600160a060020a0316815260200182815260200192505050602060405180830381600087803b158015612b9957600080fd5b505af1158015612bad573d6000803e3d6000fd5b505050506040513d6020811015612bc357600080fd5b5060009050612bd061224f565b600160a060020a031663a0712d68836040518263ffffffff1660e060020a02815260040180828152602001915050602060405180830381600087803b158015612c1857600080fd5b505af1158015612c2c573d6000803e3d6000fd5b505050506040513d6020811015612c4257600080fd5b505114611e9357600080fd5b6000806000606060008060008060008060008b80612c705750612c708f613d31565b1515612c7b57600080fd5b8c600160a060020a0316638d0680436040518163ffffffff1660e060020a028152600401602060405180830381600087803b158015612cb957600080fd5b505af1158015612ccd573d6000803e3d6000fd5b505050506040513d6020811015612ce357600080fd5b505160018f0151909b5060ff1699508a8a1015612cff57600080fd5b612d098f8d613d45565b98508a604051908082528060200260200182016040528015612d35578160200160208202803883390190505b509750600096505b8a871015612ec757866020028a6021010192508960200283019150866002018e01519550828e01519450818e01519350600189878787604051600081526020016040526040518085600019166000191681526020018460ff1660ff1681526020018360001916600019168152602001826000191660001916815260200194505050505060206040516020810390808403906000865af1158015612de4573d6000803e3d6000fd5b5050506020604051035190508c600160a060020a031663facd743b826040518263ffffffff1660e060020a0281526004018082600160a060020a0316600160a060020a03168152602001915050602060405180830381600087803b158015612e4b57600080fd5b505af1158015612e5f573d6000803e3d6000fd5b505050506040513d6020811015612e7557600080fd5b50511515612e8257600080fd5b612e8c8882613f57565b15612e9657600080fd5b808888815181101515612ea557fe5b600160a060020a03909216602092830290910190910152600190960195612d3d565b505050505050505050505050505050565b600080600080612ee785613d31565b1515612ef257600080fd5b50505050601481015160348201516054830151606890930151919390929190565b80600460008460405160200180807f72656c617965644d657373616765730000000000000000000000000000000000815250600f0182600019166000191681526020019150506040516020818303038152906040526040518082805190602001908083835b60208310612f975780518252601f199092019160209182019101612f78565b51815160209384036101000a60001901801990921691161790526040805192909401829003909120865285019590955292909201600020805460ff1916941515949094179093555050505050565b600080600080600080612fff612ff9611164565b89613fb2565b61300887614038565b9450613015878903614038565b935061301f610c54565b925061302d8385870161404e565b7ffefcc139ed357999ed60c6a013947328d52e7d9751e93fd0274a2bfae5cbcb126000908152600260209081527ff215aff72f0a1a7d74fcd807336e100b80bbb56cdfb43843ade07ecf211a979f54604080517fa9059cbb000000000000000000000000000000000000000000000000000000008152600160a060020a039283166004820152602481018a905290519187169363a9059cbb9360448084019491939192918390030190829087803b1580156130e757600080fd5b505af11580156130fb573d6000803e3d6000fd5b505050506040513d602081101561311157600080fd5b5051604080517fa9059cbb000000000000000000000000000000000000000000000000000000008152600160a060020a038c811660048301526024820188905291519294509085169163a9059cbb916044808201926020929091908290030181600087803b15801561318257600080fd5b505af1158015613196573d6000803e3d6000fd5b505050506040513d60208110156131ac57600080fd5b505190508180156131ba5750805b9998505050505050505050565b60008060006131dd6131d7611164565b86613fb2565b6131e685614038565b91506131f0610c54565b90506131fc818361404e565b80600160a060020a031663a9059cbb87846040518363ffffffff1660e060020a0281526004018083600160a060020a0316600160a060020a0316815260200182815260200192505050602060405180830381600087803b15801561325f57600080fd5b505af1158015613273573d6000803e3d6000fd5b505050506040513d602081101561328957600080fd5b50519695505050505050565b80600160a060020a03811615156132ab57600080fd5b600160a060020a03831615156132c9576132c482614110565b611748565b611748838361411c565b6000903b1190565b6132e4816132d3565b15156132ef57600080fd5b7f15d63b18dbc21bf4438b7972d80076747e1d93c4f87552fe498c90cbde51665e60005260026020527f70dfdbaec92bfd068fb9a67f8c22440e995abe75330f5b6b79a478c9bc8ccbd18054600160a060020a031916600160a060020a0392909216919091179055565b6000811161336657600080fd5b7f916daedf6915000ff68ced2f0b6773fe6f2582237f92c3c95bb4d79407230071600090815260209081527fd2ea0feb732edb0ffe32efd33a6b9d24d46b16eb34a4d07ce256537b6f131e428290556040805183815290517f4fb76205cd57c896b21511d2114137d8e901b4ccd659e1a0f97d6306795264fb929181900390910190a150565b600081116133f957600080fd5b61218c816141c9565b6040810151600010801561341d575060408101516020820151115b801561342d575060208101518151115b151561343857600080fd5b80517f4a6a899679f26b73530d8cf1001e83b6f7702e04b6fdb98f3c62dc7e47e041a5600090815260208181527f1ab29a5cca988aee50edccdd61c5bcaa7ad4b29a03b7ee50f298ceccfe14cc4e92909255908201517f0f8803acad17c63ee38bf2de71e1888bc7a079a6f73658e274b08018bea4e29c82527f9de0f81379b4d8e60fe509315d071b56e7b732abaf193e74e0d15808b0951d095560408201517fbbb088c505d18e049d114c7c91f11724e69c55ad6c5397e2b929e68b41fa05d182527f8df5c48c6b6e11d97548adc824ba0c99103ec09830fa5d53a179984085e6eaa0557fad4123ae17c414d9c6d2fec478b402e6b01856cc250fd01fbfd252fda0089d3c9082905b60200201516040518082815260200191505060405180910390a150565b805160208201511061357057600080fd5b80517f21dbcab260e413c20dc13c28b7db95e2b423d1135f42bb8b7d5214a92270d237600090815260208181527fadd938dbd083a16bae12238cd914fca0afc7a30edb55b1cd5c7f1823f1b0e42192909255908201517fc0ed44c192c86d1cc1ba51340b032c2766b4a2b0041031de13c46dd7104888d582527ff8e983ee86e5e377e9e34c9131b266382c3f04113d20de077f9e12663c7a646b557f9bebf928b90863f24cc31f726a3a7545efd409f1dcf552301b1ee3710da70d3b908290613542565b604c19811380156136455750604d81125b151561365057600080fd5b7f1e8ecaafaddea96ed9ac6d2642dcdfe1bebe58a930b1085842d8fc122b371ee560009081526020527fd5c78dd9468716ca9bb96be25d56436811b20aab3523a9904b12deef1cab239d55565b600160a060020a03811615156136b257600080fd5b7f8be0079c531659141344cd1fd0a4f28419497f9722a3daafe3b4186f6b6457e06136db611e16565b60408051600160a060020a03928316815291841660208301528051918290030190a17f02016836a56b71f0d02689e69e326f4f4c1b9057164ef592671cf0d37c8040c060005260026020527fb7802e97e87ef2842a6cce7da7ffaeaedaa2f61a6a7870b23d9d01fc9b73712e8054600160a060020a031916600160a060020a0392909216919091179055565b600160a060020a038116151561377c57600080fd5b7f71483949fe7a14d16644d63320f24d10cf1d60abecc30cc677a340e82b699dd260005260026020527f21ffdf150a5d180f96d98d16f50e7b4dd63e2a067adc8386cf5af55dcecd8dd98054600160a060020a031916600160a060020a0392909216919091179055565b7f0a6f646cd611241d8073675e00d1a1ff700fbf1b53fcf473de56d1e6e4b714ba60005260046020527f078d888f9b66f3f8bfa10909e31f1e16240db73449f0500afdbbe3a70da457cc805460ff19166001179055565b600061384883612088565b9050600160a060020a038116151561385f57600080fd5b82600160a060020a031663a9059cbb82846040518363ffffffff1660e060020a0281526004018083600160a060020a0316600160a060020a0316815260200182815260200192505050602060405180830381600087803b1580156138c257600080fd5b505af11580156138d6573d6000803e3d6000fd5b505050506040513d60208110156138ec57600080fd5b506138f89050816132d3565b156139715780600160a060020a03166381e3f276846040518263ffffffff1660e060020a0281526004018082600160a060020a0316600160a060020a03168152602001915050600060405180830381600087803b15801561395857600080fd5b505af115801561396c573d6000803e3d6000fd5b505050505b60408051600160a060020a038381168252602082018590528251908616927f222348fe8b30f078a8a4da2f55f16d24d70bc40d3ec49d295d7ad1d11e666887928290030190a2505050565b80600460008460405160200180807f696e746572657374456e61626c65640000000000000000000000000000000000815250600f0182600160a060020a0316600160a060020a0316606060020a02815260140191505060405160208183030381529060405260405180828051906020019080838360208310612f975780518252601f199092019160209182019101612f78565b806000808460405160200180807f6d696e436173685468726573686f6c640000000000000000000000000000000081525060100182600160a060020a0316600160a060020a0316606060020a028152601401915050604051602081830303815290604052604051808280519060200190808383602083106129ab5780518252601f19909201916020918201910161298c565b806000808460405160200180807f6d696e496e746572657374506169640000000000000000000000000000000000815250600f0182600160a060020a0316600160a060020a0316606060020a028152601401915050604051602081830303815290604052604051808280519060200190808383602083106129ab5780518252601f19909201916020918201910161298c565b600160a060020a038116301415613b8957600080fd5b80600260008460405160200180807f696e74657265737452656365697665720000000000000000000000000000000081525060100182600160a060020a0316600160a060020a0316606060020a0281526014019150506040516020818303038152906040526040518082805190602001908083835b60208310613c1d5780518252601f199092019160209182019101613bfe565b51815160209384036101000a600019018019909216911617905260408051929094018290039091208652850195909552929092016000208054600160a060020a031916600160a060020a0395909516949094179093555050505050565b6000613c84612267565b600160a060020a031682600160a060020a0316149050919050565b6000806000613cad856129ed565b9150613cb9858561424f565b81613cc3866129ed565b03905083811015613cd357600080fd5b8092505b505092915050565b60008080831515613cef57610c4d565b613cf88561249f565b9250828411613d075783613d09565b825b9150613d158583613c9f565b9050610c4d85828511613d29576000610c3e565b828503612a96565b6000613d3b6142a1565b8251149050919050565b60408051808201909152601a81527f19457468657265756d205369676e6564204d6573736167653a0a000000000000602082015260009060608315613eeb5781613d8f86516142a6565b866040516020018084805190602001908083835b60208310613dc25780518252601f199092019160209182019101613da3565b51815160209384036101000a600019018019909216911617905286519190930192860191508083835b60208310613e0a5780518252601f199092019160209182019101613deb565b51815160209384036101000a600019018019909216911617905285519190930192850191508083835b60208310613e525780518252601f199092019160209182019101613e33565b6001836020036101000a03801982511681845116808217855250505050505090500193505050506040516020818303038152906040526040518082805190602001908083835b60208310613eb75780518252601f199092019160209182019101613e98565b6001836020036101000a03801982511681845116808217855250505050505090500191505060405180910390209250613cd7565b6040805190810160405280600381526020017f3130340000000000000000000000000000000000000000000000000000000000815250905081818660405160200180848051906020019080838360208310613dc25780518252601f199092019160209182019101613da3565b6000805b8351811015613fa65782600160a060020a03168482815181101515613f7c57fe5b90602001906020020151600160a060020a03161415613f9e5760019150613fab565b600101613f5b565b600091505b5092915050565b613fbf81610c3284611465565b6000808460405160200180807f746f74616c457865637574656450657244617900000000000000000000000000815250601301828152602001915050604051602081830303815290604052604051808280519060200190808383602083106129ab5780518252601f19909201916020918201910161298c565b6000612a9082614046612676565b6000036143cd565b604080517f70a0823100000000000000000000000000000000000000000000000000000000815230600482015290516000918291600160a060020a038616916370a0823191602480830192602092919082900301818787803b1580156140b357600080fd5b505af11580156140c7573d6000803e3d6000fd5b505050506040513d60208110156140dd57600080fd5b5051915082821015611c02576141046140f5856114e0565b8385039063ffffffff612a8316565b9050611c028482613cdf565b3031611e938282614418565b604080517f70a0823100000000000000000000000000000000000000000000000000000000815230600482015290518391600091600160a060020a038416916370a0823191602480830192602092919082900301818787803b15801561418157600080fd5b505af1158015614195573d6000803e3d6000fd5b505050506040513d60208110156141ab57600080fd5b50519050611c02600160a060020a038516848363ffffffff61447916565b7f55b3774520b5993024893d303890baa4e84b1244a43c60034d1ced2d3cf2b04b600090815260209081527ff7d5eefab3776d7f0450bd0193564bcb4f832ce313ff2836c450fc63a4b944198290556040805183815290517f52264b89e0fceafb26e79fd49ef8a366eb6297483bf4035b027f0c99a7ad512e929181900390910190a150565b600061425961224f565b600160a060020a031663852a12e3836040518263ffffffff1660e060020a02815260040180828152602001915050602060405180830381600087803b158015612c1857600080fd5b606890565b606060008082818515156142ef5760408051808201909152600181527f3000000000000000000000000000000000000000000000000000000000000000602082015294506143c4565b8593505b831561430a57600190920191600a840493506142f3565b826040519080825280601f01601f191660200182016040528015614338578160200160208202803883390190505b5091505060001982015b85156143c05781516000198201917f01000000000000000000000000000000000000000000000000000000000000006030600a8a06010291849190811061438557fe5b9060200101907effffffffffffffffffffffffffffffffffffffffffffffffffffffffffffff1916908160001a905350600a86049550614342565b8194505b50505050919050565b60008115156143dd575081612a90565b6000821315614401576143fa83600a84900a63ffffffff61450e16565b9050612a90565b611cc5836000849003600a0a63ffffffff61453716565b604051600160a060020a0383169082156108fc029083906000818181858888f193505050501515611e9357808261444d61454c565b600160a060020a039091168152604051908190036020019082f080158015610c4d573d6000803e3d6000fd5b82600160a060020a031663a9059cbb83836040518363ffffffff1660e060020a0281526004018083600160a060020a0316600160a060020a0316815260200182815260200192505050600060405180830381600087803b1580156144dc57600080fd5b505af11580156144f0573d6000803e3d6000fd5b505050503d156117485760206000803e600051151561174857600080fd5b600082151561451f57506000612a90565b5081810281838281151561452f57fe5b0414612a9057fe5b6000818381151561454457fe5b049392505050565b60405160218061455c833901905600608060405260405160208060218339810160405251600160a060020a038116ff00222cb212229f0f9bcd249029717af6845ea3d3a84f22b54e5744ac25ef224c92b3492a958ebdd65bd9a0b8ebca07c67a2ad3af56a28fc2944e214aa69ec9581ba165627a7a72305820f407f2281ed86facd159b55c7913d9fbbc101498c7275289f68100be3dc303890029",
  "source": "pragma solidity 0.4.24;\n\nimport \"../upgradeable_contracts/erc20_to_native/ForeignBridgeErcToNative.sol\";\n\ncontract ForeignBridgeErcToNativeMock is ForeignBridgeErcToNative {\n    /**\n     * @dev Tells the address of the DAI token in the Ganache Testchain.\n     */\n    function daiToken() public pure returns (ERC20) {\n        return ERC20(0x0a4dBaF9656Fd88A32D087101Ee8bf399f4bd55f);\n    }\n\n    /**\n     * @dev Tells the address of the cDAI token in the Ganache Testchain.\n     */\n    function cDaiToken() public pure returns (ICToken) {\n        return ICToken(0x615cba17EE82De39162BB87dBA9BcfD6E8BcF298);\n    }\n\n    /**\n     * @dev Tells the address of the Comptroller contract in the Ganache Testchain.\n     */\n    function comptroller() public pure returns (IComptroller) {\n        return IComptroller(0x85e855b22F01BdD33eE194490c7eB16b7EdaC019);\n    }\n\n    /**\n     * @dev Tells the address of the COMP token in the Ganache Testchain.\n     */\n    function compToken() public pure returns (ERC20) {\n        return ERC20(0x6f51036Ec66B08cBFdb7Bd7Fb7F40b184482d724);\n    }\n}\n",
  "sourcePath": "/Users/eabz/Documents/GitHub/tokenbridge/packages/poanetwork/contracts/mocks/ForeignBridgeErcToNativeMock.sol",
  "compiler": {
    "name": "solc",
    "version": "0.4.24+commit.e67f0147.Emscripten.clang"
  },
  "schemaVersion": "3.4.3",
  "updatedAt": "2021-09-04T01:08:19.227Z",
  "devdoc": {
    "methods": {
      "cDaiToken()": {
        "details": "Tells the address of the cDAI token in the Ganache Testchain."
      },
      "claimCompAndPay()": {
        "details": "Claims Comp token and transfers it to the associated interest receiver."
      },
      "claimTokens(address,address)": {
        "details": "Withdraws the erc20 tokens or native coins from this contract.",
        "params": {
          "_to": "address of the tokens/coins receiver.",
          "_token": "address of the claimed token or address(0) for native coins."
        }
      },
      "compToken()": {
        "details": "Tells the address of the COMP token in the Ganache Testchain."
      },
      "comptroller()": {
        "details": "Tells the address of the Comptroller contract in the Ganache Testchain."
      },
      "daiToken()": {
        "details": "Tells the address of the DAI token in the Ganache Testchain."
      },
      "decimalShift()": {
        "details": "Returns the value of foreign-to-home decimal shift.",
        "return": "decimal shift."
      },
      "disableInterest(address)": {
        "details": "Internal function that disables interest for locked funds. Only owner can call this method.",
        "params": {
          "_token": "of token to disable interest for."
        }
      },
      "executeSignatures(bytes,bytes)": {
        "details": "Validates provided signatures and relays a given message",
        "params": {
          "message": "bytes to be relayed",
          "signatures": "bytes blob with signatures to be validated"
        }
      },
      "executeSignaturesGSN(bytes,bytes,uint256)": {
        "params": {
          "maxTokensFee": "maximum amount of foreign tokens that user allows to take as a commission",
          "message": "same as in `executeSignatures`",
          "signatures": "same as in `executeSignatures`"
        }
      },
      "initializeInterest(address,uint256,uint256,address)": {
        "details": "Initializes interest receiving functionality. Only owner can call this method.",
        "params": {
          "_minCashThreshold": "minimum amount of underlying tokens that are not invested.",
          "_minInterestPaid": "minimum amount of interest that can be paid in a single call.",
          "_token": "address of the token for interest earning."
        }
      },
      "interestAmount(address)": {
        "details": "Tells the current earned interest amount.",
        "params": {
          "_token": "address of the underlying token contract."
        },
        "return": "total amount of interest that can be withdrawn now."
      },
      "interestReceiver(address)": {
        "details": "Tells configured address of the interest receiver.",
        "params": {
          "_token": "address of the invested token contract."
        },
        "return": "address of the interest receiver."
      },
      "invest(address)": {
        "details": "Invests all excess tokens. Requires interest for the given token to be enabled.",
        "params": {
          "_token": "address of the token contract considered."
        }
      },
      "investedAmount(address)": {
        "details": "Tells the amount of underlying tokens that are currently invested.",
        "params": {
          "_token": "address of the token contract."
        },
        "return": "amount of underlying tokens."
      },
      "isInterestEnabled(address)": {
        "details": "Tells if interest earning was enabled for particular token.",
        "return": "true, if interest bearing  is enabled."
      },
      "maxAvailablePerTx()": {
        "details": "Retrieves maximum available bridge amount per one transaction taking into account maxPerTx() and dailyLimit() parameters.",
        "return": "minimum of maxPerTx parameter and remaining daily quota."
      },
      "minCashThreshold(address)": {
        "details": "Tells minimum amount of tokens that are not being invested.",
        "params": {
          "_token": "address of the invested token contract."
        },
        "return": "amount of tokens."
      },
      "minInterestPaid(address)": {
        "details": "Tells minimum amount of paid interest in a single call.",
        "params": {
          "_token": "address of the invested token contract."
        },
        "return": "paid interest minimum limit."
      },
      "owner()": {
        "details": "Tells the address of the owner",
        "return": "the address of the owner"
      },
      "payInterest(address)": {
        "details": "Pays collected interest for the specific underlying token. Requires interest for the given token to be enabled.",
        "params": {
          "_token": "address of the token contract."
        }
      },
      "setGasPrice(uint256)": {
        "details": "Public setter for fallback gas price value. Only bridge owner can call this method.",
        "params": {
          "_gasPrice": "new value for the gas price."
        }
      },
      "setInterestReceiver(address,address)": {
        "params": {
          "_receiver": "new receiver address.",
          "_token": "address of the invested token contract."
        }
      },
      "setMinCashThreshold(address,uint256)": {
        "details": "Sets minimum amount of tokens that cannot be invested. Only owner can call this method.",
        "params": {
          "_minCashThreshold": "minimum amount of underlying tokens that are not invested.",
          "_token": "address of the token contract."
        }
      },
      "setMinInterestPaid(address,uint256)": {
        "details": "Sets lower limit for the paid interest amount. Only owner can call this method.",
        "params": {
          "_minInterestPaid": "minimum amount of interest paid in a single call.",
          "_token": "address of the token contract."
        }
      },
      "transferOwnership(address)": {
        "details": "Allows the current owner to transfer control of the contract to a newOwner.",
        "params": {
          "newOwner": "the address to transfer ownership to."
        }
      }
    }
  },
  "userdoc": {
    "methods": {
      "setInterestReceiver(address,address)": {
        "notice": "Updates the interest receiver address. Only owner can call this method."
      }
    }
  }
}