{
  "contractName": "ForeignAMBWithGasToken",
  "abi": [
    {
      "constant": true,
      "inputs": [],
      "name": "transactionHash",
      "outputs": [
        {
          "name": "",
          "type": "bytes32"
        }
      ],
      "payable": false,
      "stateMutability": "view",
      "type": "function"
    },
    {
      "constant": true,
      "inputs": [],
      "name": "sourceChainId",
      "outputs": [
        {
          "name": "",
          "type": "uint256"
        }
      ],
      "payable": false,
      "stateMutability": "view",
      "type": "function"
    },
    {
      "constant": true,
      "inputs": [
        {
          "name": "_txHash",
          "type": "bytes32"
        }
      ],
      "name": "relayedMessages",
      "outputs": [
        {
          "name": "",
          "type": "bool"
        }
      ],
      "payable": false,
      "stateMutability": "view",
      "type": "function"
    },
    {
      "constant": false,
      "inputs": [
        {
          "name": "_targetMintValue",
          "type": "uint256"
        }
      ],
      "name": "setGasTokenTargetMintValue",
      "outputs": [],
      "payable": false,
      "stateMutability": "nonpayable",
      "type": "function"
    },
    {
      "constant": false,
      "inputs": [
        {
          "name": "_data",
          "type": "bytes"
        },
        {
          "name": "_signatures",
          "type": "bytes"
        }
      ],
      "name": "safeExecuteSignaturesWithAutoGasLimit",
      "outputs": [],
      "payable": false,
      "stateMutability": "nonpayable",
      "type": "function"
    },
    {
      "constant": false,
      "inputs": [
        {
          "name": "_sourceChainId",
          "type": "uint256"
        },
        {
          "name": "_destinationChainId",
          "type": "uint256"
        },
        {
          "name": "_validatorContract",
          "type": "address"
        },
        {
          "name": "_maxGasPerTx",
          "type": "uint256"
        },
        {
          "name": "_gasPrice",
          "type": "uint256"
        },
        {
          "name": "_requiredBlockConfirmations",
          "type": "uint256"
        },
        {
          "name": "_owner",
          "type": "address"
        }
      ],
      "name": "initialize",
      "outputs": [
        {
          "name": "",
          "type": "bool"
        }
      ],
      "payable": false,
      "stateMutability": "nonpayable",
      "type": "function"
    },
    {
      "constant": true,
      "inputs": [],
      "name": "isInitialized",
      "outputs": [
        {
          "name": "",
          "type": "bool"
        }
      ],
      "payable": false,
      "stateMutability": "view",
      "type": "function"
    },
    {
      "constant": true,
      "inputs": [],
      "name": "requiredBlockConfirmations",
      "outputs": [
        {
          "name": "",
          "type": "uint256"
        }
      ],
      "payable": false,
      "stateMutability": "view",
      "type": "function"
    },
    {
      "constant": false,
      "inputs": [
        {
          "name": "_data",
          "type": "bytes"
        },
        {
          "name": "_signatures",
          "type": "bytes"
        }
      ],
      "name": "executeSignatures",
      "outputs": [],
      "payable": false,
      "stateMutability": "nonpayable",
      "type": "function"
    },
    {
      "constant": true,
      "inputs": [
        {
          "name": "_data",
          "type": "bytes"
        }
      ],
      "name": "getMinimumGasUsage",
      "outputs": [
        {
          "name": "gas",
          "type": "uint256"
        }
      ],
      "payable": false,
      "stateMutability": "pure",
      "type": "function"
    },
    {
      "constant": true,
      "inputs": [
        {
          "name": "_messageId",
          "type": "bytes32"
        }
      ],
      "name": "failedMessageReceiver",
      "outputs": [
        {
          "name": "",
          "type": "address"
        }
      ],
      "payable": false,
      "stateMutability": "view",
      "type": "function"
    },
    {
      "constant": true,
      "inputs": [],
      "name": "getBridgeMode",
      "outputs": [
        {
          "name": "_data",
          "type": "bytes4"
        }
      ],
      "payable": false,
      "stateMutability": "pure",
      "type": "function"
    },
    {
      "constant": false,
      "inputs": [
        {
          "name": "_sourceChainId",
          "type": "uint256"
        },
        {
          "name": "_destinationChainId",
          "type": "uint256"
        }
      ],
      "name": "setChainIds",
      "outputs": [],
      "payable": false,
      "stateMutability": "nonpayable",
      "type": "function"
    },
    {
      "constant": true,
      "inputs": [
        {
          "name": "_messageId",
          "type": "bytes32"
        }
      ],
      "name": "failedMessageSender",
      "outputs": [
        {
          "name": "",
          "type": "address"
        }
      ],
      "payable": false,
      "stateMutability": "view",
      "type": "function"
    },
    {
      "constant": true,
      "inputs": [],
      "name": "allowReentrantRequests",
      "outputs": [
        {
          "name": "",
          "type": "bool"
        }
      ],
      "payable": false,
      "stateMutability": "view",
      "type": "function"
    },
    {
      "constant": true,
      "inputs": [],
      "name": "messageId",
      "outputs": [
        {
          "name": "id",
          "type": "bytes32"
        }
      ],
      "payable": false,
      "stateMutability": "view",
      "type": "function"
    },
    {
      "constant": true,
      "inputs": [],
      "name": "gasTokenReceiver",
      "outputs": [
        {
          "name": "",
          "type": "address"
        }
      ],
      "payable": false,
      "stateMutability": "view",
      "type": "function"
    },
    {
      "constant": false,
      "inputs": [
        {
          "name": "_maxGasPerTx",
          "type": "uint256"
        }
      ],
      "name": "setMaxGasPerTx",
      "outputs": [],
      "payable": false,
      "stateMutability": "nonpayable",
      "type": "function"
    },
    {
      "constant": true,
      "inputs": [],
      "name": "requiredSignatures",
      "outputs": [
        {
          "name": "",
          "type": "uint256"
        }
      ],
      "payable": false,
      "stateMutability": "view",
      "type": "function"
    },
    {
      "constant": true,
      "inputs": [],
      "name": "owner",
      "outputs": [
        {
          "name": "",
          "type": "address"
        }
      ],
      "payable": false,
      "stateMutability": "view",
      "type": "function"
    },
    {
      "constant": true,
      "inputs": [],
      "name": "validatorContract",
      "outputs": [
        {
          "name": "",
          "type": "address"
        }
      ],
      "payable": false,
      "stateMutability": "view",
      "type": "function"
    },
    {
      "constant": true,
      "inputs": [],
      "name": "deployedAtBlock",
      "outputs": [
        {
          "name": "",
          "type": "uint256"
        }
      ],
      "payable": false,
      "stateMutability": "view",
      "type": "function"
    },
    {
      "constant": true,
      "inputs": [],
      "name": "getBridgeInterfacesVersion",
      "outputs": [
        {
          "name": "major",
          "type": "uint64"
        },
        {
          "name": "minor",
          "type": "uint64"
        },
        {
          "name": "patch",
          "type": "uint64"
        }
      ],
      "payable": false,
      "stateMutability": "pure",
      "type": "function"
    },
    {
      "constant": true,
      "inputs": [],
      "name": "messageSourceChainId",
      "outputs": [
        {
          "name": "id",
          "type": "uint256"
        }
      ],
      "payable": false,
      "stateMutability": "view",
      "type": "function"
    },
    {
      "constant": false,
      "inputs": [
        {
          "name": "_receiver",
          "type": "address"
        }
      ],
      "name": "setGasTokenReceiver",
      "outputs": [],
      "payable": false,
      "stateMutability": "nonpayable",
      "type": "function"
    },
    {
      "constant": false,
      "inputs": [
        {
          "name": "_blockConfirmations",
          "type": "uint256"
        }
      ],
      "name": "setRequiredBlockConfirmations",
      "outputs": [],
      "payable": false,
      "stateMutability": "nonpayable",
      "type": "function"
    },
    {
      "constant": true,
      "inputs": [],
      "name": "destinationChainId",
      "outputs": [
        {
          "name": "",
          "type": "uint256"
        }
      ],
      "payable": false,
      "stateMutability": "view",
      "type": "function"
    },
    {
      "constant": false,
      "inputs": [
        {
          "name": "_gasPrice",
          "type": "uint256"
        }
      ],
      "name": "setGasPrice",
      "outputs": [],
      "payable": false,
      "stateMutability": "nonpayable",
      "type": "function"
    },
    {
      "constant": false,
      "inputs": [
        {
          "name": "_enable",
          "type": "bool"
        }
      ],
      "name": "setAllowReentrantRequests",
      "outputs": [],
      "payable": false,
      "stateMutability": "nonpayable",
      "type": "function"
    },
    {
      "constant": true,
      "inputs": [],
      "name": "gasToken",
      "outputs": [
        {
          "name": "",
          "type": "address"
        }
      ],
      "payable": false,
      "stateMutability": "pure",
      "type": "function"
    },
    {
      "constant": true,
      "inputs": [
        {
          "name": "_messageId",
          "type": "bytes32"
        }
      ],
      "name": "messageCallStatus",
      "outputs": [
        {
          "name": "",
          "type": "bool"
        }
      ],
      "payable": false,
      "stateMutability": "view",
      "type": "function"
    },
    {
      "constant": true,
      "inputs": [],
      "name": "messageSender",
      "outputs": [
        {
          "name": "sender",
          "type": "address"
        }
      ],
      "payable": false,
      "stateMutability": "view",
      "type": "function"
    },
    {
      "constant": true,
      "inputs": [],
      "name": "decimalShift",
      "outputs": [
        {
          "name": "",
          "type": "int256"
        }
      ],
      "payable": false,
      "stateMutability": "view",
      "type": "function"
    },
    {
      "constant": true,
      "inputs": [],
      "name": "gasTokenTargetMintValue",
      "outputs": [
        {
          "name": "",
          "type": "uint256"
        }
      ],
      "payable": false,
      "stateMutability": "view",
      "type": "function"
    },
    {
      "constant": true,
      "inputs": [
        {
          "name": "_messageId",
          "type": "bytes32"
        }
      ],
      "name": "failedMessageDataHash",
      "outputs": [
        {
          "name": "",
          "type": "bytes32"
        }
      ],
      "payable": false,
      "stateMutability": "view",
      "type": "function"
    },
    {
      "constant": true,
      "inputs": [],
      "name": "maxGasPerTx",
      "outputs": [
        {
          "name": "",
          "type": "uint256"
        }
      ],
      "payable": false,
      "stateMutability": "view",
      "type": "function"
    },
    {
      "constant": false,
      "inputs": [
        {
          "name": "_data",
          "type": "bytes"
        },
        {
          "name": "_signatures",
          "type": "bytes"
        },
        {
          "name": "_gas",
          "type": "uint32"
        }
      ],
      "name": "safeExecuteSignaturesWithGasLimit",
      "outputs": [],
      "payable": false,
      "stateMutability": "nonpayable",
      "type": "function"
    },
    {
      "constant": false,
      "inputs": [
        {
          "name": "_data",
          "type": "bytes"
        },
        {
          "name": "_signatures",
          "type": "bytes"
        }
      ],
      "name": "safeExecuteSignatures",
      "outputs": [],
      "payable": false,
      "stateMutability": "nonpayable",
      "type": "function"
    },
    {
      "constant": false,
      "inputs": [
        {
          "name": "_targetMintValue",
          "type": "uint256"
        },
        {
          "name": "_receiver",
          "type": "address"
        }
      ],
      "name": "setGasTokenParameters",
      "outputs": [],
      "payable": false,
      "stateMutability": "nonpayable",
      "type": "function"
    },
    {
      "constant": false,
      "inputs": [
        {
          "name": "newOwner",
          "type": "address"
        }
      ],
      "name": "transferOwnership",
      "outputs": [],
      "payable": false,
      "stateMutability": "nonpayable",
      "type": "function"
    },
    {
      "constant": true,
      "inputs": [],
      "name": "gasPrice",
      "outputs": [
        {
          "name": "",
          "type": "uint256"
        }
      ],
      "payable": false,
      "stateMutability": "view",
      "type": "function"
    },
    {
      "anonymous": false,
      "inputs": [
        {
          "indexed": true,
          "name": "messageId",
          "type": "bytes32"
        },
        {
          "indexed": false,
          "name": "encodedData",
          "type": "bytes"
        }
      ],
      "name": "UserRequestForAffirmation",
      "type": "event"
    },
    {
      "anonymous": false,
      "inputs": [
        {
          "indexed": true,
          "name": "sender",
          "type": "address"
        },
        {
          "indexed": true,
          "name": "executor",
          "type": "address"
        },
        {
          "indexed": true,
          "name": "messageId",
          "type": "bytes32"
        },
        {
          "indexed": false,
          "name": "status",
          "type": "bool"
        }
      ],
      "name": "RelayedMessage",
      "type": "event"
    },
    {
      "anonymous": false,
      "inputs": [
        {
          "indexed": false,
          "name": "gasPrice",
          "type": "uint256"
        }
      ],
      "name": "GasPriceChanged",
      "type": "event"
    },
    {
      "anonymous": false,
      "inputs": [
        {
          "indexed": false,
          "name": "requiredBlockConfirmations",
          "type": "uint256"
        }
      ],
      "name": "RequiredBlockConfirmationChanged",
      "type": "event"
    },
    {
      "anonymous": false,
      "inputs": [
        {
          "indexed": false,
          "name": "previousOwner",
          "type": "address"
        },
        {
          "indexed": false,
          "name": "newOwner",
          "type": "address"
        }
      ],
      "name": "OwnershipTransferred",
      "type": "event"
    },
    {
      "constant": false,
      "inputs": [
        {
          "name": "_contract",
          "type": "address"
        },
        {
          "name": "_data",
          "type": "bytes"
        },
        {
          "name": "_gas",
          "type": "uint256"
        }
      ],
      "name": "requireToPassMessage",
      "outputs": [
        {
          "name": "messageId",
          "type": "bytes32"
        }
      ],
      "payable": false,
      "stateMutability": "nonpayable",
      "type": "function"
    }
  ],
  "bytecode": "0x608060405234801561001057600080fd5b506133b9806100206000396000f3006080604052600436106101ea5763ffffffff60e060020a6000350416630ac1c31381146101ef5780631544298e1461021657806321d800ec1461022b57806323b4a1fd1461025757806323caab491461027157806325fbf4ee1461029d578063392e53cd146102d65780633f0a9f65146102eb5780633f7658fd146103005780633f768c06146103975780633f9a8e7e146103f0578063437764df14610424578063467ad35a1461046b5780634a610b04146104865780634d4cb7a21461049e578063669f618b146104b35780636c388e54146104c85780637bac29c7146104dd5780638d068043146104f55780638da5cb5b1461050a578063994390891461051f5780639a454b99146105345780639cb7595a146105495780639e307dff1461058a5780639f1ed0c71461059f578063acf5c689146105c0578063b0750611146105d8578063bf1fe420146105ed578063c2231ad214610605578063c91d59fe1461061f578063cb08a10c14610634578063d67bdd251461064c578063dae5f0fd14610661578063dc8601b314610676578063de6e02b8146106df578063e37c3289146106f4578063e5789d031461070c578063e6d562a114610721578063eaa820d7146107c0578063ee033614146107ec578063f2fde38b14610810578063fe173b9714610831575b600080fd5b3480156101fb57600080fd5b50610204610846565b60408051918252519081900360200190f35b34801561022257600080fd5b50610204610855565b34801561023757600080fd5b506102436004356108a3565b604080519115158252519081900360200190f35b34801561026357600080fd5b5061026f60043561096c565b005b34801561027d57600080fd5b5061026f60246004803582810192908201359181359182019101356109d5565b3480156102a957600080fd5b50610243600435602435600160a060020a03604435811690606435906084359060a4359060c43516610a48565b3480156102e257600080fd5b50610243610cbc565b3480156102f757600080fd5b50610204610d0d565b34801561030c57600080fd5b506040805160206004803580820135601f810184900484028501840190955284845261026f94369492936024939284019190819084018382808284375050604080516020601f89358b018035918201839004830284018301909452808352979a999881019791965091820194509250829150840183828082843750949750610d5b9650505050505050565b3480156103a357600080fd5b506040805160206004803580820135601f8101849004840285018401909552848452610204943694929360249392840191908190840183828082843750949750610dab9650505050505050565b3480156103fc57600080fd5b50610408600435610dc7565b60408051600160a060020a039092168252519081900360200190f35b34801561043057600080fd5b50610439610e96565b604080517bffffffffffffffffffffffffffffffffffffffffffffffffffffffff199092168252519081900360200190f35b34801561047757600080fd5b5061026f600435602435610eba565b34801561049257600080fd5b50610408600435610ee4565b3480156104aa57600080fd5b50610243610f68565b3480156104bf57600080fd5b50610204610fb9565b3480156104d457600080fd5b50610408610fde565b3480156104e957600080fd5b5061026f600435611035565b34801561050157600080fd5b5061020461109e565b34801561051657600080fd5b50610408611116565b34801561052b57600080fd5b5061040861116d565b34801561054057600080fd5b506102046111c4565b34801561055557600080fd5b5061055e611212565b6040805167ffffffffffffffff9485168152928416602084015292168183015290519081900360600190f35b34801561059657600080fd5b5061020461121d565b3480156105ab57600080fd5b5061026f600160a060020a0360043516611242565b3480156105cc57600080fd5b5061026f6004356112d5565b3480156105e457600080fd5b506102046112fd565b3480156105f957600080fd5b5061026f60043561134b565b34801561061157600080fd5b5061026f6004351515611370565b34801561062b57600080fd5b506104086113e7565b34801561064057600080fd5b506102436004356113fa565b34801561065857600080fd5b5061040861147e565b34801561066d57600080fd5b506102046114a3565b34801561068257600080fd5b5060408051602060046024803582810135601f8101859004850286018501909652858552610204958335600160a060020a031695369560449491939091019190819084018382808284375094975050933594506114f19350505050565b3480156106eb57600080fd5b5061020461150f565b34801561070057600080fd5b5061020460043561155d565b34801561071857600080fd5b50610204611622565b34801561072d57600080fd5b506040805160206004803580820135601f810184900484028501840190955284845261026f94369492936024939284019190819084018382808284375050604080516020601f89358b018035918201839004830284018301909452808352979a9998810197919650918201945092508291508401838280828437509497505050923563ffffffff16935061167092505050565b3480156107cc57600080fd5b5061026f60246004803582810192908201359181359182019101356116b6565b3480156107f857600080fd5b5061026f600435600160a060020a036024351661171d565b34801561081c57600080fd5b5061026f600160a060020a03600435166117d4565b34801561083d57600080fd5b506102046117f9565b6000610850610fb9565b905090565b7f67d6f42a1ed69c62022f2d160ddc6f2f0acd37ad1db0c24f4702d7d3343a4add60009081526020527ff6c66672b1a9fe5622677597b0da8fd180a2c85696efbcf7fe4b1e0f4f0f61085490565b6000600460008360405160200180807f72656c617965644d657373616765730000000000000000000000000000000000815250600f0182600019166000191681526020019150506040516020818303038152906040526040518082805190602001908083835b602083106109285780518252601f199092019160209182019101610909565b51815160209384036101000a600019018019909216911617905260408051929094018290039091208652850195909552929092016000205460ff1695945050505050565b610974611116565b600160a060020a0316331461098857600080fd5b7f7188f1264c90762deb4dbddcab803d6487a8f108fbcdec3ff08c642d35826f9f60009081526020527f508af815a456b6ded512875db9df6b2d5693ac1edc789fb62dc528b792885e5155565b610a4284848080601f0160208091040260200160405190810160405280939291908181526020018383808284375050604080516020601f8a01819004810282018101909252888152945088935087925082915084018382808284375063ffffffff94506116709350505050565b50505050565b60408051600481526024810182526020810180517bffffffffffffffffffffffffffffffffffffffffffffffffffffffff167f6fde8202000000000000000000000000000000000000000000000000000000001781529151815160009330939291829190808383895b83811015610ac9578181015183820152602001610ab1565b50505050905090810190601f168015610af65780820380516001836020036101000a031916815260200191505b509150506000604051808303816000865af19150501580610b88575030600160a060020a0316636fde82026040518163ffffffff1660e060020a028152600401602060405180830381600087803b158015610b5057600080fd5b505af1158015610b64573d6000803e3d6000fd5b505050506040513d6020811015610b7a57600080fd5b5051600160a060020a031633145b80610b9257503330145b1515610b9d57600080fd5b610ba5610cbc565b15610baf57600080fd5b610bb886611847565b1515610bc357600080fd5b610bcd888861184f565b7fab54f3fbbe62c59b7876a9bf9bd5e0c22dbae93f4d8ee0438f7ce62b198eb0e0805473ffffffffffffffffffffffffffffffffffffffff1916600160a060020a03881617905560006020819052437fe66bef0282a446f9848e2903380099bb6e431483ee78778868f33b4a154c818b557f2670ecc91ec356e32067fd27b36614132d727b84a1e03e08f412a4f2cf07597490527f3d7fe2ee9790702383ef0118b516833ef2542132d3ca4ac6c77f62f1230fa610859055610c8e8461199f565b610c97836119b5565b610ca082611a48565b610ca8611b1f565b610cb0610cbc565b98975050505050505050565b7f0a6f646cd611241d8073675e00d1a1ff700fbf1b53fcf473de56d1e6e4b714ba60005260046020527f078d888f9b66f3f8bfa10909e31f1e16240db73449f0500afdbbe3a70da457cc5460ff1690565b7f916daedf6915000ff68ced2f0b6773fe6f2582237f92c3c95bb4d7940723007160009081526020527fd2ea0feb732edb0ffe32efd33a6b9d24d46b16eb34a4d07ce256537b6f131e425490565b6000806000806000610d6b613372565b6060610d778989611b76565b610d8089611b9e565b959c50939a509198509650945092509050610da087878787878787611c7e565b505050505050505050565b8051600090610dc190601063ffffffff611cee16565b92915050565b6000600260008360405160200180807f6661696c65644d6573736167655265636569766572000000000000000000000081525060150182600019166000191681526020019150506040516020818303038152906040526040518082805190602001908083835b60208310610e4c5780518252601f199092019160209182019101610e2d565b51815160209384036101000a6000190180199092169116179052604080519290940182900390912086528501959095529290920160002054600160a060020a031695945050505050565b7f2544fbb90000000000000000000000000000000000000000000000000000000090565b610ec2611116565b600160a060020a03163314610ed657600080fd5b610ee0828261184f565b5050565b6000600260008360405160200180807f6661696c65644d65737361676553656e64657200000000000000000000000000815250601301826000191660001916815260200191505060405160208183030381529060405260405180828051906020019080838360208310610e4c5780518252601f199092019160209182019101610e2d565b7fffa3a5a0e192028fc343362a39c5688e5a60819a4dc5ab3ee70c25bc25b78dd660005260046020527f265a43ea29ede07170a30cb6d77d0ab5810eee752b72432f7be348bde74aa08f5460ff1690565b7fe34bb2103dc34f2c144cc216c132d6ffb55dac57575c22e089161bbe650833045490565b7f6778a39b83358b10315b40840597142f1db77a44f312ed9c0e45ee7af3bbc55260005260026020527fd0cda424605c5e6787a1f6db37df501d2e0a58cfcd57eff91a537a67146f164f54600160a060020a031690565b61103d611116565b600160a060020a0316331461105157600080fd5b7f2670ecc91ec356e32067fd27b36614132d727b84a1e03e08f412a4f2cf07597460009081526020527f3d7fe2ee9790702383ef0118b516833ef2542132d3ca4ac6c77f62f1230fa61055565b60006110a861116d565b600160a060020a0316638d0680436040518163ffffffff1660e060020a028152600401602060405180830381600087803b1580156110e557600080fd5b505af11580156110f9573d6000803e3d6000fd5b505050506040513d602081101561110f57600080fd5b5051905090565b7f02016836a56b71f0d02689e69e326f4f4c1b9057164ef592671cf0d37c8040c060005260026020527fb7802e97e87ef2842a6cce7da7ffaeaedaa2f61a6a7870b23d9d01fc9b73712e54600160a060020a031690565b7f5a74bb7e202fb8e4bf311841c7d64ec19df195fee77d7e7ae749b27921b6ddfe60005260026020527fab54f3fbbe62c59b7876a9bf9bd5e0c22dbae93f4d8ee0438f7ce62b198eb0e054600160a060020a031690565b7fb120ceec05576ad0c710bc6e85f1768535e27554458f05dcbb5c65b8c7a749b060009081526020527fe66bef0282a446f9848e2903380099bb6e431483ee78778868f33b4a154c818b5490565b600660016000909192565b7f7f0fcd9e49860f055dd0c1682d635d309ecb5e3011654c716d9eb59a7ddec7d25490565b61124a611116565b600160a060020a0316331461125e57600080fd5b7f6778a39b83358b10315b40840597142f1db77a44f312ed9c0e45ee7af3bbc55260005260026020527fd0cda424605c5e6787a1f6db37df501d2e0a58cfcd57eff91a537a67146f164f805473ffffffffffffffffffffffffffffffffffffffff1916600160a060020a0392909216919091179055565b6112dd611116565b600160a060020a031633146112f157600080fd5b6112fa816119b5565b50565b7fbbd454018e72a3f6c02bbd785bacc49e46292744f3f6761276723823aa33232060009081526020527f242329173dfc316001df0a0c3d5a8f58a7ffb1a8b7d99c268303b9a741bacdf95490565b611353611116565b600160a060020a0316331461136757600080fd5b6112fa8161199f565b611378611116565b600160a060020a0316331461138c57600080fd5b7fffa3a5a0e192028fc343362a39c5688e5a60819a4dc5ab3ee70c25bc25b78dd660005260046020527f265a43ea29ede07170a30cb6d77d0ab5810eee752b72432f7be348bde74aa08f805460ff1916911515919091179055565b6eb3f879cb30fe243b4dfee438691c0490565b6000600460008360405160200180807f6d65737361676543616c6c5374617475730000000000000000000000000000008152506011018260001916600019168152602001915050604051602081830303815290604052604051808280519060200190808383602083106109285780518252601f199092019160209182019101610909565b7f7b58b2a669d8e0992eae9eaef641092c0f686fd31070e7236865557fa1571b5b5490565b7f1e8ecaafaddea96ed9ac6d2642dcdfe1bebe58a930b1085842d8fc122b371ee560009081526020527fd5c78dd9468716ca9bb96be25d56436811b20aab3523a9904b12deef1cab239d5490565b60006114fe848484611d17565b9050611508611d2e565b9392505050565b7f7188f1264c90762deb4dbddcab803d6487a8f108fbcdec3ff08c642d35826f9f60009081526020527f508af815a456b6ded512875db9df6b2d5693ac1edc789fb62dc528b792885e515490565b60008060008360405160200180807f6661696c65644d6573736167654461746148617368000000000000000000000081525060150182600019166000191681526020019150506040516020818303038152906040526040518082805190602001908083835b602083106115e15780518252601f1990920191602091820191016115c2565b51815160209384036101000a600019018019909216911617905260408051929094018290039091208652850195909552929092016000205495945050505050565b7f2670ecc91ec356e32067fd27b36614132d727b84a1e03e08f412a4f2cf07597460009081526020527f3d7fe2ee9790702383ef0118b516833ef2542132d3ca4ac6c77f62f1230fa6105490565b60008060008061167e613372565b606061168a8989611b76565b61169389611b9e565b959b50939950919750909550909350909150610da090508686868a878787611c7e565b610a4284848080601f0160208091040260200160405190810160405280939291908181526020018383808284375050604080516020601f8a018190048102820181019092528881529450889350879250829150840183828082843750610d5b945050505050565b611725611116565b600160a060020a0316331461173957600080fd5b7f508af815a456b6ded512875db9df6b2d5693ac1edc789fb62dc528b792885e51919091557f6778a39b83358b10315b40840597142f1db77a44f312ed9c0e45ee7af3bbc55260005260026020527fd0cda424605c5e6787a1f6db37df501d2e0a58cfcd57eff91a537a67146f164f805473ffffffffffffffffffffffffffffffffffffffff1916600160a060020a03909216919091179055565b6117dc611116565b600160a060020a031633146117f057600080fd5b6112fa81611a48565b7f55b3774520b5993024893d303890baa4e84b1244a43c60034d1ced2d3cf2b04b60009081526020527ff7d5eefab3776d7f0450bd0193564bcb4f832ce313ff2836c450fc63a4b944195490565b6000903b1190565b6000806000806000861180156118655750600085115b151561187057600080fd5b8585141561187d57600080fd5b506000925082915060ff905060015b831580611897575082155b156118df57831580156118ab575085828716145b156118b4578093505b821580156118c3575084828616145b156118cc578092505b6101009190910260ff179060010161188c565b5050600060208190527ff6c66672b1a9fe5622677597b0da8fd180a2c85696efbcf7fe4b1e0f4f0f6108949094557f2f30286a16f86ee067618e1a246990e40c07b7749418a6dd3133f9cfb7e814cc919091557f242329173dfc316001df0a0c3d5a8f58a7ffb1a8b7d99c268303b9a741bacdf9919091557ffb792ae4ad11102b93f26a51b3749c2b3667f8b561566a4806d49896928115949091527f7b62b32ff48350e85ce95b571fde6f8b1096bc44a26db769ad6d0b3a26bf1c6d55565b600081116119ac57600080fd5b6112fa81612160565b600081116119c257600080fd5b7f916daedf6915000ff68ced2f0b6773fe6f2582237f92c3c95bb4d79407230071600090815260209081527fd2ea0feb732edb0ffe32efd33a6b9d24d46b16eb34a4d07ce256537b6f131e428290556040805183815290517f4fb76205cd57c896b21511d2114137d8e901b4ccd659e1a0f97d6306795264fb929181900390910190a150565b600160a060020a0381161515611a5d57600080fd5b7f8be0079c531659141344cd1fd0a4f28419497f9722a3daafe3b4186f6b6457e0611a86611116565b60408051600160a060020a03928316815291841660208301528051918290030190a17f02016836a56b71f0d02689e69e326f4f4c1b9057164ef592671cf0d37c8040c060005260026020527fb7802e97e87ef2842a6cce7da7ffaeaedaa2f61a6a7870b23d9d01fc9b73712e805473ffffffffffffffffffffffffffffffffffffffff1916600160a060020a0392909216919091179055565b7f0a6f646cd611241d8073675e00d1a1ff700fbf1b53fcf473de56d1e6e4b714ba60005260046020527f078d888f9b66f3f8bfa10909e31f1e16240db73449f0500afdbbe3a70da457cc805460ff19166001179055565b6000611b80610fb9565b14611b8a57600080fd5b610ee08282611b9761116d565b60016121e6565b6000806000806000611bae613372565b6060600080604f915060208a01519850600160a060020a0360348b015116975060548a01518060601c975063ffffffff8160401c16965080601a1a95508060181a6001808260031b1b03818501945080858e01511687528260191a91506001808360031b1b039050818501945080858e0151166020880152848d51039350505050806040519080825280601f01601f191660200182016040528015611c5d578160200160208202803883390190505b50925060248201915080826004350160208501375050919395979092949650565b611c8787612470565b1515611c9257600080fd5b6020820151611ca0906124b6565b1515611cab57600080fd5b611cb4876108a3565b15611cbe57600080fd5b611cc98760016124c8565b611ce586868963ffffffff88168787600060200201518761259a565b50505050505050565b6000821515611cff57506000610dc1565b50818102818382811515611d0f57fe5b0414610dc157fe5b6000611d2684848460006125f1565b949350505050565b600080600080611d3c61150f565b9350831515611d4a57610a42565b611d52610fde565b9250600160a060020a0383161515611d6957610a42565b611d716113e7565b604080517fdd62ed3e0000000000000000000000000000000000000000000000000000000081523360048201523060248201529051919350600160a060020a0384169163dd62ed3e916044808201926020929091908290030181600087803b158015611ddc57600080fd5b505af1158015611df0573d6000803e3d6000fd5b505050506040513d6020811015611e0657600080fd5b50519050838110611ebf57604080517f23b872dd000000000000000000000000000000000000000000000000000000008152336004820152600160a060020a038581166024830152604482018790529151918416916323b872dd916064808201926020929091908290030181600087803b158015611e8357600080fd5b505af1158015611e97573d6000803e3d6000fd5b505050506040513d6020811015611ead57600080fd5b50511515611eba57600080fd5b61206a565b6000811115611f6d57604080517f23b872dd000000000000000000000000000000000000000000000000000000008152336004820152306024820152604481018390529051600160a060020a038416916323b872dd9160648083019260209291908290030181600087803b158015611f3657600080fd5b505af1158015611f4a573d6000803e3d6000fd5b505050506040513d6020811015611f6057600080fd5b50511515611f6d57600080fd5b81600160a060020a031663a0712d688286036040518263ffffffff1660e060020a02815260040180828152602001915050600060405180830381600087803b158015611fb857600080fd5b505af1158015611fcc573d6000803e3d6000fd5b5050505081600160a060020a031663a9059cbb84866040518363ffffffff1660e060020a0281526004018083600160a060020a0316600160a060020a0316815260200182815260200192505050602060405180830381600087803b15801561203357600080fd5b505af1158015612047573d6000803e3d6000fd5b505050506040513d602081101561205d57600080fd5b5051151561206a57600080fd5b604080513060248201526044810186905260606064820152600060848201819052825180830360a401815260c490920183526020820180517bffffffffffffffffffffffffffffffffffffffffffffffffffffffff167fa4c0ed360000000000000000000000000000000000000000000000000000000017815292518251600160a060020a038816949192839291908190849084905b83811015612118578181015183820152602001612100565b50505050905090810190601f1680156121455780820380516001836020036101000a031916815260200191505b509150506000604051808303816000865af150505050505050565b7f55b3774520b5993024893d303890baa4e84b1244a43c60034d1ced2d3cf2b04b600090815260209081527ff7d5eefab3776d7f0450bd0193564bcb4f832ce313ff2836c450fc63a4b944198290556040805183815290517f52264b89e0fceafb26e79fd49ef8a366eb6297483bf4035b027f0c99a7ad512e929181900390910190a150565b6000806000606060008060008060008060008b8061220857506122088f61271c565b151561221357600080fd5b8c600160a060020a0316638d0680436040518163ffffffff1660e060020a028152600401602060405180830381600087803b15801561225157600080fd5b505af1158015612265573d6000803e3d6000fd5b505050506040513d602081101561227b57600080fd5b505160018f0151909b5060ff1699508a8a101561229757600080fd5b6122a18f8d612730565b98508a6040519080825280602002602001820160405280156122cd578160200160208202803883390190505b509750600096505b8a87101561245f57866020028a6021010192508960200283019150866002018e01519550828e01519450818e01519350600189878787604051600081526020016040526040518085600019166000191681526020018460ff1660ff1681526020018360001916600019168152602001826000191660001916815260200194505050505060206040516020810390808403906000865af115801561237c573d6000803e3d6000fd5b5050506020604051035190508c600160a060020a031663facd743b826040518263ffffffff1660e060020a0281526004018082600160a060020a0316600160a060020a03168152602001915050602060405180830381600087803b1580156123e357600080fd5b505af11580156123f7573d6000803e3d6000fd5b505050506040513d602081101561240d57600080fd5b5051151561241a57600080fd5b612424888261294a565b1561242e57600080fd5b80888881518110151561243d57fe5b600160a060020a039092166020928302909101909101526001909601956122d5565b505050505050505050505050505050565b7bffffffffffffffffffffffffffffffffffffffffffffffffffffffff1981167e0500000000000000000000000000000000000000000000000000000000000014919050565b60006124c0610855565b909114919050565b80600460008460405160200180807f72656c617965644d657373616765730000000000000000000000000000000000815250600f0182600019166000191681526020019150506040516020818303038152906040526040518082805190602001908083835b6020831061254c5780518252601f19909201916020918201910161252d565b51815160209384036101000a60001901801990921691161790526040805192909401829003909120865285019590955292909201600020805460ff1916941515949094179093555050505050565b60006125aa888884888a886129a5565b90506125b68682612a9b565b8015156125db576125c78683612b1e565b6125d18688612c2d565b6125db8689612d1b565b6125e788888884612d9e565b5050505050505050565b60008060608082612600610fb9565b148061260f575061260f610f68565b151561261a57600080fd5b61262387610dab565b86101580156126395750612635611622565b8611155b151561264457600080fd5b61264f888787612dec565b9250925081876040516020018083805190602001908083835b602083106126875780518252601f199092019160209182019101612668565b51815160209384036101000a600019018019909216911617905285519190930192850191508083835b602083106126cf5780518252601f1990920191602091820191016126b0565b6001836020036101000a0380198251168184511680821785525050505050509050019250505060405160208183030381529060405290506127108382612ea2565b50909695505050505050565b6000612726612f3f565b8251149050919050565b60408051808201909152601a81527f19457468657265756d205369676e6564204d6573736167653a0a0000000000006020820152600090606083156128d6578161277a8651612f44565b866040516020018084805190602001908083835b602083106127ad5780518252601f19909201916020918201910161278e565b51815160209384036101000a600019018019909216911617905286519190930192860191508083835b602083106127f55780518252601f1990920191602091820191016127d6565b51815160209384036101000a600019018019909216911617905285519190930192850191508083835b6020831061283d5780518252601f19909201916020918201910161281e565b6001836020036101000a03801982511681845116808217855250505050505090500193505050506040516020818303038152906040526040518082805190602001908083835b602083106128a25780518252601f199092019160209182019101612883565b6001836020036101000a03801982511681845116808217855250505050505090500191505060405180910390209250612942565b6040805190810160405280600381526020017f31303400000000000000000000000000000000000000000000000000000000008152509050818186604051602001808480519060200190808383602083106127ad5780518252601f19909201916020918201910161278e565b505092915050565b6000805b83518110156129995782600160a060020a0316848281518110151561296f57fe5b90602001906020020151600160a060020a03161415612991576001915061299e565b60010161294e565b600091505b5092915050565b6000806129b18861306b565b6129ba8461308f565b6129c3836130b3565b8463ffffffff14806129e357508460405a603f028115156129e057fe5b04115b15156129ee57600080fd5b86600160a060020a0316858760405180828051906020019080838360005b83811015612a24578181015183820152602001612a0c565b50505050905090810190601f168015612a515780820380516001836020036101000a031916815260200191505b5091505060006040518083038160008787f1925050509050612a72816130d7565b612a7c600061306b565b612a86600061308f565b612a9060006130b3565b979650505050505050565b80600460008460405160200180807f6d65737361676543616c6c53746174757300000000000000000000000000000081525060110182600019166000191681526020019150506040516020818303038152906040526040518082805190602001908083836020831061254c5780518252601f19909201916020918201910161252d565b806040518082805190602001908083835b60208310612b4e5780518252601f199092019160209182019101612b2f565b51815160209384036101000a6000190180199092169116179052604080519290940182900382207f6661696c65644d657373616765446174614861736800000000000000000000008383015260358084018a905285518085039091018152605590930194859052825190965060009550859492935082918401908083835b60208310612beb5780518252601f199092019160209182019101612bcc565b51815160209384036101000a60001901801990921691161790526040805192909401829003909120865285019590955292909201600020939093555050505050565b80600260008460405160200180807f6661696c65644d6573736167655265636569766572000000000000000000000081525060150182600019166000191681526020019150506040516020818303038152906040526040518082805190602001908083835b60208310612cb15780518252601f199092019160209182019101612c92565b51815160209384036101000a60001901801990921691161790526040805192909401829003909120865285019590955292909201600020805473ffffffffffffffffffffffffffffffffffffffff1916600160a060020a0395909516949094179093555050505050565b80600260008460405160200180807f6661696c65644d65737361676553656e64657200000000000000000000000000815250601301826000191660001916815260200191505060405160208183030381529060405260405180828051906020019080838360208310612cb15780518252601f199092019160209182019101612c92565b60408051821515815290518391600160a060020a0380871692908816917f27333edb8bdcd40a0ae944fb121b5e2d62ea782683946654a0f5e607a908d578919081900360200190a450505050565b60006060600080600080612dfe610855565b9350612e0861312e565b9250612e126112fd565b9150612e1c61317c565b9050612e27846131ca565b95508083604f01016040519080825280601f01601f191660200182016040528015612e5c578160200160208202803883390190505b50945084518501828152848282035287604f87015281604e87015283604d87015288604c8701528960488701523360348701528660208701525050505050935093915050565b604080516020808252835181830152835185937f482515ce3d9494a37ce83f18b72b363449458435fafdd7a53ddea7460fe01b589386939092839283019185019080838360005b83811015612f01578181015183820152602001612ee9565b50505050905090810190601f168015612f2e5780820380516001836020036101000a031916815260200191505b509250505060405180910390a25050565b606890565b60606000808281851515612f8d5760408051808201909152600181527f300000000000000000000000000000000000000000000000000000000000000060208201529450613062565b8593505b8315612fa857600190920191600a84049350612f91565b826040519080825280601f01601f191660200182016040528015612fd6578160200160208202803883390190505b5091505060001982015b851561305e5781516000198201917f01000000000000000000000000000000000000000000000000000000000000006030600a8a06010291849190811061302357fe5b9060200101907effffffffffffffffffffffffffffffffffffffffffffffffffffffffffffff1916908160001a905350600a86049550612fe0565b8194505b50505050919050565b7f7b58b2a669d8e0992eae9eaef641092c0f686fd31070e7236865557fa1571b5b55565b7fe34bb2103dc34f2c144cc216c132d6ffb55dac57575c22e089161bbe6508330455565b7f7f0fcd9e49860f055dd0c1682d635d309ecb5e3011654c716d9eb59a7ddec7d255565b808061312357506000357bffffffffffffffffffffffffffffffffffffffffffffffffffffffff19167f3f7658fd00000000000000000000000000000000000000000000000000000000145b15156112fa57600080fd5b7fe504ae1fd6471eea80f18b8532a61a9bb91fba4f5b837f80a1cfb6752350af4460009081526020527f2f30286a16f86ee067618e1a246990e40c07b7749418a6dd3133f9cfb7e814cc5490565b7ffb792ae4ad11102b93f26a51b3749c2b3667f8b561566a4806d498969281159460009081526020527f7b62b32ff48350e85ce95b571fde6f8b1096bc44a26db769ad6d0b3a26bf1c6d5490565b60008060006131d76132cd565b91506131e58260010161331b565b6040805160208082018790526c0100000000000000000000000030028284015282516034818403018152605490920192839052815191929182918401908083835b602083106132455780518252601f199092019160209182019101613226565b5181516000196020949094036101000a93909301928316921916919091179052604051920182900390912067ffffffffffffffff86167bffffffffffffffffffffffffffffffffffffffff00000000000000009091169081177e0500000000000000000000000000000000000000000000000000000000000017965093505050505050919050565b7f7ab1577440dd7bedf920cb6de2f9fc6bf7ba98c78c85a3fa1f8311aac95e175960009081526020527fa9b0f75b23e377b9b22d27feaca5d8a12329c0049ebce1dc695b905f3aa4cd005490565b7f7ab1577440dd7bedf920cb6de2f9fc6bf7ba98c78c85a3fa1f8311aac95e1759600090815260205267ffffffffffffffff167fa9b0f75b23e377b9b22d27feaca5d8a12329c0049ebce1dc695b905f3aa4cd0055565b604080518082018252906002908290803883395091929150505600a165627a7a7230582034e2f310778fbe08a90aa374fda19391bab66d771621fabc53ea88619fa53aad0029",
  "source": "pragma solidity 0.4.24;\n\nimport \"./ForeignAMB.sol\";\nimport \"../GasTokenConnector.sol\";\n\ncontract ForeignAMBWithGasToken is ForeignAMB, GasTokenConnector {\n    function requireToPassMessage(address _contract, bytes _data, uint256 _gas) public returns (bytes32 messageId) {\n        messageId = super.requireToPassMessage(_contract, _data, _gas);\n        _collectGasTokens();\n    }\n}\n",
  "sourcePath": "/Users/eabz/Documents/GitHub/tokenbridge/packages/poanetwork/contracts/upgradeable_contracts/arbitrary_message/ForeignAMBWithGasToken.sol",
  "compiler": {
    "name": "solc",
    "version": "0.4.24+commit.e67f0147.Emscripten.clang"
  },
  "schemaVersion": "3.4.3",
  "updatedAt": "2021-09-04T01:08:19.349Z",
  "devdoc": {
    "methods": {
      "allowReentrantRequests()": {
        "return": "true, if reentrant requests are allowed."
      },
      "decimalShift()": {
        "details": "Returns the value of foreign-to-home decimal shift.",
        "return": "decimal shift."
      },
      "destinationChainId()": {
        "return": "chain id for the destination network"
      },
      "executeSignatures(bytes,bytes)": {
        "details": "Validates provided signatures and relays a given message",
        "params": {
          "_data": "bytes to be relayed",
          "_signatures": "bytes blob with signatures to be validated"
        }
      },
      "failedMessageDataHash(bytes32)": {
        "details": "Returns a data hash of the failed message that came from the other side. NOTE: dataHash was used previously to identify outgoing message before AMB message id was introduced. It is kept for backwards compatibility with old mediators contracts.",
        "params": {
          "_messageId": "id of the message from the other side that triggered a call."
        },
        "return": "keccak256 hash of message data."
      },
      "failedMessageReceiver(bytes32)": {
        "details": "Returns a receiver address of the failed message that came from the other side.",
        "params": {
          "_messageId": "id of the message from the other side that triggered a call."
        },
        "return": "receiver address."
      },
      "failedMessageSender(bytes32)": {
        "details": "Returns a sender address of the failed message that came from the other side.",
        "params": {
          "_messageId": "id of the message from the other side that triggered a call."
        },
        "return": "sender address on the other side."
      },
      "gasToken()": {
        "return": "GST2 contract address in ethereum Mainnet"
      },
      "gasTokenReceiver()": {
        "return": "Configured gas token receiver"
      },
      "gasTokenTargetMintValue()": {
        "return": "Configured gas token target mint value"
      },
      "getBridgeInterfacesVersion()": {
        "return": "(major, minor, patch) version triple"
      },
      "getMinimumGasUsage(bytes)": {
        "details": "Returns a lower limit on gas limit for the particular message data",
        "params": {
          "_data": "calldata passed to the executor on the other side"
        }
      },
      "initialize(uint256,uint256,address,uint256,uint256,uint256,address)": {
        "params": {
          "_destinationChainId": "chain id of a network where all outgoing messages are directed",
          "_gasPrice": "default gas price used by oracles for sending transactions in this network",
          "_maxGasPerTx": "maximum amount of gas per one message execution",
          "_owner": "address of new bridge owner",
          "_requiredBlockConfirmations": "number of block confirmations oracle will wait before processing passed messages",
          "_sourceChainId": "chain id of a network where this contract is deployed",
          "_validatorContract": "address of the validators contract"
        }
      },
      "messageCallStatus(bytes32)": {
        "details": "Returns a status of the message that came from the other side.",
        "params": {
          "_messageId": "id of the message from the other side that triggered a call."
        },
        "return": "true if call executed successfully."
      },
      "messageId()": {
        "details": "Returns an id of the currently processed message.",
        "return": "id of the message that originated on the other side."
      },
      "messageSender()": {
        "details": "Returns an address of the sender on the other side for the currently processed message. Can be used by executors for getting other side caller address.",
        "return": "address of the sender on the other side."
      },
      "messageSourceChainId()": {
        "details": "Returns an originating chain id of the currently processed message.",
        "return": "source chain id of the message that originated on the other side."
      },
      "owner()": {
        "details": "Tells the address of the owner",
        "return": "the address of the owner"
      },
      "safeExecuteSignatures(bytes,bytes)": {
        "details": "Validates provided signatures and relays a given message. The message is not allowed to fail. The whole tx will be revered if message fails.",
        "params": {
          "_data": "bytes to be relayed",
          "_signatures": "bytes blob with signatures to be validated"
        }
      },
      "safeExecuteSignaturesWithAutoGasLimit(bytes,bytes)": {
        "details": "Validates provided signatures and relays a given message. Passes all available gas for the execution. The message is not allowed to fail. The whole tx will be revered if message fails.",
        "params": {
          "_data": "bytes to be relayed",
          "_signatures": "bytes blob with signatures to be validated"
        }
      },
      "safeExecuteSignaturesWithGasLimit(bytes,bytes,uint32)": {
        "details": "Validates provided signatures and relays a given message. Allows to override the gas limit of the passed message. Usually it makes sense to provide a higher amount of gas for the execution. The message is not allowed to fail. The whole tx will be revered if message fails.",
        "params": {
          "_data": "bytes to be relayed",
          "_signatures": "bytes blob with signatures to be validated"
        }
      },
      "setAllowReentrantRequests(bool)": {
        "params": {
          "_enable": "true, if reentrant requests are allowed."
        }
      },
      "setChainIds(uint256,uint256)": {
        "params": {
          "_destinationChainId": "chain id for opposite network",
          "_sourceChainId": "chain id for current network"
        }
      },
      "setGasPrice(uint256)": {
        "details": "Public setter for fallback gas price value. Only bridge owner can call this method.",
        "params": {
          "_gasPrice": "new value for the gas price."
        }
      },
      "setGasTokenParameters(uint256,address)": {
        "details": "Updates gas token related parameters, target mint value and token receiver",
        "params": {
          "_receiver": "receiver of minted gas token",
          "_targetMintValue": "target amount of token to mint/transfer during one call to _collectGasTokens"
        }
      },
      "setGasTokenReceiver(address)": {
        "details": "Updates gas token receiver",
        "params": {
          "_receiver": "receiver of minted gas token"
        }
      },
      "setGasTokenTargetMintValue(uint256)": {
        "details": "Updates gas token target mint value",
        "params": {
          "_targetMintValue": "target amount of token to mint/transfer during one call to _collectGasTokens"
        }
      },
      "sourceChainId()": {
        "return": "chain id for the current network"
      },
      "transactionHash()": {
        "details": "Returns an id of the currently processed message. NOTE: transactionHash was used previously to identify incoming message before AMB message id was introduced. It is kept for backwards compatibility with old mediators contracts, although it doesn't return txHash anymore.",
        "return": "id of the message that originated on the other side."
      },
      "transferOwnership(address)": {
        "details": "Allows the current owner to transfer control of the contract to a newOwner.",
        "params": {
          "newOwner": "the address to transfer ownership to."
        }
      }
    }
  },
  "userdoc": {
    "methods": {
      "allowReentrantRequests()": {
        "notice": "Tells if passing reentrant requests is allowed."
      },
      "destinationChainId()": {
        "notice": "Internal function for retrieving chain id for the destination network"
      },
      "getBridgeInterfacesVersion()": {
        "notice": "Returns currently used bridge version"
      },
      "initialize(uint256,uint256,address,uint256,uint256,uint256,address)": {
        "notice": "Initializes AMB contract"
      },
      "setAllowReentrantRequests(bool)": {
        "notice": "Sets the flag to allow passing new AMB requests in the opposite direction, while other AMB message is being processed. Only owner can call this method."
      },
      "setChainIds(uint256,uint256)": {
        "notice": "Updates chain ids of used networks"
      },
      "sourceChainId()": {
        "notice": "Internal function for retrieving chain id for the source network"
      }
    }
  }
}