{
  "contractName": "HomeAMB",
  "abi": [
    {
      "constant": true,
      "inputs": [],
      "name": "transactionHash",
      "outputs": [
        {
          "name": "",
          "type": "bytes32"
        }
      ],
      "payable": false,
      "stateMutability": "view",
      "type": "function"
    },
    {
      "constant": true,
      "inputs": [
        {
          "name": "_message",
          "type": "bytes32"
        }
      ],
      "name": "numMessagesSigned",
      "outputs": [
        {
          "name": "",
          "type": "uint256"
        }
      ],
      "payable": false,
      "stateMutability": "view",
      "type": "function"
    },
    {
      "constant": false,
      "inputs": [
        {
          "name": "_messageId",
          "type": "bytes32"
        },
        {
          "name": "_status",
          "type": "bool"
        },
        {
          "name": "_result",
          "type": "bytes"
        }
      ],
      "name": "confirmInformation",
      "outputs": [],
      "payable": false,
      "stateMutability": "nonpayable",
      "type": "function"
    },
    {
      "constant": true,
      "inputs": [],
      "name": "sourceChainId",
      "outputs": [
        {
          "name": "",
          "type": "uint256"
        }
      ],
      "payable": false,
      "stateMutability": "view",
      "type": "function"
    },
    {
      "constant": true,
      "inputs": [
        {
          "name": "_hash",
          "type": "bytes32"
        },
        {
          "name": "_index",
          "type": "uint256"
        }
      ],
      "name": "signature",
      "outputs": [
        {
          "name": "",
          "type": "bytes"
        }
      ],
      "payable": false,
      "stateMutability": "view",
      "type": "function"
    },
    {
      "constant": false,
      "inputs": [
        {
          "name": "_sourceChainId",
          "type": "uint256"
        },
        {
          "name": "_destinationChainId",
          "type": "uint256"
        },
        {
          "name": "_validatorContract",
          "type": "address"
        },
        {
          "name": "_maxGasPerTx",
          "type": "uint256"
        },
        {
          "name": "_gasPrice",
          "type": "uint256"
        },
        {
          "name": "_requiredBlockConfirmations",
          "type": "uint256"
        },
        {
          "name": "_owner",
          "type": "address"
        }
      ],
      "name": "initialize",
      "outputs": [
        {
          "name": "",
          "type": "bool"
        }
      ],
      "payable": false,
      "stateMutability": "nonpayable",
      "type": "function"
    },
    {
      "constant": true,
      "inputs": [],
      "name": "isInitialized",
      "outputs": [
        {
          "name": "",
          "type": "bool"
        }
      ],
      "payable": false,
      "stateMutability": "view",
      "type": "function"
    },
    {
      "constant": true,
      "inputs": [],
      "name": "requiredBlockConfirmations",
      "outputs": [
        {
          "name": "",
          "type": "uint256"
        }
      ],
      "payable": false,
      "stateMutability": "view",
      "type": "function"
    },
    {
      "constant": true,
      "inputs": [
        {
          "name": "_data",
          "type": "bytes"
        }
      ],
      "name": "getMinimumGasUsage",
      "outputs": [
        {
          "name": "gas",
          "type": "uint256"
        }
      ],
      "payable": false,
      "stateMutability": "pure",
      "type": "function"
    },
    {
      "constant": true,
      "inputs": [
        {
          "name": "_messageId",
          "type": "bytes32"
        }
      ],
      "name": "failedMessageReceiver",
      "outputs": [
        {
          "name": "",
          "type": "address"
        }
      ],
      "payable": false,
      "stateMutability": "view",
      "type": "function"
    },
    {
      "constant": true,
      "inputs": [],
      "name": "getBridgeMode",
      "outputs": [
        {
          "name": "_data",
          "type": "bytes4"
        }
      ],
      "payable": false,
      "stateMutability": "pure",
      "type": "function"
    },
    {
      "constant": false,
      "inputs": [
        {
          "name": "_sourceChainId",
          "type": "uint256"
        },
        {
          "name": "_destinationChainId",
          "type": "uint256"
        }
      ],
      "name": "setChainIds",
      "outputs": [],
      "payable": false,
      "stateMutability": "nonpayable",
      "type": "function"
    },
    {
      "constant": true,
      "inputs": [
        {
          "name": "_hash",
          "type": "bytes32"
        }
      ],
      "name": "message",
      "outputs": [
        {
          "name": "",
          "type": "bytes"
        }
      ],
      "payable": false,
      "stateMutability": "view",
      "type": "function"
    },
    {
      "constant": true,
      "inputs": [
        {
          "name": "_messageId",
          "type": "bytes32"
        }
      ],
      "name": "failedMessageSender",
      "outputs": [
        {
          "name": "",
          "type": "address"
        }
      ],
      "payable": false,
      "stateMutability": "view",
      "type": "function"
    },
    {
      "constant": true,
      "inputs": [],
      "name": "allowReentrantRequests",
      "outputs": [
        {
          "name": "",
          "type": "bool"
        }
      ],
      "payable": false,
      "stateMutability": "view",
      "type": "function"
    },
    {
      "constant": false,
      "inputs": [
        {
          "name": "_requestSelector",
          "type": "bytes32"
        },
        {
          "name": "_data",
          "type": "bytes"
        }
      ],
      "name": "requireToGetInformation",
      "outputs": [
        {
          "name": "",
          "type": "bytes32"
        }
      ],
      "payable": false,
      "stateMutability": "nonpayable",
      "type": "function"
    },
    {
      "constant": false,
      "inputs": [
        {
          "name": "signature",
          "type": "bytes"
        },
        {
          "name": "message",
          "type": "bytes"
        }
      ],
      "name": "submitSignature",
      "outputs": [],
      "payable": false,
      "stateMutability": "nonpayable",
      "type": "function"
    },
    {
      "constant": true,
      "inputs": [],
      "name": "messageId",
      "outputs": [
        {
          "name": "id",
          "type": "bytes32"
        }
      ],
      "payable": false,
      "stateMutability": "view",
      "type": "function"
    },
    {
      "constant": true,
      "inputs": [
        {
          "name": "_hash",
          "type": "bytes32"
        }
      ],
      "name": "numAffirmationsSigned",
      "outputs": [
        {
          "name": "",
          "type": "uint256"
        }
      ],
      "payable": false,
      "stateMutability": "view",
      "type": "function"
    },
    {
      "constant": true,
      "inputs": [
        {
          "name": "_hash",
          "type": "bytes32"
        }
      ],
      "name": "affirmationsSigned",
      "outputs": [
        {
          "name": "",
          "type": "bool"
        }
      ],
      "payable": false,
      "stateMutability": "view",
      "type": "function"
    },
    {
      "constant": false,
      "inputs": [
        {
          "name": "_maxGasPerTx",
          "type": "uint256"
        }
      ],
      "name": "setMaxGasPerTx",
      "outputs": [],
      "payable": false,
      "stateMutability": "nonpayable",
      "type": "function"
    },
    {
      "constant": true,
      "inputs": [],
      "name": "requiredSignatures",
      "outputs": [
        {
          "name": "",
          "type": "uint256"
        }
      ],
      "payable": false,
      "stateMutability": "view",
      "type": "function"
    },
    {
      "constant": true,
      "inputs": [],
      "name": "owner",
      "outputs": [
        {
          "name": "",
          "type": "address"
        }
      ],
      "payable": false,
      "stateMutability": "view",
      "type": "function"
    },
    {
      "constant": true,
      "inputs": [
        {
          "name": "_message",
          "type": "bytes32"
        }
      ],
      "name": "messagesSigned",
      "outputs": [
        {
          "name": "",
          "type": "bool"
        }
      ],
      "payable": false,
      "stateMutability": "view",
      "type": "function"
    },
    {
      "constant": false,
      "inputs": [
        {
          "name": "_contract",
          "type": "address"
        },
        {
          "name": "_data",
          "type": "bytes"
        },
        {
          "name": "_gas",
          "type": "uint256"
        }
      ],
      "name": "requireToConfirmMessage",
      "outputs": [
        {
          "name": "",
          "type": "bytes32"
        }
      ],
      "payable": false,
      "stateMutability": "nonpayable",
      "type": "function"
    },
    {
      "constant": true,
      "inputs": [],
      "name": "validatorContract",
      "outputs": [
        {
          "name": "",
          "type": "address"
        }
      ],
      "payable": false,
      "stateMutability": "view",
      "type": "function"
    },
    {
      "constant": true,
      "inputs": [],
      "name": "deployedAtBlock",
      "outputs": [
        {
          "name": "",
          "type": "uint256"
        }
      ],
      "payable": false,
      "stateMutability": "view",
      "type": "function"
    },
    {
      "constant": true,
      "inputs": [],
      "name": "getBridgeInterfacesVersion",
      "outputs": [
        {
          "name": "major",
          "type": "uint64"
        },
        {
          "name": "minor",
          "type": "uint64"
        },
        {
          "name": "patch",
          "type": "uint64"
        }
      ],
      "payable": false,
      "stateMutability": "pure",
      "type": "function"
    },
    {
      "constant": true,
      "inputs": [],
      "name": "messageSourceChainId",
      "outputs": [
        {
          "name": "id",
          "type": "uint256"
        }
      ],
      "payable": false,
      "stateMutability": "view",
      "type": "function"
    },
    {
      "constant": false,
      "inputs": [
        {
          "name": "_blockConfirmations",
          "type": "uint256"
        }
      ],
      "name": "setRequiredBlockConfirmations",
      "outputs": [],
      "payable": false,
      "stateMutability": "nonpayable",
      "type": "function"
    },
    {
      "constant": true,
      "inputs": [],
      "name": "destinationChainId",
      "outputs": [
        {
          "name": "",
          "type": "uint256"
        }
      ],
      "payable": false,
      "stateMutability": "view",
      "type": "function"
    },
    {
      "constant": false,
      "inputs": [
        {
          "name": "_gasPrice",
          "type": "uint256"
        }
      ],
      "name": "setGasPrice",
      "outputs": [],
      "payable": false,
      "stateMutability": "nonpayable",
      "type": "function"
    },
    {
      "constant": false,
      "inputs": [
        {
          "name": "_enable",
          "type": "bool"
        }
      ],
      "name": "setAllowReentrantRequests",
      "outputs": [],
      "payable": false,
      "stateMutability": "nonpayable",
      "type": "function"
    },
    {
      "constant": false,
      "inputs": [
        {
          "name": "_requestSelector",
          "type": "bytes32"
        },
        {
          "name": "_enable",
          "type": "bool"
        }
      ],
      "name": "enableAsyncRequestSelector",
      "outputs": [],
      "payable": false,
      "stateMutability": "nonpayable",
      "type": "function"
    },
    {
      "constant": true,
      "inputs": [
        {
          "name": "_messageId",
          "type": "bytes32"
        }
      ],
      "name": "messageCallStatus",
      "outputs": [
        {
          "name": "",
          "type": "bool"
        }
      ],
      "payable": false,
      "stateMutability": "view",
      "type": "function"
    },
    {
      "constant": true,
      "inputs": [],
      "name": "messageSender",
      "outputs": [
        {
          "name": "sender",
          "type": "address"
        }
      ],
      "payable": false,
      "stateMutability": "view",
      "type": "function"
    },
    {
      "constant": true,
      "inputs": [],
      "name": "decimalShift",
      "outputs": [
        {
          "name": "",
          "type": "int256"
        }
      ],
      "payable": false,
      "stateMutability": "view",
      "type": "function"
    },
    {
      "constant": false,
      "inputs": [
        {
          "name": "_contract",
          "type": "address"
        },
        {
          "name": "_data",
          "type": "bytes"
        },
        {
          "name": "_gas",
          "type": "uint256"
        }
      ],
      "name": "requireToPassMessage",
      "outputs": [
        {
          "name": "",
          "type": "bytes32"
        }
      ],
      "payable": false,
      "stateMutability": "nonpayable",
      "type": "function"
    },
    {
      "constant": true,
      "inputs": [
        {
          "name": "_messageId",
          "type": "bytes32"
        }
      ],
      "name": "failedMessageDataHash",
      "outputs": [
        {
          "name": "",
          "type": "bytes32"
        }
      ],
      "payable": false,
      "stateMutability": "view",
      "type": "function"
    },
    {
      "constant": true,
      "inputs": [],
      "name": "maxGasPerTx",
      "outputs": [
        {
          "name": "",
          "type": "uint256"
        }
      ],
      "payable": false,
      "stateMutability": "view",
      "type": "function"
    },
    {
      "constant": false,
      "inputs": [
        {
          "name": "message",
          "type": "bytes"
        }
      ],
      "name": "executeAffirmation",
      "outputs": [],
      "payable": false,
      "stateMutability": "nonpayable",
      "type": "function"
    },
    {
      "constant": false,
      "inputs": [
        {
          "name": "newOwner",
          "type": "address"
        }
      ],
      "name": "transferOwnership",
      "outputs": [],
      "payable": false,
      "stateMutability": "nonpayable",
      "type": "function"
    },
    {
      "constant": true,
      "inputs": [
        {
          "name": "_requestSelector",
          "type": "bytes32"
        }
      ],
      "name": "isAsyncRequestSelectorEnabled",
      "outputs": [
        {
          "name": "",
          "type": "bool"
        }
      ],
      "payable": false,
      "stateMutability": "view",
      "type": "function"
    },
    {
      "constant": true,
      "inputs": [],
      "name": "gasPrice",
      "outputs": [
        {
          "name": "",
          "type": "uint256"
        }
      ],
      "payable": false,
      "stateMutability": "view",
      "type": "function"
    },
    {
      "constant": true,
      "inputs": [
        {
          "name": "_number",
          "type": "uint256"
        }
      ],
      "name": "isAlreadyProcessed",
      "outputs": [
        {
          "name": "",
          "type": "bool"
        }
      ],
      "payable": false,
      "stateMutability": "pure",
      "type": "function"
    },
    {
      "anonymous": false,
      "inputs": [
        {
          "indexed": true,
          "name": "messageId",
          "type": "bytes32"
        },
        {
          "indexed": false,
          "name": "encodedData",
          "type": "bytes"
        }
      ],
      "name": "UserRequestForSignature",
      "type": "event"
    },
    {
      "anonymous": false,
      "inputs": [
        {
          "indexed": true,
          "name": "sender",
          "type": "address"
        },
        {
          "indexed": true,
          "name": "executor",
          "type": "address"
        },
        {
          "indexed": true,
          "name": "messageId",
          "type": "bytes32"
        },
        {
          "indexed": false,
          "name": "status",
          "type": "bool"
        }
      ],
      "name": "AffirmationCompleted",
      "type": "event"
    },
    {
      "anonymous": false,
      "inputs": [
        {
          "indexed": true,
          "name": "messageId",
          "type": "bytes32"
        },
        {
          "indexed": true,
          "name": "requestSelector",
          "type": "bytes32"
        },
        {
          "indexed": true,
          "name": "sender",
          "type": "address"
        },
        {
          "indexed": false,
          "name": "data",
          "type": "bytes"
        }
      ],
      "name": "UserRequestForInformation",
      "type": "event"
    },
    {
      "anonymous": false,
      "inputs": [
        {
          "indexed": true,
          "name": "signer",
          "type": "address"
        },
        {
          "indexed": true,
          "name": "messageId",
          "type": "bytes32"
        }
      ],
      "name": "SignedForInformation",
      "type": "event"
    },
    {
      "anonymous": false,
      "inputs": [
        {
          "indexed": true,
          "name": "messageId",
          "type": "bytes32"
        },
        {
          "indexed": false,
          "name": "status",
          "type": "bool"
        },
        {
          "indexed": false,
          "name": "callbackStatus",
          "type": "bool"
        }
      ],
      "name": "InformationRetrieved",
      "type": "event"
    },
    {
      "anonymous": false,
      "inputs": [
        {
          "indexed": true,
          "name": "requestSelector",
          "type": "bytes32"
        },
        {
          "indexed": false,
          "name": "enable",
          "type": "bool"
        }
      ],
      "name": "EnabledAsyncRequestSelector",
      "type": "event"
    },
    {
      "anonymous": false,
      "inputs": [
        {
          "indexed": true,
          "name": "signer",
          "type": "address"
        },
        {
          "indexed": false,
          "name": "messageHash",
          "type": "bytes32"
        }
      ],
      "name": "SignedForUserRequest",
      "type": "event"
    },
    {
      "anonymous": false,
      "inputs": [
        {
          "indexed": true,
          "name": "signer",
          "type": "address"
        },
        {
          "indexed": false,
          "name": "messageHash",
          "type": "bytes32"
        }
      ],
      "name": "SignedForAffirmation",
      "type": "event"
    },
    {
      "anonymous": false,
      "inputs": [
        {
          "indexed": false,
          "name": "authorityResponsibleForRelay",
          "type": "address"
        },
        {
          "indexed": false,
          "name": "messageHash",
          "type": "bytes32"
        },
        {
          "indexed": false,
          "name": "NumberOfCollectedSignatures",
          "type": "uint256"
        }
      ],
      "name": "CollectedSignatures",
      "type": "event"
    },
    {
      "anonymous": false,
      "inputs": [
        {
          "indexed": false,
          "name": "gasPrice",
          "type": "uint256"
        }
      ],
      "name": "GasPriceChanged",
      "type": "event"
    },
    {
      "anonymous": false,
      "inputs": [
        {
          "indexed": false,
          "name": "requiredBlockConfirmations",
          "type": "uint256"
        }
      ],
      "name": "RequiredBlockConfirmationChanged",
      "type": "event"
    },
    {
      "anonymous": false,
      "inputs": [
        {
          "indexed": false,
          "name": "previousOwner",
          "type": "address"
        },
        {
          "indexed": false,
          "name": "newOwner",
          "type": "address"
        }
      ],
      "name": "OwnershipTransferred",
      "type": "event"
    }
  ],
  "bytecode": "0x608060405234801561001057600080fd5b506140c0806100206000396000f30060806040526004361061020b5763ffffffff60e060020a6000350416630ac1c31381146102105780630cbf0601146102375780630f08d4d01461024f5780631544298e1461027b5780631812d9961461029057806325fbf4ee14610320578063392e53cd1461036d5780633f0a9f65146103825780633f768c06146103975780633f9a8e7e146103f0578063437764df14610424578063467ad35a1461046b578063490a32c6146104865780634a610b041461049e5780634d4cb7a2146104b6578063525ea937146104cb578063630cea8e146104ef578063669f618b1461051b5780636ae1a976146105305780637698da24146105485780637bac29c7146105605780638d068043146105785780638da5cb5b1461058d5780638f4b4b98146105a257806394643f71146105ba57806399439089146105ea5780639a454b99146105ff5780639cb7595a146106145780639e307dff14610655578063acf5c6891461066a578063b075061114610682578063bf1fe42014610697578063c2231ad2146106af578063c29b1e8a146106c9578063cb08a10c146106e6578063d67bdd25146106fe578063dae5f0fd14610713578063dc8601b314610728578063e37c328914610791578063e5789d03146107a9578063e7a2c01f146107be578063f2fde38b146107de578063fb67e779146107ff578063fe173b9714610817578063ffd19e8c1461082c575b600080fd5b34801561021c57600080fd5b50610225610844565b60408051918252519081900360200190f35b34801561024357600080fd5b50610225600435610854565b34801561025b57600080fd5b50610279600480359060248035151591604435918201910135610919565b005b34801561028757600080fd5b50610225610d4d565b34801561029c57600080fd5b506102ab600435602435610d9b565b6040805160208082528351818301528351919283929083019185019080838360005b838110156102e55781810151838201526020016102cd565b50505050905090810190601f1680156103125780820380516001836020036101000a031916815260200191505b509250505060405180910390f35b34801561032c57600080fd5b50610359600435602435600160a060020a03604435811690606435906084359060a4359060c43516610f78565b604080519115158252519081900360200190f35b34801561037957600080fd5b506103596111ec565b34801561038e57600080fd5b5061022561123d565b3480156103a357600080fd5b506040805160206004803580820135601f810184900484028501840190955284845261022594369492936024939284019190819084018382808284375094975061128b9650505050505050565b3480156103fc57600080fd5b506104086004356112a7565b60408051600160a060020a039092168252519081900360200190f35b34801561043057600080fd5b50610439611376565b604080517bffffffffffffffffffffffffffffffffffffffffffffffffffffffff199092168252519081900360200190f35b34801561047757600080fd5b5061027960043560243561139a565b34801561049257600080fd5b506102ab6004356113c4565b3480156104aa57600080fd5b506104086004356113cf565b3480156104c257600080fd5b50610359611453565b3480156104d757600080fd5b506102256004803590602480359081019101356114a4565b3480156104fb57600080fd5b50610279602460048035828101929082013591813591820191013561156c565b34801561052757600080fd5b50610225611998565b34801561053c57600080fd5b506102256004356119bd565b34801561055457600080fd5b50610359600435611a40565b34801561056c57600080fd5b50610279600435611b09565b34801561058457600080fd5b50610225611b72565b34801561059957600080fd5b50610408611bea565b3480156105ae57600080fd5b50610359600435611c41565b3480156105c657600080fd5b5061022560048035600160a060020a03169060248035908101910135604435611cc5565b3480156105f657600080fd5b50610408611d0f565b34801561060b57600080fd5b50610225611d66565b34801561062057600080fd5b50610629611db4565b6040805167ffffffffffffffff9485168152928416602084015292168183015290519081900360600190f35b34801561066157600080fd5b50610225611dbf565b34801561067657600080fd5b50610279600435611de4565b34801561068e57600080fd5b50610225611e0c565b3480156106a357600080fd5b50610279600435611e5a565b3480156106bb57600080fd5b506102796004351515611e7f565b3480156106d557600080fd5b506102796004356024351515611ef6565b3480156106f257600080fd5b5061035960043561201a565b34801561070a57600080fd5b5061040861209e565b34801561071f57600080fd5b506102256120c3565b34801561073457600080fd5b5060408051602060046024803582810135601f8101859004850286018501909652858552610225958335600160a060020a031695369560449491939091019190819084018382808284375094975050933594506121119350505050565b34801561079d57600080fd5b50610225600435612128565b3480156107b557600080fd5b506102256121ab565b3480156107ca57600080fd5b5061027960048035602481019101356121f9565b3480156107ea57600080fd5b50610279600160a060020a0360043516612480565b34801561080b57600080fd5b506103596004356124a5565b34801561082357600080fd5b50610225612529565b34801561083857600080fd5b50610359600435612577565b600061084e611998565b90505b90565b60008060008360405160200180807f6e756d4d657373616765735369676e656400000000000000000000000000000081525060110182600019166000191681526020019150506040516020818303038152906040526040518082805190602001908083835b602083106108d85780518252601f1990920191602091820191016108b9565b51815160209384036101000a600019018019909216911617905260408051929094018290039091208652850195909552929092016000205495945050505050565b600080600080606060008061092c611d0f565b600160a060020a031663facd743b336040518263ffffffff1660e060020a0281526004018082600160a060020a0316600160a060020a03168152602001915050602060405180830381600087803b15801561098657600080fd5b505af115801561099a573d6000803e3d6000fd5b505050506040513d60208110156109b057600080fd5b505115156109bd57600080fd5b8a8a8a8a604051602001808560001916600019168152602001841515151560f860020a02815260010183838082843782019150509450505050506040516020818303038152906040526040518082805190602001908083835b60208310610a355780518252601f199092019160209182019101610a16565b51815160209384036101000a600019018019909216911617905260408051929094018290038220336c0100000000000000000000000002838301526034808401829052855180850390910181526054909301948590528251909d509195509293508392850191508083835b60208310610abf5780518252601f199092019160209182019101610aa0565b6001836020036101000a03801982511681845116808217855250505050505090500191505060405180910390209550610af786611a40565b15610b0157600080fd5b610b0c86600161259f565b610b15876119bd565b9450610b2085612577565b15610b2a57600080fd5b846001019450610b3a8786612671565b6040518b9033907fa8430f88dd0556970a712fd927c7d52ff7ed1256e9c8ee3aa291cd3d6eb8205f90600090a3610b6f611b72565b8510610d4057610b8787610b8287612736565b612671565b610b908b61275b565b604051602481018d81528c15156044830152606060648301908152608483018c90529296507ff534de5b00000000000000000000000000000000000000000000000000000000928e928e928e928e9260a401848480828437820191505095505050505050604051602081830303815290604052907bffffffffffffffffffffffffffffffffffffffffffffffffffffffff19166020820180517bffffffffffffffffffffffffffffffffffffffffffffffffffffffff83818316178352505050509250610c5b6121ab565b91508160405a603f02811515610c6d57fe5b0411610c7857600080fd5b83600160a060020a0316828460405180828051906020019080838360005b83811015610cae578181015183820152602001610c96565b50505050905090810190601f168015610cdb5780820380516001836020036101000a031916815260200191505b5091505060006040518083038160008787f19250505090508a600019167f11c068ae71d815e1839c207016edea79bf33158bd1f50d34e79b0c5aaf52367b8b836040518083151515158152602001821515151581526020019250505060405180910390a25b5050505050505050505050565b7f67d6f42a1ed69c62022f2d160ddc6f2f0acd37ad1db0c24f4702d7d3343a4add60009081526020527ff6c66672b1a9fe5622677597b0da8fd180a2c85696efbcf7fe4b1e0f4f0f61085490565b604080516020808201859052818301849052825180830384018152606092830193849052805192936000939192909182918401908083835b60208310610df25780518252601f199092019160209182019101610dd3565b51815160209384036101000a6000190180199092169116179052604080519290940182900382207f7369676e6174757265730000000000000000000000000000000000000000000083830152602a80840182905285518085039091018152604a9093019485905282519097506003965060009550919392508291908401908083835b60208310610e935780518252601f199092019160209182019101610e74565b6001836020036101000a0380198251168184511680821785525050505050509050019150506040518091039020600019166000191681526020019081526020016000208054600181600116156101000203166002900480601f016020809104026020016040519081016040528092919081815260200182805460018160011615610100020316600290048015610f6a5780601f10610f3f57610100808354040283529160200191610f6a565b820191906000526020600020905b815481529060010190602001808311610f4d57829003601f168201915b505050505091505092915050565b60408051600481526024810182526020810180517bffffffffffffffffffffffffffffffffffffffffffffffffffffffff167f6fde8202000000000000000000000000000000000000000000000000000000001781529151815160009330939291829190808383895b83811015610ff9578181015183820152602001610fe1565b50505050905090810190601f1680156110265780820380516001836020036101000a031916815260200191505b509150506000604051808303816000865af191505015806110b8575030600160a060020a0316636fde82026040518163ffffffff1660e060020a028152600401602060405180830381600087803b15801561108057600080fd5b505af1158015611094573d6000803e3d6000fd5b505050506040513d60208110156110aa57600080fd5b5051600160a060020a031633145b806110c257503330145b15156110cd57600080fd5b6110d56111ec565b156110df57600080fd5b6110e886612862565b15156110f357600080fd5b6110fd888861286a565b7fab54f3fbbe62c59b7876a9bf9bd5e0c22dbae93f4d8ee0438f7ce62b198eb0e0805473ffffffffffffffffffffffffffffffffffffffff1916600160a060020a03881617905560006020819052437fe66bef0282a446f9848e2903380099bb6e431483ee78778868f33b4a154c818b557f2670ecc91ec356e32067fd27b36614132d727b84a1e03e08f412a4f2cf07597490527f3d7fe2ee9790702383ef0118b516833ef2542132d3ca4ac6c77f62f1230fa6108590556111be846129ba565b6111c783612a40565b6111d082612ad3565b6111d8612baa565b6111e06111ec565b98975050505050505050565b7f0a6f646cd611241d8073675e00d1a1ff700fbf1b53fcf473de56d1e6e4b714ba60005260046020527f078d888f9b66f3f8bfa10909e31f1e16240db73449f0500afdbbe3a70da457cc5460ff1690565b7f916daedf6915000ff68ced2f0b6773fe6f2582237f92c3c95bb4d7940723007160009081526020527fd2ea0feb732edb0ffe32efd33a6b9d24d46b16eb34a4d07ce256537b6f131e425490565b80516000906112a190601063ffffffff612c0116565b92915050565b6000600260008360405160200180807f6661696c65644d6573736167655265636569766572000000000000000000000081525060150182600019166000191681526020019150506040516020818303038152906040526040518082805190602001908083835b6020831061132c5780518252601f19909201916020918201910161130d565b51815160209384036101000a6000190180199092169116179052604080519290940182900390912086528501959095529290920160002054600160a060020a031695945050505050565b7f2544fbb90000000000000000000000000000000000000000000000000000000090565b6113a2611bea565b600160a060020a031633146113b657600080fd5b6113c0828261286a565b5050565b60606112a182612c2a565b6000600260008360405160200180807f6661696c65644d65737361676553656e6465720000000000000000000000000081525060130182600019166000191681526020019150506040516020818303038152906040526040518082805190602001908083836020831061132c5780518252601f19909201916020918201910161130d565b7fffa3a5a0e192028fc343362a39c5688e5a60819a4dc5ab3ee70c25bc25b78dd660005260046020527f265a43ea29ede07170a30cb6d77d0ab5810eee752b72432f7be348bde74aa08f5460ff1690565b600080806114b0611998565b14806114bf57506114bf611453565b15156114ca57600080fd5b6114d333612862565b15156114de57600080fd5b6114e7856124a5565b15156114f257600080fd5b6115026114fd610d4d565b612d92565b905061150e8133612e95565b60408051602080825281018590523391879184917f72220b25ff596f7113b4015af206e306c4964f58f99f01d3f439dd35575f998f9189918991908190810184848082843760405192018290039550909350505050a4949350505050565b600080600080600061157c611d0f565b600160a060020a031663facd743b336040518263ffffffff1660e060020a0281526004018082600160a060020a0316600160a060020a03168152602001915050602060405180830381600087803b1580156115d657600080fd5b505af11580156115ea573d6000803e3d6000fd5b505050506040513d602081101561160057600080fd5b5051151561160d57600080fd5b61167789898080601f0160208091040260200160405190810160405280939291908181526020018383808284375050604080516020601f8f018190048102820181019092528d815294508d93508c925082915084018382808284375060019450612f839350505050565b600160a060020a0316331461168b57600080fd5b8686604051602001808383808284378201915050925050506040516020818303038152906040526040518082805190602001908083835b602083106116e15780518252601f1990920191602091820191016116c2565b51815160209384036101000a600019018019909216911617905260408051929094018290038220336c0100000000000000000000000002838301526034808401829052855180850390910181526054909301948590528251909b509195509293508392850191508083835b6020831061176b5780518252601f19909201916020918201910161174c565b6001836020036101000a038019825116818451168082178552505050505050905001915050604051809103902093506117a385610854565b92506117ae83612577565b156117b857600080fd5b6001928301928311156117dd576117ce84611c41565b156117d857600080fd5b611817565b6118178588888080601f01602080910402602001604051908101604052809392919081815260200183838082843750613082945050505050565b611822846001613159565b8461183484600163ffffffff6131dc16565b604080516020808201949094528082019290925280518083038201815260609092019081905281519192909182918401908083835b602083106118885780518252601f199092019160209182019101611869565b51815160209384036101000a600019018019909216911617905260408051929094018290038220601f8f018290048202830182019094528d82529296506118e99450869350918d91508c9081908401838280828437506131ee945050505050565b6118f38584613271565b60408051868152905133917fbf06885f40778f5ccfb64497d3f92ce568ddaedb7e2fb4487f72690418cf8e4c919081900360200190a2611931611b72565b905080831061198d5761194c8561194785612736565b613271565b604080513381526020810187905280820183905290517f415557404d88a0c0b8e3b16967cafffc511213fd9c465c16832ee17ed57d72379181900360600190a15b505050505050505050565b7fe34bb2103dc34f2c144cc216c132d6ffb55dac57575c22e089161bbe650833045490565b60008060008360405160200180807f6e756d41666669726d6174696f6e735369676e656400000000000000000000008152506015018260001916600019168152602001915050604051602081830303815290604052604051808280519060200190808383602083106108d85780518252601f1990920191602091820191016108b9565b6000600460008360405160200180807f61666669726d6174696f6e735369676e6564000000000000000000000000000081525060120182600019166000191681526020019150506040516020818303038152906040526040518082805190602001908083835b60208310611ac55780518252601f199092019160209182019101611aa6565b51815160209384036101000a600019018019909216911617905260408051929094018290039091208652850195909552929092016000205460ff1695945050505050565b611b11611bea565b600160a060020a03163314611b2557600080fd5b7f2670ecc91ec356e32067fd27b36614132d727b84a1e03e08f412a4f2cf07597460009081526020527f3d7fe2ee9790702383ef0118b516833ef2542132d3ca4ac6c77f62f1230fa61055565b6000611b7c611d0f565b600160a060020a0316638d0680436040518163ffffffff1660e060020a028152600401602060405180830381600087803b158015611bb957600080fd5b505af1158015611bcd573d6000803e3d6000fd5b505050506040513d6020811015611be357600080fd5b5051905090565b7f02016836a56b71f0d02689e69e326f4f4c1b9057164ef592671cf0d37c8040c060005260026020527fb7802e97e87ef2842a6cce7da7ffaeaedaa2f61a6a7870b23d9d01fc9b73712e54600160a060020a031690565b6000600460008360405160200180807f6d657373616765735369676e6564000000000000000000000000000000000000815250600e01826000191660001916815260200191505060405160208183030381529060405260405180828051906020019080838360208310611ac55780518252601f199092019160209182019101611aa6565b6000611d068585858080601f0160208091040260200160405190810160405280939291908181526020018383808284378201915050505050508460806132f3565b95945050505050565b7f5a74bb7e202fb8e4bf311841c7d64ec19df195fee77d7e7ae749b27921b6ddfe60005260026020527fab54f3fbbe62c59b7876a9bf9bd5e0c22dbae93f4d8ee0438f7ce62b198eb0e054600160a060020a031690565b7fb120ceec05576ad0c710bc6e85f1768535e27554458f05dcbb5c65b8c7a749b060009081526020527fe66bef0282a446f9848e2903380099bb6e431483ee78778868f33b4a154c818b5490565b600660016000909192565b7f7f0fcd9e49860f055dd0c1682d635d309ecb5e3011654c716d9eb59a7ddec7d25490565b611dec611bea565b600160a060020a03163314611e0057600080fd5b611e0981612a40565b50565b7fbbd454018e72a3f6c02bbd785bacc49e46292744f3f6761276723823aa33232060009081526020527f242329173dfc316001df0a0c3d5a8f58a7ffb1a8b7d99c268303b9a741bacdf95490565b611e62611bea565b600160a060020a03163314611e7657600080fd5b611e09816129ba565b611e87611bea565b600160a060020a03163314611e9b57600080fd5b7fffa3a5a0e192028fc343362a39c5688e5a60819a4dc5ab3ee70c25bc25b78dd660005260046020527f265a43ea29ede07170a30cb6d77d0ab5810eee752b72432f7be348bde74aa08f805460ff1916911515919091179055565b611efe611bea565b600160a060020a03163314611f1257600080fd5b80600460008460405160200180807f656e61626c655265717565737453656c6563746f72000000000000000000000081525060150182600019166000191681526020019150506040516020818303038152906040526040518082805190602001908083835b60208310611f965780518252601f199092019160209182019101611f77565b51815160209384036101000a6000190180199092169116179052604080519290940182900390912086528581019690965250928301600020805460ff191695151595909517909455508051841515815290518593507f0c6e335700063e42c344f1ce5a16fdc748318fa807af05984827f33946d93c4e929181900390910190a25050565b6000600460008360405160200180807f6d65737361676543616c6c537461747573000000000000000000000000000000815250601101826000191660001916815260200191505060405160208183030381529060405260405180828051906020019080838360208310611ac55780518252601f199092019160209182019101611aa6565b7f7b58b2a669d8e0992eae9eaef641092c0f686fd31070e7236865557fa1571b5b5490565b7f1e8ecaafaddea96ed9ac6d2642dcdfe1bebe58a930b1085842d8fc122b371ee560009081526020527fd5c78dd9468716ca9bb96be25d56436811b20aab3523a9904b12deef1cab239d5490565b600061212084848460006132f3565b949350505050565b60008060008360405160200180807f6661696c65644d657373616765446174614861736800000000000000000000008152506015018260001916600019168152602001915050604051602081830303815290604052604051808280519060200190808383602083106108d85780518252601f1990920191602091820191016108b9565b7f2670ecc91ec356e32067fd27b36614132d727b84a1e03e08f412a4f2cf07597460009081526020527f3d7fe2ee9790702383ef0118b516833ef2542132d3ca4ac6c77f62f1230fa6105490565b6000806000612206611d0f565b600160a060020a031663facd743b336040518263ffffffff1660e060020a0281526004018082600160a060020a0316600160a060020a03168152602001915050602060405180830381600087803b15801561226057600080fd5b505af1158015612274573d6000803e3d6000fd5b505050506040513d602081101561228a57600080fd5b5051151561229757600080fd5b8484604051602001808383808284378201915050925050506040516020818303038152906040526040518082805190602001908083835b602083106122ed5780518252601f1990920191602091820191016122ce565b51815160209384036101000a600019018019909216911617905260408051929094018290038220336c01000000000000000000000000028383015260348084018290528551808503909101815260549093019485905282519099509195509293508392850191508083835b602083106123775780518252601f199092019160209182019101612358565b6001836020036101000a038019825116818451168082178552505050505050905001915050604051809103902091506123af82611a40565b156123b957600080fd5b6123c482600161259f565b6123cd836119bd565b90506123d881612577565b156123e257600080fd5b6001016123ef8382612671565b60408051848152905133917f5df9cc3eb93d8a9a481857a3b70a8ca966e6b80b25cf0ee2cce180ec5afa80a1919081900360200190a261242d611b72565b81106124795761244083610b8283612736565b61247985858080601f0160208091040260200160405190810160405280939291908181526020018383808284375061341e945050505050565b5050505050565b612488611bea565b600160a060020a0316331461249c57600080fd5b611e0981612ad3565b6000600460008360405160200180807f656e61626c655265717565737453656c6563746f720000000000000000000000815250601501826000191660001916815260200191505060405160208183030381529060405260405180828051906020019080838360208310611ac55780518252601f199092019160209182019101611aa6565b7f55b3774520b5993024893d303890baa4e84b1244a43c60034d1ced2d3cf2b04b60009081526020527ff7d5eefab3776d7f0450bd0193564bcb4f832ce313ff2836c450fc63a4b944195490565b7f80000000000000000000000000000000000000000000000000000000000000009081161490565b80600460008460405160200180807f61666669726d6174696f6e735369676e6564000000000000000000000000000081525060120182600019166000191681526020019150506040516020818303038152906040526040518082805190602001908083835b602083106126235780518252601f199092019160209182019101612604565b51815160209384036101000a60001901801990921691161790526040805192909401829003909120865285019590955292909201600020805460ff1916941515949094179093555050505050565b806000808460405160200180807f6e756d41666669726d6174696f6e735369676e6564000000000000000000000081525060150182600019166000191681526020019150506040516020818303038152906040526040518082805190602001908083835b602083106126f45780518252601f1990920191602091820191016126d5565b51815160209384036101000a60001901801990921691161790526040805192909401829003909120865285019590955292909201600020939093555050505050565b7f80000000000000000000000000000000000000000000000000000000000000001790565b60008060008360405160200180807f6173796e6353656e646572000000000000000000000000000000000000000000815250600b0182600019166000191681526020019150506040516020818303038152906040526040518082805190602001908083835b602083106127df5780518252601f1990920191602091820191016127c0565b51815160209384036101000a60001901801990921691161790526040805192909401829003909120600081815260029092529290205491955050600160a060020a03169250505080151561283257600080fd5b600091825260026020526040909120805473ffffffffffffffffffffffffffffffffffffffff1916905592915050565b6000903b1190565b6000806000806000861180156128805750600085115b151561288b57600080fd5b8585141561289857600080fd5b506000925082915060ff905060015b8315806128b2575082155b156128fa57831580156128c6575085828716145b156128cf578093505b821580156128de575084828616145b156128e7578092505b6101009190910260ff17906001016128a7565b5050600060208190527ff6c66672b1a9fe5622677597b0da8fd180a2c85696efbcf7fe4b1e0f4f0f6108949094557f2f30286a16f86ee067618e1a246990e40c07b7749418a6dd3133f9cfb7e814cc919091557f242329173dfc316001df0a0c3d5a8f58a7ffb1a8b7d99c268303b9a741bacdf9919091557ffb792ae4ad11102b93f26a51b3749c2b3667f8b561566a4806d49896928115949091527f7b62b32ff48350e85ce95b571fde6f8b1096bc44a26db769ad6d0b3a26bf1c6d55565b7f55b3774520b5993024893d303890baa4e84b1244a43c60034d1ced2d3cf2b04b600090815260209081527ff7d5eefab3776d7f0450bd0193564bcb4f832ce313ff2836c450fc63a4b944198290556040805183815290517f52264b89e0fceafb26e79fd49ef8a366eb6297483bf4035b027f0c99a7ad512e929181900390910190a150565b60008111612a4d57600080fd5b7f916daedf6915000ff68ced2f0b6773fe6f2582237f92c3c95bb4d79407230071600090815260209081527fd2ea0feb732edb0ffe32efd33a6b9d24d46b16eb34a4d07ce256537b6f131e428290556040805183815290517f4fb76205cd57c896b21511d2114137d8e901b4ccd659e1a0f97d6306795264fb929181900390910190a150565b600160a060020a0381161515612ae857600080fd5b7f8be0079c531659141344cd1fd0a4f28419497f9722a3daafe3b4186f6b6457e0612b11611bea565b60408051600160a060020a03928316815291841660208301528051918290030190a17f02016836a56b71f0d02689e69e326f4f4c1b9057164ef592671cf0d37c8040c060005260026020527fb7802e97e87ef2842a6cce7da7ffaeaedaa2f61a6a7870b23d9d01fc9b73712e805473ffffffffffffffffffffffffffffffffffffffff1916600160a060020a0392909216919091179055565b7f0a6f646cd611241d8073675e00d1a1ff700fbf1b53fcf473de56d1e6e4b714ba60005260046020527f078d888f9b66f3f8bfa10909e31f1e16240db73449f0500afdbbe3a70da457cc805460ff19166001179055565b6000821515612c12575060006112a1565b50818102818382811515612c2257fe5b04146112a157fe5b6060600360008360405160200180807f6d6573736167657300000000000000000000000000000000000000000000000081525060080182600019166000191681526020019150506040516020818303038152906040526040518082805190602001908083835b60208310612caf5780518252601f199092019160209182019101612c90565b6001836020036101000a0380198251168184511680821785525050505050509050019150506040518091039020600019166000191681526020019081526020016000208054600181600116156101000203166002900480601f016020809104026020016040519081016040528092919081815260200182805460018160011615610100020316600290048015612d865780601f10612d5b57610100808354040283529160200191612d86565b820191906000526020600020905b815481529060010190602001808311612d6957829003601f168201915b50505050509050919050565b6000806000612d9f61349d565b9150612dad826001016134eb565b6040805160208082018790526c0100000000000000000000000030028284015282516034818403018152605490920192839052815191929182918401908083835b60208310612e0d5780518252601f199092019160209182019101612dee565b5181516000196020949094036101000a93909301928316921916919091179052604051920182900390912067ffffffffffffffff86167bffffffffffffffffffffffffffffffffffffffff00000000000000009091169081177e0500000000000000000000000000000000000000000000000000000000000017965093505050505050919050565b80600260008460405160200180807f6173796e6353656e646572000000000000000000000000000000000000000000815250600b0182600019166000191681526020019150506040516020818303038152906040526040518082805190602001908083835b60208310612f195780518252601f199092019160209182019101612efa565b51815160209384036101000a60001901801990921691161790526040805192909401829003909120865285019590955292909201600020805473ffffffffffffffffffffffffffffffffffffffff1916600160a060020a0395909516949094179093555050505050565b60008060008086516041141515612f9957600080fd5b505050602084015160408501516060860151601b60ff60f860020a8304161480612fcc5750601c60ff60f860020a830416145b1515612fd757600080fd5b7f7fffffffffffffffffffffffffffffff5d576e7357a4501ddfe92f46681b20a082111561300457600080fd5b60016130108787613542565b60408051600080825260208083018085529490945260ff60f860020a870416828401526060820188905260808201879052915160a08083019493601f198301938390039091019190865af115801561306c573d6000803e3d6000fd5b5050604051601f19015198975050505050505050565b80600360008460405160200180807f6d6573736167657300000000000000000000000000000000000000000000000081525060080182600019166000191681526020019150506040516020818303038152906040526040518082805190602001908083835b602083106131065780518252601f1990920191602091820191016130e7565b51815160001960209485036101000a01908116901991909116179052604080519490920184900390932086528583019690965250929093016000208451613154959194509201919050613fe1565b505050565b80600460008460405160200180807f6d657373616765735369676e6564000000000000000000000000000000000000815250600e018260001916600019168152602001915050604051602081830303815290604052604051808280519060200190808383602083106126235780518252601f199092019160209182019101612604565b6000828211156131e857fe5b50900390565b80600360008460405160200180807f7369676e61747572657300000000000000000000000000000000000000000000815250600a018260001916600019168152602001915050604051602081830303815290604052604051808280519060200190808383602083106131065780518252601f1990920191602091820191016130e7565b806000808460405160200180807f6e756d4d657373616765735369676e65640000000000000000000000000000008152506011018260001916600019168152602001915050604051602081830303815290604052604051808280519060200190808383602083106126f45780518252601f1990920191602091820191016126d5565b60008060608082613302611998565b14806133115750613311611453565b151561331c57600080fd5b6133258761128b565b861015801561333b57506133376121ab565b8611155b151561334657600080fd5b61335188878761375c565b9250925081876040516020018083805190602001908083835b602083106133895780518252601f19909201916020918201910161336a565b51815160209384036101000a600019018019909216911617905285519190930192850191508083835b602083106133d15780518252601f1990920191602091820191016133b2565b6001836020036101000a0380198251168184511680821785525050505050509050019250505060405160208183030381529060405290506134128382613812565b50909695505050505050565b600080600080600061342e61405f565b6060613439886138af565b959c50939a5091985096509450925090506134538761398f565b151561345e57600080fd5b602082015161346c906139d5565b151561347757600080fd5b61349386868963ffffffff8816878760006020020151876139e7565b5050505050505050565b7f7ab1577440dd7bedf920cb6de2f9fc6bf7ba98c78c85a3fa1f8311aac95e175960009081526020527fa9b0f75b23e377b9b22d27feaca5d8a12329c0049ebce1dc695b905f3aa4cd005490565b7f7ab1577440dd7bedf920cb6de2f9fc6bf7ba98c78c85a3fa1f8311aac95e1759600090815260205267ffffffffffffffff167fa9b0f75b23e377b9b22d27feaca5d8a12329c0049ebce1dc695b905f3aa4cd0055565b60408051808201909152601a81527f19457468657265756d205369676e6564204d6573736167653a0a0000000000006020820152600090606083156136e8578161358c8651613a34565b866040516020018084805190602001908083835b602083106135bf5780518252601f1990920191602091820191016135a0565b51815160209384036101000a600019018019909216911617905286519190930192860191508083835b602083106136075780518252601f1990920191602091820191016135e8565b51815160209384036101000a600019018019909216911617905285519190930192850191508083835b6020831061364f5780518252601f199092019160209182019101613630565b6001836020036101000a03801982511681845116808217855250505050505090500193505050506040516020818303038152906040526040518082805190602001908083835b602083106136b45780518252601f199092019160209182019101613695565b6001836020036101000a03801982511681845116808217855250505050505090500191505060405180910390209250613754565b6040805190810160405280600381526020017f31303400000000000000000000000000000000000000000000000000000000008152509050818186604051602001808480519060200190808383602083106135bf5780518252601f1990920191602091820191016135a0565b505092915050565b6000606060008060008061376e610d4d565b9350613778613b3f565b9250613782611e0c565b915061378c613b8d565b905061379784612d92565b95508083604f01016040519080825280601f01601f1916602001820160405280156137cc578160200160208202803883390190505b50945084518501828152848282035287604f87015281604e87015283604d87015288604c8701528960488701523360348701528660208701525050505050935093915050565b604080516020808252835181830152835185937f520d2afde79cbd5db58755ac9480f81bc658e5c517fcae7365a3d832590b01839386939092839283019185019080838360005b83811015613871578181015183820152602001613859565b50505050905090810190601f16801561389e5780820380516001836020036101000a031916815260200191505b509250505060405180910390a25050565b60008060008060006138bf61405f565b6060600080604f915060208a01519850600160a060020a0360348b015116975060548a01518060601c975063ffffffff8160401c16965080601a1a95508060181a6001808260031b1b03818501945080858e01511687528260191a91506001808360031b1b039050818501945080858e0151166020880152848d51039350505050806040519080825280601f01601f19166020018201604052801561396e578160200160208202803883390190505b50925060248201915080826004350160208501375050919395979092949650565b7bffffffffffffffffffffffffffffffffffffffffffffffffffffffff1981167e0500000000000000000000000000000000000000000000000000000000000014919050565b60006139df610d4d565b909114919050565b60006139f7888884888a88613bdb565b9050613a038682613cd1565b801515613a2857613a148683613d54565b613a1e8688613e21565b613a288689613ea4565b61349388888884613f27565b60606000808281851515613a7d5760408051808201909152600181527f300000000000000000000000000000000000000000000000000000000000000060208201529450613b36565b8593505b8315613a9857600190920191600a84049350613a81565b826040519080825280601f01601f191660200182016040528015613ac6578160200160208202803883390190505b5091505060001982015b8515613b3257815160001982019160f860020a6030600a8a060102918491908110613af757fe5b9060200101907effffffffffffffffffffffffffffffffffffffffffffffffffffffffffffff1916908160001a905350600a86049550613ad0565b8194505b50505050919050565b7fe504ae1fd6471eea80f18b8532a61a9bb91fba4f5b837f80a1cfb6752350af4460009081526020527f2f30286a16f86ee067618e1a246990e40c07b7749418a6dd3133f9cfb7e814cc5490565b7ffb792ae4ad11102b93f26a51b3749c2b3667f8b561566a4806d498969281159460009081526020527f7b62b32ff48350e85ce95b571fde6f8b1096bc44a26db769ad6d0b3a26bf1c6d5490565b600080613be788613f75565b613bf084613f99565b613bf983613fbd565b8463ffffffff1480613c1957508460405a603f02811515613c1657fe5b04115b1515613c2457600080fd5b86600160a060020a0316858760405180828051906020019080838360005b83811015613c5a578181015183820152602001613c42565b50505050905090810190601f168015613c875780820380516001836020036101000a031916815260200191505b5091505060006040518083038160008787f1925050509050613ca881611e09565b613cb26000613f75565b613cbc6000613f99565b613cc66000613fbd565b979650505050505050565b80600460008460405160200180807f6d65737361676543616c6c5374617475730000000000000000000000000000008152506011018260001916600019168152602001915050604051602081830303815290604052604051808280519060200190808383602083106126235780518252601f199092019160209182019101612604565b806040518082805190602001908083835b60208310613d845780518252601f199092019160209182019101613d65565b51815160001960209485036101000a01908116901991909116179052604080519490920184900384207f6661696c65644d657373616765446174614861736800000000000000000000008583015260358086018a905283518087039091018152605590950192839052845190965060009550859493508291840190808383602083106126f45780518252601f1990920191602091820191016126d5565b80600260008460405160200180807f6661696c65644d65737361676552656365697665720000000000000000000000815250601501826000191660001916815260200191505060405160208183030381529060405260405180828051906020019080838360208310612f195780518252601f199092019160209182019101612efa565b80600260008460405160200180807f6661696c65644d65737361676553656e64657200000000000000000000000000815250601301826000191660001916815260200191505060405160208183030381529060405260405180828051906020019080838360208310612f195780518252601f199092019160209182019101612efa565b60408051821515815290518391600160a060020a0380871692908816917fe194ef610f9150a2db4110b3db5116fd623175dca3528d7ae7046a1042f84fe7919081900360200190a450505050565b7f7b58b2a669d8e0992eae9eaef641092c0f686fd31070e7236865557fa1571b5b55565b7fe34bb2103dc34f2c144cc216c132d6ffb55dac57575c22e089161bbe6508330455565b7f7f0fcd9e49860f055dd0c1682d635d309ecb5e3011654c716d9eb59a7ddec7d255565b828054600181600116156101000203166002900490600052602060002090601f016020900481019282601f1061402257805160ff191683800117855561404f565b8280016001018555821561404f579182015b8281111561404f578251825591602001919060010190614034565b5061405b92915061407a565b5090565b60408051808201825290600290829080388339509192915050565b61085191905b8082111561405b57600081556001016140805600a165627a7a72305820f7a06508853a38ced7d0a2bbed70c426a42529b0240558c36b5d483292294b540029",
  "source": "pragma solidity 0.4.24;\n\nimport \"./AsyncInformationProcessor.sol\";\n\ncontract HomeAMB is AsyncInformationProcessor {\n    event UserRequestForSignature(bytes32 indexed messageId, bytes encodedData);\n    event AffirmationCompleted(\n        address indexed sender,\n        address indexed executor,\n        bytes32 indexed messageId,\n        bool status\n    );\n\n    function emitEventOnMessageRequest(bytes32 messageId, bytes encodedData) internal {\n        emit UserRequestForSignature(messageId, encodedData);\n    }\n\n    function emitEventOnMessageProcessed(address sender, address executor, bytes32 messageId, bool status) internal {\n        emit AffirmationCompleted(sender, executor, messageId, status);\n    }\n}\n",
  "sourcePath": "/Users/eabz/Documents/GitHub/tokenbridge/packages/poanetwork/contracts/upgradeable_contracts/arbitrary_message/HomeAMB.sol",
  "compiler": {
    "name": "solc",
    "version": "0.4.24+commit.e67f0147.Emscripten.clang"
  },
  "schemaVersion": "3.4.3",
  "updatedAt": "2021-09-04T01:08:19.351Z",
  "devdoc": {
    "methods": {
      "allowReentrantRequests()": {
        "return": "true, if reentrant requests are allowed."
      },
      "confirmInformation(bytes32,bool,bytes)": {
        "details": "Submits result of the async call. Only validators are allowed to call this method. Once enough confirmations are collected, callback function is called.",
        "params": {
          "_messageId": "unique id of the request that was previously made.",
          "_result": "call result returned by the other side of the bridge.",
          "_status": "true, if JSON-RPC request succeeded, false otherwise."
        }
      },
      "decimalShift()": {
        "details": "Returns the value of foreign-to-home decimal shift.",
        "return": "decimal shift."
      },
      "destinationChainId()": {
        "return": "chain id for the destination network"
      },
      "enableAsyncRequestSelector(bytes32,bool)": {
        "params": {
          "_enable": "true, if the selector should be allowed.",
          "_requestSelector": "selector for the async request."
        }
      },
      "failedMessageDataHash(bytes32)": {
        "details": "Returns a data hash of the failed message that came from the other side. NOTE: dataHash was used previously to identify outgoing message before AMB message id was introduced. It is kept for backwards compatibility with old mediators contracts.",
        "params": {
          "_messageId": "id of the message from the other side that triggered a call."
        },
        "return": "keccak256 hash of message data."
      },
      "failedMessageReceiver(bytes32)": {
        "details": "Returns a receiver address of the failed message that came from the other side.",
        "params": {
          "_messageId": "id of the message from the other side that triggered a call."
        },
        "return": "receiver address."
      },
      "failedMessageSender(bytes32)": {
        "details": "Returns a sender address of the failed message that came from the other side.",
        "params": {
          "_messageId": "id of the message from the other side that triggered a call."
        },
        "return": "sender address on the other side."
      },
      "getBridgeInterfacesVersion()": {
        "return": "(major, minor, patch) version triple"
      },
      "getMinimumGasUsage(bytes)": {
        "details": "Returns a lower limit on gas limit for the particular message data",
        "params": {
          "_data": "calldata passed to the executor on the other side"
        }
      },
      "initialize(uint256,uint256,address,uint256,uint256,uint256,address)": {
        "params": {
          "_destinationChainId": "chain id of a network where all outgoing messages are directed",
          "_gasPrice": "default gas price used by oracles for sending transactions in this network",
          "_maxGasPerTx": "maximum amount of gas per one message execution",
          "_owner": "address of new bridge owner",
          "_requiredBlockConfirmations": "number of block confirmations oracle will wait before processing passed messages",
          "_sourceChainId": "chain id of a network where this contract is deployed",
          "_validatorContract": "address of the validators contract"
        }
      },
      "isAsyncRequestSelectorEnabled(bytes32)": {
        "params": {
          "_requestSelector": "selector for the async request."
        },
        "return": "true, if selector is allowed to be used."
      },
      "messageCallStatus(bytes32)": {
        "details": "Returns a status of the message that came from the other side.",
        "params": {
          "_messageId": "id of the message from the other side that triggered a call."
        },
        "return": "true if call executed successfully."
      },
      "messageId()": {
        "details": "Returns an id of the currently processed message.",
        "return": "id of the message that originated on the other side."
      },
      "messageSender()": {
        "details": "Returns an address of the sender on the other side for the currently processed message. Can be used by executors for getting other side caller address.",
        "return": "address of the sender on the other side."
      },
      "messageSourceChainId()": {
        "details": "Returns an originating chain id of the currently processed message.",
        "return": "source chain id of the message that originated on the other side."
      },
      "owner()": {
        "details": "Tells the address of the owner",
        "return": "the address of the owner"
      },
      "requireToConfirmMessage(address,bytes,uint256)": {
        "details": "Requests message relay to the opposite network, message is sent to the manual lane.",
        "params": {
          "_contract": "executor address on the other side.",
          "_data": "calldata passed to the executor on the other side.",
          "_gas": "gas limit used on the other network for executing a message."
        }
      },
      "requireToGetInformation(bytes32,bytes)": {
        "details": "Makes an asynchronous request to get information from the opposite network. Call result will be returned later to the callee, by using the onInformationReceived(bytes) callback function.",
        "params": {
          "_data": "payload for the given selector",
          "_requestSelector": "selector for the async request."
        }
      },
      "requireToPassMessage(address,bytes,uint256)": {
        "details": "Requests message relay to the opposite network",
        "params": {
          "_contract": "executor address on the other side",
          "_data": "calldata passed to the executor on the other side",
          "_gas": "gas limit used on the other network for executing a message"
        }
      },
      "setAllowReentrantRequests(bool)": {
        "params": {
          "_enable": "true, if reentrant requests are allowed."
        }
      },
      "setChainIds(uint256,uint256)": {
        "params": {
          "_destinationChainId": "chain id for opposite network",
          "_sourceChainId": "chain id for current network"
        }
      },
      "setGasPrice(uint256)": {
        "details": "Public setter for fallback gas price value. Only bridge owner can call this method.",
        "params": {
          "_gasPrice": "new value for the gas price."
        }
      },
      "sourceChainId()": {
        "return": "chain id for the current network"
      },
      "transactionHash()": {
        "details": "Returns an id of the currently processed message. NOTE: transactionHash was used previously to identify incoming message before AMB message id was introduced. It is kept for backwards compatibility with old mediators contracts, although it doesn't return txHash anymore.",
        "return": "id of the message that originated on the other side."
      },
      "transferOwnership(address)": {
        "details": "Allows the current owner to transfer control of the contract to a newOwner.",
        "params": {
          "newOwner": "the address to transfer ownership to."
        }
      }
    }
  },
  "userdoc": {
    "methods": {
      "allowReentrantRequests()": {
        "notice": "Tells if passing reentrant requests is allowed."
      },
      "destinationChainId()": {
        "notice": "Internal function for retrieving chain id for the destination network"
      },
      "enableAsyncRequestSelector(bytes32,bool)": {
        "notice": "Enables or disables the specific async request selector. Only owner can call this method."
      },
      "getBridgeInterfacesVersion()": {
        "notice": "Returns currently used bridge version"
      },
      "initialize(uint256,uint256,address,uint256,uint256,uint256,address)": {
        "notice": "Initializes AMB contract"
      },
      "isAsyncRequestSelectorEnabled(bytes32)": {
        "notice": "Tells if the specific async request selector is allowed to be used and supported by the bridge oracles."
      },
      "setAllowReentrantRequests(bool)": {
        "notice": "Sets the flag to allow passing new AMB requests in the opposite direction, while other AMB message is being processed. Only owner can call this method."
      },
      "setChainIds(uint256,uint256)": {
        "notice": "Updates chain ids of used networks"
      },
      "sourceChainId()": {
        "notice": "Internal function for retrieving chain id for the source network"
      }
    }
  }
}