{
  "contractName": "InitializableBridge",
  "abi": [
    {
      "constant": true,
      "inputs": [],
      "name": "isInitialized",
      "outputs": [
        {
          "name": "",
          "type": "bool"
        }
      ],
      "payable": false,
      "stateMutability": "view",
      "type": "function"
    },
    {
      "constant": true,
      "inputs": [],
      "name": "deployedAtBlock",
      "outputs": [
        {
          "name": "",
          "type": "uint256"
        }
      ],
      "payable": false,
      "stateMutability": "view",
      "type": "function"
    }
  ],
  "bytecode": "0x608060405234801561001057600080fd5b5061016b806100206000396000f30060806040526004361061004b5763ffffffff7c0100000000000000000000000000000000000000000000000000000000600035041663392e53cd81146100505780639a454b9914610079575b600080fd5b34801561005c57600080fd5b506100656100a0565b604080519115158252519081900360200190f35b34801561008557600080fd5b5061008e6100f1565b60408051918252519081900360200190f35b7f0a6f646cd611241d8073675e00d1a1ff700fbf1b53fcf473de56d1e6e4b714ba60005260046020527f078d888f9b66f3f8bfa10909e31f1e16240db73449f0500afdbbe3a70da457cc5460ff1690565b7fb120ceec05576ad0c710bc6e85f1768535e27554458f05dcbb5c65b8c7a749b060009081526020527fe66bef0282a446f9848e2903380099bb6e431483ee78778868f33b4a154c818b54905600a165627a7a72305820c6f1f27dbccd704b9c0e7a8479d0cf484a2617a7acbf60e8116118d18e5e277f0029",
  "source": "pragma solidity 0.4.24;\n\nimport \"./Initializable.sol\";\n\ncontract InitializableBridge is Initializable {\n    bytes32 internal constant DEPLOYED_AT_BLOCK = 0xb120ceec05576ad0c710bc6e85f1768535e27554458f05dcbb5c65b8c7a749b0; // keccak256(abi.encodePacked(\"deployedAtBlock\"))\n\n    function deployedAtBlock() external view returns (uint256) {\n        return uintStorage[DEPLOYED_AT_BLOCK];\n    }\n}\n",
  "sourcePath": "/Users/eabz/Documents/GitHub/tokenbridge/packages/poanetwork/contracts/upgradeable_contracts/InitializableBridge.sol",
  "compiler": {
    "name": "solc",
    "version": "0.4.24+commit.e67f0147.Emscripten.clang"
  },
  "schemaVersion": "3.4.3",
  "updatedAt": "2021-09-04T01:08:19.301Z",
  "devdoc": {
    "methods": {}
  },
  "userdoc": {
    "methods": {}
  }
}