{
  "contractName": "InterestReceiverSwapToETH",
  "abi": [
    {
      "constant": true,
      "inputs": [],
      "name": "wethToken",
      "outputs": [
        {
          "name": "",
          "type": "address"
        }
      ],
      "payable": false,
      "stateMutability": "view",
      "type": "function"
    },
    {
      "constant": true,
      "inputs": [],
      "name": "uniswapRouterV2",
      "outputs": [
        {
          "name": "",
          "type": "address"
        }
      ],
      "payable": false,
      "stateMutability": "view",
      "type": "function"
    },
    {
      "constant": true,
      "inputs": [],
      "name": "minReceivedFraction",
      "outputs": [
        {
          "name": "",
          "type": "uint256"
        }
      ],
      "payable": false,
      "stateMutability": "view",
      "type": "function"
    },
    {
      "constant": true,
      "inputs": [],
      "name": "compToken",
      "outputs": [
        {
          "name": "",
          "type": "address"
        }
      ],
      "payable": false,
      "stateMutability": "view",
      "type": "function"
    },
    {
      "constant": false,
      "inputs": [
        {
          "name": "_token",
          "type": "address"
        },
        {
          "name": "_to",
          "type": "address"
        }
      ],
      "name": "claimTokens",
      "outputs": [],
      "payable": false,
      "stateMutability": "nonpayable",
      "type": "function"
    },
    {
      "constant": false,
      "inputs": [],
      "name": "renounceOwnership",
      "outputs": [],
      "payable": false,
      "stateMutability": "nonpayable",
      "type": "function"
    },
    {
      "constant": true,
      "inputs": [],
      "name": "owner",
      "outputs": [
        {
          "name": "",
          "type": "address"
        }
      ],
      "payable": false,
      "stateMutability": "view",
      "type": "function"
    },
    {
      "constant": true,
      "inputs": [],
      "name": "daiToken",
      "outputs": [
        {
          "name": "",
          "type": "address"
        }
      ],
      "payable": false,
      "stateMutability": "view",
      "type": "function"
    },
    {
      "constant": false,
      "inputs": [
        {
          "name": "_minFraction",
          "type": "uint256"
        }
      ],
      "name": "setMinFractionReceived",
      "outputs": [],
      "payable": false,
      "stateMutability": "nonpayable",
      "type": "function"
    },
    {
      "constant": false,
      "inputs": [
        {
          "name": "_newOwner",
          "type": "address"
        }
      ],
      "name": "transferOwnership",
      "outputs": [],
      "payable": false,
      "stateMutability": "nonpayable",
      "type": "function"
    },
    {
      "payable": true,
      "stateMutability": "payable",
      "type": "fallback"
    },
    {
      "anonymous": false,
      "inputs": [
        {
          "indexed": true,
          "name": "previousOwner",
          "type": "address"
        }
      ],
      "name": "OwnershipRenounced",
      "type": "event"
    },
    {
      "anonymous": false,
      "inputs": [
        {
          "indexed": true,
          "name": "previousOwner",
          "type": "address"
        },
        {
          "indexed": true,
          "name": "newOwner",
          "type": "address"
        }
      ],
      "name": "OwnershipTransferred",
      "type": "event"
    },
    {
      "constant": false,
      "inputs": [
        {
          "name": "_token",
          "type": "address"
        }
      ],
      "name": "onInterestReceived",
      "outputs": [],
      "payable": false,
      "stateMutability": "nonpayable",
      "type": "function"
    }
  ],
  "bytecode": "0x60806040819052600060018190558054600160a060020a031916331781557f095ea7b3000000000000000000000000000000000000000000000000000000008252737a250d5630b4cf539739df2c5dacb4c659f2488d60845260001960a452736b175474e89094c44da98b954eedeac495271d0f9163095ea7b39160c491602091604490829087803b15801561009457600080fd5b505af11580156100a8573d6000803e3d6000fd5b505050506040513d60208110156100be57600080fd5b5050604080517f095ea7b3000000000000000000000000000000000000000000000000000000008152737a250d5630b4cf539739df2c5dacb4c659f2488d60048201526000196024820152905173c00e94cb662c3520282e6f5717214004a7f268889163095ea7b39160448083019260209291908290030181600087803b15801561014857600080fd5b505af115801561015c573d6000803e3d6000fd5b505050506040513d602081101561017257600080fd5b5050610a58806101836000396000f3006080604052600436106100ae5763ffffffff7c01000000000000000000000000000000000000000000000000000000006000350416634b57b0be81146100b0578063596fa9e3146100e15780635adc334e146100f65780636605dfa71461011d57806369ffa08a14610132578063715018a61461015957806381e3f2761461016e5780638da5cb5b1461018f578063be22f546146101a4578063e3e323f6146101b9578063f2fde38b146101d1575b005b3480156100bc57600080fd5b506100c56101f2565b60408051600160a060020a039092168252519081900360200190f35b3480156100ed57600080fd5b506100c561020a565b34801561010257600080fd5b5061010b610222565b60408051918252519081900360200190f35b34801561012957600080fd5b506100c5610228565b34801561013e57600080fd5b506100ae600160a060020a0360043581169060243516610240565b34801561016557600080fd5b506100ae610265565b34801561017a57600080fd5b506100ae600160a060020a03600435166102d1565b34801561019b57600080fd5b506100c56106ed565b3480156101b057600080fd5b506100c56106fc565b3480156101c557600080fd5b506100ae600435610714565b3480156101dd57600080fd5b506100ae600160a060020a0360043516610744565b73c02aaa39b223fe8d0a0e5c4f27ead9083c756cc281565b737a250d5630b4cf539739df2c5dacb4c659f2488d81565b60015481565b73c00e94cb662c3520282e6f5717214004a7f2688881565b600054600160a060020a0316331461025757600080fd5b6102618282610767565b5050565b600054600160a060020a0316331461027c57600080fd5b60008054604051600160a060020a03909116917ff8df31144d9c2f0f6b59d69b8b98abd5459d07f2742c4df920b25aae33c6482091a26000805473ffffffffffffffffffffffffffffffffffffffff19169055565b6040805160028082526060808301845292600092839285926020830190803883390190505093508484600081518110151561030857fe5b600160a060020a03909216602092830290910190910152835173c02aaa39b223fe8d0a0e5c4f27ead9083c756cc2908590600190811061034457fe5b600160a060020a039283166020918202909201810191909152604080517f70a082310000000000000000000000000000000000000000000000000000000081523060048201529051928816926370a08231926024808401939192918290030181600087803b1580156103b557600080fd5b505af11580156103c9573d6000803e3d6000fd5b505050506040513d60208110156103df57600080fd5b5051604080517fd06ca61f000000000000000000000000000000000000000000000000000000008152670de0b6b3a764000060048201818152602483019384528851604484015288519497506ec097ce7bc90715b34b9f100000000094737a250d5630b4cf539739df2c5dacb4c659f2488d9463d06ca61f948b93926064909101906020858101910280838360005b8381101561048657818101518382015260200161046e565b505050509050019350505050600060405180830381600087803b1580156104ac57600080fd5b505af11580156104c0573d6000803e3d6000fd5b505050506040513d6000823e601f3d908101601f1916820160405260208110156104e957600080fd5b81019080805164010000000081111561050157600080fd5b8201602081018481111561051457600080fd5b815185602082028301116401000000008211171561053157600080fd5b50508051909350600192508210905061054657fe5b9060200190602002015184600154020281151561055f57fe5b60405160248101868152929091046044820181905230608483018190524260a4840181905260a060648501908152895160c486015289519397507f18cbafe50000000000000000000000000000000000000000000000000000000095899589958c9594939160e401906020808801910280838360005b838110156105ed5781810151838201526020016105d5565b505050509050019650505050505050604051602081830303815290604052907bffffffffffffffffffffffffffffffffffffffffffffffffffffffff19166020820180517bffffffffffffffffffffffffffffffffffffffffffffffffffffffff83818316178352505050509050737a250d5630b4cf539739df2c5dacb4c659f2488d600160a060020a03168160405180828051906020019080838360005b838110156106a457818101518382015260200161068c565b50505050905090810190601f1680156106d15780820380516001836020036101000a031916815260200191505b509150506000604051808303816000865af15050505050505050565b600054600160a060020a031681565b736b175474e89094c44da98b954eedeac495271d0f81565b600054600160a060020a0316331461072b57600080fd5b670de0b6b3a7640000811061073f57600080fd5b600155565b600054600160a060020a0316331461075b57600080fd5b610764816107aa565b50565b80600160a060020a038116151561077d57600080fd5b600160a060020a038316151561079b5761079682610827565b6107a5565b6107a58383610833565b505050565b600160a060020a03811615156107bf57600080fd5b60008054604051600160a060020a03808516939216917f8be0079c531659141344cd1fd0a4f28419497f9722a3daafe3b4186f6b6457e091a36000805473ffffffffffffffffffffffffffffffffffffffff1916600160a060020a0392909216919091179055565b303161026182826108e6565b604080517f70a0823100000000000000000000000000000000000000000000000000000000815230600482015290518391600091600160a060020a038416916370a0823191602480830192602092919082900301818787803b15801561089857600080fd5b505af11580156108ac573d6000803e3d6000fd5b505050506040513d60208110156108c257600080fd5b505190506108e0600160a060020a038516848363ffffffff61094e16565b50505050565b604051600160a060020a0383169082156108fc029083906000818181858888f19350505050151561026157808261091b6109fc565b600160a060020a039091168152604051908190036020019082f080158015610947573d6000803e3d6000fd5b5050505050565b82600160a060020a031663a9059cbb83836040518363ffffffff167c01000000000000000000000000000000000000000000000000000000000281526004018083600160a060020a0316600160a060020a0316815260200182815260200192505050600060405180830381600087803b1580156109ca57600080fd5b505af11580156109de573d6000803e3d6000fd5b505050503d156107a55760206000803e60005115156107a557600080fd5b604051602180610a0c833901905600608060405260405160208060218339810160405251600160a060020a038116ff00a165627a7a7230582068a1e1deeaef28ee312c5ef816c286d327bc0ca64c32b8f4f01eea6b098750770029",
  "source": "pragma solidity 0.4.24;\n\nimport \"./InterestReceiverBase.sol\";\n\n/**\n * @title InterestReceiverSwapToETH\n * @dev This contract is intended to be used together with InterestConnector module of the erc-to-native bridge.\n * Contract receives DAI and COMP tokens. All received tokens are swapped to ETH and kept on this contract.\n * Later, they can be withdrawn by the owner.\n */\ncontract InterestReceiverSwapToETH is InterestReceiverBase {\n    /**\n     * @dev Callback function for notifying this contract about received interest.\n     * @param _token address of the token contract. Should be COMP or DAI token address.\n     */\n    function onInterestReceived(address _token) external {\n        address[] memory path = new address[](2);\n        path[0] = _token;\n        path[1] = wethToken;\n        uint256 amount = ERC20(_token).balanceOf(address(this));\n\n        // (min received %) * (amount / 1 DAI) * (ETH per 1 DAI)\n        uint256 minAmount = (minReceivedFraction * amount * uniswapRouterV2.getAmountsOut(1 ether, path)[1]) / 10**36;\n\n        bytes memory data = abi.encodeWithSelector(\n            uniswapRouterV2.swapExactTokensForETH.selector,\n            amount,\n            minAmount,\n            path,\n            address(this),\n            now\n        );\n        address(uniswapRouterV2).call(data);\n    }\n\n    /**\n     * @dev Fallback function for receiving native coins from the Uniswap Router contract when using swapExactTokensForETH.\n     */\n    function() external payable {}\n}\n",
  "sourcePath": "/Users/eabz/Documents/GitHub/tokenbridge/packages/poanetwork/contracts/upgradeable_contracts/InterestReceiverSwapToETH.sol",
  "compiler": {
    "name": "solc",
    "version": "0.4.24+commit.e67f0147.Emscripten.clang"
  },
  "schemaVersion": "3.4.3",
  "updatedAt": "2021-09-04T01:08:19.305Z",
  "devdoc": {
    "methods": {
      "claimTokens(address,address)": {
        "details": "Allows to transfer any locked token from this contract. Only owner can call this method.",
        "params": {
          "_to": "address that will receive the locked tokens on this contract.",
          "_token": "address of the token, if it is not provided (0x00..00), native coins will be transferred."
        }
      },
      "onInterestReceived(address)": {
        "details": "Callback function for notifying this contract about received interest.",
        "params": {
          "_token": "address of the token contract. Should be COMP or DAI token address."
        }
      },
      "renounceOwnership()": {
        "details": "Allows the current owner to relinquish control of the contract."
      },
      "setMinFractionReceived(uint256)": {
        "details": "Updates the slippage parameter for the Uniswap operations. Only owner can call this method.",
        "params": {
          "_minFraction": "minimum percentage allowed to be received w.r.t. 1 ether (0.9 ether = 90%), slippage = 1 ether - minReceivedFraction."
        }
      },
      "transferOwnership(address)": {
        "details": "Allows the current owner to transfer control of the contract to a newOwner.",
        "params": {
          "_newOwner": "The address to transfer ownership to."
        }
      }
    },
    "title": "InterestReceiverSwapToETH"
  },
  "userdoc": {
    "methods": {
      "renounceOwnership()": {
        "notice": "Renouncing to ownership will leave the contract without an owner. It will not be possible to call the functions with the `onlyOwner` modifier anymore."
      }
    }
  }
}