{
  "contractName": "InterestReceiverStakeBuyback",
  "abi": [
    {
      "constant": true,
      "inputs": [],
      "name": "wethToken",
      "outputs": [
        {
          "name": "",
          "type": "address"
        }
      ],
      "payable": false,
      "stateMutability": "view",
      "type": "function"
    },
    {
      "constant": true,
      "inputs": [],
      "name": "stakeToken",
      "outputs": [
        {
          "name": "",
          "type": "address"
        }
      ],
      "payable": false,
      "stateMutability": "view",
      "type": "function"
    },
    {
      "constant": true,
      "inputs": [],
      "name": "uniswapRouterV2",
      "outputs": [
        {
          "name": "",
          "type": "address"
        }
      ],
      "payable": false,
      "stateMutability": "view",
      "type": "function"
    },
    {
      "constant": true,
      "inputs": [],
      "name": "minReceivedFraction",
      "outputs": [
        {
          "name": "",
          "type": "uint256"
        }
      ],
      "payable": false,
      "stateMutability": "view",
      "type": "function"
    },
    {
      "constant": true,
      "inputs": [],
      "name": "compToken",
      "outputs": [
        {
          "name": "",
          "type": "address"
        }
      ],
      "payable": false,
      "stateMutability": "view",
      "type": "function"
    },
    {
      "constant": false,
      "inputs": [
        {
          "name": "_token",
          "type": "address"
        },
        {
          "name": "_to",
          "type": "address"
        }
      ],
      "name": "claimTokens",
      "outputs": [],
      "payable": false,
      "stateMutability": "nonpayable",
      "type": "function"
    },
    {
      "constant": true,
      "inputs": [],
      "name": "burnAddress",
      "outputs": [
        {
          "name": "",
          "type": "address"
        }
      ],
      "payable": false,
      "stateMutability": "view",
      "type": "function"
    },
    {
      "constant": false,
      "inputs": [],
      "name": "renounceOwnership",
      "outputs": [],
      "payable": false,
      "stateMutability": "nonpayable",
      "type": "function"
    },
    {
      "constant": true,
      "inputs": [],
      "name": "owner",
      "outputs": [
        {
          "name": "",
          "type": "address"
        }
      ],
      "payable": false,
      "stateMutability": "view",
      "type": "function"
    },
    {
      "constant": true,
      "inputs": [],
      "name": "daiToken",
      "outputs": [
        {
          "name": "",
          "type": "address"
        }
      ],
      "payable": false,
      "stateMutability": "view",
      "type": "function"
    },
    {
      "constant": false,
      "inputs": [
        {
          "name": "_minFraction",
          "type": "uint256"
        }
      ],
      "name": "setMinFractionReceived",
      "outputs": [],
      "payable": false,
      "stateMutability": "nonpayable",
      "type": "function"
    },
    {
      "constant": false,
      "inputs": [
        {
          "name": "_newOwner",
          "type": "address"
        }
      ],
      "name": "transferOwnership",
      "outputs": [],
      "payable": false,
      "stateMutability": "nonpayable",
      "type": "function"
    },
    {
      "anonymous": false,
      "inputs": [
        {
          "indexed": true,
          "name": "previousOwner",
          "type": "address"
        }
      ],
      "name": "OwnershipRenounced",
      "type": "event"
    },
    {
      "anonymous": false,
      "inputs": [
        {
          "indexed": true,
          "name": "previousOwner",
          "type": "address"
        },
        {
          "indexed": true,
          "name": "newOwner",
          "type": "address"
        }
      ],
      "name": "OwnershipTransferred",
      "type": "event"
    },
    {
      "constant": false,
      "inputs": [
        {
          "name": "_token",
          "type": "address"
        }
      ],
      "name": "onInterestReceived",
      "outputs": [],
      "payable": false,
      "stateMutability": "nonpayable",
      "type": "function"
    }
  ],
  "bytecode": "0x60806040819052600060018190558054600160a060020a031916331781557f095ea7b3000000000000000000000000000000000000000000000000000000008252737a250d5630b4cf539739df2c5dacb4c659f2488d60845260001960a452736b175474e89094c44da98b954eedeac495271d0f9163095ea7b39160c491602091604490829087803b15801561009457600080fd5b505af11580156100a8573d6000803e3d6000fd5b505050506040513d60208110156100be57600080fd5b5050604080517f095ea7b3000000000000000000000000000000000000000000000000000000008152737a250d5630b4cf539739df2c5dacb4c659f2488d60048201526000196024820152905173c00e94cb662c3520282e6f5717214004a7f268889163095ea7b39160448083019260209291908290030181600087803b15801561014857600080fd5b505af115801561015c573d6000803e3d6000fd5b505050506040513d602081101561017257600080fd5b5050610afc806101836000396000f3006080604052600436106100c45763ffffffff7c01000000000000000000000000000000000000000000000000000000006000350416634b57b0be81146100c957806351ed6a30146100fa578063596fa9e31461010f5780635adc334e146101245780636605dfa71461014b57806369ffa08a1461016057806370d5ae0514610189578063715018a61461019e57806381e3f276146101b35780638da5cb5b146101d4578063be22f546146101e9578063e3e323f6146101fe578063f2fde38b14610216575b600080fd5b3480156100d557600080fd5b506100de610237565b60408051600160a060020a039092168252519081900360200190f35b34801561010657600080fd5b506100de61024f565b34801561011b57600080fd5b506100de610267565b34801561013057600080fd5b5061013961027f565b60408051918252519081900360200190f35b34801561015757600080fd5b506100de610285565b34801561016c57600080fd5b50610187600160a060020a036004358116906024351661029d565b005b34801561019557600080fd5b506100de6102c2565b3480156101aa57600080fd5b506101876102c8565b3480156101bf57600080fd5b50610187600160a060020a0360043516610334565b3480156101e057600080fd5b506100de610791565b3480156101f557600080fd5b506100de6107a0565b34801561020a57600080fd5b506101876004356107b8565b34801561022257600080fd5b50610187600160a060020a03600435166107e8565b73c02aaa39b223fe8d0a0e5c4f27ead9083c756cc281565b730ae055097c6d159879521c384f1d2123d1f195e681565b737a250d5630b4cf539739df2c5dacb4c659f2488d81565b60015481565b73c00e94cb662c3520282e6f5717214004a7f2688881565b600054600160a060020a031633146102b457600080fd5b6102be828261080b565b5050565b61dead81565b600054600160a060020a031633146102df57600080fd5b60008054604051600160a060020a03909116917ff8df31144d9c2f0f6b59d69b8b98abd5459d07f2742c4df920b25aae33c6482091a26000805473ffffffffffffffffffffffffffffffffffffffff19169055565b6040805160038082526080820190925260609160009182918491906020820183803883390190505093508484600081518110151561036e57fe5b600160a060020a03909216602092830290910190910152835173c02aaa39b223fe8d0a0e5c4f27ead9083c756cc290859060019081106103aa57fe5b600160a060020a039092166020928302909101909101528351730ae055097c6d159879521c384f1d2123d1f195e690859060029081106103e657fe5b600160a060020a039283166020918202909201810191909152604080517f70a082310000000000000000000000000000000000000000000000000000000081523060048201529051928816926370a08231926024808401939192918290030181600087803b15801561045757600080fd5b505af115801561046b573d6000803e3d6000fd5b505050506040513d602081101561048157600080fd5b5051604080517fd06ca61f000000000000000000000000000000000000000000000000000000008152670de0b6b3a764000060048201818152602483019384528851604484015288519497506ec097ce7bc90715b34b9f100000000094737a250d5630b4cf539739df2c5dacb4c659f2488d9463d06ca61f948b93926064909101906020858101910280838360005b83811015610528578181015183820152602001610510565b505050509050019350505050600060405180830381600087803b15801561054e57600080fd5b505af1158015610562573d6000803e3d6000fd5b505050506040513d6000823e601f3d908101601f19168201604052602081101561058b57600080fd5b8101908080516401000000008111156105a357600080fd5b820160208101848111156105b657600080fd5b81518560208202830111640100000000821117156105d357600080fd5b5050805190935060029250821090506105e857fe5b9060200190602002015184600154020281151561060157fe5b60405160248101868152929091046044820181905261dead608483018190524260a4840181905260a060648501908152895160c486015289519397507f38ed17390000000000000000000000000000000000000000000000000000000095899589958c9594939160e401906020808801910280838360005b83811015610691578181015183820152602001610679565b505050509050019650505050505050604051602081830303815290604052907bffffffffffffffffffffffffffffffffffffffffffffffffffffffff19166020820180517bffffffffffffffffffffffffffffffffffffffffffffffffffffffff83818316178352505050509050737a250d5630b4cf539739df2c5dacb4c659f2488d600160a060020a03168160405180828051906020019080838360005b83811015610748578181015183820152602001610730565b50505050905090810190601f1680156107755780820380516001836020036101000a031916815260200191505b509150506000604051808303816000865af15050505050505050565b600054600160a060020a031681565b736b175474e89094c44da98b954eedeac495271d0f81565b600054600160a060020a031633146107cf57600080fd5b670de0b6b3a764000081106107e357600080fd5b600155565b600054600160a060020a031633146107ff57600080fd5b6108088161084e565b50565b80600160a060020a038116151561082157600080fd5b600160a060020a038316151561083f5761083a826108cb565b610849565b61084983836108d7565b505050565b600160a060020a038116151561086357600080fd5b60008054604051600160a060020a03808516939216917f8be0079c531659141344cd1fd0a4f28419497f9722a3daafe3b4186f6b6457e091a36000805473ffffffffffffffffffffffffffffffffffffffff1916600160a060020a0392909216919091179055565b30316102be828261098a565b604080517f70a0823100000000000000000000000000000000000000000000000000000000815230600482015290518391600091600160a060020a038416916370a0823191602480830192602092919082900301818787803b15801561093c57600080fd5b505af1158015610950573d6000803e3d6000fd5b505050506040513d602081101561096657600080fd5b50519050610984600160a060020a038516848363ffffffff6109f216565b50505050565b604051600160a060020a0383169082156108fc029083906000818181858888f1935050505015156102be5780826109bf610aa0565b600160a060020a039091168152604051908190036020019082f0801580156109eb573d6000803e3d6000fd5b5050505050565b82600160a060020a031663a9059cbb83836040518363ffffffff167c01000000000000000000000000000000000000000000000000000000000281526004018083600160a060020a0316600160a060020a0316815260200182815260200192505050600060405180830381600087803b158015610a6e57600080fd5b505af1158015610a82573d6000803e3d6000fd5b505050503d156108495760206000803e600051151561084957600080fd5b604051602180610ab0833901905600608060405260405160208060218339810160405251600160a060020a038116ff00a165627a7a723058201cafca42390291fcf473a6a430c516503cb912de6a301634020b5a8cca5d87220029",
  "source": "pragma solidity 0.4.24;\n\nimport \"./InterestReceiverBase.sol\";\n\n/**\n * @title InterestReceiverStakeBuyback\n * @dev This contract is intended to be used together with InterestConnector module of the erc-to-native bridge.\n * Contract receives DAI and COMP tokens. All received tokens are swapped to STAKE token and burnt.\n */\ncontract InterestReceiverStakeBuyback is InterestReceiverBase {\n    ERC20 public constant stakeToken = ERC20(0x0Ae055097C6d159879521C384F1D2123D1f195e6);\n\n    address public constant burnAddress = 0x000000000000000000000000000000000000dEaD;\n\n    /**\n     * @dev Callback function for notifying this contract about received interest.\n     * @param _token address of the token contract. Should be COMP or DAI token address.\n     */\n    function onInterestReceived(address _token) external {\n        address[] memory path = new address[](3);\n        path[0] = _token;\n        path[1] = wethToken;\n        path[2] = address(stakeToken);\n        uint256 amount = ERC20(_token).balanceOf(address(this));\n\n        // (min received %) * (amount / 1 DAI) * (STAKE per 1 DAI)\n        uint256 minAmount = (minReceivedFraction * amount * uniswapRouterV2.getAmountsOut(1 ether, path)[2]) / 10**36;\n\n        bytes memory data = abi.encodeWithSelector(\n            uniswapRouterV2.swapExactTokensForTokens.selector,\n            amount,\n            minAmount,\n            path,\n            burnAddress,\n            now\n        );\n        address(uniswapRouterV2).call(data);\n    }\n}\n",
  "sourcePath": "/Users/eabz/Documents/GitHub/tokenbridge/packages/poanetwork/contracts/upgradeable_contracts/InterestReceiverStakeBuyback.sol",
  "compiler": {
    "name": "solc",
    "version": "0.4.24+commit.e67f0147.Emscripten.clang"
  },
  "schemaVersion": "3.4.3",
  "updatedAt": "2021-09-04T01:08:19.303Z",
  "devdoc": {
    "methods": {
      "claimTokens(address,address)": {
        "details": "Allows to transfer any locked token from this contract. Only owner can call this method.",
        "params": {
          "_to": "address that will receive the locked tokens on this contract.",
          "_token": "address of the token, if it is not provided (0x00..00), native coins will be transferred."
        }
      },
      "onInterestReceived(address)": {
        "details": "Callback function for notifying this contract about received interest.",
        "params": {
          "_token": "address of the token contract. Should be COMP or DAI token address."
        }
      },
      "renounceOwnership()": {
        "details": "Allows the current owner to relinquish control of the contract."
      },
      "setMinFractionReceived(uint256)": {
        "details": "Updates the slippage parameter for the Uniswap operations. Only owner can call this method.",
        "params": {
          "_minFraction": "minimum percentage allowed to be received w.r.t. 1 ether (0.9 ether = 90%), slippage = 1 ether - minReceivedFraction."
        }
      },
      "transferOwnership(address)": {
        "details": "Allows the current owner to transfer control of the contract to a newOwner.",
        "params": {
          "_newOwner": "The address to transfer ownership to."
        }
      }
    },
    "title": "InterestReceiverStakeBuyback"
  },
  "userdoc": {
    "methods": {
      "renounceOwnership()": {
        "notice": "Renouncing to ownership will leave the contract without an owner. It will not be possible to call the functions with the `onlyOwner` modifier anymore."
      }
    }
  }
}