{
  "contractName": "OldBlockReward",
  "abi": [
    {
      "constant": true,
      "inputs": [],
      "name": "bridgesAllowedLength",
      "outputs": [
        {
          "name": "",
          "type": "uint256"
        }
      ],
      "payable": false,
      "stateMutability": "view",
      "type": "function"
    }
  ],
  "bytecode": "0x6080604052348015600f57600080fd5b5060988061001e6000396000f300608060405260043610603e5763ffffffff7c010000000000000000000000000000000000000000000000000000000060003504166310f2ee7c81146043575b600080fd5b348015604e57600080fd5b5060556067565b60408051918252519081900360200190f35b6003905600a165627a7a7230582091c91fab4dd77d1446acbcfe8848f53db8fbd17a3a94bb689805de512eb4a3750029",
  "source": "pragma solidity 0.4.24;\n\ncontract OldBlockReward {\n    function bridgesAllowedLength() external view returns (uint256) {\n        return 3;\n    }\n}\n",
  "sourcePath": "/Users/eabz/Documents/GitHub/tokenbridge/packages/poanetwork/contracts/mocks/OldBlockReward.sol",
  "compiler": {
    "name": "solc",
    "version": "0.4.24+commit.e67f0147.Emscripten.clang"
  },
  "schemaVersion": "3.4.3",
  "updatedAt": "2021-09-04T01:08:19.246Z",
  "devdoc": {
    "methods": {}
  },
  "userdoc": {
    "methods": {}
  }
}