{
  "contractName": "RewardableBridge",
  "abi": [
    {
      "constant": true,
      "inputs": [],
      "name": "owner",
      "outputs": [
        {
          "name": "",
          "type": "address"
        }
      ],
      "payable": false,
      "stateMutability": "view",
      "type": "function"
    },
    {
      "constant": false,
      "inputs": [
        {
          "name": "newOwner",
          "type": "address"
        }
      ],
      "name": "transferOwnership",
      "outputs": [],
      "payable": false,
      "stateMutability": "nonpayable",
      "type": "function"
    },
    {
      "anonymous": false,
      "inputs": [
        {
          "indexed": false,
          "name": "feeAmount",
          "type": "uint256"
        },
        {
          "indexed": true,
          "name": "transactionHash",
          "type": "bytes32"
        }
      ],
      "name": "FeeDistributedFromAffirmation",
      "type": "event"
    },
    {
      "anonymous": false,
      "inputs": [
        {
          "indexed": false,
          "name": "feeAmount",
          "type": "uint256"
        },
        {
          "indexed": true,
          "name": "transactionHash",
          "type": "bytes32"
        }
      ],
      "name": "FeeDistributedFromSignatures",
      "type": "event"
    },
    {
      "anonymous": false,
      "inputs": [
        {
          "indexed": false,
          "name": "previousOwner",
          "type": "address"
        },
        {
          "indexed": false,
          "name": "newOwner",
          "type": "address"
        }
      ],
      "name": "OwnershipTransferred",
      "type": "event"
    },
    {
      "constant": true,
      "inputs": [],
      "name": "getFeeManagerMode",
      "outputs": [
        {
          "name": "mode",
          "type": "bytes4"
        }
      ],
      "payable": false,
      "stateMutability": "view",
      "type": "function"
    },
    {
      "constant": true,
      "inputs": [],
      "name": "feeManagerContract",
      "outputs": [
        {
          "name": "",
          "type": "address"
        }
      ],
      "payable": false,
      "stateMutability": "view",
      "type": "function"
    },
    {
      "constant": false,
      "inputs": [
        {
          "name": "_feeManager",
          "type": "address"
        }
      ],
      "name": "setFeeManagerContract",
      "outputs": [],
      "payable": false,
      "stateMutability": "nonpayable",
      "type": "function"
    }
  ],
  "bytecode": "0x608060405234801561001057600080fd5b50610469806100206000396000f30060806040526004361061006c5763ffffffff7c010000000000000000000000000000000000000000000000000000000060003504166360756f7c81146100715780638da5cb5b14610094578063dbe03a8b146100c5578063f2ba9561146100da578063f2fde38b14610124575b600080fd5b34801561007d57600080fd5b50610092600160a060020a0360043516610145565b005b3480156100a057600080fd5b506100a96101fd565b60408051600160a060020a039092168252519081900360200190f35b3480156100d157600080fd5b506100a9610254565b3480156100e657600080fd5b506100ef6102ab565b604080517fffffffff000000000000000000000000000000000000000000000000000000009092168252519081900360200190f35b34801561013057600080fd5b50610092600160a060020a0360043516610336565b61014d6101fd565b600160a060020a0316331461016157600080fd5b600160a060020a038116158061017b575061017b8161035e565b151561018657600080fd5b7f779a349c5bee7817f04c960f525ee3e2f2516078c38c68a3149787976ee837e560005260026020527fc155b21a14c4592b97825e495fbe0d2705fb46420018cac5bfa7a09c43fae517805473ffffffffffffffffffffffffffffffffffffffff1916600160a060020a0392909216919091179055565b7f02016836a56b71f0d02689e69e326f4f4c1b9057164ef592671cf0d37c8040c060005260026020527fb7802e97e87ef2842a6cce7da7ffaeaedaa2f61a6a7870b23d9d01fc9b73712e54600160a060020a031690565b7f779a349c5bee7817f04c960f525ee3e2f2516078c38c68a3149787976ee837e560005260026020527fc155b21a14c4592b97825e495fbe0d2705fb46420018cac5bfa7a09c43fae51754600160a060020a031690565b6040805160048152602481019091526020810180517bffffffffffffffffffffffffffffffffffffffffffffffffffffffff167ff2ba9561000000000000000000000000000000000000000000000000000000001790526000908161030e610254565b9050600460008351602085016000855af28060203d1416156103305760005193505b50505090565b61033e6101fd565b600160a060020a0316331461035257600080fd5b61035b81610366565b50565b6000903b1190565b600160a060020a038116151561037b57600080fd5b7f8be0079c531659141344cd1fd0a4f28419497f9722a3daafe3b4186f6b6457e06103a46101fd565b60408051600160a060020a03928316815291841660208301528051918290030190a17f02016836a56b71f0d02689e69e326f4f4c1b9057164ef592671cf0d37c8040c060005260026020527fb7802e97e87ef2842a6cce7da7ffaeaedaa2f61a6a7870b23d9d01fc9b73712e805473ffffffffffffffffffffffffffffffffffffffff1916600160a060020a03929092169190911790555600a165627a7a72305820e66bdead9168d8da77d497a3c3cf4f0d1bdbde04c142713606757f26099e9bdc0029",
  "source": "pragma solidity 0.4.24;\n\nimport \"openzeppelin-solidity/contracts/AddressUtils.sol\";\nimport \"./Ownable.sol\";\nimport \"./FeeTypes.sol\";\n\n/**\n * @title RewardableBridge\n * @dev Common functionality for fee management logic delegation to the separate fee management contract.\n */\ncontract RewardableBridge is Ownable, FeeTypes {\n    event FeeDistributedFromAffirmation(uint256 feeAmount, bytes32 indexed transactionHash);\n    event FeeDistributedFromSignatures(uint256 feeAmount, bytes32 indexed transactionHash);\n\n    bytes32 internal constant FEE_MANAGER_CONTRACT = 0x779a349c5bee7817f04c960f525ee3e2f2516078c38c68a3149787976ee837e5; // keccak256(abi.encodePacked(\"feeManagerContract\"))\n    bytes4 internal constant GET_HOME_FEE = 0x94da17cd; // getHomeFee()\n    bytes4 internal constant GET_FOREIGN_FEE = 0xffd66196; // getForeignFee()\n    bytes4 internal constant GET_FEE_MANAGER_MODE = 0xf2ba9561; // getFeeManagerMode()\n    bytes4 internal constant SET_HOME_FEE = 0x34a9e148; // setHomeFee(uint256)\n    bytes4 internal constant SET_FOREIGN_FEE = 0x286c4066; // setForeignFee(uint256)\n    bytes4 internal constant CALCULATE_FEE = 0x9862f26f; // calculateFee(uint256,bool,bytes32)\n    bytes4 internal constant DISTRIBUTE_FEE_FROM_SIGNATURES = 0x59d78464; // distributeFeeFromSignatures(uint256)\n    bytes4 internal constant DISTRIBUTE_FEE_FROM_AFFIRMATION = 0x054d46ec; // distributeFeeFromAffirmation(uint256)\n\n    /**\n     * @dev Internal function for reading the fee value from the fee manager.\n     * @param _feeType type of the fee, should be either HOME_FEE of FOREIGN_FEE.\n     * @return retrieved fee percentage.\n     */\n    function _getFee(bytes32 _feeType) internal view validFeeType(_feeType) returns (uint256 fee) {\n        address feeManager = feeManagerContract();\n        bytes4 method = _feeType == HOME_FEE ? GET_HOME_FEE : GET_FOREIGN_FEE;\n        bytes memory callData = abi.encodeWithSelector(method);\n\n        assembly {\n            let result := callcode(gas, feeManager, 0x0, add(callData, 0x20), mload(callData), 0, 32)\n\n            if and(eq(returndatasize, 32), result) {\n                fee := mload(0)\n            }\n        }\n    }\n\n    /**\n     * @dev Retrieves the mode of the used fee manager.\n     * @return manager mode identifier, or zero bytes otherwise.\n     */\n    function getFeeManagerMode() external view returns (bytes4 mode) {\n        bytes memory callData = abi.encodeWithSelector(GET_FEE_MANAGER_MODE);\n        address feeManager = feeManagerContract();\n        assembly {\n            let result := callcode(gas, feeManager, 0x0, add(callData, 0x20), mload(callData), 0, 4)\n\n            if and(eq(returndatasize, 32), result) {\n                mode := mload(0)\n            }\n        }\n    }\n\n    /**\n     * @dev Retrieves the address of the fee manager contract used.\n     * @return address of the fee manager contract.\n     */\n    function feeManagerContract() public view returns (address) {\n        return addressStorage[FEE_MANAGER_CONTRACT];\n    }\n\n    /**\n     * @dev Updates the address of the used fee manager contract.\n     * Only contract owner can call this method.\n     * If during this operation, home fee is changed, it is highly recommended to stop the bridge operations first.\n     * Otherwise, pending signature requests can become a reason for imbalance between two bridge sides.\n     * @param _feeManager address of the new fee manager contract, or zero address to disable fee collection.\n     */\n    function setFeeManagerContract(address _feeManager) external onlyOwner {\n        require(_feeManager == address(0) || AddressUtils.isContract(_feeManager));\n        addressStorage[FEE_MANAGER_CONTRACT] = _feeManager;\n    }\n\n    /**\n     * @dev Internal function for setting the fee value by using the fee manager.\n     * @param _feeManager address of the fee manager contract.\n     * @param _fee new value for fee percentage amount.\n     * @param _feeType type of the fee, should be either HOME_FEE of FOREIGN_FEE.\n     */\n    function _setFee(address _feeManager, uint256 _fee, bytes32 _feeType) internal validFeeType(_feeType) {\n        bytes4 method = _feeType == HOME_FEE ? SET_HOME_FEE : SET_FOREIGN_FEE;\n        require(_feeManager.delegatecall(abi.encodeWithSelector(method, _fee)));\n    }\n\n    /**\n     * @dev Calculates the exact fee amount by using the fee manager.\n     * @param _value transferred value for which fee should be calculated.\n     * @param _recover true, if the fee was already subtracted from the given _value and needs to be restored.\n     * @param _impl address of the fee manager contract.\n     * @param _feeType type of the fee, should be either HOME_FEE of FOREIGN_FEE.\n     * @return calculated fee amount.\n     */\n    function calculateFee(uint256 _value, bool _recover, address _impl, bytes32 _feeType)\n        internal\n        view\n        returns (uint256 fee)\n    {\n        bytes memory callData = abi.encodeWithSelector(CALCULATE_FEE, _value, _recover, _feeType);\n        assembly {\n            let result := callcode(gas, _impl, 0x0, add(callData, 0x20), mload(callData), 0, 32)\n\n            switch and(eq(returndatasize, 32), result)\n                case 1 {\n                    fee := mload(0)\n                }\n                default {\n                    revert(0, 0)\n                }\n        }\n    }\n\n    /**\n     * @dev Internal function for distributing the fee for collecting sufficient amount of signatures.\n     * @param _fee amount of fee to distribute.\n     * @param _feeManager address of the fee manager contract.\n     * @param _txHash reference transaction hash where the original bridge request happened.\n     */\n    function distributeFeeFromSignatures(uint256 _fee, address _feeManager, bytes32 _txHash) internal {\n        if (_fee > 0) {\n            require(_feeManager.delegatecall(abi.encodeWithSelector(DISTRIBUTE_FEE_FROM_SIGNATURES, _fee)));\n            emit FeeDistributedFromSignatures(_fee, _txHash);\n        }\n    }\n\n    /**\n     * @dev Internal function for distributing the fee for collecting sufficient amount of affirmations.\n     * @param _fee amount of fee to distribute.\n     * @param _feeManager address of the fee manager contract.\n     * @param _txHash reference transaction hash where the original bridge request happened.\n     */\n    function distributeFeeFromAffirmation(uint256 _fee, address _feeManager, bytes32 _txHash) internal {\n        if (_fee > 0) {\n            require(_feeManager.delegatecall(abi.encodeWithSelector(DISTRIBUTE_FEE_FROM_AFFIRMATION, _fee)));\n            emit FeeDistributedFromAffirmation(_fee, _txHash);\n        }\n    }\n}\n",
  "sourcePath": "/Users/eabz/Documents/GitHub/tokenbridge/packages/poanetwork/contracts/upgradeable_contracts/RewardableBridge.sol",
  "compiler": {
    "name": "solc",
    "version": "0.4.24+commit.e67f0147.Emscripten.clang"
  },
  "schemaVersion": "3.4.3",
  "updatedAt": "2021-09-04T01:08:19.310Z",
  "devdoc": {
    "methods": {
      "feeManagerContract()": {
        "details": "Retrieves the address of the fee manager contract used.",
        "return": "address of the fee manager contract."
      },
      "getFeeManagerMode()": {
        "details": "Retrieves the mode of the used fee manager.",
        "return": "manager mode identifier, or zero bytes otherwise."
      },
      "owner()": {
        "details": "Tells the address of the owner",
        "return": "the address of the owner"
      },
      "setFeeManagerContract(address)": {
        "details": "Updates the address of the used fee manager contract. Only contract owner can call this method. If during this operation, home fee is changed, it is highly recommended to stop the bridge operations first. Otherwise, pending signature requests can become a reason for imbalance between two bridge sides.",
        "params": {
          "_feeManager": "address of the new fee manager contract, or zero address to disable fee collection."
        }
      },
      "transferOwnership(address)": {
        "details": "Allows the current owner to transfer control of the contract to a newOwner.",
        "params": {
          "newOwner": "the address to transfer ownership to."
        }
      }
    },
    "title": "RewardableBridge"
  },
  "userdoc": {
    "methods": {}
  }
}