{
  "contractName": "TokenPaymaster",
  "abi": [
    {
      "constant": true,
      "inputs": [],
      "name": "getRelayHubDeposit",
      "outputs": [
        {
          "name": "",
          "type": "uint256"
        }
      ],
      "payable": false,
      "stateMutability": "view",
      "type": "function"
    },
    {
      "constant": false,
      "inputs": [
        {
          "name": "amount",
          "type": "uint256"
        },
        {
          "name": "target",
          "type": "address"
        }
      ],
      "name": "withdrawRelayHubDepositTo",
      "outputs": [],
      "payable": false,
      "stateMutability": "nonpayable",
      "type": "function"
    },
    {
      "constant": true,
      "inputs": [],
      "name": "getHubAddr",
      "outputs": [
        {
          "name": "",
          "type": "address"
        }
      ],
      "payable": false,
      "stateMutability": "view",
      "type": "function"
    },
    {
      "constant": false,
      "inputs": [
        {
          "name": "hub",
          "type": "address"
        }
      ],
      "name": "setRelayHub",
      "outputs": [],
      "payable": false,
      "stateMutability": "nonpayable",
      "type": "function"
    },
    {
      "constant": true,
      "inputs": [],
      "name": "trustedForwarder",
      "outputs": [
        {
          "name": "",
          "type": "address"
        }
      ],
      "payable": false,
      "stateMutability": "view",
      "type": "function"
    },
    {
      "constant": true,
      "inputs": [],
      "name": "postGasUsage",
      "outputs": [
        {
          "name": "",
          "type": "uint256"
        }
      ],
      "payable": false,
      "stateMutability": "view",
      "type": "function"
    },
    {
      "constant": true,
      "inputs": [],
      "name": "owner",
      "outputs": [
        {
          "name": "",
          "type": "address"
        }
      ],
      "payable": false,
      "stateMutability": "view",
      "type": "function"
    },
    {
      "constant": true,
      "inputs": [
        {
          "components": [
            {
              "components": [
                {
                  "name": "from",
                  "type": "address"
                },
                {
                  "name": "to",
                  "type": "address"
                },
                {
                  "name": "value",
                  "type": "uint256"
                },
                {
                  "name": "gas",
                  "type": "uint256"
                },
                {
                  "name": "nonce",
                  "type": "uint256"
                },
                {
                  "name": "data",
                  "type": "bytes"
                }
              ],
              "name": "request",
              "type": "tuple"
            },
            {
              "components": [
                {
                  "name": "gasPrice",
                  "type": "uint256"
                },
                {
                  "name": "pctRelayFee",
                  "type": "uint256"
                },
                {
                  "name": "baseRelayFee",
                  "type": "uint256"
                },
                {
                  "name": "relayWorker",
                  "type": "address"
                },
                {
                  "name": "paymaster",
                  "type": "address"
                },
                {
                  "name": "paymasterData",
                  "type": "bytes"
                },
                {
                  "name": "clientId",
                  "type": "uint256"
                },
                {
                  "name": "forwarder",
                  "type": "address"
                }
              ],
              "name": "relayData",
              "type": "tuple"
            }
          ],
          "name": "relayRequest",
          "type": "tuple"
        }
      ],
      "name": "_verifyForwarder",
      "outputs": [],
      "payable": false,
      "stateMutability": "view",
      "type": "function"
    },
    {
      "constant": true,
      "inputs": [],
      "name": "FORWARDER_HUB_OVERHEAD",
      "outputs": [
        {
          "name": "",
          "type": "uint256"
        }
      ],
      "payable": false,
      "stateMutability": "view",
      "type": "function"
    },
    {
      "constant": true,
      "inputs": [],
      "name": "POST_RELAYED_CALL_GAS_LIMIT",
      "outputs": [
        {
          "name": "",
          "type": "uint256"
        }
      ],
      "payable": false,
      "stateMutability": "view",
      "type": "function"
    },
    {
      "constant": false,
      "inputs": [
        {
          "name": "forwarder",
          "type": "address"
        }
      ],
      "name": "setTrustedForwarder",
      "outputs": [],
      "payable": false,
      "stateMutability": "nonpayable",
      "type": "function"
    },
    {
      "constant": true,
      "inputs": [],
      "name": "PAYMASTER_ACCEPTANCE_BUDGET",
      "outputs": [
        {
          "name": "",
          "type": "uint256"
        }
      ],
      "payable": false,
      "stateMutability": "view",
      "type": "function"
    },
    {
      "constant": false,
      "inputs": [
        {
          "name": "newOwner",
          "type": "address"
        }
      ],
      "name": "transferOwnership",
      "outputs": [],
      "payable": false,
      "stateMutability": "nonpayable",
      "type": "function"
    },
    {
      "constant": true,
      "inputs": [],
      "name": "PRE_RELAYED_CALL_GAS_LIMIT",
      "outputs": [
        {
          "name": "",
          "type": "uint256"
        }
      ],
      "payable": false,
      "stateMutability": "view",
      "type": "function"
    },
    {
      "inputs": [
        {
          "name": "_relayHub",
          "type": "address"
        },
        {
          "name": "_forwarder",
          "type": "address"
        },
        {
          "name": "_token",
          "type": "address"
        },
        {
          "name": "_router",
          "type": "address"
        },
        {
          "name": "_bridge",
          "type": "address"
        }
      ],
      "payable": false,
      "stateMutability": "nonpayable",
      "type": "constructor"
    },
    {
      "payable": true,
      "stateMutability": "payable",
      "type": "fallback"
    },
    {
      "anonymous": false,
      "inputs": [
        {
          "indexed": false,
          "name": "previousOwner",
          "type": "address"
        },
        {
          "indexed": false,
          "name": "newOwner",
          "type": "address"
        }
      ],
      "name": "OwnershipTransferred",
      "type": "event"
    },
    {
      "constant": false,
      "inputs": [
        {
          "name": "t",
          "type": "address"
        }
      ],
      "name": "setToken",
      "outputs": [],
      "payable": false,
      "stateMutability": "nonpayable",
      "type": "function"
    },
    {
      "constant": false,
      "inputs": [
        {
          "name": "r",
          "type": "address"
        }
      ],
      "name": "setRouter",
      "outputs": [],
      "payable": false,
      "stateMutability": "nonpayable",
      "type": "function"
    },
    {
      "constant": false,
      "inputs": [
        {
          "name": "b",
          "type": "address"
        }
      ],
      "name": "setBridge",
      "outputs": [],
      "payable": false,
      "stateMutability": "nonpayable",
      "type": "function"
    },
    {
      "constant": true,
      "inputs": [],
      "name": "versionPaymaster",
      "outputs": [
        {
          "name": "",
          "type": "string"
        }
      ],
      "payable": false,
      "stateMutability": "view",
      "type": "function"
    },
    {
      "constant": false,
      "inputs": [],
      "name": "deposit",
      "outputs": [],
      "payable": true,
      "stateMutability": "payable",
      "type": "function"
    },
    {
      "constant": true,
      "inputs": [],
      "name": "getGasLimits",
      "outputs": [
        {
          "components": [
            {
              "name": "acceptanceBudget",
              "type": "uint256"
            },
            {
              "name": "preRelayedCallGasLimit",
              "type": "uint256"
            },
            {
              "name": "postRelayedCallGasLimit",
              "type": "uint256"
            }
          ],
          "name": "limits",
          "type": "tuple"
        }
      ],
      "payable": false,
      "stateMutability": "view",
      "type": "function"
    },
    {
      "constant": false,
      "inputs": [
        {
          "components": [
            {
              "components": [
                {
                  "name": "from",
                  "type": "address"
                },
                {
                  "name": "to",
                  "type": "address"
                },
                {
                  "name": "value",
                  "type": "uint256"
                },
                {
                  "name": "gas",
                  "type": "uint256"
                },
                {
                  "name": "nonce",
                  "type": "uint256"
                },
                {
                  "name": "data",
                  "type": "bytes"
                }
              ],
              "name": "request",
              "type": "tuple"
            },
            {
              "components": [
                {
                  "name": "gasPrice",
                  "type": "uint256"
                },
                {
                  "name": "pctRelayFee",
                  "type": "uint256"
                },
                {
                  "name": "baseRelayFee",
                  "type": "uint256"
                },
                {
                  "name": "relayWorker",
                  "type": "address"
                },
                {
                  "name": "paymaster",
                  "type": "address"
                },
                {
                  "name": "paymasterData",
                  "type": "bytes"
                },
                {
                  "name": "clientId",
                  "type": "uint256"
                },
                {
                  "name": "forwarder",
                  "type": "address"
                }
              ],
              "name": "relayData",
              "type": "tuple"
            }
          ],
          "name": "relayRequest",
          "type": "tuple"
        },
        {
          "name": "signature",
          "type": "bytes"
        },
        {
          "name": "approvalData",
          "type": "bytes"
        },
        {
          "name": "maxPossibleGas",
          "type": "uint256"
        }
      ],
      "name": "preRelayedCall",
      "outputs": [
        {
          "name": "context",
          "type": "bytes"
        },
        {
          "name": "revertOnRecipientRevert",
          "type": "bool"
        }
      ],
      "payable": false,
      "stateMutability": "nonpayable",
      "type": "function"
    },
    {
      "constant": false,
      "inputs": [
        {
          "name": "gasUsage",
          "type": "uint256"
        }
      ],
      "name": "setPostGasUsage",
      "outputs": [],
      "payable": false,
      "stateMutability": "nonpayable",
      "type": "function"
    },
    {
      "constant": false,
      "inputs": [
        {
          "name": "context",
          "type": "bytes"
        },
        {
          "name": "success",
          "type": "bool"
        },
        {
          "name": "gasUseWithoutPost",
          "type": "uint256"
        },
        {
          "components": [
            {
              "name": "gasPrice",
              "type": "uint256"
            },
            {
              "name": "pctRelayFee",
              "type": "uint256"
            },
            {
              "name": "baseRelayFee",
              "type": "uint256"
            },
            {
              "name": "relayWorker",
              "type": "address"
            },
            {
              "name": "paymaster",
              "type": "address"
            },
            {
              "name": "paymasterData",
              "type": "bytes"
            },
            {
              "name": "clientId",
              "type": "uint256"
            },
            {
              "name": "forwarder",
              "type": "address"
            }
          ],
          "name": "relayData",
          "type": "tuple"
        }
      ],
      "name": "postRelayedCall",
      "outputs": [],
      "payable": false,
      "stateMutability": "nonpayable",
      "type": "function"
    }
  ],
  "bytecode": "0x6002608081815260e060405290816020016020820280388339505081516200002f92600b925060200190620002c9565b50620493e0600c553480156200004457600080fd5b5060405160a08062002189833981018060405262000066919081019062000398565b6200007a33640100000000620001e8810204565b60068054600160a060020a0319908116600160a060020a03888116919091179092556007805482168784161790556008805482168684161790819055600980548316868516179055600a805490921684841617909155600b80549190921691906000908110620000e657fe5b60009182526020808320919091018054600160a060020a031916600160a060020a03948516179055600954604080517fad5c46480000000000000000000000000000000000000000000000000000000081529051919094169363ad5c46489360048083019493928390030190829087803b1580156200016457600080fd5b505af115801562000179573d6000803e3d6000fd5b505050506040513d601f19601f820116820180604052506200019f91908101906200036f565b600b80546001908110620001af57fe5b9060005260206000200160006101000a815481600160a060020a030219169083600160a060020a03160217905550505050505062000454565b600160a060020a0381161515620001fe57600080fd5b7f8be0079c531659141344cd1fd0a4f28419497f9722a3daafe3b4186f6b6457e06200023264010000000062000293810204565b826040516200024392919062000429565b60405180910390a1600080516020620021698339815191526000526002602052600080516020620021498339815191528054600160a060020a031916600160a060020a0392909216919091179055565b6000805160206200216983398151915260005260026020526000805160206200214983398151915254600160a060020a03165b90565b82805482825590600052602060002090810192821562000321579160200282015b82811115620003215782518254600160a060020a031916600160a060020a03909116178255602090920191600190910190620002ea565b506200032f92915062000333565b5090565b620002c691905b808211156200032f578054600160a060020a03191681556001016200033a565b600062000368825162000448565b9392505050565b6000602082840312156200038257600080fd5b60006200039084846200035a565b949350505050565b600080600080600060a08688031215620003b157600080fd5b6000620003bf88886200035a565b9550506020620003d2888289016200035a565b9450506040620003e5888289016200035a565b9350506060620003f8888289016200035a565b92505060806200040b888289016200035a565b9150509295509295909350565b620004238162000448565b82525050565b6040810162000439828562000418565b62000368602083018462000418565b600160a060020a031690565b611ce580620004646000396000f3006080604052600436106101195763ffffffff60e060020a600035041663144fa6d781146101ce5780632afe31c1146101f05780632d14c4b71461021b5780635ea54eee1461023b5780636d7c3e2b1461025d57806374e861d61461027d5780637bb052641461029f5780637da0a877146102bf5780638b583e94146102e15780638da5cb5b146102f65780638dd148021461030b5780638e9483b01461032b578063921276ea1461034b5780639ea092111461036d578063b90b41cf1461038d578063bbdaa3c9146103a2578063c0d78655146103b7578063d0e30db0146103d7578063da742228146103df578063df463a66146103ff578063e5c1244614610414578063f2fde38b14610442578063f9c002f714610462575b600654600160a060020a0316151561014f5760405160e560020a62461bcd02815260040161014690611a83565b60405180910390fd5b6006546040517faa67c919000000000000000000000000000000000000000000000000000000008152600160a060020a039091169063aa67c91990349061019a9030906004016119f9565b6000604051808303818588803b1580156101b357600080fd5b505af11580156101c7573d6000803e3d6000fd5b5050505050005b3480156101da57600080fd5b506101ee6101e936600461146f565b610477565b005b3480156101fc57600080fd5b506102056104c2565b6040516102129190611b11565b60405180910390f35b34801561022757600080fd5b506101ee6102363660046116a3565b610563565b34801561024757600080fd5b506102506105fe565b6040516102129190611b03565b34801561026957600080fd5b506101ee610278366004611667565b61062d565b34801561028957600080fd5b5061029261064e565b60405161021291906119f9565b3480156102ab57600080fd5b506101ee6102ba366004611578565b61065d565b3480156102cb57600080fd5b506102d46106a8565b6040516102129190611a64565b3480156102ed57600080fd5b506102056106b7565b34801561030257600080fd5b506102926106bd565b34801561031757600080fd5b506101ee61032636600461146f565b610714565b34801561033757600080fd5b506101ee6103463660046114e8565b61075f565b34801561035757600080fd5b50610360610a45565b6040516102129190611a72565b34801561037957600080fd5b506101ee610388366004611596565b610aa4565b34801561039957600080fd5b50610205610ae9565b3480156103ae57600080fd5b50610205610aef565b3480156103c357600080fd5b506101ee6103d2366004611578565b610af6565b6101ee610b41565b3480156103eb57600080fd5b506101ee6103fa366004611578565b610bed565b34801561040b57600080fd5b50610205610c38565b34801561042057600080fd5b5061043461042f3660046115cb565b610c3f565b604051610212929190611a44565b34801561044e57600080fd5b506101ee61045d36600461146f565b610f33565b34801561046e57600080fd5b50610205610f58565b61047f6106bd565b600160a060020a0316331461049357600080fd5b6008805473ffffffffffffffffffffffffffffffffffffffff1916600160a060020a0392909216919091179055565b6006546040517f70a08231000000000000000000000000000000000000000000000000000000008152600091600160a060020a0316906370a082319061050c9030906004016119f9565b602060405180830381600087803b15801561052657600080fd5b505af115801561053a573d6000803e3d6000fd5b505050506040513d601f19601f8201168201806040525061055e9190810190611685565b905090565b61056b6106bd565b600160a060020a0316331461057f57600080fd5b6006546040517ef714ce000000000000000000000000000000000000000000000000000000008152600160a060020a039091169062f714ce906105c89085908590600401611b1f565b600060405180830381600087803b1580156105e257600080fd5b505af11580156105f6573d6000803e3d6000fd5b505050505050565b610606611139565b5060408051606081018252620249f08152620186a06020820152600c549181019190915290565b6106356106bd565b600160a060020a0316331461064957600080fd5b600c55565b600654600160a060020a031690565b6106656106bd565b600160a060020a0316331461067957600080fd5b6006805473ffffffffffffffffffffffffffffffffffffffff1916600160a060020a0392909216919091179055565b600754600160a060020a031681565b600c5481565b7f02016836a56b71f0d02689e69e326f4f4c1b9057164ef592671cf0d37c8040c060005260026020527fb7802e97e87ef2842a6cce7da7ffaeaedaa2f61a6a7870b23d9d01fc9b73712e54600160a060020a031690565b61071c6106bd565b600160a060020a0316331461073057600080fd5b600a805473ffffffffffffffffffffffffffffffffffffffff1916600160a060020a0392909216919091179055565b602084015160348501516054860151600654600c5460609490941c936000918291600160a060020a03909116906386a16f8f9061079e908a0187610f5f565b886040518363ffffffff1660e060020a0281526004016107bf929190611b4d565b602060405180830381600087803b1580156107d957600080fd5b505af11580156107ed573d6000803e3d6000fd5b505050506040513d601f19601f820116820180604052506108119190810190611685565b915061081b610f79565b6009546040517f095ea7b3000000000000000000000000000000000000000000000000000000008152600160a060020a039283169263095ea7b392610867929116908790600401611a29565b602060405180830381600087803b15801561088157600080fd5b505af1158015610895573d6000803e3d6000fd5b505050506040513d601f19601f820116820180604052506108b991908101906114ca565b15156108da5760405160e560020a62461bcd02815260040161014690611ab3565b6009546040517f4a25d94a000000000000000000000000000000000000000000000000000000008152600160a060020a0390911690634a25d94a9061092c9085908790600b9030904290600401611b6d565b600060405180830381600087803b15801561094657600080fd5b505af115801561095a573d6000803e3d6000fd5b505050506040513d6000823e601f3d908101601f191682016040526109829190810190611495565b8051600090811061098f57fe5b90602001906020020151905082811015610a3a576109ab610f79565b600160a060020a031663a9059cbb868386036040518363ffffffff1660e060020a0281526004016109dd929190611a29565b602060405180830381600087803b1580156109f757600080fd5b505af1158015610a0b573d6000803e3d6000fd5b505050506040513d601f19601f82011682018060405250610a2f91908101906114ca565b1515610a3a57600080fd5b505050505050505050565b60408051606081018252602181527f322e302e302b6f70656e67736e2e746f6b656e67736e2e697061796d6173746560208201527f72000000000000000000000000000000000000000000000000000000000000009181019190915290565b602081015160e00151600754600160a060020a03908116911614610add5760405160e560020a62461bcd02815260040161014690611aa3565b610ae681610f88565b50565b61c35081565b6201adb081565b610afe6106bd565b600160a060020a03163314610b1257600080fd5b6009805473ffffffffffffffffffffffffffffffffffffffff1916600160a060020a0392909216919091179055565b600654600160a060020a03161515610b6e5760405160e560020a62461bcd02815260040161014690611a83565b6006546040517faa67c919000000000000000000000000000000000000000000000000000000008152600160a060020a039091169063aa67c919903490610bb99030906004016119f9565b6000604051808303818588803b158015610bd257600080fd5b505af1158015610be6573d6000803e3d6000fd5b5050505050565b610bf56106bd565b600160a060020a03163314610c0957600080fd5b6007805473ffffffffffffffffffffffffffffffffffffffff1916600160a060020a0392909216919091179055565b620249f081565b606060006060600080600080600080610c578d610aa4565b8c5160a0810151602080820151920151600a54919950919750600160a060020a03908116911614610c9d5760405160e560020a62461bcd02815260040161014690611ac3565b7fffffffff0000000000000000000000000000000000000000000000000000000086167f1e86b2910000000000000000000000000000000000000000000000000000000014610d015760405160e560020a62461bcd02815260040161014690611ae3565b610d0c876044611039565b6009546040517fd06ca61f000000000000000000000000000000000000000000000000000000008152919650600160a060020a03169063d06ca61f90610d59908890600b90600401611b2d565b600060405180830381600087803b158015610d7357600080fd5b505af1158015610d87573d6000803e3d6000fd5b505050506040513d6000823e601f3d908101601f19168201604052610daf9190810190611495565b80516001908110610dbc57fe5b6020908102909101810151600654918f01516040517f86a16f8f000000000000000000000000000000000000000000000000000000008152919650600160a060020a03909216916386a16f8f91610e17918e91600401611b4d565b602060405180830381600087803b158015610e3157600080fd5b505af1158015610e45573d6000803e3d6000fd5b505050506040513d601f19601f82011682018060405250610e699190810190611685565b925082841015610e8e5760405160e560020a62461bcd02815260040161014690611af3565b610e99876004611039565b9150610ea88760188401611039565b8d5151909150600160a060020a03808316911614610edb5760405160e560020a62461bcd02815260040161014690611a93565b505099515160408051600160a060020a039092166c0100000000000000000000000002602083015260348201989098526054808201939093528751808203909301835260740190965298600198509650505050505050565b610f3b6106bd565b600160a060020a03163314610f4f57600080fd5b610ae68161106d565b620186a081565b6000818310610f6e5781610f70565b825b90505b92915050565b600854600160a060020a031690565b80516020908101519082015160e001516040517f572b6c05000000000000000000000000000000000000000000000000000000008152600160a060020a039092169163572b6c0591610fdc916004016119f9565b602060405180830381600087803b158015610ff657600080fd5b505af115801561100a573d6000803e3d6000fd5b505050506040513d601f19601f8201168201806040525061102e91908101906114ca565b1515610ae657600080fd5b6000816020018351101515156110645760405160e560020a62461bcd02815260040161014690611ad3565b50016020015190565b600160a060020a038116151561108257600080fd5b7f8be0079c531659141344cd1fd0a4f28419497f9722a3daafe3b4186f6b6457e06110ab6106bd565b826040516110ba929190611a07565b60405180910390a17f02016836a56b71f0d02689e69e326f4f4c1b9057164ef592671cf0d37c8040c060005260026020527fb7802e97e87ef2842a6cce7da7ffaeaedaa2f61a6a7870b23d9d01fc9b73712e805473ffffffffffffffffffffffffffffffffffffffff1916600160a060020a0392909216919091179055565b6060604051908101604052806000815260200160008152602001600081525090565b6000610f708235611c4a565b6000601f8201831361117857600080fd5b815161118b61118682611be7565b611bc0565b915081818352602084019350602081019050838560208402820111156111b057600080fd5b60005b838110156111dc57816111c68882611463565b84525060209283019291909101906001016111b3565b5050505092915050565b6000610f708235611c56565b6000610f708251611c56565b6000601f8201831361120f57600080fd5b813561121d61118682611c08565b9150808252602083016020830185838301111561123957600080fd5b611244838284611c69565b50505092915050565b6000610f708235611c5e565b600060c0828403121561126b57600080fd5b61127560c0611bc0565b90506000611283848461115b565b82525060206112948484830161115b565b60208301525060406112a884828501611457565b60408301525060606112bc84828501611457565b60608301525060806112d084828501611457565b60808301525060a082013567ffffffffffffffff8111156112f057600080fd5b6112fc848285016111fe565b60a08301525092915050565b6000610100828403121561131b57600080fd5b611326610100611bc0565b905060006113348484611457565b825250602061134584848301611457565b602083015250604061135984828501611457565b604083015250606061136d8482850161115b565b60608301525060806113818482850161115b565b60808301525060a082013567ffffffffffffffff8111156113a157600080fd5b6113ad848285016111fe565b60a08301525060c06113c184828501611457565b60c08301525060e06113d58482850161115b565b60e08301525092915050565b6000604082840312156113f357600080fd5b6113fd6040611bc0565b9050813567ffffffffffffffff81111561141657600080fd5b61142284828501611259565b825250602082013567ffffffffffffffff81111561143f57600080fd5b61144b84828501611308565b60208301525092915050565b6000610f708235611c5b565b6000610f708251611c5b565b60006020828403121561148157600080fd5b600061148d848461115b565b949350505050565b6000602082840312156114a757600080fd5b815167ffffffffffffffff8111156114be57600080fd5b61148d84828501611167565b6000602082840312156114dc57600080fd5b600061148d84846111f2565b600080600080608085870312156114fe57600080fd5b843567ffffffffffffffff81111561151557600080fd5b611521878288016111fe565b9450506020611532878288016111e6565b935050604061154387828801611457565b925050606085013567ffffffffffffffff81111561156057600080fd5b61156c87828801611308565b91505092959194509250565b60006020828403121561158a57600080fd5b600061148d848461124d565b6000602082840312156115a857600080fd5b813567ffffffffffffffff8111156115bf57600080fd5b61148d848285016113e1565b600080600080608085870312156115e157600080fd5b843567ffffffffffffffff8111156115f857600080fd5b611604878288016113e1565b945050602085013567ffffffffffffffff81111561162157600080fd5b61162d878288016111fe565b935050604085013567ffffffffffffffff81111561164a57600080fd5b611656878288016111fe565b925050606061156c87828801611457565b60006020828403121561167957600080fd5b600061148d8484611457565b60006020828403121561169757600080fd5b600061148d8484611463565b600080604083850312156116b657600080fd5b60006116c28585611457565b92505060206116d38582860161115b565b9150509250929050565b6116e681611c4a565b82525050565b60006116f782611c3c565b80845260208401935061170983611c30565b60005b828110156117395761171f8683546116dd565b61172882611c44565b60209690960195915060010161170c565b5093949350505050565b6116e681611c56565b600061175782611c40565b80845261176b816020860160208601611c75565b61177481611ca1565b9093016020019392505050565b6116e681611c5e565b601981527f72656c6179206875622061646472657373206e6f742073657400000000000000602082015260400190565b601f81527f73656e64657220646f6573206e6f74206d6174636820726563697069656e7400602082015260400190565b601881527f466f72776172646572206973206e6f7420747275737465640000000000000000602082015260400190565b600e81527f617070726f7665206661696c6564000000000000000000000000000000000000602082015260400190565b601981527f61636365707473206f6e6c79206272696467652063616c6c7300000000000000602082015260400190565b600e81527f6461746120746f6f2073686f7274000000000000000000000000000000000000602082015260400190565b601281527f6e6f7420616c6c6f776564207461726765740000000000000000000000000000602082015260400190565b601f81527f746f6b656e73206665652063616e277420636f76657220657870656e73657300602082015260400190565b8051606083019061191b84826119f0565b50602082015161192e60208501826119f0565b50604082015161194160408501826119f0565b50505050565b805160009061010084019061195c85826119f0565b50602083015161196f60208601826119f0565b50604083015161198260408601826119f0565b50606083015161199560608601826116dd565b5060808301516119a860808601826116dd565b5060a083015184820360a08601526119c0828261174c565b91505060c08301516119d560c08601826119f0565b5060e08301516119e860e08601826116dd565b509392505050565b6116e681611c5b565b60208101610f7382846116dd565b60408101611a1582856116dd565b611a2260208301846116dd565b9392505050565b60408101611a3782856116dd565b611a2260208301846119f0565b60408082528101611a55818561174c565b9050611a226020830184611743565b60208101610f738284611781565b60208082528101610f70818461174c565b60208082528101610f738161178a565b60208082528101610f73816117ba565b60208082528101610f73816117ea565b60208082528101610f738161181a565b60208082528101610f738161184a565b60208082528101610f738161187a565b60208082528101610f73816118aa565b60208082528101610f73816118da565b60608101610f73828461190a565b60208101610f7382846119f0565b60408101611a1582856119f0565b60408101611b3b82856119f0565b818103602083015261148d81846116ec565b60408101611b5b82856119f0565b818103602083015261148d8184611947565b60a08101611b7b82886119f0565b611b8860208301876119f0565b8181036040830152611b9a81866116ec565b9050611ba960608301856116dd565b611bb660808301846119f0565b9695505050505050565b60405181810167ffffffffffffffff81118282101715611bdf57600080fd5b604052919050565b600067ffffffffffffffff821115611bfe57600080fd5b5060209081020190565b600067ffffffffffffffff821115611c1f57600080fd5b506020601f91909101601f19160190565b60009081526020902090565b5490565b5190565b60010190565b600160a060020a031690565b151590565b90565b6000610f7382611c4a565b82818337506000910152565b60005b83811015611c90578181015183820152602001611c78565b838111156119415750506000910152565b601f01601f1916905600a265627a7a72305820f6a4a2fee5fc29b0b7acfdac99e5cc2997af1f1a0f8221fc0a7d1056f3d283656c6578706572696d656e74616cf50037b7802e97e87ef2842a6cce7da7ffaeaedaa2f61a6a7870b23d9d01fc9b73712e02016836a56b71f0d02689e69e326f4f4c1b9057164ef592671cf0d37c8040c0",
  "source": "//SPDX-License-Identifier: MIT\npragma solidity 0.4.24;\npragma experimental ABIEncoderV2;\n\nimport \"openzeppelin-solidity/contracts/token/ERC20/ERC20.sol\";\nimport \"../BasePaymaster.sol\";\nimport \"./IUniswapV2Router02.sol\";\nimport \"../../upgradeable_contracts/GSNForeignERC20Bridge.sol\";\n\ncontract TokenPaymaster is BasePaymaster {\n    address private token;\n    IUniswapV2Router02 private router;\n    address private bridge;\n\n    address[] private tokenWethPair = new address[](2);\n    uint256 public postGasUsage = 300000;\n\n    constructor(address _relayHub, address _forwarder, address _token, address _router, address _bridge) public {\n        _setOwner(msg.sender);\n        relayHub = IRelayHub(_relayHub);\n        trustedForwarder = IForwarder(_forwarder);\n\n        token = _token;\n        router = IUniswapV2Router02(_router);\n        bridge = _bridge;\n\n        tokenWethPair[0] = token;\n        tokenWethPair[1] = router.WETH();\n    }\n\n    function setToken(address t) external onlyOwner {\n        token = t;\n    }\n\n    function setRouter(IUniswapV2Router02 r) external onlyOwner {\n        router = r;\n    }\n\n    function setBridge(address b) external onlyOwner {\n        bridge = b;\n    }\n\n    function versionPaymaster() external view returns (string memory) {\n        return \"2.0.0+opengsn.tokengsn.ipaymaster\";\n    }\n\n    function() external payable {\n        require(address(relayHub) != address(0), \"relay hub address not set\");\n        relayHub.depositFor.value(msg.value)(address(this));\n    }\n\n    function deposit() external payable {\n        require(address(relayHub) != address(0), \"relay hub address not set\");\n        relayHub.depositFor.value(msg.value)(address(this));\n    }\n\n    function getGasLimits() external view returns (IPaymaster.GasLimits memory limits) {\n        return\n            IPaymaster.GasLimits(\n                PAYMASTER_ACCEPTANCE_BUDGET,\n                PRE_RELAYED_CALL_GAS_LIMIT,\n                postGasUsage // maximum postRelayedCall gasLimit\n            );\n    }\n\n    function erc20() internal view returns (ERC20) {\n        return ERC20(token);\n    }\n\n    function readBytes32(bytes memory b, uint256 index) internal pure returns (bytes32 res) {\n        require(b.length >= index + 32, \"data too short\");\n        assembly {\n            res := mload(add(b, add(index, 32)))\n        }\n    }\n\n    function preRelayedCall(\n        GsnTypes.RelayRequest relayRequest,\n        bytes signature,\n        bytes approvalData,\n        uint256 maxPossibleGas\n    ) public returns (bytes memory context, bool revertOnRecipientRevert) {\n        (signature, approvalData);\n        _verifyForwarder(relayRequest);\n        bytes memory reqData = relayRequest.request.data;\n        // Verify that `executeSignaturesGSN` is called\n        bytes4 functionSelector;\n        assembly {\n            functionSelector := mload(add(reqData, 32))\n        }\n        require(bridge == relayRequest.request.to, \"accepts only bridge calls\");\n        require(functionSelector == GSNForeignERC20Bridge(bridge).executeSignaturesGSN.selector, \"not allowed target\");\n\n        // Get 3rd argument of executeSignaturesGSN, i.e. maxTokensFee\n        uint256 maxTokensFee = uint256(readBytes32(reqData, 4 + 32 + 32));\n        uint256 potentialWeiIncome = router.getAmountsOut(maxTokensFee, tokenWethPair)[1];\n        uint256 maxFee = relayHub.calculateCharge(maxPossibleGas, relayRequest.relayData);\n        require(potentialWeiIncome >= maxFee, \"tokens fee can't cover expenses\");\n\n        // Recipient should match the sender\n        uint256 msgIdx = uint256(readBytes32(reqData, 4));\n        address recipient = address(readBytes32(reqData, 4 + msgIdx + 20));\n        require(recipient == relayRequest.request.from, \"sender does not match recipient\");\n        return (abi.encodePacked(relayRequest.request.from, maxPossibleGas, maxTokensFee), true);\n    }\n\n    function min(uint256 a, uint256 b) private pure returns (uint256) {\n        return a < b ? a : b;\n    }\n\n    function setPostGasUsage(uint256 gasUsage) external onlyOwner {\n        postGasUsage = gasUsage;\n    }\n\n    function postRelayedCall(bytes context, bool success, uint256 gasUseWithoutPost, GsnTypes.RelayData relayData)\n        public\n    {\n        (success);\n        // Extract data from context\n        address to;\n        uint256 maxPossibleGas;\n        uint256 maxTokensFee;\n        assembly {\n            to := shr(96, mload(add(context, 32)))\n            maxPossibleGas := mload(add(context, 52))\n            maxTokensFee := mload(add(context, 84))\n        }\n\n        // Calculate commission\n        // We already approved the transaction to use no more than `maxPossibleGas`.\n        // With `postGasUsage` variable we can regulate the commission that users will take.\n        // If `postGasUsage` is less than the actual gas usage of the `postRelayedCall`\n        // the paymaster will lose ETH after each transaction\n        // If `postGasUsage` is more than the actual gas usage of the `postRelayedCall`\n        // the paymaster will earn ETH after each transaction\n        // So, in real case scenario it should be chosen accurately\n        uint256 chargeWei = relayHub.calculateCharge(min(gasUseWithoutPost + postGasUsage, maxPossibleGas), relayData);\n\n        // Uniswap\n        require(erc20().approve(address(router), maxTokensFee), \"approve failed\");\n        // NOTE: Received eth automatically converts to relayhub deposit\n        uint256 spentTokens = router.swapTokensForExactETH(\n            chargeWei,\n            maxTokensFee,\n            tokenWethPair,\n            address(this),\n            block.timestamp\n        )[0];\n\n        // Send rest of tokens to user\n        if (spentTokens < maxTokensFee) {\n            require(erc20().transfer(to, maxTokensFee - spentTokens));\n        }\n    }\n}\n",
  "sourcePath": "/Users/eabz/Documents/GitHub/tokenbridge/packages/poanetwork/contracts/gsn/token_paymaster/TokenPaymaster.sol",
  "compiler": {
    "name": "solc",
    "version": "0.4.24+commit.e67f0147.Emscripten.clang"
  },
  "schemaVersion": "3.4.3",
  "updatedAt": "2021-09-04T01:08:19.180Z",
  "devdoc": {
    "methods": {
      "owner()": {
        "details": "Tells the address of the owner",
        "return": "the address of the owner"
      },
      "transferOwnership(address)": {
        "details": "Allows the current owner to transfer control of the contract to a newOwner.",
        "params": {
          "newOwner": "the address to transfer ownership to."
        }
      }
    }
  },
  "userdoc": {
    "methods": {}
  }
}