{
  "contractName": "UniswapRouterMock",
  "abi": [
    {
      "payable": true,
      "stateMutability": "payable",
      "type": "fallback"
    },
    {
      "constant": true,
      "inputs": [],
      "name": "WETH",
      "outputs": [
        {
          "name": "",
          "type": "address"
        }
      ],
      "payable": false,
      "stateMutability": "view",
      "type": "function"
    },
    {
      "constant": true,
      "inputs": [
        {
          "name": "amountIn",
          "type": "uint256"
        },
        {
          "name": "path",
          "type": "address[]"
        }
      ],
      "name": "getAmountsOut",
      "outputs": [
        {
          "name": "amounts",
          "type": "uint256[]"
        }
      ],
      "payable": false,
      "stateMutability": "pure",
      "type": "function"
    },
    {
      "constant": false,
      "inputs": [
        {
          "name": "amountOut",
          "type": "uint256"
        },
        {
          "name": "amountInMax",
          "type": "uint256"
        },
        {
          "name": "path",
          "type": "address[]"
        },
        {
          "name": "to",
          "type": "address"
        },
        {
          "name": "deadline",
          "type": "uint256"
        }
      ],
      "name": "swapTokensForExactETH",
      "outputs": [
        {
          "name": "amounts",
          "type": "uint256[]"
        }
      ],
      "payable": false,
      "stateMutability": "nonpayable",
      "type": "function"
    }
  ],
  "bytecode": "0x608060405234801561001057600080fd5b5061031e806100206000396000f3006080604052600436106100565763ffffffff7c01000000000000000000000000000000000000000000000000000000006000350416634a25d94a8114610058578063ad5c4648146100ec578063d06ca61f1461012a575b005b34801561006457600080fd5b5061009c6004803590602480359160443591820191013573ffffffffffffffffffffffffffffffffffffffff6064351660843561014e565b60408051602080825283518183015283519192839290830191858101910280838360005b838110156100d85781810151838201526020016100c0565b505050509050019250505060405180910390f35b3480156100f857600080fd5b50610101610290565b6040805173ffffffffffffffffffffffffffffffffffffffff9092168252519081900360200190f35b34801561013657600080fd5b5061009c600480359060248035908101910135610294565b606086606481028686600081811061016257fe5b604080517f23b872dd0000000000000000000000000000000000000000000000000000000081523360048201523060248201526044810186905290516020928302949094013573ffffffffffffffffffffffffffffffffffffffff16936323b872dd9350606480830193928290030181600087803b1580156101e357600080fd5b505af11580156101f7573d6000803e3d6000fd5b505050506040513d602081101561020d57600080fd5b505060405133908390600081818185875af192505050151561022e57600080fd5b60408051600280825260608201835290916020830190803883390190505092508083600081518110151561025e57fe5b60209081029091010152825182908490600190811061027957fe5b602090810290910101525090979650505050505050565b3090565b6040805160028082526060808301845292602083019080388339019050509050838160008151811015156102c457fe5b60209081029091010152606484048160018151811015156102e157fe5b6020908102909101015293925050505600a165627a7a723058209e7d63d39a53dde50df6367458bfb26f5df3e9bae1f5e3661bc74367d2e452d60029",
  "source": "//SPDX-License-Identifier: MIT\npragma solidity 0.4.24;\n\nimport \"openzeppelin-solidity/contracts/token/ERC20/ERC20.sol\";\nimport \"../gsn/token_paymaster/TokenPaymaster.sol\";\n\ncontract UniswapRouterMock {\n    function WETH() external view returns (address) {\n        return address(this);\n    }\n\n    function getAmountsOut(uint256 amountIn, address[] path) external pure returns (uint256[] memory amounts) {\n        (path);\n        amounts = new uint256[](2);\n        amounts[0] = amountIn;\n        amounts[1] = amountIn / 100;\n        // 1 wei == 100 tokens\n    }\n\n    function swapTokensForExactETH(uint256 amountOut, uint256 amountInMax, address[] path, address to, uint256 deadline)\n        external\n        returns (uint256[] memory amounts)\n    {\n        (amountInMax, path, to, deadline);\n        uint256 ethToSend = amountOut;\n        uint256 tokensToTake = ethToSend * 100;\n\n        ERC20(path[0]).transferFrom(msg.sender, address(this), tokensToTake);\n\n        require(msg.sender.call.value(ethToSend)());\n\n        amounts = new uint256[](2);\n        amounts[0] = tokensToTake;\n        amounts[1] = ethToSend;\n    }\n\n    function() external payable {}\n}\n",
  "sourcePath": "/Users/eabz/Documents/GitHub/tokenbridge/packages/poanetwork/contracts/mocks/UniswapRouterMock.sol",
  "compiler": {
    "name": "solc",
    "version": "0.4.24+commit.e67f0147.Emscripten.clang"
  },
  "schemaVersion": "3.4.3",
  "updatedAt": "2021-09-04T01:08:19.247Z",
  "devdoc": {
    "methods": {}
  },
  "userdoc": {
    "methods": {}
  }
}