{
  "contractName": "Validatable",
  "abi": [
    {
      "constant": true,
      "inputs": [],
      "name": "validatorContract",
      "outputs": [
        {
          "name": "",
          "type": "address"
        }
      ],
      "payable": false,
      "stateMutability": "view",
      "type": "function"
    },
    {
      "constant": true,
      "inputs": [],
      "name": "requiredSignatures",
      "outputs": [
        {
          "name": "",
          "type": "uint256"
        }
      ],
      "payable": false,
      "stateMutability": "view",
      "type": "function"
    }
  ],
  "bytecode": "0x608060405234801561001057600080fd5b506101e3806100206000396000f30060806040526004361061004b5763ffffffff7c01000000000000000000000000000000000000000000000000000000006000350416638d06804381146100505780639943908914610077575b600080fd5b34801561005c57600080fd5b506100656100b5565b60408051918252519081900360200190f35b34801561008357600080fd5b5061008c610153565b6040805173ffffffffffffffffffffffffffffffffffffffff9092168252519081900360200190f35b60006100bf610153565b73ffffffffffffffffffffffffffffffffffffffff16638d0680436040518163ffffffff167c0100000000000000000000000000000000000000000000000000000000028152600401602060405180830381600087803b15801561012257600080fd5b505af1158015610136573d6000803e3d6000fd5b505050506040513d602081101561014c57600080fd5b5051905090565b7f5a74bb7e202fb8e4bf311841c7d64ec19df195fee77d7e7ae749b27921b6ddfe60005260026020527fab54f3fbbe62c59b7876a9bf9bd5e0c22dbae93f4d8ee0438f7ce62b198eb0e05473ffffffffffffffffffffffffffffffffffffffff16905600a165627a7a72305820dff35c412db03e3eb2af9057cac8bec3455473b7b2972e6bf71ca6d6550a0c700029",
  "source": "pragma solidity 0.4.24;\n\nimport \"../interfaces/IBridgeValidators.sol\";\nimport \"../upgradeability/EternalStorage.sol\";\nimport \"./ValidatorStorage.sol\";\n\ncontract Validatable is EternalStorage, ValidatorStorage {\n    function validatorContract() public view returns (IBridgeValidators) {\n        return IBridgeValidators(addressStorage[VALIDATOR_CONTRACT]);\n    }\n\n    modifier onlyValidator() {\n        require(validatorContract().isValidator(msg.sender));\n        /* solcov ignore next */\n        _;\n    }\n\n    function requiredSignatures() public view returns (uint256) {\n        return validatorContract().requiredSignatures();\n    }\n\n}\n",
  "sourcePath": "/Users/eabz/Documents/GitHub/tokenbridge/packages/poanetwork/contracts/upgradeable_contracts/Validatable.sol",
  "compiler": {
    "name": "solc",
    "version": "0.4.24+commit.e67f0147.Emscripten.clang"
  },
  "schemaVersion": "3.4.3",
  "updatedAt": "2021-09-04T01:08:19.322Z",
  "devdoc": {
    "methods": {}
  },
  "userdoc": {
    "methods": {}
  }
}